:100000000C941D0F0C94450F0C94450F0C94450F48
:100010000C94450F0C94450F0C94450F0C94450F10
:100020000C94450F0C94450F0C9408160C947A16FA
:100030000C94450F0C94450F0C94450F0C94450FF0
:100040000C94450F0C94450F0C94450F0C94450FE0
:100050000C94450F0C94450F0C94450F0C942410F0
:100060000C94450F0C94450F0C94450F0C94450FC0
:100070000C94450F0C94450F0C94450F0C94450FB0
:100080000C94450F0C94450F0C94450F0C94450FA0
:100090000C94450F0C94450F0C94450F0C94450F90
:1000A0000C94450F0C94450F0C94450F9520BE20E1
:1000B000B721CC22E32ADE24692734294D61676EFB
:1000C000757320526F640049726F6E536865696C76
:1000D00064004B6174616E610057616E640042722E
:1000E0006F616420536865696C64004B6C65617670
:1000F000657200537461666600536865696C6400DC
:1001000053776F726400456D707479004D61676E4E
:10011000757320526F640049726F6E536865696C25
:1001200064004B6174616E610057616E64004272DD
:100130006F616420536865696C64004B6C6561761F
:10014000657200537461666600536865696C64008B
:1001500053776F726400456D707479000080B0D879
:10016000F898B863C6BA7CEECCCFCCEE7CBA46C366
:1001700000F1FF0FF10F0102073FFEACB591B5ACE6
:10018000FE3F87FF000103060D0600000E0F03026D
:10019000000C0002030F0F0170C070C13204CAF4DA
:1001A00098B4EAB498F4CA24C271C070000C172D38
:1001B000EAF4744D6FACD5ACAF4D7462970B05008B
:1001C0000000000C060B0B080F0D00000D0F0F08B0
:1001D0000B0A060C736C6F7420233A200053656C75
:1001E00065637420696E7620736C6F7400636F6949
:1001F0006E73003A004865726527732077686174F2
:1002000020796520676F7400596520706F74696F7D
:100210006E206261672069732066756C00796520C5
:1002200073686F7274206F6E20636F696E00427521
:1002300079206120506F74696F6E3F203320436FC7
:10024000696E00596F75206E656564206E6F74204D
:100250006865616C004845414C3A203120636F6904
:100260006E00427579206E657720657175697074CE
:100270006D656E740000F20C1202020202028242EC
:10028000820202020202020202020202028202024E
:100290000202020202020202020262E29A8A8A0A4E
:1002A0002A2A2A9A9ADADADA8A0A8ACACACACACAFE
:1002B000CACACA9A191A99DADADACA8A2A2A6A4A90
:1002C0008ACA9ADADADACA8A2A2A6A6AAACA8A8AAE
:1002D0008A8AAAEAAA3A1A1A1A1A9A0AEA5A1A0226
:1002E00002020202020202020202020202020202EE
:1002F00002120CF20000FF000000000000FEFD02F0
:1003000001FE000000000000000000E0FE1F0000F1
:1003100000000000000060E5F73D232120A0B1119E
:1003200011000F1F1FB9F9F9F004044D6901FFFF17
:10033000FF0101007EFF7E81A989817EFF7E000092
:10034000FFFFF6193979F9D68F46484801FFFF3982
:10035000391101414848181111D9380F0C0C00000F
:100360000000E0F0B0B0B8B81818B8B8B0B0F0E01D
:10037000000000FF0000FF000000000000FFFF0081
:1003800000FF00000000000000000302070C74885A
:100390007800000000060E0786363E32242425250C
:1003A000252021232333B331303032323220212330
:1003B000212829292A2839333333333124A4ACA006
:1003C000A3272330323031333732382823273333D1
:1003D0003333B337222828392F01030000000000EF
:1003E0000000030F3B766C7FF0F07F6C763B0F03D1
:1003F000000000FF0000FF0000000040407FDF40E1
:10040000C07F4040000000000000002078F46E0330
:10041000000000000000000000010265FACC5AF55F
:100420005ACCFA650201000000000067FA6C1C6CEF
:10043000F86C070200000000FC02EDB53B5A3232B6
:10044000523BB5ED02FC00000000000000FC8212EF
:1004500012711171121282FC0000000000000000F5
:100460000080C87070B02840C0400000000000004C
:10047000000000FF0000FF000000808080908FB52A
:100480008F90808080808080808080808FBF8F80F0
:100490008080808080808080808080808081828257
:1004A0008281808080808080808080808081818146
:1004B0008080808080808080878A9499999999999A
:1004C00091919190888780808080808080808183D6
:1004D00086888E88868381808080808080888C86D4
:1004E000838180808081868281808080808080007E
:1004F000000000FF0000FF00FC03000000000000FF
:1005000000000000000000000000000000000000EB
:1005100000000000000000000000000000000000DB
:1005200000000000000000000000000000000000CB
:1005300000000000000000000000000000000000BB
:1005400000000000000000000000000000000000AB
:10055000000000000000000000000000000000009B
:10056000000000000000000000000000000000018A
:10057000827C00FF0000F70C0A090A0A0A0A0A0A2C
:100580000A0A0A0A0A0A0A0A0A0A0A0A0A0A0A0ACB
:100590000A0A0A0A0A0A0A0A0A0A0A0A0A0A0A0ABB
:1005A0000A0A0A0A0A0A0A0A0A0A0A0A0A0A0A0AAB
:1005B0000A0A0A0A0A0A0A0A0A0A0A0A0A0A0A0A9B
:1005C0000A0A0A0A0A0A0A0A0A0A0A0A0A0A0A0A8B
:1005D0000A0A0A0A0A0A0A0A0A0A0A0A0A0A0A0A7B
:1005E0000A0A0A0A0A0A0A0A0A0A0A0A0A0A0A096C
:1005F000080808F700004F30484040404040404065
:1006000040404040404040404040404040404040EA
:1006100040404040404040404040404040404040DA
:1006200040404040404040404040404040404040CA
:10063000404040408040804040404040404040403A
:1006400040404040404040404040404040404040AA
:10065000404040404040404040404040404040409A
:10066000404040404040404040404040404040408A
:100670004048304F0020733A0020643A0020613A2D
:10068000003048B5CB83854830436F696E733A00BC
:1006900020004C766C3A004D616769633A005370F4
:1006A0006565643A00446566656E73653A000000EE
:1006B0000000000006010000010000000000000131
:1006C0000000000001000000F90000000000000030
:1006D0000100F3000000050002000000EB000A002A
:1006E000020005000000DE0014000000020005000A
:1006F000D9001E00070005000300D20028000500F5
:1007000007000300C7003200030005000700BC001B
:100710003C00537472656E6774683A00204850203C
:1007200000494E56454E544F5259205E5354415441
:10073000530000000000000056010000010000000E
:10074000000050010000000001000000490100000D
:10075000000000000100430100000500020000004D
:100760003B010A000200050000002E0114000000F9
:100770000200050029011E000700050003002201F8
:1007800028000500070003001701320003000500E0
:1007900007000C013C0053656C6563742069746547
:1007A0006D20746F20657175697074003C535441FD
:1007B00054532000535441545320762D494E562013
:1007C0003E4551505400000000E00E943874ECC0D7
:1007D000EC7438940EE0000000009CE638A3C69547
:1007E000AA6F2B292B6FAA95C6A338E69C000F0F82
:1007F0000F030104040406000604040401030F0FA0
:100800000F000F30434C90F8BCA6663E3E66A6BC77
:10081000F8904C43300F7804F21A0A05BB5E9A7FB9
:100820007F9A5EBB050A1AF2047800010000060FE9
:100830000A0903010103090A0F0600000100F00C78
:100840008262F1D96975B56565A57569D9F162826C
:100850000CF007C833889C252B4A525252524A2B1F
:10086000259C8833C807000304080B08090A0A0AF4
:100870000A0A0A09080B080403003E003E003E0075
:100880003E003E0053746F726500466967687420CD
:100890004172656E6120426F7373005265736574B7
:1008A00000426174746C650053746174730000F2EB
:1008B0000C120202020202020202020202020202FE
:1008C0000202020202020202020202020202020208
:1008D000020202020202020202020202FA060202FC
:1008E00002020202020202020202020202050205E2
:1008F00002020202020202020202020202020202D8
:1009000002020202020202020202020202020202C7
:1009100002020202020202020202020202020202B7
:1009200002020202020202020202120CF20000FFA4
:1009300000000000000000000000000000000000B7
:1009400000000000000000000000000000000000A7
:100950000000000000000000000000000F10202038
:100960002020202020202020202020202020202087
:100970002020202020202020202020202020202077
:100980002020202020202020202020202020202067
:100990002020202020202020202020202020202057
:1009A000202020202020202020202010FF0000FFD9
:1009B0000000000000000000000000000000000037
:1009C0000000000000000000000000000000000027
:1009D0000000000000000000000000000000000017
:1009E0000000000000000000000000000000000007
:1009F00000000000000000000000000000000000F7
:100A000000000000000000000000000000000000E6
:100A100000000000000000000000000000000000D6
:100A2000000000000000000000000000FF0000FFC8
:100A300000000000000000000000000000000000B6
:100A400000000000000000000000000000000000A6
:100A50000000000000000000000000000000000096
:100A60000000000000000000000000000000000086
:100A70000000000000000000000000000000000076
:100A80000000000000000000000000000000000066
:100A90000000000000000000000000000000000056
:100AA000000000000000000000000000FF0000FE49
:100AB0000100000000000000000000000000000035
:100AC0000000000000000000000000000000000026
:100AD0000000000000000000000000000000000016
:100AE0000000000000000000000000000000000006
:100AF00000000000000000000000000000000000F6
:100B000000000000000000000000000000000000E5
:100B100000000000000000000000000000000000D5
:100B2000000000000000000000000001FE0000FFC7
:100B300000000000000000000000000000000000B5
:100B400000000000000000000000000000000000A5
:100B50000000000000000000000000000000000095
:100B60000000000000000000000000000000000085
:100B70000000000000000000000000000000000075
:100B80000000000000000000000000000000000065
:100B90000000000000000000000000000000000055
:100BA000000000000000000000000000FF0000FF47
:100BB0000000000000000000000000000000000035
:100BC0000000000000000000000000000000000025
:100BD0000000000000000000000000000000000015
:100BE0000000000000000000000000000000000005
:100BF00000000000000000000000000000000000F5
:100C000000000000000000000000000000000000E4
:100C100000000000000000000000000000000000D4
:100C2000000000000000000000000000FF00004F76
:100C300030484040404040404040404040404040BC
:100C400040404040404040404040404040404040A4
:100C50004040404040404040404040404040404094
:100C600040404040404040404040404040A040A0C4
:100C70004040404040404040404040404040404074
:100C80004040404040404040404040404040404064
:100C90004040404040404040404040404040404054
:100CA0004040404040404040404048304F0041724A
:100CB000656E61204D6173746572004A6F75726E66
:100CC00065796D616E004172656E6120526F6F6B68
:100CD000696500000080000000001050DCFE191063
:100CE000000000000000000001FE0978381818F824
:100CF000FBFFF8F00000000000000000000F000003
:100D00000000000F0F0F0F0F0E0C0808000000006E
:100D100000066BF4F87C7CBC7C7CBC7C7CF8F46BBF
:100D200006000078A414FC14ABFFFEEED6AED6EE9F
:100D3000FFFB2438F0E00000000101010F0B050B60
:100D40000D0F0B050B0F00070F0F0700FC02F9FE3C
:100D5000000000E0B0B8F8EC000000000000000463
:100D6000073C1F373418B8EDF7BFE7FDB818F0E0BF
:100D700000000000000000000C0F0F030101010340
:100D80000F0C08000000004661737420616E64203F
:100D9000667261696C00000080000000001050DC89
:100DA000FE1910000000000000000001FE09783864
:100DB0001818F8FBFFF8F000000000000000000029
:100DC0000F00000000000F0F0F0F0F0E0C0808009F
:100DD00000004D6167650048696768204865616C7F
:100DE0007468202620446566656E73650000000601
:100DF0006BF4F87C7CBC7C7CBC7C7CF8F46B0600DF
:100E00000078A414FC14ABFFFEEED6AED6EEFFFBCA
:100E10002438F0E00000000101010F0B050B0D0F5D
:100E20000B050B0F00070F0F0754616E6B00537417
:100E3000726F6E672041747461636B0000FC02F98D
:100E4000FE000000E0B0B8F8EC0000000000000078
:100E500004073C1F373418B8EDF7BFE7FDB818F0AA
:100E6000E000000000000000000C0F0F0301010172
:100E7000030F0C080000000057617272696F720066
:100E80000A005069636B20796F757220636C61731F
:100E9000732E0000000000000000000000000000B1
:100EA0000000000000000000000000000000000042
:100EB0000000000000000000000000000000000032
:100EC0000000000000000000000000000000000022
:100ED0000000000000000000000000000000000012
:100EE0000000000000000000000000000000000002
:100EF00000000000000000000000000000000000F2
:100F000000000000000000000000000000000000E1
:100F100000000000000000000000000000000000D1
:100F200008183870F0F0E0E0E0F0F0F0E0E0E060A9
:100F30006060607070F0F0F0F0F0F0701000000091
:100F400000000000000000000000000000000000A1
:100F50000000000000000000000000000000000091
:100F60000000000000000000000000000000000081
:100F70000000000000000000000000000000000071
:100F80000000000000000000000000000000000061
:100F90000000001C1C1C1C1C1C1C1C1C1C1C1C1CE5
:100FA0001C1C0000C1FFFFFFFFC783010000000001
:100FB000000000000000010100000080E0F0E0C03F
:100FC00000000030F0F0F070787878381818183891
:100FD000383838101000000008081CFCF8F0000039
:100FE0000000000000000000C0F0F87830000010A1
:100FF000383838383870F0F0F0F0707878787070F1
:101000007020000000000000000000000000000050
:101010000000001C1C1C1C1C1C1C1C1C1C1C1C0080
:10102000000080FEFFFF3F1F1F0F0F0F0F0E0E0E61
:101030000E1E1E1E0E03000080E0FCFFFF3F0F008F
:101040000000FEFF8701000000000000207070E03B
:10105000E0E0E0202000000000C0FEFF7F3D1C1CFF
:101060001C1C183878F8FCFFFF1F0100000000006E
:1010700000000080E0F8FFFF7F0700E0E0E7E7E71F
:10108000E7E7E7E7E7E7E7E7E7E7E7E7E7E7E7E7F0
:10109000E7E7E70707C7C7C787070707072720301E
:1010A000383E3F3F1F0700000070F0F0E0C08000B6
:1010B000002020202030383E3F3F3F1F030000002B
:1010C000000021272F3E3C3C3C38383838383C1E45
:1010D0000F0701002020383C1F0F030000000040D4
:1010E000404070783C3F1F07000000000040404037
:1010F00060783E3F1F070300000038383838383822
:10110000383838383838383838383838383838385F
:1011100038383800000103070F0F0E0E0E0E0E0EAA
:101120000E0E0E0E0E0E0E0E0E0ECEEFFFFF7F1FDA
:101130001E1E1E3E3E3E3E3E3E3E7E7E7E7E7E7EAF
:101140007E7EFEFEFEFEFEFCFCFCFCFCFCF8F8F8DD
:10115000F8F8F8F8F8F8F8F8F0F0F0F0F0F0F0F04F
:10116000F0F0F0F0E0E0E0E0E0E0E0E0E0F0F0F00F
:10117000F0F0F0F0F8F8F8F8F8F8F8F87C7C7C3C3F
:101180003C3C1C1E1E0E0E00000000000000000073
:10119000000000301C1E1E0F0F0F0F0F1E3E3C30B4
:1011A00030303038181C1C1C1C3C79F9F1C0C0E0F0
:1011B000E0E0F070383838383870F0E0C0C0E0E077
:1011C000E0E0E0604040E040C0C1C1C1C1C18181F8
:1011D000010303030303030303030307070707874D
:1011E00087C7C7C7C7CF8F8F0F0F0F0F0F0F0F07FF
:1011F000070703030381C1C1C0E0E0E0E0E0C0C035
:1012000080C0E0F8FCFCFEFEFE7E3E1C1C181010A8
:101210003060E00E0703070F0F0E0C0808181818AF
:101220001C3E3E1E1E1E1C181818181023212000DC
:10123000404060703838181838306061E1E1F17171
:101240003371F0E0C0C0E0F070313171E1C181C3B1
:10125000C7CCCCC4860606060E1E3F8FC7C3C1C1CD
:10126000C1810103070F3F1F0F040686C6C6CEDCEF
:10127000D89C0C0EC7E3F1703070F1E3C7DFE7F3E1
:101280007131303060C0E1F3703030383C3E3E1E8A
:101290001E0E0CD5F08D14A1C881CFD9F1AF20005E
:1012A0003048B5CB838548306C766C3A00485000A6
:1012B0002F0000F20C1202020202020202020202DB
:1012C00002020202020202020202020202020202FE
:1012D00002020202020202020202020202020202EE
:1012E00002020202020202020202020202020202DE
:1012F000120DF20D120202020202020202020202A8
:1013000002020202020202020202020202020202BD
:101310000202FE02020202020202020202020202B1
:101320000202020202020202020202020202120C83
:10133000F20000FF000000000000000000000000BC
:10134000000000000000000000000000000000009D
:10135000000000000000000000000000000000008D
:10136000000000000000000000000000000000007D
:101370000000FF000000000000000000000000006E
:10138000000000000000000000000000000000005D
:101390000000FF000000000000000000000000004E
:1013A000000000000000000000000000000000003D
:1013B000FF0000FF0000000000000000000000002F
:1013C000000000000000000000000000000000001D
:1013D000000000000000000000000000000000000D
:1013E00000000000000000000000000000000000FD
:1013F0000000FF00000000000000000000000000EE
:1014000000000000000000000000000000000000DC
:101410000000FF00000000000000000000000000CD
:1014200000000000000000000000000000000000BC
:10143000FF0000FF000000000000000000000000AE
:10144000000000000000000000000000000000009C
:10145000000000000000000000000000000000008C
:10146000000000000000000000000000000000007C
:101470000000FF000000000000000000000000006D
:10148000000000000000000000000000000000005C
:1014900020C03FC02000000000000000000000004D
:1014A000000000000000000000000000000000003C
:1014B000FF0000FF0000000000000000000000002E
:1014C000000000000000000000000000000000001C
:1014D000000000000000000000000000000000000C
:1014E00000000000000000000000000000000000FC
:1014F0000000FF01010101010101010101010101E0
:1015000001010101010101010101010101010101CB
:1015100001020102010101010101010101010101B9
:1015200001010101010101010101010101010101AB
:10153000FF0000FF000000000000000000000000AD
:10154000000000000000000000000000000000009B
:10155000000000000000000000000000000000008B
:10156000000000000000000000000000000000007B
:101570000000FF000000000000000000000000006C
:10158000000000000000000000000000000000005B
:10159000000000000000000000000000000000004B
:1015A000000000000000000000000000000000003B
:1015B000FF0000FF0000000000000000000000002D
:1015C000000000000000000000000000000000001B
:1015D000000000000000000000000000000000000B
:1015E00000000000000000000000000000000000FB
:1015F0000000FF00000000000000000000000000EC
:1016000000000000000000000000000000000000DA
:1016100000000000000000000000000000000000CA
:1016200000000000000000000000000000000000BA
:10163000FF00004F30484040404040404040404064
:10164000404040404040404040404040404040409A
:10165000404040404040404040404040404040408A
:10166000404040404040404040404040404040407A
:1016700048B04FB04840404040404040404040406B
:10168000404040404040404040404040404040405A
:10169000404040404040404040404040404040404A
:1016A0004040404040404040404040404040483042
:1016B0004F00010204081020408000000000003E9E
:1016C0005B4F5B3E3E6B4F6B3E1C3E7C3E1C183CB2
:1016D0007E3C181C577D571C1C5E7F5E1C00183C0E
:1016E0001800FFE7C3E7FF0018241800FFE7DBE757
:1016F000FF30483A060E2629792926407F0505073E
:10170000407F05253F5A3CE73C5A7F3E1C1C080899
:101710001C1C3E7F14227F22145F5F005F5F06095E
:101720007F017F006689956A606060606094A2FFB7
:10173000A29408047E040810207E201008082A1CA9
:1017400008081C2A08081E101010100C1E0C1E0C75
:1017500030383E3830060E3E0E0600000000000015
:10176000005F00000007000700147F147F14242A84
:101770007F2A122313086462364956205000080756
:101780000300001C2241000041221C002A1C7F1C77
:101790002A08083E08080080703000080808080879
:1017A000000060600020100804023E5149453E00E0
:1017B000427F400072494949462141494D3318143E
:1017C000127F1027454545393C4A4949314121118D
:1017D00009073649494936464949291E000014007F
:1017E00000004034000000081422411414141414A2
:1017F000004122140802015909063E415D594E7C00
:101800001211127C7F494949363E414141227F41B4
:1018100041413E7F494949417F090909013E414112
:1018200051737F0808087F00417F41002040413FFD
:10183000017F081422417F404040407F021C027F0C
:101840007F0408107F3E4141413E7F090909063E61
:101850004151215E7F091929462649494932030130
:101860007F01033F4040403F1F2040201F3F403842
:10187000403F631408146303047804036159494D1D
:1018800043007F4141410204081020004141417F53
:1018900004020102044040404040000307080020C9
:1018A000545478407F2844443838444444283844C9
:1018B00044287F385454541800087E090218A4A400
:1018C0009C787F0804047800447D40002040403D1F
:1018D000007F1028440000417F40007C0478047899
:1018E0007C080404783844444438FC18242418182C
:1018F000242418FC7C080404084854545424040488
:101900003F44243C4040207C1C2040201C3C403074
:10191000403C44281028444C9090907C4464544CA3
:1019200044000836410000007700000041360800FE
:1019300002010204023C2623263C1EA1A161123AA8
:101940004040207A385454555921555579412154F5
:10195000547841215554784020545579400C1E52FA
:10196000721239555555593954545459395554549E
:10197000580000457C410002457D420001457C4005
:10198000F0292429F0F0282528F07C545545002022
:1019900054547C547C0A097F4932494949323248BF
:1019A000484832324A4848303A4141217A3A424026
:1019B0002078009DA0A07D39444444393D404040FA
:1019C0003D3C24FF2424487E4943662B2FFC2F2BCB
:1019D000FF0929F620C0887E09032054547941006C
:1019E00000447D413048484A32384040227A007AEB
:1019F0000A0A727D0D19317D2629292F28262929C9
:101A0000292630484D4020380808080808080808EA
:101A1000382F10C8ACBA2F102834FA00007B000011
:101A200008142A142222142A14089500220095AAC8
:101A3000005500AAAA55AA55AA000000FF001010E0
:101A400010FF00141414FF001010FF00FF1010F01E
:101A500010F0141414FC001414F700FF0000FF0031
:101A6000FF1414F404FC141417101F10101F101F7F
:101A70001414141F00101010F0000000001F1010AC
:101A800010101F10101010F010000000FF101010A8
:101A9000101010101010FF10000000FF140000FFC5
:101AA00000FF00001F10170000FC04F414141710AE
:101AB000171414F404F40000FF00F71414141414A1
:101AC0001414F700F7141414171410101F101F1417
:101AD0001414F4141010F010F000001F101F000078
:101AE000001F14000000FC140000F010F01010FFA4
:101AF00010FF141414FF141010101F00000000F049
:101B000010FFFFFFFFFFF0F0F0F0F0FFFFFF00001D
:101B1000000000FFFF0F0F0F0F0F38444438447CC4
:101B20002A2A3E147E02020606027E027E026355C7
:101B30004941633844443C04407E201E2006027E16
:101B4000020299A5E7A5991C2A492A1C4C72017228
:101B50004C304A4D4D303048784830BC625A463D92
:101B60003E494949007E0101017E2A2A2A2A2A4447
:101B7000445F444440514A444040444A514000007C
:101B8000FF0103E080FF000008086B6B0836123687
:101B90002436060F090F0600001818000000101068
:101BA000003040FF0101001F01011E00191D171226
:101BB000003C3C3C3C0000000000080B000202021C
:101BC00001000904000001020200000524001001C8
:101BD000052401010104240206052406000107056D
:101BE000810310004009040100020A0000000705FB
:101BF00002024000000705830240000004030904BC
:101C000012010002EF02014041233680000101026F
:101C1000030141726475696E6F204C4C4300417240
:101C20006475626F7900796F75277665206C6F73C4
:101C300074203220636F696E73005265737420796B
:101C40006F757220776F756E6473005468652041FC
:101C500072656E61205069747469657320796F755F
:101C6000004220746F2072657475726E20746F204C
:101C70006D656E7500596F752068617665204661E7
:101C8000696C6564004220746F2072657475726EB1
:101C900020746F206D656E7500617320796F7572A9
:101CA000207072697A650074616B65203220636F01
:101CB000696E7300566963746F7279004D6167696C
:101CC0006300757365642000546865206D6F620061
:101CD00041747461636B656400546865206D6F6264
:101CE00000446566656E64656400546865206D6FC8
:101CF0006200636F6E74696E756500506F74696F12
:101D00006E004D6167696300446566656E640041FD
:101D1000747461636B00000080C0C0E0E0E070702C
:101D2000F8787070F07010000000000000000000F3
:101D30000000000000000000000000001070F070C3
:101D400070F070F0F0F0E0E0C0C0808080801EFF96
:101D50000303FFFFFF000000FF000000FF00000082
:101D60000000000000000000000000000000000073
:101D7000000000000000FF0000FF0000FFFFFF0167
:101D800001FF0303FF07807F40404F3FAFA050504B
:101D90005F50E8E8EFE8E880808080808080808085
:101DA0008080808080808080808080E8E8E8CFE844
:101DB000E8EFD0D0DFDFAFA0407F4080FF003EBF24
:101DC000FEF4F5B3B3BBB999ABABABAFBF7D7571E7
:101DD000535DDDDDDDD9DBD6F77B77BBB7B7B59DCE
:101DE000949C9C9C3C7F6F6F5D797D7D7D3DB9F7B8
:101DF000EFEFEDDCBE7D68703A200020B8FEF450B5
:101E00000067FA6C1C6CF86C07020000000000010F
:101E1000181F3830186CBEDD87DDBE663C18387080
:101E2000E0000000000000000E030E0103010E0799
:101E30000E00000103010000EF2C11241FBECFEFA4
:101E4000DAE0DEBFCDBF12E0A0E0B1E0EAE1F1E60A
:101E500002C005900D92AC37B107D9F727E0ACE787
:101E6000B2E001C01D92AE3AB207E1F71FE0CDE14A
:101E7000DFE004C02197FE010E946C30CC31D10715
:101E8000C9F70E943E1F0C948B300C940000CF9237
:101E9000DF92EF92FF920F931F93CF93DF936C012A
:101EA0007A018B01C0E0D0E0CE15DF0589F0D801C2
:101EB0006D918D01D601ED91FC910190F081E02DA5
:101EC000C6010995892B11F47E0102C02196ECCF41
:101ED000C701DF91CF911F910F91FF90EF90DF909D
:101EE000CF9008953FB7F89480918702909188022F
:101EF000A0918902B0918A0226B5A89B05C02F3F08
:101F000019F00196A11DB11D3FBFBA2FA92F982F1F
:101F10008827820F911DA11DB11DBC01CD0142E09A
:101F2000660F771F881F991F4A95D1F70895089566
:101F3000089580E090E00895CF93DF93CDB7DEB7AA
:101F4000FC014B855C8586819781628573852D8533
:101F50003E85260F371FA98DBA8D4A9FB0014B9F32
:101F6000700D5A9F700D112476956795769567953B
:101F7000460F571F56954795240F351F49A15AA163
:101F8000241B350B66897789869FA001879F500D9A
:101F9000969F500D11245695479556954795840F59
:101FA000951F96958795281B390B82819381121670
:101FB00013061CF4821B930B01C001979383828349
:101FC000DF91CF9108950E9486308F929F92AF92B9
:101FD000BF92CF92DF92EF92FF926B017C010E9441
:101FE000720F4B015C01C114D104E104F104F1F062
:101FF0000E94720FDC01CB0188199909AA09BB095B
:10200000883E9340A105B10570F321E0C21AD108C2
:10201000E108F10888EE880E83E0981EA11CB11C2F
:10202000C114D104E104F10419F7DDCFFF90EF9062
:10203000DF90CF90BF90AF909F908F900895BC019C
:1020400080E090E00C94E50F1F920F920FB60F9274
:1020500011242F933F938F939F93AF93BF938091BE
:102060007C0290917D02A0917E02B0917F0230911E
:10207000860223E0230F2D3720F40196A11DB11D08
:1020800005C026E8230F0296A11DB11D20938602EC
:1020900080937C0290937D02A0937E02B0937F0296
:1020A0008091870290918802A0918902B0918A0262
:1020B0000196A11DB11D8093870290938802A09381
:1020C0008902B0938A02BF91AF919F918F913F9106
:1020D0002F910F900FBE0F901F9018958FB12CB1BC
:1020E00093B130E02095309520743327A90123E087
:1020F000559547952A95E1F7292F30E020953095A1
:10210000207133273595279535952795242B809574
:10211000807F822B089560387105D0F440345105DA
:10212000B8F4E2EBF6E180E1849FD001A0781124BD
:10213000A60F4770E40FF11D8491A854BD4F2223D0
:1021400019F06C91862B03C080956C9186238C933B
:1021500008952F923F924F925F926F927F928F924B
:102160009F92AF92BF92CF92DF92EF92FF920F9326
:102170001F93CF93DF93CDB7DEB729970FB6F894AF
:10218000DEBF0FBECDBFFC016A3069F4248D808DA7
:10219000918D38E0239F800D911D1124918F808FA8
:1021A000178A168AAAC06D3009F4A7C09987888754
:1021B000F48C338C228C608C718C068917890038E2
:1021C0001105C4F0A885B9855C962C915C97422FC7
:1021D00050E056968D919C915797B6E02B9F800DBD
:1021E000911D1124E885F985978B868B258D21110A
:1021F0006EC083C0F0E46F16710424F7C80125E0B7
:10220000F29E800D911D112418161906DCF68F2DF3
:1022100090E09C838B83C301A8E0FA9E800D911D02
:1022200011241816190674F6B5E06B9FB00111243D
:10223000FB01E654F94EFA83E98330E088859985FD
:1022400004969E838D83E981FA81E490353009F408
:10225000E12C430188E0482EE0FC02C0532C01C071
:10226000522C51100BC0321009C0E6944A948B8155
:102270009C81880E991E4110EFCF1BC068018C2DE8
:10228000801B8F1590F754018A2D88198F1568F4DB
:10229000252DA501B6018D819E813F830E948B1063
:1022A0009FEFA91AB90A3F81EFCFAFEFCA1ADA0A36
:1022B000E6CF3F5FEB81FC810E0F1F1F89819A8162
:1022C00001969A838983363009F0BDCF7BCF6AEFC0
:1022D00064039001659F300D112420583F4F28174B
:1022E00039075CF4A885B985ED91FC9111970190AF
:1022F000F081E02D6AE0CD01099581E090E029961A
:102300000FB6F894DEBF0FBECDBFDF91CF911F9106
:102310000F91FF90EF90DF90CF90BF90AF909F9084
:102320008F907F906F905F904F903F902F90089587
:10233000EF92FF920F931F93CF93DF93CDB7DEB74A
:102340002A970FB6F894DEBF0FBECDBFE982FA829E
:102350000B831C832D833E834F83588769877A873D
:102360004F8D58A12AE0FE017396AAECB6E00190C9
:102370000D922A95E1F728EB36E0F90191838083ED
:102380008D8D9E8D958384838AE0FE013196A0EC2D
:10239000B6E001900D928A95E1F7F90157834683E3
:1023A00062897389469FC001479F900D569F900D8B
:1023B00011249695879596958795480F591F5383B5
:1023C00042832A960FB6F894DEBF0FBECDBFDF91D1
:1023D000CF911F910F91FF90EF9008950F9300E41C
:1023E00020E842EB52E160E070E080E090E00E9483
:1023F000B91C0F9108950F93CF93DF9383E490E07E
:10240000909357078093560784E290E09093590782
:10241000809358078091D6069091D7060E94F91EA6
:1024200080EB92E10E94CB1D8091DA069091DB0651
:102430002091E6063091E706829FB001839F700DE0
:10244000929F700D11247695679576956795680F24
:10245000791F80E090E04AE00E94911E8DEA92E1AF
:102460000E94CB1D4091D8065091D90604E124E189
:1024700066E070E084E690E00E94B91C1092570775
:1024800010925607C2E3D0E0D0935907C093580783
:1024900020E330E04AE750E060E370E083E490E05E
:1024A0000E940C1E2AE330E04AE750E06AE370E045
:1024B00083E490E00E940C1E2AE330E043E450E005
:1024C00060E370E083E490E00E940C1E2AE330E0B9
:1024D0004AE750E060E370E08AE790E00E940C1E5B
:1024E00082E490E0909357078093560786E090E04F
:1024F000909359078093580788EA92E10E94CB1D78
:1025000088E590E090935707809356078DE090E020
:1025100090935907809358076091BE067091BF064B
:1025200080E090E04AE00E94911E86E490E0909363
:10253000570780935607D0935907C0935807809147
:102540003E0790913F078130910549F408E028E06B
:1025500040EA52E167E170E086E490E013C0029740
:1025600099F408E028E040EA52E167E170E086E48F
:1025700090E00E94B91C28E040EA52E167E170E077
:1025800080E590E00E94B91CDF91CF910F910895F2
:1025900021E030E04BE750E061E070E083E090E064
:1025A0000E940C1E2EE330E04BE750E06EE370E03B
:1025B00083E090E00E940C1E2CE330E041E050E00C
:1025C00064E070E081E090E00E940C1E2CE330E0BB
:1025D0004EE750E064E070E08EE790E00E940C1E51
:1025E00021E030E041E050E064E070E083E090E022
:1025F0000E940C1E21E030E04EE750E064E070E005
:102600008CE790E00E940C1E2EE330E04EE750E095
:102610006CE370E08CE790E00E940C1E2EE330E04B
:1026200041E050E06CE370E083E090E00C940C1E1D
:10263000CF93DF93FC01EB014115510509F074C004
:102640002130310581F52E813F814E895F89249F9C
:10265000C001259F900D349F900D1124969587956C
:1026600096958795820F931F9F938F936DB77EB733
:102670006C5171090FB6F8947EBF0FBE6DBFADB738
:10268000BEB711968CE101900D928A95E1F7CE01CB
:102690000E949C0F8DB79EB74E960FB6F8949EBFC2
:1026A0000FBE8DBFA0C0232BF9F41F921F926DB7F0
:1026B0007EB76C5171090FB6F8947EBF0FBE6DBF27
:1026C000ADB7BEB711968CE101900D928A95E1F7F6
:1026D000CE010E949C0F8DB79EB74E960FB6F89410
:1026E0009EBF0FBE8DBF7FC01F9282E08F936DB7DC
:1026F0007EB76C5171090FB6F8947EBF0FBE6DBFE7
:10270000ADB7BEB711968CE101900D928A95E1F7B5
:10271000CE010E949C0F8DB79EB74E960FB6F894CF
:102720009EBF0FBE8DBF5FC04130510509F58FEFD1
:102730008F938BEF8F936DB77EB76C5171090FB686
:10274000F8947EBF0FBE6DBFADB7BEB711968CE1DA
:1027500001900D928A95E1F7CE010E949C0F8DB7F2
:102760009EB74E960FB6F8949EBF0FBE8DBF3BC06E
:1027700043305105C1F52E813F814C855D85CA01ED
:10278000880F991F6A8D7B8D269FA001279F500D72
:10279000369F500D11245695479556954795420FF3
:1027A000531F56954795BC01641B750BAB01628D99
:1027B000738D269FC001279F900D369F900D112489
:1027C0009695879596958795280F391F3695279565
:1027D000240F351F1216130634F48A819B81821B45
:1027E000930B9B838A83DF91CF9108950F931F935F
:1027F000CF93DF9381EC80937C0085B1806F85B9A6
:10280000249884B1866E84B95E9A5F988AB1806D8F
:102810008AB9769A6E9881B3806F81BB899880B3AC
:102820008D7080BB80E58CBD81E08DBD85E090E042
:102830000E941F105F9A85E090E00E941F105E9832
:102840005C98E3E9F2E18DE08E0F94919EBD00006B
:102850000DB407FEFDCF31968E13F7CF5C9A81E859
:102860008093640081E08093650081E280934B0750
:10287000809164008E7F8093640080917A008064F0
:1028800080937A0080917A0086FDFCCFC091780019
:10289000D09179000E94720F8E0120E030E0980103
:1028A00011270027600F711F821F931F611571058B
:1028B0008105910511F00E94462E8091640081608F
:1028C0008093640010929B0210929A02DF91CF9144
:1028D0001F910F910C94B81DCF93DF931F92CDB72A
:1028E000DEB76983DC01ED91FC910280F381E02D7C
:1028F00041E050E0BE016F5F7F4F09950F90DF917F
:10290000CF91089583E08093E9008091F2008823BD
:1029100019F08AE38093E8000895FC018485958589
:1029200097FD0BC09FB7F89482E08093E9008091F7
:10293000F2009FBF90E0019608959FB7F89482E05F
:102940008093E9008091F2009FBF90E008958F92FC
:102950009F92AF92BF92CF92DF92EF92FF920F932E
:102960001F93CF93DF935C016B017A0180910B0180
:10297000882309F45BC080919402882309F456C02F
:102980008091910280FF05C08091E0008260809379
:10299000E000E70110E00AEF83E0882E9AE3992E29
:1029A0002097D9F10E94891C81110AC0015009F4B5
:1029B0003DC061E070E080E090E00E94E50FF0CF64
:1029C000282F30E0C217D3070CF48C2F4FB7F894A0
:1029D0008092E9009091E80095FF1DC0282F30E01B
:1029E000C21BD30BF601982F915020F08191809358
:1029F000F100FACFC20ED31E112319F09092E80015
:102A000009C08091E80085FD06C09092E80011E0C1
:102A1000209709F010E04FBFC3CF1111C3CF5D98CD
:102A200084E6809392021E141F0444F081E090E03B
:102A3000F5019383828380E090E001C0C701DF91BC
:102A4000CF911F910F91FF90EF90DF90CF90BF90AB
:102A5000AF909F908F9008950E94891C90E00895F8
:102A6000CF93DF931F92CDB7DEB7FC0184859585A8
:102A700097FD05C02FEF3FEF358724870BC0CE01B0
:102A800001960E945F1C019719F4898190E002C0B1
:102A90008FEF9FEF0F90DF91CF9108950F931F93CA
:102AA000CF93DF931F92CDB7DEB78C01FC018485F5
:102AB000958597FF0EC0CE0101960E945F1C01977D
:102AC00019F4298130E002C02FEF3FEFF80135877C
:102AD0002487F801848595850F90DF91CF911F9110
:102AE0000F910895CF92DF92EF92FF920F931F9371
:102AF000CF93DF931F92CDB7DEB7182F062FE42EAA
:102B0000862F880F8E5F99830E94031F83E00E94A7
:102B1000031FF12EC12E9981D92E8C2D8F1980176C
:102B200098F4F601E7FE02C0849101C080810E9402
:102B3000031F182F80E00E94031F8123FFEFCF1A8D
:102B4000DF0A8111EACF01C081E00F90DF91CF91C0
:102B50001F910F91FF90EF90DF90CF900895DF923B
:102B6000EF92FF920F931F93CF93DF93D82E8A019A
:102B70007B01E40EF51EEB01CE15DF0571F0D7FEEB
:102B800003C0FE01849101C088810E94031F219629
:102B90008111F2CF8FEF9FEF01C0C801DF91CF917C
:102BA0001F910F91FF90EF90DF9008950F931F9367
:102BB000CF93DF931F92CDB7DEB782E0898342E4E3
:102BC00050E06AEB7BE180E80E94AF150E949A1CFE
:102BD000DC0112960D911C9113970115110569F0F6
:102BE000D801ED91FC910280F381E02DBE016F5F71
:102BF0007F4FC801099597FF07C089810F90DF912A
:102C0000CF911F910F910895F80100851185E5CFAF
:102C10001F920F920FB60F9211248F939F93809162
:102C2000E1009091E100937F9093E10083FF0FC05A
:102C30001092E90091E09093EB001092EC0092E387
:102C40009093ED001092940298E09093F00082FF30
:102C500020C093E09093E9009091F200992319F03D
:102C60009AE39093E80090919202992339F0909121
:102C70009202915090939202992389F1909193023C
:102C8000992339F090919302915090939302992354
:102C900041F184FF10C08091E2008E7E81608093BC
:102CA000E2008091E1008F7E8093E10080919102AB
:102CB0008E7E806111C080FF16C08091E2008E7E02
:102CC00080618093E2008091E1008E7E8093E1003C
:102CD000809191028E7E81608093910204C05D9A02
:102CE000CDCF289AD6CF9F918F910F900FBE0F9086
:102CF0001F9018951F920F920FB60F921124CF922A
:102D0000DF92EF92FF920F931F932F933F934F9376
:102D10005F936F937F938F939F93AF93BF93EF9343
:102D2000FF93CF93DF93CDB7DEB76C97DEBFCDBFF8
:102D30001092E9008091E80083FFEDC168E0CE01C8
:102D400045960E94311F82EF8093E8008D8987FFAE
:102D500005C09091E80090FFFCCF03C09EEF9093D8
:102D6000E800982F907609F0C6C09E892F89188DAB
:102D700091110CC0803829F4809190028093F10069
:102D800002C01092F1001092F10048C1422F50E0B1
:102D9000512B913051F4811141C14130510509F05D
:102DA0003DC1809190028D7F0BC0933061F4811101
:102DB00035C14130510509F031C1809190028260E6
:102DC000809390022BC1953041F48091E80080FF00
:102DD000FCCF20682093E30021C1963009F05FC04A
:102DE000EB8CFC8C1092E90010928E0210928D02F6
:102DF000123091F510928C0210928B020E94D6151F
:102E000099E0BE016F5F7F4FDB01E92F1D92EA95CC
:102E1000E9F799831A8391E09E8390EA98879AEF65
:102E2000998720918D0230918E02275F3F4F3C831E
:102E30002B838D831092E90010928E0210928D02E6
:102E4000F0928C02E0928B0249E050E080E00E9418
:102E5000AF150E94D615E2C0F0928C02E0928B0270
:102E60000E949A1CDC011296ED90FC901397E114DD
:102E7000F10409F4C0C0D701ED91FC910480F58103
:102E8000E02DBE016B5E7F4FC7010995009719F0D9
:102E90000CF0C4C0C7C0F701E084F184E8CF9730DC
:102EA00009F4C0C0983021F481E08093F100B6C0ED
:102EB000993009F0B3C0837009F0B4C0E7EBF1E0DA
:102EC00081E021E036E39081992361F08093E9006D
:102ED0002093EB0091919093EC003093ED008F5F85
:102EE000873089F78EE78093EA001092EA008F8995
:102EF0008093940293C08B8D9C8D1092E900109268
:102F00008E0210928D0290938C0280938B02898D99
:102F1000811156C08E899D89913A59F4813209F008
:102F200081C047E050E064E071E080E00E94AF15AE
:102F300075C0913209F076C0833289F4888D90E0B3
:102F4000982F88272F89822BA0E0B0E08093000182
:102F500090930101A0930201B09303015FC08032FE
:102F600069F48091E80082FFFCCF67E084E091E0A3
:102F70000E94311F8BEF8093E80006C0823209F077
:102F80004DC08F8980930B0180918F02882319F0A7
:102F9000EEEFFAE002C0E0E0F8E0809104019091E9
:102FA0000501A0910601B0910701803B9440A10565
:102FB000B10509F07BC080910B0180FF93C076C002
:102FC0000E949A1CDC0112960D911C911397011519
:102FD000110541F1D801ED91FC910190F081E02DB6
:102FE000BE016B5E7F4FC8010995811117C0F801C2
:102FF00000851185ECCF113009F44EC0133091F4E7
:103000008F89882309F445C0823081F440E867E065
:103010008EE19CE10E947215882321F08EEF80934F
:10302000E80079C081E28093EB0075C0813029F41B
:1030300040E86BE082E19CE1EDCF833099F70E949C
:103040009A1CDC011296ED90FC9013978E010F5F95
:103050001F4F6801E114F10479F0D701ED91FC9163
:103060000680F781E02DB801C7010995080F111DF1
:10307000F701E084F184EECFD8011C92F6010190B3
:103080000020E9F73197BF016C197D0940E0C601C6
:10309000C1CF6CEF7BE102C060E07CE1611571059E
:1030A00009F2FB01449150E080E840CF0FB6F8945C
:1030B000A895809160008861809360001092600004
:1030C0000FBEA895EE3F2AE0F20739F08091FE0A84
:1030D0009091FF0A91838083A1CF1092FF0A1092F2
:1030E000FE0A9CCFEE3F8AE0F80731F080819181A3
:1030F0009093FF0A8093FE0A87E797E79183808386
:103100009BE088E10FB6F894A895809360000FBE0D
:103110009093600083CF6C960FB6F894DEBF0FBE1D
:10312000CDBFDF91CF91FF91EF91BF91AF919F9173
:103130008F917F916F915F914F913F912F911F914F
:103140000F91FF90EF90DF90CF900F900FBE0F90F8
:103150001F9018950F931F93CF93DF938091D606FE
:103160009091D706181619060CF084C28091BA0601
:103170009091BB06181619060CF0DDC10E94B81D0F
:10318000C6E0D0E0D0935707C093560784E090E0A4
:1031900090935907809358078091B8069091B9068B
:1031A0000E94EC1DD0935707C09356078EE090E025
:1031B000909359078093580786EF9DE10E94CB1D9D
:1031C0006091BA067091BB06072E000C880B990B14
:1031D00097FF03C00E94D21E03C04AE00E94911EC6
:1031E00085E192E00E94EC1D00E228E346E15DE10A
:1031F0006BE170E085E090E00E94B91C4091BC0654
:103200005091BD0604E124E16DE170E086E190E0BB
:103210000E94B91C0E94EE110E94FB118091B6021F
:103220009091B702009709F002C18091B402909189
:10323000B502009709F073C01092B30280919E020C
:1032400090919F02049724F010929F0210929E0288
:1032500080919E0290919F0297FF06C083E090E0CC
:1032600090939F0280939E0280919E0290919F0274
:103270008130910571F02CF4892B91F48FE09DE160
:103280000DC08230910541F0039751F48BEF9CE122
:1032900005C088E09DE102C082E09DE10E94CB1D57
:1032A00088E00E94AE1C8823B1F080919C0290912E
:1032B0009D02892B09F471C20EC0823091050CF079
:1032C000C1C2892B41F41092B2021092B102309324
:1032D000B5022093B4020E94E32D63E070E00E94E7
:1032E00058308130910579F048F08230910509F02D
:1032F000BDC29093B0028093AF020EC01092B00294
:103300001092AF0209C09093B0028093AF029093E5
:10331000AE028093AD02AAC281E090E0F8CF01979F
:1033200009F0A4C28091AD029091AE02019709F01C
:103330009DC22091DA063091DB068091BE06909105
:10334000BF066091EC067091ED06269FA001279FB5
:10335000500D369F500D112456954795569547951B
:10336000240F351F6091D0067091D106869FA00171
:10337000879F500D969F500D112456954795569551
:103380004795840F951F8217930720F481E080935F
:10339000AC0202C01092AC029091AC028091B302D8
:1033A0009923C9F0811162C2C091AF02D091B002DD
:1033B0000091B1021091B2029E01A80168EB76E083
:1033C00084ED96E00E9418139801AE0164ED76E05A
:1033D00088EB96E018C0811149C2C091B102D0912A
:1033E000B2020091AF021091B0029E01A80164EDFB
:1033F00076E088EB96E00E9418139801AE0168EB26
:1034000076E084ED96E00E94181381E090E09093BE
:103410009D0280939C0221E02093B3021092B5029A
:103420001092B4029093B7028093B6021FC2019724
:1034300009F01CC20E94B81D0E94EE110E94FB11EF
:1034400086E490E0909357078093560782E390E0DC
:10345000909359078093580782EF9CE10E94CB1DFF
:10346000C6E0D0E0D0935707C093560784E090E0C1
:1034700090935907809358078091AF029091B002C2
:103480008130910589F48AEE9CE10E94FE1DD09363
:103490005707C09356078EE090E0909359078093AA
:1034A000580781EE9CE131C0892B89F489ED9CE1BC
:1034B0000E94FE1DD0935707C09356078EE090E000
:1034C000909359078093580780ED9CE11EC088ECCB
:1034D0009CE10E94FE1DD0935707C09356078EE0D3
:1034E00090E0909359078093580782EC9CE10E94EA
:1034F000FE1DD0935707C093560788E190E0909344
:103500005907809358078CEB9CE10E94FE1D88E0D0
:103510000E94AE1C882309F4A9C180919C0290915D
:103520009D02892B09F0A2C181E090E090939D0259
:1035300080939C0297C10E94B81D0E94C81284E12A
:1035400090E0909357078093560790935907809384
:10355000580784EB9CE10E94FE1DCFE0D0E0D093A1
:103560005707C09356078EE190E0909359078093D8
:10357000580787EA9CE10E94FE1DD0935707C0932D
:10358000560788E290E0909359078093580789E99D
:103590009CE10E94FE1D8AE090E090935707809383
:1035A000560782E390E0909359078093580785E887
:1035B0009CE10E94FE1D84E00E94AE1C882309F459
:1035C00051C182E090E090939B0280939A02109206
:1035D00099028091F0069091F10602969093F1067F
:1035E0008093F0060091BE061091BF06000F111FD8
:1035F00080913A0790913B07080F191F10933B07E2
:1036000000933A07C091DA06D091DB06BE0180E054
:1036100090E00E945D2F9B01AC010E94EB2F20E007
:1036200030E040E450E40E94EB2F20E030E040E83E
:1036300050E40E94BB2E0E94272F601771072CF4C4
:103640002196D093DB06C093DA0680919702909181
:103650009802019709F006C1809195029091960217
:103660000196909396028093950210929802109280
:103670009702F8C00E94B81D0E94C812CAE0D0E0AC
:10368000D0935707C093560784E190E09093590771
:103690008093580785E79CE10E94FE1DD093570751
:1036A000C09356078EE190E0909359078093580796
:1036B00081E69CE10E94FE1D8091F0069091F1064A
:1036C000D0935707C093560718161906CCF088E216
:1036D00090E090935907809358078BE49CE10E94F7
:1036E000FE1DD0935707C093560782E390E0909356
:1036F0005907809358078AE39CE10E94FE1D0AC087
:1037000088E290E0909359078093580786E29CE105
:103710000E94CB1D84E00E94AE1C882309F4A2C045
:1037200082E090E090939B0280939A02109299021B
:103730008091DA069091DB064091E6065091E7060B
:10374000849F9001859F300D949F300D11243695F4
:10375000279536952795820F931F9093D7068093D0
:10376000D6068091970290919802019721F41092C9
:103770009802109297028091F0069091F1068230A3
:10378000910534F002979093F1068093F0066AC099
:103790001092F1061092F00665C021E030E03093FF
:1037A0009D0220939C0280919E0290919F02813005
:1037B000910509F082CD9093B2028093B1023DC091
:1037C000039709F088CD80913E0790913F07181626
:1037D00019060CF080CD019790933F0780933E0728
:1037E0004091D6065091D7062091DA063091DB063B
:1037F0006091E6067091E706269FC001279F900D15
:10380000369F900D11249695879596958795820FF2
:10381000931F9C013695279542175307F0F4420FEA
:10382000531F5093D7064093D60684E090E09093C0
:10383000B2028093B10281E090E09093B502809350
:10384000B40249CD8230910509F0BACF83E090E00F
:103850009093B2028093B1023ACD9093D7068093B1
:10386000D606E3CF1092B7021092B602DF91CF9145
:103870001F910F910895CF93DF93BC0180E090E0FA
:103880004AE00E94911EEC0185E192E00E94EC1D4D
:103890008C0F9D1FDF91CF9108958091B8028EBD4E
:1038A000E9EBF2E081910DB407FEFDCF8EBD86E01D
:1038B000E83BF807B9F70DB407FEFDCF0895FC010A
:1038C00080919402811103C08FEF9FEF08959FB7FD
:1038D000F89482E08093E9002091F20030E0121623
:1038E000130614F421E030E02115310559F0289831
:1038F00084E6809393028091F10080838091F200AE
:10390000882319F09FBFC90108958BE68093E800D2
:10391000F9CF2FB7F89483E08093E9009091E80005
:10392000892F807295FF04C09091F20080E4891B7A
:103930002FBF08958091A40281110DC082E0809371
:10394000A00284E08093A1021092A3021092A2022E
:1039500081E08093A40280EA92E0089520914A07D2
:10396000282329F490914907982381E009F480E005
:1039700008952F923F924F925F926F927F928F9213
:103980009F92AF92BF92CF92DF92EF92FF920F93EE
:103990001F93CF93DF93CDB7DEB728970FB6F89478
:1039A000DEBF0FBECDBF5A01822E912C9C01280D87
:1039B000391D37FDC4C0803891050CF0C0C09B0193
:1039C000200F311D37FDBBC0603471050CF0B7C04E
:1039D000AB0177FF04C044275527461B570B4770A0
:1039E00055279B0177FF02C0295F3F4FE3E03595E4
:1039F0002795EA95E1F777FF08C02150310968E083
:103A000070E0DB01A41BB50BAD01602F66956695D8
:103A1000669570E0077011F06F5F7F4FDB01A20FBA
:103A2000B31FBA83A98339017694762C66247794E0
:103A30006794680E791EE12CF12C00E010E0230160
:103A4000B0E84B0E511C68E070E0DB01A41BB50B25
:103A5000BC83AB8369817A812617370709F46FC06D
:103A60002830310509F46BC02F3FBFEF3B070CF442
:103A70005BC0B201600F711FDB01A854BD4FBE8354
:103A8000AD83D801A60DB71DA854BD4F6C0160E0F1
:103A900070E0681579050CF047C0E0E8CE16D10457
:103AA00009F442C0D7FC34C02F3FFFEF3F0709F4B1
:103AB00042C0FB01EE0DFF1DEA0DFB1DE491042E3B
:103AC00001C0EE0F0A94EAF73C90E329EC9341150C
:103AD0005105F1F027303105D9F0FB01EE0DFF1D46
:103AE000EA0DFB1DE4912E2E312CF1010B8002C05A
:103AF000F595E7950A94E2F7F887EF83ED81FE816B
:103B00003080EF81F885E3291F01ED81FE8120825D
:103B10006F5F7F4FED81FE813196FE83ED83FFEF76
:103B2000CF1ADF0A1196B5CF2F5F3F4F00581F4FB6
:103B3000E80CF91C8FCF4115510579F6E9CF28968D
:103B40000FB6F894DEBF0FBECDBFDF91CF911F91AE
:103B50000F91FF90EF90DF90CF90BF90AF909F902C
:103B60008F907F906F905F904F903F902F9008952F
:103B700080E0E8EBF2E081118FEF002481938193E4
:103B8000819381930394D1F7E0E4F7E0118E108ED6
:103B9000178A168A08950F931F93CF93DF938C0192
:103BA000C0E0D0E0F801EC0FFD1F6491662371F0D6
:103BB000E0914007F09141070190F081E02D80E411
:103BC00097E00995892B11F02196ECCFCE01DF917A
:103BD000CF911F910F910895009769F0FC0101901A
:103BE0000020E9F73197AF01481B590BBC0180E475
:103BF00097E00C94470F80E090E00895CF93DF9317
:103C00000E94CB1DEC0185E192E00E94EC1D8C0F1F
:103C10009D1FDF91CF9108955F926F927F928F9257
:103C20009F92AF92BF92CF92DF92EF92FF920F934B
:103C30001F93CF93DF93EC018B017A01A901461BFF
:103C4000570B57FF03C0519541955109C7018C1B74
:103C50009D0B97FF03C0919581959109552453942D
:103C60008417950714F0512C0AC09E2D8F2D7901D1
:103C7000292F382F9C2F8D2FE801092F182FEC1694
:103C8000FD0654F4902F812F8901292F382F9C2F66
:103C90008D2FE701E92EF82E37016C1A7D0A5901A4
:103CA000A01AB10AB7FE03C0B194A194B108630190
:103CB00077FE03C08FEFC81AD80AD594C7940217AD
:103CC000130714F08FEF01C081E0882E880F990848
:103CD000EC16FD06B4F021E0552019F0AE01B80154
:103CE00002C0A801BE0184E497E00E948B10CA18AC
:103CF000DB08D7FE04C0080D191DC60CD71C219681
:103D0000E7CFDF91CF911F910F91FF90EF90DF9060
:103D1000CF90BF90AF909F908F907F906F905F906B
:103D200008958F929F92AF92BF920F931F93CF935C
:103D3000DF93CDB7DEB7A1970FB6F894DEBF0FBE05
:103D4000CDBF19A2423008F44AE08E010F5D1F4F2B
:103D5000842E912CA12CB12CA50194010E94892EB6
:103D6000E62FB901CA0101501109EA3014F4E05DEF
:103D700001C0E95CD801EC93232B242B252B61F7A0
:103D8000C8010E94EC1DA1960FB6F894DEBF0FBECD
:103D9000CDBFDF91CF911F910F91BF90AF909F90BA
:103DA0008F900895CF92DF92EF92FF92CF93DF939F
:103DB0006B017C01E0914007F09141070190F08197
:103DC000E02D6DE280E497E00995EC016627772706
:103DD000CB016C197D098E099F094AE00E94911E52
:103DE0008C0F9D1FDF91CF91FF90EF90DF90CF90D0
:103DF0000895BC01990F880B990B97FD0C94D21E66
:103E00004AE00C94911E40918D0250918E022091B7
:103E10008B0230918C0242175307B4F49091E80062
:103E20009570E1F39091E80092FD19C08093F10044
:103E300080918D0290918E0201968F739927892B24
:103E400019F48EEF8093E80080918D0290918E029C
:103E5000019690938E0280938D0281E0089580E018
:103E60000895615030F02091F100FC01208301960B
:103E7000F8CF289884E6809393020895CF93DF9338
:103E8000CDB7DEB7C452D1400FB6F894DEBF0FBE37
:103E9000CDBF789484B5826084BD84B5816084BDD3
:103EA00085B5826085BD85B5816085BD80916E00D8
:103EB000816080936E001092810080918100826009
:103EC0008093810080918100816080938100809146
:103ED0008000816080938000809191008260809357
:103EE0009100809191008160809391008091900079
:103EF0008160809390008091C10084608093C100B4
:103F00008091C10082608093C1008091C100816076
:103F10008093C1008091C30081608093C300809131
:103F2000C00082608093C0008091C2008160809355
:103F3000C20080917A00846080937A0080917A0038
:103F4000826080937A0080917A00816080937A0009
:103F500080917A00806880937A0010929402109287
:103F60009002109291028091D70081608093D700D7
:103F700080EA8093D80089B5806189BD89B5826067
:103F800089BD09B400FEFDCF61E070E080E090E003
:103F90000E94E50F8091D8008F7C80618093D800CB
:103FA0008091E000807F8093E0008091E1008E7E30
:103FB0008093E1008DE08093E200559A209AEEEF25
:103FC000FFE7859194918B3F9C4D19F481E080939C
:103FD0008F020E94F6134E0133EB830E911C3E01BB
:103FE0005FE9650E711C5E018BE8A80EB11C6E01C5
:103FF00097E7C90ED11C1E01AFEE2A0E311C2E010F
:10400000BDEF4B1ABEEF5B0A2FB7F89480917C028C
:1040100090917D02A0917E02B0917F022FBF4091CE
:1040200050075091510760915207709153072091AA
:104030005407222349F020914C07821B8093550797
:10404000109254070C94E52A84179507A607B70722
:1040500088F4481B423010F40C94E52A83B7817F22
:1040600083BF83B7816083BF889583B78E7F83BF0B
:104070000C94E52A21E02093540780934C079093F9
:104080004D07A0934E07B0934F0720914B07820F27
:10409000911DA11DB11D8093500790935107A093CE
:1040A0005207B093530780914707909148070196B4
:1040B00090934807809347078091490780934A0768
:1040C0000E946E108093490780E80E94AE1C8823EE
:1040D00049F080919E0290919F02019790939F02D8
:1040E00080939E0280E10E94AE1C882349F080915B
:1040F0009E0290919F02019690939F0280939E0250
:104100000E946E1083FD04C010929D0210929C02CA
:10411000E0919A02F0919B02E830F10510F00C94C6
:10412000E32AEA5AFF4F0C946C300E94B81D00E459
:1041300020E843E95EE060E070E080E090E00E940B
:10414000B91C89E190E0909357078093560710922D
:1041500059071092580784E00E94AE1C882311F47E
:104160000C94E32A81E090E090939B0280939A0262
:1041700010929F0210929E020C94E32AFE01B996BF
:10418000CE01855A9F4F23EE31E0118210821382B7
:1041900012821582148237832683118610863A96FE
:1041A000E817F90791F781E090E098878F8384E61C
:1041B00090E09E8F8D8F6F961FAE1EAE6F97A1966B
:1041C0001FAE1EAEA197A3961FAE1EAEA397A596D7
:1041D0001FAE1EAEA597A7961FAE1EAEA797A996B7
:1041E0001FAE1EAEA997AD961FAE1EAEAD978CE664
:1041F000FE013196A4EDB6E001900D928A95E1F7AB
:104200000E94B81D0E94C81204E010E010935707E6
:104210000093560783E090E09093590780935807E6
:1042200082E89EE00E94CB1D80E89EE00E94CB1DAC
:104230002DE030E04FE750E06DE070E081E090E08D
:104240000E940C1E10935707009356078FE090E0D2
:10425000909359078093580780919E0290919F02F6
:10426000039724F010929F0210929E0280919E026A
:1042700090919F0297FF06C082E090E090939F028A
:1042800080939E0280919E0290919F0281309105C1
:1042900019F182309105E9F1892B09F058C088E7BE
:1042A0009EE00E94FE1D04E124E14CE35EE068E232
:1042B00070E084E090E00E94B91C84E090E090936C
:1042C00057078093560789E190E0909359078093B0
:1042D00058078EE29EE039C089E29EE00E94FE1DF2
:1042E00004E124E14DEE5DE068E270E084E090E0FE
:1042F0000E94B91C84E090E0909357078093560782
:1043000089E190E0909359078093580787ED9DE0ED
:104310001CC082ED9DE00E94CB1D04E124E146E932
:104320005DE068E270E084E090E00E94B91C84E007
:1043300090E0909357078093560789E190E090931F
:1043400059078093580787E89DE00E94CB1D0E9483
:104350006E1083FD02C00C94E32A80919C02909120
:104360009D02892B11F40C94EF2A0C94E32A0E94ED
:10437000B81D80E390E0909357078093560784E040
:1043800090E09093590780935807809195029091FF
:1043900096028130910549F028F0029751F48EEA97
:1043A0009CE005C086EC9CE002C08BEB9CE00E9488
:1043B000CB1D00E420E84EEA58E060E070E080E0C9
:1043C00090E00E94B91C80919E0290919F020597F7
:1043D00024F010929F0210929E0280919E02909172
:1043E0009F0297FF06C084E090E090939F02809325
:1043F0009E0209E010E0109357070093560784E0EF
:1044000090E0909359078093580788EA98E00E94BB
:10441000CB1D10935707009356078EE090E09093C2
:104420005907809358078091D6069091D7061816A1
:10443000190624F481EA98E00E94CB1D09E010E0FF
:10444000109357070093560728E130E0309359073F
:10445000209358078BE998E0CD5DDE4F2883C35247
:10446000D140CC5DDE4F3883C452D1400E94CB1D79
:104470001093570700935607F2E2EF2EF12CF092BB
:104480005907E09258078AE898E00E94CB1D1093E4
:104490005707009356070CE210E01093590700935A
:1044A000580784E898E00E94CB1D80919E0290916D
:1044B0009F02CD5DDE4F2881C352D140CC5DDE4FDF
:1044C0003881C452D14082309105B1F1A4F40097F3
:1044D00021F1019709F050C083E090E090935707D5
:1044E000809356078EE090E0909359078093580789
:1044F00080E898E03FC08330910559F10497E1F5D9
:1045000083E090E0909357078093560710935907E4
:10451000009358078AE798E02DC083E090E09093DD
:1045200057078093560784E090E090935907809353
:10453000580782E898E01EC083E090E09093570708
:104540008093560730935907209358078EE798E0D9
:1045500011C020919502309196022430310560F40B
:104560009093570780935607F0925907E0925807A7
:104570008CE798E00E94CB1D0E946E1083FD02C064
:104580000C94E32A80919C0290919D02892B11F456
:104590000C94D32A0C94E32A8091990281110BC2C6
:1045A0000E94B81D0E94E32D65E070E00E94583023
:1045B0008C01E090DA06F090DB060E94E32D970173
:1045C0002150310963E070E00E945830280F391FF4
:1045D0001216130614F021E030E00230110509F440
:1045E00023C10CF061C00115110509F4C4C00130EC
:1045F000110509F0D9C18AE0E4E1F1E0DE01AF5232
:10460000BF4F01900D928A95E1F7CE0185529F4FE1
:104610004AE0DC01E42F1D92EA95E9F7DC011396EC
:104620001C930E9312973F932F932EE338E03F9302
:104630002F93EDB7FEB73A970FB6F894FEBF0FBEB3
:10464000EDBFADB7BEB71196FE01EF52FF4F01901F
:104650000D924A95E1F7DC01EC901196FC901197D0
:1046600012960C91129713961C91139714962C91F5
:10467000149715963C91159716964C911697179688
:104680005C91179718966C91189719967C9187E111
:1046900092E00E94981181EF91E09093B906809387
:1046A000B8068DEE9DE077C10330110509F419C1FC
:1046B0000430110509F078C18AE0EEE1F1E0DE0195
:1046C000A35FBE4F01900D928A95E1F7CE01895EFE
:1046D0009E4F4AE0DC01E42F1D92EA95E9F761E084
:1046E00070E0DC0113967C936E93129715967C9381
:1046F0006E9314973F932F9326E93DE03F932F93BA
:10470000EDB7FEB73A970FB6F894FEBF0FBEEDBFF8
:10471000ADB7BEB71196FE01E35FFE4F01900D925B
:104720004A95E1F7DC01EC901196FC9011971296F6
:104730000C91129713961C91139714962C91149721
:1047400015963C91159716964C91169717965C9175
:10475000179718966C91189719967C9187E192E0BB
:104760000E94981181E192E09093B9068093B80677
:1047700086EC97E010C18AE0E8E2F1E0DE01A354A4
:10478000BF4F01900D928A95E1F7CE0189539F4F5B
:104790004AE0FC01542F11925A95E9F761E070E06C
:1047A000DC016D937C933F932F932EE338E03F938E
:1047B0002F93EDB7FEB73A970FB6F894FEBF0FBE32
:1047C000EDBFADB7BEB71196FE01E354FF4F0190A8
:1047D0000D924A95E1F7DC01EC901196FC9011974F
:1047E00012960C91129713961C91139714962C9174
:1047F000149715963C91159716964C911697179607
:104800005C91179718966C91189719967C9187E18F
:1048100092E00E9498118BEF91E09093B9068093FB
:10482000B8068CE39EE0B7C08AE0E2E3F1E0DE0187
:10483000AB51BF4F01900D928A95E1F78AE0D1010B
:10484000E82F1D92EA95E9F741E050E0D101159675
:104850005C934E9314973F932F93A6E9BDE0BF93CB
:10486000AF932DB73EB72A5031090FB6F8943EBF2B
:104870000FBE2DBFADB7BEB71196FE01EB51FF4F76
:1048800001900D928A95E1F7D101EC901196FC9080
:10489000119712960C91129713961C9113971496D8
:1048A0002C91149715963C91159716964C91169746
:1048B00017965C91179718966C91189719967C919A
:1048C00087E192E00E94981182E092E09093B9060D
:1048D0008093B806E6E9FDE0F093BD06E093BC06E0
:1048E0005EC08AE0ECE3F1E0DE01A750BF4F01902B
:1048F0000D928A95E1F78AE0D201E82F1D92EA95A0
:10490000E9F741E050E0D20111965C934E93159681
:104910005C934E9314973F932F9326E93DE03F938A
:104920002F93EDB7FEB73A970FB6F894FEBF0FBEC0
:10493000EDBFADB7BEB71196FE01E750FF4F019036
:104940000D928A95E1F7D201EC901196FC901197A7
:1049500012960C91129713961C91139714962C9102
:10496000149715963C91159716964C911697179695
:104970005C91179718966C91189719967C9187E11E
:1049800092E00E9498118AE092E09093B906809399
:10499000B80682E098E09093BD068093BC060FB6FF
:1049A000F894DEBF0FBECDBF81E0809399021092D4
:1049B0009F0210929E020E94AA1805C60E94B81D6E
:1049C00010925707109256071092590710925807E5
:1049D00084EB97E00E94CB1D2AE030E042E850E0F3
:1049E0006AE070E080E090E00E940C1E0E946E1071
:1049F00082FF06C082E090E090939B0280939A022F
:104A00008091820290918302892B09F0F8C18091F4
:104A10009E0290919F02029724F010929F021092A2
:104A20009E0280919E0290919F0297FF06C081E0B6
:104A300090E090939F0280939E0280919E029091BD
:104A40009F02009709F054C1109257071092560721
:104A50002CE030E030935907209358078091D4061A
:104A60009091D506CD5DDE4F2883C352D140CC5DF9
:104A7000DE4F3883C452D1400E94EC1D85E192E0A4
:104A80000E94EC1D8091D6069091D7060E94F91ED7
:104A900088E192E00E94EC1D8091DA069091DB069D
:104AA0004091E6065091E706849FB001859F700D06
:104AB000949F700D11247695679576956795680F8C
:104AC000791F80E090E04AE00E94911E8CE197E01F
:104AD0000E94FE1D82E197E00E94CB1D4091DA0604
:104AE0005091DB06E0912E070AE0F02EEF9DF001D9
:104AF0001124E255F94F65917491E091E806F09127
:104B0000E9064E9FC0014F9F900D5E9F900D1124AE
:104B10009695879596958795840F951F860F971F75
:104B20000E943B1C85EA96E00E94CB1D4091DA066C
:104B30005091DB06E0912E07EF9DF0011124E05526
:104B4000F94F65917491E091EA06F091EB064E9F62
:104B5000C0014F9F900D5E9F900D112496958795F3
:104B600096958795840F951F860F971F0E943B1C73
:104B70008EE996E00E94CB1D4091DA065091DB064B
:104B80006091EC067091ED06469FC001479F900D25
:104B9000569F900D11249695879596958795840F2D
:104BA000951F0E943B1C87E996E00E94CB1D409117
:104BB000DA065091DB06E0912E07EF9DF0011124FB
:104BC000EE54F94F65917491E091EE06F091EF0685
:104BD0004E9FC0014F9F900D5E9F900D11249695A2
:104BE000879596958795840F951F860F971F0E942E
:104BF0003B1C0BE410E01093570700935607CD5D64
:104C0000DE4F2881C352D140CC5DDE4F3881C45283
:104C1000D140309359072093580782E996E00E94CB
:104C2000CB1D6091DA067091DB0680E090E04AE0EF
:104C30000E94911E80E996E00E94CB1D10935707B9
:104C40000093560784E190E09093590780935807AA
:104C500080912E078F9DF0011124EC54F94F85911E
:104C600094910E94FE1D10935707009356078CE104
:104C700090E0909359078093580789E896E00E9446
:104C8000CB1D8091F0069091F1060E94F91E409193
:104C9000D8065091D90604E124E168E270E084E688
:104CA00090E00E94B91C80913E0790913F078130AF
:104CB000910539F408E028E041E856E068E270E048
:104CC00012C0029709F08DC008E028E041E856E0E4
:104CD00068E270E080E590E00E94B91C28E041E8BD
:104CE00056E062E370E080E590E00E94B91C79C074
:104CF000019709F076C00E94B81D109257071092D4
:104D00005607109259071092580781E297E00E94C7
:104D1000CB1D2AE030E042E850E06AE070E080E03D
:104D200090E00E940C1E10925707109256078CE0DC
:104D300090E0909359078093580700E317E0BAE09A
:104D4000FB2ECF5DDE4F19830883C152D140D801BD
:104D5000EC91EF9DF0011124EC54F94F8591949161
:104D60000E94CB1D8DE796E00E94CB1DD801EC91EF
:104D7000EF9DF0011124E255F94F6591749180E0A7
:104D800090E04AE00E94911E89E796E00E94CB1DC8
:104D9000D801ED91FD918D01EF9DF0011124E055B9
:104DA000F94F6591749180E090E04AE00E94911E75
:104DB00085E796E00E94CB1DCF5DDE4FA881B981CB
:104DC000C152D140EC91EF9DF0011124EE54F94F06
:104DD000859194910E943B1CB7E00A331B0709F0B0
:104DE000B0CF0E946E1086FF0AC081E090E09093E1
:104DF00083028093820210929F0210929E02809101
:104E0000820290918302019709F0DDC30E94B81DD0
:104E10001092570710925607109259071092580790
:104E20008CEA97E00E94CB1D2AE030E042E850E097
:104E30006AE070E080E090E00E940C1E109257073C
:104E4000109256078CE090E0909359078093580792
:104E500086E997E00E94FE1D80919E0290919F023C
:104E6000059724F010929F0210929E0280919E025C
:104E700090919F0297FF06C084E090E090939F027C
:104E800080939E02E0919E02F0919F02EE0FFF1F21
:104E9000E05DF84FE0812AE0E29FF0011124E85C38
:104EA000F84F859194910E94CB1D0E946E1083FF54
:104EB00007C080919C0290919D02892B09F4ABC49C
:104EC0000E946E1085FF7FC31092830210928202AF
:104ED0007AC30E94B81D00E420E845E752E060E094
:104EE00070E080E090E00E94B91C88E090E0909330
:104EF00057078093560789E290E090935907809373
:104F000058078CE192E00E94EC1D85E090E09093C0
:104F100057078093560786E390E090935907809354
:104F200058070E946E1082FF0AC082E090E09093C2
:104F30009B0280939A0210929F0210929E0280918F
:104F4000840290918502892B09F084C080919E0291
:104F500090919F02039724F010929F0210929E025C
:104F600080919E0290919F0297FF06C082E090E0A0
:104F700090939F0280939E0280919E0290919F0247
:104F80008130910549F08230910541F1892B09F07A
:104F90003FC082E692E03AC08091DA069091DB064B
:104FA0004091E6065091E706849F9001859F300D61
:104FB000949F300D11243695279536952795820FAD
:104FC000931F2091D6063091D7062817390718F479
:104FD00085E592E01BC083E492E018C020913E0773
:104FE00030913F078091F0069091F1062230310513
:104FF00030F4833091051CF08EE292E007C00397F5
:105000001CF48DE192E002C088E092E00E94CB1D8A
:105010000E946E1083FF1EC080919C0290919D02A1
:10502000892BC1F421E030E030939D0220939C0253
:1050300080919E0290919F028130910509F4FEC3F8
:105040008230910509F42AC4892B21F4309385021A
:10505000209384028091840290918502019709F047
:1050600091C080919E0290919F02059724F010922A
:105070009F0210929E0280919E0290919F0297FF44
:1050800006C084E090E090939F0280939E020E946D
:10509000B81D88E090E0909357078093560789E207
:1050A00090E0909359078093580785EF91E00E9414
:1050B000FE1D00E420E845E752E060E070E080E09B
:1050C00090E00E94B91C85E090E090935707809390
:1050D000560786E390E09093590780935807E09134
:1050E0009E02F0919F02EE0FFF1FE655FE4FE081FA
:1050F0001AE0E19FF0011124E85CF84F859194914A
:105100000E94CB1D83EF91E00E94CB1DE0919E0297
:10511000F0919F02EE0FFF1FE655FE4FE081E19FE9
:10512000F0011124E65CF84F6591749180E090E005
:105130004AE00E94911E8DEE91E00E94FE1D0E94A9
:105140006E1083FF1FC080919C0290919D02892B5D
:10515000C9F420919E0230919F02F901EE0FFF1FCA
:10516000E655FE4F8081819FF0011124E65CF84FE7
:10517000859194914091F0065091F1064817590796
:1051800008F0A8C38091840290918502029709F0EB
:105190001AC280919E0290919F02059724F010926E
:1051A0009F0210929E0280919E0290919F0297FF13
:1051B00006C084E090E090939F0280939E020E943C
:1051C000B81D00E420E845E752E060E070E080E0D0
:1051D00090E00E94B91C88E090E09093570780937C
:1051E000560789E290E090935907809358078DED18
:1051F00091E00E94FE1D85E090E090935707809318
:10520000560786E390E0909359078093580784ED02
:1052100091E00E94CB1D80919E0290919F020E947E
:10522000F91E8AE192E00E94EC1DE0919E02F0914D
:105230009F02EE0FFF1FE05DF84F80811AE0819F13
:10524000F0011124E85CF84F859194910E94FE1DB5
:105250000E946E1083FFB7C180919C0290919D02C5
:10526000892B09F448C3AFC1809199028111A3CB66
:105270000E94B81D81E08093990210929F021092C3
:105280009E0281E090E09093980280939702809133
:10529000950290919602009709F05DC08AE0E6E4DD
:1052A000F1E0DE01A359BF4F01900D928A95E1F71D
:1052B0008AE0D601E82F1D92EA95E9F723E030E075
:1052C000D60111963C932E9315963C932E931497EA
:1052D0002DE232E017963C932E9316971F9293E09F
:1052E0009F93AEE3B8E0BF93AF932DB73EB72A507C
:1052F00031090FB6F8943EBF0FBE2DBFADB7BEB794
:105300001196FE01E359FF4F01900D928A95E1F746
:10531000D601EC901196FC90119712960C91129771
:1053200013961C91139714962C91149715963C91F3
:10533000159716964C91169717965C911797189695
:105340006C91189719967C9188E392E00E949811CD
:10535000EEE3F8E0BFC08130910509F05FC08AE05C
:10536000E0E5F1E0DE01AF57BF4F01900D928A9565
:10537000E1F78AE0D501E82F1D92EA95E9F724E0EC
:1053800030E0D50111963C932E9322E030E0139645
:105390003C932E9312972EE332E017963C932E9374
:1053A00016971F9294E09F93ABEFBDE1BF93AF932D
:1053B0002DB73EB72A5031090FB6F8943EBF0FBE45
:1053C0002DBFADB7BEB71196FE01EF57FF4F01904D
:1053D0000D928A95E1F7D501EC901196FC9011970A
:1053E00012960C91129713961C91139714962C9168
:1053F000149715963C91159716964C9116971796FB
:105400005C91179718966C91189719967C9183E484
:1054100092E00E949811EBEFFDE15CC082309105B3
:1054200009F05DC08AE0EAE5F1E0DE01AB56BF4F6E
:1054300001900D928A95E1F78AE0D301E82F1D9241
:10544000EA95E9F726E030E0D30111963C932E93DC
:1054500029E432E017963C932E9316971F9295E01D
:105460009F93A8E9B1E0BF93AF932DB73EB72A5001
:1054700031090FB6F8943EBF0FBE2DBFADB7BEB712
:105480001196FE01EB56FF4F01900D928A95E1F7C0
:10549000D301EC901196FC90119712960C911297F3
:1054A00013961C91139714962C91149715963C9172
:1054B000159716964C91169717965C911797189614
:1054C0006C91189719967C9184E592E00E9498114E
:1054D000E8E9F1E0F093BD06E093BC065EC00397F7
:1054E00009F069CA8AE0E4E6F1E0DE01A755BF4FA2
:1054F00001900D928A95E1F78AE0D401E82F1D9280
:10550000EA95E9F72FE030E0D40111963C932E9311
:1055100029E532E017963C932E9316971F9296E05A
:105520009F9328E931E03F932F93EDB7FEB73A9769
:105530000FB6F894FEBF0FBEEDBFADB7BEB7119664
:10554000FE01E755FF4F01900D928A95E1F7D401D6
:10555000EC901196FC90119712960C91129713965D
:105560001C91139714962C91149715963C911597AE
:1055700016964C91169717965C91179718966C9102
:10558000189719967C9182E692E00E9498118CE51A
:1055900091E09093BD068093BC060FB6F894DEBFF1
:1055A0000FBECDBF08CA81E090E090939D0280932A
:1055B0009C0280919E0290919F028230910509F099
:1055C000E9C00E94F6130E944D1C80E090E0892BF8
:1055D00011F40C9404200E9400000C94F71F21E0A9
:1055E00030E030939D0220939C0280919E02909126
:1055F0009F0281309105F1F581EF91E09093D506FE
:105600008093D4068AE0EEE6F1E0A2EFB6E00190E6
:105610000D928A95E1F78FE09DE09093D9068093F3
:10562000D8068AE0E8E7F1E0A6EEB6E001900D9238
:105630008A95E1F78091DA069091DB064091E606C3
:105640005091E706849F9001859F300D949F300D07
:1056500011243695279536952795820F931F9093A1
:10566000D7068093D60610929F0210929E0282E087
:1056700090E03FC08230910509F040C026EF31E054
:105680003093D5062093D40623ED3CE03093D90621
:105690002093D8062AE0E2E8F1E0A2EFB6E001901C
:1056A0000D922A95E1F72AE0ECE8F1E0A6EEB6E0EB
:1056B00001900D922A95E1F72091DA063091DB06F0
:1056C0006091E6067091E706269FA001279F500D86
:1056D000369F500D11245695479556954795240FA2
:1056E000351F3093D7062093D60610929F02109252
:1056F0009E0290939B0280939A0265CF892B09F0BA
:1057000062CF8AE0E6E9F1E0A6EEB6E001900D9204
:105710008A95E1F789EE91E09093D5068093D406BF
:105720008091DA069091DB066091E6067091E706BB
:10573000869FA001879F500D969F500D112456956E
:10574000479556954795840F951F9093D70680935C
:10575000D6068BE49DE09093D9068093D8068AE024
:10576000E0EAF1E0ACEFB6E001900D928A95E1F746
:1057700030933107209330078AE0ECEFF6E0A2EF98
:10578000B6E001900D928A95E1F730932F072093B0
:105790002E0769CF833091054CF40097E1F485E042
:1057A00090E090939B0280939A0210C08330910501
:1057B00001F1049709F007CF86E090E090939B02F7
:1057C00080939A0210929F0210929E02109285027C
:1057D00010928402F8CE019709F0F5CE8091D6069A
:1057E0009091D706181619060CF0EDCE83E090E0E4
:1057F00080CF8091D6069091D706181619060CF026
:10580000E2CE8091950290919602049708F0DBCE4B
:1058100087E090E06ECFE0919E02F0919F02EE0F44
:10582000FF1FE05DF84F8081918190932F07809357
:105830002E07109283021092820242CB4091F00612
:105840005091F106141615060CF004CC2091DA06DE
:105850003091DB066091E6067091E706269FC00155
:10586000279F900D369F900D1124969587959695BC
:105870008795820F931F2091D6063091D70628175F
:10588000390708F0E7CB9093D7068093D6064150AE
:1058900051095093F1064093F006DCCB20913E076E
:1058A00030913F072330310508F0D4CB8091F006CA
:1058B0009091F106833091050CF4CCCB2F5F3F4FD4
:1058C00030933F0720933E0703979093F106809310
:1058D000F006C0CB81E090E090939D0280939C0203
:1058E000309381022093800282E090E090938502C1
:1058F0008093840247CCE0918002F0918102EE0F08
:10590000FF1FE655FE4F80819181E0919E02F0914C
:105910009F02EE0FFF1FE05DF84F80839183819F10
:10592000F0011124E65CF84F259134918091F00646
:105930009091F106821B930B9093F1068093F006F1
:10594000109285021092840281E090E090939D0273
:1059500080939C0238CE0F931F93CF93DF938C01DB
:1059600081E090E00E944F2E80FF31C08AE090E0FD
:105970000E944F2E9FEF980F9E3F48F522E330E0A4
:10598000D80157963C932E93569728E330E05996CA
:105990003C932E935897CBE0D0E0D801ED91FC9149
:1059A0000190F081E02D682FC8010995CE010E9479
:1059B0004F2E2196C131D10581F70E944D1C88EEF2
:1059C00093E0DF91CF911F910F910C941F10DF9105
:1059D000CF911F910F91089504970C94AB2C1092C6
:1059E00061071092600788EE93E0A0E0B0E080933A
:1059F000620790936307A0936407B093650781ECF7
:105A000091E090935F0780935E078FEF9FEF9093F5
:105A10006B0780936A0781E090E09093DB068093A8
:105A2000DA0684E690E09093F1068093F0061092F7
:105A30003F0710923E0710923B0710923A07ECEF97
:105A4000F6E083EE91E011821082138212821582B9
:105A5000148297838683118610863A9627E0EE3269
:105A6000F20789F71092310710923007109233072E
:105A700010923207109235071092340710923707B0
:105A800010923607109239071092380783E492E09B
:105A90009093B9068093B80688E090E09093BB0697
:105AA0008093BA068BEF9DE19093BD068093BC0670
:105AB00084E090E09093BF068093BE061092430767
:105AC000109242071092490710924A0780E1809392
:105AD0004B078FEF9FEF90934807809347071092F3
