:100000000C947B100C94A3100C94A3100C94A310CC
:100010000C94A3100C94A3100C94A3100C94A31094
:100020000C94A3100C94A3100C949D1E0C940F1F01
:100030000C94A3100C94A3100C94A3100C94A31074
:100040000C94A3100C94A3100C94A3100C94A31064
:100050000C94A3100C94A3100C94A3100C94A21154
:100060000C94A3100C94A3100C94A3100C94A31044
:100070000C94A3100C94A3100C94A3100C94A31034
:100080000C94A3100C94A3100C94A3100C94A31024
:100090000C94A3100C94A3100C94A3100C94A31014
:1000A0000C94A3100C94A3100C94A310A622CD22A0
:1000B000832374245029B3244F2700294D61676E90
:1000C000757320526F640049726F6E536865696C76
:1000D00064004B6174616E610057616E640042722E
:1000E0006F616420536865696C64004B6C65617670
:1000F000657200537461666600536865696C6400DC
:1001000053776F726400456D707479004261736853
:1001100000537769706500437572650057617465B7
:10012000720046697265004D61676E757320526F8B
:10013000640049726F6E536865696C64004B61744A
:10014000616E610057616E640042726F616420539A
:100150006865696C64004B6C656176657200537408
:1001600061666600536865696C640053776F7264FA
:1001700000456D707479000080B0D8F898B863C6F7
:10018000BA7CEECCCFCCEE7CBA46C300F1FF0FF1C7
:100190000F0102073FFEACB591B5ACFE3F87FF00F3
:1001A0000103060D0600000E0F0302000C000203FF
:1001B0000F0F014D61737465720070C070C132041D
:1001C000CAF498B4EAB498F4CA24C271C070000C9E
:1001D000172DEAF4744D6FACD5ACAF4D7462970B2C
:1001E00005000000000C060B0B080F0D00000D0FA2
:1001F0000F080B0A060C4F6772650020B8FEF4501A
:100200000067FA6C1C6CF86C07020000000000012B
:10021000181F3830186CBEDD87DDBE663C1838709C
:10022000E0000000000000000E030E0103010E07B5
:100230000E00000103010054726F6C6C00536C6976
:100240006D6500000000E00E943874ECC0EC74386A
:10025000940EE0000000009CE638A3C695AA6F2B20
:10026000292B6FAA95C6A338E69C000F0F0F030138
:1002700004040406000604040401030F0F0F004FDA
:100280007263000F30434C90F8BCA6663E3E66A6F3
:10029000BCF8904C43300F7804F21A0A05BB5E9A02
:1002A0007F7F9A5EBB050A1AF204780001000006FF
:1002B0000F0A0903010103090A0F06000001005398
:1002C0007069646572005761726C6F636B00546192
:1002D0006E6B004B6E6967687400736C6F742023DB
:1002E0003A200053656C65637420696E7620736CE8
:1002F0006F740059652042726F6B6500636F696EA1
:1003000073003A004865726527732077686174202E
:10031000796520676F7400596520706F74696F6E1E
:10032000206261672069732066756C0079652073AF
:10033000686F7274206F6E20636F696E004275790A
:10034000206120506F74696F6E3F203320436F69C6
:100350006E00596F75206E656564206E6F7420683D
:1003600065616C004845414C3A203120636F696EED
:1003700000427579206E6577206571756970746DBE
:10038000656E740000F20C120202020202824282C6
:1003900002020202020202020202020282020202BD
:1003A00002020202020202020262E29A8A8A0A2A15
:1003B0002A2A9A9ADADADA8A0A8ACACACACACACA4D
:1003C000CACA9A191A99DADADACA8A2A2A6A4A8ABF
:1003D000CA9ADADADACA8A2A2A6A6AAACA8A8A8A9D
:1003E0008AAAEAAA3A1A1A1A1A9A0AEA5A1A02029D
:1003F00002020202020202020202020202020202DD
:10040000120CF20000FF000000000000FEFD0201DF
:10041000FE000000000000000000E0FE1F000000E1
:10042000000000000060E5F73D232120A0B111117C
:10043000000F1F1FB9F9F9F004044D6901FFFFFF18
:100440000101007EFF7E81A989817EFF7E0000FF81
:10045000FFF6193979F9D68F46484801FFFF393937
:100460001101414848181111D9380F0C0C00000037
:1004700000E0F0B0B0B8B81818B8B8B0B0F0E0000C
:100480000000FF0000FF000000000000FFFF000070
:10049000FF00000000000000000302070C748878D1
:1004A00000000000060E0786363E3224242525254E
:1004B0002021232333B33130303232322021232123
:1004C0002829292A2839333333333124A4ACA0A373
:1004D0002723303230313337323828232733333330
:1004E00033B337222828392F010300000000000011
:1004F00000030F3B766C7FF0F07F6C763B0F0300C0
:100500000000FF0000FF0000000040407FDF40C00F
:100510007F4040000000000000002078F46E0300DF
:100520000000000000000000010265FACC5AF55AF4
:10053000CCFA650201000000000067FA6C1C6CF840
:100540006C070200000000FC02EDB53B5A3232524B
:100550003BB5ED02FC00000000000000FC8212121E
:10056000711171121282FC000000000000000000F6
:1005700080C87070B02840C040000000000000003B
:100580000000FF0000FF000000808080908FB58F8A
:1005900090808080808080808080808FBF8F8080EE
:1005A0008080808080808080808080808182828244
:1005B0008180808080808080808080808181818037
:1005C00080808080808080878A9499999999999178
:1005D00091919088878080808080808080818386D0
:1005E000888E88868381808080808080888C8683C6
:1005F00081808080818682818080808080800000F0
:100600000000FF0000FF00FC0300000000000000ED
:1006100000000000000000000000000000000000DA
:1006200000000000000000000000000000000000CA
:1006300000000000000000000000000000000000BA
:1006400000000000000000000000000000000000AA
:10065000000000000000000000000000000000009A
:10066000000000000000000000000000000000008A
:1006700000000000000000000000000000000182F7
:100680007C00FF0000F70C0A090A0A0A0A0A0A0A93
:100690000A0A0A0A0A0A0A0A0A0A0A0A0A0A0A0ABA
:1006A0000A0A0A0A0A0A0A0A0A0A0A0A0A0A0A0AAA
:1006B0000A0A0A0A0A0A0A0A0A0A0A0A0A0A0A0A9A
:1006C0000A0A0A0A0A0A0A0A0A0A0A0A0A0A0A0A8A
:1006D0000A0A0A0A0A0A0A0A0A0A0A0A0A0A0A0A7A
:1006E0000A0A0A0A0A0A0A0A0A0A0A0A0A0A0A0A6A
:1006F0000A0A0A0A0A0A0A0A0A0A0A0A0A0A09085D
:100700000808F700004F304840404040404040401B
:1007100040404040404040404040404040404040D9
:1007200040404040404040404040404040404040C9
:1007300040404040404040404040404040404040B9
:100740004040408040804040404040404040404029
:100750004040404040404040404040404040404099
:100760004040404040404040404040404040404089
:100770004040404040404040404040404040404079
:1007800048304F0020733A0020643A0020613A005C
:100790003048B5CB83854830436F696E733A00208B
:1007A000004C766C3A004D616769633A005370659E
:1007B00065643A00446566656E73653A0000000042
:1007C0000000000601000001000000000000010020
:1007D00000000001000000F900000000000000011E
:1007E00000F3000000050002000000EB000A000218
:1007F0000005000000DE001400000002000500D922
:10080000001E00070005000300D2002800050007B5
:10081000000300C7003200030005000700BC003CD5
:1008200000537472656E6774683A00204850200067
:10083000494E56454E544F5259205E5354415453DD
:100840000022010503011C01050302170105050033
:1008500011010A00000C010500000000000000006A
:10086000710100000100000000006B0100000000A9
:1008700001000000640100000000000001005E01B2
:10088000000005000200000056010A0002000500F9
:1008900000004901140000000200050044011E0090
:1008A0000700050003003D012800050007000300C4
:1008B0003201320003000500070027013C005365A8
:1008C0006C656374206974656D20746F2065717543
:1008D000697074003C5354415453200053544154A4
:1008E0005320762D494E56203E4551505400D30298
:1008F0000800080005000400000001C91D000000F8
:10090000000300000000000100CE020A00040007FE
:10091000000200020002881D000000000300000029
:1009200000000100C60208000100020008000800E3
:1009300003471D000100000300000002000100BF8A
:100940000205000700040008000100008302000007
:10095000000003000000000001007F020700080003
:100960000600010003000A4302000000000400002A
:1009700000000001003D021C0008000A00060008FB
:100980000000FB1F00000000030000000000010049
:10099000370214000F000A00070008000AFB0100DC
:1009A0000000000400000001000100F60114001422
:1009B000000F000500000000BA0100000000040064
:1009C000000001000100B30114000F000F000A0035
:1009D0000A0000770102000000030000000100018E
:1009E000003E003E003E003E003E0053746F7265C4
:1009F000004669676874204172656E6120426F73BA
:100A00007300526573657400426174746C650053C1
:100A1000746174730000F20C1202020202020202FC
:100A200002020202020202020202020202020202A6
:100A30000202020202020202020202020202020296
:100A4000020202FA0602020202020202020202028A
:100A50000202020205020502020202020202020270
:100A60000202020202020202020202020202020266
:100A70000202020202020202020202020202020256
:100A80000202020202020202020202020202020246
:100A900002120CF20000FF00000000000000000045
:100AA0000000000000000000000000000000000046
:100AB0000000000000000000000000000000000036
:100AC0000000000F102020202020202020202020A7
:100AD0002020202020202020202020202020202016
:100AE0002020202020202020202020202020202006
:100AF00020202020202020202020202020202020F6
:100B000020202020202020202020202020202020E5
:100B1000202010FF0000FF00000000000000000087
:100B200000000000000000000000000000000000C5
:100B300000000000000000000000000000000000B5
:100B400000000000000000000000000000000000A5
:100B50000000000000000000000000000000000095
:100B60000000000000000000000000000000000085
:100B70000000000000000000000000000000000075
:100B80000000000000000000000000000000000065
:100B9000000000FF0000FF00000000000000000057
:100BA0000000000000000000000000000000000045
:100BB0000000000000000000000000000000000035
:100BC0000000000000000000000000000000000025
:100BD0000000000000000000000000000000000015
:100BE0000000000000000000000000000000000005
:100BF00000000000000000000000000000000000F5
:100C000000000000000000000000000000000000E4
:100C1000000000FF0000FE010000000000000000D6
:100C200000000000000000000000000000000000C4
:100C300000000000000000000000000000000000B4
:100C400000000000000000000000000000000000A4
:100C50000000000000000000000000000000000094
:100C60000000000000000000000000000000000084
:100C70000000000000000000000000000000000074
:100C80000000000000000000000000000000000064
:100C9000000001FE0000FF00000000000000000056
:100CA0000000000000000000000000000000000044
:100CB0000000000000000000000000000000000034
:100CC0000000000000000000000000000000000024
:100CD0000000000000000000000000000000000014
:100CE0000000000000000000000000000000000004
:100CF00000000000000000000000000000000000F4
:100D000000000000000000000000000000000000E3
:100D1000000000FF0000FF000000000000000000D5
:100D200000000000000000000000000000000000C3
:100D300000000000000000000000000000000000B3
:100D400000000000000000000000000000000000A3
:100D50000000000000000000000000000000000093
:100D60000000000000000000000000000000000083
:100D70000000000000000000000000000000000073
:100D80000000000000000000000000000000000063
:100D9000000000FF00004F304840404040404040CD
:100DA0004040404040404040404040404040404043
:100DB0004040404040404040404040404040404033
:100DC0004040404040404040404040404040404023
:100DD00040404040A040A040404040404040404053
:100DE0004040404040404040404040404040404003
:100DF00040404040404040404040404040404040F3
:100E000040404040404040404040404040404040E2
:100E10004048304F004172656E61204D61737465CA
:100E200072004A6F75726E65796D616E0041726510
:100E30006E6120526F6F6B6965004661737420614B
:100E40006E6420667261696C004D61676500486977
:100E50006768204865616C74682026204465666573
:100E60006E73650054616E6B005374726F6E672011
:100E700041747461636B0057617272696F72000A2A
:100E8000005069636B20796F757220636C617373B6
:100E90002E00486974206220746F2073746172742C
:100EA0000000000000000000000000000000000042
:100EB0000000000000000000000000000000000032
:100EC0000000000000000000000000000000000022
:100ED0000000000000000000000000000000000012
:100EE0000000000000000000000000000000000002
:100EF00000000000000000000000000000000000F2
:100F000000000000000000000000000000000000E1
:100F100000000000000000000000000000000000D1
:100F200000000000000000000000000000000818A1
:100F30003870F0F0E0E0E0F0F0F0E0E0E0606060F9
:100F4000607070F0F0F0F0F0F07010000000000041
:100F50000000000000000000000000000000000091
:100F60000000000000000000000000000000000081
:100F70000000000000000000000000000000000071
:100F80000000000000000000000000000000000061
:100F90000000000000000000000000000000000051
:100FA000001C1C1C1C1C1C1C1C1C1C1C1C1C1C1C9D
:100FB0000000C1FFFFFFFFC7830100000000000029
:100FC00000000000010100000080E0F0E0C000002F
:100FD0000030F0F0F0707878783818181838383811
:100FE00038101000000008081CFCF8F00000000099
:100FF000000000000000C0F0F87830000010383821
:1010000038383870F0F0F0F07078787870707020C0
:1010100000000000000000000000000000000000D0
:10102000001C1C1C1C1C1C1C1C1C1C1C1C00000070
:1010300080FEFFFF3F1F1F0F0F0F0F0E0E0E0E1E25
:101040001E1E0E03000080E0FCFFFF3F0F000000AB
:10105000FEFF8701000000000000207070E0E0E06B
:10106000E0202000000000C0FEFF7F3D1C1C1C1C77
:10107000183878F8FCFFFF1F010000000000000096
:101080000080E0F8FFFF7F0700E0E0E7E7E7E7E741
:10109000E7E7E7E7E7E7E7E7E7E7E7E7E7E7E7E7E0
:1010A000E70707C7C7C78707070707272030383E66
:1010B0003F3F1F0700000070F0F0E0C080000020FC
:1010C00020202030383E3F3F3F1F0300000000003B
:1010D00021272F3E3C3C3C38383838383C1E0F071F
:1010E00001002020383C1F0F03000000004040405A
:1010F00070783C3F1F0700000000004040406078CF
:101100003E3F1F0703000000383838383838383879
:10111000383838383838383838383838383838384F
:101120003800000103070F0F0E0E0E0E0E0E0E0EEE
:101130000E0E0E0E0E0E0E0ECEEFFFFF7F1F1E1EAA
:101140001E3E3E3E3E3E3E3E7E7E7E7E7E7E7E7EDF
:10115000FEFEFEFEFEFCFCFCFCFCFCF8F8F8F8F8D9
:10116000F8F8F8F8F8F8F0F0F0F0F0F0F0F0F0F04F
:10117000F0F0E0E0E0E0E0E0E0E0E0F0F0F0F0F0FF
:10118000F0F0F8F8F8F8F8F8F8F87C7C7C3C3C3C97
:101190001C1E1E0E0E0000000000000000000000DB
:1011A00000301C1E1E0F0F0F0F0F1E3E3C30303044
:1011B0003038181C1C1C1C3C79F9F1C0C0E0E0E080
:1011C000F070383838383870F0E0C0C0E0E0E0E067
:1011D000E0604040E040C0C1C1C1C1C181810103A4
:1011E000030303030303030303070707078787C7F3
:1011F000C7C7C7CF8F8F0F0F0F0F0F0F0F0707072F
:1012000003030381C1C1C0E0E0E0E0E0C0C080C0F2
:10121000E0F8FCFCFEFEFE7E3E1C1C181010306048
:10122000E00E0703070F0F0E0C08081818181C3ED5
:101230003E1E1E1E1C1818181810232120004040A6
:1012400060703838181838306061E1E1F17133713D
:10125000F0E0C0C0E0F070313171E1C181C3C7CCB2
:10126000CCC4860606060E1E3F8FC7C3C1C1C1810E
:101270000103070F3F1F0F040686C6C6CEDCD89CAD
:101280000C0EC7E3F1703070F1E3C7DFE7F37131A3
:10129000303060C0E1F3703030383C3E3E1E1E0EF0
:1012A0000C4D61676E757320526F640049726F6EEA
:1012B000536865696C64004B6174616E61005761CD
:1012C0006E640042726F616420536865696C6400EB
:1012D0004B6C656176657200537461666600536895
:1012E00065696C640053776F726400456D70747942
:1012F00000000000000000EB1200000100000000F0
:1013000000E5120000000001000000DE12000000F5
:101310000000000100D8120000050002000000D00B
:10132000120A00020005000000C3121400000002AF
:10133000000500BE121E00070005000300B71228BA
:1013400000050007000300AC12320003000500078F
:1013500000A1123C00F0F89C8E8783878E9CF8F0E9
:101360000000FEFF0303030303070EFCF80000FE6A
:10137000FF0303030303070EFCF80000FFFF000058
:101380000000000000FFFF0000FEFF8383838383D3
:10139000C7EE7C380000F8FC0E07030303070EFCC1
:1013A000F800003F7FE0C08080C0E07F3FFFFF018A
:1013B000010101010101FFFF0000FFFF0C0C0C0CFB
:1013C0001C3E77E3C100007FFFC0C0C0C0C0E0701A
:1013D0003F1F00001F3F70E0C0C0C0E0703F1F0013
:1013E000007FFFC1C1C1C1C1E3773E1C00001F3FA8
:1013F00070E0C0C0C0E0703F1F000000000001FFAF
:10140000FF01000000D5F08D14A1C881CFD9F1AF44
:1014100020003048B5CB838548306C766C3A004864
:1014200050002F0000F20C1202020202020202021D
:10143000020202020202020202020202020202028C
:10144000020202020202020202020202020202027C
:10145000020202020202020202020202020202026C
:101460000202120DF20D1202020202020202020236
:10147000020202020202020202020202020202024C
:1014800002020202FE020202020202020202020240
:10149000020202020202020202020202020202022C
:1014A000120CF20000FF000000000000000000002D
:1014B000000000000000000000000000000000002C
:1014C000000000000000000000000000000000001C
:1014D000000000000000000000000000000000000C
:1014E00000000000FF0000000000000000000000FD
:1014F00000000000000000000000000000000000EC
:1015000000000000FF0000000000000000000000DC
:1015100000000000000000000000000000000000CB
:101520000000FF0000FF00000000000000000000BD
:1015300000000000000000000000000000000000AB
:10154000000000000000000000000000000000009B
:10155000000000000000000000000000000000008B
:1015600000000000FF00000000000000000000007C
:10157000000000000000000000000000000000006B
:1015800000000000FF00000000000000000000005C
:10159000000000000000000000000000000000004B
:1015A0000000FF0000FF000000000000000000003D
:1015B000000000000000000000000000000000002B
:1015C000000000000000000000000000000000001B
:1015D000000000000000000000000000000000000B
:1015E00000000000FF0000000000000000000000FC
:1015F00000000000000000000000000000000000EB
:10160000000020C03FC020000000000000000000DB
:1016100000000000000000000000000000000000CA
:101620000000FF0000FF00000000000000000000BC
:1016300000000000000000000000000000000000AA
:10164000000000000000000000000000000000009A
:10165000000000000000000000000000000000008A
:1016600000000000FF010101010101010101010170
:10167000010101010101010101010101010101015A
:101680000101010201020101010101010101010148
:10169000010101010101010101010101010101013A
:1016A0000101FF0000FF000000000000000000003A
:1016B000000000000000000000000000000000002A
:1016C000000000000000000000000000000000001A
:1016D000000000000000000000000000000000000A
:1016E00000000000FF0000000000000000000000FB
:1016F00000000000000000000000000000000000EA
:1017000000000000000000000000000000000000D9
:1017100000000000000000000000000000000000C9
:101720000000FF0000FF00000000000000000000BB
:1017300000000000000000000000000000000000A9
:101740000000000000000000000000000000000099
:101750000000000000000000000000000000000089
:1017600000000000FF00000000000000000000007A
:101770000000000000000000000000000000000069
:101780000000000000000000000000000000000059
:101790000000000000000000000000000000000049
:1017A0000000FF00004F3048404040404040404073
:1017B0004040404040404040404040404040404029
:1017C0004040404040404040404040404040404019
:1017D0004040404040404040404040404040404009
:1017E000404048B04FB048404040404040404040FA
:1017F00040404040404040404040404040404040E9
:1018000040404040404040404040404040404040D8
:1018100040404040404040404040404040404040C8
:1018200048304F00010204081020408000000000F2
:10183000003E5B4F5B3E3E6B4F6B3E1C3E7C3E1C56
:10184000183C7E3C181C577D571C1C5E7F5E1C009C
:10185000183C1800FFE7C3E7FF0018241800FFE753
:10186000DBE7FF30483A060E2629792926407F0516
:101870000507407F05253F5A3CE73C5A7F3E1C1C2C
:1018800008081C1C3E7F14227F22145F5F005F5FEC
:1018900006097F017F006689956A606060606094D8
:1018A000A2FFA29408047E040810207E20100808DD
:1018B0002A1C08081C2A08081E101010100C1E0CE8
:1018C0001E0C30383E3830060E3E0E06000000007A
:1018D0000000005F00000007000700147F147F1461
:1018E000242A7F2A122313086462364956205000A6
:1018F00008070300001C2241000041221C002A1C92
:101900007F1C2A08083E080800807030000808087C
:101910000808000060600020100804023E5149459C
:101920003E00427F400072494949462141494D33BA
:101930001814127F1027454545393C4A4949314121
:10194000211109073649494936464949291E0000EF
:101950001400000040340000000814224114141444
:101960001414004122140802015909063E415D5930
:101970004E7C1211127C7F494949363E4141412239
:101980007F4141413E7F494949417F090909013E63
:10199000414151737F0808087F00417F410020408A
:1019A000413F017F081422417F404040407F021C9C
:1019B000027F7F0408107F3E4141413E7F090909B3
:1019C000063E4151215E7F0919294626494949327F
:1019D00003017F01033F4040403F1F2040201F3F45
:1019E0004038403F631408146303047804036159CA
:1019F000494D43007F41414102040810200041410C
:101A0000417F0402010204404040404000030708B7
:101A10000020545478407F284444383844444428B3
:101A2000384444287F385454541800087E0902185A
:101A3000A4A49C787F0804047800447D40002040E2
:101A4000403D007F1028440000417F40007C047826
:101A500004787C080404783844444438FC1824246E
:101A60001818242418FC7C080404084854545424EE
:101A700004043F44243C4040207C1C2040201C3C6B
:101A80004030403C44281028444C9090907C446462
:101A9000544C4400083641000000770000004136F5
:101AA000080002010204023C2623263C1EA1A1617B
:101AB000123A4040207A38545455592155557941AD
:101AC0002154547841215554784020545579400C84
:101AD0001E52721239555555593954545459395565
:101AE0005454580000457C410002457D42000145A8
:101AF0007C40F0292429F0F0282528F07C54554515
:101B0000002054547C547C0A097F493249494932A7
:101B10003248484832324A4848303A4141217A3ABC
:101B200042402078009DA0A07D39444444393D4086
:101B300040403D3C24FF2424487E4943662B2FFC33
:101B40002F2BFF0929F620C0887E090320545479E1
:101B5000410000447D413048484A32384040227AB2
:101B6000007A0A0A727D0D19317D2629292F28262F
:101B70002929292630484D40203808080808080837
:101B80000808382F10C8ACBA2F102834FA00007B90
:101B9000000008142A142222142A14089500220096
:101BA00095AA005500AAAA55AA55AA000000FF0050
:101BB000101010FF00141414FF001010FF00FF108D
:101BC00010F010F0141414FC001414F700FF0000BF
:101BD000FF00FF1414F404FC141417101F10101F3E
:101BE000101F1414141F00101010F0000000001F2C
:101BF000101010101F10101010F010000000FF1037
:101C00001010101010101010FF10000000FF140032
:101C100000FF00FF00001F10170000FC04F4141464
:101C20001710171414F404F40000FF00F714141430
:101C300014141414F700F7141414171410101F10B0
:101C40001F141414F4141010F010F000001F101FD3
:101C50000000001F14000000FC140000F010F01041
:101C600010FF10FF141414FF141010101F000000B8
:101C700000F010FFFFFFFFFFF0F0F0F0F0FFFFFFBC
:101C80000000000000FFFF0F0F0F0F0F3844443813
:101C9000447C2A2A3E147E02020606027E027E024E
:101CA00063554941633844443C04407E201E20066D
:101CB000027E020299A5E7A5991C2A492A1C4C72AA
:101CC00001724C304A4D4D303048784830BC625A31
:101CD000463D3E494949007E0101017E2A2A2A2AC1
:101CE0002A44445F444440514A444040444A51409D
:101CF0000000FF0103E080FF000008086B6B08365E
:101D000012362436060F090F0600001818000000CE
:101D10001010003040FF0101001F01011E00191DBD
:101D20001712003C3C3C3C0000000000426173681C
:101D3000005377697065004375726500576174657B
:101D400072004669726500000080000000001050BB
:101D5000DCFE1910000000000000000001FE097800
:101D6000381818F8FBFFF8F0000000000000000031
:101D7000000F00000000000F0F0F0F0F0E0C0808DF
:101D80000000004D616765000000066BF4F87C7C84
:101D9000BC7C7CBC7C7CF8F46B06000078A414FC52
:101DA00014ABFFFEEED6AED6EEFFFB2438F0E0001B
:101DB00000000101010F0B050B0D0F0B050B0F00B0
:101DC000070F0F0754616E6B0000FC02F9FE000064
:101DD00000E0B0B8F8EC0000000000000004073C90
:101DE0001F373418B8EDF7BFE7FDB818F0E0000072
:101DF0000000000000000C0F0F03010101030F0C95
:101E0000080000000057617272696F7200796F7587
:101E1000277665206C6F7374203220636F696E7350
:101E2000005265737420796F757220776F756E64D8
:101E30007300546865204172656E61205069747446
:101E400069657320796F75004220746F2072657424
:101E500075726E20746F206D656E7500596F7520F8
:101E600068617665204661696C6564004220746F24
:101E70002072657475726E20746F206D656E7500CA
:101E8000617320796F7572207072697A6500746170
:101E90006B65203220636F696E7300566963746FDF
:101EA000727900506F74696F6E004D6167696300ED
:101EB000446566656E640041747461636B004D61D6
:101EC00067696300757365642000546865206D6FF1
:101ED000620041747461636B656400546865206DD1
:101EE0006F6200446566656E6465640054686520D1
:101EF0006D6F6200636F6E74696E756500421D05DB
:101F000003013C1D050302371D050500311D0A00B4
:101F1000002C1D050000000080C0C0E0E0E07070F3
:101F2000F8787070F07010000000000000000000F1
:101F30000000000000000000000000001070F070C1
:101F400070F070F0F0F0E0E0C0C0808080801EFF94
:101F50000303FFFFFF000000FF000000FF00000080
:101F60000000000000000000000000000000000071
:101F7000000000000000FF0000FF0000FFFFFF0165
:101F800001FF0303FF07807F40404F3FAFA0505049
:101F90005F50E8E8EFE8E880808080808080808083
:101FA0008080808080808080808080E8E8E8CFE842
:101FB000E8EFD0D0DFDFAFA0407F4080FF003EBF22
:101FC000FEF4F5B3B3BBB999ABABABAFBF7D7571E5
:101FD000535DDDDDDDD9DBD6F77B77BBB7B7B59DCC
:101FE000949C9C9C3C7F6F6F5D797D7D7D3DB9F7B6
:101FF000EFEFEDDCBE7D68703A2000F00C8262F1FC
:10200000D96975B56565A57569D9F162820CF00766
:10201000C833889C252B4A525252524A2B259C8801
:1020200033C807000304080B08090A0A0A0A0A0A47
:1020300009080B08040300051E0D000D000600062C
:1020400000020001C91D00000000030000000000A4
:102050000100C41D140005000A00020003000288EC
:102060001D000000000400000000000100831D08A6
:10207000000500030002000C0003471D00010200E0
:102080000000000003000000080B00020202010033
:1020900009040000010202000005240010010524CB
:1020A000010101042402060524060001070581033D
:1020B00010004009040100020A00000007050202A6
:1020C00040000007058302400000040309041201D8
:1020D0000002EF02014041233680000101020301AA
:1020E00041726475696E6F204C4C43004172647597
:1020F000626F7900882A11241FBECFEFDAE0DEBFBD
:10210000CDBF11E0A0E0B1E0ECE7FCE502C0059036
:102110000D92A436B107D9F726E0A4E6B1E001C0DC
:102120001D92AD31B207E1F710E1CBE7D0E104C079
:102130002197FE010E941D2ECA37D107C9F70E94C0
:102140007A210C943C2E0C940000CF92DF92EF92F7
:10215000FF920F931F93CF93DF936C017A018B0152
:10216000C0E0D0E0CE15DF0589F0D8016D918D017A
:10217000D601ED91FC910190F081E02DC601099509
:10218000892B11F47E0102C02196ECCFC701DF91AB
:10219000CF911F910F91FF90EF90DF90CF90089516
:1021A0003FB7F89480916B0190916C01A0916D0103
:1021B000B0916E0126B5A89B05C02F3F19F001967E
:1021C000A11DB11D3FBFBA2FA92F982F8827820FBD
:1021D000911DA11DB11DBC01CD0142E0660F771F0D
:1021E000881F991F4A95D1F708952D9A089508954B
:1021F000089580E090E008951F93CF93DF93DC0172
:102200001696ED91FC9117973696C591D491149638
:102210008C91149790E01596EC9115971AE0E19F38
:10222000F0011124ED50FD4E25913491C89FF0012D
:10223000C99FF00D1124F595E795F595E7958E0F5B
:102240009F1F96958795681B790B621B730B641B08
:10225000750B8D919C911197161617061CF4861B11
:10226000970B01C001978D939C93DF91CF911F91A4
:102270000895DC011696ED91FC91179734966591BF
:10228000749114962C91149730E01596EC918AE095
:10229000E89FF0011124EF50FD4E85919491629FCB
:1022A000A001639F500D112455954795559547956D
:1022B000240F351F36952795820F931F08950E948E
:1022C000372E0C94F22B8F929F92AF92BF92CF92A7
:1022D000DF92EF92FF926B017C010E94D0104B01C4
:1022E0005C01C114D104E104F104F1F00E94D010AA
:1022F000DC01CB0188199909AA09BB09883E9340E2
:10230000A105B10570F321E0C21AD108E108F10876
:1023100088EE880E83E0981EA11CB11CC114D10464
:10232000E104F10419F7DDCFFF90EF90DF90CF903B
:10233000BF90AF909F908F900895BC0180E090E097
:102340000C9463111F920F920FB60F9211242F93CA
:102350003F938F939F93AF93BF938091640190912C
:102360006501A0916601B091670130916A0123E097
:10237000230F2D3720F40196A11DB11D05C026E8BD
:10238000230F0296A11DB11D20936A018093640161
:1023900090936501A0936601B093670180916B01F2
:1023A00090916C01A0916D01B0916E010196A11DFB
:1023B000B11D80936B0190936C01A0936D01B0935C
:1023C0006E01BF91AF919F918F913F912F910F908F
:1023D0000FBE0F901F9018958FB18095807F669BE0
:1023E00088601C9B8460089560387105D0F4403487
:1023F0005105B8F4E4E2F8E180E1849FD001A078CF
:102400001124A60F4770E40FF11D8491A858BE4F08
:10241000222319F06C91862B03C080956C91862342
:102420008C9308952F923F924F925F926F927F927A
:102430008F929F92AF92BF92CF92DF92EF92FF92D4
:102440000F931F93CF93DF93CDB7DEB729970FB6C6
:10245000F894DEBF0FBECDBFFC016A3069F4258958
:102460008189928938E0239F800D911D1124928BE0
:10247000818B108A1786AAC06D3009F4A7C099878E
:102480008887F58834882388618872880785108951
:1024900000381105C4F0A885B98555962C9155973B
:1024A000422F50E01F968D919C915097B6E02B9F44
:1024B000800D911D1124E885F985908B87872689E9
:1024C00021116EC083C0F0E46F16710424F7C801B7
:1024D00025E0F29E800D911D112418161906DCF6D8
:1024E0008F2D90E09C838B83C301A8E0FA9E800D22
:1024F000911D11241816190674F6B5E06B9FB001F2
:102500001124FB01E45DF74EFA83E98330E088850E
:10251000998504969E838D83E981FA81E490353014
:1025200009F4E12C430188E0482EE0FC02C0532C62
:1025300001C0522C51100BC0321009C0E6944A94CD
:102540008B819C81880E991E4110EFCF1BC06801C2
:102550008C2D801B8F1590F754018A2D88198F15AB
:1025600068F4252DA501B6018D819E813F830E94CF
:10257000F4119FEFA91AB90A3F81EFCFAFEFCA1A42
:10258000DA0AE6CF3F5FEB81FC810E0F1F1F8981C6
:102590009A8101969A838983363009F0BDCF7BCF2B
:1025A0006AEF64039001659F300D112420583F4F5E
:1025B000281739075CF4A885B985ED91FC9111972E
:1025C0000190F081E02D6AE0CD01099581E090E075
:1025D00029960FB6F894DEBF0FBECDBFDF91CF9125
:1025E0001F910F91FF90EF90DF90CF90BF90AF9031
:1025F0009F908F907F906F905F904F903F902F9023
:102600000895DC0181E014968C93149784E690E0A1
:1026100019969C938E93189753961C9253975196A4
:102620001C921E92509717967C936E931697FB01FF
:10263000329685919491992795958795959587954B
:10264000019611969C938E93645F7F4FFB012591B9
:1026500034911A962C931A979595879513969C9377
:102660008E9312971C961C921C971D961C921D9778
:102670001E961C921E971F961C921F97FB01859118
:1026800094911B968C9308950F9300E420E844E204
:1026900054E160E070E080E090E00E948C160F91C1
:1026A00008950F93CF93DF9383E490E09093A40574
:1026B0008093A30584E290E09093A6058093A505FE
:1026C00080918005909181050E94BA1882E294E180
:1026D0000E946B16E0918605F09187053296259150
:1026E00034918091840590E0289FB001299F700D5E
:1026F00011247595679575956795680F791F80E02A
:1027000090E04AE00E9452188FE194E10E946B161B
:10271000E0918605F09187053D964591549104E13D
:1027200024E166E070E084E690E00E948C1610924E
:10273000A4051092A305C2E3D0E0D093A605C093F0
:10274000A50520E330E04AE750E060E370E083E471
:1027500090E00E94BE172AE330E04AE750E06AE3C7
:1027600070E083E490E00E94BE172AE330E043E487
:1027700050E060E370E083E490E00E94BE172AE33B
:1027800030E04AE750E060E370E08AE790E00E94C2
:10279000BE1782E490E09093A4058093A30586E0A1
:1027A00090E09093A6058093A5058AE194E10E94AC
:1027B0006B1688E590E09093A4058093A3058DE0C7
:1027C00090E09093A6058093A50560917C0570E04C
:1027D00080E090E04AE00E94521886E490E09093F6
:1027E000A4058093A305D093A605C093A505809169
:1027F0009305813049F408E028E042E154E167E1C3
:1028000070E086E490E013C0823099F408E028E09C
:1028100042E154E167E170E086E490E00E948C16AA
:1028200028E042E154E167E170E080E590E00E9439
:102830008C16DF91CF910F91089521E030E04BE7A6
:1028400050E061E070E083E090E00E94BE172EE36C
:1028500030E04BE750E06EE370E083E090E00E94F0
:10286000BE172CE330E041E050E064E070E081E02E
:1028700090E00E94BE172CE330E04EE750E064E0A9
:1028800070E08EE790E00E94BE1721E030E041E06A
:1028900050E064E070E083E090E00E94BE1721E029
:1028A00030E04EE750E064E070E08CE790E00E949A
:1028B000BE172EE330E04EE750E06CE370E08CE7AB
:1028C00090E00E94BE172EE330E041E050E06CE360
:1028D00070E083E090E00C94BE17EF92FF920F93AC
:1028E0001F93CF93DF93DB014115510551F58B0108
:1028F00021303105C1F41696ED91FC91179736966B
:10290000E590F4901496CC91D0E00E943911EC9EA1
:10291000A001ED9E500D112455954795559547956D
:102920004C0F5D1F04C00E94391140E050E0BC0113
:10293000C801DF91CF911F910F91FF90EF900C9400
:10294000FC104330510509F03BC0EC01EE81FF81E2
:102950003A9685919491FC014591549114962C914D
:10296000149730E01696ED91FC9117973A96659181
:102970007491429FC001439F900D112495958795B6
:1029800095958795820F931F96958795629FA001D5
:10299000639F500D11245595479555954795240FE4
:1029A000351F36952795821B930B1816190644F48C
:1029B0002D913C911197F901E81BF90BED93FC93D4
:1029C000DF91CF911F910F91FF90EF9008950F939A
:1029D0001F93CF93DF9381EC80937C0085B1806F50
:1029E00085B984B1877E84B984B1876E84B95E9AD3
:1029F0005F988AB1806D8AB9769A6E9881B3806F3C
:102A000081BB899880B38D7080BB80E58CBD81E0EF
:102A10008DBD85E090E00E949D115F9A85E090E079
:102A20000E949D115E985C98E5E0F4E18DE08E0FC8
:102A300094919EBD00000DB407FEFDCF31968E131C
:102A4000F7CF5C9A81E88093640080916500816093
:102A50008093650080E00E9443180E94EC1187FF7C
:102A600024C05C9885EA8EBD00000DB407FEFDCF42
:102A70005C9A2E982F982D988091640080628093A4
:102A8000640081E083BF889513BEFCCF2D980E941F
:102A9000EC118478843871F00E94EC1184718431D7
:102AA00031F188EC90E00E949D110E94EC1182FDB2
:102AB000EDCF3AC00E94F51088EC90E00E949D1185
:102AC0002F9882E090E00E94F22B8F3F29F06FEF69
:102AD00082E090E00E94FA2B84EF91E00E949D1129
:102AE0002F9A0E94EC1184788438D9F3D5CF0E94B4
:102AF000F51088EC90E00E949D112E9882E090E005
:102B00000E94F22B882329F060E082E090E00E948E
:102B1000FA2B84EF91E00E949D112E9A0E94EC11F5
:102B200084718431D9F3BDCF0E94F51082E090E02A
:102B30000E94F22B882331F03E9A3F9A81E08093E5
:102B4000690104C0109269013E983F9881E090E0CD
:102B50000E94611181FF41C082FB112710F982FDA3
:102B60002E98C0EFDFEF0E94EC1186FF04C02E9A72
:102B70002F9A2D9A32C0112329F0C430D10511F4B7
:102B80002E9A2F9881E00E94431800E128E545E540
:102B900053E1BE0184E190E00E948C1680E00E9427
:102BA00043188FE090E00E949D112196C931D10514
:102BB000D1F6112311F02F9A2D9880E991E00E940F
:102BC0009D110E94F510E0919805F09199050190F2
:102BD000F081E02D88E995E0099582E390E00E947C
:102BE0009D110E94EC118111F8CF81E280939F0525
:102BF000809164008E7F8093640080917A0080646D
:102C000080937A0080917A0086FDFCCFC091780095
:102C1000D09179000E94D0108E0120E030E0980120
:102C200011270027600F711F821F931F6115710507
:102C30008105910511F00E94E92B8091640081606B
:102C4000809364001092730110927201DF91CF9112
:102C50001F910F910C948B17CF93DF93DC01149687
:102C60006C93149717965C934E931697EA01EA813A
:102C7000FB8185919491262F30E0829FB001839F44
:102C8000700D11247595679575956795620F731F83
:102C900011967C936E93445F5F4FFA0185919491F6
:102CA00015968C93159777FF02C06F5F7F4F7595D0
:102CB000679513967C936E931297DF91CF91089549
:102CC00020919E05282329F490919D05982381E069
:102CD00009F480E008950F931F93CF93DF938C0145
:102CE000C0E0D0E0F801EC0FFD1F6491662371F0A5
:102CF000E0919405F09195050190F081E02D84E933
:102D000095E00995892B11F02196ECCFCE01DF914A
:102D1000CF911F910F9108952F923F924F925F9202
:102D20006F927F928F929F92AF92BF92CF92DF92DB
:102D3000EF92FF920F931F93CF93DF93CDB7DEB740
:102D400028970FB6F894DEBF0FBECDBF5A01822E72
:102D5000912C9C01280D391D37FDC4C08038910588
:102D60000CF0C0C09B01200F311D37FDBBC060348B
:102D700071050CF0B7C0AB0177FF04C0442755279D
:102D8000461B570B477055279B0177FF02C0295FF1
:102D90003F4FE3E035952795EA95E1F777FF08C0C7
:102DA0002150310968E070E0DB01A41BB50BAD01D7
:102DB000602F66956695669570E0077011F06F5FFD
:102DC0007F4FDB01A20FB31FBA83A9833901769429
:102DD000762C662477946794680E791EE12CF12C8A
:102DE00000E010E02301B0E84B0E511C68E070E0F9
:102DF000DB01A41BB50BBC83AB8369817A812617E9
:102E0000370709F46FC02830310509F46BC02F3F34
:102E1000BFEF3B070CF45BC0B201600F711FDB0119
:102E2000A858BE4FBE83AD83D801A60DB71DA858C4
:102E3000BE4F6C0160E070E0681579050CF047C08A
:102E4000E0E8CE16D10409F442C0D7FC34C02F3FCD
:102E5000FFEF3F0709F442C0FB01EE0DFF1DEA0D35
:102E6000FB1DE491042E01C0EE0F0A94EAF73C909A
:102E7000E329EC9341155105F1F027303105D9F0E4
:102E8000FB01EE0DFF1DEA0DFB1DE4912E2E312CF2
:102E9000F1010B8002C0F595E7950A94E2F7F887F7
:102EA000EF83ED81FE813080EF81F885E3291F01FA
:102EB000ED81FE8120826F5F7F4FED81FE81319633
:102EC000FE83ED83FFEFCF1ADF0A1196B5CF2F5F98
:102ED0003F4F00581F4FE80CF91C8FCF411551058B
:102EE00079F6E9CF28960FB6F894DEBF0FBECDBFB6
:102EF000DF91CF911F910F91FF90EF90DF90CF90D6
:102F0000BF90AF909F908F907F906F905F904F9009
:102F10003F902F90089580E0E8E7F1E081118FEF76
:102F2000002481938193819381930394D1F7E4E901
:102F3000F5E0128A118A108A17860895009769F0C1
:102F4000FC0101900020E9F73197AF01481B590BB4
:102F5000BC0184E995E00C94A51080E090E0089510
:102F6000CF93DF930E946B16EC0181E691E00E9403
:102F70009E178C0F9D1FDF91CF9108955F926F92E6
:102F80007F928F929F92AF92BF92CF92DF92EF92F9
:102F9000FF920F931F93CF93DF93EC018B017A0184
:102FA000A901461B570B57FF03C051954195510985
:102FB000C7018C1B9D0B97FF03C0919581959109CB
:102FC000552453948417950714F0512C0AC09E2D54
:102FD0008F2D7901292F382F9C2F8D2FE801092F54
:102FE000182FEC16FD0654F4902F812F8901292FFC
:102FF000382F9C2F8D2FE701E92EF82E37016C1A00
:103000007D0A5901A01AB10AB7FE03C0B194A19478
:10301000B108630177FE03C08FEFC81AD80AD594B0
:10302000C7940217130714F08FEF01C081E0882EB8
:10303000880F9908EC16FD06B4F021E0552019F030
:10304000AE01B80102C0A801BE0188E995E00E9466
:10305000F411CA18DB08D7FE04C0080D191DC60CF0
:10306000D71C2196E7CFDF91CF911F910F91FF9051
:10307000EF90DF90CF90BF90AF909F908F907F9018
:103080006F905F900895E8E7F1E0A0E0B8E000807D
:103090000EBC8111012C1197A0FDFDCF0192B9F753
:1030A0000DB408958F929F92AF92BF920F931F938A
:1030B000CF93DF93CDB7DEB7A1970FB6F894DEBFFD
:1030C0000FBECDBF19A2423008F44AE08E010F5D59
:1030D0001F4F842E912CA12CB12CA50194010E948C
:1030E0003A2CE62FB901CA0101501109EA3014F453
:1030F000E05D01C0E95CD801EC93232B242B252B48
:1031000061F7C8010E949E17A1960FB6F894DEBF22
:103110000FBECDBFDF91CF911F910F91BF90AF90A8
:103120009F908F900895CF92DF92EF92FF92CF936E
:10313000DF936B017C01E0919405F091950501907E
:10314000F081E02D6DE284E995E00995EC016627B8
:103150007727CB016C197D098E099F094AE00E94EF
:1031600052188C0F9D1FDF91CF91FF90EF90DF9051
:10317000CF900895BC01990F880B990B97FD0C9483
:1031800093184AE00C945218CF92DF92EF92FF927C
:103190000F931F93CF93DF938091800590918105CA
:1031A000181619060CF027C38091780590917905BF
:1031B000181619060CF08BC20E948B17C6E0D0E0DF
:1031C000D093A405C093A30584E090E09093A60556
:1031D0008093A505E0917E05F0917F0585919491FE
:1031E0000E946B16D093A405C093A3058EE090E0D7
:1031F0009093A6058093A50586EF9FE10E946B162C
:103200006091780570917905072E000C880B990B59
:1032100097FF03C00E94931803C04AE00E9452180F
:1032200081E691E00E949E1700E228E346E15FE11B
:103230006BE170E085E090E00E948C16E0917E05E5
:10324000F0917F053D964591549104E124E16DE1B3
:1032500070E086E190E00E948C160E9444130E9468
:1032600051138091B6058111B4C18091B40590913C
:10327000B505009709F00DC180917601811140C01C
:103280001092B0058091740190917501049724F01B
:1032900010927501109274018091740190917501E2
:1032A00097FF06C083E090E09093750180937401CE
:1032B00080917401909175018130910571F02CF429
:1032C000892B91F487EB9EE10DC08230910541F08E
:1032D000039751F483EA9EE105C080EB9EE102C0B2
:1032E0008AEA9EE10E946B1688E00E94601688239D
:1032F00009F4ABC080917701882309F40AC3A5C003
:10330000813009F048C0A0918605B0918705599693
:103310008D919C915A97FC012591349140917401B3
:10332000509175012417350720F410927501109201
:103330007401209174013091750137FF07C0FC01C1
:10334000859194919093750180937401E09174013B
:10335000F09175017396EA0FFB1FE49185E0E89FF9
:10336000F0011124E350F14E859194910E94B01721
:1033700088E00E946016882329F0809177018823D5
:1033800009F4F4C284E00E946016882309F45DC049
:10339000109276015AC0823009F057C0A09186057C
:1033A000B091870557968D919C915897FC01259176
:1033B000349140917401509175012417350720F420
:1033C0001092750110927401209174013091750171
:1033D00037FF07C0FC01859194919093750180930C
:1033E0007401E0917401F09175013F96EA0FFB1FA3
:1033F000E49185E0E89FF0011124E350F14E8591BE
:1034000094910E94B01788E00E946016882309F406
:10341000B9CF809177018111B5CF81E08093770199
:1034200081E090E09093B5058093B4051092760109
:10343000A9CF823091050CF08CC2892B31F4109207
:10344000AC051092AB05209376010E94862B63E0B9
:1034500070E00E94092E8130910579F048F08230A9
:10346000910509F0A1C29093AE058093AD050EC001
:103470001092AE051092AD0509C09093AE058093F1
:10348000AD059093B3058093B2058EC281E090E0C4
:10349000F8CF019709F088C28091B2059091B305E9
:1034A000019709F081C2E0918605F0918705389671
:1034B000A591B4912091840530E0E0917E05F091D2
:1034C0007F0538966591749180917C0590E0A29F6C
:1034D000A001A39F500D11245595479555954795EB
:1034E000240F351F689FA001699F500D1124559529
:1034F000479555954795840F951F8217930720F49C
:1035000081E08093B10502C01092B1059091B105A0
:103510008091B005992341F1811146C2E091AF0538
:1035200085E0E89FF0011124EF01C150D14EFE016A
:1035300005911491E090AD05F090AE05C090AB05FB
:10354000D090AC059701A60168E775E080E895E0AA
:103550000E946D14FE01059114919601A70160E887
:1035600075E088E795E027C081111EC2E091AF05A4
:1035700085E0E89FF0011124EF01C150D14EFE011A
:1035800005911491E090AB05F090AC05C090AD05AD
:10359000D090AE059701A60160E875E088E795E058
:1035A0000E946D14FE01059114919601A70168E730
:1035B00075E080E895E00E946D1481E080937701CA
:1035C0008093B0051092B5051092B4058093B605AE
:1035D000EBC1813009F0E8C10E948B170E944413AF
:1035E0000E94511386E490E09093A4058093A30574
:1035F00082E390E09093A6058093A50584EF9EE179
:103600000E946B16C6E0D0E0D093A405C093A3053A
:1036100084E090E09093A6058093A5058091AD0588
:103620009091AE058130910589F48CEE9EE10E9467
:10363000B017D093A405C093A3058EE090E09093BB
:10364000A6058093A50583EE9EE131C0892B89F400
:103650008BED9EE10E94B017D093A405C093A30503
:103660008EE090E09093A6058093A50582ED9EE103
:103670001EC08AEC9EE10E94B017D093A405C093AF
:10368000A3058EE090E09093A6058093A50584ECB9
:103690009EE10E94B017D093A405C093A30588E1D2
:1036A00090E09093A6058093A5058EEB9EE10E9485
:1036B000B01788E00E946016882309F475C18091D4
:1036C0007701811171C181E0809377016BC10E9404
:1036D0008B170E941D1484E190E09093A4058093C1
:1036E000A3059093A6058093A5058BE99EE10E9412
:1036F000B017CFE0D0E0D093A405C093A3058EE12E
:1037000090E09093A6058093A5058EE89EE10E9427
:10371000B017D093A405C093A30588E290E09093DE
:10372000A6058093A50580E89EE10E94B0178AE077
:1037300090E09093A4058093A30582E390E090939A
:10374000A6058093A5058CE69EE10E94B01784E053
:103750000E946016882309F425C182E090E09093CE
:10376000730180937201109271018091880590918C
:1037700089050296909389058093880580917C0540
:103780002091900590919105C22FD92FC80FD11D7E
:10379000C80FD11DD0939105C09390051091840559
:1037A000612F70E080E090E00E940E2D9B01AC0143
:1037B0000E949C2D20E030E040E450E40E949C2DCB
:1037C00020E030E040E850E40E946C2C0E94D82CAD
:1037D0006C177D0718F41F5F1093840580917001AA
:1037E000813009F0DFC080916F018F5F80936F019E
:1037F00010927001D7C00E948B170E941D14CAE05E
:10380000D0E0D093A405C093A30584E190E0909309
:10381000A6058093A5058CE59EE10E94B017D09384
:10382000A405C093A3058EE190E09093A605809334
:10383000A50588E49EE10E94B017809188059091CB
:103840008905D093A405C093A305892BC9F488E208
:1038500090E09093A6058093A50582E39EE10E94E7
:10386000B017D093A405C093A30582E390E0909392
:10387000A6058093A50581E29EE10E94B0170AC0CB
:1038800088E290E09093A6058093A5058DE09EE1E7
:103890000E946B1684E00E946016882309F482C09F
:1038A00082E090E090937301809372011092710115
:1038B000E0918605F091870532964591549180916B
:1038C000840590E0489F9001499F300D1124359563
:1038D000279535952795820F931F909381058093A7
:1038E000800580917001813011F4109270018091F7
:1038F0008805909189058230910530F00297909368
:103900008905809388054EC010928905109288051C
:1039100049C021E020937701809174019091750155
:103920008130910509F085CD9093AC058093AB056E
:103930000BC0039709F089CD84E090E09093AC052B
:103940008093AB0581E090E09093B5058093B4053A
:103950007CCD8230910569F783E090E09093AC05CF
:103960008093AB0582E0809376016FCD81E08093F8
:10397000770181E090E09093B5058093B4051092B3
:103980007601E0918605F091870580917401909110
:103990007501E80FF91FE389F0E085919491809318
:1039A000AF05F0CC1092B605DF91CF911F910F912A
:1039B000FF90EF90DF90CF900895FC0180910F066B
:1039C000811103C08FEF9FEF08959FB7F89482E0B5
:1039D0008093E9002091F20030E01216130614F4EF
:1039E00021E030E02115310559F0289884E68093D4
:1039F0000E068091F10080838091F200882319F0F7
:103A00009FBFC90108958BE68093E800F9CF2FB7D7
:103A1000F89483E08093E9009091E800892F807208
:103A200095FF04C09091F20080E4891B2FBF089598
:103A30008091150681110DC082E08093110684E00B
:103A400080931206109214061092130681E0809360
:103A5000150681E196E00895CF93DF931F92CDB7CD
:103A6000DEB76983DC01ED91FC910280F381E02DEA
:103A700041E050E0BE016F5F7F4F09950F90DF91ED
:103A8000CF91089583E08093E9008091F20088232C
:103A900019F08AE38093E80008950E94071D90E0E2
:103AA0000895CF93DF931F92CDB7DEB7FC018485D5
:103AB000958597FD05C02FEF3FEF358724870BC015
:103AC000CE0101960E94DD1C019719F4898190E0D6
:103AD00002C08FEF9FEF0F90DF91CF9108950F936A
:103AE0001F93CF93DF931F92CDB7DEB78C01FC01FC
:103AF0008485958597FF0EC0CE0101960E94DD1C3E
:103B0000019719F4298130E002C02FEF3FEFF8014F
:103B100035872487F801848595850F90DF91CF91B3
:103B20001F910F910895FC018485958597FD0BC029
:103B30009FB7F89482E08093E9008091F2009FBFE4
:103B400090E0019608959FB7F89482E08093E90091
:103B50008091F2009FBF90E008958F929F92AF9264
:103B6000BF92CF92DF92EF92FF920F931F93CF936A
:103B7000DF935C016B017A0180910B01882309F4CA
:103B80005BC080910F06882309F456C080910D0612
:103B900080FF05C08091E00082608093E000E70133
:103BA00010E00AEF83E0882E9AE3992E2097D9F14E
:103BB0000E94071D81110AC0015009F43DC061E057
:103BC00070E080E090E00E946311F0CF282F30E099
:103BD000C217D3070CF48C2F4FB7F8948092E900EA
:103BE0009091E80095FF1DC0282F30E0C21BD30B39
:103BF000F601982F915020F081918093F100FACF37
:103C0000C20ED31E112319F09092E80009C08091D2
:103C1000E80085FD06C09092E80011E0209709F0C9
:103C200010E04FBFC3CF1111C3CF5D9884E68093DE
:103C300010061E141F0444F081E090E0F501938308
:103C4000828380E090E001C0C701DF91CF911F9196
:103C50000F91FF90EF90DF90CF90BF90AF909F902B
:103C60008F900895DF92EF92FF920F931F93CF935F
:103C7000DF93D82E8A017B01E40EF51EEB01CE15F1
:103C8000DF0571F0D7FE03C0FE01849101C0888179
:103C90000E943F2121968111F2CF8FEF9FEF01C04B
:103CA000C801DF91CF911F910F91FF90EF90DF90AE
:103CB00008950F931F93CF93DF931F92CDB7DEB775
:103CC00082E0898342E450E068E870E280E80E9484
:103CD000321E0E94181DDC0112960D911C91139743
:103CE0000115110569F0D801ED91FC910280F38175
:103CF000E02DBE016F5F7F4FC801099597FF07C098
:103D000089810F90DF91CF911F910F910895F80154
:103D100000851185E5CFCF93DF93BC0180E090E073
:103D20004AE00E945218EC0181E691E00E949E1741
:103D30008C0F9D1FDF91CF9108951F920F920FB6A8
:103D40000F9211248F939F938091E1009091E10055
:103D5000937F9093E10083FF0FC01092E90091E000
:103D60009093EB001092EC0092E39093ED00109290
:103D70000F0698E09093F00082FF20C093E09093AC
:103D8000E9009091F200992319F09AE39093E800EA
:103D900090911006992339F09091100691509093CC
:103DA0001006992389F190910E06992339F090918C
:103DB0000E06915090930E06992341F184FF10C096
:103DC0008091E2008E7E81608093E2008091E1002C
:103DD0008F7E8093E10080910D068E7E806111C000
:103DE00080FF16C08091E2008E7E80618093E200A9
:103DF0008091E1008E7E8093E10080910D068E7EA1
:103E0000816080930D0604C05D9ACDCF289AD6CFED
:103E10009F918F910F900FBE0F901F9018951F923A
:103E20000F920FB60F921124CF92DF92EF92FF9272
:103E30000F931F932F933F934F935F936F937F93B2
:103E40008F939F93AF93BF93EF93FF93CF93DF93A2
:103E5000CDB7DEB76C97DEBFCDBF1092E900809181
:103E6000E80083FFEDC168E0CE0145960E946D2118
:103E700082EF8093E8008D8987FF05C09091E8006C
:103E800090FFFCCF03C09EEF9093E800982F9076B0
:103E900009F0C6C09E892F89188D91110CC08038F9
:103EA00029F480910C068093F10002C01092F10079
:103EB0001092F10048C1422F50E0512B913051F443
:103EC000811141C14130510509F03DC180910C067D
:103ED0008D7F0BC0933061F4811135C141305105A4
:103EE00009F031C180910C06826080930C062BC1D1
:103EF000953041F48091E80080FFFCCF206820934A
:103F0000E30021C1963009F05FC0EB8CFC8C10926D
:103F1000E90010920A0610920906123091F51092EB
:103F20000806109207060E94591E99E0BE016F5FB5
:103F30007F4FDB01E92F1D92EA95E9F799831A83F8
:103F400091E09E8390EA98879AEF998720910906DD
:103F500030910A06275F3F4F3C832B838D8310925D
:103F6000E90010920A0610920906F0920806E09203
:103F7000070649E050E080E00E94321E0E94591E70
:103F8000E2C0F0920806E09207060E94181DDC01CC
:103F90001296ED90FC901397E114F10409F4C0C05F
:103FA000D701ED91FC910480F581E02DBE016B5E9F
:103FB0007F4FC7010995009719F00CF0C4C0C7C026
:103FC000F701E084F184E8CF973009F4C0C098305D
:103FD00021F481E08093F100B6C0993009F0B3C0BC
:103FE000837009F0B4C0E1E4F1E081E021E036E360
:103FF0009081992361F08093E9002093EB009191E7
:104000009093EC003093ED008F5F873089F78EE757
:104010008093EA001092EA008F8980930F0693C084
:104020008B8D9C8D1092E90010920A061092090661
:104030009093080680930706898D811156C08E895A
:104040009D89913A59F4813209F081C047E050E0EE
:1040500064E071E080E00E94321E75C0913209F088
:1040600076C0833289F4888D90E0982F88272F8935
:10407000822BA0E0B0E08093000190930101A09317
:104080000201B09303015FC0803269F48091E800BF
:1040900082FFFCCF67E084E091E00E946D218BEF0E
:1040A0008093E80006C0823209F04DC08F8980936A
:1040B0000B0180910B06882319F0EEEFFAE002C0A5
:1040C000E0E0F8E08091040190910501A0910601E3
:1040D000B0910701803B9440A105B10509F07BC078
:1040E00080910B0180FF93C076C00E94181DDC01F7
:1040F00012960D911C9113970115110541F1D801EC
:10410000ED91FC910190F081E02DBE016B5E7F4F3F
:10411000C8010995811117C0F80100851185ECCF00
:10412000113009F44EC0133091F48F89882309F4BB
:1041300045C0823081F440E867E08CEE90E20E9456
:10414000FD2A882321F08EEF8093E80079C081E278
:104150008093EB0075C0813029F440E86BE080EE7D
:1041600090E2EDCF833099F70E94181DDC01129682
:10417000ED90FC9013978E010F5F1F4F6801E114C3
:10418000F10479F0D701ED91FC910680F781E02DE3
:10419000B801C7010995080F111DF701E084F184EA
:1041A000EECFD8011C92F60101900020E9F731977B
:1041B000BF016C197D0940E0C601C1CF6AEC70E215
:1041C00002C06EEC70E26115710509F2FB014491C9
:1041D00050E080E840CF0FB6F894A8958091600039
:1041E000886180936000109260000FBEA895EE3F3A
:1041F0002AE0F20739F08091FE0A9091FF0A91833C
:104200008083A1CF1092FF0A1092FE0A9CCFEE3F4E
:104210008AE0F80731F0808191819093FF0A8093C2
:10422000FE0A87E797E7918380839BE088E10FB6DA
:10423000F894A895809360000FBE9093600083CFA0
:104240006C960FB6F894DEBF0FBECDBFDF91CF9155
:10425000FF91EF91BF91AF919F918F917F916F915E
:104260005F914F913F912F911F910F91FF90EF9090
:10427000DF90CF900F900FBE0F901F901895409138
:10428000090650910A062091070630910806421748
:104290005307B4F49091E8009570E1F39091E80031
:1042A00092FD19C08093F1008091090690910A0651
:1042B00001968F739927892B19F48EEF8093E8006C
:1042C0008091090690910A06019690930A068093C0
:1042D000090681E0089580E00895615030F0209152
:1042E000F100FC0120830196F8CF289884E68093A2
:1042F0000E060895CF93DF93CDB7DEB769970FB65B
:10430000F894DEBF0FBECDBF789484B5826084BDC3
:1043100084B5816084BD85B5826085BD85B58160C9
:1043200085BD80916E00816080936E001092810047
:104330008091810082608093810080918100816002
:1043400080938100809180008160809380008091C3
:1043500091008260809391008091910081608093B0
:104360009100809190008160809390008091C100C5
:1043700084608093C1008091C10082608093C100FD
:104380008091C10081608093C1008091C3008160F1
:104390008093C3008091C00082608093C0008091B0
:1043A000C20081608093C20080917A008460809313
:1043B0007A0080917A00826080937A0080917A00FE
:1043C000816080937A0080917A00806880937A007F
:1043D00010920F0610920C0610920D068091D700D5
:1043E00081608093D70080EA8093D80089B580618E
:1043F00089BD89B5826089BD09B400FEFDCF61E049
:1044000070E080E090E00E9463118091D8008F7C82
:1044100080618093D8008091E000807F8093E000ED
:104420008091E1008E7E8093E1008DE08093E20038
:10443000559A209AEEEFFFE7859194918B3F9C4D22
:1044400019F481E080930B060E94E7148BE895E055
:10445000A5E0A80FAF8B48E0442E512C59E2252E41
:10446000312C65E0862E912C94E0E92EF12C22E08F
:10447000C22ED12C3CE0A32EB12C8FB7F8944091E2
:1044800064015091650160916601709167018FBF71
:104490008091A005B42FB81B8B2F9091A105992373
:1044A00029F0B093A2051092A105FDC690919F0539
:1044B000B91748F48F5F891708F0F5C681E083BF0C
:1044C000889513BEF0C681E08093A1054093A005B6
:1044D00080919B0590919C05019690939C058093FB
:1044E0009B0580919D0580939E050E94EC11809311
:1044F0009D0580E80E946016882349F08091740130
:10450000909175010197909375018093740180E1FA
:104510000E946016882349F0809174019091750182
:10452000019690937501809374010E94EC1183FFB2
:1045300010927701E0917201F0917301E830F1057A
:1045400008F0AEC6EA5AFF4F0C941D2E0E948B173E
:1045500000E420E841EA5EE060E070E080E090E0A6
:104560000E948C1689E190E09093A4058093A305A6
:104570001092A6051092A50582E99EE00E946B1696
:1045800084E00E946016882309F48AC681E090E0E6
:1045900090937301809372012DC467E370E2CE01A2
:1045A00001960E94011384E1FE013196A0E8B5E076
:1045B00001900D928A95E1F70E948B170E941D14BD
:1045C000F092A405E092A30583E090E09093A60505
:1045D0008093A50581E89EE00E946B168FE79EE020
:1045E0000E946B162DE030E04FE750E06DE070E088
:1045F00081E090E00E94BE17F092A405E092A3052E
:104600008FE090E09093A6058093A50580917401BA
:1046100090917501039724F0109275011092740126
:10462000809174019091750197FF04C0D09275013B
:10463000C09274018091740190917501813091054F
:1046400009F182309105C9F1892B09F052C087E741
:104650009EE00E94B01704E124E149EC5DE168E2CC
:1046600070E084E090E00E948C16F092A405E09245
:10467000A30589E190E09093A6058093A50589E6BE
:104680009EE035C084E69EE00E94B01704E124E17C
:1046900048E85DE168E270E084E090E00E948C16FA
:1046A000F092A405E092A30589E190E09093A6051D
:1046B0008093A5058EE49EE01AC089E49EE00E94E6
:1046C0006B1604E124E147E45DE168E270E084E018
:1046D00090E00E948C16F092A405E092A30589E177
:1046E00090E09093A6058093A5058AE39EE00E9442
:1046F0006B160E94EC1183FFD3C58091770188234C
:1047000009F4D9C5CDC50E948B1780E390E0909342
:10471000A4058093A305F092A605E092A5058091DB
:104720006F01813049F028F0823051F485E19EE03C
:1047300005C08DE29EE002C082E29EE00E946B1600
:1047400000E420E845E15AE060E070E080E090E0BD
:104750000E948C168091740190917501059724F048
:1047600010927501109274018091740190917501FD
:1047700097FF04C0F0927501E092740109E010E027
:104780001093A4050093A305F092A605E092A50559
:104790008FE09AE00E946B161093A4050093A30586
:1047A0008EE090E09093A6058093A505809180050A
:1047B000909181051816190624F488E09AE00E9469
:1047C0006B1609E010E01093A4050093A30528E1FF
:1047D00030E03093A6052093A50582E09AE0288F6B
:1047E000398F0E946B161093A4050093A30582E2F3
:1047F000682E712C7092A6056092A50581EF99E054
:104800000E946B161093A4050093A3050CE210E020
:104810001093A6050093A5058BEE99E00E946B16F8
:104820008091740190917501288D398D82309105A8
:10483000A1F1A4F4009721F1019709F04BC083E0A6
:1048400090E09093A4058093A3058EE090E0909370
:10485000A6058093A50587EE99E03AC083309105BF
:1048600049F10497B9F583E090E09093A405809313
:10487000A3051093A6050093A50581EE99E028C035
:1048800083E090E09093A4058093A305F092A605A1
:10489000E092A50589EE99E01BC083E090E090933B
:1048A000A4058093A3053093A6052093A50585EE66
:1048B00099E00EC020916F01243060F49093A4051C
:1048C0008093A3057092A6056092A50583EE99E0FA
:1048D0000E946B160E94EC1183FFE2C48091770165
:1048E000882309F410C5DCC480917101811138C09E
:1048F0000E948B170E94862B65E070E00E94092EB3
:104900003C010091840510E0015011090E94862BA2
:1049100063E070E00E94092EB801680F791F161637
:10492000170614F061E070E08BE1869DA001879D81
:10493000500D11244251574FCE0101960E942C1662
:1049400088E0FE013196A8E7B5E001900D928A95C6
:10495000E1F781E08093710110927501109274016A
:104960000E94C4189DC40E948B171092A405109237
:10497000A3051092A6051092A5058CED98E00E9463
:104980006B162AE030E042E850E06AE070E080E038
:1049900090E00E94BE170E94EC1182FF04C0D092EA
:1049A0007301C0927201809168018111C3C180912D
:1049B000740190917501029724F010927501109284
:1049C0007401809174019091750197FF06C081E098
:1049D00090E090937501809374018091740190919F
:1049E0007501009709F02AC11092A4051092A30541
:1049F000B092A605A092A505E0918605F0918705E5
:104A0000859194910E94B0178091800590918105C5
:104A10000E94BA1887E491E00E949E17E0918605F3
:104A2000F09187053296259134918091840590E02C
:104A3000289FB001299F700D112475956795759574
:104A40006795680F791F80E090E04AE00E94521855
:104A50008BE298E00E94B01781E298E00E946B160A
:104A6000E0918605F09187053496659174912091C7
:104A7000840530E0E0918A051AE01E9FF0011124C0
:104A8000E354F84F45915491629FC001639F900D8C
:104A900011249595879595958795820F931F840F7F
:104AA000951F0E948B1E84EB97E00E946B16E0918D
:104AB0008605F0918705369665917491209184055D
:104AC00030E0E0918A051E9FF0011124E154F84F77
:104AD00045915491629FC001639F900D112495955B
:104AE000879595958795820F931F840F951F0E9438
:104AF0008B1E8DEA97E00E946B16E0918605F0917F
:104B000087053896459154912091840530E0429F65
:104B1000C001439F900D1124959587959595879594
:104B2000820F931F0E948B1E86EA97E00E946B16ED
:104B3000E0918A051E9FF0011124EF53F84F8591F3
:104B400094910E948B1E8BE490E09093A405809337
:104B5000A305B092A605A092A50581EA97E00E9460
:104B60006B166091840570E080E090E04AE00E945E
:104B700052188FE997E00E946B16ABE4B0E0B09357
:104B8000A405A093A30584E190E09093A6058093EB
:104B9000A505E0918A051E9FF0011124ED53F84F01
:104BA000859194910E94B0178BE490E09093A405B6
:104BB0008093A3058CE190E09093A6058093A505D2
:104BC00088E997E00E946B166091880570918905CD
:104BD00080E090E04AE00E945218E0918605F09152
:104BE00087053D964591549104E124E168E270E027
:104BF00084E690E00E948C1680919305813039F410
:104C000008E028E040E957E068E270E012C0823036
:104C100009F080C008E028E040E957E068E270E071
:104C200080E590E00E948C1628E040E957E062E3BE
:104C300070E080E590E00E948C166CC0019709F04E
:104C400069C00E948B171092A4051092A3051092C0
:104C5000A6051092A50580E398E00E946B162AE055
:104C600030E042E850E06AE070E080E090E00E94CE
:104C7000BE171092A4051092A305B092A605A092AB
:104C8000A5050BE815E0EAE07E2E1E8B0D8BD80102
:104C9000EC917E9EF0011124ED53F84F8591949193
:104CA0000E946B168CE897E00E946B16D801EC917D
:104CB0007E9EF0011124E354F84F6591749180E0D9
:104CC00090E04AE00E94521888E897E00E946B1634
:104CD000D801ED918D017E9EF0011124E154F84F31
:104CE0006591749180E090E04AE00E94521884E857
:104CF00097E00E946B16AD89BE89EC917E9EF00113
:104D00001124EF53F84F859194910E948B1EBF8917
:104D1000B013BBCF80E40E946016882319F081E0B5
:104D20008093680180E20E946016882319F082E077
:104D30008093680180916801813009F060C00E9411
:104D40008B171092A4051092A3051092A60510923D
:104D5000A50584ED98E00E946B162AE030E042E859
:104D600050E06AE070E080E090E00E94BE17109290
:104D7000A4051092A305B092A605A092A5058EEBFE
:104D800098E00E94B0178091740190917501059789
:104D900024F0109275011092740180917401909129
:104DA000750197FF04C0F0927501E0927401E091E3
:104DB0007401F0917501E058FA4FE3852AE0E29F13
:104DC000F0011124E05AF74F859194910E946B16DF
:104DD00088E00E946016882329F08091770188235B
:104DE00009F4DDC280E20E946016882309F458C2EB
:104DF00010926801109275011092740151C28230B4
:104E000009F04EC21092A4051092A305B092A60517
:104E1000A092A50510E005E0809186059091870598
:104E2000FC01799625913491E12FF0E0E217F30728
:104E300078F47396E80FF91FE4910E9FF0011124A6
:104E4000EF5BF74F859194910E94B0171F5FE4CFFD
:104E500010E005E08091860590918705FC0177962A
:104E600025913491E12FF0E0E217F30778F43F96B3
:104E7000E80FF91FE4910E9FF0011124EF5BF74F4B
:104E8000859194910E94B0171F5FE4CF80E40E9447
:104E90006016882309F404C21092680101C20E94BE
:104EA0008B1700E420E844E853E060E070E080E025
:104EB00090E00E948C165092A4054092A305309277
:104EC000A6052092A5058BE491E00E949E17909282
:104ED000A4058092A30586E390E09093A6058093B5
:104EE000A5050E94EC1182FF08C0D0927301C09208
:104EF00072011092750110927401809176018111F6
:104F000075C08091740190917501039724F01092FF
:104F1000750110927401809174019091750197FF51
:104F200004C0D0927501C092740180917401909177
:104F300075018130910541F08230910529F1892B6D
:104F4000D1F581E793E035C08091840590E0E09150
:104F50008605F09187054281489F9001499F300D59
:104F600011243595279535952795820F931F20910C
:104F70008005309181052817390718F484E693E0FD
:104F800018C082E593E015C02091930580918805B3
:104F900090918905223030F48330910518F08DE32B
:104FA00093E007C0039718F48CE293E002C087E116
:104FB00093E00E946B160E94EC1183FF17C0809152
:104FC0007701811113C021E0209377018091740152
:104FD000909175018130910509F4EDC18230910500
:104FE00009F418C2892B11F420937601809176017F
:104FF000813009F0A1C080917401909175010597ED
:1050000024F01092750110927401809174019091B6
:10501000750197FF04C0F0927501E09274010E943F
:105020008B175092A4054092A3053092A6052092BA
:10503000A50584E093E00E94B01700E420E844E86E
:1050400053E060E070E080E090E00E948C16909267
:10505000A4058092A305A6E3B0E0B093A605A093B3
:10506000A505E0917401F0917501EC5EFE4FE081C1
:105070001AE01E9FF0011124E05AF74F8591949198
:105080000E946B1682E093E00E946B16E09174011F
:10509000F0917501EC5EFE4FE0811E9FF00111243E
:1050A000EE59F74F6591749180E090E04AE00E94DC
:1050B00052188CEF92E00E94B01780917401909189
:1050C0007501189FF001199FF00D1124E65AF74F52
:1050D00020918805309189058085918528173907A9
:1050E00060F45092A4054092A3053092A605209248
:1050F000A50583EF92E00E946B160E94EC1183FFDE
:105100001BC080917701811117C0E0917401F0916B
:105110007501EC5EFE4FE081BAE0EB9FF0011124D7
:10512000EE59F74F8591949120918805309189052A
:105130002817390708F084C180917601823009F080
:10514000AFC08091740190917501059724F0109281
:10515000750110927401809174019091750197FF0F
:1051600004C0F0927501E09274010E948B1700E474
:1051700020E844E853E060E070E080E090E00E94C6
:105180008C165092A4054092A3053092A605209259
:10519000A50583EE92E00E94B0179092A40580923C
:1051A000A30586E390E09093A6058093A5058AED7C
:1051B00092E00E946B1680917401909175010E949B
:1051C000BA1889E491E00E949E17E0917401F09171
:1051D0007501E058FA4FE3859AE0E99FF001112448
:1051E000E05AF74F859194910E94B0170E94EC11FC
:1051F00083FF56C080917701882309F428C150C0ED
:10520000809171018111ACCB0E948B1781E080935A
:105210007101109275011092740180937001809158
:105220006F01811104C045E759E063E012C081308D
:1052300021F440E959E064E00CC0823021F44BEAEB
:1052400059E065E006C0833009F08ACB46EC59E0AE
:1052500066E0CE0101960E942C1688E0FE01319690
:10526000A8E7B5E001900D928A95E1F779CB012B83
:10527000B9F467E370E2CE0101960E94011384E164
:10528000FE013196A0E8B5E001900D928A95E1F714
:105290001092750110927401D0927301C092720144
:1052A00080E00E94431880E090E0892B09F4E5C873
:1052B0000E940000D9C881E08093770100917401B9
:1052C000109175010130110519F462E570E2D3CF38
:1052D0000230110561F66DE670E2CE0101960E9482
:1052E000011384E1FE013196A0E8B5E001900D9232
:1052F0008A95E1F710927501109274011093730171
:1053000000937201CDCF81E0809377018091740189
:10531000909175018230910519F40E94E714C0CF75
:10532000833091053CF40097C1F490927301809210
:10533000720110C083309105F1F0049709F0B0CFED
:1053400086E090E090937301809372011092750152
:105350001092740110927601A3CF019709F0A0CFAB
:105360008091800590918105181619060CF098CF50
:1053700083E090E00FC08091800590918105181620
:1053800019060CF08DCF80916F01843008F088CF22
:1053900087E090E0909373018093720181CFE09158
:1053A0007401F0917501E058FA4F838580938A0566
:1053B0001092680117CD40918805509189054115DB
:1053C000510509F413CE80918405282F30E0E09137
:1053D0008605F09187056281629FC001639F900DF1
:1053E00011249595879595958795820F931F209108
:1053F0008005309181052817390708F0F7CD909383
:10540000810580938005415051095093890540934F
:105410008805ECCD20919305233008F0E7CD8091ED
:105420008805909189058330910508F4DFCD2F5FC1
:105430002093930503979093890580938805D6CD93
:1054400081E08093770182E08093760175CEE091D0
:105450007401F0917501E058FA4F84E08387EAE81F
:10546000F8E0259134918091880590918905821BFF
:10547000930B90938905809388051092760181E0C3
:10548000809377010DCF0F931F93CF93DF938C0100
:1054900081E090E00E94611180FF32C08AE090E0DC
:1054A0000E9461119FEF980F9E3F50F522E330E07C
:1054B000D80150963C932E931F9728E330E05296E4
:1054C0003C932E935197CBE0D0E0D801ED91FC9125
:1054D0000190F081E02D682FC8010995CE010E944E
:1054E00061112196C131D10581F780E00E944318F6
:1054F00088EE93E0DF91CF911F910F910C949D1155
:10550000DF91CF911F910F91089504970C94432A36
:105510001F93CF93DF93CDB7DEB76B970FB6F89499
:10552000DEBF0FBECDBFE7EBF5E01382128288EE3F
:1055300093E0A0E0B0E084839583A683B7838EE1F7
:1055400091E0918380838FEF9FEF9587848767E356
:1055500070E280E895E00E940113AE014F5F5F4F5B
:105560008BE1FA0111928A95E9F78CE591E09A8333
:10557000898388E090E09C838B839E838D8385E084
:1055800090E098878F8384E090E09A87898711E084
:105590001D878BEF9FE19F878E8783E08C8B81E057
:1055A00090E09B8F8A8F61E088E795E00E942C163F
:1055B000E4E9F5E0138212821186128680E1838786
:1055C00010861782158680E391E0918380838EE3B5
:1055D00091E095838483108A1786128A118A138B2F
:1055E000148A158B168A6B960FB6F894DEBF0FBE21
:1055F000CDBFDF91CF911F910895CF92DF92EF92AF
:10560000FF920F931F93CF93DF931F92CDB7DEB717
:10561000182F062FE42E862F880F8E5F99830E9405
:105620003F2183E00E943F21F12EC12E9981D92E86
:105630008C2D8F19801798F4F601E7FE02C0849133
:1056400001C080810E943F21182F80E00E943F21ED
:105650008123FFEFCF1ADF0A8111EACF01C081E079
:105660000F90DF91CF911F910F91FF90EF90DF90FE
:10567000CF9008958F929F92AF92BF92CF92DF9278
:10568000EF92FF92CF93DF93EC01688179818A8159
:105690009B81611571058105910521F464E279ED25
:1056A0008BE597E02DE133EF41E050E00E94082CBC
:1056B00049015A019B01AC01A7EAB1E40E94272CE1
:1056C0006B017C01ACEEB4EFA50194010E94352C76
:1056D000DC01CB018C0D9D1DAE1DBF1DB7FF03C0AE
:1056E0000197A109B04888839983AA83BB839F77D8
:1056F000DF91CF91FF90EF90DF90CF90BF90AF9070
:105700009F908F9008950E943A2B08958CE091E02D
:105710000E943A2B0895A0E0B0E080930C01909392
:105720000D01A0930E01B0930F0108958F929F92E7
:10573000AF92BF92CF92DF92EF92FF92CF93DF931F
:10574000EC01688179818A819B81611571058105F0
:10575000910521F464E279ED8BE597E02DE133EFDB
:1057600041E050E00E94082C49015A019B01AC0124
:10577000A7EAB1E40E94272C6B017C01ACEEB4EFE8
:10578000A50194010E94352CDC01CB018C0D9D1DDF
:10579000AE1DBF1DB7FF03C00197A109B0488883A4
:1057A0009983AA83BB83BC01CD019F77DF91CF9101
:1057B000FF90EF90DF90CF90BF90AF909F908F9031
:1057C00008950E94962B089580E191E00E94962B07
:1057D00008956093100170931101809312019093CA
:1057E00013010895F999FECF92BD81BDF89A9927CA
:1057F00080B50895262FF999FECF1FBA92BD81BDBD
:1058000020BD0FB6F894FA9AF99A0FBE0196089542
:10581000052E97FB1EF400940E941F2C57FD07D005
:105820000E943A2C07FC03D04EF40C941F2C509588
:105830004095309521953F4F4F4F5F4F089590957C
:105840008095709561957F4F8F4F9F4F08950E946F
:105850005C2CA59F900DB49F900DA49F800D911D71
:1058600011240895B7FF0C94272C0E94272C821B2B
:10587000930B0895A1E21A2EAA1BBB1BFD010DC0BC
:10588000AA1FBB1FEE1FFF1FA217B307E407F507F0
:1058900020F0A21BB30BE40BF50B661F771F881FCC
:1058A000991F1A9469F760957095809590959B0162
:1058B000AC01BD01CF010895A29FB001B39FC0010B
:1058C000A39F700D811D1124911DB29F700D811D2C
:1058D0001124911D08955058BB27AA270E94832C9C
:1058E0000C94622D0E94542D38F00E945B2D20F004
:1058F00039F49F3F19F426F40C94512D0EF4E095E1
:10590000E7FB0C944B2DE92F0E94732D58F3BA1727
:10591000620773078407950720F079F4A6F50C94C5
:10592000952D0EF4E0950B2EBA2FA02D0B01B90189
:1059300090010C01CA01A0011124FF27591B99F005
:10594000593F50F4503E68F11A16F040A22F232F11
:10595000342F4427585FF3CF469537952795A79561
:10596000F0405395C9F77EF41F16BA0B620B730B08
:10597000840BBAF09150A1F0FF0FBB1F661F771F79
:10598000881FC2F70EC0BA0F621F731F841F48F42E
:10599000879577956795B795F7959E3F08F0B0CFB7
:1059A0009395880F08F09927EE0F9795879508959E
:1059B0000E94DF2C6894B1110C94962D08950E94DA
:1059C0007B2D88F09F5798F0B92F9927B751B0F0E9
:1059D000E1F0660F771F881F991F1AF0BA95C9F773
:1059E00014C0B13091F00E94952DB1E008950C944F
:1059F000952D672F782F8827B85F39F0B93FCCF302
:105A0000869577956795B395D9F73EF490958095EF
:105A1000709561957F4F8F4F9F4F0895E89409C00F
:105A200097FB3EF490958095709561957F4F8F4FD1
:105A30009F4F9923A9F0F92F96E9BB279395F695E7
:105A4000879577956795B795F111F8CFFAF4BB0F65
:105A500011F460FF1BC06F5F7F4F8F4F9F4F16C0C9
:105A6000882311F096E911C0772321F09EE8872F53
:105A7000762F05C0662371F096E8862F70E060E00F
:105A80002AF09A95660F771F881FDAF7880F969588
:105A9000879597F9089597F99F6780E870E060E02F
:105AA00008959FEF80EC089500240A9416161706B7
:105AB00018060906089500240A94121613061406FF
:105AC00005060895092E0394000C11F4882352F062
:105AD000BB0F40F4BF2B11F460FF04C06F5F7F4F1A
