:100000000C9486060C94AE060C94AE060C94AE06C8
:100010000C94AE060C94AE060C94AE060C94AE0690
:100020000C94AE060C94AE060C9424100C9496100E
:100030000C94AE060C94AE060C94AE060C94AE0670
:100040000C94AE060C94AE060C94AE060C94AE0660
:100050000C94AE060C94AE060C94AE060C944E07AF
:100060000C94AE060C94AE060C94AE060C94AE0640
:100070000C94AE060C94AE060C94AE060C94AE0630
:100080000C94AE060C94AE060C94AE060C94AE0620
:100090000C94AE060C94AE060C94AE060C94AE0610
:1000A0000C94AE060C94AE060C94AE069B169516F8
:1000B0007617EF17541B0A18C819141B000080008C
:1000C0000000001050DCFE191000000000000000CD
:1000D0000001FE0978381818F8FBFFF8F00000005E
:1000E0000000000000000F00000000000F0F0F0FC5
:1000F0000F0E0C08080000000000066BF4F87C7C72
:10010000BC7C7CBC7C7CF8F46B06000078A414FCFE
:1001100014ABFFFEEED6AED6EEFFFB2438F0E000C7
:1001200000000101010F0B050B0D0F0B050B0F005C
:10013000070F0F0700FC02F9FE000000E0B0B8F85E
:10014000EC0000000000000004073C1F373418B822
:10015000EDF7BFE7FDB818F0E00000000000000078
:10016000000C0F0F03010101030F0C080000000039
:10017000F0F89C8E8783878E9CF8F00000FEFF03CA
:1001800003030303070EFCF80000FEFF0303030351
:1001900003070EFCF80000FFFF0000000000000055
:1001A000FFFF0000FEFF8383838383C7EE7C38005C
:1001B00000F8FC0E07030303070EFCF800003F7F66
:1001C000E0C08080C0E07F3FFFFF0101010101012D
:1001D00001FFFF0000FFFF0C0C0C0C1C3E77E3C17D
:1001E00000007FFFC0C0C0C0C0E0703F1F00001F04
:1001F0003F70E0C0C0C0E0703F1F00007FFFC1C182
:10020000C1C1C1E3773E1C00001F3F70E0C0C0C009
:10021000E0703F1F000000000001FFFF0100000030
:10022000D5F08D14A1C881CFD9F1AF20000102040F
:10023000081020408000000000003E5B4F5B3E3E07
:100240006B4F6B3E1C3E7C3E1C183C7E3C181C5782
:100250007D571C1C5E7F5E1C00183C1800FFE7C326
:10026000E7FF0018241800FFE7DBE7FF30483A06F5
:100270000E2629792926407F050507407F05253F61
:100280005A3CE73C5A7F3E1C1C08081C1C3E7F144D
:10029000227F22145F5F005F5F06097F017F006697
:1002A00089956A606060606094A2FFA29408047EF1
:1002B000040810207E201008082A1C08081C2A08A0
:1002C000081E101010100C1E0C1E0C30383E38305A
:1002D000060E3E0E06000000000000005F00000059
:1002E00007000700147F147F14242A7F2A12231387
:1002F00008646236495620500008070300001C229B
:1003000041000041221C002A1C7F1C2A08083E08CC
:1003100008008070300008080808080000606000CD
:1003200020100804023E5149453E00427F400072C1
:10033000494949462141494D331814127F10274538
:100340004545393C4A494931412111090736494956
:100350004936464949291E00001400000040340077
:10036000000008142241141414141400412214082B
:1003700002015909063E415D594E7C1211127C7FE3
:10038000494949363E414141227F4141413E7F49F1
:100390004949417F090909013E414151737F0808DC
:1003A000087F00417F41002040413F017F08142227
:1003B000417F404040407F021C027F7F0408107F45
:1003C0003E4141413E7F090909063E4151215E7F80
:1003D00009192946264949493203017F01033F4053
:1003E00040403F1F2040201F3F4038403F631408DB
:1003F000146303047804036159494D43007F41416C
:10040000410204081020004141417F04020102041E
:100410004040404040000307080020545478407F8B
:10042000284444383844444428384444287F3854C5
:1004300054541800087E090218A4A49C787F08046C
:10044000047800447D40002040403D007F10284457
:100450000000417F40007C047804787C0804047824
:100460003844444438FC1824241818242418FC7CEC
:1004700008040408485454542404043F44243C40D1
:1004800040207C1C2040201C3C4030403C44281034
:1004900028444C9090907C4464544C44000836416D
:1004A000000000770000004136080002010204024B
:1004B0003C2623263C1EA1A161123A4040207A38F6
:1004C0005454555921555579412154547841215559
:1004D00054784020545579400C1E527212395555AB
:1004E0005559395454545939555454580000457C81
:1004F000410002457D420001457C40F0292429F05D
:10050000F0282528F07C545545002054547C547C18
:100510000A097F4932494949323248484832324A09
:100520004848303A4141217A3A42402078009DA023
:10053000A07D39444444393D4040403D3C24FF24A3
:1005400024487E4943662B2FFC2F2BFF0929F620D8
:10055000C0887E090320545479410000447D413015
:1005600048484A32384040227A007A0A0A727D0DA1
:1005700019317D2629292F28262929292630484D59
:100580004020380808080808080808382F10C8ACA8
:10059000BA2F102834FA00007B000008142A142215
:1005A00022142A14089500220095AA005500AAAA30
:1005B00055AA55AA000000FF00101010FF001414E7
:1005C00014FF001010FF00FF1010F010F0141414AE
:1005D000FC001414F700FF0000FF00FF1414F404E3
:1005E000FC141417101F10101F101F1414141F00D8
:1005F000101010F0000000001F101010101F10103D
:100600001010F010000000FF10101010101010104B
:1006100010FF10000000FF140000FF00FF00001F8B
:1006200010170000FC04F414141710171414F40429
:10063000F40000FF00F714141414141414F700F756
:10064000141414171410101F101F141414F4141081
:1006500010F010F000001F101F0000001F14000019
:1006600000FC140000F010F01010FF10FF14141420
:10067000FF141010101F00000000F010FFFFFFFF1C
:10068000FFF0F0F0F0F0FFFFFF0000000000FFFFC0
:100690000F0F0F0F0F38444438447C2A2A3E147E33
:1006A00002020606027E027E026355494163384417
:1006B000443C04407E201E2006027E020299A5E7EB
:1006C000A5991C2A492A1C4C7201724C304A4D4D86
:1006D000303048784830BC625A463D3E494949006E
:1006E0007E0101017E2A2A2A2A2A44445F4444408A
:1006F000514A444040444A51400000FF0103E08019
:10070000FF000008086B6B083612362436060F0906
:100710000F06000018180000001010003040FF0104
:1007200001001F01011E00191D1712003C3C3C3C3A
:10073000000000000070C070C13204CAF498B4EA2E
:10074000B498F4CA24C271C070000C172DEAF47476
:100750004D6FACD5ACAF4D7462970B050000000037
:100760000C060B0B080F0D00000D0F0F080B0A06EF
:100770000C20B8FEF4500067FA6C1C6CF86C070291
:10078000000000000001181F3830186CBEDD87DD46
:10079000BE663C183870E0000000000000000E0348
:1007A0000E0103010E070E000001030100F00C8290
:1007B00062F1D96975B56565A57569D9F162820C73
:1007C000F007C833889C252B4A525252524A2B2597
:1007D0009C8833C807000304080B08090A0A0A0AA0
:1007E0000A0A09080B08040300000080000000004A
:1007F0001050DCFE1910000000000000000001FE97
:100800000978381818F8FBFFF8F000000000000025
:100810000000000F00000000000F0F0F0F0F0E0C64
:1008200008080000000000066BF4F87C7CBC7C7CAF
:10083000BC7C7CF8F46B06000078A414FC14ABFFBD
:10084000FEEED6AED6EEFFFB2438F0E0000000014D
:1008500001010F0B050B0D0F0B050B0F00070F0F01
:100860000700000000000000000000000000000081
:100870000000000000000000000000000000000078
:100880000000000000000000000000000000000068
:100890000000000000000000000000000000000058
:1008A0000000000000000000000000000000000048
:1008B0000000000000000000000000000000000038
:1008C0000000000000000000000000000000000028
:1008D0000000000000000000000000000000000018
:1008E00000000000000000000000000000000818E8
:1008F0003870F0F0E0E0E0F0F0F0E0E0E060606040
:10090000607070F0F0F0F0F0F07010000000000087
:1009100000000000000000000000000000000000D7
:1009200000000000000000000000000000000000C7
:1009300000000000000000000000000000000000B7
:1009400000000000000000000000000000000000A7
:100950000000000000000000000000000000000097
:10096000001C1C1C1C1C1C1C1C1C1C1C1C1C1C1CE3
:100970000000C1FFFFFFFFC783010000000000006F
:1009800000000000010100000080E0F0E0C0000075
:100990000030F0F0F0707878783818181838383857
:1009A00038101000000008081CFCF8F000000000DF
:1009B000000000000000C0F0F87830000010383867
:1009C00038383870F0F0F0F0707878787070702007
:1009D0000000000000000000000000000000000017
:1009E000001C1C1C1C1C1C1C1C1C1C1C1C000000B7
:1009F00080FEFFFF3F1F1F0F0F0F0F0E0E0E0E1E6C
:100A00001E1E0E03000080E0FCFFFF3F0F000000F1
:100A1000FEFF8701000000000000207070E0E0E0B1
:100A2000E0202000000000C0FEFF7F3D1C1C1C1CBD
:100A3000183878F8FCFFFF1F0100000000000000DC
:100A40000080E0F8FFFF7F0700E0E0E7E7E7E7E787
:100A5000E7E7E7E7E7E7E7E7E7E7E7E7E7E7E7E726
:100A6000E70707C7C7C78707070707272030383EAC
:100A70003F3F1F0700000070F0F0E0C08000002042
:100A800020202030383E3F3F3F1F03000000000081
:100A900021272F3E3C3C3C38383838383C1E0F0765
:100AA00001002020383C1F0F0300000000404040A0
:100AB00070783C3F1F070000000000404040607815
:100AC0003E3F1F07030000003838383838383838C0
:100AD0003838383838383838383838383838383896
:100AE0003800000103070F0F0E0E0E0E0E0E0E0E35
:100AF0000E0E0E0E0E0E0E0ECEEFFFFF7F1F1E1EF1
:100B00001E3E3E3E3E3E3E3E7E7E7E7E7E7E7E7E25
:100B1000FEFEFEFEFEFCFCFCFCFCFCF8F8F8F8F81F
:100B2000F8F8F8F8F8F8F0F0F0F0F0F0F0F0F0F095
:100B3000F0F0E0E0E0E0E0E0E0E0E0F0F0F0F0F045
:100B4000F0F0F8F8F8F8F8F8F8F87C7C7C3C3C3CDD
:100B50001C1E1E0E0E000000000000000000000021
:100B600000301C1E1E0F0F0F0F0F1E3E3C3030308A
:100B70003038181C1C1C1C3C79F9F1C0C0E0E0E0C6
:100B8000F070383838383870F0E0C0C0E0E0E0E0AD
:100B9000E0604040E040C0C1C1C1C1C181810103EA
:100BA000030303030303030303070707078787C739
:100BB000C7C7C7CF8F8F0F0F0F0F0F0F0F07070775
:100BC00003030381C1C1C0E0E0E0E0E0C0C080C039
:100BD000E0F8FCFCFEFEFE7E3E1C1C18101030608F
:100BE000E00E0703070F0F0E0C08081818181C3E1C
:100BF0003E1E1E1E1C1818181810232120004040ED
:100C000060703838181838306061E1E1F171337183
:100C1000F0E0C0C0E0F070313171E1C181C3C7CCF8
:100C2000CCC4860606060E1E3F8FC7C3C1C1C18154
:100C30000103070F3F1F0F040686C6C6CEDCD89CF3
:100C40000C0EC7E3F1703070F1E3C7DFE7F37131E9
:100C5000303060C0E1F3703030383C3E3E1E1E0E36
:100C60000C080B000202020100090400000102024C
:100C700000000524001001052401010104240206DE
:100C80000524060001070581031000400904010046
:100C9000020A000000070502024000000705830267
:100CA0004000000403090412010002EF0201404168
:100CB00023368000010102030141726475696E6F81
:100CC000204C4C430041726475626F790000FC0255
:100CD000F9FE000000E0B0B8F8EC000000000000F1
:100CE0000004073C1F373418B8EDF7BFE7FDB8180C
:100CF000F0E000000000000000000C0F0F030101F5
:100D000001030F0C080000000000B61C11241FBED8
:100D1000CFEFDAE0DEBFCDBF14E0A0E0B1E0E4E960
:100D2000F0E402C005900D92AC35B107D9F729E087
:100D3000ACE5B4E001C01D92AB38B207E1F716E0B4
:100D4000C6E8D6E004C02197FE010E943D20C538C8
:100D5000D107C9F70E9462150C9448200C9400003A
:100D6000CF92DF92EF92FF920F931F93CF93DF9377
:100D70006C017A018B01C0E0D0E0CE15DF0589F06F
:100D8000D8016D918D01D601ED91FC910190F0811A
:100D9000E02DC6010995892B11F47E0102C0219630
:100DA000ECCFC701DF91CF911F910F91FF90EF9092
:100DB000DF90CF9008953FB7F89480915E049091B2
:100DC0005F04A0916004B091610426B5A89B05C0A2
:100DD0002F3F19F00196A11DB11D3FBFBA2FA92FBA
:100DE000982F8827820F911DA11DB11DBC01CD0137
:100DF00042E0660F771F881F991F4A95D1F7089523
:100E00002D9A08958EBD00000DB407FEFDCF089504
:100E10000895089580E090E008950E9443208F9205
:100E20009F92AF92BF92CF92DF92EF92FF926B01AF
:100E30007C010E94DB064B015C01C114D104E1047A
:100E4000F104F1F00E94DB06DC01CB01881999095D
:100E5000AA09BB09883E9340A105B10570F321E0C2
:100E6000C21AD108E108F10888EE880E83E0981EC6
:100E7000A11CB11CC114D104E104F10419F7DDCFA8
:100E8000FF90EF90DF90CF90BF90AF909F908F90AA
:100E90000895BC0180E090E00C940F071F920F9220
:100EA0000FB60F9211242F933F938F939F93AF937D
:100EB000BF938091620490916304A0916404B09107
:100EC000650430915D0423E0230F2D3720F4019653
:100ED000A11DB11D05C026E8230F0296A11DB11D5D
:100EE00020935D048093620490936304A093640450
:100EF000B093650480915E0490915F04A0916004BA
:100F0000B09161040196A11DB11D80935E04909380
:100F10005F04A0936004B0936104BF91AF919F916F
:100F20008F913F912F910F900FBE0F901F901895AA
:100F30008FB12CB193B130E02095309520743327D8
:100F4000A90123E0559547952A95E1F7292F30E02F
:100F50002095309520713327359527953595279520
:100F6000242B8095807F822B089583B7817F83BF58
:100F700083B7816083BF889583B78E7F83BF0895D1
:100F800060387105D0F440345105B8F4EDE2F2E078
:100F900080E1849FD001A0781124A60F4770E40F50
:100FA000F11D8491A956BB4F222319F06C91862B19
:100FB00003C080956C9186238C9308952F923F9265
:100FC0004F925F926F927F928F929F92AF92BF9259
:100FD000CF92DF92EF92FF920F931F93CF93DF9305
:100FE000CDB7DEB729970FB6F894DEBF0FBECDBFE1
:100FF000FC016A3069F4248D808D918D38E0239F47
:10100000800D911D1124918F808F178A168AAAC096
:101010006D3009F4A7C099878887F48C338C228CB3
:10102000608C718C0689178900381105C4F0A88579
:10103000B9855C962C915C97422F50E056968D9125
:101040009C915797B6E02B9F800D911D1124E88548
:10105000F985978B868B258D21116EC083C0F0E4B6
:101060006F16710424F7C80125E0F29E800D911DD2
:10107000112418161906DCF68F2D90E09C838B83C3
:10108000C301A8E0FA9E800D911D112418161906BF
:1010900074F6B5E06B9FB0011124FB01EB5CFD4FD2
:1010A000FA83E98330E08885998504969E838D8351
:1010B000E981FA81E490353009F4E12C430188E0BC
:1010C000482EE0FC02C0532C01C0522C51100BC022
:1010D000321009C0E6944A948B819C81880E991E37
:1010E0004110EFCF1BC068018C2D801B8F1590F72E
:1010F00054018A2D88198F1568F4252DA501B60194
:101100008D819E813F830E94C0079FEFA91AB90A73
:101110003F81EFCFAFEFCA1ADA0AE6CF3F5FEB812C
:10112000FC810E0F1F1F89819A8101969A83898302
:10113000363009F0BDCF7BCF6AEF64039001659F25
:10114000300D112420583F4F281739075CF4A8852B
:10115000B985ED91FC9111970190F081E02D6AE045
:10116000CD01099581E090E029960FB6F894DEBF95
:101170000FBECDBFDF91CF911F910F91FF90EF90E8
:10118000DF90CF90BF90AF909F908F907F906F90A7
:101190005F904F903F902F9008950F931F93CF93A0
:1011A000DF9381EC80937C0085B1806F85B92498B2
:1011B00084B1866E84B95E9A5F988AB1806D8AB96F
:1011C000769A6E9881B3806F81BB899880B38D7059
:1011D00080BB80E58CBD81E08DBD85E090E00E9404
:1011E00049075F9A85E090E00E9449075E985C9805
:1011F000C0E2D2E01C2F135FFE0184910E9402071F
:1012000021961C13F9CF5C9A81E88093640081E0F9
:1012100080936500C0E0D4E080E00E94020721973F
:10122000D9F70E94980787FF1FC05C9885EA0E9443
:1012300002075C9A2E982F982D9880916400806206
:10124000809364000E94B507FDCF2D980E949807F7
:101250008478843871F00E9498078471843131F168
:1012600088EC90E00E9449070E94980782FDEDCF2C
:101270003AC00E94000788EC90E00E9449072F982E
:1012800082E090E00E94FE1D8F3F29F06FEF82E028
:1012900090E00E94061E84EF91E00E9449072F9A79
:1012A0000E94980784788438D9F3D5CF0E9400072C
:1012B00088EC90E00E9449072E9882E090E00E941E
:1012C000FE1D882329F060E082E090E00E94061E67
:1012D00084EF91E00E9449072E9A0E94980784713A
:1012E0008431D9F3BDCF0E94000782E090E00E94D4
:1012F000FE1D882331F03E9A3F9A81E080935C0482
:1013000004C010925C043E983F982E98CEEEDFEF1A
:101310000E94980786FF04C02E9A2F9A2D9A39C0F2
:10132000CC3F8FEFD80719F42E9A2F9805C0C831FB
:10133000D10511F42F9A2D980E94D91300E128E5C8
:1013400040E751E0BE0184E190E00E94DA120E9481
:1013500082148BE190E00E944907C03FEFEFDE0767
:1013600021F48AEF90E00E9449072196C931D10506
:1013700079F68CEB92E00E9449070E940007E09109
:101380002109F09122090190F081E02D81E299E09C
:10139000099582E390E00E9449070E949807811115
:1013A000F8CF81E280932809809164008E7F80933A
:1013B000640080917A00806480937A0080917A0042
:1013C00086FDFCCFC0917800D09179000E94DB06A9
:1013D0008E0120E030E0980111270027600F711F77
:1013E000821F931F611571058105910511F00E94FF
:1013F000F51D8091640081608093640010927604F2
:1014000010927504DF91CF911F910F910C94E61308
:101410008F929F92AF92BF92CF92DF92EF92FF9204
:10142000CF93DF93EB01FC016685778580E090E048
:101430000E941A1F6B017C01CE01880F991FBC010D
:1014400080E090E00E941A1F4B015C01A701960109
:10145000C701B6010E94A81F20E030E040E05FE332
:101460000E94A81F9B01AC01C501B4010E94A81FE6
:1014700020E030E040E050E40E94771E20E030E0C1
:1014800040E05FE30E94A81F20E030E040E85FE317
:101490000E94781E0E94E41ECB01DF91CF91FF9045
:1014A000EF90DF90CF90BF90AF909F908F90089576
:1014B000CF92DF92EF92FF920F931F93CF93DF9320
:1014C000CDB7DEB78C016FA178A5CE010B960E9437
:1014D000080A6C01F801E288F3882B8D3C8DE20E3E
:1014E000F31E668D778DC8010E94080AE82F492FE8
:1014F0002FA538A9E21AF30AC60163E070E00E9442
:1015000029206E0D7F1D2E2F342F37FF02C02F5F35
:101510003F4F35952795621B730BF80182819381AC
:10152000161617061CF4861B970B02C00197F801CC
:1015300093838283DF91CF911F910F91FF90EF9062
:10154000DF90CF900895CF93DF93FC01EB0141151D
:10155000510509F065C02130310509F589858F9362
:1015600088858F934DB75EB7445251090FB6F894F2
:101570005EBF0FBE4DBFADB7BEB7119684E20190FE
:101580000D928A95E1F7CB010E94580A8DB79EB75C
:1015900086960FB6F8949EBF0FBE8DBF57C0232B03
:1015A000F9F41F921F924DB75EB7445251090FB61E
:1015B000F8945EBF0FBE4DBFADB7BEB7119684E2C3
:1015C00001900D928A95E1F7CB010E94580A8DB7E0
:1015D0009EB786960FB6F8949EBF0FBE8DBF36C0DD
:1015E0001F9282E08F934DB75EB7445251090FB6F8
:1015F000F8945EBF0FBE4DBFADB7BEB7119684E283
:1016000001900D928A95E1F7CB010E94580A8DB79F
:101610009EB786960FB6F8949EBF0FBE8DBF16C0BC
:101620004230510599F462A173A1CE010E94080ACB
:101630002C893D89820F931F181619063CF42A81C4
:101640003B81A901481B590B5B834A83DF91CF91F2
:101650000895CF93DF93EC016130710509F448C020
:10166000F8F06230710509F068C08EEA91E0998364
:1016700088838CEB90E09D878C878AE0FE017096D2
:10168000DF01982F1D929A95E9F721E030E03D8B1C
:101690002C8B21EB33E03F8B2E8BE4E1F1E040C05B
:1016A0008AE0EEE1F1E0DE015A9601900D928A9512
:1016B000E1F78BE991E0998388836A8D7B8DCE0178
:1016C0000E94080A9B838A8384E391E09D878C872C
:1016D000FE0170968AE0DF011D928A95E9F781E0AC
:1016E00090E0998B888B83EA91E09F8B8E8B25C04D
:1016F00089EA91E0998388838AE0FE017096DF0190
:10170000982F1D929A95E9F77B8B6A8B23EA33E039
:101710003F8B2E8B28EF30E03D872C87E8E2F1E00D
:10172000DE015A9601900D928A95E1F76A8D7B8DC4
:10173000CE010E94080A9B838A83DF91CF9108958E
:101740002FB7F89483E08093E9009091E800892F07
:10175000807295FF04C09091F20080E4891B2FBF36
:101760000895CF93DF931F92CDB7DEB76983DC0175
:10177000ED91FC910280F381E02D41E050E0BE014B
:101780006F5F7F4F09950F90DF91CF91089583E0B0
:101790008093E9008091F200882319F08AE3809316
:1017A000E80008950E94A00B90E008958F929F9208
:1017B000AF92BF92CF92DF92EF92FF920F931F935F
:1017C000CF93DF935C016B017A018091070188233D
:1017D00009F45BC080916F04882309F456C080919E
:1017E0006D0480FF05C08091E00082608093E0007E
:1017F000E70110E00AEF83E0882E9AE3992E209704
:10180000D9F10E94A00B81110AC0015009F43DC01A
:1018100061E070E080E090E00E940F07F0CF282F99
:1018200030E0C217D3070CF48C2F4FB7F894809296
:10183000E9009091E80095FF1DC0282F30E0C21B01
:10184000D30BF601982F915020F081918093F100F5
:10185000FACFC20ED31E112319F09092E80009C0EE
:101860008091E80085FD06C09092E80011E0209785
:1018700009F010E04FBFC3CF1111C3CF5D9884E6CC
:1018800080936C041E141F0444F081E090E0F50185
:101890009383828380E090E001C0C701DF91CF9104
:1018A0001F910F91FF90EF90DF90CF90BF90AF907E
:1018B0009F908F9008950F931F93CF93DF93809104
:1018C000BD089091BE08181619060CF0C8C1809189
:1018D000990890919A08181619060CF099C10E945F
:1018E000E6131092340910923309109236091092BF
:1018F000350980919708909198080E94D81287EB3B
:1019000093E00E94D8128091990890919A080E94C1
:10191000FC142AE030E041E450E06AE070E080E04E
:1019200090E00E94FD138CE390E090933409809343
:10193000330984E390E090933609809335098091D0
:10194000BD089091BE080E9414158FE992E00E9494
:10195000D8126091D5087091D6088BEB98E00E9460
:10196000080A0E9414158DEB93E00E94D8122EE312
:1019700030E048E750E06EE370E08AE390E00E94D8
:10198000FD134091A3085091A40804E124E160E014
:1019900070E085E590E00E94DA124091C70850910E
:1019A000C80824E16DE170E088E090E00E94DA125E
:1019B0001092340910923309C2E3D0E0D093360973
:1019C000C09335094091C7085091C80824E169E1E6
:1019D00070E088E090E00E94DA1220E330E040E31B
:1019E00050E060E370E082E090E00E94FD132AE3A3
:1019F00030E040E350E06AE370E082E090E00E9473
:101A0000FD132AE330E042E050E060E370E082E062
:101A100090E00E94FD132AE330E040E350E060E3F1
:101A200070E080E390E00E94FD1385E090E09093E9
:101A3000340980933309D0933609C09335098091D6
:101A40008F0490919004009709F072C010928E0458
:101A50008091790490917A04039724F010927A048B
:101A6000109279048091790490917A0497FF06C0CE
:101A700082E090E090937A048093790480917904D5
:101A800090917A048130910541F08230910541F0C6
:101A9000892B51F481EC93E005C088EC93E002C0FF
:101AA0008FEC93E00E94D8120E94980783FF1CC01D
:101AB0008091770490917804892BB1F421E030E093
:101AC00030937804209377048091790490917A047C
:101AD0008130910509F02AC190938D0480938C0484
:101AE0009093900480938F040E94921D63E070E0B5
:101AF0000E9429208130910579F048F082309105CB
:101B000009F05DC190938B0480938A040EC01092FB
:101B10008B0410928A0409C090938B0480938A04EA
:101B200090938904809388044AC181E090E0F8CFC3
:101B3000019709F044C1809188049091890401972C
:101B400009F03DC12091C5083091C6088091A108D7
:101B50009091A2088217930720F481E08093870474
:101B600002C0109287049091870480918E0499237B
:101B700041F1811124C1C0918A04D0918B0400915C
:101B80008C0410918D049E01A80167E978E08BEB2D
:101B900098E00E94A30A9801AE016BEB78E087E918
:101BA00098E00E94A30A80912409909125096CE392
:101BB00070E00E941520892BF1F4CE010E941415CB
:101BC0001AC08111FCC0C0918C04D0918D04009189
:101BD0008A0410918B049E01A8016BEB78E087E9E1
:101BE00098E00E94A30A9801AE0167E978E08BEBC8
:101BF00098E00E94A30A81E090E09093780480939B
:101C0000770480938E041092900410928F04D7C0B2
:101C10000E94E61388E290E09093340980933309A0
:101C200084E190E0909336098093350987ED93E045
:101C30000E94EF138FED93E00E94EF138CEE93E080
:101C40000E94EF138AEF93E00E94D8128091270937
:101C500082FDB5C08091260982FFB1C07BC00E9481
:101C6000E61382E090E0909334098093330984E195
:101C700090E090933609809335098EE094E00E94BD
:101C8000EF138AEF93E00E94EF138091DF089091A9
:101C9000E008181619064CF08EE194E00E94EF134C
:101CA00084E394E00E94EF1304C085E494E00E9472
:101CB000D8120E94980782FF82C082E090E0909341
:101CC000760480937504109274046091D508709125
:101CD000D6088BEB98E00E94080A9093BE08809388
:101CE000BD088091DF089091E0089C0122503109E5
:101CF0003093E0082093DF08409172045091730400
:101D00004130510571F41092730410927204223024
:101D100031050CF454C004979093E0088093DF08D9
:101D20004EC01092E0081092DF0849C08230910541
:101D300049F490938D0480938C0430939004209305
:101D40008F04D2CE892B09F0CFCE10928D04109241
:101D50008C04F3CF82E090E0909376048093750436
:101D6000109274048091DF089091E008029690939D
:101D7000E0088093DF0880917204909173040197CA
:101D8000F1F4809170049091710401969093710424
:101D9000809370048091C9089091CA08019690932D
:101DA000CA088093C9088091D5089091D60890936D
:101DB000BE088093BD081092730410927204DF91E4
:101DC000CF911F910F910895CF93DF93BC0180E0D5
:101DD00090E04AE00E949414EC0189E594E00E94AE
:101DE000C6128C0F9D1FDF91CF910895FC01809149
:101DF0006F04811103C08FEF9FEF08959FB7F89490
:101E000082E08093E9002091F20030E01216130680
:101E100014F421E030E02115310559F0289884E6CA
:101E200080936E048091F10080838091F20088237A
:101E300019F09FBFC90108958BE68093E800F9CFA0
:101E4000CF93DF931F92CDB7DEB7FC0184859585D4
:101E500097FD05C02FEF3FEF358724870BC0CE01DC
:101E600001960E94F60E019719F4898190E002C054
:101E70008FEF9FEF0F90DF91CF91089580917F04B6
:101E800081110DC082E080937B0484E080937C0408
:101E900010927E0410927D0481E080937F048BE792
:101EA00094E00895FC018485958597FD0BC09FB74C
:101EB000F89482E08093E9008091F2009FBF90E067
:101EC000019608959FB7F89482E08093E90080918D
:101ED000F2009FBF90E008954091950450919604C0
:101EE000209193043091940442175307B4F49091D5
:101EF000E8009570E1F39091E80092FD19C080939D
:101F0000F100809195049091960401968F73992722
:101F1000892B19F48EEF8093E800809195049091BD
:101F200096040196909396048093950481E0089519
:101F300080E00895DF92EF92FF920F931F93CF936B
:101F4000DF93D82E8A017B01E40EF51EEB01CE153E
:101F5000DF0571F0D7FE03C0FE01849101C08881C6
:101F60000E946C0F21968111F2CF8FEF9FEF01C07D
:101F7000C801DF91CF911F910F91FF90EF90DF90FB
:101F80000895615030F02091F100FC01208301960A
:101F9000F8CF289884E680936E0408950F931F93DA
:101FA000CF93DF931F92CDB7DEB78C01FC01848500
:101FB000958597FF0EC0CE0101960E94F60E0197FF
:101FC00019F4298130E002C02FEF3FEFF801358787
:101FD0002487F801848595850F90DF91CF911F911B
:101FE0000F9108950F931F93CF93DF931F92CDB757
:101FF000DEB782E0898342E450E061E67CE080E87D
:102000000E949A0F0E943E0FDC0112960D911C91C6
:1020100013970115110569F0D801ED91FC9102802B
:10202000F381E02DBE016F5F7F4FC801099597FFD7
:1020300007C089810F90DF91CF911F910F91089573
:10204000F80100851185E5CF1F920F920FB60F9210
:1020500011248F939F938091E1009091E100937FF1
:102060009093E10083FF0FC01092E90091E09093FC
:10207000EB001092EC0092E39093ED0010926F044D
:1020800098E09093F00082FF20C093E09093E900E5
:102090009091F200992319F09AE39093E8009091BF
:1020A0006C04992339F090916C04915090936C04D6
:1020B000992389F190916E04992339F090916E04DF
:1020C000915090936E04992341F184FF10C0809148
:1020D000E2008E7E81608093E2008091E1008F7E3D
:1020E0008093E10080916D048E7E806111C080FF3D
:1020F00016C08091E2008E7E80618093E200809124
:10210000E1008E7E8093E10080916D048E7E81607F
:1021100080936D0404C05D9ACDCF289AD6CF9F914D
:102120008F910F900FBE0F901F9018951F920F92D6
:102130000FB60F921124CF92DF92EF92FF920F937E
:102140001F932F933F934F935F936F937F938F933F
:102150009F93AF93BF93EF93FF93CF93DF93CDB74D
:10216000DEB76C97DEBFCDBF1092E9008091E8002A
:1021700083FFEDC168E0CE0145960E94C10F82EF5A
:102180008093E8008D8987FF05C09091E80090FF5B
:10219000FCCF03C09EEF9093E800982F907609F053
:1021A000C6C09E892F89188D91110CC0803829F4E2
:1021B000809192048093F10002C01092F10010927D
:1021C000F10048C1422F50E0512B913051F4811160
:1021D00041C14130510509F03DC1809192048D7F8C
:1021E0000BC0933061F4811135C14130510509F0C4
:1021F00031C1809192048260809392042BC195300A
:1022000041F48091E80080FFFCCF20682093E30038
:1022100021C1963009F05FC0EB8CFC8C1092E90074
:102220001092960410929504123091F51092940435
:10223000109293040E94F20F99E0BE016F5F7F4FEE
:10224000DB01E92F1D92EA95E9F799831A8391E062
:102250009E8390EA98879AEF998720919504309110
:102260009604275F3F4F3C832B838D831092E900B8
:102270001092960410929504F0929404E0929304C4
:1022800049E050E080E00E949A0F0E94F20FE2C005
:10229000F0929404E09293040E943E0FDC011296A7
:1022A000ED90FC901397E114F10409F4C0C0D7013C
:1022B000ED91FC910480F581E02DBE016B5E7F4FB6
:1022C000C7010995009719F00CF0C4C0C7C0F70109
:1022D000E084F184E8CF973009F4C0C0983021F44D
:1022E00081E08093F100B6C0993009F0B3C08370EB
:1022F00009F0B4C0EFE6F1E081E021E036E390813F
:10230000992361F08093E9002093EB0091919093E1
:10231000EC003093ED008F5F873089F78EE7809374
:10232000EA001092EA008F8980936F0493C08B8D2E
:102330009C8D1092E900109296041092950490934F
:10234000940480939304898D811156C08E899D8950
:10235000913A59F4813209F081C047E050E060E0E1
:1023600071E080E00E949A0F75C0913209F076C04A
:10237000833289F4888D90E0982F88272F89822BCB
:10238000A0E0B0E08093080190930901A0930A01B6
:10239000B0930B015FC0803269F48091E80082FF46
:1023A000FCCF67E080E091E00E94C10F8BEF80934B
:1023B000E80006C0823209F04DC08F898093070182
:1023C00080919104882319F0EEEFFAE002C0E0E07A
:1023D000F8E08091000190910101A0910201B0917B
:1023E0000301803B9440A105B10509F07BC08091B9
:1023F000070180FF93C076C00E943E0FDC01129659
:102400000D911C9113970115110541F1D801ED9122
:10241000FC910190F081E02DBE016B5E7F4FC80101
:102420000995811117C0F80100851185ECCF113095
:1024300009F44EC0133091F48F89882309F445C004
:10244000823081F440E867E085EC9CE00E94791CD2
:10245000882321F08EEF8093E80079C081E2809399
:10246000EB0075C0813029F440E86BE089EB9CE01B
:10247000EDCF833099F70E943E0FDC011296ED906C
:10248000FC9013978E010F5F1F4F6801E114F10458
:1024900079F0D701ED91FC910680F781E02DB8012C
:1024A000C7010995080F111DF701E084F184EECFF3
:1024B000D8011C92F60101900020E9F73197BF0185
:1024C0006C197D0940E0C601C1CF63EA7CE002C01F
:1024D00067EA7CE06115710509F2FB01449150E067
:1024E00080E840CF0FB6F894A8958091600088618D
:1024F00080936000109260000FBEA895EE3F2AE026
:10250000F20739F08091FE0A9091FF0A918380834F
:10251000A1CF1092FF0A1092FE0A9CCFEE3F8AE0F4
:10252000F80731F0808191819093FF0A8093FE0A31
:1025300087E797E7918380839BE088E10FB6F89463
:10254000A895809360000FBE9093600083CF6C9637
:102550000FB6F894DEBF0FBECDBFDF91CF91FF91D4
:10256000EF91BF91AF919F918F917F916F915F910B
:102570004F913F912F911F910F91FF90EF90DF901E
:10258000CF900F900FBE0F901F901895009769F095
:10259000FC0101900020E9F73197AF01481B590B6E
:1025A000BC018DE199E00C94B00680E090E00895C4
:1025B0000C94C6122F923F924F925F926F927F922D
:1025C0008F929F92AF92BF92CF92DF92EF92FF9243
:1025D0000F931F93CF93DF93CDB7DEB728970FB636
:1025E000F894DEBF0FBECDBF5A01822E912C9C0104
:1025F000280D391D37FDC4C0803891050CF0C0C0CE
:102600009B01200F311D37FDBBC0603471050CF0FC
:10261000B7C0AB0177FF04C044275527461B570BB3
:10262000477055279B0177FF02C0295F3F4FE3E0CA
:1026300035952795EA95E1F777FF08C021503109D4
:1026400068E070E0DB01A41BB50BAD01602F66955F
:102650006695669570E0077011F06F5F7F4FDB0144
:10266000A20FB31FBA83A98339017694762C66240E
:1026700077946794680E791EE12CF12C00E010E04D
:102680002301B0E84B0E511C68E070E0DB01A41B95
:10269000B50BBC83AB8369817A812617370709F4B0
:1026A0006FC02830310509F46BC02F3FBFEF3B07E7
:1026B0000CF45BC0B201600F711FDB01A956BB4F68
:1026C000BE83AD83D801A60DB71DA956BB4F6C01C3
:1026D00060E070E0681579050CF047C0E0E8CE16C0
:1026E000D10409F442C0D7FC34C02F3FFFEF3F07AD
:1026F00009F442C0FB01EE0DFF1DEA0DFB1DE49144
:10270000042E01C0EE0F0A94EAF73C90E329EC9303
:1027100041155105F1F027303105D9F0FB01EE0DDF
:10272000FF1DEA0DFB1DE4912E2E312CF1010B80D3
:1027300002C0F595E7950A94E2F7F887EF83ED81FB
:10274000FE813080EF81F885E3291F01ED81FE8154
:1027500020826F5F7F4FED81FE813196FE83ED8396
:10276000FFEFCF1ADF0A1196B5CF2F5F3F4F00580A
:102770001F4FE80CF91C8FCF4115510579F6E9CFB1
:1027800028960FB6F894DEBF0FBECDBFDF91CF9174
:102790001F910F91FF90EF90DF90CF90BF90AF907F
:1027A0009F908F907F906F905F904F903F902F9071
:1027B000089580E0E7E9F4E081118FEF0024819330
:1027C0008193819381930394D1F708950E94D91343
:1027D000EDE1F9E0118E108E178A168A0895CF93D5
:1027E000DF930E94C612EC0189E594E00E94C612B4
:1027F0008C0F9D1FDF91CF9108955F926F927F9212
:102800008F929F92AF92BF92CF92DF92EF92FF9200
:102810000F931F93CF93DF93EC018B017A01A901F2
:10282000461B570B57FF03C0519541955109C701EE
:102830008C1B9D0B97FF03C09195819591095524A1
:1028400053948417950714F0512C0AC09E2D8F2D98
:102850007901292F382F9C2F8D2FE801092F182F50
:10286000EC16FD0654F4902F812F8901292F382F63
:102870009C2F8D2FE701E92EF82E37016C1A7D0A67
:102880005901A01AB10AB7FE03C0B194A194B108CE
:10289000630177FE03C08FEFC81AD80AD594C79496
:1028A0000217130714F08FEF01C081E0882E880F04
:1028B0009908EC16FD06B4F021E0552019F0AE01A0
:1028C000B80102C0A801BE0181E299E00E94C007E0
:1028D000CA18DB08D7FE04C0080D191DC60CD71C8A
:1028E0002196E7CFDF91CF911F910F91FF90EF904D
:1028F000DF90CF90BF90AF909F908F907F906F9020
:102900005F900895809197048EBDE8E9F4E081918D
:102910000DB407FEFDCF8EBD88E0E739F807B9F7A3
:102920000DB407FEFDCF08958F929F92AF92BF9294
:102930000F931F93CF93DF93CDB7DEB7A1970FB659
:10294000F894DEBF0FBECDBF19A2423008F44AE0B2
:102950008E010F5D1F4F842E912CA12CB12CA5014F
:1029600094010E94461EE62FB901CA0101501109C7
:10297000EA3014F4E05D01C0E95CD801EC93232B4C
:10298000242B252B61F7C8010E94C612A1960FB611
:10299000F894DEBF0FBECDBFDF91CF911F910F9195
:1029A000BF90AF909F908F900895CF92DF92EF925B
:1029B000FF92CF93DF936B017C01E0911D09F091B1
:1029C0001E090190F081E02D6DE28DE199E00995FD
:1029D000EC0166277727CB016C197D098E099F09C9
:1029E0004AE00E9494148C0F9D1FDF91CF91FF90BD
:1029F000EF90DF90CF900895CF93DF93BC01990FB4
:102A0000880B990B97FF03C00E94D51403C04AE0BE
:102A10000E949414EC0189E594E00E94C6128C0F88
:102A20009D1FDF91CF910895BC01990F880B990BE1
:102A300097FD0C94D5144AE00C9494140F931F93B3
:102A4000CF93DF938C0181E090E00E94FE1D80FF18
:102A500031C08AE090E00E94FE1D9FEF980F9E3FDC
:102A600048F522E330E0D80157963C932E935697D1
:102A700028E330E059963C932E935897CBE0D0E072
:102A8000D801ED91FC910190F081E02D682FC801F3
:102A90000995CE010E94FE1D2196C131D10581F715
:102AA0000E94821488EE93E0DF91CF911F910F91E5
:102AB0000C944907DF91CF911F910F9108950497CE
:102AC0000C941E15CF93DF93CDB7DEB7C256D10954
:102AD0000FB6F894DEBF0FBECDBF789484B5826088
:102AE00084BD84B5816084BD85B5826085BD85B5B2
:102AF000816085BD80916E00816080936E00109230
:102B000081008091810082608093810080918100AA
:102B1000816080938100809180008160809380003B
:102B200080919100826080939100809191008160FA
:102B300080939100809190008160809390008091BB
:102B4000C10084608093C1008091C1008260809345
:102B5000C1008091C10081608093C1008091C30059
:102B600081608093C3008091C00082608093C00028
:102B70008091C20081608093C20080917A0084605D
:102B800080937A0080917A00826080937A008091AD
:102B90007A00816080937A0080917A0080688093C7
:102BA0007A0010926F041092920410926D0480913A
:102BB000D70081608093D70080EA8093D80089B5E0
:102BC000806189BD89B5826089BD09B400FEFDCFF1
:102BD00061E070E080E090E00E940F078091D800F3
:102BE0008F7C80618093D8008091E000807F80930B
:102BF000E0008091E1008E7E8093E1008DE0809383
:102C0000E200559A209AEEEFFFE7859194918B3F71
:102C10009C4D19F481E0809391040E94CD0841E716
:102C2000242E47E0342EEE24E394F12C8CE0C82EC1
:102C3000D12C94E0892E912C22E0A22EB12C35E0EB
:102C4000632E712C2FB7F8948091620490916304E5
:102C5000A0916404B09165042FBF40912D0950915B
:102C60002E0960912F09709130092091310922239A
:102C700041F020912909821B809332091092310979
:102C800015C584179507A607B70738F4481B4230C7
:102C900008F40CC50E94B50709C521E0209331094D
:102CA0008093290990932A09A0932B09B0932C09AA
:102CB00020912809820F911DA11DB11D80932D091E
:102CC00090932E09A0932F09B09330098091240985
:102CD000909125090196909325098093240980916C
:102CE0002609809327090E949807809326099091CE
:102CF000270997FD02C087FDE1C494FD02C084FD51
:102D0000E8C40E94980783FD04C0109278041092D2
:102D10007704E0917504F0917604E830F10508F04D
:102D2000C3C4EA5AFF4F0C943D2080E090E020E0BD
:102D300030E04AE027C00E94E61300E420E841E6C4
:102D400058E060E070E080E090E00E94DA1289E1F3
:102D500090E09093340980933309109236091092D1
:102D6000350983EB91E00E94D8120E94980782FFF8
:102D70009BC4F0927604E092750410927A0410924B
:102D8000790492C4265F3F4F85309105D0F4489F67
:102D9000F001499FF00D112461E070E06C0F7D1F80
:102DA000E60FF71FF096DF01542F1D925A95E9F7B1
:102DB000FB01E20FF31F62EC71E075A764A70196B7
:102DC000E1CF88EC91E09A838983F88AEF861EA28E
:102DD0001DA282E6FE013196ABEBB8E001900D92A8
:102DE0008A95E1F70E94E613109234091092330994
:102DF00010923609109235098DEC91E00E94D8129C
:102E00008AE594E00E94D8122AE030E042E850E0DF
:102E10006AE070E080E090E00E94FD1310923409B7
:102E200010923309D0923609C09235098091790405
:102E300090917A04039724F010927A041092790406
:102E40008091790490917A0497FF04C0B0927A043B
:102E5000A09279048091790490917A04813091054F
:102E6000B1F08230910521F1892BA1F58EED91E031
:102E70000E94EF1304E124E14DEC5CE06EE170E0B0
:102E800080E090E00E94DA1286EE91E021C089EAAB
:102E900091E00E94EF1304E124E145E258E06EE185
:102EA00070E080E090E00E94DA1284EF91E010C0C0
:102EB0008AE092E00E94EF1304E124E149EE57E03A
:102EC0006EE170E080E090E00E94DA128FE092E024
:102ED0000E94D8120E94980783FFE6C3809177046E
:102EE00090917804892B09F4FEC3DEC30E94E61397
:102EF0001092340910923309109236091092350954
:102F00008EE192E00E94D8122AE030E042E850E0E0
:102F10006AE070E080E090E00E94FD1310923409B6
:102F200010923309D0923609C09235098091790404
:102F300090917A04059724F010927A041092790403
:102F40008091790490917A0497FF04C090927A045A
:102F5000809279048091790490917A04823091056D
:102F600011F12CF4009759F0019761F02CC08330D7
:102F70009105E1F0049739F587E892E022C088E2F4
:102F800092E01FC08091BD089091BE0818161906E6
:102F90001CF48EE292E015C085E392E00E94EF13EC
:102FA00085E492E00EC086E592E00BC0809170044B
:102FB00090917104039718F48BE592E002C08CE6BF
:102FC00092E00E94D8120E94980783FF6DC38091FF
:102FD000770490917804892B09F4A6C365C3809186
:102FE0007404811114C00E94E6130E94921D63E0D4
:102FF00070E00E942920BC0187E998E00E94290B1B
:1030000081E08093740410927A04109279040E94F3
:103010005B0C4AC30E94E6131092340910923309E4
:1030200010923609109235098DE892E00E94D8126C
:103030002AE030E042E850E06AE070E080E090E0B2
:103040000E94FD130E94980782FF04C0B09276048C
:10305000A09275048091680490916904892B09F00D
:1030600034C18091790490917A04029724F01092EF
:103070007A04109279048091790490917A0497FFF0
:1030800004C0F0927A04E0927904809179049091DE
:103090007A04009709F0B8C01092340910923309ED
:1030A000D0923609C09235098091BB089091BC0836
:1030B0000E94EF138091BD089091BE080E941415E4
:1030C0008FE992E00E94D8126091D5087091D608DD
:1030D0008BEB98E00E94080A0E94141583EA92E0A4
:1030E0000E94EF1388EA92E00E94D8126091D708FC
:1030F0007091D8088BEB98E00E94080A2091E108B3
:103100003091E208820F931F0E94E40E82EB92E05E
:103110000E94D8126091D9087091DA088BEB98E080
:103120000E94080A2091E3083091E408820F931F5F
:103130000E94E40E8BEB92E00E94D8126091DB08B3
:103140007091DC088BEB98E00E94080A0E94FC1446
:1031500082EC92E00E94D8126091DD087091DE0846
:103160008BEB98E00E94080A2091E5083091E60870
:10317000820F931F0E94E40E0BE410E010933409B9
:1031800000933309D0923609C092350989EC92E058
:103190000E94D8126091C9087091CA0880E090E03E
:1031A0004AE00E949414109334090093330984E197
:1031B00090E090933609809335098091E7089091CB
:1031C000E8080E94EF1310933409009333098CE14F
:1031D00090E090933609809335098EEC92E00E943E
:1031E000D8128091DF089091E0080E941415409158
:1031F000C7085091C80804E124E168E270E084E661
:1032000090E00E94DA1255C0019709F052C00E9466
:10321000E613109234091092330910923609109275
:10322000350985ED92E00E94D8122AE030E042E8AC
:1032300050E06AE070E080E090E00E94FD131092A0
:10324000340910923309D0923609C09235090BEE39
:1032500018E0D80116968D919C9117970E94D8126C
:1032600086EE92E00E94D812F8016081718180E0C0
:1032700090E04AE00E9494148AEE92E00E94D812F4
:10328000D80112966D917C91139780E090E04AE00E
:103290000E9494148EEE92E00E94D812F80184816C
:1032A00095810E94E40E065F1F4FF9E00D311F0764
:1032B00081F60E94980786FF08C0F0926904E092A8
:1032C000680410927A0410927904809168049091B5
:1032D0006904019709F0E8C10E94E61310923409CD
:1032E00010923309109236091092350982EF92E05C
:1032F0000E94D8122AE030E042E850E06AE070E034
:1033000080E090E00E94FD1310923409109233097E
:10331000D0923609C09235098AEF92E00E94EF13ED
:103320008091790490917A04059724F010927A04A0
:10333000109279048091790490917A0497FF04C0E7
:1033400090927A04809279048091790490917A0421
:103350001AE0189FF001199FF00D1124E554F74F62
:1033600086A997A90E94D8120E94980783FF07C0D8
:103370008091770490917804892B09F426C20E94E9
:10338000980785FF91C110926904109268048CC15E
:103390000E94E613109234091092330910923609F4
:1033A0001092350980E193E00E94D8122AE030E0C3
:1033B00042E850E06AE070E080E090E00E94FD1397
:1033C0001092340910923309D0923609C09235090F
:1033D0000E94980782FF08C0B0927604A0927504FC
:1033E00010927A041092790480916A0490916B048F
:1033F000892B09F04FC08091790490917A0402974B
:1034000024F010927A0410927904809179049091BA
:103410007A0497FF04C0F0927A04E09279048091D4
:10342000790490917A04009719F0019721F019C05E
:1034300086E193E014C00091BD081091BE08609130
:10344000D5087091D6088BEB98E00E94080A0817FF
:1034500019071CF489E293E002C086E393E00E941E
:10346000D8120E94980783FF15C08091770490912D
:103470007804892B79F4F0927804E09277048091B3
:10348000790490917A04009709F0CCC1F0926B0412
:10349000E0926A0480916A0490916B04019709F0AC
:1034A00078C08091790490917A04069724F0109264
:1034B0007A04109279048091790490917A0497FFAC
:1034C00004C070927A04609279040E94E61380919D
:1034D000790490917A041AE0189FF001199FF00D79
:1034E0001124EE5CFE4F868197810E94D81281EAFA
:1034F00092E00E94D8128091790490917A04189FEA
:10350000F001199FF00D1124EE5CFE4F608571856E
:1035100080E090E04AE00E94941485EE93E00E94DF
:10352000EF138091790490917A04189FF001199F0C
:10353000F00D1124EE5CFE4F2091DF083091E00881
:10354000808591852817390720F488E493E00E944C
:10355000D8120E94980783FF1CC080917704909135
:103560007804892BB1F48091790490917A042AE04F
:10357000289FF001299FF00D1124EE5CFE4F409131
:10358000DF085091E008208531854217530708F085
:1035900070C180916A0490916B04029709F084C015
:1035A0008091790490917A04059724F010927A041E
:1035B000109279048091790490917A0497FF04C065
:1035C00090927A04809279040E94E6138BE593E04E
:1035D0000E94EF1384E793E00E94D812809179044F
:1035E00090917A040E94141581EA92E00E94D81208
:1035F0008091790490917A041AE0189FF001199F44
:10360000F00D1124E554F74F86A997A90E94EF13F6
:103610000E94980783FF48C08091770490917804B6
:10362000892B09F433C140C08091740481110DC00D
:103630000E94E61381E08093740410927A04109241
:103640007904F0927304E092720480917004909176
:103650007104009739F44DEA57E05093A408409361
:10366000A308D5CC8130910529F43092A40820928A
:10367000A308CDCC029709F0CACC65E377E070933C
:10368000A4086093A308C3CC012B71F460E070E040
:103690008BEB98E00E94290B10927A041092790427
:1036A000B0927604A09275040E94821480E090E0AB
:1036B000892B09F4C7CA0E940000B8CA2091790476
:1036C00030917A042F5F3F4F30937A04209379042E
:1036D00014CB8091790490917A04019790937A04A5
:1036E000809379040ECBF0927804E09277040091F5
:1036F000790410917A040130110519F461E070E049
:10370000C7CF0230110509F0BFCF62E070E08BEB4C
:1037100098E00E94290B10927A0410927904109379
:10372000760400937504C0CFF0927804E092770499
:103730008091790490917A048230910519F40E9465
:10374000CD08B2CF833091053CF40097D1F470924C
:1037500076046092750410C08330910501F10497DE
:1037600009F0A2CF86E090E09093760480937504F0
:1037700010927A041092790410926B0410926A04E9
:1037800093CF019709F090CF8091BD089091BE082A
:10379000181619060CF088CF83E090E011C08091D4
:1037A000BD089091BE08181619060CF07DCF8091C7
:1037B000700490917104039708F076CF87E090E051
:1037C00090937604809375046FCF809179049091E3
:1037D0007A04189FF001199FF00D1124E554F74F5A
:1037E00040A951A922A933A984A995A966A977A9B5
:1037F000A1EEB8E01D921A95E9F75093E2084093C4
:10380000E1083093E4082093E3089093E60880935E
:10381000E5087093E8086093E70810926904109235
:103820006804ADCD019709F035CE4090DF08509087
:10383000E008141415040CF02DCE0091BD08109171
:10384000BE086091D5087091D6088BEB98E00E9475
:10385000080A081719070CF01DCE9093BE08809334
:10386000BD089201215031093093E0082093DF0810
:1038700011CEF0927804E0927704909367048093DD
:103880006604B0926B04A0926A0483CE2091660411
:10389000309167048091790490917A04189FD00147
:1038A000199FB00D1124A551B74F129FC001139F4E
:1038B000900D11248E5C9E4F2AE0FC0101900D9228
:1038C0002A95E1F72091DF083091E008FC0180851E
:1038D0009185A901481B590B5093E0084093DF08DC
:1038E00010926B0410926A04F0927804E0927704CC
:1038F000DBCECF92DF92EF92FF920F931F93CF9385
:10390000DF931F92CDB7DEB7182F062FE42E862F38
:10391000880F8E5F99830E946C0F83E00E946C0F6A
:10392000F12EC12E9981D92E8C2D8F19801798F4E4
:10393000F601E7FE02C0849101C080810E946C0FF5
:10394000182F80E00E946C0F8123FFEFCF1ADF0A4F
:103950008111EACF01C081E00F90DF91CF911F91DB
:103960000F91FF90EF90DF90CF90089510923E0955
:1039700010923D0988EE93E0A0E0B0E080933F090B
:1039800090934009A0934109B093420989E791E0DF
:1039900090933C0980933B098FEF9FEF90934809E8
:1039A0008093470988EC91E09093BC088093BB0812
:1039B00081E090E09093CA088093C9081092E008D3
:1039C0001092DF0880E090E020E030E04AE062EC16
:1039D00071E0265F3F4F8530910598F4489FF001D4
:1039E000499FF00D1124E551F74FDF01542F1D922F
:1039F0005A95E9F7F901E554F74F75A764A70196C1
:103A0000E8CF88EC91E0909398088093970881E044
:103A100090E09093A6088093A50810922009109238
:103A20001F09109226091092270980E18093280926
:103A30008FEF9FEF909325098093240910922D0911
:103A400010922E0910922F0910923009109231090C
:103A50008BE891E090931E0980931D0989E991E01C
:103A6000909322098093210910923409109233090E
:103A7000109236091092350981E08093370910922F
:103A800038098093390910923A0908958F929F92CC
:103A9000AF92BF92CF92DF92EF92FF92CF93DF93DC
:103AA000EC01688179818A819B81611571058105AD
:103AB000910521F464E279ED8BE597E02DE133EF98
:103AC00041E050E00E94141E49015A019B01AC01E3
:103AD000A7EAB1E40E94331E6B017C01ACEEB4EFA7
:103AE000A50194010E94411EDC01CB018C0D9D1D9E
:103AF000AE1DBF1DB7FF03C00197A109B048888361
:103B00009983AA83BB839F77DF91CF91FF90EF903A
:103B1000DF90CF90BF90AF909F908F9008950E94BC
:103B2000461D08958CE091E00E94461D0895A0E096
:103B3000B0E080930C0190930D01A0930E01B0931F
:103B40000F0108958F929F92AF92BF92CF92DF9212
:103B5000EF92FF92CF93DF93EC01688179818A81A4
:103B60009B81611571058105910521F464E279ED70
:103B70008BE597E02DE133EF41E050E00E94141E09
:103B800049015A019B01AC01A7EAB1E40E94331E2E
:103B90006B017C01ACEEB4EFA50194010E94411EC3
:103BA000DC01CB018C0D9D1DAE1DBF1DB7FF03C0F9
:103BB0000197A109B04888839983AA83BB83BC017C
:103BC000CD019F77DF91CF91FF90EF90DF90CF9065
:103BD000BF90AF909F908F9008950E94A21D08956E
:103BE00080E191E00E94A21D0895609310017093FE
:103BF000110180931201909313010895F999FECF5A
:103C000092BD81BDF89A992780B50895262FF9991C
:103C1000FECF1FBA92BD81BD20BD0FB6F894FA9AAF
:103C2000F99A0FBE01960895052E97FB1EF4009495
:103C30000E942B1E57FD07D00E94461E07FC03D092
:103C40004EF40C942B1E50954095309521953F4F86
:103C50004F4F5F4F089590958095709561957F4F78
:103C60008F4F9F4F08950E94681EA59F900DB49F8F
:103C7000900DA49F800D911D11240895B7FF0C9401
:103C8000331E0E94331E821B930B0895A1E21A2E4D
:103C9000AA1BBB1BFD010DC0AA1FBB1FEE1FFF1FF0
:103CA000A217B307E407F50720F0A21BB30BE40B40
:103CB000F50B661F771F881F991F1A9469F7609587
:103CC0007095809590959B01AC01BD01CF01089541
:103CD000A29FB001B39FC001A39F700D811D11244D
:103CE000911DB29F700D811D1124911D0895505892
:103CF000BB27AA270E948F1E0C946E1F0E94601F74
:103D000038F00E94671F20F039F49F3F19F426F421
:103D10000C945D1F0EF4E095E7FB0C94571FE92F00
:103D20000E947F1F58F3BA1762077307840795072D
:103D300020F079F4A6F50C94A11F0EF4E0950B2E5B
:103D4000BA2FA02D0B01B90190010C01CA01A001ED
:103D50001124FF27591B99F0593F50F4503E68F148
:103D60001A16F040A22F232F342F4427585FF3CF89
:103D7000469537952795A795F0405395C9F77EF45A
:103D80001F16BA0B620B730B840BBAF09150A1F0A3
:103D9000FF0FBB1F661F771F881FC2F70EC0BA0F29
:103DA000621F731F841F48F4879577956795B795B1
:103DB000F7959E3F08F0B0CF9395880F08F09927AC
:103DC000EE0F9795879508950E94EB1E6894B111A8
:103DD0000C94A21F08950E94871F88F09F5798F0A7
:103DE000B92F9927B751B0F0E1F0660F771F881F00
:103DF000991F1AF0BA95C9F714C0B13091F00E941A
:103E0000A11FB1E008950C94A11F672F782F882778
:103E1000B85F39F0B93FCCF3869577956795B39540
:103E2000D9F73EF490958095709561957F4F8F4FAF
:103E30009F4F0895E89409C097FB3EF490958095B4
:103E4000709561957F4F8F4F9F4F9923A9F0F92F60
:103E500096E9BB279395F695879577956795B795DE
:103E6000F111F8CFFAF4BB0F11F460FF1BC06F5FC4
:103E70007F4F8F4F9F4F16C0882311F096E911C0D6
:103E8000772321F09EE8872F762F05C0662371F0F7
:103E900096E8862F70E060E02AF09A95660F771F0B
:103EA000881FDAF7880F9695879597F9089597F9FF
:103EB0009F6780E870E060E008959FEF80EC0895D0
:103EC00000240A94161617061806090608950024F9
:103ED0000A9412161306140605060895092E039473
:103EE000000C11F4882352F0BB0F40F4BF2B11F4E7
:103EF00060FF04C06F5F7F4F8F4F9F4F089557FD46
:103F00009058440F551F59F05F3F71F04795880F47
:103F100097FB991F61F09F3F79F0879508951216DE
:103F200013061406551FF2CF4695F1DF08C016168A
:103F300017061806991FF1CF86957105610508943B
:103F40000895E894BB2766277727CB0197F9089552
:103F50000E94BB1F0C946E1F0E94601F38F00E94CD
:103F6000671F20F0952311F00C94571F0C945D1FD0
:103F700011240C94A21F0E947F1F70F3959FC1F320
:103F8000950F50E0551F629FF001729FBB27F00D07
:103F9000B11D639FAA27F00DB11DAA1F649F66275C
:103FA000B00DA11D661F829F2227B00DA11D621FAB
:103FB000739FB00DA11D621F839FA00D611D221F65
:103FC000749F3327A00D611D231F849F600D211D49
:103FD000822F762F6A2F11249F5750409AF0F1F0CC
:103FE00088234AF0EE0FFF1FBB1F661F771F881F35
:103FF00091505040A9F79E3F510580F00C94571FF7
:104000000C94A21F5F3FE4F3983ED4F38695779516
:104010006795B795F795E7959F5FC1F7FE2B880FDA
:10402000911D9695879597F90895AA1BBB1B51E1A1
:1040300007C0AA1FBB1FA617B70710F0A61BB70B18
:10404000881F991F5A95A9F780959095BC01CD01BD
:10405000089597FB072E16F4009407D077FD09D03A
:104060000E94152007FC05D03EF4909581959F4F46
:104070000895709561957F4F0895EE0FFF1F05908D
:10408000F491E02D099481E090E0F8940C9448209C
:04409000F894FFCFD2
:1040940000E1000000000000FFFFFFFF010000003E
:1040A400010000000A00010001000A000A000A00E1
:1040B4000A000500050001001400050005000A00BF
:1040C40001000500020000007D030A000200050053
:1040D400000085030A0000000200050092030A00A4
:1040E4000700050003009703140005000700030000
:1040F4009E031400030005000700AA03140000C176
:10410400808100000000000000B10BD60BD20BC769
:104114000B520F200FCE0F00000000DE07B0060A7E
:104124000709071E15FCFF00005F157761727269AD
:104134006F720053776F72640054616E6B006D612F
:10414400676500486974206220746F20737461721B
:104154007400454D505459006E756C6C0050696381
:104164006B20796F757220636C6173732E005761D5
:104174007272696F72005374726F6E672041747447
:1041840061636B0048696768204865616C746820E6
:104194002620446566656E7365004D61676500465B
:1041A40061737420616E6420667261696C004D41B4
:1041B400494E204D454E550073746174730062611D
:1041C40074746C6500596F7520617265206661694D
:1041D4006E74656400596F752063616E6E6F742030
:1041E4006669676874007175697400466967687404
:1041F400204172656E6120426F737300796F752080
:1042040061726520746865206172656E61206368FF
:10421400616D70696F6E0073746F72650053544101
:10422400545320762D494E56203E4551505400207B
:104234002F20002048502000537472656E67746804
:104244003A00446566656E73653A0053706565644B
:104254003A004D616769633A004C766C3A00436FEB
:10426400696E733A00494E56454E544F5259205E7A
:1042740053544154530020613A0020643A0020739F
:104284003A003C5354415453200053656C656374A5
:10429400206974656D20746F206571756970740090
:1042A40053746F726500427579206E65772065716D
:1042B400756970746D656E74004845414C3A2031DF
:1042C40020636F696E00596F75206E656564206E9A
:1042D4006F74206865616C00796F75206C61636B25
:1042E4002074686520636F696E730073656C656321
:1042F4007420736C6F7420696E20696E76656E74B9
:104304006F727900736C6F7420233A20004B6C65D4
:10431400617665720042726F616420536869656CEE
:10432400640057616E64004B6174616E6100497290
:104334006F6E20536865696C64004D616E677573B8
:10434400205374616666002068703A20002048504B
:104354000061747461636B00646566656E64005328
:1043640070656369616C00566963746F7279007477
:10437400616B65203220636F696E7300617320790D
:104384006F7572207072697A65004220746F2072B2
:10439400657475726E20746F206D656E7500596F4B
:1043A400752068617665204661696C6564005468AF
:1043B40065204172656E612050697474696573206B
:1043C400796F75005265737420796F757220776FF9
:1043D400756E647300796F75277665206C6F7374DE
:0C43E400203220636F696E73000D0A0028
:00000001FF
