:100000000C942B0F0C94530F0C94530F0C94530F10
:100010000C94530F0C94530F0C94530F0C94530FD8
:100020000C94530F0C94530F0C94A6150C941816A3
:100030000C94530F0C94530F0C94530F0C94530FB8
:100040000C94530F0C94530F0C94530F0C94530FA8
:100050000C94530F0C94530F0C94530F0C944110A9
:100060000C94530F0C94530F0C94530F0C94530F88
:100070000C94530F0C94530F0C94530F0C94530F78
:100080000C94530F0C94530F0C94530F0C94530F68
:100090000C94530F0C94530F0C94530F0C94530F58
:1000A0000C94530F0C94530F0C94530F0C203720C7
:1000B000ED20DE2124262D226324FB254D61676E71
:1000C000757320526F640049726F6E536865696C76
:1000D00064004B6174616E610057616E640042722E
:1000E0006F616420536865696C64004B6C65617670
:1000F000657200537461666600536865696C6400DC
:1001000053776F726400456D707479004D61676E4E
:10011000757320526F640049726F6E536865696C25
:1001200064004B6174616E610057616E64004272DD
:100130006F616420536865696C64004B6C6561761F
:10014000657200537461666600536865696C64008B
:1001500053776F726400456D707479000080B0D879
:10016000F898B863C6BA7CEECCCFCCEE7CBA46C366
:1001700000F1FF0FF10F0102073FFEACB591B5ACE6
:10018000FE3F87FF000103060D0600000E0F03026D
:10019000000C0002030F0F014D6173746572007053
:1001A000C070C13204CAF498B4EAB498F4CA24C244
:1001B00071C070000C172DEAF4744D6FACD5ACAF64
:1001C0004D7462970B05000000000C060B0B080F26
:1001D0000D00000D0F0F080B0A060C4F677265002B
:1001E00020B8FEF4500067FA6C1C6CF86C07020033
:1001F0000000000001181F3830186CBEDD87DDBE1E
:10020000663C183870E0000000000000000E030E8D
:100210000103010E070E00000103010054726F6C10
:100220006C00536C696D6500000000E00E9438743A
:10023000ECC0EC7438940EE0000000009CE638A39B
:10024000C695AA6F2B292B6FAA95C6A338E69C00EA
:100250000F0F0F0301040404060006040404010345
:100260000F0F0F004F7263000F30434C90F8BCA685
:10027000663E3E66A6BCF8904C43300F7804F21AF6
:100280000A05BB5E9A7F7F9A5EBB050A1AF2047864
:1002900000010000060F0A0903010103090A0F0605
:1002A00000000100537069646572005761726C6FE1
:1002B000636B0054616E6B004B6E6967687400730A
:1002C0006C6F7420233A200053656C656374206959
:1002D0006E7620736C6F7400636F696E73003A0002
:1002E0004865726527732077686174207965206797
:1002F0006F7400596520706F74696F6E206261675A
:100300002069732066756C0079652073686F72745C
:10031000206F6E20636F696E0042757920612050F6
:100320006F74696F6E3F203320436F696E00596FA1
:1003300075206E656564206E6F74206865616C0061
:100340004845414C3A203120636F696E004275790F
:10035000206E6577206571756970746D656E7400C7
:1003600000F20C1202020202028242820202020225
:1003700002020202020202028202020202020202DD
:10038000020202020262E29A8A8A0A2A2A2A9A9AB5
:10039000DADADA8A0A8ACACACACACACACACA9A19AE
:1003A0001A99DADADACA8A2A2A6A4A8ACA9ADADA0E
:1003B000DACA8A2A2A6A6AAACA8A8A8A8AAAEAAA0D
:1003C0003A1A1A1A1A9A0AEA5A1A0202020202027D
:1003D000020202020202020202020202120CF200F5
:1003E00000FF000000000000FEFD0201FE00000012
:1003F000000000000000E0FE1F0000000000000000
:100400000060E5F73D232120A0B11111000F1F1F4F
:10041000B9F9F9F004044D6901FFFFFF0101007E05
:10042000FF7E81A989817EFF7E0000FFFFF61939DA
:1004300079F9D68F46484801FFFF39391101414803
:1004400048181111D9380F0C0C00000000E0F0B072
:10045000B0B8B81818B8B8B0B0F0E0000000FF00AD
:1004600000FF000000000000FFFF0000FF00000090
:1004700000000000000302070C74887800000000F0
:10048000060E0786363E32242425252520212323E7
:1004900033B3313030323232202123212829292A26
:1004A0002839333333333124A4ACA0A3272330328B
:1004B00030313337323828232733333333B33722BD
:1004C0002828392F010300000000000000030F3B23
:1004D000766C7FF0F07F6C763B0F03000000FF002E
:1004E00000FF0000000040407FDF40C07F40400030
:1004F0000000000000002078F46E030000000000FF
:1005000000000000010265FACC5AF55ACCFA6502E7
:1005100001000000000067FA6C1C6CF86C07020018
:10052000000000FC02EDB53B5A3232523BB5ED0201
:10053000FC00000000000000FC8212127111711218
:100540001282FC00000000000000000080C87070F3
:10055000B02840C040000000000000000000FF0084
:1005600000FF000000808080908FB58F9080808099
:10057000808080808080808FBF8F8080808080801E
:100580008080808080808080818282828180808063
:100590008080808080808080818181808080808058
:1005A000808080878A94999999999991919190885E
:1005B000878080808080808080818386888E888606
:1005C0008381808080808080888C86838180808009
:1005D0008186828180808080808000000000FF0012
:1005E00000FF00FC0300000000000000000000000D
:1005F00000000000000000000000000000000000FB
:1006000000000000000000000000000000000000EA
:1006100000000000000000000000000000000000DA
:1006200000000000000000000000000000000000CA
:1006300000000000000000000000000000000000BA
:1006400000000000000000000000000000000000AA
:100650000000000000000000000001827C00FF009C
:1006600000F70C0A090A0A0A0A0A0A0A0A0A0A0A06
:100670000A0A0A0A0A0A0A0A0A0A0A0A0A0A0A0ADA
:100680000A0A0A0A0A0A0A0A0A0A0A0A0A0A0A0ACA
:100690000A0A0A0A0A0A0A0A0A0A0A0A0A0A0A0ABA
:1006A0000A0A0A0A0A0A0A0A0A0A0A0A0A0A0A0AAA
:1006B0000A0A0A0A0A0A0A0A0A0A0A0A0A0A0A0A9A
:1006C0000A0A0A0A0A0A0A0A0A0A0A0A0A0A0A0A8A
:1006D0000A0A0A0A0A0A0A0A0A0A09080808F7009E
:1006E000004F304840404040404040404040404043
:1006F00040404040404040404040404040404040FA
:1007000040404040404040404040404040404040E9
:100710004040404040404040404040404040408099
:100720004080404040404040404040404040404089
:1007300040404040404040404040404040404040B9
:1007400040404040404040404040404040404040A9
:1007500040404040404040404040404048304F00D2
:1007600020733A0020643A0020613A003048B5CB4B
:1007700083854830436F696E733A0020004C766C75
:100780003A004D616769633A0053706565643A00E9
:10079000446566656E73653A00000000000000065F
:1007A0000100000100000000000001000000000145
:1007B000000000F9000000000000000100F300004C
:1007C00000050002000000EB000A00020005000026
:1007D00000DE001400000002000500D9001E000722
:1007E0000005000300D2002800050007000300C731
:1007F000003200030005000700BC003C0053747287
:10080000656E6774683A002048502000494E56458E
:100810004E544F5259205E5354415453000000002F
:10082000000000560100000100000000005001001F
:10083000000000010000004901000000000000016C
:1008400000430100000500020000003B010A000215
:1008500000050000002E0114000000020005002920
:10086000011E000700050003002201280005000703
:10087000000300170132000300050007000C013CD3
:100880000053656C656374206974656D20746F2016
:10089000657175697074003C535441545320005382
:1008A0005441545320762D494E56203E45515054C4
:1008B00000B802080805040001B51DB3020A0407C8
:1008C000020202741DAB02080102080803331DA4D2
:1008D0000205070408010068026402070806010314
:1008E0000A280222021C080A060800F91D1C02142C
:1008F0000F0A07080AE001DB0114140F0500009F2E
:10090000019801140F0F0A0A005C013E003E003EF0
:10091000003E003E0053746F72650046696768745C
:10092000204172656E6120426F737300526573657A
:100930007400426174746C650053746174730000D8
:10094000F20C12020202020202020202020202027D
:100950000202020202020202020202020202020277
:1009600002020202020202020202020202FA06026B
:100970000202020202020202020202020202050254
:100980000502020202020202020202020202020244
:100990000202020202020202020202020202020237
:1009A0000202020202020202020202020202020227
:1009B0000202020202020202020202120CF2000011
:1009C000FF00000000000000000000000000000028
:1009D0000000000000000000000000000000000017
:1009E000000000000000000000000000000F1020C8
:1009F00020202020202020202020202020202020F7
:100A000020202020202020202020202020202020E6
:100A100020202020202020202020202020202020D6
:100A200020202020202020202020202020202020C6
:100A300020202020202020202020202010FF000027
:100A4000FF000000000000000000000000000000A7
:100A50000000000000000000000000000000000096
:100A60000000000000000000000000000000000086
:100A70000000000000000000000000000000000076
:100A80000000000000000000000000000000000066
:100A90000000000000000000000000000000000056
:100AA0000000000000000000000000000000000046
:100AB00000000000000000000000000000FF000037
:100AC000FF00000000000000000000000000000027
:100AD0000000000000000000000000000000000016
:100AE0000000000000000000000000000000000006
:100AF00000000000000000000000000000000000F6
:100B000000000000000000000000000000000000E5
:100B100000000000000000000000000000000000D5
:100B200000000000000000000000000000000000C5
:100B300000000000000000000000000000FF0000B6
:100B4000FE010000000000000000000000000000A6
:100B50000000000000000000000000000000000095
:100B60000000000000000000000000000000000085
:100B70000000000000000000000000000000000075
:100B80000000000000000000000000000000000065
:100B90000000000000000000000000000000000055
:100BA0000000000000000000000000000000000045
:100BB00000000000000000000000000001FE000036
:100BC000FF00000000000000000000000000000026
:100BD0000000000000000000000000000000000015
:100BE0000000000000000000000000000000000005
:100BF00000000000000000000000000000000000F5
:100C000000000000000000000000000000000000E4
:100C100000000000000000000000000000000000D4
:100C200000000000000000000000000000000000C4
:100C300000000000000000000000000000FF0000B5
:100C4000FF000000000000000000000000000000A5
:100C50000000000000000000000000000000000094
:100C60000000000000000000000000000000000084
:100C70000000000000000000000000000000000074
:100C80000000000000000000000000000000000064
:100C90000000000000000000000000000000000054
:100CA0000000000000000000000000000000000044
:100CB00000000000000000000000000000FF000035
:100CC0004F3048404040404040404040404040401D
:100CD0004040404040404040404040404040404014
:100CE0004040404040404040404040404040404004
:100CF0004040404040404040404040404040A04094
:100D0000A040404040404040404040404040404083
:100D100040404040404040404040404040404040D3
:100D200040404040404040404040404040404040C3
:100D3000404040404040404040404048304F0041EB
:100D400072656E61204D6173746572004A6F7572D1
:100D50006E65796D616E004172656E6120526F6FD4
:100D60006B6965004661737420616E642066726110
:100D7000696C004D61676500486967682048656176
:100D80006C7468202620446566656E736500546146
:100D90006E6B005374726F6E672041747461636B85
:100DA0000057617272696F72000A005069636B20AC
:100DB000796F757220636C6173732E0048697420BB
:100DC0006220746F20737461727400000000000070
:100DD0000000000000000000000000000000000013
:100DE0000000000000000000000000000000000003
:100DF00000000000000000000000000000000000F3
:100E000000000000000000000000000000000000E2
:100E100000000000000000000000000000000000D2
:100E200000000000000000000000000000000000C2
:100E300000000000000000000000000000000000B2
:100E400000000000000000000000000000000000A2
:100E5000000000000000000008183870F0F0E0E02A
:100E6000E0F0F0F0E0E0E0606060607070F0F0F002
:100E7000F0F0F07010000000000000000000000022
:100E80000000000000000000000000000000000062
:100E90000000000000000000000000000000000052
:100EA0000000000000000000000000000000000042
:100EB0000000000000000000000000000000000032
:100EC00000000000000000000000001C1C1C1C1C96
:100ED0001C1C1C1C1C1C1C1C1C1C0000C1FFFFFF3C
:100EE000FFC78301000000000000000000000101B6
:100EF00000000080E0F0E0C000000030F0F0F07092
:100F000078787838181818383838381010000000F9
:100F100008081CFCF8F000000000000000000000C1
:100F2000C0F0F87830000010383838383870F0F0F9
:100F3000F0F0707878787070702000000000000089
:100F400000000000000000000000001C1C1C1C1C15
:100F50001C1C1C1C1C1C1C00000080FEFFFF3F1FF3
:100F60001F0F0F0F0F0E0E0E0E1E1E1E0E03000083
:100F700080E0FCFFFF3F0F000000FEFF8701000044
:100F800000000000207070E0E0E0E02020000000A1
:100F900000C0FEFF7F3D1C1C1C1C183878F8FCFFAD
:100FA000FF1F01000000000000000080E0F8FFFFCC
:100FB0007F0700E0E0E7E7E7E7E7E7E7E7E7E7E7FE
:100FC000E7E7E7E7E7E7E7E7E7E7E70707C7C7C7D1
:100FD0008707070707272030383E3F3F1F070000DD
:100FE0000070F0F0E0C08000002020202030383E6B
:100FF0003F3F3F1F03000000000021272F3E3C3CE5
:101000003C38383838383C1E0F0701002020383C67
:101010001F0F030000000040404070783C3F1F0756
:10102000000000000040404060783E3F1F07030082
:1010300000003838383838383838383838383838A0
:10104000383838383838383838383800000103072D
:101050000F0F0E0E0E0E0E0E0E0E0E0E0E0E0E0EAE
:101060000E0ECEEFFFFF7F1F1E1E1E3E3E3E3E3E7B
:101070003E3E7E7E7E7E7E7E7E7EFEFEFEFEFEFC12
:10108000FCFCFCFCFCF8F8F8F8F8F8F8F8F8F8F8CC
:10109000F0F0F0F0F0F0F0F0F0F0F0F0E0E0E0E090
:1010A000E0E0E0E0E0F0F0F0F0F0F0F0F8F8F8F870
:1010B000F8F8F8F87C7C7C3C3C3C1C1E1E0E0E00B4
:1010C0000000000000000000000000301C1E1E0F89
:1010D0000F0F0F0F1E3E3C3030303038181C1C1CD8
:1010E0001C3C79F9F1C0C0E0E0E0F07038383838E5
:1010F0003870F0E0C0C0E0E0E0E0E0604040E04098
:10110000C0C1C1C1C1C18181010303030303030342
:10111000030303070707078787C7C7C7C7CF8F8F93
:101120000F0F0F0F0F0F0F07070703030381C1C135
:10113000C0E0E0E0E0E0C0C080C0E0F8FCFCFEFE03
:10114000FE7E3E1C1C1810103060E00E0703070FD7
:101150000F0E0C08081818181C3E3E1E1E1E1C18E8
:1011600018181810232120004040607038381818D3
:1011700038306061E1E1F1713371F0E0C0C0E0F05E
:1011800070313171E1C181C3C7CCCCC4860606067B
:101190000E1E3F8FC7C3C1C1C1810103070F3F1F8F
:1011A0000F040686C6C6CEDCD89C0C0EC7E3F170D1
:1011B0003070F1E3C7DFE7F37131303060C0E1F345
:1011C000703030383C3E3E1E1E0E0CD5F08D14A102
:1011D000C881CFD9F1AF20003048B5CB83854830E6
:1011E0006C766C3A004850002F0000F20C1202029C
:1011F00002020202020202020202020202020202CF
:1012000002020202020202020202020202020202BE
:1012100002020202020202020202020202020202AE
:101220000202020202020202120DF20D1202020278
:10123000020202020202020202020202020202028E
:1012400002020202020202020202FE020202020282
:10125000020202020202020202020202020202026E
:10126000020202020202120CF20000FF0000000063
:10127000000000000000000000000000000000006E
:10128000000000000000000000000000000000005E
:10129000000000000000000000000000000000004E
:1012A00000000000000000000000FF00000000003F
:1012B000000000000000000000000000000000002E
:1012C00000000000000000000000FF00000000001F
:1012D000000000000000000000000000000000000E
:1012E0000000000000000000FF0000FF0000000000
:1012F00000000000000000000000000000000000EE
:1013000000000000000000000000000000000000DD
:1013100000000000000000000000000000000000CD
:1013200000000000000000000000FF0000000000BE
:1013300000000000000000000000000000000000AD
:1013400000000000000000000000FF00000000009E
:10135000000000000000000000000000000000008D
:101360000000000000000000FF0000FF000000007F
:10137000000000000000000000000000000000006D
:10138000000000000000000000000000000000005D
:10139000000000000000000000000000000000004D
:1013A00000000000000000000000FF00000000003E
:1013B000000000000000000000000000000000002D
:1013C000000000000000000020C03FC0200000001E
:1013D000000000000000000000000000000000000D
:1013E0000000000000000000FF0000FF00000000FF
:1013F00000000000000000000000000000000000ED
:1014000000000000000000000000000000000000DC
:1014100000000000000000000000000000000000CC
:1014200000000000000000000000FF0101010101B8
:10143000010101010101010101010101010101019C
:10144000010101010101010101020102010101018A
:10145000010101010101010101010101010101017C
:101460000101010101010101FF0000FF0000000076
:10147000000000000000000000000000000000006C
:10148000000000000000000000000000000000005C
:10149000000000000000000000000000000000004C
:1014A00000000000000000000000FF00000000003D
:1014B000000000000000000000000000000000002C
:1014C000000000000000000000000000000000001C
:1014D000000000000000000000000000000000000C
:1014E0000000000000000000FF0000FF00000000FE
:1014F00000000000000000000000000000000000EC
:1015000000000000000000000000000000000000DB
:1015100000000000000000000000000000000000CB
:1015200000000000000000000000FF0000000000BC
:1015300000000000000000000000000000000000AB
:10154000000000000000000000000000000000009B
:10155000000000000000000000000000000000008B
:101560000000000000000000FF00004F3048404035
:10157000404040404040404040404040404040406B
:10158000404040404040404040404040404040405B
:10159000404040404040404040404040404040404B
:1015A000404040404040404048B04FB0484040403C
:1015B000404040404040404040404040404040402B
:1015C000404040404040404040404040404040401B
:1015D000404040404040404040404040404040400B
:1015E00040404040404048304F0001020408102075
:1015F000408000000000003E5B4F5B3E3E6B4F6B47
:101600003E1C3E7C3E1C183C7E3C181C577D571CE3
:101610001C5E7F5E1C00183C1800FFE7C3E7FF005C
:1016200018241800FFE7DBE7FF30483A060E2629AA
:10163000792926407F050507407F05253F5A3CE76D
:101640003C5A7F3E1C1C08081C1C3E7F14227F2233
:10165000145F5F005F5F06097F017F006689956AFE
:10166000606060606094A2FFA29408047E04081089
:10167000207E201008082A1C08081C2A08081E10B2
:101680001010100C1E0C1E0C30383E3830060E3E6A
:101690000E06000000000000005F000000070007C9
:1016A00000147F147F14242A7F2A122313086462F3
:1016B00036495620500008070300001C2241000054
:1016C00041221C002A1C7F1C2A08083E08080080B2
:1016D000703000080808080800006060002010084A
:1016E00004023E5149453E00427F4000724949494B
:1016F000462141494D331814127F1027454545397D
:101700003C4A494931412111090736494949364680
:101710004949291E00001400000040340000000860
:101720001422411414141414004122140802015903
:1017300009063E415D594E7C1211127C7F49494990
:10174000363E414141227F4141413E7F4949494125
:101750007F090909013E414151737F0808087F0054
:10176000417F41002040413F017F081422417F40DA
:101770004040407F021C027F7F0408107F3E4141B1
:10178000413E7F090909063E4151215E7F09192921
:1017900046264949493203017F01033F4040403F0B
:1017A0001F2040201F3F4038403F6314081463034C
:1017B000047804036159494D43007F4141410204CB
:1017C000081020004141417F0402010204404040D2
:1017D0004040000307080020545478407F284444C8
:1017E000383844444428384444287F3854545418E2
:1017F00000087E090218A4A49C787F0804047800DD
:10180000447D40002040403D007F102844000041BE
:101810007F40007C047804787C08040478384444D1
:101820004438FC1824241818242418FC7C080404C8
:1018300008485454542404043F44243C4040207C31
:101840001C2040201C3C4030403C44281028444C84
:101850009090907C4464544C440008364100000051
:10186000770000004136080002010204023C2623F2
:10187000263C1EA1A161123A4040207A38545455AA
:101880005921555579412154547841215554784076
:1018900020545579400C1E527212395555555939FC
:1018A0005454545939555454580000457C41000251
:1018B000457D420001457C40F0292429F0F028258F
:1018C00028F07C545545002054547C547C0A097FF0
:1018D0004932494949323248484832324A48483008
:1018E0003A4141217A3A42402078009DA0A07D39BA
:1018F000444444393D4040403D3C24FF2424487E3C
:101900004943662B2FFC2F2BFF0929F620C0887E28
:10191000090320545479410000447D413048484A2D
:1019200032384040227A007A0A0A727D0D19317DE0
:101930002629292F28262929292630484D402038B4
:101940000808080808080808382F10C8ACBA2F1073
:101950002834FA00007B000008142A142222142ADA
:1019600014089500220095AA005500AAAA55AA5568
:10197000AA000000FF00101010FF00141414FF0054
:101980001010FF00FF1010F010F0141414FC0014DD
:1019900014F700FF0000FF00FF1414F404FC1414FB
:1019A00017101F10101F101F1414141F00101010F8
:1019B000F0000000001F101010101F10101010F089
:1019C00010000000FF101010101010101010FF1069
:1019D000000000FF140000FF00FF00001F101700B0
:1019E00000FC04F414141710171414F404F4000089
:1019F000FF00F714141414141414F700F71414143B
:101A0000171410101F101F141414F4141010F010D9
:101A1000F000001F101F0000001F14000000FC1445
:101A20000000F010F01010FF10FF141414FF141039
:101A300010101F00000000F010FFFFFFFFFFF0F08C
:101A4000F0F0F0FFFFFF0000000000FFFF0F0F0F9E
:101A50000F0F38444438447C2A2A3E147E02020682
:101A600006027E027E0263554941633844443C04C9
:101A7000407E201E2006027E020299A5E7A5991C41
:101A80002A492A1C4C7201724C304A4D4D30304864
:101A9000784830BC625A463D3E494949007E0101C2
:101AA000017E2A2A2A2A2A44445F444440514A4457
:101AB0004040444A51400000FF0103E080FF000025
:101AC00008086B6B083612362436060F090F06001D
:101AD0000018180000001010003040FF0101001F26
:101AE00001011E00191D1712003C3C3C3C00000087
:101AF0000000080B000202020100090400000102BC
:101B00000200000524001001052401010104240243
:101B100006052406000107058103100040090401A1
:101B200000020A00000007050202400000070583CA
:101B3000024000000403090412010002EF02014008
:101B40004123368000010102030141726475696E10
:101B50006F204C4C430041726475626F7900796F5D
:101B600075277665206C6F7374203220636F696E01
:101B700073005265737420796F757220776F756E7C
:101B8000647300546865204172656E612050697409
:101B90007469657320796F75004220746F207265D7
:101BA0007475726E20746F206D656E7500596F7557
:101BB0002068617665204661696C65640042207426
:101BC0006F2072657475726E20746F206D656E750E
:101BD00000617320796F7572207072697A65007484
:101BE000616B65203220636F696E730056696374A0
:101BF0006F7279004D6167696300757365642000D9
:101C0000546865206D6F620041747461636B656434
:101C100000546865206D6F6200446566656E64659A
:101C20006400546865206D6F6200636F6E74696E46
:101C3000756500506F74696F6E004D616769630070
:101C4000446566656E640041747461636B000000F6
:101C500080C0C0E0E0E07070F8787070F070100044
:101C60000000000000000000000000000000000074
:101C7000000000001070F07070F070F0F0F0E0E024
:101C8000C0C0808080801EFF0303FFFFFF000000B4
:101C9000FF000000FF000000000000000000000046
:101CA0000000000000000000000000000000FF0035
:101CB00000FF0000FFFFFF0101FF0303FF07807F1C
:101CC00040404F3FAFA050505F50E8E8EFE8E88059
:101CD0008080808080808080808080808080808004
:101CE000808080E8E8E8CFE8E8EFD0D0DFDFAFA081
:101CF000407F4080FF003EBFFEF4F5B3B3BBB9990F
:101D0000ABABABAFBF7D7571535DDDDDDDD9DBD630
:101D1000F77B77BBB7B7B59D949C9C9C3C7F6F6F5E
:101D20005D797D7D7D3DB9F7EFEFEDDCBE7D6870BF
:101D30003A2000000080000000001050DCFE191066
:101D4000000000000000000001FE0978381818F8B3
:101D5000FBFFF8F00000000000000000000F000092
:101D60000000000F0F0F0F0F0E0C08080000004DB1
:101D7000616765000000066BF4F87C7CBC7C7CBC71
:101D80007C7CF8F46B06000078A414FC14ABFFFE16
:101D9000EED6AED6EEFFFB2438F0E00000000101E5
:101DA000010F0B050B0D0F0B050B0F00070F0F0796
:101DB00054616E6B0000FC02F9FE000000E0B0B858
:101DC000F8EC0000000000000004073C1F37341846
:101DD000B8EDF7BFE7FDB818F0E000000000000024
:101DE00000000C0F0F03010101030F0C080000009D
:101DF0000057617272696F7200F00C8262F1D969EA
:101E000075B56565A57569D9F162820CF007C833AF
:101E1000889C252B4A525252524A2B259C8833C803
:101E200007000304080B08090A0A0A0A0A0A090833
:101E30000B08040300F11D0D0D06060201B51DB0CF
:101E40001D14050A020302741D6F1D080503020C10
:101E500003331D00612711241FBECFEFDAE0DEBF80
:101E6000CDBF11E0A0E0B1E0EEE8F5E502C00590DD
:101E70000D92AE36B107D9F726E0AEE6B1E001C06B
:101E80001D92A932B207E1F71FE0CBE2DFE004C008
:101E90002197FE010E94A62ACA32D107C9F70E94E3
:101EA000C51E0C94C52A0C940000CF92DF92EF92CD
:101EB000FF920F931F93CF93DF936C017A018B01F5
:101EC000C0E0D0E0CE15DF0589F0D8016D918D011D
:101ED000D601ED91FC910190F081E02DC6010995AC
:101EE000892B11F47E0102C02196ECCFC701DF914E
:101EF000CF911F910F91FF90EF90DF90CF900895B9
:101F00003FB7F8948091760190917701A091780184
:101F1000B091790126B5A89B05C02F3F19F0019615
:101F2000A11DB11D3FBFBA2FA92F982F8827820F5F
:101F3000911DA11DB11DBC01CD0142E0660F771FAF
:101F4000881F991F4A95D1F708950895089580E054
:101F500090E00895EF92FF920F931F93CF93DF933A
:101F600000D000D000D0CDB7DEB7DC016D837E831A
:101F7000ED81FE813396E590F49050E01496ED915A
:101F8000FC91159734966591749112962C91129745
:101F900030E0E49EC001E59E900D11249595879553
:101FA00095958795480F591F56954795629FC00193
:101FB000639F900D11249595879595958795280F8A
:101FC000391F36952795421B530B401B510B8D91A2
:101FD0009C911197141615061CF4841B950B01C0D7
:101FE00001978D939C9326960FB6F894DEBF0FBE93
:101FF000CDBFDF91CF911F910F91FF90EF9008958A
:102000000E94C02A8F929F92AF92BF92CF92DF928E
:10201000EF92FF926B017C010E94800F4B015C01EB
:10202000C114D104E104F104F1F00E94800FDC013D
:10203000CB0188199909AA09BB09883E9340A105DB
:10204000B10570F321E0C21AD108E108F10888EE69
:10205000880E83E0981EA11CB11CC114D104E104B8
:10206000F10419F7DDCFFF90EF90DF90CF90BF9094
:10207000AF909F908F900895BC0180E090E00C9409
:1020800002101F920F920FB60F9211242F933F93BD
:102090008F939F93AF93BF9380916E0190916F0147
:1020A000A0917001B09171013091750123E0230F6F
:1020B0002D3720F40196A11DB11D05C026E8230F80
:1020C0000296A11DB11D2093750180936E0190931E
:1020D0006F01A0937001B09371018091760190918E
:1020E0007701A0917801B09179010196A11DB11DF0
:1020F0008093760190937701A0937801B093790152
:10210000BF91AF919F918F913F912F910F900FBEF3
:102110000F901F9018958FB12CB193B130E020959E
:10212000309520743327A90123E0559547952A95CA
:10213000E1F7292F30E02095309520713327359530
:10214000279535952795242B8095807F822B0895A0
:1021500060387105D0F440345105B8F4EAEEF5E189
:1021600080E1849FD001A0781124A60F4770E40F6E
:10217000F11D8491AD55BE4F222319F06C91862B31
:1021800003C080956C9186238C9308952F923F9283
:102190004F925F926F927F928F929F92AF92BF9277
:1021A000CF92DF92EF92FF920F931F93CF93DF9323
:1021B000CDB7DEB729970FB6F894DEBF0FBECDBFFF
:1021C000FC016A3069F4248D808D918D38E0239F65
:1021D000800D911D1124918F808F178A168AAAC0B5
:1021E0006D3009F4A7C099878887F48C338C228CD2
:1021F000608C718C0689178900381105C4F0A88598
:10220000B9855C962C915C97422F50E056968D9143
:102210009C915797B6E02B9F800D911D1124E88566
:10222000F985978B868B258D21116EC083C0F0E4D4
:102230006F16710424F7C80125E0F29E800D911DF0
:10224000112418161906DCF68F2D90E09C838B83E1
:10225000C301A8E0FA9E800D911D112418161906DD
:1022600074F6B5E06B9FB0011124FB01EE50FA4EFD
:10227000FA83E98330E08885998504969E838D836F
:10228000E981FA81E490353009F4E12C430188E0DA
:10229000482EE0FC02C0532C01C0522C51100BC040
:1022A000321009C0E6944A948B819C81880E991E55
:1022B0004110EFCF1BC068018C2D801B8F1590F74C
:1022C00054018A2D88198F1568F4252DA501B601B2
:1022D0008D819E813F830E94A8109FEFA91AB90AA1
:1022E0003F81EFCFAFEFCA1ADA0AE6CF3F5FEB814B
:1022F000FC810E0F1F1F89819A8101969A83898321
:10230000363009F0BDCF7BCF6AEF64039001659F43
:10231000300D112420583F4F281739075CF4A88549
:10232000B985ED91FC9111970190F081E02D6AE063
:10233000CD01099581E090E029960FB6F894DEBFB3
:102340000FBECDBFDF91CF911F910F91FF90EF9006
:10235000DF90CF90BF90AF909F908F907F906F90C5
:102360005F904F903F902F900895DC0181E012968E
:102370008C93129785E090E017969C938E93169716
:1023800051961C9251971F961C921E921E9715965D
:102390007C936E931497FB013296859194919927C3
:1023A0009595879595958795019611969C938E9313
:1023B000695F7F4FFB018591949118968C931897D4
:1023C0001A961C921A971B961C921B971C961C928D
:1023D0001C971D961C921D97FB018591949119964F
:1023E0008C9308950F9300E420E84AEE51E160E0F9
:1023F00070E080E090E00E94611C0F9108950F93BF
:10240000CF93DF9383E490E09093D2058093D1053E
:1024100084E290E09093D4058093D3058091A90540
:102420009091AA050E94801E88EE91E10E94401CB6
:10243000E091AD05F091AE053296259134918091F1
:10244000AB0590E0289FB001299F700D1124759570
:10245000679575956795680F791F80E090E04AE071
:102460000E94181E85EE91E10E94401CE091AD058E
:10247000F091AE0538964591549104E124E166E06F
:1024800070E084E690E00E94611C1092D2051092E8
:10249000D105C2E3D0E0D093D405C093D30520E3A7
:1024A00030E04AE750E060E370E083E490E00E94AF
:1024B000931D2AE330E04AE750E06AE370E083E4EA
:1024C00090E00E94931D2AE330E043E450E060E393
:1024D00070E083E490E00E94931D2AE330E04AE735
:1024E00050E060E370E08AE790E00E94931D82E490
:1024F00090E09093D2058093D10586E090E0909390
:10250000D4058093D30580EE91E10E94401C88E5BC
:1025100090E09093D2058093D1058DE090E0909368
:10252000D4058093D3056091A50570E080E090E02C
:102530004AE00E94181E86E490E09093D2058093B2
:10254000D105D093D405C093D3058091BA058130CD
:1025500049F408E028E048ED51E167E170E086E4E5
:1025600090E013C0823099F408E028E048ED51E192
:1025700067E170E086E490E00E94611C28E048ED8D
:1025800051E167E170E080E590E00E94611CDF911D
:10259000CF910F91089521E030E04BE750E061E0EA
:1025A00070E083E090E00E94931D2EE330E04BE763
:1025B00050E06EE370E083E090E00E94931D2CE316
:1025C00030E041E050E064E070E081E090E00E94A3
:1025D000931D2CE330E04EE750E064E070E08EE7BE
:1025E00090E00E94931D21E030E041E050E064E083
:1025F00070E083E090E00E94931D21E030E04EE720
:1026000050E064E070E08CE790E00E94931D2EE3C0
:1026100030E04EE750E06CE370E08CE790E00E9421
:10262000931D2EE330E041E050E06CE370E083E086
:1026300090E00C94931D0F931F93CF93DF93DC01D5
:10264000EB014115510581F5CB012130310599F49C
:10265000EC81FD813496459154912A8130E0429F6E
:102660008001439F100D1124159507951595079529
:10267000020F131F04C0232BA1F400E010E02C91E3
:1026800011963C91119712964C91129713965C916A
:10269000139714966C91149715967C910E94AA0F2B
:1026A0003EC002E010E0EBCF4330510509F037C0E7
:1026B0001496ED91FC911597369685919491FC01B5
:1026C000459154912A8130E0EC81FD8136966591E7
:1026D0007491429FC001439F900D11249595879559
:1026E00095958795820F931F96958795629FA00178
:1026F000639F500D11245595479555954795240F87
:10270000351F36952795821B930B181619063CF436
:1027100028813981F901E81BF90BF983E883DF91FE
:10272000CF911F910F9108950F931F93CF93DF9334
:1027300081EC80937C0085B1806F85B9249884B149
:10274000866E84B95E9A5F988AB1806D8AB9769AEE
:102750006E9881B3806F81BB899880B38D7080BB88
:1027600080E58CBD81E08DBD85E090E00E943C104D
:102770005F9A85E090E00E943C105E985C98EBECDC
:10278000F1E18DE08E0F94919EBD00000DB407FE27
:10279000FDCF31968E13F7CF5C9A81E88093640069
:1027A00081E08093650081E28093C605809164009A
:1027B0008E7F8093640080917A00806480937A0099
:1027C00080917A0086FDFCCFC0917800D09179008D
:1027D0000E94800F8E0120E030E098011127002731
:1027E000600F711F821F931F61157105810591058F
:1027F00011F00E94802880916400816080936400C1
:102800001092880110928701DF91CF911F910F9153
:102810000C94601DCF93DF931F92CDB7DEB7698311
:10282000DC01ED91FC910280F381E02D41E050E06C
:10283000BE016F5F7F4F09950F90DF91CF91089593
:1028400083E08093E9008091F200882319F08AE305
:102850008093E8000895FC018485958597FD0BC061
:102860009FB7F89482E08093E9008091F2009FBFC7
:1028700090E0019608959FB7F89482E08093E90074
:102880008091F2009FBF90E008958F929F92AF9247
:10289000BF92CF92DF92EF92FF920F931F93CF934D
:1028A000DF935C016B017A0180910B01882309F4AD
:1028B0005BC080918301882309F456C08091800118
:1028C00080FF05C08091E00082608093E000E70116
:1028D00010E00AEF83E0882E9AE3992E2097D9F131
:1028E0000E94101C81110AC0015009F43DC061E032
:1028F00070E080E090E00E940210F0CF282F30E0DE
:10290000C217D3070CF48C2F4FB7F8948092E900CC
:102910009091E80095FF1DC0282F30E0C21BD30B1B
:10292000F601982F915020F081918093F100FACF19
:10293000C20ED31E112319F09092E80009C08091B5
:10294000E80085FD06C09092E80011E0209709F0AC
:1029500010E04FBFC3CF1111C3CF5D9884E68093C1
:1029600081011E141F0444F081E090E0F50193837F
:10297000828380E090E001C0C701DF91CF911F9179
:102980000F91FF90EF90DF90CF90BF90AF909F900E
:102990008F9008950E94101C90E008950F931F934C
:1029A000CF93DF931F92CDB7DEB78C01FC018485F6
:1029B000958597FF0EC0CE0101960E94E61B0197F8
:1029C00019F4298130E002C02FEF3FEFF80135877D
:1029D0002487F801848595850F90DF91CF911F9111
:1029E0000F910895CF93DF931F92CDB7DEB7FC010F
:1029F0008485958597FD05C02FEF3FEF35872487A8
:102A00000BC0CE0101960E94E61B019719F4898143
:102A100090E002C08FEF9FEF0F90DF91CF9108956C
:102A2000CF92DF92EF92FF920F931F93CF93DF939A
:102A30001F92CDB7DEB7182F062FE42E862F880FF2
:102A40008E5F99830E948A1E83E00E948A1EF12E67
:102A5000C12E9981D92E8C2D8F19801798F4F601EB
:102A6000E7FE02C0849101C080810E948A1E182F57
:102A700080E00E948A1E8123FFEFCF1ADF0A8111B6
:102A8000EACF01C081E00F90DF91CF911F910F91AC
:102A9000FF90EF90DF90CF900895DF92EF92FF923A
:102AA0000F931F93CF93DF93D82E8A017B01E40EFF
:102AB000F51EEB01CE15DF0571F0D7FE03C0FE0158
:102AC000849101C088810E948A1E21968111F2CFD3
:102AD0008FEF9FEF01C0C801DF91CF911F910F9140
:102AE000FF90EF90DF9008950F931F93CF93DF93A4
:102AF0001F92CDB7DEB782E0898342E450E062EFF7
:102B00007AE180E80E944D150E94211CDC0112969A
:102B10000D911C9113970115110569F0D801ED91E4
:102B2000FC910280F381E02DBE016F5F7F4FC801F1
:102B3000099597FF07C089810F90DF91CF911F9171
:102B40000F910895F80100851185E5CF1F920F922E
:102B50000FB60F9211248F939F938091E100909173
:102B6000E100937F9093E10083FF0FC01092E90092
:102B700091E09093EB001092EC0092E39093ED00C3
:102B80001092830198E09093F00082FF20C093E0C0
:102B90009093E9009091F200992319F09AE39093B1
:102BA000E80090918101992339F090918101915031
:102BB00090938101992389F190918201992339F0B1
:102BC00090918201915090938201992341F184FF69
:102BD00010C08091E2008E7E81608093E20080913F
:102BE000E1008F7E8093E100809180018E7E806184
:102BF00011C080FF16C08091E2008E7E80618093BC
:102C0000E2008091E1008E7E8093E100809180015E
:102C10008E7E81608093800104C05D9ACDCF289A1A
:102C2000D6CF9F918F910F900FBE0F901F90189548
:102C30001F920F920FB60F921124CF92DF92EF9254
:102C4000FF920F931F932F933F934F935F936F9335
:102C50007F938F939F93AF93BF93EF93FF93CF9304
:102C6000DF93CDB7DEB76C97DEBFCDBF1092E90022
:102C70008091E80083FFEDC168E0CE0145960E9497
:102C8000B81E82EF8093E8008D8987FF05C0909180
:102C9000E80090FFFCCF03C09EEF9093E800982FD0
:102CA000907609F0C6C09E892F89188D91110CC0AD
:102CB000803829F480917F018093F10002C0109246
:102CC000F1001092F10048C1422F50E0512B913099
:102CD00051F4811141C14130510509F03DC180914C
:102CE0007F018D7F0BC0933061F4811135C141307C
:102CF000510509F031C180917F01826080937F018D
:102D00002BC1953041F48091E80080FFFCCF206812
:102D10002093E30021C1963009F05FC0EB8CFC8C5E
:102D20001092E90010927D0110927C01123091F511
:102D300010927B0110927A010E94741599E0BE01F5
:102D40006F5F7F4FDB01E92F1D92EA95E9F79983C9
:102D50001A8391E09E8390EA98879AEF9987209151
:102D60007C0130917D01275F3F4F3C832B838D8316
:102D70001092E90010927D0110927C01F0927B018B
:102D8000E0927A0149E050E080E00E944D150E94F7
:102D90007415E2C0F0927B01E0927A010E94211C3E
:102DA000DC011296ED90FC901397E114F10409F404
:102DB000C0C0D701ED91FC910480F581E02DBE01EA
:102DC0006B5E7F4FC7010995009719F00CF0C4C0E6
:102DD000C7C0F701E084F184E8CF973009F4C0C0A0
:102DE000983021F481E08093F100B6C0993009F069
:102DF000B3C0837009F0B4C0EBE1F1E081E021E001
:102E000036E39081992361F08093E9002093EB00F1
:102E100091919093EC003093ED008F5F873089F7AC
:102E20008EE78093EA001092EA008F8980938301F5
:102E300093C08B8D9C8D1092E90010927D011092B1
:102E40007C0190937B0180937A01898D811156C01A
:102E50008E899D89913A59F4813209F081C047E009
:102E600050E064E071E080E00E944D1575C0913241
:102E700009F076C0833289F4888D90E0982F8827F6
:102E80002F89822BA0E0B0E0809300019093010194
:102E9000A0930201B09303015FC0803269F4809176
:102EA000E80082FFFCCF67E084E091E00E94B81E5A
:102EB0008BEF8093E80006C0823209F04DC08F8905
:102EC00080930B0180917E01882319F0EEEFFAE0E8
:102ED00002C0E0E0F8E08091040190910501A0912A
:102EE0000601B0910701803B9440A105B10509F0AE
:102EF0007BC080910B0180FF93C076C00E94211C93
:102F0000DC0112960D911C9113970115110541F1E9
:102F1000D801ED91FC910190F081E02DBE016B5E36
:102F20007F4FC8010995811117C0F80100851185EF
:102F3000ECCF113009F44EC0133091F48F898823FF
:102F400009F445C0823081F440E867E086E59BE102
:102F50000E941015882321F08EEF8093E80079C03D
:102F600081E28093EB0075C0813029F440E86BE08A
:102F70008AE49BE1EDCF833099F70E94211CDC01AC
:102F80001296ED90FC9013978E010F5F1F4F680112
:102F9000E114F10479F0D701ED91FC910680F781FD
:102FA000E02DB801C7010995080F111DF701E08454
:102FB000F184EECFD8011C92F60101900020E9F7D0
:102FC0003197BF016C197D0940E0C601C1CF64E3B0
:102FD0007BE102C068E37BE16115710509F2FB0149
:102FE000449150E080E840CF0FB6F894A8958091C6
:102FF0006000886180936000109260000FBEA89509
:10300000EE3F2AE0F20739F08091FE0A9091FF0A24
:1030100091838083A1CF1092FF0A1092FE0A9CCF69
:10302000EE3F8AE0F80731F0808191819093FF0AAA
:103030008093FE0A87E797E7918380839BE088E18E
:103040000FB6F894A895809360000FBE909360002F
:1030500083CF6C960FB6F894DEBF0FBECDBFDF9165
:10306000CF91FF91EF91BF91AF919F918F917F9100
:103070006F915F914F913F912F911F910F91FF9011
:10308000EF90DF90CF900F900FBE0F901F9018958C
:103090000F931F93CF93DF938091A9059091AA0579
:1030A000181619060CF065C28091A3059091A4052D
:1030B000181619060CF0C9C10E94601DC6E0D0E0C8
:1030C000D093D205C093D10584E090E09093D405CD
:1030D0008093D305E091A705F091A805859194917F
:1030E0000E94401CD093D205C093D1058EE090E0A1
:1030F0009093D4058093D3058EE29DE10E94401CFD
:103100006091A3057091A405072E000C880B990B04
:1031100097FF03C00E94591E03C04AE00E94181E78
:1031200086E691E00E94731D00E228E34EE45CE134
:103130006BE170E085E090E00E94611CE091A705E2
:10314000F091A80538964591549104E124E16DE190
:1031500070E086E190E00E94611C0E94F2110E94E2
:10316000FF118091A2018111F2C08091A001909184
:10317000A101009709F069C010929F0180918A0116
:1031800090918B01049724F010928B0110928A0188
:1031900080918A0190918B0197FF06C083E090E0B7
:1031A00090938B0180938A0180918A0190918B0189
:1031B0008130910571F02CF4892B91F487E49CE126
:1031C0000DC08230910541F0039751F483E39CE1F7
:1031D00005C080E49CE102C08AE39CE10E94401C9F
:1031E00088E00E94351C882361F080918901882342
:1031F00009F44DC206C0039721F48091BA058111EC
:103200006DC20E941D2863E070E00E94922A813006
:10321000910579F048F08230910509F0AEC29093A3
:103220009C0180939B010EC010929C0110929B0107
:1032300009C090939C0180939B0190939A01809385
:1032400099019BC281E090E0F8CF019709F095C207
:103250008091990190919A01019709F08EC2E091B5
:10326000AD05F091AE053596A591B4912091AB05D1
:1032700030E0E091A705F091A8053596659174912D
:103280008091A50590E0A29FA001A39F500D11245D
:103290005595479555954795240F351F689FA00173
:1032A000699F500D11245595479555954795840F65
:1032B000951F8217930720F481E08093980102C044
:1032C000109298019091980180919F019923C9F0E3
:1032D000811153C2C0919B01D0919C0100919D012D
:1032E00010919E019E01A80163EA75E089EA95E0CC
:1032F0000E941B139801AE0169EA75E083EA95E02C
:1033000018C081113AC2C0919D01D0919E010091D7
:103310009B0110919C019E01A80169EA75E083EA76
:1033200095E00E941B139801AE0163EA75E089EAFB
:1033300095E00E941B1381E08093890180939F0197
:103340001092A1011092A0018093A20116C28130B7
:1033500009F013C20E94601D0E94F2110E94FF1129
:1033600086E490E09093D2058093D10582E390E0CB
:103370009093D4058093D3058AE29CE10E94401C7F
:10338000C6E0D0E0D093D205C093D10584E090E0B0
:103390009093D4058093D30580919B0190919C01DB
:1033A0008130910589F482E29CE10E94851DD093D1
:1033B000D205C093D1058EE090E09093D405809320
:1033C000D30589E19CE131C0892B89F481E19CE13D
:1033D0000E94851DD093D205C093D1058EE090E068
:1033E0009093D4058093D30588E09CE11EC080E0D3
:1033F0009CE10E94851DD093D205C093D1058EE03B
:1034000090E09093D4058093D3058AEF9BE10E94CE
:10341000851DD093D205C093D10588E190E09093AB
:10342000D4058093D30584EF9BE10E94851D88E03D
:103430000E94351C882309F4A0C180918901811163
:103440009CC181E08093890196C10E94601D0E9409
:10345000CB1284E190E09093D2058093D1059093B4
:10346000D4058093D3058CEE9BE10E94851DCFE0AF
:10347000D0E0D093D205C093D1058EE190E0909337
:10348000D4058093D3058FED9BE10E94851DD093D9
:10349000D205C093D10588E290E09093D405809343
:1034A000D30581ED9BE10E94851D8AE090E0909319
:1034B000D2058093D10582E390E09093D405809368
:1034C000D3058DEB9BE10E94851D84E00E94351C95
:1034D000882309F450C182E090E0909388018093A2
:1034E0008701109286018091AF059091B0050296F8
:1034F0009093B0058093AF058091A5052091B70505
:103500009091B805C22FD92FC80FD11DC80FD11D5A
:10351000D093B805C093B7051091AB05612F70E04B
:1035200080E090E00E9497299B01AC010E94252A2F
:1035300020E030E040E450E40E94252A20E030E022
:1035400040E850E40E94F5280E9461296C177D072D
:1035500018F41F5F1093AB0580918501813009F04D
:103560000AC1809184018F5F80938401109285014C
:1035700002C10E94601D0E94CB12CAE0D0E0D0932D
:10358000D205C093D10584E190E09093D405809357
:10359000D3058DEA9BE10E94851DD093D205C0938F
:1035A000D1058EE190E09093D4058093D30589E90D
:1035B0009BE10E94851D8091AF059091B005D0934D
:1035C000D205C093D105892BC9F488E290E090938D
:1035D000D4058093D30583E89BE10E94851DD09399
:1035E000D205C093D10582E390E09093D4058093F7
:1035F000D30582E79BE10E94851D0AC088E290E026
:103600009093D4058093D3058EE59BE10E94401CE6
:1036100084E00E94351C882309F4ADC082E090E06C
:10362000909388018093870110928601E091AD0507
:10363000F091AE053296459154918091AB0590E0A2
:10364000489F9001499F300D112435952795359558
:103650002795820F931F9093AA058093A9058091C7
:103660008501813011F4109285018091AF05909110
:10367000B0058230910530F002979093B0058093A9
:10368000AF0579C01092B0051092AF0574C081E00B
:103690008093890180918A0190918B0181309105FD
:1036A00029F490939E0180939D010CC08230910576
:1036B00074F4892B09F0A5CD10929E0110929D0102
:1036C00081E090E09093A1018093A0019ACD823097
:1036D000910509F090CD83E090E03AC0815080934D
:1036E000BA054091A9055091AA058091AD05909128
:1036F000AE050296FC01A591B4912091AB0530E096
:10370000A29FB001A39F700D1124759567957595C3
:103710006795620F731F76956795FC0146175707EB
:10372000E0F465917491629FC001639F900D112434
:103730009595879595958795280F391F36952795E7
:10374000240F351F3093AA052093A90584E090E04B
:1037500090939E0180939D01B3CF45915491429FD8
:10376000C001439F900D1124959587959595879558
:10377000280F391FE7CF1092A201DF91CF911F913F
:103780000F910895CF93DF93BC0180E090E04AE071
:103790000E94181EEC0186E691E00E94731D8C0FBA
:1037A0009D1FDF91CF9108958091A3018EBDE4EA22
:1037B000F1E081910DB407FEFDCF8EBD85E0E33AC7
:1037C000F807B9F70DB407FEFDCF0895FC0180910D
:1037D0008301811103C08FEF9FEF08959FB7F89485
:1037E00082E08093E9002091F20030E01216130687
:1037F00014F421E030E02115310559F0289884E6D1
:10380000809382018091F10080838091F20088236F
:1038100019F09FBFC90108958BE68093E800F9CFA6
:103820002FB7F89483E08093E9009091E800892F06
:10383000807295FF04C09091F20080E4891B2FBF35
:1038400008958091900181110DC082E080938C01D8
:1038500084E080938D0110928F0110928E0181E09F
:10386000809390018CE891E008952091C50528236C
:1038700029F49091C405982381E009F480E008952B
:103880000F931F93CF93DF938C01C0E0D0E0F8013A
:10389000EC0FFD1F6491662371F0E091BB05F09180
:1038A000BC050190F081E02D8BEB95E00995892B0B
:1038B00011F02196ECCFCE01DF91CF911F910F91A6
:1038C00008952F923F924F925F926F927F928F92C4
:1038D0009F92AF92BF92CF92DF92EF92FF920F939F
:1038E0001F93CF93DF93CDB7DEB728970FB6F89429
:1038F000DEBF0FBECDBF5A01822E912C9C01280D38
:10390000391D37FDC4C0803891050CF0C0C09B0143
:10391000200F311D37FDBBC0603471050CF0B7C0FE
:10392000AB0177FF04C044275527461B570B477050
:1039300055279B0177FF02C0295F3F4FE3E0359594
:103940002795EA95E1F777FF08C02150310968E033
:1039500070E0DB01A41BB50BAD01602F6695669589
:10396000669570E0077011F06F5F7F4FDB01A20F6B
:10397000B31FBA83A98339017694762C6624779491
:103980006794680E791EE12CF12C00E010E0230111
:10399000B0E84B0E511C68E070E0DB01A41BB50BD6
:1039A000BC83AB8369817A812617370709F46FC01E
:1039B0002830310509F46BC02F3FBFEF3B070CF4F3
:1039C0005BC0B201600F711FDB01AD55BE4FBE83FE
:1039D000AD83D801A60DB71DAD55BE4F6C0160E09B
:1039E00070E0681579050CF047C0E0E8CE16D10408
:1039F00009F442C0D7FC34C02F3FFFEF3F0709F462
:103A000042C0FB01EE0DFF1DEA0DFB1DE491042EEB
:103A100001C0EE0F0A94EAF73C90E329EC934115BC
:103A20005105F1F027303105D9F0FB01EE0DFF1DF6
:103A3000EA0DFB1DE4912E2E312CF1010B8002C00A
:103A4000F595E7950A94E2F7F887EF83ED81FE811B
:103A50003080EF81F885E3291F01ED81FE8120820E
:103A60006F5F7F4FED81FE813196FE83ED83FFEF27
:103A7000CF1ADF0A1196B5CF2F5F3F4F00581F4F67
:103A8000E80CF91C8FCF4115510579F6E9CF28963E
:103A90000FB6F894DEBF0FBECDBFDF91CF911F915F
:103AA0000F91FF90EF90DF90CF90BF90AF909F90DD
:103AB0008F907F906F905F904F903F902F900895E0
:103AC00080E0E3EAF1E081118FEF0024819381939C
:103AD000819381930394D1F7EBEBF5E0118E108E77
:103AE000178A168A0895009769F0FC01019000205A
:103AF000E9F73197AF01481B590BBC018BEB95E0FF
:103B00000C94550F80E090E00895CF93DF930E94CE
:103B1000401CEC0186E691E00E94731D8C0F9D1FF6
:103B2000DF91CF9108955F926F927F928F929F92D3
:103B3000AF92BF92CF92DF92EF92FF920F931F93BB
:103B4000CF93DF93EC018B017A01A901461B570B40
:103B500057FF03C0519541955109C7018C1B9D0B1F
:103B600097FF03C09195819591095524539484172B
:103B7000950714F0512C0AC09E2D8F2D7901292F05
:103B8000382F9C2F8D2FE801092F182FEC16FD06DA
:103B900054F4902F812F8901292F382F9C2F8D2F9E
:103BA000E701E92EF82E37016C1A7D0A5901A01A97
:103BB000B10AB7FE03C0B194A194B108630177FEC6
:103BC00003C08FEFC81AD80AD594C79402171307F9
:103BD00014F08FEF01C081E0882E880F9908EC1651
:103BE000FD06B4F021E0552019F0AE01B80102C085
:103BF000A801BE018FEB95E00E94A810CA18DB084F
:103C0000D7FE04C0080D191DC60CD71C2196E7CF9E
:103C1000DF91CF911F910F91FF90EF90DF90CF90A8
:103C2000BF90AF909F908F907F906F905F9008951E
:103C30008F929F92AF92BF920F931F93CF93DF9378
:103C4000CDB7DEB7A1970FB6F894DEBF0FBECDBFDC
:103C500019A2423008F44AE08E010F5D1F4F842EF6
:103C6000912CA12CB12CA50194010E94C328E62F10
:103C7000B901CA0101501109EA3014F4E05D01C034
:103C8000E95CD801EC93232B242B252B61F7C80189
:103C90000E94731DA1960FB6F894DEBF0FBECDBF74
:103CA000DF91CF911F910F91BF90AF909F908F9018
:103CB0000895CF92DF92EF92FF92CF93DF936B0143
:103CC0007C01E091BB05F091BC050190F081E02DF5
:103CD0006DE28BEB95E00995EC0166277727CB0128
:103CE0006C197D098E099F094AE00E94181E8C0FED
:103CF0009D1FDF91CF91FF90EF90DF90CF900895BF
:103D0000BC01990F880B990B97FD0C94591E4AE042
:103D10000C94181E40917C0150917D0120917A01F4
:103D200030917B0142175307B4F49091E8009570ED
:103D3000E1F39091E80092FD19C08093F100809129
:103D40007C0190917D0101968F739927892B19F43D
:103D50008EEF8093E80080917C0190917D01019627
:103D600090937D0180937C0181E0089580E0089527
:103D7000615030F02091F100FC0120830196F8CFD2
:103D8000289884E6809382010895CF93DF93CDB77E
:103D9000DEB764970FB6F894DEBF0FBECDBF789440
:103DA00084B5826084BD84B5816084BD85B5826040
:103DB00085BD85B5816085BD80916E0081608093F1
:103DC0006E0010928100809181008260809381005A
:103DD000809181008160809381008091800081606A
:103DE0008093800080919100826080939100809107
:103DF0009100816080939100809190008160809318
:103E000090008091C10084608093C1008091C100C6
:103E100082608093C1008091C10081608093C10065
:103E20008091C30081608093C3008091C000826054
:103E30008093C0008091C20081608093C200809115
:103E40007A00846080937A0080917A008260809307
:103E50007A0080917A00816080937A0080917A0064
:103E6000806880937A001092830110927F011092F3
:103E700080018091D70081608093D70080EA809391
:103E8000D80089B5806189BD89B5826089BD09B4D2
:103E900000FEFDCF61E070E080E090E00E94021043
:103EA0008091D8008F7C80618093D8008091E00061
:103EB000807F8093E0008091E1008E7E8093E1001E
:103EC0008DE08093E200559A209AEEEFFFE785910E
:103ED00094918B3F9C4D19F481E080937E010E9468
:103EE000941355E0852E912C64E0E62EF12C9AE097
:103EF000592E22E0C22ED12C3CE0A32EB12C4BE453
:103F0000242E312C2FB7F89480916E0190916F017F
:103F1000A0917001B09171012FBF4091CB055091DC
:103F2000CC056091CD057091CE052091CF0522235F
:103F300041F02091C705821B8093D0051092CF05D8
:103F400085C684179507A607B70778F4481B423043
:103F500008F47CC683B7817F83BF83B7816083BF4A
:103F6000889583B78E7F83BF71C621E02093CF05EC
:103F70008093C7059093C805A093C905B093CA055F
:103F80002091C605820F911DA11DB11D8093CB0507
:103F90009093CC05A093CD05B093CE058091C2053A
:103FA0009091C30501969093C3058093C2058091BB
:103FB000C4058093C5050E948B108093C40580E8DA
:103FC0000E94351C882349F080918A0190918B01D1
:103FD000019790938B0180938A0180E10E94351CA8
:103FE000882349F080918A0190918B0101969093EA
:103FF0008B0180938A010E948B1083FF10928901AC
:10400000E0918701F0918801E830F10508F01CC6C5
:10401000EA5AFF4F0C94A62A0E94601D00E420E893
:104020004BEC5DE060E070E080E090E00E94611C9D
:1040300089E190E09093D2058093D1051092D40548
:104040001092D3058CEB9DE00E94401C84E00E94FE
:10405000351C882309F4F8C581E090E0909388012D
:104060008093870110928B0110928A01EDC565E360
:104070007EE1CE0101960E94B51182E1FE013196EA
:10408000A9EAB5E001900D928A95E1F70E94601DC2
:104090000E94CB12F092D205E092D10583E090E02D
:1040A0009093D4058093D3058BEA9DE00E94401C39
:1040B00089EA9DE00E94401C2DE030E04FE750E08F
:1040C0006DE070E081E090E00E94931DF092D205D7
:1040D000E092D1058FE090E09093D4058093D305D2
:1040E00080918A0190918B01039724F010928B01AB
:1040F00010928A0180918A0190918B0197FF04C0F0
:10410000D0928B01C0928A0180918A0190918B019B
:104110008130910509F182309105C9F1892B09F0AF
:1041200052C081EA9DE00E94851D04E124E145EB37
:104130005DE168E270E084E090E00E94611CF09232
:10414000D205E092D10589E190E09093D405809367
:10415000D30583E99DE035C08EE89DE00E94851D72
:1041600004E124E144E75DE168E270E084E090E08E
:104170000E94611CF092D205E092D10589E190E0A5
:104180009093D4058093D30588E79DE01AC083E718
:104190009DE00E94401C04E124E143E35DE168E20C
:1041A00070E084E090E00E94611CF092D205E09201
:1041B000D10589E190E09093D4058093D30584E6FE
:1041C0009DE00E94401C0E948B1083FF3DC58091A2
:1041D0008901882309F442C537C50E94601D80E328
:1041E00090E09093D2058093D105F092D405E092AF
:1041F000D30580918401813049F028F0823051F458
:104200008FE39DE005C087E59DE002C08CE49DE062
:104210000E94401C00E420E84FE359E060E070E0B9
:1042200080E090E00E94611C80918A0190918B0156
:10423000059724F010928B0110928A0180918A01D7
:1042400090918B0197FF04C0F0928B01E0928A015C
:1042500009E010E01093D2050093D105F092D40547
:10426000E092D30589E399E00E94401C1093D205A7
:104270000093D1058EE090E09093D4058093D30510
:104280008091A9059091AA051816190624F482E3D5
:1042900099E00E94401C09E010E01093D2050093C1
:1042A000D10528E130E03093D4052093D3058CE28A
:1042B00099E02B8B3C8B0E94401C1093D2050093FD
:1042C000D10582E2682E712C7092D4056092D305DC
:1042D0008BE199E00E94401C1093D2050093D10518
:1042E0000CE210E01093D4050093D30585E199E02A
:1042F0000E94401C80918A0190918B012B893C89FE
:1043000082309105A1F1A4F4009721F1019709F001
:104310004BC083E090E09093D2058093D1058EE06E
:1043200090E09093D4058093D30581E199E03AC061
:104330008330910549F10497B9F583E090E09093BB
:10434000D2058093D1051093D4050093D3058BE05B
:1043500099E028C083E090E09093D2058093D10546
:10436000F092D405E092D30583E199E01BC083E08D
:1043700090E09093D2058093D1053093D40520939B
:10438000D3058FE099E00EC020918401243060F4C1
:104390009093D2058093D1057092D4056092D30595
:1043A0008DE099E00E94401C0E948B1083FF4CC45A
:1043B00080918901882309F479C446C480918601DB
:1043C000811148C00E94601D0E941D2865E070E0B8
:1043D0000E94922A8C016090AB05712C81E0681AD2
:1043E00071080E941D2863E070E00E94922A860DE9
:1043F000971D1816190614F081E090E0509ED00128
:10440000519EB00D1124AF54B74F1296EC911297F4
:10441000F0E025913491AC015527249FB001259FF0
:10442000700D11249B013595279535952795420FE1
:10443000531F5093A4054093A3058093A505B09303
:10444000A805A093A70581E08093860110928B01B7
:1044500010928A010E944818F7C30E94601D1092B2
:10446000D2051092D1051092D4051092D3058FE990
:1044700098E00E94401C2AE030E042E850E06AE008
:1044800070E080E090E00E94931D0E948B1082FFFC
:1044900004C0D0928801C09287018091730181117C
:1044A000B5C180918A0190918B01029724F01092FE
:1044B0008B0110928A0180918A0190918B0197FF64
:1044C00006C081E090E090938B0180938A018091F7
:1044D0008A0190918B01009709F023C11092D205B7
:1044E0001092D105B092D405A092D305E091AD050C
:1044F000F091AE05859194910E94851D8091A9054A
:104500009091AA050E94801E81E591E00E94731D92
:10451000E091AD05F091AE053296259134918091F0
:10452000AB0590E0289FB001299F700D112475956F
:10453000679575956795680F791F80E090E04AE070
:104540000E94181E87E098E00E94851D8DEF97E07D
:104550000E94401CE091AD05F091AE053396459167
:1045600054912091AB0530E0E091B1055E9EF001E1
:104570001124E756F84F65917491429FC001439F03
:10458000900D11249595879595958795820F931F8A
:10459000860F971F0E94C21B80E997E00E94401C73
:1045A000E091AD05F091AE0534964591549120917E
:1045B000AB0530E0E091B1055E9EF0011124E556B7
:1045C000F84F65917491429FC001439F900D112453
:1045D0009595879595958795820F931F860F971FC1
:1045E0000E94C21B89E897E00E94401CE091AD0543
:1045F000F091AE053596459154912091AB0530E090
:10460000429FC001439F900D1124959587959595E4
:104610008795820F931F0E94C21B82E897E00E9439
:10462000401CE091B1055E9EF0011124E356F84F65
:10463000859194910E94C21B3092D2052092D1059F
:10464000B092D405A092D3058DE797E00E94401C5C
:104650006091AB0570E080E090E04AE00E94181E97
:104660008BE797E00E94401C3092D2052092D10542
:10467000A4E1B0E0B093D405A093D305E091B105D7
:104680005E9EF0011124E156F84F859194910E94AD
:10469000851D3092D2052092D1058CE190E0909357
:1046A000D4058093D30584E797E00E94401C609175
:1046B000AF057091B00580E090E04AE00E94181EBE
:1046C000E091AD05F091AE0538964591549104E125
:1046D00024E168E270E084E690E00E94611C809131
:1046E000BA05813039F408E028E04CE657E068E28A
:1046F00070E012C0823009F07EC008E028E04CE68D
:1047000057E068E270E080E590E00E94611C28E0DC
:104710004CE657E062E370E080E590E00E94611CA7
:104720006AC0019709F067C00E94601D1092D2050F
:104730001092D1051092D4051092D3058CE098E028
:104740000E94401C2AE030E042E850E06AE070E05D
:1047500080E090E00E94931D1092D2051092D10546
:10476000B092D405A092D30502EB15E03801D80130
:10477000EC915E9EF0011124E156F84F85919491E1
:104780000E94401C88E697E00E94401CD801EC91F2
:104790005E9EF0011124E756F84F6591749180E018
:1047A00090E04AE00E94181E84E697E00E94401CB8
:1047B000D801ED918D015E9EF0011124E556F84F70
:1047C0006591749180E090E04AE00E94181E80E6B6
:1047D00097E00E94401CD301EC915E9EF0011124F1
:1047E000E356F84F859194910E94C21BB5E0073BB8
:1047F0001B0709F0BBCF0E948B1086FF07C081E02A
:104800008093730110928B0110928A018091730141
:10481000813009F019C20E94601D1092D2051092D9
:10482000D1051092D4051092D30587E998E00E9433
:10483000401C2AE030E042E850E06AE070E080E0AE
:1048400090E00E94931D1092D2051092D105B09273
:10485000D405A092D30581E898E00E94851D80913F
:104860008A0190918B01059724F010928B01109290
:104870008A0180918A0190918B0197FF04C0F09288
:104880008B01E0928A01E0918A01F0918B01E7555A
:10489000FA4FE1855E9EF0011124ED5DF74F8591A1
:1048A00094910E94401C0E948B1083FF05C0809150
:1048B0008901882309F446C20E948B1085FFC4C178
:1048C00010927301C1C10E94601D00E420E840E61F
:1048D00053E060E070E080E090E00E94611C88E0BE
:1048E00090E09093D2058093D105A9E2B0E0B09317
:1048F000D405A093D30585E591E00E94731D9092A5
:10490000D2058092D10586E390E09093D405809300
:10491000D3050E948B1082FF08C0D0928801C092FC
:10492000870110928B0110928A018091740181118C
:1049300072C080918A0190918B01039724F01092AC
:104940008B0110928A0180918A0190918B0197FFCF
:1049500004C0D0928B01C0928A0180918A0190910B
:104960008B018130910541F08230910511F1892B45
:10497000B9F58DE493E032C0E091AD05F091AE055C
:1049800082812091AB05829FC00111249595879566
:1049900095958795820F911D2091A9053091AA05C3
:1049A0002817390718F480E493E018C08EE293E0EA
:1049B00015C02091BA058091AF059091B0052230C5
:1049C00030F48330910518F089E193E007C0039734
:1049D00018F488E093E002C083EF92E00E94401C4C
:1049E0000E948B1083FF17C080918901811113C031
:1049F00021E02093890180918A0190918B0181307F
:104A0000910509F4ABC18230910509F4D2C1892B1B
:104A100011F42093740180917401813009F084C0F5
:104A200080918A0190918B01059724F010928B015F
:104A300010928A0180918A0190918B0197FF04C0A6
:104A4000F0928B01E0928A010E94601DA8E0B0E024
:104A5000B093D205A093D10589E290E09093D4055C
:104A60008093D30580EE92E00E94851D00E420E84B
:104A700040E653E060E070E080E090E00E94611C5E
:104A80009092D2058092D105A6E3B0E0B093D40510
:104A9000A093D305E0918A01F0918B01EC5EFE4F6B
:104AA000E0815E9EF0011124ED5DF74F85919491B8
:104AB0000E94401C8EED92E00E94401CE0918A0111
:104AC000F0918B01EC5EFE4FE0815E9EF0011124BF
:104AD000EB5DF74F6591749180E090E04AE00E94B1
:104AE000181E88ED92E00E94851D0E948B1083FFA6
:104AF0001BC080918901811117C080918A0190911A
:104B00008B01FC01EC5EFE4FE0815E9EF001112402
:104B1000EB5DF74F259134914091AF055091B00571
:104B20004217530708F05BC180917401823009F08D
:104B30008BC080918A0190918B01059724F010928F
:104B40008B0110928A0180918A0190918B0197FFCD
:104B500004C0F0928B01E0928A010E94601D00E483
:104B600020E840E653E060E070E080E090E00E94E2
:104B7000611C88E090E09093D2058093D105A9E272
:104B8000B0E0B093D405A093D30588EC92E00E94E6
:104B9000851D9092D2058092D10586E390E0909396
:104BA000D4058093D3058FEB92E00E94401C809146
:104BB0008A0190918B010E94801E83E591E00E9402
:104BC000731DE0918A01F0918B01E755FA4FE18561
:104BD0005E9EF0011124ED5DF74F859194910E9446
:104BE000851D0E948B1083FF2FC08091890188232F
:104BF00009F4FEC029C08091860181112BCC0E944E
:104C0000601D81E08093860110928B0110928A01D1
:104C1000809385011FCC012BB9F465E37EE1CE01C1
:104C200001960E94B51182E1FE013196A9EAB5E034
:104C300001900D928A95E1F710928B0110928A01F2
:104C4000D0928801C09287010E94D41B80E090E03E
:104C5000892B09F457C90E94000049C981E080935B
:104C6000890100918A0110918B010130110519F41D
:104C70006FE37EE1D4CF0230110569F669E47EE18D
:104C8000CE0101960E94B51182E1FE013196A9EA9A
:104C9000B5E001900D928A95E1F710928B01109288
:104CA0008A011093880100938701CECF81E0809321
:104CB000890180918A0190918B018230910519F4CC
:104CC0000E949413C1CF833091053CF40097C1F446
:104CD000909288018092870110C083309105F1F095
:104CE000049709F0B1CF86E090E09093880180931B
:104CF000870110928B0110928A0110927401A4CF47
:104D0000019709F0A1CF8091A9059091AA051816E5
:104D100019060CF099CF83E090E00FC08091A905AF
:104D20009091AA05181619060CF08ECF8091840177
:104D3000843008F089CF87E090E0909388018093D9
:104D4000870182CFE0918A01F0918B01E755FA4FFC
:104D500081858093B10510927301AECD2091AF058E
:104D60003091B0052115310509F455CEE091AD051E
:104D7000F091AE0582814091AB05849FC001112462
:104D80009595879595958795840F911D4091A905D7
:104D90005091AA054817590708F03DCE9093AA05EF
:104DA0008093A905215031093093B0052093AF05B8
:104DB00032CE2091BA05233008F02DCE8091AF0578
:104DC0009091B0058330910508F425CE2F5F209394
:104DD000BA0503979093B0058093AF051CCE91E080
:104DE000909389018093720182E0809374019CCE3C
:104DF000E0917201F0E0EC5EFE4FE081A0918A014B
:104E0000B0918B01A755BA4F1996EC935E9EF001B5
:104E10001124EB5DF74F259134918091AF0590916E
:104E2000B005821B930B9093B0058093AF05109251
:104E3000740181E08093890107CF0F931F93CF9373
:104E4000DF938C0181E090E00E94892880FF31C0CF
:104E50008AE090E00E9489289FEF980F9E3F48F5D6
:104E600022E330E0D80157963C932E93569728E3DF
:104E700030E059963C932E935897CBE0D0E0D80180
:104E8000ED91FC910190F081E02D682FC80109950A
:104E9000CE010E9489282196C131D10581F70E9457
:104EA000D41B88EE93E0DF91CF911F910F910C946A
:104EB0003C10DF91CF911F910F91089504970C94AE
:104EC0001D270F931F93CF93DF93CDB7DEB72A979C
:104ED0000FB6F894DEBF0FBECDBFE9EDF5E013824B
:104EE000128288EE93E0A0E0B0E084839583A683ED
:104EF000B7838FE291E0918380830FEF1FEF1587D7
:104F0000048765E37EE189EA95E00E94B5112AE015
:104F1000E1E2F1E0CE010196DC0101900D922A95CB
:104F2000E1F7A3EAB5E021E012962C9312971596CB
:104F30009C938E931497EB81F0E08591949199273F
:104F4000959587959595879501968D939C93EBEB19
:104F5000F5E0138212821186128680E18387108722
:104F60000783108A118A128A138A148A81E491E0D5
:104F7000918380838FE491E095838483178A168AD6
:104F8000118E108E228F138E248F158E2A960FB6B7
:104F9000F894DEBF0FBECDBFDF91CF911F910F916F
:104FA00008958F929F92AF92BF92CF92DF92EF922D
:104FB000FF92CF93DF93EC01688179818A819B8195
:104FC000611571058105910521F464E279ED8BE5A8
:104FD00097E02DE133EF41E050E00E949128490134
:104FE0005A019B01AC01A7EAB1E40E94B0286B0111
:104FF0007C01ACEEB4EFA50194010E94BE28DC0157
:10500000CB018C0D9D1DAE1DBF1DB7FF03C00197C9
:10501000A109B04888839983AA83BB839F77DF91D6
:10502000CF91FF90EF90DF90CF90BF90AF909F9087
:105030008F9008950E94D12708958CE091E00E94FE
:10504000D1270895A0E0B0E080930C0190930D016A
:10505000A0930E01B0930F0108958F929F92AF928B
:10506000BF92CF92DF92EF92FF92CF93DF93EC014A
:10507000688179818A819B8161157105810591051E
:1050800021F464E279ED8BE597E02DE133EF41E027
:1050900050E00E94912849015A019B01AC01A7EA06
:1050A000B1E40E94B0286B017C01ACEEB4EFA50125
:1050B00094010E94BE28DC01CB018C0D9D1DAE1D0C
:1050C000BF1DB7FF03C00197A109B048888399832A
:1050D000AA83BB83BC01CD019F77DF91CF91FF9065
:1050E000EF90DF90CF90BF90AF909F908F900895FA
:1050F0000E942D28089580E191E00E942D280895B6
:105100006093100170931101809312019093130129
:105110000895F999FECF92BD81BDF89A992780B57F
:105120000895052E97FB1EF400940E94A82857FDB1
:1051300007D00E94C32807FC03D04EF40C94A82883
:1051400050954095309521953F4F4F4F5F4F0895B3
:1051500090958095709561957F4F8F4F9F4F0895E3
:105160000E94E528A59F900DB49F900DA49F800DEF
:10517000911D11240895B7FF0C94B0280E94B02807
:10518000821B930B0895A1E21A2EAA1BBB1BFD01E3
:105190000DC0AA1FBB1FEE1FFF1FA217B307E40716
:1051A000F50720F0A21BB30BE40BF50B661F771F6E
:1051B000881F991F1A9469F760957095809590954E
:1051C0009B01AC01BD01CF010895A29FB001B39F27
:1051D000C001A39F700D811D1124911DB29F700D00
:1051E000811D1124911D08955058BB27AA270E94A4
:1051F0000C290C94EB290E94DD2938F00E94E42947
:1052000020F039F49F3F19F426F40C94DA290EF4B7
:10521000E095E7FB0C94D429E92F0E94FC2958F370
:10522000BA17620773078407950720F079F4A6F58B
:105230000C941E2A0EF4E0950B2EBA2FA02D0B0114
:10524000B90190010C01CA01A0011124FF27591BCB
:1052500099F0593F50F4503E68F11A16F040A22FD1
:10526000232F342F4427585FF3CF46953795279542
:10527000A795F0405395C9F77EF41F16BA0B620B41
:10528000730B840BBAF09150A1F0FF0FBB1F661F88
:10529000771F881FC2F70EC0BA0F621F731F841FCB
:1052A00048F4879577956795B795F7959E3F08F0F1
:1052B000B0CF9395880F08F09927EE0F97958795B3
:1052C00008950E9468296894B1110C941F2A0895CA
:1052D0000E94042A88F09F5798F0B92F9927B75158
:1052E000B0F0E1F0660F771F881F991F1AF0BA958A
:1052F000C9F714C0B13091F00E941E2AB1E00895A0
:105300000C941E2A672F782F8827B85F39F0B93F91
:10531000CCF3869577956795B395D9F73EF490953C
:105320008095709561957F4F8F4F9F4F0895E894BA
:1053300009C097FB3EF490958095709561957F4FDD
:105340008F4F9F4F9923A9F0F92F96E9BB2793958B
:10535000F695879577956795B795F111F8CFFAF49B
:10536000BB0F11F460FF1BC06F5F7F4F8F4F9F4FCC
:1053700016C0882311F096E911C0772321F09EE82A
:10538000872F762F05C0662371F096E8862F70E090
:1053900060E02AF09A95660F771F881FDAF7880F6A
:1053A0009695879597F9089597F99F6780E870E03B
:1053B00060E008959FEF80EC089500240A9416168B
:1053C000170618060906089500240A9412161306F3
:1053D000140605060895092E0394000C11F4882381
:1053E00052F0BB0F40F4BF2B11F460FF04C06F5F9D
:1053F0007F4F8F4F9F4F089557FD9058440F551F73
:1054000059F05F3F71F04795880F97FB991F61F046
:105410009F3F79F087950895121613061406551FBD
:10542000F2CF4695F1DF08C0161617061806991F29
:10543000F1CF86957105610508940895E894BB271E
:1054400066277727CB0197F908950E94382A0C9494
:10545000EB290E94DD2938F00E94E42920F09523F1
:1054600011F00C94D4290C94DA2911240C941F2ADD
:105470000E94FC2970F3959FC1F3950F50E0551FD2
:10548000629FF001729FBB27F00DB11D639FAA2799
:10549000F00DB11DAA1F649F6627B00DA11D661FE8
:1054A000829F2227B00DA11D621F739FB00DA11D09
:1054B000621F839FA00D611D221F749F3327A00DC3
:1054C000611D231F849F600D211D822F762F6A2F5F
:1054D00011249F5750409AF0F1F088234AF0EE0FC4
:1054E000FF1FBB1F661F771F881F91505040A9F7F1
:1054F0009E3F510580F00C94D4290C941F2A5F3FE5
:10550000E4F3983ED4F3869577956795B795F7952C
:10551000E7959F5FC1F7FE2B880F911D96958795A4
:1055200097F9089597FB072E16F4009407D077FD9E
:1055300009D00E94AC2A07FC05D03EF490958195D5
:105540009F4F0895709561957F4F0895EE0FFF1F4F
:105550000590F491E02D0994AA1BBB1B51E107C0F3
:10556000AA1FBB1FA617B70710F0A61BB70B881FF3
:10557000991F5A95A9F780959095BC01CD01089582
:0E55800081E090E0F8940C94C52AF894FFCFD7
:10558E00FFFFFFFF00E1000000000000010000002F
:10559E000100000004050607080900C18081000013
:1055AE00006901080805040001F91D000000000A49
:1055BE00144514CA1420142B14F214CE1400000037
:1055CE0000C610550FA70FA60F1D27FCFF00005E8B
:1055DE0027202F200057686174276C6C2068617635
:0E55EE00652079653F000D0A006E616D650055
:00000001FF
