:100000000C942C040C9454040C9454040C94540438
:100010000C9454040C9454040C9454040C94540400
:100020000C9454040C9454040C94090C0C947B0C04
:100030000C9454040C9454040C9454040C945404E0
:100040000C9454040C9454040C9454040C945404D0
:100050000C9454040C9454040C9454040C944E05C5
:100060000C9454040C9454040C9454040C945404B0
:100070000C9454040C9454040C9454040C945404A0
:100080000C9454040C9454040C9454040C94540490
:100090000C9454040C9454040C9454040C94540480
:1000A0000C9454040C9454040C94540428132213F8
:1000B0000514751452184715E4162918F0F89C8E8B
:1000C0008783878E9CF8F00000FEFF030303030381
:1000D000070EFCF80000FEFF0303030303070EFCFA
:1000E000F80000FFFF00000000000000FFFF00001C
:1000F000FEFF8383838383C7EE7C380000F8FC0E09
:1001000007030303070EFCF800003F7FE0C0808078
:10011000C0E07F3FFFFF01010101010101FFFF007E
:1001200000FFFF0C0C0C0C1C3E77E3C100007FFFAE
:10013000C0C0C0C0C0E0703F1F00001F3F70E0C0E3
:10014000C0C0E0703F1F00007FFFC1C1C1C1C1E35B
:10015000773E1C00001F3F70E0C0C0C0E0703F1F32
:10016000000000000001FFFF01000000D5F08D1429
:10017000A1C881CFD9F1AF200001020408102040AE
:100180008000000000003E5B4F5B3E3E6B4F6B3ECD
:100190001C3E7C3E1C183C7E3C181C577D571C1C8A
:1001A0005E7F5E1C00183C1800FFE7C3E7FF0018E5
:1001B000241800FFE7DBE7FF30483A060E262979CE
:1001C0002926407F050507407F05253F5A3CE73C2F
:1001D0005A7F3E1C1C08081C1C3E7F14227F2214E0
:1001E0005F5F005F5F06097F017F006689956A6037
:1001F0006060606094A2FFA29408047E040810204E
:100200007E201008082A1C08081C2A08081E101046
:1002100010100C1E0C1E0C30383E3830060E3E0EF0
:1002200006000000000000005F000000070007005B
:10023000147F147F14242A7F2A1223130864623641
:10024000495620500008070300001C2241000041CD
:10025000221C002A1C7F1C2A08083E080800807007
:10026000300008080808080000606000201008043A
:10027000023E5149453E00427F400072494949468D
:100280002141494D331814127F1027454545393C0B
:100290004A494931412111090736494949364649F8
:1002A00049291E000014000000403400000008141A
:1002B0002241141414141400412214080201590993
:1002C000063E415D594E7C1211127C7F49494936E8
:1002D0003E414141227F4141413E7F494949417F61
:1002E000090909013E414151737F0808087F004117
:1002F0007F41002040413F017F081422417F404060
:1003000040407F021C027F7F0408107F3E41414134
:100310003E7F090909063E4151215E7F09192946A0
:10032000264949493203017F01033F4040403F1FB6
:100330002040201F3F4038403F63140814630304EB
:100340007804036159494D43007F4141410204084B
:100350001020004141417F0402010204404040401E
:1003600040000307080020545478407F2844443854
:100370003844444428384444287F3854545418009E
:10038000087E090218A4A49C787F0804047800441D
:100390007D40002040403D007F1028440000417F08
:1003A00040007C047804787C080404783844444491
:1003B00038FC1824241818242418FC7C0804040889
:1003C000485454542404043F44243C4040207C1CA2
:1003D0002040201C3C4030403C44281028444C9095
:1003E00090907C4464544C440008364100000077EF
:1003F0000000004136080002010204023C262326C8
:100400003C1EA1A161123A4040207A3854545559FB
:100410002155557941215454784121555478402033
:10042000545579400C1E527212395555555939544C
:1004300054545939555454580000457C41000245E4
:100440007D420001457C40F0292429F0F028252830
:10045000F07C545545002054547C547C0A097F4953
:1004600032494949323248484832324A4848303A9B
:100470004141217A3A42402078009DA0A07D394434
:100480004444393D4040403D3C24FF2424487E49BB
:1004900043662B2FFC2F2BFF0929F620C0887E09ED
:1004A0000320545479410000447D413048484A3289
:1004B000384040227A007A0A0A727D0D19317D2671
:1004C00029292F28262929292630484D4020380857
:1004D00008080808080808382F10C8ACBA2F1028D8
:1004E00034FA00007B000008142A142222142A1473
:1004F000089500220095AA005500AAAA55AA55AA57
:10050000000000FF00101010FF00141414FF001072
:1005100010FF00FF1010F010F0141414FC0014145D
:10052000F700FF0000FF00FF1414F404FC1414177C
:10053000101F10101F101F1414141F00101010F0A3
:10054000000000001F101010101F10101010F010ED
:10055000000000FF101010101010101010FF1000FD
:100560000000FF140000FF00FF00001F1017000034
:10057000FC04F414141710171414F404F40000FF0E
:1005800000F714141414141414F700F714141417A7
:100590001410101F101F141414F4141010F010F085
:1005A00000001F101F0000001F14000000FC1400BA
:1005B00000F010F01010FF10FF141414FF141010AE
:1005C000101F00000000F010FFFFFFFFFFF0F0F031
:1005D000F0F0FFFFFF0000000000FFFF0F0F0F0F04
:1005E0000F38444438447C2A2A3E147E0202060610
:1005F000027E027E0263554941633844443C044014
:100600007E201E2006027E020299A5E7A5991C2ADB
:10061000492A1C4C7201724C304A4D4D303048789A
:100620004830BC625A463D3E494949007E010101BD
:100630007E2A2A2A2A2A44445F444440514A44409C
:1006400040444A51400000FF0103E080FF000008E1
:10065000086B6B083612362436060F090F060000A9
:1006600018180000001010003040FF0101001F01A9
:10067000011E00191D1712003C3C3C3C000000000C
:1006800000FFFF7FFFFFFFFFEFAF2301E6EFFFFF5C
:10069000FFFFFFFFFFFFFE01F687C7E7E707040044
:1006A000070FFFFFFFFFFFFFFF0F0F000F0F0F0FE1
:1006B0000F0000000000010307070F0F0FFFFFF9F5
:1006C000940B078383438383438383070B94F9FF4E
:1006D000FF875BEB03EB5400011129512911000442
:1006E000DBC70F1FFF0F0F0E0E0E00040A040200DF
:1006F000040A04000F08000008FF03FD0601FFFFC5
:10070000FF1F4F470713FFFFFFFFFFFFFFFBF8C36C
:10071000E0C8CBE747120840180247E70F1FFFFF6A
:10072000FF0F0F0F0F0F0300000C0E0E0E0C000337
:10073000070F0F0F0FFFFF7FFFFFFFFFEFAF23013B
:10074000E6EFFFFFFFFFFFFFFFFFFE01F687C7E7B2
:10075000E7070400070FFFFFFFFFFFFFFF0F0F007A
:100760000F0F0F0F0F0000000000010307070F0F0E
:100770000FFFFFF9940B078383438383438383072E
:100780000B94F9FFFF875BEB03EB54000111295138
:1007900029110004DBC70F1FFF0F0F0E0E0E000400
:1007A0000A040200040A04000F08000008080B00F5
:1007B00002020201000904000001020200000524F7
:1007C000001001052401010104240206052406008D
:1007D000010705810310004009040100020A00001E
:1007E00000070502024000000705830240000004E4
:1007F00003090412010002EF020140412336800088
:10080000010102030141726475696E6F204C4C4313
:100810000041726475626F7900FF03FD0601FFFFFE
:10082000FF1F4F470713FFFFFFFFFFFFFFFBF8C34B
:10083000E0C8CBE747120840180247E70F1FFFFF49
:10084000FF0F0F0F0F0F0300000C0E0E0E0C000316
:10085000070F0F0F0F006D1A11241FBECFEFDAE044
:10086000DEBFCDBF14E0A0E0B1E0E6E3FBE302C0F1
:1008700005900D92A433B107D9F72AE0A4E3B4E0C0
:1008800001C01D92A137B207E1F714E0CCE2D4E039
:1008900004C02197FE010E948E1DCB32D107C9F7FB
:1008A0000E94D1110C94991D0C940000CF92DF92FC
:1008B000EF92FF920F931F93CF93DF936C017A0116
:1008C0008B01C0E0D0E0CE15DF0589F0D8016D9135
:1008D0008D01D601ED91FC910190F081E02DC601D2
:1008E0000995892B11F47E0102C02196ECCFC70136
:1008F000DF91CF911F910F91FF90EF90DF90CF90FC
:1009000008953FB7F8948091400490914104A091DC
:100910004204B091430426B5A89B05C02F3F19F0AF
:100920000196A11DB11D3FBFBA2FA92F982F88276F
:10093000820F911DA11DB11DBC01CD0142E0660FCA
:10094000771F881F991F4A95D1F708952D9A08950A
:100950008EBD00000DB407FEFDCF089508950895E3
:1009600080E090E00895CF92DF92EF92FF920F9394
:100970001F93CF93DF93FC01EB014115510569F5FE
:10098000C884D98486819781E488F5880E891F8977
:10099000EA81FB8163E070E00E947A1DE60EF71E9B
:1009A000C6016BEF7FEF0E947A1D060F171F0E0D19
:1009B0001F1D2130310519F40C191D0904C0232B0A
:1009C00011F0025011091016110624F03197FB8323
:1009D000EA831AC0E01BF10BFACF42305105A1F4B3
:1009E0008485958597FD019695958795288D398DF8
:1009F000820F931F181619063CF42A813B81A90126
:100A0000481B590B5B834A83DF91CF911F910F9154
:100A1000FF90EF90DF90CF9008950E94941D8F92E9
:100A20009F92AF92BF92CF92DF92EF92FF926B01B3
:100A30007C010E9481044B015C01C114D104E104DA
:100A4000F104F1F00E948104DC01CB0188199909BD
:100A5000AA09BB09883E9340A105B10570F321E0C6
:100A6000C21AD108E108F10888EE880E83E0981ECA
:100A7000A11CB11CC114D104E104F10419F7DDCFAC
:100A8000FF90EF90DF90CF90BF90AF909F908F90AE
:100A90000895BC0180E090E00C940F051F920F9226
:100AA0000FB60F9211242F933F938F939F93AF9381
:100AB000BF938091440490914504A0914604B09165
:100AC000470430913F0423E0230F2D3720F4019693
:100AD000A11DB11D05C026E8230F0296A11DB11D61
:100AE00020933F048093440490934504A0934604CC
:100AF000B09347048091400490914104A091420436
:100B0000B09143040196A11DB11D809340049093C0
:100B10004104A0934204B0934304BF91AF919F91CD
:100B20008F913F912F910F900FBE0F901F901895AE
:100B30008FB12CB193B130E02095309520743327DC
:100B4000A90123E0559547952A95E1F7292F30E033
:100B50002095309520713327359527953595279524
:100B6000242B8095807F822B089583B7817F83BF5C
:100B700083B7816083BF889583B78E7F83BF0895D5
:100B800060387105D0F440345105B8F4E9E7F1E07C
:100B900080E1849FD001A0781124A60F4770E40F54
:100BA000F11D8491A959BB4F222319F06C91862B1A
:100BB00003C080956C9186238C9308952F923F9269
:100BC0004F925F926F927F928F929F92AF92BF925D
:100BD000CF92DF92EF92FF920F931F93CF93DF9309
:100BE000CDB7DEB729970FB6F894DEBF0FBECDBFE5
:100BF000FC016A3069F4248D808D918D38E0239F4B
:100C0000800D911D1124918F808F178A168AAAC09A
:100C10006D3009F4A7C099878887F48C338C228CB7
:100C2000608C718C0689178900381105C4F0A8857D
:100C3000B9855C962C915C97422F50E056968D9129
:100C40009C915797B6E02B9F800D911D1124E8854C
:100C5000F985978B868B258D21116EC083C0F0E4BA
:100C60006F16710424F7C80125E0F29E800D911DD6
:100C7000112418161906DCF68F2D90E09C838B83C7
:100C8000C301A8E0FA9E800D911D112418161906C3
:100C900074F6B5E06B9FB0011124FB01EF57FE4FD6
:100CA000FA83E98330E08885998504969E838D8355
:100CB000E981FA81E490353009F4E12C430188E0C0
:100CC000482EE0FC02C0532C01C0522C51100BC026
:100CD000321009C0E6944A948B819C81880E991E3B
:100CE0004110EFCF1BC068018C2D801B8F1590F732
:100CF00054018A2D88198F1568F4252DA501B60198
:100D00008D819E813F830E94C0059FEFA91AB90A79
:100D10003F81EFCFAFEFCA1ADA0AE6CF3F5FEB8130
:100D2000FC810E0F1F1F89819A8101969A83898306
:100D3000363009F0BDCF7BCF6AEF64039001659F29
:100D4000300D112420583F4F281739075CF4A8852F
:100D5000B985ED91FC9111970190F081E02D6AE049
:100D6000CD01099581E090E029960FB6F894DEBF99
:100D70000FBECDBFDF91CF911F910F91FF90EF90EC
:100D8000DF90CF90BF90AF909F908F907F906F90AB
:100D90005F904F903F902F900895EF92FF920F93A6
:100DA0001F93CF93DF93EC018091A9099091AA0939
:100DB000181619060CF07BC18A819B81181619063A
:100DC0000CF04EC10E94E81010920E0A10920D0A0B
:100DD0001092100A10920F0A888199810E943D0F8B
:100DE0008DE791E00E943D0F8A819B810E943F0F19
:100DF0002AE030E041E450E06AE070E080E090E01A
:100E00000E9456108CE390E090930E0A80930D0A96
:100E100084E390E09093100A80930F0A8091A909CF
:100E20009091AA090E94330F83E891E00E943D0F40
:100E30008091AB099091AC090E94330F87E891E053
:100E40000E943D0F2EE330E048E750E06EE370E093
:100E50008AE390E00E94561040916509509166091E
:100E600004E124E160E070E085E590E00E94570F26
:100E70004091B5095091B60924E16DE170E088E038
:100E800090E00E94570F10920E0A10920D0A82E312
:100E900090E09093100A80930F0A80913D04909106
:100EA0003E04009709F072C010923C0480915104F6
:100EB00090915204039724F010925204109251041E
:100EC000809151049091520497FF06C082E090E017
:100ED0009093520480935104809151049091520454
:100EE0008130910541F08230910541F0892B51F418
:100EF0008BE891E005C082E991E002C089E991E0C8
:100F00000E943D0F0E94980583FF1CC080914F04F2
:100F100090915004892BB1F421E030E030935004DB
:100F200020934F0480915104909152048130910597
:100F300009F038C190933B0480933A0490933E04A7
:100F400080933D040E94811C63E070E00E947A1D42
:100F50008130910559F08230910589F0892B09F093
:100F6000B7C110923904109238040DC0909339041F
:100F7000809338049093370480933604A9C19093EA
:100F800039048093380481E090E0F4CF019709F0B0
:100F90009FC18091360490913704019709F098C160
:100FA0002091B1093091B2098A859B8582179307F8
:100FB00024F481E08093350402C0109235049091AE
:100FC000350480913C04992331F1811181C1009154
:100FD000380410913904E0903A04F0903B049801F1
:100FE000A701BE0187EA99E00E94B3049701A80116
:100FF00067EA79E0CE010E94B3048091FE099091E6
:10100000FF096CE370E00E94661D892BE1F4C801C2
:101010000E94330F18C081115BC100913A041091F6
:101020003B04E0903804F09039049801A70167EA86
:1010300079E0CE010E94B3049701A801BE0187EABE
:1010400099E00E94B30481E090E090935004809373
:101050004F0480933C0410923E0410923D0438C12A
:101060000E94E81088E290E090930E0A80930D0AA7
:1010700084E190E09093100A80930F0A81EA91E056
:101080000E94250F89EA91E00E94250F86EB91E0EE
:101090000E94250F84EC91E00E943D0F8091010A8F
:1010A00082FD16C18091000A82FF12C18FC00E948A
:1010B000E81082E090E090930E0A80930D0A84E19C
:1010C00090E09093100A80930F0A88ED91E00E94BF
:1010D000250F84EC91E00E94250F8091B709909133
:1010E000B809181619064CF088EE91E00E94250FF9
:1010F0008EEF91E00E94250F04C08FE092E00E94E5
:101100003D0F0E94980582FFE3C082E090E090933B
:101110004E0480934D0410924C048091AB09909141
:10112000AC099093AA098093A9098091B70990917D
:10113000B8099C01225031093093B8092093B709AE
:1011400040914A0450914B044130510531F51092C1
:101150004B0410924A0440910B0950910C09509392
:101160000A09409309094091BB085091BC0850936B
:10117000BA084093B90840916B0850916C0850939D
:101180006A0840936908223031050CF4A1C0049725
:101190009093B8098093B7099BC01092B809109238
:1011A000B70996C08230910549F490933B0480932F
:1011B0003A0430933E0420933D04C4CE892B09F0B9
:1011C000C1CE10923B0410923A04F3CF82E090E03B
:1011D00090934E0480934D0410924C048091B70973
:1011E0009091B80902969093B8098093B7098091BD
:1011F0004A0490914B04019709F06AC08091480419
:1012000090914904019690934904809348048091F9
:10121000B9099091BA0901969093BA098093B909D6
:101220008091AB099091AC0905969093AC0980939D
:10123000AB099093AA098093A9092091AD09309137
:10124000AE09E3E0F0E0C901BF010E947A1D6F5FC3
:101250007F4FC901860F971F9093AE098093AD0908
:10126000C091AF09D091B009CE01BF010E947A1D93
:101270009B012F5F3F4FCE01820F931F9093B009C8
:101280008093AF09C091B109D091B209CE01BF01DD
:101290000E947A1D9B012F5F3F4FCE01820F931F4B
:1012A0009093B2098093B1092091B3093091B409A8
:1012B000C901BF010E947A1D6F5F7F4F620F731FCC
:1012C0007093B4096093B30910924B0410924A04CE
:1012D000DF91CF911F910F91FF90EF9008950F93A1
:1012E0001F93CF93DF9381EC80937C0085B1806F57
:1012F00085B9249884B1866E84B95E9A5F988AB164
:10130000806D8AB9769A6E9881B3806F81BB899817
:1013100080B38D7080BB80E58CBD81E08DBD85E0A4
:1013200090E00E9449055F9A85E090E00E9449059F
:101330005E985C98CCE6D1E01C2F135FFE0184918F
:101340000E94A80421961C13F9CF5C9A81E880932F
:10135000640081E080936500C0E0D4E080E00E94FA
:10136000A8042197D9F70E94980587FF1FC05C98B1
:1013700085EA0E94A8045C9A2E982F982D98809157
:1013800064008062809364000E94B505FDCF2D98B3
:101390000E9498058478843871F00E9498058471C1
:1013A000843131F188EC90E00E9449050E94980553
:1013B00082FDEDCF3AC00E94A60488EC90E00E9426
:1013C00049052F9882E090E00E94ED1C8F3F29F0A4
:1013D0006FEF82E090E00E94F51C84EF91E00E94A4
:1013E00049052F9A0E94980584788438D9F3D5CF7F
:1013F0000E94A60488EC90E00E9449052E9882E0A5
:1014000090E00E94ED1C882329F060E082E090E0EB
:101410000E94F51C84EF91E00E9449052E9A0E94DB
:10142000980584718431D9F3BDCF0E94A60482E06F
:1014300090E00E94ED1C882331F03E9A3F9A81E0B3
:101440008093340404C0109234043E983F982E9840
:10145000CEEEDFEF0E94980586FF04C02E9A2F9AE9
:101460002D9A39C0CC3F8FEFD80719F42E9A2F98B8
:1014700005C0C831D10511F42F9A2D980E94DB10B8
:1014800000E128E54CEB50E0BE0184E190E00E94D1
:10149000570F0E94F1108BE190E00E944905C03F78
:1014A000EFEFDE0721F48AEF90E00E9449052196D4
:1014B000C931D10579F68CEB92E00E9449050E9472
:1014C000A604E091FB09F091FC090190F081E02D68
:1014D0008BEF99E0099582E390E00E9449050E9414
:1014E00098058111F8CF81E28093020A809164000F
:1014F0008E7F8093640080917A00806480937A006C
:1015000080917A0086FDFCCFC0917800D09179005F
:101510000E9481048E0120E030E09801112700270D
:10152000600F711F821F931F611571058105910561
:1015300011F00E94E41C809164008160809364003B
:1015400010924E0410924D04DF91CF911F910F9194
:101550000C94E810CF93DF931F92CDB7DEB7698369
:10156000DC01ED91FC910280F381E02D41E050E03F
:10157000BE016F5F7F4F09950F90DF91CF91089566
:1015800083E08093E9008091F200882319F08AE3D8
:101590008093E8000895FC018485958597FD0BC034
:1015A0009FB7F89482E08093E9008091F2009FBF9A
:1015B00090E0019608959FB7F89482E08093E90047
:1015C0008091F2009FBF90E008958F929F92AF921A
:1015D000BF92CF92DF92EF92FF920F931F93CF9320
:1015E000DF935C016B017A0180910B01882309F480
:1015F0005BC080916604882309F456C0809163041F
:1016000080FF05C08091E00082608093E000E701E8
:1016100010E00AEF83E0882E9AE3992E2097D9F103
:101620000E942D1181110AC0015009F43DC061E0F2
:1016300070E080E090E00E940F05F0CF282F30E0AE
:10164000C217D3070CF48C2F4FB7F8948092E9009F
:101650009091E80095FF1DC0282F30E0C21BD30BEE
:10166000F601982F915020F081918093F100FACFEC
:10167000C20ED31E112319F09092E80009C0809188
:10168000E80085FD06C09092E80011E0209709F07F
:1016900010E04FBFC3CF1111C3CF5D9884E6809394
:1016A00064041E141F0444F081E090E0F50193836C
:1016B000828380E090E001C0C701DF91CF911F914C
:1016C0000F91FF90EF90DF90CF90BF90AF909F90E1
:1016D0008F9008950E942D1190E00895CF93DF938D
:1016E0001F92CDB7DEB7FC018485958597FD05C0B7
:1016F0002FEF3FEF358724870BC0CE0101960E9464
:101700000311019719F4898190E002C08FEF9FEFD8
:101710000F90DF91CF9108950F931F93CF93DF9395
:101720001F92CDB7DEB78C01FC018485958597FFAC
:101730000EC0CE0101960E940311019719F4298170
:1017400030E002C02FEF3FEFF80135872487F80122
:10175000848595850F90DF91CF911F910F9108950A
:10176000DF92EF92FF920F931F93CF93DF93D82EC8
:101770008A017B01E40EF51EEB01CE15DF0571F049
:10178000D7FE03C0FE01849101C088810E945211DE
:1017900021968111F2CF8FEF9FEF01C0C801DF9139
:1017A000CF911F910F91FF90EF90DF9008950F93CD
:1017B0001F93CF93DF931F92CDB7DEB782E089836B
:1017C00042E450E06DEA77E080E80E94B00B0E94AE
:1017D0003E11DC0112960D911C9113970115110514
:1017E00069F0D801ED91FC910280F381E02DBE01FA
:1017F0006F5F7F4FC801099597FF07C089810F90E0
:10180000DF91CF911F910F910895F8010085118507
:10181000E5CF1F920F920FB60F9211248F939F93D3
:101820008091E1009091E100937F9093E10083FF2C
:101830000FC01092E90091E09093EB001092EC0041
:1018400092E39093ED001092660498E09093F0007C
:1018500082FF20C093E09093E9009091F2009923D9
:1018600019F09AE39093E80090916404992339F079
:1018700090916404915090936404992389F190911C
:101880006504992339F09091650491509093650413
:10189000992341F184FF10C08091E2008E7E816027
:1018A0008093E2008091E1008F7E8093E10080913F
:1018B00063048E7E806111C080FF16C08091E200BB
:1018C0008E7E80618093E2008091E1008E7E809325
:1018D000E100809163048E7E81608093630404C084
:1018E0005D9ACDCF289AD6CF9F918F910F900FBE42
:1018F0000F901F9018951F920F920FB60F92112400
:10190000CF92DF92EF92FF920F931F932F933F930B
:101910004F935F936F937F938F939F93AF93BF93F7
:10192000EF93FF93CF93DF93CDB7DEB76C97DEBF16
:10193000CDBF1092E9008091E80083FFEDC168E01F
:10194000CE0145960E94801182EF8093E8008D8938
:1019500087FF05C09091E80090FFFCCF03C09EEF89
:101960009093E800982F907609F0C6C09E892F8941
:10197000188D91110CC0803829F4809162048093F5
:10198000F10002C01092F1001092F10048C1422F04
:1019900050E0512B913051F4811141C1413051053A
:1019A00009F03DC1809162048D7F0BC0933061F4DA
:1019B000811135C14130510509F031C18091620476
:1019C0008260809362042BC1953041F48091E800DD
:1019D00080FFFCCF20682093E30021C1963009F0FE
:1019E0005FC0EB8CFC8C1092E900109260041092A6
:1019F0005F04123091F510925E0410925D040E9413
:101A0000D70B99E0BE016F5F7F4FDB01E92F1D927D
:101A1000EA95E9F799831A8391E09E8390EA988783
:101A20009AEF998720915F0430916004275F3F4FC0
:101A30003C832B838D831092E900109260041092F6
:101A40005F04F0925E04E0925D0449E050E080E0C3
:101A50000E94B00B0E94D70BE2C0F0925E04E092AD
:101A60005D040E943E11DC011296ED90FC901397EC
:101A7000E114F10409F4C0C0D701ED91FC91048098
:101A8000F581E02DBE016B5E7F4FC7010995009780
:101A900019F00CF0C4C0C7C0F701E084F184E8CFAE
:101AA000973009F4C0C0983021F481E08093F100B0
:101AB000B6C0993009F0B3C0837009F0B4C0E1E555
:101AC000F1E081E021E036E39081992361F0809399
:101AD000E9002093EB0091919093EC003093ED009E
:101AE0008F5F873089F78EE78093EA001092EA00D3
:101AF0008F898093660493C08B8D9C8D1092E90032
:101B00001092600410925F0490935E0480935D04D1
:101B1000898D811156C08E899D89913A59F48132FF
:101B200009F081C047E050E064E071E080E00E948D
:101B3000B00B75C0913209F076C0833289F4888D7C
:101B400090E0982F88272F89822BA0E0B0E0809327
:101B5000000190930101A0930201B09303015FC0C3
:101B6000803269F48091E80082FFFCCF67E084E076
:101B700091E00E9480118BEF8093E80006C08232D2
:101B800009F04DC08F8980930B01809161048823F7
:101B900019F0EEEFFAE002C0E0E0F8E08091040115
:101BA00090910501A0910601B0910701803B9440FE
:101BB000A105B10509F07BC080910B0180FF93C0A6
:101BC00076C00E943E11DC0112960D911C91139774
:101BD0000115110541F1D801ED91FC910190F081C1
:101BE000E02DBE016B5E7F4FC8010995811117C0C2
:101BF000F80100851185ECCF113009F44EC0133087
:101C000091F48F89882309F445C0823081F440E83B
:101C100067E081E198E00E94301A882321F08EEF7E
:101C20008093E80079C081E28093EB0075C0813039
:101C300029F440E86BE085E098E0EDCF833099F738
:101C40000E943E11DC011296ED90FC9013978E01DC
:101C50000F5F1F4F6801E114F10479F0D701ED9196
:101C6000FC910680F781E02DB801C7010995080FA6
:101C7000111DF701E084F184EECFD8011C92F6012A
:101C800001900020E9F73197BF016C197D0940E010
:101C9000C601C1CF6FEE77E002C063EF77E0611558
:101CA000710509F2FB01449150E080E840CF0FB686
:101CB000F894A895809160008861809360001092EC
:101CC00060000FBEA895EE3F2AE0F20739F0809140
:101CD000FE0A9091FF0A91838083A1CF1092FF0AA0
:101CE0001092FE0A9CCFEE3F8AE0F80731F0808127
:101CF00091819093FF0A8093FE0A87E797E791838B
:101D000080839BE088E10FB6F894A89580936000EB
:101D10000FBE9093600083CF6C960FB6F894DEBF31
:101D20000FBECDBFDF91CF91FF91EF91BF91AF91EA
:101D30009F918F917F916F915F914F913F912F91E3
:101D40001F910F91FF90EF90DF90CF900F900FBEFB
:101D50000F901F901895009769F0FC0101900020EA
:101D6000E9F73197AF01481B590BBC0187EF99E0A8
:101D70000C94560480E090E008958F929F92AF9269
:101D8000BF920F931F93CF93DF93CDB7DEB7A19789
:101D90000FB6F894DEBF0FBECDBF19A2423008F4D3
:101DA0004AE08E010F5D1F4F842E912CA12CB12C87
:101DB000A50194010E94351DE62FB901CA01015009
:101DC0001109EA3014F4E05D01C0E95CD801EC933C
:101DD000232B242B252B61F7C8010E94AB0EA19663
:101DE0000FB6F894DEBF0FBECDBFDF91CF911F912C
:101DF0000F91BF90AF909F908F900895CF92DF92F8
:101E0000EF92FF92CF93DF936B017C01E091F70992
:101E1000F091F8090190F081E02D6DE287EF99E0F3
:101E20000995EC0166277727CB016C197D098E098E
:101E30009F094AE00E94BD0E8C0F9D1FDF91CF913C
:101E4000FF90EF90DF90CF900895CF93DF930E94A3
:101E5000AB0EEC0181E394E00E94AB0E8C0F9D1F52
:101E6000DF91CF910895BC01990F880B990B97FDD5
:101E70000C94FE0E4AE00C94BD0E0C94AB0ECF9366
:101E8000DF93BC01990F880B990B97FF03C00E9449
:101E9000FE0E03C04AE00E94BD0EEC0181E394E017
:101EA0000E94AB0E8C0F9D1FDF91CF9108952F9252
:101EB0003F924F925F926F927F928F929F92AF92DA
:101EC000BF92CF92DF92EF92FF920F931F93CF9327
:101ED000DF93CDB7DEB728970FB6F894DEBF0FBEFD
:101EE000CDBF5A01822E912C9C01280D391D37FD42
:101EF000C4C0803891050CF0C0C09B01200F311D7B
:101F000037FDBBC0603471050CF0B7C0AB0177FF83
:101F100004C044275527461B570B477055279B0184
:101F200077FF02C0295F3F4FE3E035952795EA959B
:101F3000E1F777FF08C02150310968E070E0DB016C
:101F4000A41BB50BAD01602F66956695669570E094
:101F5000077011F06F5F7F4FDB01A20FB31FBA83D1
:101F6000A98339017694762C662477946794680E59
:101F7000791EE12CF12C00E010E02301B0E84B0EBB
:101F8000511C68E070E0DB01A41BB50BBC83AB8384
:101F900069817A812617370709F46FC02830310527
:101FA00009F46BC02F3FBFEF3B070CF45BC0B201DD
:101FB000600F711FDB01A959BB4FBE83AD83D801F0
:101FC000A60DB71DA959BB4F6C0160E070E0681504
:101FD00079050CF047C0E0E8CE16D10409F442C000
:101FE000D7FC34C02F3FFFEF3F0709F442C0FB018D
:101FF000EE0DFF1DEA0DFB1DE491042E01C0EE0F56
:102000000A94EAF73C90E329EC9341155105F1F06D
:1020100027303105D9F0FB01EE0DFF1DEA0DFB1D48
:10202000E4912E2E312CF1010B8002C0F595E7953D
:102030000A94E2F7F887EF83ED81FE813080EF812B
:10204000F885E3291F01ED81FE8120826F5F7F4FBC
:10205000ED81FE813196FE83ED83FFEFCF1ADF0A1B
:102060001196B5CF2F5F3F4F00581F4FE80CF91C5A
:102070008FCF4115510579F6E9CF28960FB6F89420
:10208000DEBF0FBECDBFDF91CF911F910F91FF90AB
:10209000EF90DF90CF90BF90AF909F908F907F9008
:1020A0006F905F904F903F902F9008955F926F9246
:1020B0007F928F929F92AF92BF92CF92DF92EF92D8
:1020C000FF920F931F93CF93DF93EC018B017A0163
:1020D000A901461B570B57FF03C051954195510964
:1020E000C7018C1B9D0B97FF03C0919581959109AA
:1020F000552453948417950714F0512C0AC09E2D33
:102100008F2D7901292F382F9C2F8D2FE801092F32
:10211000182FEC16FD0654F4902F812F8901292FDA
:10212000382F9C2F8D2FE701E92EF82E37016C1ADE
:102130007D0A5901A01AB10AB7FE03C0B194A19457
:10214000B108630177FE03C08FEFC81AD80AD5948F
:10215000C7940217130714F08FEF01C081E0882E97
:10216000880F9908EC16FD06B4F021E0552019F00F
:10217000AE01B80102C0A801BE018BEF99E00E9438
:10218000C005CA18DB08D7FE04C0080D191DC60C0F
:10219000D71C2196E7CFDF91CF911F910F91FF9030
:1021A000EF90DF90CF90BF90AF909F908F907F90F7
:1021B0006F905F90089580E0E7E6F4E081118FEF83
:1021C000002481938193819381930394D1F708959F
:1021D0000E94DB10E7EFF9E0118E108E178A168A45
:1021E0000895809167048EBDE8E6F4E081910DB416
:1021F00007FEFDCF8EBD88E0E736F807B9F70DB4CE
:1022000007FEFDCF0895FC0180916604811103C093
:102210008FEF9FEF08959FB7F89482E08093E900D5
:102220002091F20030E01216130614F421E030E0A1
:102230002115310559F0289884E680936504809132
:10224000F10080838091F200882319F09FBFC901BB
:1022500008958BE68093E800F9CF2FB7F89483E0D8
:102260008093E9009091E800892F807295FF04C067
:102270009091F20080E4891B2FBF08958091190A84
:1022800081110DC082E08093150A84E08093160AC4
:102290001092180A1092170A81E08093190A85E1BA
:1022A0009AE0089540915F045091600420915D048C
:1022B00030915E0442175307B4F49091E800957092
:1022C000E1F39091E80092FD19C08093F1008091B4
:1022D0005F049091600401968F739927892B19F4FC
:1022E0008EEF8093E80080915F04909160040196E6
:1022F0009093600480935F0481E0089580E00895E6
:10230000615030F02091F100FC0120830196F8CF5C
:10231000289884E68093650408950F931F93CF93C4
:10232000DF938C0181E090E00E94ED1C80FF31C0C2
:102330008AE090E00E94ED1C9FEF980F9E3F48F5C9
:1023400022E330E0D80157963C932E93569728E32A
:1023500030E059963C932E935897CBE0D0E0D801CB
:10236000ED91FC910190F081E02D682FC801099555
:10237000CE010E94ED1C2196C131D10581F70E944A
:10238000F11088EE93E0DF91CF911F910F910C94A3
:102390004905DF91CF911F910F91089504970C94F7
:1023A0008D11CF93DF93CDB7DEB7C055D1090FB6EE
:1023B000F894DEBF0FBECDBF789484B5826084BD33
:1023C00084B5816084BD85B5826085BD85B5816039
:1023D00085BD80916E00816080936E0010928100B7
:1023E0008091810082608093810080918100816072
:1023F0008093810080918000816080938000809133
:10240000910082608093910080919100816080931F
:102410009100809190008160809390008091C10034
:1024200084608093C1008091C10082608093C1006C
:102430008091C10081608093C1008091C300816060
:102440008093C3008091C00082608093C00080911F
:10245000C20081608093C20080917A008460809382
:102460007A0080917A00826080937A0080917A006D
:10247000816080937A0080917A00806880937A00EE
:102480001092660410926204109263048091D70047
:1024900081608093D70080EA8093D80089B58061FD
:1024A00089BD89B5826089BD09B400FEFDCF61E0B8
:1024B00070E080E090E00E940F058091D8008F7C52
:1024C00080618093D8008091E000807F8093E0005D
:1024D0008091E1008E7E8093E1008DE08093E200A8
:1024E000559A209AEEEFFFE7859194918B3F9C4D92
:1024F00019F481E0809361040E946F09EE24E39453
:10250000F12C4CE0A42EB12C54E0452E512C62E06D
:10251000862E912C85E0C82ED12C9BE4292E312CBF
:1025200024E1622E712C2FB7F8948091440490918D
:102530004504A0914604B09147042FBF4091070A7B
:102540005091080A6091090A70910A0A20910B0AB9
:10255000222341F02091030A821B80930C0A1092DF
:102560000B0AA2C584179507A607B70738F4481BBE
:10257000423008F499C50E94B50596C521E0209324
:102580000B0A8093030A9093040AA093050AB09360
:10259000060A2091020A820F911DA11DB11D809390
:1025A000070A9093080AA093090AB0930A0A809137
:1025B000FE099091FF0901969093FF098093FE090F
:1025C0008091000A8093010A0E9498058093000A76
:1025D0000E94980587FF07C080915B0490915C047E
:1025E000892B09F469C50E94980584FF07C0809172
:1025F000590490915A04892B09F46CC50E949805DE
:1026000087FD04C010925C0410925B040E94980540
:1026100084FD04C010925A04109259040E94980537
:1026200083FD04C01092500410924F04E0914D04B9
:10263000F0914E04E830F10508F034C5EA5AFF4F36
:102640000C948E1D80E090E020E030E04AE01DC058
:102650000E94E81089E190E090930E0A80930D0AA1
:102660001092100A10920F0A83E292E00E943D0F2E
:102670000E94980582FF16C5F0924E04E0924D0428
:1026800010925204109251040DC5265F3F4F8530C1
:102690009105D4F4489FF001499FF00D112461E0A9
:1026A00070E06C0F7D1FE60FF71F7E96DF01542F41
:1026B0001D925A95E9F7FB01E20FF31F62E372E006
:1026C000738F628F0196E1CF88E392E09A838983CA
:1026D0001C821B821E821D8218861F821A86198602
:1026E0001C861B861E861D861A8A198A1C8A1B8ACE
:1026F00080E5FE013196A7EAB9E001900D928A9536
:10270000E1F70E94E81010920E0A10920D0A109242
:10271000100A10920F0A8DE392E00E943D0F82E3AF
:1027200094E00E943D0F2AE030E042E850E06AE089
:1027300070E080E090E00E94561010920E0A109215
:102740000D0AB092100AA0920F0A80915104909144
:102750005204039724F01092520410925104809175
:1027600051049091520497FF04C0909252048092B9
:102770005104809151049091520481309105B1F03F
:102780008230910521F1892BA1F58EE492E00E941F
:10279000250F04E124E149E158E06EE170E080E0BA
:1027A00090E00E94570F86E592E021C084E692E017
:1027B0000E94250F04E124E141E757E06EE170E05B
:1027C00080E090E00E94570F89E692E010C08FE70A
:1027D00092E00E94250F04E124E145E357E06EE119
:1027E00070E080E090E00E94570F84E892E00E9441
:1027F0003D0F0E94980583FF55C480914F0490912E
:102800005004892B09F474C44DC40E94E81010923E
:102810000E0A10920D0A1092100A10920F0A86EA00
:1028200092E00E943D0F2AE030E042E850E06AE08A
:1028300070E080E090E00E94561010920E0A109214
:102840000D0AB092100AA0920F0A80915104909143
:102850005204059724F01092520410925104809172
:1028600051049091520497FF04C050925204409238
:10287000510480915104909152048230910511F1DC
:102880002CF4009759F0019761F023C08330910533
:10289000E1F00497F1F484EF92E019C080EB92E04C
:1028A00016C08091A9099091AA09181619061CF45E
:1028B00086EB92E00CC08DEB92E00E94250F8DEC30
:1028C00092E005C08EED92E002C083EE92E00E949D
:1028D0003D0F0E94980583FFE5C380914F049091BE
:1028E0005004892B09F4F5C4DDC380914C04811197
:1028F000CBC00E94E8100E94811C63E070E00E943F
:102900007A1D81309105E1F18230910509F477C09B
:10291000892B09F0B2C083E992E090935809809323
:1029200057098AE090E090935A098093590990934F
:102930005C0980935B0990935E0980935D09D09256
:102940006009C0925F09D0926209C0926109109239
:1029500064091092630989EF96E090936609809369
:1029600065098AE0E5E7F9E0DF01282F1D922A9545
:10297000E9F7F0927609E09275092BE932E073C02D
:1029800024E632E0309358092093570970925A098F
:102990006092590970925C0960925B09D0925E095D
:1029A000C0925D092AE030E03093600920935F090E
:1029B0001092620910926109D0926409C092630971
:1029C0002DEB36E030936609209365092AE0E5E7B0
:1029D000F9E0DF01322F1D923A95E9F790937809DB
:1029E000809377098CE094E090937C0980937B0935
:1029F000ABE6B9E001900D922A95E1F73EC081EA7D
:102A000092E090935809809357098AE090E0909360
:102A10005A098093590990935C0980935B0910923D
:102A20005E0910925D091092600910925F099093FF
:102A3000620980936109909364098093630981E836
:102A400096E090936609809365098AE0E5E7F9E0EE
:102A5000DF01282F1D922A95E9F7F0927A09E0927A
:102A600079092AE134E030937C0920937B09ABE6B5
:102A7000B9E001900D928A95E1F781E080934C04D2
:102A8000109252041092510487E599E009C30E9404
:102A9000E81010920E0A10920D0A1092100A10926D
:102AA0000F0A8AEF92E00E943D0F2AE030E042E8F0
:102AB00050E06AE070E080E090E00E9456100E94D2
:102AC000980582FF04C090924E0480924D0480913C
:102AD000550490915604892B09F013C1809151043B
:102AE00090915204029724F01092520410925104D3
:102AF000809151049091520497FF04C0F0925204C7
:102B0000E09251048091510490915204009709F091
:102B10009DC010920E0A10920D0AB092100AA09257
:102B20000F0A8091A7099091A8090E94250F809112
:102B3000A9099091AA090E94330F83E891E00E94AD
:102B40003D0F8091AB099091AC090E94330F8CE04E
:102B500093E00E94250F81E193E00E943D0F2091B8
:102B6000AD093091AE098091BB099091BC09820FEB
:102B7000931F0E943F0F8BE193E00E943D0F209135
:102B8000AF093091B0098091BD099091BE09820FC3
:102B9000931F0E943F0F84E293E00E943D0F8091BB
:102BA000B1099091B2090E943F0F8BE293E00E941D
:102BB0003D0F2091B3093091B4098091BF099091E4
:102BC000C009820F931F0E943F0F30920E0A20927D
:102BD0000D0AB092100AA0920F0A82E393E00E94BD
:102BE0003D0F8091B9099091BA090E94330F30923C
:102BF0000E0A20920D0A7092100A60920F0A8091BC
:102C0000C1099091C2090E94250F30920E0A2092AC
:102C10000D0A8CE190E09093100A80930F0A87E3ED
:102C200093E00E943D0F8091B7099091B8090E94EE
:102C3000330F4091B5095091B60904E124E168E2EF
:102C400070E084E690E00E94570F4FC0019709F0B2
:102C50004CC00E94E81010920E0A10920D0A1092B9
:102C6000100A10920F0A8EE393E00E943D0F2AE0B3
:102C700030E042E850E06AE070E080E090E00E94DE
:102C8000561010920E0A10920D0AB092100AA092DD
:102C90000F0A05EC19E0D80116968D919C911797B3
:102CA0000E943D0F8FE493E00E943D0FF801808168
:102CB00091810E94330F83E593E00E943D0FD8017C
:102CC00012968D919C9113970E94330F87E593E0A4
:102CD0000E943D0FF801848195810E943F0F065F9D
:102CE0001F4FF9E0073F1F07B1F60E94980586FFC6
:102CF00008C0F0925604E0925504109252041092CB
:102D000051048091550490915604019709F0CAC16D
:102D10000E94E81010920E0A10920D0A1092100AEA
:102D200010920F0A8BE593E00E943D0F2AE030E0FD
:102D300042E850E06AE070E080E090E00E945610C7
:102D400010920E0A10920D0AB092100AA0920F0A69
:102D500083E693E00E94250F8091510490915204E4
:102D6000059724F01092520410925104809151045E
:102D70009091520497FF04C0509252044092510423
:102D800080915104909152041AE0189FF001199F0C
:102D9000F00D1124E955F64F84A195A10E943D0F35
:102DA0000E94980583FF07C080914F0490915004C2
:102DB000892B09F4C7C20E94980585FF73C1109240
:102DC0005604109255046EC10E94E81010920E0A2B
:102DD00010920D0A1092100A10920F0A89E793E0E0
:102DE0000E943D0F2AE030E042E850E06AE070E0E7
:102DF00080E090E00E94561010920E0A10920D0A88
:102E0000B092100AA0920F0A0E94980582FF08C093
:102E100090924E0480924D041092520410925104EC
:102E20008091570490915804892B09F04BC08091F0
:102E3000510490915204029724F01092520410927F
:102E40005104809151049091520497FF04C0F09274
:102E50005204E092510480915104909152040097E1
:102E600019F0019721F015C08FE793E010C0209171
:102E7000A9093091AA098091AB099091AC09281752
:102E800039071CF482E993E002C08FE993E00E94C5
:102E90003D0F0E94980583FF15C080914F049091CB
:102EA0005004892B79F4F0925004E0924F04809101
:102EB000510490915204009709F071C2F0925804A5
:102EC000E09257048091570490915804019709F0BB
:102ED00075C08091510490915204069724F010928D
:102EE000520410925104809151049091520497FF22
:102EF00004C0D0925204C09251040E94E810809104
:102F00005104909152041AE0189FF001199FF00D9E
:102F10001124EC5EFE4F868197810E943D0F85E86B
:102F200091E00E943D0F8091510490915204189FAE
:102F3000F001199FF00D1124EC5EFE4F8085918504
:102F40000E94330F8FEA91E00E94250F8091510477
:102F500090915204189FF001199FF00D1124EC5E1E
:102F6000FE4F2091B7093091B809808591852817C7
:102F7000390724F481EB93E00E943D0F0E949805ED
:102F800083FF1CC080914F0490915004892BB1F4B1
:102F900080915104909152042AE0289FF001299FCA
:102FA000F00D1124EC5EFE4F4091B7095091B80925
:102FB00020853185421753070CF012C280915704C7
:102FC00090915804029709F06DC08091510490913E
:102FD0005204059724F010925204109251048091EB
:102FE00051049091520497FF04C0509252044092B1
:102FF00051040E94E81084EC93E00E94250F8DEDAF
:1030000093E00E943D0F80915104909152040E94E0
:10301000330F85E891E00E943D0F8091510490911B
:1030200052041AE0189FF001199FF00D1124E95580
:10303000F64F84A195A10E94250F0E94980583FF59
:1030400031C080914F0490915004892B09F4D5C16F
:1030500029C080914C0481110DC00E94E81081E0CC
:1030600080934C041092520410925104F0924B043D
:10307000E0924A0487E099E00E94CD0680914804DE
:1030800090914904019721F487EB98E00E94CD06C6
:103090008091480490914904029721F487E698E0D2
:1030A0000E94CD060E94F11080E090E0892B09F487
:1030B0003ACA0E9400002ECAF0925C04E0925B04BF
:1030C0008091510490915204019690935204809300
:1030D000510489CAF0925A04E09259048091510433
:1030E000909152040197909352048093510486CAA0
:1030F000F0925004E0924F04809151049091520458
:103100008130910509F048C024E632E03093A809E7
:103110002093A7097092AA096092A9097092AC093C
:103120006092AB09D092AE09C092AD092AE030E0BE
:103130003093B0092093AF091092B2091092B109EF
:10314000D092B409C092B3092DEB36E03093B609A2
:103150002093B5092AE0A5ECB9E0E22F1D92EA958B
:10316000E9F79093C8098093C7098CE094E09093A5
:10317000CC098093CB09E5ECF9E0ABEBB9E0019029
:103180000D922A95E1F710925204109251049092F8
:103190004E0480924D0486CF8230910509F056C0CE
:1031A00021EA32E03093A8092093A7092AE030E011
:1031B0003093AA092093A9093093AC092093AB0955
:1031C0001092AE091092AD091092B0091092AF0999
:1031D0003093B2092093B1093093B4092093B30915
:1031E00021E836E03093B6092093B5092AE0A5EC32
:1031F000B9E0E22F1D92EA95E9F7F092CA09E09250
:10320000C9094AE154E05093CC094093CB09E5EC5D
:10321000F9E0ABEBB9E001900D922A95E1F710923D
:103220005204109251040DC0019709F03BCF8091D8
:10323000A9099091AA09181619060CF033CF83E05A
:1032400090E090934E0480934D042CCF892B09F08D
:1032500029CF83E992E09093A8098093A7098AE097
:1032600090E09093AA098093A9099093AC09809368
:10327000AB099093AE098093AD09D092B009C0928A
:10328000AF09D092B209C092B1091092B40910925C
:10329000B30989EF96E09093B6098093B5098AE067
:1032A000A5ECB9E0E82F1D92EA95E9F7F092C6097E
:1032B000E092C5092BE932E03093CC092093CB0989
:1032C000E5ECF9E0ABEBB9E001900D928A95E1F7FE
:1032D0005ACFF0925004E0924F04809151049091A3
:1032E00052048230910519F40E946F09DBCE8330BD
:1032F000910544F4009709F097CFD0924E04C09204
:103300004D0410C08330910591F0049709F0CACEA6
:1033100086E090E090934E0480934D041092520406
:10332000109251041092580410925704BBCE809111
:10333000A9099091AA09181619060CF0B3CE87E0D6
:1033400090E07FCF8091510490915204189FF0013A
:10335000199FF00D1124E955F64F468D578D20A188
:1033600031A182A193A164A175A1ABEBB9E01D923B
:103370001A95E9F75093BC094093BB093093BE09F5
:103380002093BD099093C0098093BF097093C2092F
:103390006093C10910925604109255040CCD019708
:1033A00009F090CD8091B7099091B80918161906C7
:1033B0000CF088CD2091AB093091AC094091A9095E
:1033C0005091AA09421753070CF07CCD3093AA09FB
:1033D0002093A90901979093B8098093B70972CDFA
:1033E000F0925004E0924F0490935404809353045D
:1033F0009092580480925704E1CD2091530430916B
:1034000054048091510490915204189FD001199F47
:10341000B00D1124AB53B64F129FC001139F900DF6
:1034200011248C5E9E4F2AE0FC0101900D922A959A
:10343000E1F72091B7093091B809FC0180859185A9
:10344000A901481B590B5093B8094093B709109232
:10345000580410925704F0925004E0924F0422CE88
:10346000CF92DF92EF92FF920F931F93CF93DF9350
:103470001F92CDB7DEB7182F062FE42E862F880FA8
:103480008E5F99830E94521183E00E945211F12EA7
:10349000C12E9981D92E8C2D8F19801798F4F601A1
:1034A000E7FE02C0849101C080810E945211182F52
:1034B00080E00E9452118123FFEFCF1ADF0A8111B1
:1034C000EACF01C081E00F90DF91CF911F910F9162
:1034D000FF90EF90DF90CF9008951092240A109201
:1034E000230A88EE93E0A0E0B0E08093250A909351
:1034F000260AA093270AB093280A8BE591E09093BF
:10350000220A8093210A8FEF9FEF90932E0A8093D7
:103510002D0A88E392E09093A8098093A70910925E
:10352000AC091092AB091092AA091092A909109245
:10353000AE091092AD091092B0091092AF09109225
:10354000B2091092B1091092B4091092B309109205
:10355000B8091092B7091092BA091092B90980E01F
:1035600090E020E030E04AE062E372E0265F3F4F07
:10357000853091059CF4489FF001499FF00D11247E
:10358000EB53F64FDF01542F1D925A95E9F7F901DD
:10359000E955F64F738F628F0196E8CF88E392E08A
:1035A000909358098093570910925C0910925B0917
:1035B00010925A091092590910925E0910925D09F1
:1035C0001092600910925F091092620910926109CD
:1035D00010926409109263091092680910926709A9
:1035E00010926A091092690980E090E020E030E0D2
:1035F0004AE062E372E0265F3F4F853091059CF41C
:10360000489FF001499FF00D1124EB58F64FDF0160
:10361000542F1D925A95E9F7F901E95AF64F738F25
:10362000628F0196E8CF80E294E09093080980933E
:10363000070989E190E090930C0980930B0990931E
:103640000A098093090988E090E090930E0980931D
:103650000D099093100980930F0926E030E0309314
:103660001209209311099093140980931309109261
:1036700018091092170910921A091092190980E07E
:1036800090E020E030E04AE062E372E0265F3F4FE6
:10369000853091059CF4489FF001499FF00D11245D
:1036A000EB5DF64FDF01542F1D925A95E9F7F901B2
:1036B000E95FF64F738F628F0196E8CF86E294E060
:1036C0009093B8088093B7088EE190E09093BC087F
:1036D0008093BB089093BA088093B90884E190E086
:1036E0009093BE088093BD0886E090E09093C00858
:1036F0008093BF0882E090E09093C2088093C10855
:1037000084E090E09093C4088093C3081092C808A6
:103710001092C7081092CA081092C90880E090E081
:1037200020E030E04AE062E372E0265F3F4F853000
:1037300091059CF4489FF001499FF00D1124EB5234
:10374000F74FDF01542F1D925A95E9F7F901E9541B
:10375000F74F738F628F0196E8CF8CE294E09093DD
:1037600068088093670888E290E090936C088093E3
:103770006B0890936A088093690884E190E09093C5
:103780006E0880936D088FE090E0909370088093AE
:103790006F0884E090E0909372088093710888E04D
:1037A00090E09093740880937308109278081092B8
:1037B000770810927A081092790880E090E020E073
:1037C00030E04AE062E372E0265F3F4F85309105CA
:1037D0009CF4489FF001499FF00D1124EB57F74FDF
:1037E000DF01542F1D925A95E9F7F901E959F74F76
:1037F000738F628F0196E8CF1092FA091092F9093F
:103800001092000A1092010A80E18093020A8FEF61
:103810009FEF9093FF098093FE091092070A109280
:10382000080A1092090A10920A0A10920B0A8DE6F1
:1038300091E09093F8098093F7098BE791E09093DA
:10384000FC098093FB0910920E0A10920D0A109247
:10385000100A10920F0A81E08093110A1092120A46
:103860008093130A1092140A08958F929F92AF9238
:10387000BF92CF92DF92EF92FF92CF93DF93EC0152
:10388000688179818A819B81611571058105910526
:1038900021F464E279ED8BE597E02DE133EF41E02F
:1038A00050E00E94031D49015A019B01AC01A7EAA7
:1038B000B1E40E94221D6B017C01ACEEB4EFA501C6
:1038C00094010E94301DDC01CB018C0D9D1DAE1DAD
:1038D000BF1DB7FF03C00197A109B0488883998332
:1038E000AA83BB839F77DF91CF91FF90EF90DF900A
:1038F000CF90BF90AF909F908F9008950E94351CFD
:1039000008958CE091E00E94351C0895A0E0B0E09D
:1039100080930C0190930D01A0930E01B0930F01C1
:1039200008958F929F92AF92BF92CF92DF92EF92C3
:10393000FF92CF93DF93EC01688179818A819B812B
:10394000611571058105910521F464E279ED8BE53E
:1039500097E02DE133EF41E050E00E94031D490163
:103960005A019B01AC01A7EAB1E40E94221D6B0140
:103970007C01ACEEB4EFA50194010E94301DDC0186
:10398000CB018C0D9D1DAE1DBF1DB7FF03C0019760
:10399000A109B04888839983AA83BB83BC01CD0168
:1039A0009F77DF91CF91FF90EF90DF90CF90BF9006
:1039B000AF909F908F9008950E94911C089580E190
:1039C00091E00E94911C0895609310017093110181
:1039D00080931201909313010895F999FECF92BD3F
:1039E00081BDF89A992780B50895262FF999FECFC1
:1039F0001FBA92BD81BD20BD0FB6F894FA9AF99A0C
:103A00000FBE01960895052E97FB1EF400940E94A8
:103A10001A1D57FD07D00E94351D07FC03D04EF438
:103A20000C941A1D50954095309521953F4F4F4F5E
:103A30005F4F089590958095709561957F4F8F4F5A
:103A40009F4F08950E94571DA59F900DB49F900D04
:103A5000A49F800D911D11240895B7FF0C94221D81
:103A60000E94221D821B930B0895A1E21A2EAA1B0D
:103A7000BB1BFD010DC0AA1FBB1FEE1FFF1FA2171E
:103A8000B307E407F50720F0A21BB30BE40BF50B1B
:103A9000661F771F881F991F1A9469F760957095A4
:103AA000809590959B01AC01BD01CF010895A29F27
:103AB000B001B39FC001A39F700D811D1124911D02
:103AC000B29F700D811D1124911D0895AA1BBB1B6F
:103AD00051E107C0AA1FBB1FA617B70710F0A61B0E
:103AE000B70B881F991F5A95A9F780959095BC012F
:103AF000CD01089597FB072E16F4009407D077FDAB
:103B000009D00E94661D07FC05D03EF49095819572
:103B10009F4F0895709561957F4F0895EE0FFF1F99
:103B20000590F491E02D099481E090E0F8940C94D4
:063B3000991DF894FFCF7F
:103B3600FFFFFFFF00E100000000000001000000A1
:103B460001000000050002000000E6030A00020072
:103B560005000000EE030A00000002000500FB035A
:103B66000A00070005000300000414000500070012
:103B760003000704140003000500070013041400E3
:103B860000C1808100000000000000AA0AE50A6A60
:103B96000BC00ACB0A6E0B8C0B00000000DE05562C
:103BA60004B004AF048D11FCFF0000CE1120687034
:103BB6003A2000202F200020485000617474616371
:103BC6006B00646566656E64005370656369616C5D
:103BD60000566963746F72790074616B65203220D8
:103BE600636F696E7300617320796F7572207072EE
:103BF600697A65004220746F2072657475726E2052
:103C0600746F206D656E7500596F752068617665F5
:103C1600204661696C656400546865204172656E72
:103C260061205069747469657320796F75005265F7
:103C3600737420796F757220776F756E647300796F
:103C46006F75277665206C6F7374203220636F69F9
:103C56006E7300486974206220746F2073746172F9
:103C66007400454D505459006E756C6C0050696374
:103C76006B20796F757220636C6173732E005761C8
:103C86007272696F72005374726F6E67204174743A
:103C960061636B0054616E6B004869676820486514
:103CA600616C7468202620446566656E7365004DF8
:103CB600616765004661737420616E642066726197
:103CC600696C0077617272696F720053776F726404
:103CD600006D616765004D41494E204D454E5500CA
:103CE600737461747300626174746C6500596F75E6
:103CF60020617265206661696E74656400596F752E
:103D06002063616E6E6F74206669676874007175F2
:103D16006974004669676874204172656E61204265
:103D26006F73730073746F7265005354415453205C
:103D3600762D494E56203E4551505400204850207D
:103D460000537472656E6774683A00446566656E02
:103D560073653A0053706565643A004D616769633F
:103D66003A004C766C3A00436F696E733A00494EDE
:103D760056454E544F5259205E53544154530020D9
:103D8600613A0020643A0020733A003C535441548F
:103D960053200053656C656374206974656D2074E7
:103DA6006F206571756970740053746F7265004297
:103DB6007579206E6577206571756970746D656EAD
:103DC60074004845414C3A203120636F696E0059B2
:103DD6006F75206E656564206E6F74206865616C12
:103DE60000796F75206C61636B2074686520636F62
:103DF600696E730073656C65637420736C6F7420F1
:103E0600696E20696E76656E746F727900736C6F79
:103E16007420233A20004B6C65617665720042720D
:103E26006F616420536869656C640057616E640055
:103E36004B6174616E610049726F6E2053686569EB
:103E46006C64004D616E677573205374616666001D
:103E5600736C696D650074726F6C6C006F67726568
:043E6600000D0A0041
:00000001FF
