:100000000C942F0F0C94570F0C94570F0C94570F00
:100010000C94570F0C94570F0C94570F0C94570FC8
:100020000C94570F0C94570F0C94CA150C943C1653
:100030000C94570F0C94570F0C94570F0C94570FA8
:100040000C94570F0C94570F0C94570F0C94570F98
:100050000C94570F0C94570F0C94570F0C94451099
:100060000C94570F0C94570F0C94570F0C94570F78
:100070000C94570F0C94570F0C94570F0C94570F68
:100080000C94570F0C94570F0C94570F0C94570F58
:100090000C94570F0C94570F0C94570F0C94570F48
:1000A0000C94570F0C94570F0C94570FE41F0F200C
:1000B000C520B6213426F5213124E4254D61676E33
:1000C000757320526F640049726F6E536865696C76
:1000D00064004B6174616E610057616E640042722E
:1000E0006F616420536865696C64004B6C65617670
:1000F000657200537461666600536865696C6400DC
:1001000053776F726400456D707479004D61676E4E
:10011000757320526F640049726F6E536865696C25
:1001200064004B6174616E610057616E64004272DD
:100130006F616420536865696C64004B6C6561761F
:10014000657200537461666600536865696C64008B
:1001500053776F726400456D707479000080B0D879
:10016000F898B863C6BA7CEECCCFCCEE7CBA46C366
:1001700000F1FF0FF10F0102073FFEACB591B5ACE6
:10018000FE3F87FF000103060D0600000E0F03026D
:10019000000C0002030F0F014D6173746572007053
:1001A000C070C13204CAF498B4EAB498F4CA24C244
:1001B00071C070000C172DEAF4744D6FACD5ACAF64
:1001C0004D7462970B05000000000C060B0B080F26
:1001D0000D00000D0F0F080B0A060C4F677265002B
:1001E00020B8FEF4500067FA6C1C6CF86C07020033
:1001F0000000000001181F3830186CBEDD87DDBE1E
:10020000663C183870E0000000000000000E030E8D
:100210000103010E070E00000103010054726F6C10
:100220006C00536C696D6500000000E00E9438743A
:10023000ECC0EC7438940EE0000000009CE638A39B
:10024000C695AA6F2B292B6FAA95C6A338E69C00EA
:100250000F0F0F0301040404060006040404010345
:100260000F0F0F004F7263000F30434C90F8BCA685
:10027000663E3E66A6BCF8904C43300F7804F21AF6
:100280000A05BB5E9A7F7F9A5EBB050A1AF2047864
:1002900000010000060F0A0903010103090A0F0605
:1002A00000000100537069646572005761726C6FE1
:1002B000636B0054616E6B004B6E6967687400730A
:1002C0006C6F7420233A200053656C656374206959
:1002D0006E7620736C6F740059652042726F6B6587
:1002E00000636F696E73003A00486572652773207A
:1002F0007768617420796520676F74005965207094
:100300006F74696F6E206261672069732066756C17
:100310000079652073686F7274206F6E20636F6957
:100320006E00427579206120506F74696F6E3F20B6
:100330003320436F696E00596F75206E65656420C8
:100340006E6F74206865616C004845414C3A2031FD
:1003500020636F696E00427579206E657720657144
:10036000756970746D656E740000F20C1202020201
:10037000020282428202020202020202020202021D
:10038000028202020202020202020202020262E28D
:100390009A8A8A0A2A2A2A9A9ADADADA8A0A8ACA7D
:1003A000CACACACACACACA9A191A99DADADACA8A7F
:1003B0002A2A6A4A8ACA9ADADADACA8A2A2A6A6A3D
:1003C000AACA8A8A8A8AAAEAAA3A1A1A1A1A9A0A0D
:1003D000EA5A1A02020202020202020202020202A5
:1003E0000202020202120CF20000FF0000000000F4
:1003F00000FEFD0201FE000000000000000000E021
:10040000FE1F000000000000000060E5F73D232112
:1004100020A0B11111000F1F1FB9F9F9F004044D0C
:100420006901FFFFFF0101007EFF7E81A989817EB6
:10043000FF7E0000FFFFF6193979F9D68F4648484C
:1004400001FFFF39391101414848181111D9380FFE
:100450000C0C00000000E0F0B0B0B8B81818B8B844
:10046000B0B0F0E0000000FF0000FF00000000005E
:1004700000FFFF0000FF000000000000000003027A
:10048000070C74887800000000060E0786363E329E
:1004900024242525252021232333B3313030323243
:1004A00032202123212829292A2839333333333193
:1004B00024A4ACA0A327233032303133373238287C
:1004C000232733333333B337222828392F0103004E
:1004D000000000000000030F3B766C7FF0F07F6CA3
:1004E000763B0F03000000FF0000FF00000000400B
:1004F000407FDF40C07F404000000000000000203F
:1005000078F46E03000000000000000000010265A6
:10051000FACC5AF55ACCFA650201000000000067D7
:10052000FA6C1C6CF86C070200000000FC02EDB5D0
:100530003B5A3232523BB5ED02FC00000000000095
:1005400000FC821212711171121282FC0000000074
:10055000000000000080C87070B02840C04000005B
:1005600000000000000000FF0000FF00000080808D
:1005700080908FB58F908080808080808080808008
:100580008FBF8F808080808080808080808080800E
:100590008081828282818080808080808080808053
:1005A000808181818080808080808080878A94990A
:1005B0009999999991919190888780808080808085
:1005C0008080818386888E888683818080808080F9
:1005D00080888C86838180808081868281808080F3
:1005E00080808000000000FF0000FF00FC0300008E
:1005F00000000000000000000000000000000000FB
:1006000000000000000000000000000000000000EA
:1006100000000000000000000000000000000000DA
:1006200000000000000000000000000000000000CA
:1006300000000000000000000000000000000000BA
:1006400000000000000000000000000000000000AA
:10065000000000000000000000000000000000009A
:1006600000000001827C00FF0000F70C0A090A0A62
:100670000A0A0A0A0A0A0A0A0A0A0A0A0A0A0A0ADA
:100680000A0A0A0A0A0A0A0A0A0A0A0A0A0A0A0ACA
:100690000A0A0A0A0A0A0A0A0A0A0A0A0A0A0A0ABA
:1006A0000A0A0A0A0A0A0A0A0A0A0A0A0A0A0A0AAA
:1006B0000A0A0A0A0A0A0A0A0A0A0A0A0A0A0A0A9A
:1006C0000A0A0A0A0A0A0A0A0A0A0A0A0A0A0A0A8A
:1006D0000A0A0A0A0A0A0A0A0A0A0A0A0A0A0A0A7A
:1006E0000A0A0A09080808F700004F30484040404D
:1006F00040404040404040404040404040404040FA
:1007000040404040404040404040404040404040E9
:1007100040404040404040404040404040404040D9
:100720004040404040404040804080404040404049
:1007300040404040404040404040404040404040B9
:1007400040404040404040404040404040404040A9
:100750004040404040404040404040404040404099
:10076000404040404048304F0020733A0020643AF7
:100770000020613A003048B5CB83854830436F692B
:100780006E733A0020004C766C3A004D61676963E5
:100790003A0053706565643A00446566656E73653A
:1007A0003A00000000000000060100000100000007
:1007B000000000010000000001000000F90000003E
:1007C000000000000100F30000000500020000002E
:1007D000EB000A00020005000000DE00140000002B
:1007E00002000500D9001E00070005000300D2002A
:1007F0002800050007000300C700320003000500C1
:100800000700BC003C00537472656E6774683A0060
:100810002048502000494E56454E544F5259205EB4
:1008200053544154530000000000000056010000E2
:100830000100000000005001000000000100000065
:100840004901000000000000010043010000050014
:10085000020000003B010A000200050000002E011A
:10086000140000000200050029011E000700050019
:1008700003002201280005000700030017013200D1
:100880000300050007000C013C0053656C656374B0
:10089000206974656D20746F2065717569707400CE
:1008A0003C53544154532000535441545320762D0B
:1008B000494E56203E4551505400B80208080504E0
:1008C0000001BE1DB3020A04070202027D1DAB0235
:1008D0000801020808033C1DA402050704080100E2
:1008E0006802640207080601030A280222021C08A3
:1008F0000A060800021E1C02140F0A07080AE0017B
:10090000DB0114140F0500009F019801140F0F0A5A
:100910000A005C013E003E003E003E003E00537473
:100920006F7265004669676874204172656E612068
:10093000426F737300526573657400426174746C26
:10094000650053746174730000F20C12020202021B
:100950000202020202020202020202020202020277
:100960000202020202020202020202020202020267
:10097000020202020202FA0602020202020202025B
:100980000202020202020205020502020202020241
:100990000202020202020202020202020202020237
:1009A0000202020202020202020202020202020227
:1009B0000202020202020202020202020202020217
:1009C00002020202120CF20000FF00000000000010
:1009D0000000000000000000000000000000000017
:1009E0000000000000000000000000000000000007
:1009F0000000000000000F102020202020202020D8
:100A000020202020202020202020202020202020E6
:100A100020202020202020202020202020202020D6
:100A200020202020202020202020202020202020C6
:100A300020202020202020202020202020202020B6
:100A4000202020202010FF0000FF000000000000F8
:100A50000000000000000000000000000000000096
:100A60000000000000000000000000000000000086
:100A70000000000000000000000000000000000076
:100A80000000000000000000000000000000000066
:100A90000000000000000000000000000000000056
:100AA0000000000000000000000000000000000046
:100AB0000000000000000000000000000000000036
:100AC000000000000000FF0000FF00000000000028
:100AD0000000000000000000000000000000000016
:100AE0000000000000000000000000000000000006
:100AF00000000000000000000000000000000000F6
:100B000000000000000000000000000000000000E5
:100B100000000000000000000000000000000000D5
:100B200000000000000000000000000000000000C5
:100B300000000000000000000000000000000000B5
:100B4000000000000000FF0000FE010000000000A7
:100B50000000000000000000000000000000000095
:100B60000000000000000000000000000000000085
:100B70000000000000000000000000000000000075
:100B80000000000000000000000000000000000065
:100B90000000000000000000000000000000000055
:100BA0000000000000000000000000000000000045
:100BB0000000000000000000000000000000000035
:100BC000000000000001FE0000FF00000000000027
:100BD0000000000000000000000000000000000015
:100BE0000000000000000000000000000000000005
:100BF00000000000000000000000000000000000F5
:100C000000000000000000000000000000000000E4
:100C100000000000000000000000000000000000D4
:100C200000000000000000000000000000000000C4
:100C300000000000000000000000000000000000B4
:100C4000000000000000FF0000FF000000000000A6
:100C50000000000000000000000000000000000094
:100C60000000000000000000000000000000000084
:100C70000000000000000000000000000000000074
:100C80000000000000000000000000000000000064
:100C90000000000000000000000000000000000054
:100CA0000000000000000000000000000000000044
:100CB0000000000000000000000000000000000034
:100CC000000000000000FF00004F3048404040405E
:100CD0004040404040404040404040404040404014
:100CE0004040404040404040404040404040404004
:100CF00040404040404040404040404040404040F4
:100D000040404040404040A040A040404040404023
:100D100040404040404040404040404040404040D3
:100D200040404040404040404040404040404040C3
:100D300040404040404040404040404040404040B3
:100D40004040404048304F004172656E61204D6127
:100D500073746572004A6F75726E65796D616E00AD
:100D60004172656E6120526F6F6B696500466173F9
:100D70007420616E6420667261696C004D61676504
:100D80000048696768204865616C746820262044C3
:100D90006566656E73650054616E6B005374726FA7
:100DA0006E672041747461636B0057617272696F82
:100DB00072000A005069636B20796F757220636C52
:100DC0006173732E00486974206220746F207374FD
:100DD00061727400000000000000000000000000CC
:100DE0000000000000000000000000000000000003
:100DF00000000000000000000000000000000000F3
:100E000000000000000000000000000000000000E2
:100E100000000000000000000000000000000000D2
:100E200000000000000000000000000000000000C2
:100E300000000000000000000000000000000000B2
:100E400000000000000000000000000000000000A2
:100E50000000000000000000000000000000000092
:100E60000008183870F0F0E0E0E0F0F0F0E0E0E0CA
:100E7000606060607070F0F0F0F0F0F070100000F2
:100E80000000000000000000000000000000000062
:100E90000000000000000000000000000000000052
:100EA0000000000000000000000000000000000042
:100EB0000000000000000000000000000000000032
:100EC0000000000000000000000000000000000022
:100ED000000000001C1C1C1C1C1C1C1C1C1C1C1CC2
:100EE0001C1C1C0000C1FFFFFFFFC78301000000A6
:100EF00000000000000000010100000080E0F0E0C0
:100F0000C000000030F0F0F07078787838181818C9
:100F100038383838101000000008081CFCF8F000C1
:100F2000000000000000000000C0F0F87830000071
:100F300010383838383870F0F0F0F0707878787011
:100F400070702000000000000000000000000000A1
:100F5000000000001C1C1C1C1C1C1C1C1C1C1C1C41
:100F600000000080FEFFFF3F1F1F0F0F0F0F0E0E30
:100F70000E0E1E1E1E0E03000080E0FCFFFF3F0F42
:100F8000000000FEFF8701000000000000207070DC
:100F9000E0E0E0E0202000000000C0FEFF7F3D1CFC
:100FA0001C1C1C183878F8FCFFFF1F010000000013
:100FB0000000000080E0F8FFFF7F0700E0E0E7E7C7
:100FC000E7E7E7E7E7E7E7E7E7E7E7E7E7E7E7E7B1
:100FD000E7E7E7E70707C7C7C78707070707272028
:100FE00030383E3F3F1F0700000070F0F0E0C08047
:100FF00000002020202030383E3F3F3F1F030000EC
:1010000000000021272F3E3C3C3C38383838383C23
:101010001E0F0701002020383C1F0F0300000000B6
:1010200040404070783C3F1F0700000000004040F7
:101030004060783E3F1F07030000003838383838DA
:101040003838383838383838383838383838383820
:101050003838383800000103070F0F0E0E0E0E0E41
:101060000E0E0E0E0E0E0E0E0E0E0ECEEFFFFF7FAC
:101070001F1E1E1E3E3E3E3E3E3E3E7E7E7E7E7ECF
:101080007E7E7EFEFEFEFEFEFCFCFCFCFCFCF8F818
:10109000F8F8F8F8F8F8F8F8F8F0F0F0F0F0F0F008
:1010A000F0F0F0F0F0E0E0E0E0E0E0E0E0E0F0F0D0
:1010B000F0F0F0F0F0F8F8F8F8F8F8F8F87C7C7C4C
:1010C0003C3C3C1C1E1E0E0E0000000000000000F8
:1010D00000000000301C1E1E0F0F0F0F0F1E3E3CA5
:1010E0003030303038181C1C1C1C3C79F9F1C0C061
:1010F000E0E0E0F070383838383870F0E0C0C0E038
:10110000E0E0E0E0604040E040C0C1C1C1C1C18159
:101110008101030303030303030303030707070713
:101120008787C7C7C7C7CF8F8F0F0F0F0F0F0F0F3F
:1011300007070703030381C1C1C0E0E0E0E0E0C0AE
:10114000C080C0E0F8FCFCFEFEFE7E3E1C1C1810B9
:10115000103060E00E0703070F0F0E0C0808181878
:10116000181C3E3E1E1E1E1C181818181023212085
:1011700000404060703838181838306061E1E1F1A3
:10118000713371F0E0C0C0E0F070313171E1C181C4
:10119000C3C7CCCCC4860606060E1E3F8FC7C3C18C
:1011A000C1C1810103070F3F1F0F040686C6C6CECB
:1011B000DCD89C0C0EC7E3F1703070F1E3C7DFE7B9
:1011C000F37131303060C0E1F3703030383C3E3E76
:1011D0001E1E0E0CD5F08D14A1C881CFD9F1AF2001
:1011E000003048B5CB838548306C766C3A00485067
:1011F000002F0000F20C120202020202020202029E
:1012000002020202020202020202020202020202BE
:1012100002020202020202020202020202020202AE
:10122000020202020202020202020202020202029E
:1012300002120DF20D120202020202020202020268
:10124000020202020202020202020202020202027E
:10125000020202FE02020202020202020202020272
:10126000020202020202020202020202020202124E
:101270000CF20000FF000000000000000000000071
:10128000000000000000000000000000000000005E
:10129000000000000000000000000000000000004E
:1012A000000000000000000000000000000000003E
:1012B000000000FF0000000000000000000000002F
:1012C000000000000000000000000000000000001E
:1012D000000000FF0000000000000000000000000F
:1012E00000000000000000000000000000000000FE
:1012F00000FF0000FF0000000000000000000000F0
:1013000000000000000000000000000000000000DD
:1013100000000000000000000000000000000000CD
:1013200000000000000000000000000000000000BD
:10133000000000FF000000000000000000000000AE
:10134000000000000000000000000000000000009D
:10135000000000FF0000000000000000000000008E
:10136000000000000000000000000000000000007D
:1013700000FF0000FF00000000000000000000006F
:10138000000000000000000000000000000000005D
:10139000000000000000000000000000000000004D
:1013A000000000000000000000000000000000003D
:1013B000000000FF0000000000000000000000002E
:1013C000000000000000000000000000000000001D
:1013D0000020C03FC020000000000000000000000E
:1013E00000000000000000000000000000000000FD
:1013F00000FF0000FF0000000000000000000000EF
:1014000000000000000000000000000000000000DC
:1014100000000000000000000000000000000000CC
:1014200000000000000000000000000000000000BC
:10143000000000FF010101010101010101010101A1
:10144000010101010101010101010101010101018C
:10145000010102010201010101010101010101017A
:10146000010101010101010101010101010101016C
:1014700001FF0000FF00000000000000000000006D
:10148000000000000000000000000000000000005C
:10149000000000000000000000000000000000004C
:1014A000000000000000000000000000000000003C
:1014B000000000FF0000000000000000000000002D
:1014C000000000000000000000000000000000001C
:1014D000000000000000000000000000000000000C
:1014E00000000000000000000000000000000000FC
:1014F00000FF0000FF0000000000000000000000EE
:1015000000000000000000000000000000000000DB
:1015100000000000000000000000000000000000CB
:1015200000000000000000000000000000000000BB
:10153000000000FF000000000000000000000000AC
:10154000000000000000000000000000000000009B
:10155000000000000000000000000000000000008B
:10156000000000000000000000000000000000007B
:1015700000FF00004F304840404040404040404065
:10158000404040404040404040404040404040405B
:10159000404040404040404040404040404040404B
:1015A000404040404040404040404040404040403B
:1015B0004048B04FB048404040404040404040402C
:1015C000404040404040404040404040404040401B
:1015D000404040404040404040404040404040400B
:1015E00040404040404040404040404040404048F3
:1015F000304F00010204081020408000000000006D
:101600003E5B4F5B3E3E6B4F6B3E1C3E7C3E1C1870
:101610003C7E3C181C577D571C1C5E7F5E1C0018CE
:101620003C1800FFE7C3E7FF0018241800FFE7DBC2
:10163000E7FF30483A060E2629792926407F05051E
:1016400007407F05253F5A3CE73C5A7F3E1C1C085B
:10165000081C1C3E7F14227F22145F5F005F5F0620
:10166000097F017F006689956A606060606094A26E
:10167000FFA29408047E040810207E201008082A87
:101680001C08081C2A08081E101010100C1E0C1E26
:101690000C30383E3830060E3E0E060000000000CA
:1016A00000005F00000007000700147F147F14246F
:1016B0002A7F2A12231308646236495620500008F4
:1016C000070300001C2241000041221C002A1C7F4D
:1016D0001C2A08083E080800807030000808080826
:1016E00008000060600020100804023E5149453E99
:1016F00000427F400072494949462141494D331813
:1017000014127F1027454545393C4A49493141214A
:101710001109073649494936464949291E0000142E
:101720000000004034000000081422411414141476
:1017300014004122140802015909063E415D594E28
:101740007C1211127C7F494949363E414141227F3A
:101750004141413E7F494949417F090909013E41D3
:101760004151737F0808087F00417F4100204041BC
:101770003F017F081422417F404040407F021C020D
:101780007F7F0408107F3E4141413E7F09090906E1
:101790003E4151215E7F09192946264949493203B4
:1017A000017F01033F4040403F1F2040201F3F403A
:1017B00038403F63140814630304780403615949F3
:1017C0004D43007F41414102040810200041414146
:1017D0007F0402010204404040404000030708002B
:1017E00020545478407F28444438384444442838AE
:1017F0004444287F385454541800087E090218A421
:10180000A49C787F0804047800447D400020404078
:101810003D007F1028440000417F40007C04780494
:10182000787C080404783844444438FC182424188C
:1018300018242418FC7C0804040848545454240434
:10184000043F44243C4040207C1C2040201C3C4061
:1018500030403C44281028444C9090907C44645480
:101860004C44000836410000007700000041360873
:101870000002010204023C2623263C1EA1A16112A3
:101880003A4040207A3854545559215555794121D0
:1018900054547841215554784020545579400C1EB9
:1018A0005272123955555559395454545939555461
:1018B00054580000457C410002457D420001457CB2
:1018C00040F0292429F0F0282528F07C54554500C3
:1018D0002054547C547C0A097F49324949493232A8
:1018E00048484832324A4848303A4141217A3A42DF
:1018F000402078009DA0A07D39444444393D4040BB
:10190000403D3C24FF2424487E4943662B2FFC2F76
:101910002BFF0929F620C0887E0903205454794101
:101920000000447D413048484A32384040227A0025
:101930007A0A0A727D0D19317D2629292F28262938
:1019400029292630484D402038080808080808088A
:1019500008382F10C8ACBA2F102834FA00007B00CA
:101960000008142A142222142A1408950022009533
:10197000AA005500AAAA55AA55AA000000FF001007
:101980001010FF00141414FF001010FF00FF1010BF
:10199000F010F0141414FC001414F700FF0000FF02
:1019A00000FF1414F404FC141417101F10101F105F
:1019B0001F1414141F00101010F0000000001F105E
:1019C0001010101F10101010F010000000FF101069
:1019D00010101010101010FF10000000FF14000075
:1019E000FF00FF00001F10170000FC04F414141780
:1019F00010171414F404F40000FF00F71414141466
:101A0000141414F700F7141414171410101F101FD7
:101A1000141414F4141010F010F000001F101F0024
:101A200000001F14000000FC140000F010F0101063
:101A3000FF10FF141414FF141010101F00000000FA
:101A4000F010FFFFFFFFFFF0F0F0F0F0FFFFFF00EE
:101A500000000000FFFF0F0F0F0F0F384444384401
:101A60007C2A2A3E147E02020606027E027E026361
:101A7000554941633844443C04407E201E20060200
:101A80007E020299A5E7A5991C2A492A1C4C7201DD
:101A9000724C304A4D4D303048784830BC625A461E
:101AA0003D3E494949007E0101017E2A2A2A2A2A0F
:101AB00044445F444440514A444040444A514000F9
:101AC00000FF0103E080FF000008086B6B0836127E
:101AD000362436060F090F06000018180000001003
:101AE00010003040FF0101001F01011E00191D17E9
:101AF00012003C3C3C3C0000000000080B000202CD
:101B00000201000904000001020200000524001087
:101B10000105240101010424020605240600010731
:101B200005810310004009040100020A00000007BB
:101B3000050202400000070583024000000403097B
:101B40000412010002EF020140412336800001012E
:101B500002030141726475696E6F204C4C43004171
:101B6000726475626F7900796F75277665206C6F86
:101B70007374203220636F696E7300526573742032
:101B8000796F757220776F756E6473005468652085
:101B90004172656E61205069747469657320796F54
:101BA00075004220746F2072657475726E20746FB8
:101BB000206D656E7500596F7520686176652046E9
:101BC00061696C6564004220746F2072657475727F
:101BD0006E20746F206D656E7500617320796F756E
:101BE00072207072697A650074616B6520322063BF
:101BF0006F696E7300566963746F727900506F7409
:101C0000696F6E004D6167696300446566656E6467
:101C10000041747461636B004D61676963007573A3
:101C200065642000546865206D6F620041747461C2
:101C3000636B656400546865206D6F62004465667F
:101C4000656E64656400546865206D6F6200636F43
:101C50006E74696E756500000080C0C0E0E0E070E1
:101C600070F8787070F07010000000000000000044
:101C7000000000000000000000000000001070F0F4
:101C80007070F070F0F0F0E0E0C0C0808080801EE6
:101C9000FF0303FFFFFF000000FF000000FF000044
:101CA0000000000000000000000000000000000034
:101CB00000000000000000FF0000FF0000FFFFFF29
:101CC0000101FF0303FF07807F40404F3FAFA0505B
:101CD000505F50E8E8EFE8E8808080808080808076
:101CE000808080808080808080808080E8E8E8CF6D
:101CF000E8E8EFD0D0DFDFAFA0407F4080FF003EBC
:101D0000BFFEF4F5B3B3BBB999ABABABAFBF7D7559
:101D100071535DDDDDDDD9DBD6F77B77BBB7B7B5BA
:101D20009D949C9C9C3C7F6F6F5D797D7D7D3DB9D2
:101D3000F7EFEFEDDCBE7D68703A20000000800018
:101D40000000001050DCFE19100000000000000030
:101D50000001FE0978381818F8FBFFF8F0000000C1
:101D60000000000000000F00000000000F0F0F0F28
:101D70000F0E0C08080000004D61676500000006AA
:101D80006BF4F87C7CBC7C7CBC7C7CF8F46B06003F
:101D90000078A414FC14ABFFFEEED6AED6EEFFFB2B
:101DA0002438F0E00000000101010F0B050B0D0FBE
:101DB0000B050B0F00070F0F0754616E6B0000FC43
:101DC00002F9FE000000E0B0B8F8EC0000000000EE
:101DD000000004073C1F373418B8EDF7BFE7FDB823
:101DE00018F0E000000000000000000C0F0F0301DD
:101DF0000101030F0C080000000057617272696F47
:101E00007200F00C8262F1D96975B56565A57569D6
:101E1000D9F162820CF007C833889C252B4A5252B4
:101E200052524A2B259C8833C807000304080B082C
:101E3000090A0A0A0A0A0A09080B08040300FA1D1B
:101E40000D0D06060201BE1DB91D14050A0203028E
:101E50007D1D781D080503020C033C1D6527112418
:101E60001FBECFEFDAE0DEBFCDBF11E0A0E0B1E0F2
:101E7000EAE7F5E502C005900D92AE36B107D9F755
:101E800026E0AEE6B1E001C01D92A832B207E1F74C
:101E90001FE0CFE2DFE004C02197FE010E949C2AF0
:101EA000CE32D107C9F70E949D1E0C94BB2A0C9418
:101EB0000000CF92DF92EF92FF920F931F93CF9388
:101EC000DF936C017A018B01C0E0D0E0CE15DF0515
:101ED00089F0D8016D918D01D601ED91FC910190B1
:101EE000F081E02DC6010995892B11F47E0102C015
:101EF0002196ECCFC701DF91CF911F910F91FF90F9
:101F0000EF90DF90CF9008953FB7F89480917501DE
:101F100090917601A0917701B091780126B5A89BA8
:101F200005C02F3F19F00196A11DB11D3FBFBA2F6B
:101F3000A92F982F8827820F911DA11DB11DBC01CB
:101F4000CD0142E0660F771F881F991F4A95D1F790
:101F500008950895089580E090E00895EF92FF922B
:101F60000F931F93CF93DF9300D000D000D0CDB755
:101F7000DEB7DC016D837E83ED81FE813396E590D3
:101F8000F49050E01496ED91FC911597349665917C
:101F9000749112962C91129730E0E49EC001E59E58
:101FA000900D11249595879595958795480F591F04
:101FB00056954795629FC001639F900D112495959A
:101FC000879595958795280F391F36952795421B3C
:101FD000530B401B510B8D919C91119714161506B4
:101FE0001CF4841B950B01C001978D939C9326963E
:101FF0000FB6F894DEBF0FBECDBFDF91CF911F911A
:102000000F91FF90EF9008950E94B62A8F929F92B1
:10201000AF92BF92CF92DF92EF92FF926B017C0161
:102020000E94840F4B015C01C114D104E104F1044E
:10203000F1F00E94840FDC01CB0188199909AA09EB
:10204000BB09883E9340A105B10570F321E0C21A97
:10205000D108E108F10888EE880E83E0981EA11CE3
:10206000B11CC114D104E104F10419F7DDCFFF90D4
:10207000EF90DF90CF90BF90AF909F908F9008959A
:10208000BC0180E090E00C9406101F920F920FB6F6
:102090000F9211242F933F938F939F93AF93BF93EE
:1020A00080916E0190916F01A0917001B0917101CA
:1020B0003091740123E0230F2D3720F40196A11DE8
:1020C000B11D05C026E8230F0296A11DB11D209366
:1020D000740180936E0190936F01A0937001B0938F
:1020E00071018091750190917601A0917701B09175
:1020F00078010196A11DB11D809375019093760121
:10210000A0937701B0937801BF91AF919F918F9188
:102110003F912F910F900FBE0F901F9018958FB188
:102120002CB193B130E02095309520743327A9016C
:1021300023E0559547952A95E1F7292F30E0209522
:102140003095207133273595279535952795242B84
:102150008095807F822B089560387105D0F44034DB
:102160005105B8F4E3EFF5E180E1849FD001A07858
:102170001124A60F4770E40FF11D8491AE55BE4F98
:10218000222319F06C91862B03C080956C918623D5
:102190008C9308952F923F924F925F926F927F920D
:1021A0008F929F92AF92BF92CF92DF92EF92FF9267
:1021B0000F931F93CF93DF93CDB7DEB729970FB659
:1021C000F894DEBF0FBECDBFFC016A3069F4248DE8
:1021D000808D918D38E0239F800D911D1124918F6A
:1021E000808F178A168AAAC06D3009F4A7C0998714
:1021F0008887F48C338C228C608C718C06891789CB
:1022000000381105C4F0A885B9855C962C915C97BF
:10221000422F50E056968D919C915797B6E02B9F98
:10222000800D911D1124E885F985978B868B258D6E
:1022300021116EC083C0F0E46F16710424F7C80149
:1022400025E0F29E800D911D112418161906DCF66A
:102250008F2D90E09C838B83C301A8E0FA9E800DB4
:10226000911D11241816190674F6B5E06B9FB00184
:102270001124FB01E550FA4EFA83E98330E08885AA
:10228000998504969E838D83E981FA81E4903530A7
:1022900009F4E12C430188E0482EE0FC02C0532CF5
:1022A00001C0522C51100BC0321009C0E6944A9460
:1022B0008B819C81880E991E4110EFCF1BC0680155
:1022C0008C2D801B8F1590F754018A2D88198F153E
:1022D00068F4252DA501B6018D819E813F830E9462
:1022E000AC109FEFA91AB90A3F81EFCFAFEFCA1A1E
:1022F000DA0AE6CF3F5FEB81FC810E0F1F1F898159
:102300009A8101969A838983363009F0BDCF7BCFBD
:102310006AEF64039001659F300D112420583F4FF0
:10232000281739075CF4A885B985ED91FC911197C0
:102330000190F081E02D6AE0CD01099581E090E007
:1023400029960FB6F894DEBF0FBECDBFDF91CF91B7
:102350001F910F91FF90EF90DF90CF90BF90AF90C3
:102360009F908F907F906F905F904F903F902F90B5
:102370000895DC0181E012968C93129784E690E038
:1023800017969C938E93169751961C9251971F9671
:102390001C921E921E9715967C936E931497FB01C8
:1023A00032968591949199279595879595958795DE
:1023B000019611969C938E93695F7F4FFB018591E7
:1023C000949118968C9318971A961C921A971B96AC
:1023D0001C921B971C961C921C971D961C921D9775
:1023E000FB018591949119968C9308950F9300E4C5
:1023F00020E843EF51E160E070E080E090E00E946F
:10240000391C0F9108950F93CF93DF9383E490E0ED
:102410009093D1058093D00584E290E09093D3050A
:102420008093D2058091A8059091A9050E94581E1D
:1024300081EF91E10E94181CE091AC05F091AD058F
:102440003296259134918091AA0590E0289FB001A1
:10245000299F700D11247595679575956795680F7F
:10246000791F80E090E04AE00E94F01D8EEE91E13D
:102470000E94181CE091AC05F091AD05389645918D
:10248000549104E124E166E070E084E690E00E946B
:10249000391C1092D1051092D005C2E3D0E0D09340
:1024A000D305C093D20520E330E04AE750E060E373
:1024B00070E083E490E00E946B1D2AE330E04AE77D
:1024C00050E06AE370E083E490E00E946B1D2AE331
:1024D00030E043E450E060E370E083E490E00E9489
:1024E0006B1D2AE330E04AE750E060E370E08AE7E2
:1024F00090E00E946B1D82E490E09093D105809360
:10250000D00586E090E09093D3058093D20589EEC4
:1025100091E10E94181C88E590E09093D10580938A
:10252000D0058DE090E09093D3058093D205609123
:10253000A40570E080E090E04AE00E94F01D86E48F
:1025400090E09093D1058093D005D093D305C093AC
:10255000D2058091B905813049F408E028E041EEC8
:1025600051E167E170E086E490E013C0823099F4B5
:1025700008E028E041EE51E167E170E086E490E098
:102580000E94391C28E041EE51E167E170E080E5EE
:1025900090E00E94391CDF91CF910F91089521E0C6
:1025A00030E04BE750E061E070E083E090E00E94B3
:1025B0006B1D2EE330E04BE750E06EE370E083E00C
:1025C00090E00E946B1D2CE330E041E050E064E0BD
:1025D00070E081E090E00E946B1D2CE330E04EE75C
:1025E00050E064E070E08EE790E00E946B1D21E017
:1025F00030E041E050E064E070E083E090E00E9471
:102600006B1D21E030E04EE750E064E070E08CE7C5
:1026100090E00E946B1D2EE330E04EE750E06CE34B
:1026200070E08CE790E00E946B1D2EE330E041E00B
:1026300050E06CE370E083E090E00C946B1D0F932E
:102640001F93CF93DF93DC01EB014115510581F519
:10265000CB012130310599F4EC81FD81349645910F
:1026600054912A8130E0429F8001439F100D112434
:102670001595079515950795020F131F04C0232B79
:10268000A1F400E010E02C9111963C911197129664
:102690004C91129713965C91139714966C91149722
:1026A00015967C910E94AE0F3EC002E010E0EBCF89
:1026B0004330510509F037C01496ED91FC91159700
:1026C000369685919491FC01459154912A8130E090
:1026D000EC81FD81369665917491429FC001439FC4
:1026E000900D11249595879595958795820F931F49
:1026F00096958795629FA001639F500D1124559573
:10270000479555954795240F351F36952795821B7C
:10271000930B181619063CF428813981F901E81B3E
:10272000F90BF983E883DF91CF911F910F91089501
:102730000F931F93CF93DF9381EC80937C0085B13F
:10274000806F85B9249884B1866E84B95E9A5F984B
:102750008AB1806D8AB9769A6E9881B3806F81BB99
:10276000899880B38D7080BB80E58CBD81E08DBD84
:1027700085E090E00E9440105F9A85E090E00E9422
:1027800040105E985C98E4EDF1E18DE08E0F94913D
:102790009EBD00000DB407FEFDCF31968E13F7CF1E
:1027A0005C9A81E88093640081E08093650081E217
:1027B0008093C505809164008E7F80936400809132
:1027C0007A00806480937A0080917A0086FDFCCF45
:1027D000C0917800D09179000E94840F8E0120E092
:1027E00030E0980111270027600F711F821F931F8F
:1027F000611571058105910511F00E94762880917F
:1028000064008160809364001092870110928601B9
:10281000DF91CF911F910F910C94381DCF93DF93CF
:10282000DC0112966C93129715965C934E93149755
:10283000EA01EA81F0E02591349170E0269FC00121
:10284000279F900D11249595879595958795680FED
:10285000791F6D937C93DF91CF910895CF93DF9390
:102860001F92CDB7DEB76983DC01ED91FC91028048
:10287000F381E02D41E050E0BE016F5F7F4F09958D
:102880000F90DF91CF91089583E08093E9008091CC
:10289000F200882319F08AE38093E8000895FC0190
:1028A0008485958597FD0BC09FB7F89482E080934F
:1028B000E9008091F2009FBF90E0019608959FB7D4
:1028C000F89482E08093E9008091F2009FBF90E04D
:1028D00008958F929F92AF92BF92CF92DF92EF9224
:1028E000FF920F931F93CF93DF935C016B017A01EB
:1028F00080910B01882309F45BC0809182018823B9
:1029000009F456C080917F0180FF05C08091E000EE
:1029100082608093E000E70110E00AEF83E0882EF8
:102920009AE3992E2097D9F10E94E81B81110AC0E1
:10293000015009F43DC061E070E080E090E00E9449
:102940000610F0CF282F30E0C217D3070CF48C2FDD
:102950004FB7F8948092E9009091E80095FF1DC070
:10296000282F30E0C21BD30BF601982F915020F096
:1029700081918093F100FACFC20ED31E112319F07A
:102980009092E80009C08091E80085FD06C0909211
:10299000E80011E0209709F010E04FBFC3CF1111FC
:1029A000C3CF5D9884E6809380011E141F0444F019
:1029B00081E090E0F5019383828380E090E001C0A4
:1029C000C701DF91CF911F910F91FF90EF90DF90A2
:1029D000CF90BF90AF909F908F9008950E94E81B7A
:1029E00090E00895CF93DF931F92CDB7DEB7FC013F
:1029F0008485958597FD05C02FEF3FEF35872487A8
:102A00000BC0CE0101960E94BE1B019719F489816B
:102A100090E002C08FEF9FEF0F90DF91CF9108956C
:102A20000F931F93CF93DF931F92CDB7DEB78C0127
:102A3000FC018485958597FF0EC0CE0101960E940A
:102A4000BE1B019719F4298130E002C02FEF3FEF40
:102A5000F80135872487F801848595850F90DF91EB
:102A6000CF911F910F910895CF92DF92EF92FF9235
:102A70000F931F93CF93DF931F92CDB7DEB7182F1D
:102A8000062FE42E862F880F8E5F99830E94621E88
:102A900083E00E94621EF12EC12E9981D92E8C2DC9
:102AA0008F19801798F4F601E7FE02C0849101C0E7
:102AB00080810E94621E182F80E00E94621E812386
:102AC000FFEFCF1ADF0A8111EACF01C081E00F903A
:102AD000DF91CF911F910F91FF90EF90DF90CF90FA
:102AE0000895DF92EF92FF920F931F93CF93DF939E
:102AF000D82E8A017B01E40EF51EEB01CE15DF0511
:102B000071F0D7FE03C0FE01849101C088810E944C
:102B1000621E21968111F2CF8FEF9FEF01C0C80195
:102B2000DF91CF911F910F91FF90EF90DF9008956B
:102B30000F931F93CF93DF931F92CDB7DEB782E041
:102B4000898342E450E06BEF7AE180E80E947115DE
:102B50000E94F91BDC0112960D911C91139701152F
:102B6000110569F0D801ED91FC910280F381E02D0F
:102B7000BE016F5F7F4FC801099597FF07C089812C
:102B80000F90DF91CF911F910F910895F80100856B
:102B90001185E5CF1F920F920FB60F9211248F93DC
:102BA0009F938091E1009091E100937F9093E100E9
:102BB00083FF0FC01092E90091E09093EB00109218
:102BC000EC0092E39093ED001092820198E09093D4
:102BD000F00082FF20C093E09093E9009091F20012
:102BE000992319F09AE39093E8009091800199233A
:102BF00039F090918001915090938001992389F14F
:102C000090918101992339F0909181019150909395
:102C10008101992341F184FF10C08091E2008E7EF2
:102C200081608093E2008091E1008F7E8093E100DB
:102C300080917F018E7E806111C080FF16C08091DF
:102C4000E2008E7E80618093E2008091E1008E7EC2
:102C50008093E10080917F018E7E816080937F016F
:102C600004C05D9ACDCF289AD6CF9F918F910F90B7
:102C70000FBE0F901F9018951F920F920FB60F92D4
:102C80001124CF92DF92EF92FF920F931F932F9315
:102C90003F934F935F936F937F938F939F93AF93E4
:102CA000BF93EF93FF93CF93DF93CDB7DEB76C97CE
:102CB000DEBFCDBF1092E9008091E80083FFEDC137
:102CC00068E0CE0145960E94901E82EF8093E80056
:102CD0008D8987FF05C09091E80090FFFCCF03C06D
:102CE0009EEF9093E800982F907609F0C6C09E89D9
:102CF0002F89188D91110CC0803829F480917E01A4
:102D00008093F10002C01092F1001092F10048C1CE
:102D1000422F50E0512B913051F4811141C141308B
:102D2000510509F03DC180917E018D7F0BC093302C
:102D300061F4811135C14130510509F031C18091F3
:102D40007E01826080937E012BC1953041F4809199
:102D5000E80080FFFCCF20682093E30021C196307B
:102D600009F05FC0EB8CFC8C1092E90010927C01A2
:102D700010927B01123091F510927A011092790134
:102D80000E94981599E0BE016F5F7F4FDB01E92F2C
:102D90001D92EA95E9F799831A8391E09E8390EA60
:102DA00098879AEF998720917B0130917C01275F6A
:102DB0003F4F3C832B838D831092E90010927C015E
:102DC00010927B01F0927A01E092790149E050E0A3
:102DD00080E00E9471150E949815E2C0F0927A017D
:102DE000E09279010E94F91BDC011296ED90FC90B3
:102DF0001397E114F10409F4C0C0D701ED91FC91DF
:102E00000480F581E02DBE016B5E7F4FC7010995FF
:102E1000009719F00CF0C4C0C7C0F701E084F1843A
:102E2000E8CF973009F4C0C0983021F481E0809356
:102E3000F100B6C0993009F0B3C0837009F0B4C096
:102E4000EBE1F1E081E021E036E39081992361F04C
:102E50008093E9002093EB0091919093EC003093E4
:102E6000ED008F5F873089F78EE78093EA0010923C
:102E7000EA008F898093820193C08B8D9C8D109284
:102E8000E90010927C0110927B0190937A0180936B
:102E90007901898D811156C08E899D89913A59F4A5
:102EA000813209F081C047E050E064E071E080E0E9
:102EB0000E94711575C0913209F076C0833289F491
:102EC000888D90E0982F88272F89822BA0E0B0E092
:102ED0008093000190930101A0930201B09303013C
:102EE0005FC0803269F48091E80082FFFCCF67E028
:102EF00084E091E00E94901E8BEF8093E80006C072
:102F0000823209F04DC08F8980930B0180917D0141
:102F1000882319F0EEEFFAE002C0E0E0F8E08091DB
:102F2000040190910501A0910601B0910701803B39
:102F30009440A105B10509F07BC080910B0180FF91
:102F400093C076C00E94F91BDC0112960D911C9172
:102F500013970115110541F1D801ED91FC910190F4
:102F6000F081E02DBE016B5E7F4FC8010995811194
:102F700017C0F80100851185ECCF113009F44EC05F
:102F8000133091F48F89882309F445C0823081F48D
:102F900040E867E08FE59BE10E943415882321F02B
:102FA0008EEF8093E80079C081E28093EB0075C0DA
:102FB000813029F440E86BE083E59BE1EDCF83307D
:102FC00099F70E94F91BDC011296ED90FC90139783
:102FD0008E010F5F1F4F6801E114F10479F0D701F2
:102FE000ED91FC910680F781E02DB801C7010995AC
:102FF000080F111DF701E084F184EECFD8011C9277
:10300000F60101900020E9F73197BF016C197D09A5
:1030100040E0C601C1CF6DE37BE102C061E47BE12A
:103020006115710509F2FB01449150E080E840CF41
:103030000FB6F894A8958091600088618093600035
:10304000109260000FBEA895EE3F2AE0F20739F01B
:103050008091FE0A9091FF0A91838083A1CF109204
:10306000FF0A1092FE0A9CCFEE3F8AE0F80731F08B
:10307000808191819093FF0A8093FE0A87E797E70A
:10308000918380839BE088E10FB6F894A8958093A4
:1030900060000FBE9093600083CF6C960FB6F894DB
:1030A000DEBF0FBECDBFDF91CF91FF91EF91BF91FA
:1030B000AF919F918F917F916F915F914F913F91D0
:1030C0002F911F910F91FF90EF90DF90CF900F9075
:1030D0000FBE0F901F9018950F931F93CF93DF9300
:1030E0008091A8059091A905181619060CF070C2D8
:1030F0008091A2059091A305181619060CF0D4C171
:103100000E94381DC6E0D0E0D093D105C093D00511
:1031100084E090E09093D3058093D205E091A605DA
:10312000F091A705859194910E94181CD093D10528
:10313000C093D0058EE090E09093D3058093D205A4
:1031400087E39DE10E94181C6091A2057091A30580
:10315000072E000C880B990B97FF03C00E94311EAD
:1031600003C04AE00E94F01D86E691E00E944B1DDC
:1031700000E228E347E55CE16BE170E085E090E088
:103180000E94391CE091A605F091A705389645915B
:10319000549104E124E16DE170E086E190E00E9449
:1031A000391C0E94F6110E9403128091A101811125
:1031B000FDC080919F019091A001009709F074C01B
:1031C00010929B018091880190918901049724F0CD
:1031D0001092890110928801809188019091890153
:1031E00097FF06C083E090E0909389018093880167
:1031F00080918801909189018130910571F02CF4C2
:10320000892B91F481E19CE10DC08230910541F060
:10321000039751F48DEF9BE105C08AE09CE102C069
:1032200084E09CE10E94181C88E00E940D1C882309
:10323000B9F080918A01811113C081E080938A01E5
:1032400080918801909189018130910509F04EC2E9
:1032500090939801809397019093A00180939F0190
:103260000E94132863E070E00E94882A8130910553
:1032700079F048F08230910509F057C290939A0195
:10328000809399010EC010929A011092990109C081
:1032900090939A018093990190939E0180939D0150
:1032A00044C281E090E0F8CF019709F03EC28091DE
:1032B0009D0190919E01019709F037C2E091AC0504
:1032C000F091AD053596A591B4912091AA0530E015
:1032D000E091A605F091A7053596659174918091CE
:1032E000A40590E0A29FA001A39F500D1124559525
:1032F000479555954795240F351F689FA001699FF5
:10330000500D11245595479555954795840F951F58
:103310008217930720F481E080939C0102C01092F1
:103320009C0190919C0180919B019923C9F081118E
:10333000FCC1C0919901D0919A010091970110911F
:1033400098019E01A80162EA75E088EA95E00E9472
:103350001F139801AE0168EA75E082EA95E018C093
:103360008111E3C1C0919701D09198010091990119
:1033700010919A019E01A80168EA75E082EA95E041
:103380000E941F139801AE0162EA75E088EA95E099
:103390000E941F1381E080938A0180939B01109209
:1033A000A00110929F018093A101BFC1813009F05B
:1033B000BCC10E94381D0E94F6110E94031286E4CF
:1033C00090E09093D1058093D00582E390E09093B4
:1033D000D3058093D2058EE49CE10E94181CC6E0C0
:1033E000D0E0D093D105C093D00584E090E09093D5
:1033F000D3058093D2058091990190919A018130F3
:10340000910589F486E49CE10E945D1DD093D1056D
:10341000C093D0058EE090E09093D3058093D205C1
:103420008DE39CE131C0892B89F485E39CE10E9406
:103430005D1DD093D105C093D0058EE090E09093B0
:10344000D3058093D2058CE29CE11EC084E29CE10E
:103450000E945D1DD093D105C093D0058EE090E011
:103460009093D3058093D2058EE19CE10E945D1D6F
:10347000D093D105C093D00588E190E09093D30517
:103480008093D20588E19CE10E945D1D88E00E9446
:103490000D1C882309F449C180918A01811145C11D
:1034A00081E080938A013FC10E94381D0E94CF12A3
:1034B00084E190E09093D1058093D0059093D3055B
:1034C0008093D20585EF9BE10E945D1DCFE0D0E0A7
:1034D000D093D105C093D0058EE190E09093D305B1
:1034E0008093D20588EE9BE10E945D1DD093D105AB
:1034F000C093D00588E290E09093D3058093D205E5
:103500008AED9BE10E945D1D8AE090E09093D105D9
:103510008093D00582E390E09093D3058093D20509
:1035200086EC9BE10E945D1D84E00E940D1C8823B7
:1035300009F4F9C082E090E09093870180938601BE
:10354000109285018091AE059091AF0502969093FF
:10355000AF058093AE058091A4052091B6059091AA
:10356000B705C22FD92FC80FD11DC80FD11DD093B9
:10357000B705C093B6051091AA05612F70E080E0F1
:1035800090E00E948D299B01AC010E941B2A20E043
:1035900030E040E450E40E941B2A20E030E040E8A4
:1035A00050E40E94EB280E9457296C177D0718F4FD
:1035B0001F5F1093AA0580918401813009F0B3C088
:1035C000809183018F5F8093830110928401ABC04F
:1035D0000E94381D0E94CF12CAE0D0E0D093D105DE
:1035E000C093D00584E190E09093D3058093D205F9
:1035F00086EB9BE10E945D1DD093D105C093D00561
:103600008EE190E09093D3058093D20582EA9BE10E
:103610000E945D1D8091AE059091AF05D093D105BC
:10362000C093D005892BC9F488E290E09093D3052C
:103630008093D2058CE89BE10E945D1DD093D1055B
:10364000C093D00582E390E09093D3058093D20598
:103650008BE79BE10E945D1D0AC088E290E0909399
:10366000D3058093D20587E69BE10E94181C84E075
:103670000E940D1C882309F456C082E090E09093CC
:1036800087018093860110928501E091AC05F0914D
:10369000AD053296459154918091AA0590E0489FDE
:1036A0009001499F300D1124359527953595279523
:1036B000820F931F9093A9058093A80580918401A0
:1036C000813011F4109284018091AE059091AF0584
:1036D0008230910530F002979093AF058093AE054C
:1036E00022C01092AF051092AE051DC08230910528
:1036F00044F4892B09F0B4CD1092980110929701EF
:1037000009C08230910549F483E090E090939801DC
:103710008093970181E090E09FCD039709F0A0CDC1
:1037200084E090E0F3CF1092A101DF91CF911F913F
:103730000F910895CF93DF93BC0180E090E04AE0C1
:103740000E94F01DEC0186E691E00E944B1D8C0F5B
:103750009D1FDF91CF9108958091A2018EBDE3EA74
:10376000F1E081910DB407FEFDCF8EBD85E0E23A18
:10377000F807B9F70DB407FEFDCF0895FC0180915D
:103780008201811103C08FEF9FEF08959FB7F894D6
:1037900082E08093E9002091F20030E012161306D7
:1037A00014F421E030E02115310559F0289884E621
:1037B000809381018091F10080838091F2008823C1
:1037C00019F09FBFC90108958BE68093E800F9CFF7
:1037D0002FB7F89483E08093E9009091E800892F57
:1037E000807295FF04C09091F20080E4891B2FBF86
:1037F000089580918F0181110DC082E080938B012B
:1038000084E080938C0110928E0110928D0181E0F2
:1038100080938F018BE891E008952091C4052823BF
:1038200029F49091C305982381E009F480E008957C
:103830000F931F93CF93DF938C01C0E0D0E0F8018A
:10384000EC0FFD1F6491662371F0E091BA05F091D1
:10385000BB050190F081E02D8AEB95E00995892B5D
:1038600011F02196ECCFCE01DF91CF911F910F91F6
:1038700008952F923F924F925F926F927F928F9214
:103880009F92AF92BF92CF92DF92EF92FF920F93EF
:103890001F93CF93DF93CDB7DEB728970FB6F89479
:1038A000DEBF0FBECDBF5A01822E912C9C01280D88
:1038B000391D37FDC4C0803891050CF0C0C09B0194
:1038C000200F311D37FDBBC0603471050CF0B7C04F
:1038D000AB0177FF04C044275527461B570B4770A1
:1038E00055279B0177FF02C0295F3F4FE3E03595E5
:1038F0002795EA95E1F777FF08C02150310968E084
:1039000070E0DB01A41BB50BAD01602F66956695D9
:10391000669570E0077011F06F5F7F4FDB01A20FBB
:10392000B31FBA83A98339017694762C66247794E1
:103930006794680E791EE12CF12C00E010E0230161
:10394000B0E84B0E511C68E070E0DB01A41BB50B26
:10395000BC83AB8369817A812617370709F46FC06E
:103960002830310509F46BC02F3FBFEF3B070CF443
:103970005BC0B201600F711FDB01AE55BE4FBE834D
:10398000AD83D801A60DB71DAE55BE4F6C0160E0EA
:1039900070E0681579050CF047C0E0E8CE16D10458
:1039A00009F442C0D7FC34C02F3FFFEF3F0709F4B2
:1039B00042C0FB01EE0DFF1DEA0DFB1DE491042E3C
:1039C00001C0EE0F0A94EAF73C90E329EC9341150D
:1039D0005105F1F027303105D9F0FB01EE0DFF1D47
:1039E000EA0DFB1DE4912E2E312CF1010B8002C05B
:1039F000F595E7950A94E2F7F887EF83ED81FE816C
:103A00003080EF81F885E3291F01ED81FE8120825E
:103A10006F5F7F4FED81FE813196FE83ED83FFEF77
:103A2000CF1ADF0A1196B5CF2F5F3F4F00581F4FB7
:103A3000E80CF91C8FCF4115510579F6E9CF28968E
:103A40000FB6F894DEBF0FBECDBFDF91CF911F91AF
:103A50000F91FF90EF90DF90CF90BF90AF909F902D
:103A60008F907F906F905F904F903F902F90089530
:103A700080E0E2EAF1E081118FEF002481938193ED
:103A8000819381930394D1F7EAEBF5E0118E108EC8
:103A9000178A168A0895009769F0FC0101900020AA
:103AA000E9F73197AF01481B590BBC018AEB95E050
:103AB0000C94590F80E090E00895CF93DF930E941B
:103AC000181CEC0186E691E00E944B1D8C0F9D1F97
:103AD000DF91CF9108955F926F927F928F929F9224
:103AE000AF92BF92CF92DF92EF92FF920F931F930C
:103AF000CF93DF93EC018B017A01A901461B570B91
:103B000057FF03C0519541955109C7018C1B9D0B6F
:103B100097FF03C09195819591095524539484177B
:103B2000950714F0512C0AC09E2D8F2D7901292F55
:103B3000382F9C2F8D2FE801092F182FEC16FD062A
:103B400054F4902F812F8901292F382F9C2F8D2FEE
:103B5000E701E92EF82E37016C1A7D0A5901A01AE7
:103B6000B10AB7FE03C0B194A194B108630177FE16
:103B700003C08FEFC81AD80AD594C7940217130749
:103B800014F08FEF01C081E0882E880F9908EC16A1
:103B9000FD06B4F021E0552019F0AE01B80102C0D5
:103BA000A801BE018EEB95E00E94AC10CA18DB089C
:103BB000D7FE04C0080D191DC60CD71C2196E7CFEF
:103BC000DF91CF911F910F91FF90EF90DF90CF90F9
:103BD000BF90AF909F908F907F906F905F9008956F
:103BE0008F929F92AF92BF920F931F93CF93DF93C9
:103BF000CDB7DEB7A1970FB6F894DEBF0FBECDBF2D
:103C000019A2423008F44AE08E010F5D1F4F842E46
:103C1000912CA12CB12CA50194010E94B928E62F6A
:103C2000B901CA0101501109EA3014F4E05D01C084
:103C3000E95CD801EC93232B242B252B61F7C801D9
:103C40000E944B1DA1960FB6F894DEBF0FBECDBFEC
:103C5000DF91CF911F910F91BF90AF909F908F9068
:103C60000895CF92DF92EF92FF92CF93DF936B0193
:103C70007C01E091BA05F091BB050190F081E02D47
:103C80006DE28AEB95E00995EC0166277727CB0179
:103C90006C197D098E099F094AE00E94F01D8C0F66
:103CA0009D1FDF91CF91FF90EF90DF90CF9008950F
:103CB000BC01990F880B990B97FD0C94311E4AE0BB
:103CC0000C94F01D40917B0150917C012091790171
:103CD00030917A0142175307B4F49091E80095703F
:103CE000E1F39091E80092FD19C08093F10080917A
:103CF0007B0190917C0101968F739927892B19F490
:103D00008EEF8093E80080917B0190917C01019679
:103D100090937C0180937B0181E0089580E0089579
:103D2000615030F02091F100FC0120830196F8CF22
:103D3000289884E6809381010895CF93DF93CDB7CF
:103D4000DEB764970FB6F894DEBF0FBECDBF789490
:103D500084B5826084BD84B5816084BD85B5826090
:103D600085BD85B5816085BD80916E008160809341
:103D70006E001092810080918100826080938100AA
:103D800080918100816080938100809180008160BA
:103D90008093800080919100826080939100809157
:103DA0009100816080939100809190008160809368
:103DB00090008091C10084608093C1008091C10017
:103DC00082608093C1008091C10081608093C100B6
:103DD0008091C30081608093C3008091C0008260A5
:103DE0008093C0008091C20081608093C200809166
:103DF0007A00846080937A0080917A008260809358
:103E00007A0080917A00816080937A0080917A00B4
:103E1000806880937A001092820110927E01109245
:103E20007F018091D70081608093D70080EA8093E2
:103E3000D80089B5806189BD89B5826089BD09B422
:103E400000FEFDCF61E070E080E090E00E9406108F
:103E50008091D8008F7C80618093D8008091E000B1
:103E6000807F8093E0008091E1008E7E8093E1006E
:103E70008DE08093E200559A209AEEEFFFE785915E
:103E800094918B3F9C4D19F481E080937D010E94B9
:103E9000981359E2A52EB12C65E0862E912C9AE05C
:103EA000592E24E0E22EF12C32E0C32ED12C4CE02E
:103EB000242E312C2FB7F89480916E0190916F01D0
:103EC000A0917001B09171012FBF4091CA0550912E
:103ED000CB056091CC057091CD052091CE052223B4
:103EE00041F02091C605821B8093CF051092CE052C
:103EF000BDC684179507A607B70778F4481B42305C
:103F000008F4B4C683B7817F83BF83B7816083BF62
:103F1000889583B78E7F83BFA9C621E02093CE0505
:103F20008093C6059093C705A093C805B093C905B3
:103F30002091C505820F911DA11DB11D8093CA0559
:103F40009093CB05A093CC05B093CD058091C1058E
:103F50009091C20501969093C2058093C10580910E
:103F6000C3058093C4050E948F108093C30580E829
:103F70000E940D1C882349F080918801909189014D
:103F80000197909389018093880180E10E940D1C24
:103F9000882349F08091880190918901019690933E
:103FA0008901809388010E948F1083FF10928A01FB
:103FB000E0918601F0918701E830F10508F054C6E0
:103FC000EA5AFF4F0C949C2A0E94381D00E420E816
:103FD00044ED5DE060E070E080E090E00E94391C1C
:103FE00089E190E09093D1058093D0051092D3059C
:103FF0001092D20585EC9DE00E94181C84E00E947E
:104000000D1C882309F430C681E090E0909387016D
:1040100080938601109289011092880125C66EE373
:104020007EE1CE0101960E94B91182E1FE01319636
:10403000A8EAB5E001900D928A95E1F70E94381D3B
:104040000E94CF12F092D105E092D00583E090E07B
:104050009093D3058093D20584EB9DE00E94181CB9
:1040600082EB9DE00E94181C2DE030E04FE750E00D
:104070006DE070E081E090E00E946B1DF092D10550
:10408000E092D0058FE090E09093D3058093D20525
:104090008091880190918901039724F01092890101
:1040A00010928801809188019091890197FF04C046
:1040B000D0928901C09288018091880190918901F4
:1040C0008130910509F182309105C9F1892B09F000
:1040D00052C08AEA9DE00E945D1D04E124E14EEB9E
:1040E0005DE168E270E084E090E00E94391CF092AB
:1040F000D105E092D00589E190E09093D3058093BB
:10410000D2058CE99DE035C087E99DE00E945D1DE8
:1041100004E124E14DE75DE168E270E084E090E0D5
:104120000E94391CF092D105E092D00589E190E01F
:104130009093D3058093D20581E89DE01AC08CE767
:104140009DE00E94181C04E124E14CE35DE168E27B
:1041500070E084E090E00E94391CF092D105E0927A
:10416000D00589E190E09093D3058093D2058DE648
:104170009DE00E94181C0E948F1083FF75C58091DE
:104180008A01882309F47AC56FC50E94381D80E32F
:1041900090E09093D1058093D005F092D305E09202
:1041A000D20580918301813049F028F0823051F4AA
:1041B00088E49DE005C080E69DE002C085E59DE0C5
:1041C0000E94181C00E420E848E459E060E070E038
:1041D00080E090E00E94391C8091880190918901D3
:1041E000059724F01092890110928801809188012E
:1041F0009091890197FF04C0F0928901E0928801B3
:1042000009E010E01093D1050093D005F092D3059A
:10421000E092D20582E499E00E94181C1093D10527
:104220000093D0058EE090E09093D3058093D20563
:104230008091A8059091A9051816190624F48BE31E
:1042400099E00E94181C09E010E01093D10500933A
:10425000D00528E130E03093D3052093D20585E3E3
:1042600099E02B8B3C8B0E94181C1093D105009376
:10427000D00582E2682E712C7092D3056092D2052F
:1042800084E299E00E94181C1093D1050093D00598
:104290000CE210E01093D3050093D2058EE199E073
:1042A0000E94181C80918801909189012B893C897A
:1042B00082309105A1F1A4F4009721F1019709F052
:1042C0004BC083E090E09093D1058093D0058EE0C1
:1042D00090E09093D3058093D2058AE199E03AC0AB
:1042E0008330910549F10497B9F583E090E090930C
:1042F000D1058093D0051093D3050093D20584E1B6
:1043000099E028C083E090E09093D1058093D00598
:10431000F092D305E092D2058CE199E01BC083E0D6
:1043200090E09093D1058093D0053093D3052093EE
:10433000D20588E199E00EC020918301243060F419
:104340009093D1058093D0057092D3056092D205E9
:1043500086E199E00E94181C0E948F1083FF84C49C
:1043600080918A01882309F4B1C47EC480918501BB
:10437000811138C00E94381D0E94132865E070E04A
:104380000E94882A8C016090AA05712C81E0681A2D
:1043900071080E94132863E070E00E94882AB3012C
:1043A000680F791F1616170614F061E070E0509E32
:1043B000A001519E500D11244654574FCE01019635
:1043C0000E940E1486E0FE013196A2EAB5E001904B
:1043D0000D928A95E1F781E0809385011092890121
:1043E000109288010E946C183FC40E94381D1092E0
:1043F000D1051092D0051092D3051092D20588EA0B
:1044000098E00E94181C2AE030E042E850E06AE0A0
:1044100070E080E090E00E946B1D0E948F1082FF90
:1044200004C0D0928701C0928601809172018111EF
:10443000BBC18091880190918901029724F010926C
:10444000890110928801809188019091890197FFDC
:1044500006C081E090E0909389018093880180916B
:10446000880190918901009709F029C11092D10526
:104470001092D0053092D3052092D205E091AC0580
:10448000F091AD05859194910E945D1D8091A805E4
:104490009091A9050E94581E81E591E00E944B1D54
:1044A000E091AC05F091AD05329625913491809163
:1044B000AA0590E0289FB001299F700D11247595E1
:1044C000679575956795680F791F80E090E04AE0E1
:1044D0000E94F01D80E198E00E945D1D86E098E05A
:1044E0000E94181CE091AC05F091AD053396459102
:1044F00054912091AA0530E0E091B0055E9EF00154
:104500001124EE55F84F65917491429FC001439F6D
:10451000900D11249595879595958795820F931FFA
:10452000860F971F0E949A1B89E997E00E94181C2A
:10453000E091AC05F091AD053496459154912091F0
:10454000AA0530E0E091B0055E9EF0011124EC5523
:10455000F84F65917491429FC001439F900D1124C3
:104560009595879595958795820F931F860F971F31
:104570000E949A1B82E997E00E94181CE091AC050A
:10458000F091AD053596459154912091AA0530E002
:10459000429FC001439F900D112495958795959555
:1045A0008795820F931F0E949A1B8BE897E00E94C9
:1045B000181CE091B0055E9EF0011124EA55F84FF9
:1045C000859194910E949A1BABE4B0E0B093D10521
:1045D000A093D0053092D3052092D20586E897E0CB
:1045E0000E94181C6091AA0570E080E090E04AE00B
:1045F0000E94F01D84E897E00E94181C8BE490E074
:104600009093D1058093D00584E190E09093D305F9
:104610008093D205E091B0055E9EF0011124E8552B
:10462000F84F859194910E945D1DABE4B0E0B0938A
:10463000D105A093D0058CE190E09093D3058093B1
:10464000D2058DE797E00E94181C6091AE0570912D
:10465000AF0580E090E04AE00E94F01DE091AC05DB
:10466000F091AD0538964591549104E124E168E25A
:1046700070E084E690E00E94391C8091B905813099
:1046800039F408E028E045E757E068E270E012C03E
:10469000823009F07EC008E028E045E757E068E294
:1046A00070E080E590E00E94391C28E045E757E083
:1046B00062E370E080E590E00E94391C6AC00197D7
:1046C00009F067C00E94381D1092D1051092D005E4
:1046D0001092D3051092D20585E198E00E94181C33
:1046E0002AE030E042E850E06AE070E080E090E0EC
:1046F0000E946B1D1092D1051092D0053092D30507
:104700002092D20501EB15E03801D801EC915E9EB4
:10471000F0011124E855F84F859194910E94181CDE
:1047200081E797E00E94181CD801EC915E9EF00191
:104730001124EE55F84F6591749180E090E04AE0C5
:104740000E94F01D8DE697E00E94181CD801ED91A3
:104750008D015E9EF0011124EC55F84F6591749126
:1047600080E090E04AE00E94F01D89E697E00E9418
:10477000181CD301EC915E9EF0011124EA55F84F0C
:10478000859194910E949A1BB5E0063B1B0709F0A6
:10479000BBCF0E948F1086FF07C081E0809372011B
:1047A000109289011092880180917201813009F084
:1047B0005BC20E94381D1092D1051092D005109254
:1047C000D3051092D20580EA98E00E94181C2AE0D6
:1047D00030E042E850E06AE070E080E090E00E9463
:1047E0006B1D1092D1051092D0053092D305209206
:1047F000D2058AE898E00E945D1D80918801909121
:104800008901059724F01092890110928801809106
:1048100088019091890197FF04C0F0928901E0928C
:104820008801E0918801F0918901E855FA4FE1850E
:104830005E9EF0011124E45DF74F859194910E94F2
:10484000181C0E948F1083FF05C080918A01882365
:1048500009F488C20E948F1085FF06C2109272016F
:1048600003C20E94381D00E420E849E653E060E0FE
:1048700070E080E090E00E94391C88E090E0909326
:10488000D1058093D005B092D305A092D20585E5DD
:1048900091E00E944B1D9092D1058092D005A6E335
:1048A000B0E0B093D305A093D2050E948F1082FF91
:1048B00008C0D0928701C09286011092890110929F
:1048C000880180917301811172C08091880190915B
:1048D0008901039724F01092890110928801809138
:1048E00088019091890197FF04C0D0928901C092FC
:1048F000880180918801909189018130910541F072
:104900008230910511F1892BB9F586E593E032C02B
:10491000E091AC05F091AD0582812091AA05829FBE
:10492000C00111249595879595958795820F911DC6
:104930002091A8053091A9052817390718F489E4B2
:1049400093E018C087E393E015C02091B9058091EA
:10495000AE059091AF05223030F48330910518F008
:1049600082E293E007C0039718F481E193E002C06C
:104970008CEF92E00E94181C0E948F1083FF17C0DA
:1049800080918A01811113C021E020938A018091D6
:104990008801909189018130910509F4EFC182303D
:1049A000910509F416C2892B11F4209373018091AB
:1049B0007301813009F0A3C0809188019091890131
:1049C000059724F010928901109288018091880146
:1049D0009091890197FF04C0F0928901E0928801CB
:1049E0000E94381D88E090E09093D1058093D00517
:1049F000B092D305A092D20589EE92E00E945D1D8F
:104A000000E420E849E653E060E070E080E090E0F8
:104A10000E94391C9092D1058092D005A6E3B0E0A7
:104A2000B093D305A093D205E0918801F09189015C
:104A3000EC5EFE4FE0815E9EF0011124E45DF74FD5
:104A4000859194910E94181C87EE92E00E94181C98
:104A5000E0918801F0918901EC5EFE4FE0815E9E5D
:104A6000F0011124E25DF74F6591749180E090E0D0
:104A70004AE00E94F01D81EE92E00E945D1D80914F
:104A8000880190918901589EF001599EF00D1124E2
:104A9000EA5DF74F2091AE053091AF058085918595
:104AA0002817390770F488E090E09093D10580933F
:104AB000D005B092D305A092D20588ED92E00E9475
:104AC000181C0E948F1083FF1AC080918A018111E7
:104AD00016C0E0918801F0918901EC5EFE4FE08103
:104AE0005E9EF0011124E25DF74F85919491209133
:104AF000AE053091AF052817390708F080C18091C5
:104B00007301823009F0B0C08091880190918901D1
:104B1000059724F0109289011092880180918801F4
:104B20009091890197FF04C0F0928901E092880179
:104B30000E94381D00E420E849E653E060E070E0A0
:104B400080E090E00E94391CA8E0B0E0B093D1056D
:104B5000A093D005B092D305A092D20588EC92E044
:104B60000E945D1D9092D1058092D00586E390E071
:104B70009093D3058093D2058FEB92E00E94181C8E
:104B800080918801909189010E94581E83E591E0EF
:104B90000E944B1DE0918801F0918901E855FA4F80
:104BA000E1855E9EF0011124E45DF74F85919491BB
:104BB0000E945D1D0E948F1083FF56C080918A0164
:104BC000882309F423C150C08091850181110ACC4A
:104BD0000E94381D81E08093850110928901109216
:104BE00088018093840180918301811104C04CEE7F
:104BF00058E063E012C0813021F446EF58E064E0F1
:104C00000CC0823021F440E059E065E006C08330FA
:104C100009F0E8CB4AE059E066E0CE0101960E9437
:104C20000E1486E0FE013196A2EAB5E001900D92E5
:104C30008A95E1F7D7CB012BB9F46EE37EE1CE0183
:104C400001960E94B91182E1FE013196A8EAB5E011
:104C500001900D928A95E1F71092890110928801D6
:104C6000D0928701C09286010E94AC1B80E090E048
:104C7000892B09F41FC90E94000011C981E08093AB
:104C80008A0100918801109189010130110519F400
:104C900068E47EE1D4CF0230110569F662E57EE179
:104CA000CE0101960E94B91182E1FE013196A8EA77
:104CB000B5E001900D928A95E1F71092890110926A
:104CC00088011093870100938601CECF81E0809305
:104CD0008A0180918801909189018230910519F4AF
:104CE0000E949813C1CF833091053CF40097C1F422
:104CF000909287018092860110C083309105F1F077
:104D0000049709F0B1CF86E090E0909387018093FB
:104D10008601109289011092880110927301A4CF2C
:104D2000019709F0A1CF8091A8059091A9051816C7
:104D300019060CF099CF83E090E00FC08091A80590
:104D40009091A905181619060CF08ECF8091830159
:104D5000843008F089CF87E090E0909387018093BA
:104D6000860182CFE0918801F0918901E855FA4FE0
:104D700081858093B005109272016CCD2091AE05B3
:104D80003091AF052115310509F411CEE091AC0544
:104D9000F091AD0582814091AA05849FC001112444
:104DA0009595879595958795840F911D4091A805B8
:104DB0005091A9054817590708F0F9CD9093A90516
:104DC0008093A805215031093093AF052093AE059B
:104DD000EECD2091B905233008F0E9CD8091AE05E4
:104DE0009091AF058330910508F4E1CD2F5F2093BA
:104DF000B90503979093AF058093AE05D8CD81E0B8
:104E000080938A0182E08093730179CEE0918801DA
:104E1000F0918901E855FA4F21E02187E8E3F8E0B5
:104E2000459154918091AE059091AF05841B950BEF
:104E30009093AF058093AE051092730120938A0181
:104E400013CF0F931F93CF93DF938C0181E090E0FA
:104E50000E947F2880FF31C08AE090E00E947F2876
:104E60009FEF980F9E3F48F522E330E0D801579618
:104E70003C932E93569728E330E059963C932E931B
:104E80005897CBE0D0E0D801ED91FC910190F081F2
:104E9000E02D682FC8010995CE010E947F28219638
:104EA000C131D10581F70E94AC1B88EE93E0DF9100
:104EB000CF911F910F910C944010DF91CF911F91D2
:104EC0000F91089504970C9421270F931F93CF936C
:104ED000DF93CDB7DEB72A970FB6F894DEBF0FBECB
:104EE000CDBFE8EDF5E01382128288EE93E0A0E0FA
:104EF000B0E084839583A683B7838FE291E09183AA
:104F000080830FEF1FEF158704876EE37EE188EA49
:104F100095E00E94B9118AE0E1E2F1E0DE0111962C
:104F200001900D928A95E1F7AE014F5F5F4F61E00E
:104F300082EA95E00E940E14EAEBF5E013821282F9
:104F40001186128680E1838710870783108A118A71
:104F5000128A138A148A81E491E0918380838FE41A
:104F600091E095838483178A168A118E108E81E0D2
:104F7000828F138E848F158E2A960FB6F894DEBF1B
:104F80000FBECDBFDF91CF911F910F9108958F92EA
:104F90009F92AF92BF92CF92DF92EF92FF92CF9308
:104FA000DF93EC01688179818A819B8161157105AC
:104FB0008105910521F464E279ED8BE597E02DE11F
:104FC00033EF41E050E00E94872849015A019B01DC
:104FD000AC01A7EAB1E40E94A6286B017C01ACEE0B
:104FE000B4EFA50194010E94B428DC01CB018C0D23
:104FF0009D1DAE1DBF1DB7FF03C00197A109B0489D
:1050000088839983AA83BB839F77DF91CF91FF9099
:10501000EF90DF90CF90BF90AF909F908F900895CA
:105020000E94C72708958CE091E00E94C727089549
:10503000A0E0B0E080930C0190930D01A0930E01CD
:10504000B0930F0108958F929F92AF92BF92CF922B
:10505000DF92EF92FF92CF93DF93EC016881798129
:105060008A819B81611571058105910521F464E2B6
:1050700079ED8BE597E02DE133EF41E050E00E94C0
:10508000872849015A019B01AC01A7EAB1E40E94BB
:10509000A6286B017C01ACEEB4EFA50194010E943F
:1050A000B428DC01CB018C0D9D1DAE1DBF1DB7FFCB
:1050B00003C00197A109B04888839983AA83BB8361
:1050C000BC01CD019F77DF91CF91FF90EF90DF90F2
:1050D000CF90BF90AF909F908F9008950E9423280B
:1050E000089580E191E00E942328089560931001C3
:1050F0007093110180931201909313010895F9990F
:10510000FECF92BD81BDF89A992780B50895052EEE
:1051100097FB1EF400940E949E2857FD07D00E9422
:10512000B92807FC03D04EF40C949E285095409566
:10513000309521953F4F4F4F5F4F08959095809543
:10514000709561957F4F8F4F9F4F08950E94DB2888
:10515000A59F900DB49F900DA49F800D911D1124CB
:105160000895B7FF0C94A6280E94A628821B930BD3
:105170000895A1E21A2EAA1BBB1BFD010DC0AA1F98
:10518000BB1FEE1FFF1FA217B307E407F50720F0B0
:10519000A21BB30BE40BF50B661F771F881F991F2B
:1051A0001A9469F760957095809590959B01AC0174
:1051B000BD01CF010895A29FB001B39FC001A39F7D
:1051C000700D811D1124911DB29F700D811D112440
:1051D000911D08955058BB27AA270E9402290C94BC
:1051E000E1290E94D32938F00E94DA2920F039F40D
:1051F0009F3F19F426F40C94D0290EF4E095E7FBB8
:105200000C94CA29E92F0E94F22958F3BA176207B1
:1052100073078407950720F079F4A6F50C94142AF7
:105220000EF4E0950B2EBA2FA02D0B01B9019001C1
:105230000C01CA01A0011124FF27591B99F0593F05
:1052400050F4503E68F11A16F040A22F232F342F4D
:105250004427585FF3CF469537952795A795F0409B
:105260005395C9F77EF41F16BA0B620B730B840BB0
:10527000BAF09150A1F0FF0FBB1F661F771F881F68
:10528000C2F70EC0BA0F621F731F841F48F48795C0
:1052900077956795B795F7959E3F08F0B0CF9395B2
:1052A000880F08F09927EE0F9795879508950E942B
:1052B0005E296894B1110C94152A08950E94FA2968
:1052C00088F09F5798F0B92F9927B751B0F0E1F0C7
:1052D000660F771F881F991F1AF0BA95C9F714C077
:1052E000B13091F00E94142AB1E008950C94142A70
:1052F000672F782F8827B85F39F0B93FCCF38695B0
:1053000077956795B395D9F73EF49095809570950C
:1053100061957F4F8F4F9F4F0895E89409C097FB89
:105320003EF490958095709561957F4F8F4F9F4F7C
:105330009923A9F0F92F96E9BB279395F6958795C0
:1053400077956795B795F111F8CFFAF4BB0F11F483
:1053500060FF1BC06F5F7F4F8F4F9F4F16C088232A
:1053600011F096E911C0772321F09EE8872F762F60
:1053700005C0662371F096E8862F70E060E02AF0A1
:105380009A95660F771F881FDAF7880F969587958D
:1053900097F9089597F99F6780E870E060E00895B5
:1053A0009FEF80EC089500240A941616170618063D
:1053B0000906089500240A94121613061406050619
:1053C0000895092E0394000C11F4882352F0BB0FAA
:1053D00040F4BF2B11F460FF04C06F5F7F4F8F4F0D
:1053E0009F4F089557FD9058440F551F59F05F3F48
:1053F00071F04795880F97FB991F61F09F3F79F0F7
:1054000087950895121613061406551FF2CF469578
:10541000F1DF08C0161617061806991FF1CF8695FA
:105420007105610508940895E894BB2766277727DE
:10543000CB0197F908950E942E2A0C94E1290E942D
:10544000D32938F00E94DA2920F0952311F00C942A
:10545000CA290C94D02911240C94152A0E94F229EF
:1054600070F3959FC1F3950F50E0551F629FF001B7
:10547000729FBB27F00DB11D639FAA27F00DB11DD0
:10548000AA1F649F6627B00DA11D661F829F222759
:10549000B00DA11D621F739FB00DA11D621F839FE0
:1054A000A00D611D221F749F3327A00D611D231FB6
:1054B000849F600D211D822F762F6A2F11249F5704
:1054C00050409AF0F1F088234AF0EE0FFF1FBB1F07
:1054D000661F771F881F91505040A9F79E3F5105C6
:1054E00080F00C94CA290C94152A5F3FE4F3983E8F
:1054F000D4F3869577956795B795F795E7959F5F70
:10550000C1F7FE2B880F911D9695879597F9089501
:1055100097FB072E16F4009407D077FD09D00E9460
:10552000A22A07FC05D03EF4909581959F4F0895DF
:10553000709561957F4F0895EE0FFF1F0590F491D0
:10554000E02D0994AA1BBB1B51E107C0AA1FBB1F7A
:10555000A617B70710F0A61BB70B881F991F5A95FF
:10556000A9F780959095BC01CD01089581E090E068
:0A557000F8940C94BB2AF894FFCFC6
:10557A00FFFFFFFF00E10000000000000100000043
:10558A000100000001050607080900C1808100002A
:10559A00006901080805040001021E000000002E2F
:1055AA00146914EE1444144F14F214101500000078
:1055BA0000CA10590FAB0FAA0F2127FCFF00006287
:1055CA0027202F200057686174276C6C2068617649
:0E55DA00652079653F000D0A006E616D650069
:00000001FF
