:100000000C94A50E0C94CD0E0C94CD0E0C94CD0E2C
:100010000C94CD0E0C94CD0E0C94CD0E0C94CD0EF4
:100020000C94CD0E0C94CD0E0C940A160C947C16E8
:100030000C94CD0E0C94CD0E0C94CD0E0C94CD0ED4
:100040000C94CD0E0C94CD0E0C94CD0E0C94CD0EC4
:100050000C94CD0E0C94CD0E0C94CD0E0C94CA0FB6
:100060000C94CD0E0C94CD0E0C94CD0E0C94CD0EA4
:100070000C94CD0E0C94CD0E0C94CD0E0C94CD0E94
:100080000C94CD0E0C94CD0E0C94CD0E0C94CD0E84
:100090000C94CD0E0C94CD0E0C94CD0E0C94CD0E74
:1000A0000C94CD0E0C94CD0E0C94CD0E7E20AB2076
:1000B0006F216F22692A9C24B42671280080B0D851
:1000C000F898B863C6BA7CEECCCFCCEE7CBA46C307
:1000D00000F1FF0FF10F0102073FFEACB591B5AC87
:1000E000FE3F87FF000103060D0600000E0F03020E
:1000F000000C0002030F0F0170C070C13204CAF47B
:1001000098B4EAB498F4CA24C271C070000C172DD8
:10011000EAF4744D6FACD5ACAF4D7462970B05002B
:100120000000000C060B0B080F0D00000D0F0F0850
:100130000B0A060C736C6F7420233A200053656C15
:1001400065637420696E7620736C6F740059652046
:1001500042726F6B6500636F696E73003A004865A9
:1001600072652773207768617420796520676F74E2
:1001700000596F75206E656564206E6F7420686528
:10018000616C004845414C3A203120636F696E0034
:10019000427579206E6577206571756970746D653B
:1001A0006E740000F20C120202020202824282020B
:1001B000020202020202020202020282020202029F
:1001C000020202020202020262E29A8A8A0A2A2ACF
:1001D0002A9A9ADADADA8A0A8ACACACACACACACA8F
:1001E000CA9A191A99DADADACA8A2A2A6A4A8ACAA1
:1001F0009ADADADACA8A2A2A6A6AAACA8A8A8A8ABF
:10020000AAEAAA3A1A1A1A1A9A0AEA5A1A02020206
:1002100002020202020202020202020202020212AE
:100220000CF20000FF000000000000FEFD0201FED5
:10023000000000000000000000E0FE1F00000000C1
:100240000000000060E5F73D232120A0B11111005E
:100250000F1F1FB9F9F9F004044D6901FFFFFF01F9
:1002600001007EFF7E81A989817EFF7E0000FFFF65
:10027000F6193979F9D68F46484801FFFF39391107
:1002800001414848181111D9380F0C0C000000002A
:10029000E0F0B0B0B8B81818B8B8B0B0F0E00000EE
:1002A00000FF0000FF000000000000FFFF0000FF53
:1002B00000000000000000000302070C74887800B2
:1002C000000000060E0786363E3224242525252010
:1002D00021232333B33130303232322021232128FD
:1002E00029292A2839333333333124A4ACA0A32756
:1002F0002330323031333732382823273333333306
:10030000B337222828392F01030000000000000025
:10031000030F3B766C7FF0F07F6C763B0F030000A1
:1003200000FF0000FF0000000040407FDF40C07F72
:100330004040000000000000002078F46E03000040
:1003400000000000000000010265FACC5AF55ACC0A
:10035000FA650201000000000067FA6C1C6CF86C82
:10036000070200000000FC02EDB53B5A3232523B5E
:10037000B5ED02FC00000000000000FC82121271CA
:100380001171121282FC00000000000000000080C9
:10039000C87070B02840C04000000000000000009D
:1003A00000FF0000FF000000808080908FB58F90DC
:1003B000808080808080808080808FBF8F808080E0
:1003C0008080808080808080808080818282828125
:1003D000808080808080808080808081818180801A
:1003E000808080808080878A949999999999919149
:1003F00091908887808080808080808081838688BB
:100400008E88868381808080808080888C868381AE
:100410008080808186828180808080808000000052
:1004200000FF0000FF00FC030000000000000000CF
:1004300000000000000000000000000000000000BC
:1004400000000000000000000000000000000000AC
:10045000000000000000000000000000000000009C
:10046000000000000000000000000000000000008C
:10047000000000000000000000000000000000007C
:10048000000000000000000000000000000000006C
:100490000000000000000000000000000001827C5D
:1004A00000FF0000F70C0A090A0A0A0A0A0A0A0AE7
:1004B0000A0A0A0A0A0A0A0A0A0A0A0A0A0A0A0A9C
:1004C0000A0A0A0A0A0A0A0A0A0A0A0A0A0A0A0A8C
:1004D0000A0A0A0A0A0A0A0A0A0A0A0A0A0A0A0A7C
:1004E0000A0A0A0A0A0A0A0A0A0A0A0A0A0A0A0A6C
:1004F0000A0A0A0A0A0A0A0A0A0A0A0A0A0A0A0A5C
:100500000A0A0A0A0A0A0A0A0A0A0A0A0A0A0A0A4B
:100510000A0A0A0A0A0A0A0A0A0A0A0A0A09080840
:1005200008F700004F3048404040404040404040C5
:1005300040404040404040404040404040404040BB
:1005400040404040404040404040404040404040AB
:10055000404040404040404040404040404040409B
:10056000404080408040404040404040404040400B
:10057000404040404040404040404040404040407B
:10058000404040404040404040404040404040406B
:100590004040404040404040404040404040404853
:1005A000304F0020733A0020643A0020613A004343
:1005B0006F696E733A0020004C766C3A004D6167AB
:1005C00069633A0053706565643A00446566656E18
:1005D00073653A00537472656E6774683A00204818
:1005E000502000494E56454E544F5259205E5354A8
:1005F0004154530053656C656374206974656D20C4
:10060000746F20657175697074003C535441545384
:100610002000535441545320762D494E56203E45D8
:1006200051505400000000E00E943874ECC0EC749B
:1006300038940EE0000000009CE638A3C695AA6F2F
:100640002B292B6FAA95C6A338E69C000F0F0F032A
:100650000104040406000604040401030F0F0F0044
:100660000F30434C90F8BCA6663E3E66A6BCF890A0
:100670004C43300F7804F21A0A05BB5E9A7F7F9ACA
:100680005EBB050A1AF2047800010000060F0A0991
:1006900003010103090A0F0600000100F00C826249
:1006A000F1D96975B56565A57569D9F162820CF0F6
:1006B00007C833889C252B4A525252524A2B259CFC
:1006C0008833C807000304080B08090A0A0A0A0A43
:1006D0000A09080B080403003E003E003E003E00ED
:1006E0003E0053746F7265004669676874204172FA
:1006F000656E6120426F73730052657365740042CA
:100700006174746C650053746174730000F20C12B0
:1007100002020202020202020202020202020202B9
:1007200002020202020202020202020202020202A9
:1007300002020202020202020202FA06020202029D
:100740000202020202020202020202050205020283
:100750000202020202020202020202020202020279
:100760000202020202020202020202020202020269
:100770000202020202020202020202020202020259
:100780000202020202020202120CF20000FF00004A
:100790000000000000000000000000000000000059
:1007A0000000000000000000000000000000000049
:1007B000000000000000000000000F10202020209A
:1007C0002020202020202020202020202020202029
:1007D0002020202020202020202020202020202019
:1007E0002020202020202020202020202020202009
:1007F00020202020202020202020202020202020F9
:1008000020202020202020202010FF0000FF0000BA
:1008100000000000000000000000000000000000D8
:1008200000000000000000000000000000000000C8
:1008300000000000000000000000000000000000B8
:1008400000000000000000000000000000000000A8
:100850000000000000000000000000000000000098
:100860000000000000000000000000000000000088
:100870000000000000000000000000000000000078
:1008800000000000000000000000FF0000FF00006A
:100890000000000000000000000000000000000058
:1008A0000000000000000000000000000000000048
:1008B0000000000000000000000000000000000038
:1008C0000000000000000000000000000000000028
:1008D0000000000000000000000000000000000018
:1008E0000000000000000000000000000000000008
:1008F00000000000000000000000000000000000F8
:1009000000000000000000000000FF0000FE0100E9
:1009100000000000000000000000000000000000D7
:1009200000000000000000000000000000000000C7
:1009300000000000000000000000000000000000B7
:1009400000000000000000000000000000000000A7
:100950000000000000000000000000000000000097
:100960000000000000000000000000000000000087
:100970000000000000000000000000000000000077
:1009800000000000000000000001FE0000FF000069
:100990000000000000000000000000000000000057
:1009A0000000000000000000000000000000000047
:1009B0000000000000000000000000000000000037
:1009C0000000000000000000000000000000000027
:1009D0000000000000000000000000000000000017
:1009E0000000000000000000000000000000000007
:1009F00000000000000000000000000000000000F7
:100A000000000000000000000000FF0000FF0000E8
:100A100000000000000000000000000000000000D6
:100A200000000000000000000000000000000000C6
:100A300000000000000000000000000000000000B6
:100A400000000000000000000000000000000000A6
:100A50000000000000000000000000000000000096
:100A60000000000000000000000000000000000086
:100A70000000000000000000000000000000000076
:100A800000000000000000000000FF00004F3048A0
:100A90004040404040404040404040404040404056
:100AA0004040404040404040404040404040404046
:100AB0004040404040404040404040404040404036
:100AC0004040404040404040404040A040A0404066
:100AD0004040404040404040404040404040404016
:100AE0004040404040404040404040404040404006
:100AF00040404040404040404040404040404040F6
:100B0000404040404040404048304F004172656E98
:100B100061204D6173746572004A6F75726E6579FC
:100B20006D616E004172656E6120526F6F6B696519
:100B300000000080000000001050DCFE19100000D2
:100B400000000000000001FE0978381818F8FBFFCB
:100B5000F8F00000000000000000000F000000009E
:100B6000000F0F0F0F0F0E0C08080000000000060A
:100B70006BF4F87C7CBC7C7CBC7C7CF8F46B060061
:100B80000078A414FC14ABFFFEEED6AED6EEFFFB4D
:100B90002438F0E00000000101010F0B050B0D0FE0
:100BA0000B050B0F00070F0F0700FC02F9FE0000FA
:100BB00000E0B0B8F8EC0000000000000004073CC2
:100BC0001F373418B8EDF7BFE7FDB818F0E00000A4
:100BD0000000000000000C0F0F03010101030F0CC7
:100BE00008000000004661737420616E6420667224
:100BF00061696C00000080000000001050DCFE19EC
:100C000010000000000000000001FE0978381818EC
:100C1000F8FBFFF8F00000000000000000000F00EB
:100C2000000000000F0F0F0F0F0E0C08080000004F
:100C30004D6167650048696768204865616C746844
:100C4000202620446566656E7365000000066BF41F
:100C5000F87C7CBC7C7CBC7C7CF8F46B0600007867
:100C6000A414FC14ABFFFEEED6AED6EEFFFB243888
:100C7000F0E00000000101010F0B050B0D0F0B054B
:100C80000B0F00070F0F0754616E6B005374726FE8
:100C90006E672041747461636B0000FC02F9FE0012
:100CA0000000E0B0B8F8EC0000000000000004070D
:100CB0003C1F373418B8EDF7BFE7FDB818F0E00077
:100CC000000000000000000C0F0F03010101030FE2
:100CD0000C080000000057617272696F72000A0010
:100CE0005069636B20796F757220636C6173732E2A
:100CF00000486974206220746F20737461727400FC
:100D000000000000000000000000000000000000E3
:100D100000000000000000000000000000000000D3
:100D200000000000000000000000000000000000C3
:100D300000000000000000000000000000000000B3
:100D400000000000000000000000000000000000A3
:100D50000000000000000000000000000000000093
:100D60000000000000000000000000000000000083
:100D70000000000000000000000000000000000073
:100D8000000000000000000000000000000818380B
:100D900070F0F0E0E0E0F0F0F0E0E0E06060606073
:100DA0007070F0F0F0F0F0F0701000000000000043
:100DB0000000000000000000000000000000000033
:100DC0000000000000000000000000000000000023
:100DD0000000000000000000000000000000000013
:100DE0000000000000000000000000000000000003
:100DF00000000000000000000000000000000000F3
:100E00001C1C1C1C1C1C1C1C1C1C1C1C1C1C1C003E
:100E100000C1FFFFFFFFC7830100000000000000CA
:100E2000000000010100000080E0F0E0C0000000D0
:100E300030F0F0F07078787838181818383838387A
:100E4000101000000008081CFCF8F0000000000072
:100E50000000000000C0F0F878300000103838388A
:100E6000383870F0F0F0F07078787870707020009A
:100E70000000000000000000000000000000000072
:100E80001C1C1C1C1C1C1C1C1C1C1C1C0000008092
:100E9000FEFFFF3F1F1F0F0F0F0F0E0E0E0E1E1E29
:100EA0001E0E03000080E0FCFFFF3F0F000000FE6D
:100EB000FF8701000000000000207070E0E0E0E02B
:100EC000202000000000C0FEFF7F3D1C1C1C1C18E1
:100ED0003878F8FCFFFF1F01000000000000000050
:100EE00080E0F8FFFF7F0700E0E0E7E7E7E7E7E7FC
:100EF000E7E7E7E7E7E7E7E7E7E7E7E7E7E7E7E782
:100F00000707C7C7C78707070707272030383E3FAF
:100F10003F1F0700000070F0F0E0C08000002020BC
:100F2000202030383E3F3F3F1F03000000000021DB
:100F3000272F3E3C3C3C38383838383C1E0F0701E0
:100F4000002020383C1F0F0300000000404040708C
:100F5000783C3F1F07000000000040404060783EA2
:100F60003F1F070300000038383838383838383821
:100F700038383838383838383838383838383838F1
:100F800000000103070F0F0E0E0E0E0E0E0E0E0EBA
:100F90000E0E0E0E0E0E0ECEEFFFFF7F1F1E1E1E3C
:100FA0003E3E3E3E3E3E3E7E7E7E7E7E7E7E7EFEA1
:100FB000FEFEFEFEFCFCFCFCFCFCF8F8F8F8F8F881
:100FC000F8F8F8F8F8F0F0F0F0F0F0F0F0F0F0F0F9
:100FD000F0E0E0E0E0E0E0E0E0E0F0F0F0F0F0F0A1
:100FE000F0F8F8F8F8F8F8F8F87C7C7C3C3C3C1C0D
:100FF0001E1E0E0E00000000000000000000000099
:10100000301C1E1E0F0F0F0F0F1E3E3C30303030B5
:1010100038181C1C1C1C3C79F9F1C0C0E0E0E0F061
:1010200070383838383870F0E0C0C0E0E0E0E0E018
:10103000604040E040C0C1C1C1C1C1818101030322
:101040000303030303030303070707078787C7C7D0
:10105000C7C7CF8F8F0F0F0F0F0F0F0F0707070394
:10106000030381C1C1C0E0E0E0E0E0C0C080C0E0B7
:10107000F8FCFCFEFEFE7E3E1C1C1810103060E0EA
:101080000E0703070F0F0E0C08081818181C3E3E19
:101090001E1E1E1C18181818102321200040406026
:1010A000703838181838306061E1E1F1713371F04F
:1010B000E0C0C0E0F070313171E1C181C3C7CCCC78
:1010C000C4860606060E1E3F8FC7C3C1C1C181017B
:1010D00003070F3F1F0F040686C6C6CEDCD89C0C44
:1010E0000EC7E3F1703070F1E3C7DFE7F371313021
:1010F0003060C0E1F3703030383C3E3E1E1E0E0CB6
:10110000F0F89C8E8783878E9CF8F00000FEFF032A
:1011100003030303070EFCF80000FEFF03030303B1
:1011200003070EFCF80000FFFF00000000000000B5
:10113000FFFF0000FEFF8383838383C7EE7C3800BC
:1011400000F8FC0E07030303070EFCF800003F7FC6
:10115000E0C08080C0E07F3FFFFF0101010101018D
:1011600001FFFF0000FFFF0C0C0C0C1C3E77E3C1DD
:1011700000007FFFC0C0C0C0C0E0703F1F00001F64
:101180003F70E0C0C0C0E0703F1F00007FFFC1C1E2
:10119000C1C1C1E3773E1C00001F3F70E0C0C0C06A
:1011A000E0703F1F000000000001FFFF0100000091
:1011B000D5F08D14A1C881CFD9F1AF20006C766C29
:1011C0003A004850002F0000F20C12020202020204
:1011D00002020202020202020202020202020202EF
:1011E00002020202020202020202020202020202DF
:1011F00002020202020202020202020202020202CF
:101200000202020202120DF20D1202020202020298
:1012100002020202020202020202020202020202AE
:1012200002020202020202FE0202020202020202A2
:10123000020202020202020202020202020202028E
:10124000020202120CF20000FF0000000000000089
:10125000000000000000000000000000000000008E
:10126000000000000000000000000000000000007E
:10127000000000000000000000000000000000006E
:1012800000000000000000FF00000000000000005F
:10129000000000000000000000000000000000004E
:1012A00000000000000000FF00000000000000003F
:1012B000000000000000000000000000000000002E
:1012C0000000000000FF0000FF0000000000000020
:1012D000000000000000000000000000000000000E
:1012E00000000000000000000000000000000000FE
:1012F00000000000000000000000000000000000EE
:1013000000000000000000FF0000000000000000DE
:1013100000000000000000000000000000000000CD
:1013200000000000000000FF0000000000000000BE
:1013300000000000000000000000000000000000AD
:101340000000000000FF0000FF000000000000009F
:10135000000000000000000000000000000000008D
:10136000000000000000000000000000000000007D
:10137000000000000000000000000000000000006D
:1013800000000000000000FF00000000000000005E
:10139000000000000000000000000000000000004D
:1013A000000000000020C03FC0200000000000003E
:1013B000000000000000000000000000000000002D
:1013C0000000000000FF0000FF000000000000001F
:1013D000000000000000000000000000000000000D
:1013E00000000000000000000000000000000000FD
:1013F00000000000000000000000000000000000ED
:1014000000000000000000FF0101010101010101D5
:1014100001010101010101010101010101010101BC
:1014200001010101010102010201010101010101AA
:10143000010101010101010101010101010101019C
:101440000101010101FF0000FF0000000000000099
:10145000000000000000000000000000000000008C
:10146000000000000000000000000000000000007C
:10147000000000000000000000000000000000006C
:1014800000000000000000FF00000000000000005D
:10149000000000000000000000000000000000004C
:1014A000000000000000000000000000000000003C
:1014B000000000000000000000000000000000002C
:1014C0000000000000FF0000FF000000000000001E
:1014D000000000000000000000000000000000000C
:1014E00000000000000000000000000000000000FC
:1014F00000000000000000000000000000000000EC
:1015000000000000000000FF0000000000000000DC
:1015100000000000000000000000000000000000CB
:1015200000000000000000000000000000000000BB
:1015300000000000000000000000000000000000AB
:101540000000000000FF00004F3048404040404095
:10155000404040404040404040404040404040408B
:10156000404040404040404040404040404040407B
:10157000404040404040404040404040404040406B
:10158000404040404048B04FB0484040404040405C
:10159000404040404040404040404040404040404B
:1015A000404040404040404040404040404040403B
:1015B000404040404040404040404040404040402B
:1015C00040404048304F0001020408102040800095
:1015D000000000003E5B4F5B3E3E6B4F6B3E1C3E8F
:1015E0007C3E1C183C7E3C181C577D571C1C5E7FA3
:1015F0005E1C00183C1800FFE7C3E7FF0018241822
:1016000000FFE7DBE7FF30483A060E262979292656
:10161000407F050507407F05253F5A3CE73C5A7F40
:101620003E1C1C08081C1C3E7F14227F22145F5F96
:10163000005F5F06097F017F006689956A606060D0
:10164000606094A2FFA29408047E040810207E200B
:101650001008082A1C08081C2A08081E1010101060
:101660000C1E0C1E0C30383E3830060E3E0E0600A6
:101670000000000000005F00000007000700147F6A
:10168000147F14242A7F2A122313086462364956D1
:1016900020500008070300001C2241000041221CCA
:1016A000002A1C7F1C2A08083E08080080703000B1
:1016B0000808080808000060600020100804023EC6
:1016C0005149453E00427F40007249494946214107
:1016D000494D331814127F1027454545393C4A4976
:1016E00049314121110907364949493646494929B5
:1016F0001E000014000000403400000008142241C5
:101700001414141414004122140802015909063E4D
:10171000415D594E7C1211127C7F494949363E4148
:101720004141227F4141413E7F494949417F090969
:1017300009013E414151737F0808087F00417F4104
:10174000002040413F017F081422417F404040403B
:101750007F021C027F7F0408107F3E4141413E7F93
:10176000090909063E4151215E7F0919294626498A
:1017700049493203017F01033F4040403F1F204061
:10178000201F3F4038403F6314081463030478046B
:10179000036159494D43007F414141020408102033
:1017A000004141417F0402010204404040404000AA
:1017B0000307080020545478407F284444383844B4
:1017C000444428384444287F385454541800087E30
:1017D000090218A4A49C787F0804047800447D4082
:1017E000002040403D007F1028440000417F400021
:1017F0007C047804787C080404783844444438FC39
:101800001824241818242418FC7C080404084854BC
:1018100054542404043F44243C4040207C1C204079
:10182000201C3C4030403C44281028444C90909070
:101830007C4464544C4400083641000000770000AA
:10184000004136080002010204023C2623263C1E09
:10185000A1A161123A4040207A385454555921557B
:10186000557941215454784121555478402054559C
:1018700079400C1E527212395555555939545454E9
:101880005939555454580000457C410002457D4269
:101890000001457C40F0292429F0F0282528F07C1F
:1018A000545545002054547C547C0A097F493249E0
:1018B0004949323248484832324A4848303A414130
:1018C000217A3A42402078009DA0A07D39444444CA
:1018D000393D4040403D3C24FF2424487E49436636
:1018E0002B2FFC2F2BFF0929F620C0887E0903200F
:1018F000545479410000447D413048484A323840D0
:1019000040227A007A0A0A727D0D19317D26292932
:101910002F28262929292630484D40203808080834
:101920000808080808382F10C8ACBA2F102834FA55
:1019300000007B000008142A142222142A1408959F
:1019400000220095AA005500AAAA55AA55AA00008F
:1019500000FF00101010FF00141414FF001010FFFF
:1019600000FF1010F010F0141414FC001414F70011
:10197000FF0000FF00FF1414F404FC141417101FE0
:1019800010101F101F1414141F00101010F000006E
:1019900000001F101010101F10101010F010000089
:1019A00000FF101010101010101010FF1000000099
:1019B000FF140000FF00FF00001F10170000FC04D0
:1019C000F414141710171414F404F40000FF00F7B3
:1019D00014141414141414F700F714141417141016
:1019E000101F101F141414F4141010F010F0000045
:1019F0001F101F0000001F14000000FC140000F066
:101A000010F01010FF10FF141414FF141010101F0A
:101A100000000000F010FFFFFFFFFFF0F0F0F0F01B
:101A2000FFFFFF0000000000FFFF0F0F0F0F0F3838
:101A3000444438447C2A2A3E147E02020606027E72
:101A4000027E0263554941633844443C04407E2091
:101A50001E2006027E020299A5E7A5991C2A492AA2
:101A60001C4C7201724C304A4D4D30304878483031
:101A7000BC625A463D3E494949007E0101017E2A29
:101A80002A2A2A2A44445F444440514A444040445C
:101A90004A51400000FF0103E080FF000008086B8E
:101AA0006B083612362436060F090F060000181888
:101AB0000000001010003040FF0101001F01011E56
:101AC00000191D1712003C3C3C3C000000000008BF
:101AD0000B000202020100090400000102020000E2
:101AE0000524001001052401010104240206052437
:101AF0000600010705810310004009040100020AE5
:101B000000000007050202400000070583024000B4
:101B1000000403090412010002EF020140412336D0
:101B20008000010102030141726475696E6F204CEF
:101B30004C430041726475626F7900796F75277646
:101B400065206C6F7374203220636F696E7300526E
:101B500065737420796F757220776F756E6473008A
:101B6000546865204172656E6120506974746965BE
:101B70007320796F75004220746F207265747572DE
:101B80006E20746F206D656E7500596F75206861E9
:101B90007665204661696C6564004220746F20722E
:101BA000657475726E20746F206D656E750061735B
:101BB00020796F7572207072697A650074616B6547
:101BC000203220636F696E7300566963746F727997
:101BD000004D616769630075736564200054686532
:101BE000206D6F620041747461636B6564005468BA
:101BF00065206D6F6200446566656E6465640054BF
:101C00006865206D6F6200636F6E74696E75650044
:101C10005370656369616C00446566656E6400417C
:101C2000747461636B00000080C0C0E0E0E070701D
:101C3000F8787070F07010000000000000000000E4
:101C40000000000000000000000000001070F070B4
:101C500070F070F0F0F0E0E0C0C0808080801EFF87
:101C60000303FFFFFF000000FF000000FF00000073
:101C70000000000000000000000000000000000064
:101C8000000000000000FF0000FF0000FFFFFF0158
:101C900001FF0303FF07807F40404F3FAFA050503C
:101CA0005F50E8E8EFE8E880808080808080808076
:101CB0008080808080808080808080E8E8E8CFE835
:101CC000E8EFD0D0DFDFAFA0407F4080FF003EBF15
:101CD000FEF4F5B3B3BBB999ABABABAFBF7D7571D8
:101CE000535DDDDDDDD9DBD6F77B77BBB7B7B59DBF
:101CF000949C9C9C3C7F6F6F5D797D7D7D3DB9F7A9
:101D0000EFEFEDDCBE7D68703A200020B8FEF450A5
:101D10000067FA6C1C6CF86C070200000000000100
:101D2000181F3830186CBEDD87DDBE663C18387071
:101D3000E0000000000000000E030E0103010E078A
:101D40000E00000103010000B92C11241FBECFEFCB
:101D5000DAE0DEBFCDBF12E0A0E0B1E0EAE1F0E6FC
:101D600002C005900D92A63BB107D9F727E0A6EB7C
:101D7000B2E001C01D92AB3DB207E1F71EE0C5EA3B
:101D8000DEE004C02197FE010E94EC2FC43AD10787
:101D9000C9F70E94101F0C940B300C940000CF92D6
:101DA000DF92EF92FF920F931F93CF93DF936C011B
:101DB0007A018B01C0E0D0E0CE15DF0589F0D801B3
:101DC0006D918D01D601ED91FC910190F081E02D96
:101DD000C6010995892B11F47E0102C02196ECCF32
:101DE000C701DF91CF911F910F91FF90EF90DF908E
:101DF000CF9008953FB7F8948091C2029091C302AA
:101E0000A091C402B091C50226B5A89B05C02F3F82
:101E100019F00196A11DB11D3FBFBA2FA92F982F10
:101E20008827820F911DA11DB11DBC01CD0142E08B
:101E3000660F771F881F991F4A95D1F708952D9A2D
:101E400008958EBD00000DB407FEFDCF08950895DE
:101E5000089580E090E008950F931F93CF93DF9350
:101E6000CDB7DEB78C014D855E85DC011696ED9110
:101E7000FC9117971A966D917C911B978F85988985
:101E8000680F791F8BA19CA19B01281B390B6B8DBF
:101E90007C8D469FC001479F900D569F900D112449
:101EA0009695879596958795840F951F63E070E0CA
:101EB0000E94D82F620F731FD80156968D919C9166
:101EC0005797E89F9001E99F300DF89F300D11243E
:101ED00036952795369527952E0F3F1F37FF02C061
:101EE0002F5F3F4F35952795621B730BF801828159
:101EF0009381161617062CF4861B970B9383828307
:101F000003C0019793838283DF91CF911F910F913B
:101F100008950E9406308F929F92AF92BF92CF9207
:101F2000DF92EF92FF926B017C010E94FA0E4B014F
:101F30005C01C114D104E104F104F1F00E94FA0E35
:101F4000DC01CB0188199909AA09BB09883E934095
:101F5000A105B10570F321E0C21AD108E108F1082A
:101F600088EE880E83E0981EA11CB11CC114D10418
:101F7000E104F10419F7DDCFFF90EF90DF90CF90EF
:101F8000BF90AF909F908F900895BC0180E090E04B
:101F90000C948B0F1F920F920FB60F9211242F9358
:101FA0003F938F939F93AF93BF938091B60290918D
:101FB000B702A091B802B091B9023091C10223E0FA
:101FC000230F2D3720F40196A11DB11D05C026E871
:101FD000230F0296A11DB11D2093C1028093B6026A
:101FE0009093B702A093B802B093B9028091C20255
:101FF0009091C302A091C402B091C5020196A11DA7
:10200000B11D8093C2029093C302A093C402B09307
:10201000C502BF91AF919F918F913F912F910F90EA
:102020000FBE0F901F9018958FB12CB193B130E077
:102030002095309520743327A90123E055954795C5
:102040002A95E1F7292F30E020953095207133272C
:102050003595279535952795242B8095807F822B64
:10206000089583B7817F83BF83B7816083BF8895DD
:1020700083B78E7F83BF089560387105D0F44034F4
:102080005105B8F4E7ECF5E180E1849FD001A07838
:102090001124A60F4770E40FF11D8491AD50BD4F80
:1020A000222319F06C91862B03C080956C918623B6
:1020B0008C9308952F923F924F925F926F927F92EE
:1020C0008F929F92AF92BF92CF92DF92EF92FF9248
:1020D0000F931F93CF93DF93CDB7DEB729970FB63A
:1020E000F894DEBF0FBECDBFFC016A3069F4248DC9
:1020F000808D918D38E0239F800D911D1124918F4B
:10210000808F178A168AAAC06D3009F4A7C09987F4
:102110008887F48C338C228C608C718C06891789AB
:1021200000381105C4F0A885B9855C962C915C97A0
:10213000422F50E056968D919C915797B6E02B9F79
:10214000800D911D1124E885F985978B868B258D4F
:1021500021116EC083C0F0E46F16710424F7C8012A
:1021600025E0F29E800D911D112418161906DCF64B
:102170008F2D90E09C838B83C301A8E0FA9E800D95
:10218000911D11241816190674F6B5E06B9FB00165
:102190001124FB01E153FA4EFA83E98330E088858C
:1021A000998504969E838D83E981FA81E490353088
:1021B00009F4E12C430188E0482EE0FC02C0532CD6
:1021C00001C0522C51100BC0321009C0E6944A9441
:1021D0008B819C81880E991E4110EFCF1BC0680136
:1021E0008C2D801B8F1590F754018A2D88198F151F
:1021F00068F4252DA501B6018D819E813F830E9443
:102200003C109FEFA91AB90A3F81EFCFAFEFCA1A6E
:10221000DA0AE6CF3F5FEB81FC810E0F1F1F898139
:102220009A8101969A838983363009F0BDCF7BCF9E
:102230006AEF64039001659F300D112420583F4FD1
:10224000281739075CF4A885B985ED91FC911197A1
:102250000190F081E02D6AE0CD01099581E090E0E8
:1022600029960FB6F894DEBF0FBECDBFDF91CF9198
:102270001F910F91FF90EF90DF90CF90BF90AF90A4
:102280009F908F907F906F905F904F903F902F9096
:102290000895CF93DF9321E030E0EC013F832E835C
:1022A00024E630E03D8F2C8FFC01E65AFF4F11826F
:1022B000108220E030E040E050E06AE0ACEAB2E0BA
:1022C000465F5F4F25303105A8F4629FF001639FA0
:1022D000F00D1124E80FF91FB896EF01762F19922F
:1022E0007A95E9F7FC01E40FF51FB5A3A4A32F5FCE
:1022F0003F4FE6CFDF91CF910895EF92FF920F937A
:102300001F93CF93DF93CDB7DEB72A970FB6F8941C
:10231000DEBF0FBECDBFE982FA820B831C832D8303
:102320003E834F83588769877A874E8D5F8D2AE079
:10233000FE017396A5E0B7E001900D922A95E1F7B2
:1023400023EF36E0F901918380838D8D90E09583B2
:1023500084838AE0FE013196ABEFB6E001900D92E6
:102360008A95E1F7F9015783468362897389469F0D
:10237000C001479F900D569F900D1124969587950B
:1023800096958795480F591F538342832A960FB617
:10239000F894DEBF0FBECDBFDF91CF911F910F919B
:1023A000FF90EF9008950F9300E420E847EC51E18F
:1023B00060E070E080E090E00E947F1C0F91089543
:1023C0000F931F93CF93DF93CDE6D7E083E490E0A4
:1023D0009F8B8E8B84E290E0998F888F0FE017E0BF
:1023E000F801828193810E94CB1E85EC91E10E94CD
:1023F0005E1CF8012681378142895389249FC001E0
:10240000259F900D349F900D112496958795969554
:102410008795820F931F0E94CB1E82EC91E10E9450
:102420005E1CF8014481558104E124E166E070E01E
:1024300084E690E00E947F1C1F8A1E8A02E310E05F
:10244000198F088F20E330E04AE750E060E370E046
:1024500083E490E00E94B41D2AE330E04AE750E0B4
:102460006AE370E083E490E00E94B41D2AE330E068
:1024700043E450E060E370E083E490E00E94B41D28
:102480002AE330E04AE750E060E370E08AE790E05A
:102490000E94B41D82E490E09F8B8E8B86E090E0DA
:1024A000998F888F8DEB91E10E945E1C88E590E00A
:1024B0009F8B8E8B8DE090E0998F888F6091F906CD
:1024C0007091FA0680E090E04AE00E944B1E86E49C
:1024D00090E09F8B8E8B198F088FDF91CF911F918A
:1024E0000F91089521E030E04BE750E061E070E0AB
:1024F00083E090E00E94B41D2FE330E04BE750E012
:102500006FE370E083E090E00E94B41D2CE330E0C4
:1025100041E050E064E070E081E090E00E94B41D92
:102520002CE330E04EE750E064E070E08EE790E0AE
:102530000E94B41D21E030E041E050E064E070E032
:1025400083E090E00E94B41D21E030E04EE750E0CF
:1025500064E070E08CE790E00E94B41D2FE330E06F
:102560004EE750E06CE370E08CE790E00E94B41D11
:102570002FE330E041E050E06CE370E083E090E076
:102580000C94B41DFC01DB014115510509F075C027
:10259000CB0121303105A1F516964D915C9117972D
:1025A00056966D917C915797469F9001479F300DAD
:1025B000569F300D11243695279536952795240F73
:1025C000351F3F932F932DB73EB72C5131090FB6CE
:1025D000F8943EBF0FBE2DBFADB7BEB711962CE12C
:1025E00001900D922A95E1F70E942C0F4DB75EB72E
:1025F000425E5F4F0FB6F8945EBF0FBE4DBF0895A9
:10260000232BE1F41F921F92ADB7BEB75C970FB6B4
:10261000F894BEBF0FBEADBF11962CE101900D9294
:102620002A95E1F70E942C0F2DB73EB7225E3F4F4F
:102630000FB6F8943EBF0FBE2DBF08951F9222E043
:102640002F934DB75EB74C5151090FB6F8945EBF4A
:102650000FBE4DBFADB7BEB711962CE101900D92E4
:102660002A95E1F70E942C0F8DB79EB74E960FB6B4
:10267000F8949EBF0FBE8DBF08954130510529F4D7
:102680005093DC024093DB0208954230510539F546
:1026900016964D915C9117971C962D913C911D9724
:1026A000240F351F628D738D469FC001479F900D8B
:1026B000569F900D11249695879596958795820F34
:1026C000931F181619065CF412962D913C911397DE
:1026D000A901481B590B13965C934E9312970895CA
:1026E0000F931F93CF93DF9381EC80937C0085B190
:1026F000806F85B9249884B1866E84B95E9A5F989C
:102700008AB1806D8AB9769A6E9881B3806F81BBE9
:10271000899880B38D7080BB80E58CBD81E08DBDD4
:1027200085E090E00E94C50F5F9A85E090E00E94EE
:10273000C50F5E985C98C0EBD1E11C2F135FFE01C2
:1027400084910E94210F21961C13F9CF5C9A81E895
:102750008093640081E080936500C0E0D4E080E075
:102760000E94210F2197D9F70E94141087FF1FC0E4
:102770005C9885EA0E94210F5C9A2E982F982D98DC
:10278000809164008062809364000E943110FDCFCC
:102790002D980E9414108478843871F00E941410CF
:1027A0008471843131F188EC90E00E94C50F0E9461
:1027B000141082FDEDCF3AC00E941F0F88EC90E00C
:1027C0000E94C50F2F9882E090E00E94C12D8F3F9C
:1027D00029F06FEF82E090E00E94C92D84EF91E034
:1027E0000E94C50F2F9A0E94141084788438D9F360
:1027F000D5CF0E941F0F88EC90E00E94C50F2E9845
:1028000082E090E00E94C12D882329F060E082E000
:1028100090E00E94C92D84EF91E00E94C50F2E9A8E
:102820000E94141084718431D9F3BDCF0E941F0F10
:1028300082E090E00E94C12D882331F03E9A3F9AB9
:1028400081E08093C00204C01092C0023E983F987D
:102850002E98CEEEDFEF0E94141086FF04C02E9A51
:102860002F9A2D9A39C0CC3F8FEFD80719F42E9AA2
:102870002F9805C0C831D10511F42F9A2D980E94C8
:102880007E1D00E128E540E051E1BE0184E190E0D9
:102890000E947F1C0E94391E8BE190E00E94C50FB0
:1028A000C03FEFEFDE0721F48AEF90E00E94C50FF2
:1028B0002196C931D10579F68CEB92E00E94C50FC3
:1028C0000E941F0FE0917107F09172070190F08153
:1028D000E02D81E797E0099582E390E00E94C50F23
:1028E0000E9414108111F8CF81E2809378078091C3
:1028F00064008E7F8093640080917A00806480936E
:102900007A0080917A0086FDFCCFC0917800D0914A
:1029100079000E94FA0E8E0120E030E09801112724
:102920000027600F711F821F931F611571058105BC
:10293000910511F00E94B82D809164008160809310
:1029400064001092D6021092D502DF91CF911F91B0
:102950000F910C948B1DCF93DF931F92CDB7DEB7F1
:102960006983DC01ED91FC910280F381E02D41E06F
:1029700050E0BE016F5F7F4F09950F90DF91CF91BF
:10298000089583E08093E9008091F200882319F094
:102990008AE38093E8000895FC018485958597FD7E
:1029A0000BC09FB7F89482E08093E9008091F20019
:1029B0009FBF90E0019608959FB7F89482E08093BE
:1029C000E9008091F2009FBF90E008958F929F925E
:1029D000AF92BF92CF92DF92EF92FF920F931F932D
:1029E000CF93DF935C016B017A0180910B01882307
:1029F00009F45BC08091CF02882309F456C080910E
:102A0000CC0280FF05C08091E00082608093E000EE
:102A1000E70110E00AEF83E0882E9AE3992E2097D1
:102A2000D9F10E942E1C81110AC0015009F43DC049
:102A300061E070E080E090E00E948B0FF0CF282FE3
:102A400030E0C217D3070CF48C2F4FB7F894809264
:102A5000E9009091E80095FF1DC0282F30E0C21BCF
:102A6000D30BF601982F915020F081918093F100C3
:102A7000FACFC20ED31E112319F09092E80009C0BC
:102A80008091E80085FD06C09092E80011E0209753
:102A900009F010E04FBFC3CF1111C3CF5D9884E69A
:102AA0008093CD021E141F0444F081E090E0F501F4
:102AB0009383828380E090E001C0C701DF91CF91D2
:102AC0001F910F91FF90EF90DF90CF90BF90AF904C
:102AD0009F908F9008950E942E1C90E00895CF93B0
:102AE000DF931F92CDB7DEB7FC018485958597FDF6
:102AF00005C02FEF3FEF358724870BC0CE0101962D
:102B00000E94041C019719F4898190E002C08FEFA4
:102B10009FEF0F90DF91CF9108950F931F93CF9365
:102B2000DF931F92CDB7DEB78C01FC0184859585BC
:102B300097FF0EC0CE0101960E94041C019719F464
:102B4000298130E002C02FEF3FEFF801358724875D
:102B5000F801848595850F90DF91CF911F910F919A
:102B60000895DF92EF92FF920F931F93CF93DF931D
:102B7000D82E8A017B01E40EF51EEB01CE15DF0590
:102B800071F0D7FE03C0FE01849101C088810E94CC
:102B9000D51E21968111F2CF8FEF9FEF01C0C801A2
:102BA000DF91CF911F910F91FF90EF90DF900895EB
:102BB0000F931F93CF93DF931F92CDB7DEB782E0C1
:102BC000898342E450E06FEC7AE180E80E94B1151D
:102BD0000E943F1CDC0112960D911C911397011568
:102BE000110569F0D801ED91FC910280F381E02D8F
:102BF000BE016F5F7F4FC801099597FF07C08981AC
:102C00000F90DF91CF911F910F910895F8010085EA
:102C10001185E5CF1F920F920FB60F9211248F935B
:102C20009F938091E1009091E100937F9093E10068
:102C300083FF0FC01092E90091E09093EB00109297
:102C4000EC0092E39093ED001092CF0298E0909305
:102C5000F00082FF20C093E09093E9009091F20091
:102C6000992319F09AE39093E8009091CD0299236B
:102C700039F09091CD0291509093CD02992389F132
:102C80009091CE02992339F09091CE029150909379
:102C9000CE02992341F184FF10C08091E2008E7E24
:102CA00081608093E2008091E1008F7E8093E1005B
:102CB0008091CC028E7E806111C080FF16C0809111
:102CC000E2008E7E80618093E2008091E1008E7E42
:102CD0008093E1008091CC028E7E81608093CC0253
:102CE00004C05D9ACDCF289AD6CF9F918F910F9037
:102CF0000FBE0F901F9018951F920F920FB60F9254
:102D00001124CF92DF92EF92FF920F931F932F9394
:102D10003F934F935F936F937F938F939F93AF9363
:102D2000BF93EF93FF93CF93DF93CDB7DEB76C974D
:102D3000DEBFCDBF1092E9008091E80083FFEDC1B6
:102D400068E0CE0145960E94031F82EF8093E80061
:102D50008D8987FF05C09091E80090FFFCCF03C0EC
:102D60009EEF9093E800982F907609F0C6C09E8958
:102D70002F89188D91110CC0803829F48091CB02D5
:102D80008093F10002C01092F1001092F10048C14E
:102D9000422F50E0512B913051F4811141C141300B
:102DA000510509F03DC18091CB028D7F0BC093305E
:102DB00061F4811135C14130510509F031C1809173
:102DC000CB0282608093CB022BC1953041F480917D
:102DD000E80080FFFCCF20682093E30021C19630FB
:102DE00009F05FC0EB8CFC8C1092E9001092C902D4
:102DF0001092C802123091F51092C7021092C602CA
:102E00000E94D81599E0BE016F5F7F4FDB01E92F6B
:102E10001D92EA95E9F799831A8391E09E8390EADF
:102E200098879AEF99872091C8023091C902275F4D
:102E30003F4F3C832B838D831092E9001092C9028F
:102E40001092C802F092C702E092C60249E050E038
:102E500080E00E94B1150E94D815E2C0F092C7022E
:102E6000E092C6020E943F1CDC011296ED90FC909D
:102E70001397E114F10409F4C0C0D701ED91FC915E
:102E80000480F581E02DBE016B5E7F4FC70109957F
:102E9000009719F00CF0C4C0C7C0F701E084F184BA
:102EA000E8CF973009F4C0C0983021F481E08093D6
:102EB000F100B6C0993009F0B3C0837009F0B4C016
:102EC000EFEBF1E081E021E036E39081992361F0BE
:102ED0008093E9002093EB0091919093EC00309364
:102EE000ED008F5F873089F78EE78093EA001092BC
:102EF000EA008F898093CF0293C08B8D9C8D1092B6
:102F0000E9001092C9021092C8029093C702809300
:102F1000C602898D811156C08E899D89913A59F4D6
:102F2000813209F081C047E050E064E071E080E068
:102F30000E94B11575C0913209F076C0833289F4D0
:102F4000888D90E0982F88272F89822BA0E0B0E011
:102F50008093000190930101A0930201B0930301BB
:102F60005FC0803269F48091E80082FFFCCF67E0A7
:102F700084E091E00E94031F8BEF8093E80006C07D
:102F8000823209F04DC08F8980930B018091CA0273
:102F9000882319F0EEEFFAE002C0E0E0F8E080915B
:102FA000040190910501A0910601B0910701803BB9
:102FB0009440A105B10509F07BC080910B0180FF11
:102FC00093C076C00E943F1CDC0112960D911C91AB
:102FD00013970115110541F1D801ED91FC91019074
:102FE000F081E02DBE016B5E7F4FC8010995811114
:102FF00017C0F80100851185ECCF113009F44EC0DF
:10300000133091F48F89882309F445C0823081F40C
:1030100040E867E083E39BE10E947C2C882321F059
:103020008EEF8093E80079C081E28093EB0075C059
:10303000813029F440E86BE087E29BE1EDCF8330FB
:1030400099F70E943F1CDC011296ED90FC901397BB
:103050008E010F5F1F4F6801E114F10479F0D70171
:10306000ED91FC910680F781E02DB801C70109952B
:10307000080F111DF701E084F184EECFD8011C92F6
:10308000F60101900020E9F73197BF016C197D0925
:1030900040E0C601C1CF61E17BE102C065E17BE1B7
:1030A0006115710509F2FB01449150E080E840CFC1
:1030B0000FB6F894A89580916000886180936000B5
:1030C000109260000FBEA895EE3F2AE0F20739F09B
:1030D0008091FE0A9091FF0A91838083A1CF109284
:1030E000FF0A1092FE0A9CCFEE3F8AE0F80731F00B
:1030F000808191819093FF0A8093FE0A87E797E78A
:10310000918380839BE088E10FB6F894A895809323
:1031100060000FBE9093600083CF6C960FB6F8945A
:10312000DEBF0FBECDBFDF91CF91FF91EF91BF9179
:10313000AF919F918F917F916F915F914F913F914F
:103140002F911F910F91FF90EF90DF90CF900F90F4
:103150000FBE0F901F901895CF92DF92EF92FF92C3
:103160000F931F93CF93DF938091110790911207D4
:10317000181619060CF06EC28091F5069091F606AD
:10318000181619060CF0C7C10E948B1DC6E0D0E0CE
:10319000D0938407C0938307E4E0CE2ED12CD09245
:1031A0008607C09285078091F3069091F4060E94ED
:1031B000941DD0938407C0938307FEE0EF2EF12C7B
:1031C000F0928607E092850786E09DE10E945E1CF2
:1031D0008091F5069091F6060E94B31E00E228E366
:1031E00046E25CE16BE170E085E090E00E947F1CCC
:1031F0004091F7065091F80604E124E16DE170E09A
:1032000086E190E00E947F1C0E94D3110E94E01191
:103210008091DB029091DC02009709F002C180915D
:10322000F1029091F202009709F073C01092F0023F
:103230008091D9029091DA02039724F01092DA0279
:103240001092D9028091D9029091DA0297FF06C0BC
:1032500082E090E09093DA028093D9028091D902C3
:103260009091DA028130910541F08230910541F070
:10327000892B51F48FE19CE105C088E19CE102C0FB
:1032800080E19CE10E945E1C88E00E94531C882320
:10329000E1F08091D7029091D802892BB1F421E01E
:1032A00030E03093D8022093D7028091D9029091D8
:1032B000DA028130910509F066C29093EF028093A3
:1032C000EE029093F2028093F1020E94552D63E08A
:1032D00070E00E94D82F8130910579F048F082305B
:1032E000910509F068C29093ED028093EC020EC044
:1032F0001092ED021092EC0209C09093ED028093BF
:10330000EC029093EB028093EA0255C281E090E0D8
:10331000F8CF019709F04FC28091EA029091EB0239
:10332000019709F048C22091150730911607809146
:10333000F9069091FA066091270770912807269F59
:10334000A001279F500D369F500D1124569547958B
:1033500056954795240F351F60910B0770910C0708
:10336000869FA001879F500D969F500D1124569562
:10337000479556954795840F951F8217930724F418
:1033800081E08093E90202C01092E9029091E90283
:103390008091F0029923C9F081110DC2C091EC0215
:1033A000D091ED020091EE021091EF029E01A80172
:1033B00063EF76E08FE097E00E94C2129801AE01C1
:1033C0006FE077E083EF96E018C08111F4C1C091FF
:1033D000EE02D091EF020091EC021091ED029E01FD
:1033E000A8016FE077E083EF96E00E94C212980197
:1033F000AE0163EF76E08FE097E00E94C21281E0B9
:1034000090E09093D8028093D70221E02093F002BD
:103410001092F2021092F1029093DC028093DB0290
:10342000CAC1019709F0C7C10E948B1D0E94D31128
:103430000E94E01186E490E09093840780938307D4
:1034400082E390E0909386078093850787E09CE174
:103450000E945E1CD0938407C0938307D092860796
:10346000C09285078091EC029091ED028130910528
:1034700079F48FEF9BE10E94A61DD0938407C0933F
:103480008307F0928607E092850786EF9BE12DC0C7
:10349000892B79F48EEE9BE10E94A61DD0938407C0
:1034A000C0938307F0928607E092850785EE9BE143
:1034B0001CC08DED9BE10E94A61DD0938407C09394
:1034C0008307F0928607E092850787ED9BE10E94D3
:1034D000A61DD0938407C093830788E190E0909362
:1034E00086078093850781ED9BE10E94A61D88E0F9
:1034F0000E94531C882309F45EC18091D7029091E9
:10350000D802892B09F057C181E090E09093D8024E
:103510008093D7024CC10E948B1D0E94721284E1DD
:1035200090E090938407809383079093860780931D
:10353000850789EC9BE10E94A61DCFE0D0E0D093E7
:103540008407C09383078EE190E090938607809371
:1035500085078CEB9BE10E94A61DD0938407C09346
:10356000830788E290E090938607809385078EEA30
:103570009BE10E94A61D8AE090E0909384078093CF
:10358000830782E390E090938607809385078AE91A
:103590009BE10E94A61D84E00E94531C882309F42D
:1035A00006C182E090E09093D6028093D5021092FB
:1035B000D40280912B0790912C07029690932C07B0
:1035C00080932B070091F9061091FA06000F111F46
:1035D0008091690790916A07080F191F10936A0775
:1035E00000936907C0911507D0911607BE0180E0CE
:1035F00090E00E94DD2E9B01AC010E946B2F20E029
:1036000030E040E450E40E946B2F20E030E040E8DE
:1036100050E40E943B2E0E94A72E601771072CF4E5
:103620002196D0931607C09315078091D2029091EE
:10363000D302019709F0BBC08091D0029091D102D2
:1036400001969093D1028093D0021092D3021092EF
:10365000D202ADC00E948B1D0E947212C4E1D0E064
:10366000D0938407C0938307D0938607C0938507C0
:103670008AE89BE10E94A61DD0938407C09383072C
:103680008EE190E0909386078093850786E79BE123
:103690000E94A61D80912B0790912C0718161906E1
:1036A000FCF08FE090E0909384078093830788E29A
:1036B00090E0909386078093850780E69BE10E94C7
:1036C000A61DD0938407C093830782E390E0909374
:1036D0008607809385078FE49BE10E94A61D10C09A
:1036E0008FE090E0909384078093830788E290E0D6
:1036F00090938607809385078BE39BE10E945E1C75
:1037000084E00E94531C882309F451C082E090E0B9
:103710009093D6028093D5021092D402809115071F
:10372000909116074091210750912207849F9001A4
:10373000859F300D949F300D112436952795369531
:103740002795820F931F9093120780931107809102
:10375000D2029091D302019721F41092D3021092D9
:10376000D20280912B0790912C078230910534F082
:10377000029790932C0780932B0719C010922C0767
:1037800010922B0714C08230910549F49093EF02F8
:103790008093EE023093F2022093F10296CD892BB2
:1037A00009F093CD1092EF021092EE02F3CF109237
:1037B000DC021092DB02DF91CF911F910F91FF90FD
:1037C000EF90DF90CF900895CF93DF93BC0180E01E
:1037D00090E04AE00E944B1EEC0182EB92E00E94D6
:1037E000941D8C0F9D1FDF91CF910895CF93DF9390
:1037F0000E94941DEC0182EB92E00E94941D8C0FBC
:103800009D1FDF91CF910895FC018091CF0281111E
:1038100003C08FEF9FEF08959FB7F89482E08093E5
:10382000E9002091F20030E01216130614F421E0B2
:1038300030E02115310559F0289884E68093CE02B6
:103840008091F10080838091F200882319F09FBF5E
:10385000C90108958BE68093E800F9CF2FB7F8945B
:1038600083E08093E9009091E800892F807295FFB2
:1038700004C09091F20080E4891B2FBF08958091CD
:10388000E10281110DC082E08093DD0284E080932B
:10389000DE021092E0021092DF0281E08093E102EA
:1038A0008DED92E0089520917707282329F49091D7
:1038B0007607982381E009F480E008950F931F9321
:1038C000CF93DF938C01C0E0D0E0F801EC0FFD1F37
:1038D0006491662371F0E0916D07F0916E0701909D
:1038E000F081E02D8DE697E00995892B11F0219666
:1038F000ECCFCE01DF91CF911F910F9108952F92C0
:103900003F924F925F926F927F928F929F92AF926F
:10391000BF92CF92DF92EF92FF920F931F93CF93BC
:10392000DF93CDB7DEB728970FB6F894DEBF0FBE92
:10393000CDBF5A01822E912C9C01280D391D37FDD7
:10394000C4C0803891050CF0C0C09B01200F311D10
:1039500037FDBBC0603471050CF0B7C0AB0177FF19
:1039600004C044275527461B570B477055279B011A
:1039700077FF02C0295F3F4FE3E035952795EA9531
:10398000E1F777FF08C02150310968E070E0DB0102
:10399000A41BB50BAD01602F66956695669570E02A
:1039A000077011F06F5F7F4FDB01A20FB31FBA8367
:1039B000A98339017694762C662477946794680EEF
:1039C000791EE12CF12C00E010E02301B0E84B0E51
:1039D000511C68E070E0DB01A41BB50BBC83AB831A
:1039E00069817A812617370709F46FC028303105BD
:1039F00009F46BC02F3FBFEF3B070CF45BC0B20173
:103A0000600F711FDB01AD50BD4FBE83AD83D80188
:103A1000A60DB71DAD50BD4F6C0160E070E068159C
:103A200079050CF047C0E0E8CE16D10409F442C095
:103A3000D7FC34C02F3FFFEF3F0709F442C0FB0122
:103A4000EE0DFF1DEA0DFB1DE491042E01C0EE0FEB
:103A50000A94EAF73C90E329EC9341155105F1F003
:103A600027303105D9F0FB01EE0DFF1DEA0DFB1DDE
:103A7000E4912E2E312CF1010B8002C0F595E795D3
:103A80000A94E2F7F887EF83ED81FE813080EF81C1
:103A9000F885E3291F01ED81FE8120826F5F7F4F52
:103AA000ED81FE813196FE83ED83FFEFCF1ADF0AB1
:103AB0001196B5CF2F5F3F4F00581F4FE80CF91CF0
:103AC0008FCF4115510579F6E9CF28960FB6F894B6
:103AD000DEBF0FBECDBFDF91CF911F910F91FF9041
:103AE000EF90DF90CF90BF90AF909F908F907F909E
:103AF0006F905F904F903F902F90089580E0E3EF9C
:103B0000F2E081118FEF002481938193819381935F
:103B10000394D1F708950E947E1DEDE6F7E0118E23
:103B2000108E178A168A0895009769F0FC0101909B
:103B30000020E9F73197AF01481B590BBC018DE616
:103B400097E00C94CF0E80E090E00895CF93DF9340
:103B50000E945E1CEC0182EB92E00E94941D8C0F8F
:103B60009D1FDF91CF9108955F926F927F928F9208
:103B70009F92AF92BF92CF92DF92EF92FF920F93FC
:103B80001F93CF93DF93EC018B017A01A901461BB0
:103B9000570B57FF03C0519541955109C7018C1B25
:103BA0009D0B97FF03C091958195910955245394DE
:103BB0008417950714F0512C0AC09E2D8F2D790182
:103BC000292F382F9C2F8D2FE801092F182FEC1645
:103BD000FD0654F4902F812F8901292F382F9C2F17
:103BE0008D2FE701E92EF82E37016C1A7D0A590155
:103BF000A01AB10AB7FE03C0B194A194B108630141
:103C000077FE03C08FEFC81AD80AD594C79402175D
:103C1000130714F08FEF01C081E0882E880F9908F8
:103C2000EC16FD06B4F021E0552019F0AE01B80104
:103C300002C0A801BE0181E797E00E943C10CA18AB
:103C4000DB08D7FE04C0080D191DC60CD71C219631
:103C5000E7CFDF91CF911F910F91FF90EF90DF9011
:103C6000CF90BF90AF909F908F907F906F905F901C
:103C700008958091F3028EBDE4EFF2E081910DB4DE
:103C800007FEFDCF8EBD86E0E33FF807B9F70DB420
:103C900007FEFDCF08958F929F92AF92BF920F9330
:103CA0001F93CF93DF93CDB7DEB7A1970FB6F894EC
:103CB000DEBF0FBECDBF19A2423008F44AE08E012C
:103CC0000F5D1F4F842E912CA12CB12CA5019401C6
:103CD0000E94092EE62FB901CA0101501109EA30EC
:103CE00014F4E05D01C0E95CD801EC93232B242B94
:103CF000252B61F7C8010E94941DA1960FB6F89478
:103D0000DEBF0FBECDBFDF91CF911F910F91BF904E
:103D1000AF909F908F900895CF92DF92EF92FF9295
:103D2000CF93DF936B017C01E0916D07F0916E07FB
:103D30000190F081E02D6DE28DE697E00995EC01B0
:103D400066277727CB016C197D098E099F094AE008
:103D50000E944B1E8C0F9D1FDF91CF91FF90EF9023
:103D6000DF90CF900895CF93DF93BC01990F880B1C
:103D7000990B97FF03C00E948C1E03C04AE00E946B
:103D80004B1EEC0182EB92E00E94941D8C0F9D1F54
:103D9000DF91CF910895BC01990F880B990B97FD86
:103DA0000C948C1E4AE00C944B1E4091C80250911A
:103DB000C9022091C6023091C70242175307B4F4DA
:103DC0009091E8009570E1F39091E80092FD19C0A0
:103DD0008093F1008091C8029091C90201968F737F
:103DE0009927892B19F48EEF8093E8008091C802FF
:103DF0009091C90201969093C9028093C80281E014
:103E0000089580E00895615030F02091F100FC01A8
:103E100020830196F8CF289884E68093CE020895F7
:103E2000CF93DF93CDB7DEB7CA51D1400FB6F89428
:103E3000DEBF0FBECDBF789484B5826084BD84B5EB
:103E4000816084BD85B5826085BD85B5816085BD95
:103E500080916E00816080936E001092810080914D
:103E600081008260809381008091810081608093D5
:103E7000810080918000816080938000809191001A
:103E80008260809391008091910081608093910085
:103E9000809190008160809390008091C100846047
:103EA0008093C1008091C10082608093C1008091A5
:103EB000C10081608093C1008091C30081608093C4
:103EC000C3008091C00082608093C0008091C200D6
:103ED00081608093C20080917A00846080937A0030
:103EE00080917A00826080937A0080917A0081606C
:103EF00080937A0080917A00806880937A00109293
:103F0000CF021092CB021092CC028091D700816038
:103F10008093D70080EA8093D80089B5806189BDFD
:103F200089B5826089BD09B400FEFDCF61E070E013
:103F300080E090E00E948B0F8091D8008F7C8061A0
:103F40008093D8008091E000807F8093E000809192
:103F5000E1008E7E8093E1008DE08093E200559A2F
:103F6000209AEEEFFFE7859194918B3F9C4D19F4D9
:103F700081E08093CA020E947013AE0145565F4FE4
:103F8000CB5EDE4F59834883C551D1402E0155EA9F
:103F9000450E511CCE0189579F4FC95EDE4F998354
:103FA0008883C751D1404E0191E9890E911CDE01F1
:103FB000AD58BF4FC75EDE4FB983A883C951D1400A
:103FC0005E01BDE7AB0EB11C6E01E9E6CE0ED11C61
:103FD0009E012F513F4FCD5EDE4F39832883C35161
:103FE000D1401E0135EF230E311C2FB7F89480917C
:103FF000B6029091B702A091B802B091B9022FBF5A
:1040000040917D0750917E0760917F0770918007F6
:1040100020918107222349F020917907821B809308
:104020008207109281070C946B2A84179507A607C4
:10403000B70748F4481B423010F40C946B2A0E94D6
:1040400031100C946B2A21E020938107809379072B
:1040500090937A07A0937B07B0937C072091780711
:10406000820F911DA11DB11D80937D0790937E0746
:10407000A0937F07B0938007809174079091750794
:1040800001969093750780937407809176078093CB
:1040900077070E9414108093760780E80E94531CD3
:1040A000882349F08091D9029091DA020197909388
:1040B000DA028093D90280E10E94531C882349F0E0
:1040C0008091D9029091DA0201969093DA0280935E
:1040D000D9020E94141083FD04C01092D8021092DD
:1040E000D702E091D502F091D602E830F10510F048
:1040F0000C94692AEA5AFF4F0C94EC2F0E948B1DF6
:1041000000E420E840E05DE060E070E080E090E006
:104110000E947F1C89E190E090938407809383073D
:10412000109286071092850781EF9CE00E945E1C2A
:1041300084E00E94531C882311F40C94692A81E0C6
:1041400090E09093D6028093D5021092DA021092FA
:10415000D9020C94692ACE0101960E9449118EE57C
:10416000FE013196AFE0B7E001900D928A95E1F73C
:104170000E948B1D0E94721204E010E010938407CD
:104180000093830783E090E09093860780938507F0
:1041900080EE9CE00E945E1C8EED9CE00E945E1C06
:1041A0002DE030E04FE750E06DE070E081E090E01E
:1041B0000E94B41D10938407009383078FE090E062
:1041C00090938607809385078091D9029091DA02B7
:1041D000039724F01092DA021092D9028091D9024A
:1041E0009091DA0297FF06C082E090E09093DA02A5
:1041F0008093D9028091D9029091DA0281309105A1
:1042000019F182309105E9F1892B09F058C086ED4A
:104210009CE00E94A61D04E124E14AE95CE068E21A
:1042200070E084E090E00E947F1C84E090E0909336
:1042300084078093830789E190E0909386078093B9
:1042400085078CE89CE039C087E89CE00E94A61DA9
:1042500004E124E14BE45CE068E270E084E090E09B
:104260000E947F1C84E090E09093840780938307F2
:1042700089E190E0909386078093850785E39CE031
:104280001CC080E39CE00E945E1C04E124E144EF3A
:104290005BE068E270E084E090E00E947F1C84E0D4
:1042A00090E0909384078093830789E190E0909356
:1042B00086078093850785EE9BE00E945E1C0E9426
:1042C000141083FD02C00C94692A8091D70290914A
:1042D000D802892B11F40C94752A0C94692A0E9437
:1042E0008B1D80E390E0909384078093830784E0A4
:1042F00090E090938607809385078091D0029091FB
:10430000D1028130910549F028F0029751F48CE0F8
:104310009BE005C084E29BE002C089E19BE00E9433
:104320005E1C00E420E84CE057E060E070E080E0D4
:1043300090E00E947F1C8091D9029091DA0205974B
:1043400024F01092DA021092D9028091D902909151
:10435000DA0297FF06C084E090E09093DA0280933F
:10436000D90209E010E0109384070093830784E0EA
:1043700090E0909386078093850786E097E00E94FF
:104380005E1C10938407009383078EE090E0909367
:104390008607809385078091110790911207181660
:1043A000190624F48FEF96E00E945E1C09E010E0ED
:1043B000109384070093830728E1622E712C70927A
:1043C00086076092850789EF96E00E945E1C109335
:1043D00084070093830732E2E32EF12CF0928607E4
:1043E000E092850788EE96E00E945E1C1093840799
:1043F000009383070CE210E0109386070093850773
:1044000082EE96E00E945E1C8091D9029091DA02C1
:1044100082309105B1F1A4F4009721F1019709F0E0
:1044200050C083E090E090938407809383078EE0F0
:1044300090E090938607809385078EED96E03FC0CD
:104440008330910559F10497E1F583E090E0909372
:10445000840780938307109386070093850788ED70
:1044600096E02DC083E090E09093840780938307CB
:1044700084E090E0909386078093850780EE96E035
:104480001EC083E090E0909384078093830770922E
:104490008607609285078CED96E011C02091D002CE
:1044A0003091D1022430310560F4909384078093D9
:1044B0008307F0928607E09285078AED96E00E94D6
:1044C0005E1C0E94141083FD02C00C94692A809126
:1044D000D7029091D802892B09F4EBC7FAC78091D3
:1044E000D402811126C20E948B1D0E94552D65E0C9
:1044F00070E00E94D82F8C01E0901507F09016070D
:104500000E94552D97012150310963E070E00E940F
:10451000D82F280F391F1216130614F021E030E0AF
:104520000230110509F424C10CF061C00115110518
:1045300009F4C5C00130110509F0F4C18AE0E4E1D5
:10454000F1E0DE01AD53BF4F01900D928A95E1F786
:104550003E01FDEC6F0E711C8AE0D301E82F1D9225
:10456000EA95E9F7D30113961C930E9312973F93A4
:104570002F932CE936E02F93EDB7FEB73A970FB69D
:10458000F894FEBF0FBEEDBFADB7BEB71196FE01EA
:10459000ED53FF4F01900D928A95E1F7D301EC9016
:1045A0001196FC90119712960C91129713961C91EC
:1045B000139714962C91149715963C91159716966F
:1045C0004C91169717965C91179718966C911897BF
:1045D00019967C9184EB92E00E947D1183EF91E02B
:1045E0009093F4068093F3068BE49CE092C1033031
:1045F000110509F435C10430110509F093C18AE0B1
:10460000EEE1F1E0DE01A150BF4F01900D928A95DD
:10461000E1F73E01F7EF6F1AFEEF7F0A8AE0D30160
:10462000E82F1D92EA95E9F741E050E0D301139697
:104630005C934E93129715965C934E9314973F9309
:104640002F9324EF3BE02F93EDB7FEB73A970FB6C9
:10465000F894FEBF0FBEEDBFADB7BEB71196FE0119
:10466000E150FF4F01900D928A95E1F7D301EC9054
:104670001196FC90119712960C91129713961C911B
:10468000139714962C91149715963C91159716969E
:104690004C91169717965C91179718966C911897EE
:1046A00019967C9184EB92E00E947D1189E192E061
:1046B0009093F4068093F30684E296E02AC18AE0A0
:1046C000E8E2F1E0DE01A155BF4F01900D928A951D
:1046D000E1F73E0149EB640E711C8AE0D301E82F3B
:1046E0001D92EA95E9F741E050E0D3014D935C93C8
:1046F0003F932F932CE936E02F93EDB7FEB73A970F
:104700000FB6F894FEBF0FBEEDBFADB7BEB71196A2
:10471000FE01E155FF4F01900D928A95E1F7D3011B
:10472000EC901196FC90119712960C91129713969B
:104730001C91139714962C91149715963C911597EC
:1047400016964C91169717965C91179718966C9140
:10475000189719967C9184EB92E00E947D1183E07A
:1047600092E09093F4068093F3068AE99CE0D1C02E
:104770008AE0E2E3F1E0DE01A952BF4F01900D9221
:104780008A95E1F78AE0CD5EDE4FA881B981C351F9
:10479000D140E82F1D92EA95E9F741E050E0CB5176
:1047A000DF4F59834883C55ED0403F932F9394EFEA
:1047B000692E9BE0792E6F922DB73EB72A503109B2
:1047C0000FB6F8943EBF0FBE2DBFADB7BEB7119662
:1047D000FE01E952FF4F01900D928A95E1F7CF510A
:1047E000DF4FE880C15ED040CE51DF4FF880C25E1F
:1047F000D040CD51DF4F0881C35ED040CC51DF4F58
:104800001881C45ED040CB51DF4F2881C55ED040B7
:10481000CA51DF4F3881C65ED040C951DF4F488151
:10482000C75ED040C851DF4F5881C85ED040C751E5
:10483000DF4F6881C95ED040C651DF4F7881CA5EC4
:10484000D04084EB92E00E947D118AE092E0909348
:10485000F4068093F3067092F8066092F7065DC046
:104860008AE0ECE3F1E0DE01A551BF4F01900D922B
:104870008A95E1F78AE0D101E82F1D92EA95E9F7E0
:1048800041E050E0D10111965C934E9315965C93F4
:104890004E9314973F932F9324EF3BE02F93EDB764
:1048A000FEB73A970FB6F894FEBF0FBEEDBFADB797
:1048B000BEB71196FE01E551FF4F01900D928A950A
:1048C000E1F7D101EC901196FC90119712960C91A2
:1048D000129713961C91139714962C911497159672
:1048E0003C91159716964C91169717965C911797D1
:1048F00018966C91189719967C9184EB92E00E941F
:104900007D1182E192E09093F4068093F30680E6B5
:1049100096E09093F8068093F7060FB6F894DEBF02
:104920000FBECDBF81E08093D4021092DA021092C4
:10493000D9020E94AC18CDC50E948B1D109284072D
:1049400010928307109286071092850782E196E005
:104950000E945E1C2AE030E042E850E06AE070E02D
:1049600080E090E00E94B41D0E94141082FF06C0F7
:1049700082E090E09093D6028093D5028091BC02B1
:104980009091BD02892B09F088C18091D902909144
:10499000DA02029724F01092DA021092D902809182
:1049A000D9029091DA0297FF06C081E090E09093DF
:1049B000DA028093D9028091D9029091DA020097AD
:1049C00009F006C11092840710928307ECE0EE2EE6
:1049D000F12CF0928607E092850780910F07909165
:1049E00010070E94F61B80911107909112070E94F8
:1049F000CB1E8DE192E00E94941D2091150730910D
:104A000016074091210750912207249FC001259F3E
:104A1000900D349F900D11249695879596958795C6
:104A2000820F931F0E94CB1E8EED95E00E94A61D63
:104A300084ED95E00E945E1C409115075091160789
:104A400020912D0730912E07240F351F60912307E9
:104A500070912407469FC001479F900D569F900D6F
:104A600011249695879596958795820F931F0E949E
:104A7000E41B8BEC95E00E945E1C40911507509161
:104A8000160720912F0730913007240F351F6091B2
:104A9000250770912607469FC001479F900D569F9E
:104AA000900D11249695879596958795820F931F63
:104AB0000E94E41B84EC95E00E945E1C2091150787
:104AC000309116074091270750912807249FC00175
:104AD000259F900D349F900D11249695879596955E
:104AE0008795820F931F0E94B31E8DEB95E00E9465
:104AF0005E1C4091150750911607209131073091A7
:104B00003207240F351F6091290770912A07469FAD
:104B1000C001479F900D569F900D11249695879543
:104B200096958795820F931F0E94E41B0BE410E07B
:104B30001093840700938307F0928607E09285071D
:104B400088EB95E00E945E1C609115077091160736
:104B500080E090E04AE00E944B1E86EB95E00E94C8
:104B60005E1C8091690790916A070E94CB1E10938A
:104B700084070093830784E190E0909386078093F5
:104B8000850780913307909134070E94F61B10939C
:104B90008407009383078CE190E0909386078093CD
:104BA00085078FEA95E00E945E1C80912B0790910B
:104BB0002C070E94CB1E409113075091140704E16B
:104BC00024E168E270E084E690E00E947F1C57C018
:104BD000019709F054C00E948B1D10928407109217
:104BE0008307109286071092850783EE95E00E9456
:104BF0005E1C2AE030E042E850E06AE070E080E0CD
:104C000090E00E94B41D10928407109283078CE0FC
:104C100090E0909386078093850707E317E0D8011B
:104C200016968D919C9117970E94941D8BEA95E0A2
:104C30000E945E1CF8016081718180E090E04AE092
:104C40000E944B1E87EA95E00E945E1CD8011296D6
:104C50006D917C91139780E090E04AE00E944B1E9A
:104C600083EA95E00E945E1CF801848195810E9490
:104C7000E41B065F1F4FF7E009361F0781F60E940D
:104C8000141086FF0AC081E090E09093BD028093EB
:104C9000BC021092DA021092D9028091BC0290916B
:104CA000BD02019709F015C40E948B1D1092840764
:104CB0001092830710928607109285078AE096E08B
:104CC0000E945E1C2AE030E042E850E06AE070E0BA
:104CD00080E090E00E94B41D109284071092830738
:104CE0008CE090E0909386078093850784EF95E0B1
:104CF0000E94A61D8091D9029091DA02059724F0B6
:104D00001092DA021092D9028091D9029091DA02BF
:104D100097FF06C084E090E09093DA028093D90276
:104D20008091D9029091DA021AE0189FF001199F40
:104D3000F00D1124E15FF84F86A597A50E94941D00
:104D40000E94141083FF07C08091D7029091D8026F
:104D5000892B09F4E6C40E94141085FFBAC310928F
:104D6000BD021092BC02B5C30E948B1D00E420E876
:104D700043EA51E060E070E080E090E00E947F1C38
:104D800088E090E0909384078093830789E290E025
:104D9000909386078093850781E292E00E94941D9C
:104DA00085E090E0909384078093830786E390E00A
:104DB00090938607809385070E94141082FF0AC093
:104DC00082E090E09093D6028093D5021092DA02AE
:104DD0001092D9028091BE029091BF02892B09F0F6
:104DE00060C08091D9029091DA02029724F010926B
:104DF000DA021092D9028091D9029091DA0297FFDB
:104E000006C081E090E09093DA028093D90280910D
:104E1000D9029091DA02009719F0019721F026C08B
:104E200080E991E021C0809115079091160740918B
:104E3000210750912207849F9001859F300D949FF8
:104E4000300D11243695279536952795820F931F9F
:104E50002091110730911207281739071CF483E8B5
:104E600091E002C081E791E00E945E1C0E94141054
:104E700083FF17C08091D7029091D802892B89F4C3
:104E800021E030E03093D8022093D7028091D902FC
:104E90009091DA02009709F072C43093BF02209318
:104EA000BE028091BE029091BF02019709F0AAC094
:104EB0008091D9029091DA02069724F01092DA02DA
:104EC0001092D9028091D9029091DA0297FF06C020
:104ED00085E090E09093DA028093D9020E948B1DC6
:104EE00048E0642E712C709284076092830759E227
:104EF000E52EF12CF0928607E09285078EE591E091
:104F00000E94A61D00E420E843EA51E060E070E062
:104F100080E090E00E947F1C85E090E09093840701
:104F20008093830786E390E09093860780938507BC
:104F30008091D9029091DA021AE0189FF001199F2E
:104F4000F00D1124EE57FE4F868197810E94941D2B
:104F50008CE591E00E945E1C8091D9029091DA026A
:104F6000189FF001199FF00D1124EE57FE4F608538
:104F7000718580E090E04AE00E944B1E86E591E05A
:104F80000E94A61D8091D9029091DA02189FF0012B
:104F9000199FF00D1124EE57FE4F20912B073091F1
:104FA0002C07808591852817390760F47092840753
:104FB00060928307F0928607E09285078DE491E086
:104FC0000E945E1C0E94141083FF1CC08091D702B7
:104FD0009091D802892BB1F48091D9029091DA0294
:104FE0002AE0289FF001299FF00D1124EE57FE4F73
:104FF00040912B0750912C0720853185421753078C
:1050000008F0F0C38091BE029091BF02029709F0B0
:1050100060C28091D9029091DA02059724F0109233
:10502000DA021092D9028091D9029091DA0297FFA8
:1050300006C084E090E09093DA028093D9020E9447
:105040008B1D00E420E843EA51E060E070E080E07E
:1050500090E00E947F1C88E090E09093840780930A
:10506000830789E290E090938607809385078DE31C
:1050700091E00E94A61D85E090E0909384078093C4
:10508000830786E390E0909386078093850784E307
:1050900091E00E945E1C8091D9029091DA020E94F8
:1050A000CB1E8FE192E00E94941D8091D9029091D5
:1050B000DA021AE0189FF001199FF00D1124E15F48
:1050C000F84F86A597A50E94F61B0E94141083FF37
:1050D00000C28091D7029091D802892B09F493C322
:1050E000F8C18091D402811124CC0E948B1D81E0F3
:1050F0008093D4021092DA021092D90281E090E0FB
:105100009093D3028093D2028091D0029091D102E9
:10511000009709F059C08AE0E6E4F1E0DE01A15A07
:10512000BF4F01900D928A95E1F78AE0D601E82FF2
:105130001D92EA95E9F723E030E0D60111963C9301
:105140002E9315963C932E93149722E332E01796F4
:105150003C932E9316971F9293E09F933CE9632E06
:1051600036E0732E6F92EDB7FEB73A970FB6F8940C
:10517000FEBF0FBEEDBFADB7BEB71196FE01E15A3F
:10518000FF4F01900D928A95E1F7D601EC901196B0
:10519000FC90119712960C91129713961C911397ED
:1051A00014962C91149715963C91159716964C9140
:1051B000169717965C91179718966C9118971996F1
:1051C0007C918DE392E0EDC08130910509F071C0D2
:1051D0008AE0C75EDE4FA881B981C951D140E82F6E
:1051E0001D92EA95E9F72EE130E0E5963FAF2EAF4C
:1051F000E59724E130E0E7963FAF2EAFE79726E052
:1052000030E0E9963FAF2EAFE99724E030E0EB962F
:105210003FAF2EAFEB97D501E82F1D92EA95E9F746
:10522000D50111963C932E9322E030E013963C93E7
:105230002E93129723E432E017963C932E93169701
:105240001F9294E09F932BE0622E2DE1722E6F92BD
:10525000EDB7FEB73A970FB6F894FEBF0FBEEDBF9D
:10526000ADB7BEB71196FE01ED58FF4F01900D92FC
:105270008A95E1F7D501EC901196FC901197129662
:105280000C91129713961C91139714962C911497C6
:1052900015963C91159716964C91169717965C911A
:1052A000179718966C91189719967C9188E492E05C
:1052B00078C08230910509F07BC08AE0C95EDE4F7C
:1052C000A881B981C751D140E82F1D92EA95E9F72D
:1052D00028E230E0C957DF4F39832883C758D040D0
:1052E00024E130E0C757DF4F39832883C958D040C5
:1052F0002FE030E0C557DF4F39832883CB58D040AB
:1053000028E030E0C357DF4F39832883CD58D040A1
:10531000D401E82F1D92EA95E9F726E030E0D401A8
:1053200011963C932E932EE432E017963C932E93E5
:1053300016971F9295E09F9398EF692E90E0792E33
:105340006F92EDB7FEB73A970FB6F894FEBF0FBE57
:10535000EDBFADB7BEB71196FE01E957FF4F019003
:105360000D928A95E1F7D401EC901196FC9011977B
:1053700012960C91129713961C91139714962C91D8
:10538000149715963C91159716964C91169717966B
:105390005C91179718966C91189719967C9189E5EE
:1053A00092E00E947D117092F8066092F7067BC031
:1053B000039709F0BECA8AE0CB5EDE4FA881B981AF
:1053C000C551D140E82F1D92EA95E9F722E330E07C
:1053D000C556DF4F39832883CB59D04029E130E0CF
:1053E000C356DF4F39832883CD59D04024E130E0C4
:1053F000C156DF4F39832883CF59D0402FE030E0AA
:10540000CF55DF4F39832883C15AD040D201E82FCE
:105410001D92EA95E9F7D20111963C932E932EE561
:1054200032E017963C932E9316971F9296E09F9327
:1054300028EF30E02F93EDB7FEB73A970FB6F89408
:10544000FEBF0FBEEDBFADB7BEB71196FE01E5566C
:10545000FF4F01900D928A95E1F7D201EC901196E1
:10546000FC90119712960C91129713961C9113971A
:1054700014962C91149715963C91159716964C916D
:10548000169717965C91179718966C91189719961E
:105490007C9187E692E00E947D118CEB90E09093E6
:1054A000F8068093F7060FB6F894DEBF0FBECDBFA7
:1054B00040CA81E090E09093D8028093D702809117
:1054C000D9029091DA028230910509F0E9C00E9478
:1054D00070130E94391E80E090E0892B11F40C9427
:1054E000F51F0E9400000C94E41F41E050E050932F
:1054F000D8024093D7028091D9029091DA0281308C
:105500009105F1F583EF91E09093100780930F07D9
:105510008AE0E0E5F1E0ADE2B7E001900D928A9516
:10552000E1F78DE69BE090931407809313078AE0E0
:10553000EAE5F1E0A1E2B7E001900D928A95E1F78A
:1055400080911507909116074091210750912207ED
:10555000849F9001859F300D949F300D11243695C6
:10556000279536952795820F931F90931207809366
:1055700011071092DA021092D90282E090E047C03F
:105580008230910509F048C028EF31E030931007D0
:1055900020930F0721E33BE0309314072093130778
:1055A0002AE0EDE2F7E0DF01322F1D923A95E9F7AC
:1055B00050933207409331074DEF51E05093340739
:1055C00040933307E4E6F1E0A1E2B7E001900D92E9
:1055D0002A95E1F720911507309116076091210770
:1055E00070912207269FA001279F500D369F500DD6
:1055F00011245695479556954795240F351F30939E
:105600001207209311071092DA021092D902909398
:10561000D6028093D5025DCF892B09F05ACF8AE05C
:10562000EEE6F1E0A1E2B7E001900D928A95E1F794
:105630008BEE91E09093100780930F0780911507F0
:10564000909116074091210750912207849F900165
:10565000859F300D949F300D1124369527953695F2
:105660002795820F931F909312078093110789EA61
:105670009BE090931407809313078AE0E8E7F1E03A
:10568000A7E3B7E001900D928A95E1F78AE0E7E39E
:10569000F7E0ADE2B7E001900D928A95E1F769CFAE
:1056A000833091054CF40097E1F485E090E090930D
:1056B000D6028093D50210C08330910501F1049782
:1056C00009F007CF86E090E09093D6028093D50250
:1056D0001092DA021092D9021092BF021092BE020A
:1056E000F8CE019709F0F5CE80911107909112073D
:1056F000181619060CF0EDCE83E090E088CF80916B
:10570000110790911207181619060CF0E2CE80913D
:10571000D0029091D102039708F0DBCE87E090E0B1
:1057200076CF8091D9029091DA02189FF001199FEB
:10573000F00D1124E15FF84F60A571A542A553A5B6
:1057400024A535A586A597A5EDE2F7E0DF011D921A
:105750001A95E9F770932E0760932D075093300741
:1057600040932F07309332072093310790933407EB
:10577000809333071092BD021092BC02ECCA0197CD
:1057800009F08FCB40912B0750912C07141615066A
:105790000CF087CB209115073091160760912107F7
:1057A00070912207269FC001279F900D369F900D74
:1057B00011249695879596958795820F931F209132
:1057C000110730911207281739070CF06ACB909314
:1057D0001207809311074150510950932C074093B1
:1057E0002B075FCB21E030E03093D8022093D70223
:1057F0009093BB028093BA0282E090E09093BF0244
:105800008093BE02FFCB2091BA023091BB028091FF
:10581000D9029091DA02189FD001199FB00D11247E
:10582000A95CB84F129FC001139F900D11248E5791
:105830009E4F2AE0FC0101900D922A95E1F72091FC
:105840002B0730912C07FC0180859185A901481B0D
:10585000590B50932C0740932B071092BF021092C4
:10586000BE0281E090E09093D8028093D70231CEBF
:105870000F931F93CF93DF938C0181E090E00E9400
:10588000C12D80FF31C08AE090E00E94C12D9FEFC2
:10589000980F9E3F48F522E330E0D80157963C939D
:1058A0002E93569728E330E059963C932E935897C1
:1058B000CBE0D0E0D801ED91FC910190F081E02D9A
:1058C000682FC8010995CE010E94C12D2196C131D2
:1058D000D10581F70E94391E88EE93E0DF91CF91C8
:1058E0001F910F910C94C50FDF91CF911F910F91D4
:1058F000089504970C94382CCF92DF92EF92FF9288
:105900000F931F93CF93DF931F92CDB7DEB7182F5E
:10591000062FE42E862F880F8E5F99830E94D51E56
:1059200083E00E94D51EF12EC12E9981D92E8C2D97
:105930008F19801798F4F601E7FE02C0849101C028
:1059400080810E94D51E182F80E00E94D51E8123E1
:10595000FFEFCF1ADF0A8111EACF01C081E00F907B
:10596000DF91CF911F910F91FF90EF90DF90CF903B
:105970000895CF93DF93EBE8F7E01382128288EE6D
:1059800093E0A0E0B0E084839583A683B78389EC9D
:1059900091E091838083CFEFDFEFD587C4878FE0DD
:1059A00097E00E944911E3EFF6E088E492E09183EA
:1059B000808388E090E0938382838BE09DE1992748
:1059C0009583848384E090E097838683EDE6F7E017
:1059D000138212821186128680E18387D087C78363
:1059E000108A118A128A138A148A8BED91E09183AE
:1059F000808389EE91E095838483178A168A118EBD
:105A0000108E81E0828F138E848F158EDF91CF915F
:105A100008958F929F92AF92BF92CF92DF92EF92B2
:105A2000FF92CF93DF93EC01688179818A819B811A
:105A3000611571058105910521F464E279ED8BE52D
:105A400097E02DE133EF41E050E00E94D72D49016E
:105A50005A019B01AC01A7EAB1E40E94F62D6B014B
:105A60007C01ACEEB4EFA50194010E94042EDC0190
:105A7000CB018C0D9D1DAE1DBF1DB7FF03C001974F
:105A8000A109B04888839983AA83BB839F77DF915C
:105A9000CF91FF90EF90DF90CF90BF90AF909F900D
:105AA0008F9008950E94092D08958CE091E00E9446
:105AB000092D0895A0E0B0E080930C0190930D01B2
:105AC000A0930E01B0930F0108958F929F92AF9211
:105AD000BF92CF92DF92EF92FF92CF93DF93EC01D0
