:100000000C9486060C94AE060C94AE060C94AE06C8
:100010000C94AE060C94AE060C94AE060C94AE0690
:100020000C94AE060C94AE060C942F100C94A110F8
:100030000C94AE060C94AE060C94AE060C94AE0670
:100040000C94AE060C94AE060C94AE060C94AE0660
:100050000C94AE060C94AE060C94AE060C944E07AF
:100060000C94AE060C94AE060C94AE060C94AE0640
:100070000C94AE060C94AE060C94AE060C94AE0630
:100080000C94AE060C94AE060C94AE060C94AE0620
:100090000C94AE060C94AE060C94AE060C94AE0610
:1000A0000C94AE060C94AE060C94AE06C416BE16A6
:1000B000AB172418DA1BF618931AD81BF0F89C8E8D
:1000C0008783878E9CF8F00000FEFF030303030381
:1000D000070EFCF80000FEFF0303030303070EFCFA
:1000E000F80000FFFF00000000000000FFFF00001C
:1000F000FEFF8383838383C7EE7C380000F8FC0E09
:1001000007030303070EFCF800003F7FE0C0808078
:10011000C0E07F3FFFFF01010101010101FFFF007E
:1001200000FFFF0C0C0C0C1C3E77E3C100007FFFAE
:10013000C0C0C0C0C0E0703F1F00001F3F70E0C0E3
:10014000C0C0E0703F1F00007FFFC1C1C1C1C1E35B
:10015000773E1C00001F3F70E0C0C0C0E0703F1F32
:10016000000000000001FFFF01000000D5F08D1429
:10017000A1C881CFD9F1AF200070C070C13204CACC
:10018000F498B4EAB498F4CA24C271C070000C1791
:100190002DEAF4744D6FACD5ACAF4D7462970B057E
:1001A000000000000C060B0B080F0D00000D0F0FD8
:1001B000080B0A060C20B8FEF4500067FA6C1C6CA1
:1001C000F86C0702000000000001181F3830186C9E
:1001D000BEDD87DDBE663C183870E0000000000020
:1001E00000000E030E0103010E070E0000010301C3
:1001F00000F00C8262F1D96975B56565A57569D99C
:10020000F162820CF007C833889C252B4A52525267
:10021000524A2B259C8833C807000304080B0809A1
:100220000A0A0A0A0A0A09080B0804030001020460
:10023000081020408000000000003E5B4F5B3E3E07
:100240006B4F6B3E1C3E7C3E1C183C7E3C181C5782
:100250007D571C1C5E7F5E1C00183C1800FFE7C326
:10026000E7FF0018241800FFE7DBE7FF30483A06F5
:100270000E2629792926407F050507407F05253F61
:100280005A3CE73C5A7F3E1C1C08081C1C3E7F144D
:10029000227F22145F5F005F5F06097F017F006697
:1002A00089956A606060606094A2FFA29408047EF1
:1002B000040810207E201008082A1C08081C2A08A0
:1002C000081E101010100C1E0C1E0C30383E38305A
:1002D000060E3E0E06000000000000005F00000059
:1002E00007000700147F147F14242A7F2A12231387
:1002F00008646236495620500008070300001C229B
:1003000041000041221C002A1C7F1C2A08083E08CC
:1003100008008070300008080808080000606000CD
:1003200020100804023E5149453E00427F400072C1
:10033000494949462141494D331814127F10274538
:100340004545393C4A494931412111090736494956
:100350004936464949291E00001400000040340077
:10036000000008142241141414141400412214082B
:1003700002015909063E415D594E7C1211127C7FE3
:10038000494949363E414141227F4141413E7F49F1
:100390004949417F090909013E414151737F0808DC
:1003A000087F00417F41002040413F017F08142227
:1003B000417F404040407F021C027F7F0408107F45
:1003C0003E4141413E7F090909063E4151215E7F80
:1003D00009192946264949493203017F01033F4053
:1003E00040403F1F2040201F3F4038403F631408DB
:1003F000146303047804036159494D43007F41416C
:10040000410204081020004141417F04020102041E
:100410004040404040000307080020545478407F8B
:10042000284444383844444428384444287F3854C5
:1004300054541800087E090218A4A49C787F08046C
:10044000047800447D40002040403D007F10284457
:100450000000417F40007C047804787C0804047824
:100460003844444438FC1824241818242418FC7CEC
:1004700008040408485454542404043F44243C40D1
:1004800040207C1C2040201C3C4030403C44281034
:1004900028444C9090907C4464544C44000836416D
:1004A000000000770000004136080002010204024B
:1004B0003C2623263C1EA1A161123A4040207A38F6
:1004C0005454555921555579412154547841215559
:1004D00054784020545579400C1E527212395555AB
:1004E0005559395454545939555454580000457C81
:1004F000410002457D420001457C40F0292429F05D
:10050000F0282528F07C545545002054547C547C18
:100510000A097F4932494949323248484832324A09
:100520004848303A4141217A3A42402078009DA023
:10053000A07D39444444393D4040403D3C24FF24A3
:1005400024487E4943662B2FFC2F2BFF0929F620D8
:10055000C0887E090320545479410000447D413015
:1005600048484A32384040227A007A0A0A727D0DA1
:1005700019317D2629292F28262929292630484D59
:100580004020380808080808080808382F10C8ACA8
:10059000BA2F102834FA00007B000008142A142215
:1005A00022142A14089500220095AA005500AAAA30
:1005B00055AA55AA000000FF00101010FF001414E7
:1005C00014FF001010FF00FF1010F010F0141414AE
:1005D000FC001414F700FF0000FF00FF1414F404E3
:1005E000FC141417101F10101F101F1414141F00D8
:1005F000101010F0000000001F101010101F10103D
:100600001010F010000000FF10101010101010104B
:1006100010FF10000000FF140000FF00FF00001F8B
:1006200010170000FC04F414141710171414F40429
:10063000F40000FF00F714141414141414F700F756
:10064000141414171410101F101F141414F4141081
:1006500010F010F000001F101F0000001F14000019
:1006600000FC140000F010F01010FF10FF14141420
:10067000FF141010101F00000000F010FFFFFFFF1C
:10068000FFF0F0F0F0F0FFFFFF0000000000FFFFC0
:100690000F0F0F0F0F38444438447C2A2A3E147E33
:1006A00002020606027E027E026355494163384417
:1006B000443C04407E201E2006027E020299A5E7EB
:1006C000A5991C2A492A1C4C7201724C304A4D4D86
:1006D000303048784830BC625A463D3E494949006E
:1006E0007E0101017E2A2A2A2A2A44445F4444408A
:1006F000514A444040444A51400000FF0103E08019
:10070000FF000008086B6B083612362436060F0906
:100710000F06000018180000001010003040FF0104
:1007200001001F01011E00191D1712003C3C3C3C3A
:100730000000000000000080000000001050DCFEFF
:100740001910000000000000000001FE09783818B0
:1007500018F8FBFFF8F00000000000000000000F98
:1007600000000000000F0F0F0F0F0E0C0808000014
:10077000000000066BF4F87C7CBC7C7CBC7C7CF8C4
:10078000F46B06000078A414FC14ABFFFEEED6AEAA
:10079000D6EEFFFB2438F0E00000000101010F0B52
:1007A000050B0D0F0B050B0F00070F0F0700FC02C9
:1007B000F9FE000000E0B0B8F8EC00000000000016
:1007C0000004073C1F373418B8EDF7BFE7FDB81831
:1007D000F0E000000000000000000C0F0F0301011A
:1007E00001030F0C08000000000000800000000062
:1007F0001050DCFE1910000000000000000001FE97
:100800000978381818F8FBFFF8F000000000000025
:100810000000000F00000000000F0F0F0F0F0E0C64
:1008200008080000000000066BF4F87C7CBC7C7CAF
:10083000BC7C7CF8F46B06000078A414FC14ABFFBD
:10084000FEEED6AED6EEFFFB2438F0E0000000014D
:1008500001010F0B050B0D0F0B050B0F00070F0F01
:100860000700000000000000000000000000000081
:100870000000000000000000000000000000000078
:100880000000000000000000000000000000000068
:100890000000000000000000000000000000000058
:1008A0000000000000000000000000000000000048
:1008B0000000000000000000000000000000000038
:1008C0000000000000000000000000000000000028
:1008D0000000000000000000000000000000000018
:1008E00000000000000000000000000000000818E8
:1008F0003870F0F0E0E0E0F0F0F0E0E0E060606040
:10090000607070F0F0F0F0F0F07010000000000087
:1009100000000000000000000000000000000000D7
:1009200000000000000000000000000000000000C7
:1009300000000000000000000000000000000000B7
:1009400000000000000000000000000000000000A7
:100950000000000000000000000000000000000097
:10096000001C1C1C1C1C1C1C1C1C1C1C1C1C1C1CE3
:100970000000C1FFFFFFFFC783010000000000006F
:1009800000000000010100000080E0F0E0C0000075
:100990000030F0F0F0707878783818181838383857
:1009A00038101000000008081CFCF8F000000000DF
:1009B000000000000000C0F0F87830000010383867
:1009C00038383870F0F0F0F0707878787070702007
:1009D0000000000000000000000000000000000017
:1009E000001C1C1C1C1C1C1C1C1C1C1C1C000000B7
:1009F00080FEFFFF3F1F1F0F0F0F0F0E0E0E0E1E6C
:100A00001E1E0E03000080E0FCFFFF3F0F000000F1
:100A1000FEFF8701000000000000207070E0E0E0B1
:100A2000E0202000000000C0FEFF7F3D1C1C1C1CBD
:100A3000183878F8FCFFFF1F0100000000000000DC
:100A40000080E0F8FFFF7F0700E0E0E7E7E7E7E787
:100A5000E7E7E7E7E7E7E7E7E7E7E7E7E7E7E7E726
:100A6000E70707C7C7C78707070707272030383EAC
:100A70003F3F1F0700000070F0F0E0C08000002042
:100A800020202030383E3F3F3F1F03000000000081
:100A900021272F3E3C3C3C38383838383C1E0F0765
:100AA00001002020383C1F0F0300000000404040A0
:100AB00070783C3F1F070000000000404040607815
:100AC0003E3F1F07030000003838383838383838C0
:100AD0003838383838383838383838383838383896
:100AE0003800000103070F0F0E0E0E0E0E0E0E0E35
:100AF0000E0E0E0E0E0E0E0ECEEFFFFF7F1F1E1EF1
:100B00001E3E3E3E3E3E3E3E7E7E7E7E7E7E7E7E25
:100B1000FEFEFEFEFEFCFCFCFCFCFCF8F8F8F8F81F
:100B2000F8F8F8F8F8F8F0F0F0F0F0F0F0F0F0F095
:100B3000F0F0E0E0E0E0E0E0E0E0E0F0F0F0F0F045
:100B4000F0F0F8F8F8F8F8F8F8F87C7C7C3C3C3CDD
:100B50001C1E1E0E0E000000000000000000000021
:100B600000301C1E1E0F0F0F0F0F1E3E3C3030308A
:100B70003038181C1C1C1C3C79F9F1C0C0E0E0E0C6
:100B8000F070383838383870F0E0C0C0E0E0E0E0AD
:100B9000E0604040E040C0C1C1C1C1C181810103EA
:100BA000030303030303030303070707078787C739
:100BB000C7C7C7CF8F8F0F0F0F0F0F0F0F07070775
:100BC00003030381C1C1C0E0E0E0E0E0C0C080C039
:100BD000E0F8FCFCFEFEFE7E3E1C1C18101030608F
:100BE000E00E0703070F0F0E0C08081818181C3E1C
:100BF0003E1E1E1E1C1818181810232120004040ED
:100C000060703838181838306061E1E1F171337183
:100C1000F0E0C0C0E0F070313171E1C181C3C7CCF8
:100C2000CCC4860606060E1E3F8FC7C3C1C1C18154
:100C30000103070F3F1F0F040686C6C6CEDCD89CF3
:100C40000C0EC7E3F1703070F1E3C7DFE7F37131E9
:100C5000303060C0E1F3703030383C3E3E1E1E0E36
:100C60000C080B000202020100090400000102024C
:100C700000000524001001052401010104240206DE
:100C80000524060001070581031000400904010046
:100C9000020A000000070502024000000705830267
:100CA0004000000403090412010002EF0201404168
:100CB00023368000010102030141726475696E6F81
:100CC000204C4C430041726475626F790000FC0255
:100CD000F9FE000000E0B0B8F8EC000000000000F1
:100CE0000004073C1F373418B8EDF7BFE7FDB8180C
:100CF000F0E000000000000000000C0F0F030101F5
:100D000001030F0C080000000000FC1D11241FBE91
:100D1000CFEFDAE0DEBFCDBF14E0A0E0B1E0E2E863
:100D2000F0E402C005900D92A035B107D9F729E093
:100D3000A0E5B4E001C01D92AD39B207E1F716E0BD
:100D4000C6E8D6E004C02197FE010E943420C538D1
:100D5000D107C9F70E946D150C943F200C94000038
:100D6000CF92DF92EF92FF920F931F93CF93DF9377
:100D70006C017A018B01C0E0D0E0CE15DF0589F06F
:100D8000D8016D918D01D601ED91FC910190F0811A
:100D9000E02DC6010995892B11F47E0102C0219630
:100DA000ECCFC701DF91CF911F910F91FF90EF9092
:100DB000DF90CF9008953FB7F894809152049091BE
:100DC0005304A0915404B091550426B5A89B05C0C6
:100DD0002F3F19F00196A11DB11D3FBFBA2FA92FBA
:100DE000982F8827820F911DA11DB11DBC01CD0137
:100DF00042E0660F771F881F991F4A95D1F7089523
:100E00002D9A08958EBD00000DB407FEFDCF089504
:100E10000895089580E090E008950E943A208F920E
:100E20009F92AF92BF92CF92DF92EF92FF926B01AF
:100E30007C010E94DB064B015C01C114D104E1047A
:100E4000F104F1F00E94DB06DC01CB01881999095D
:100E5000AA09BB09883E9340A105B10570F321E0C2
:100E6000C21AD108E108F10888EE880E83E0981EC6
:100E7000A11CB11CC114D104E104F10419F7DDCFA8
:100E8000FF90EF90DF90CF90BF90AF909F908F90AA
:100E90000895BC0180E090E00C940F071F920F9220
:100EA0000FB60F9211242F933F938F939F93AF937D
:100EB000BF938091560490915704A0915804B0912B
:100EC00059043091510423E0230F2D3720F401966B
:100ED000A11DB11D05C026E8230F0296A11DB11D5D
:100EE000209351048093560490935704A093580480
:100EF000B09359048091520490915304A0915404EA
:100F0000B09155040196A11DB11D80935204909398
:100F10005304A0935404B0935504BF91AF919F9193
:100F20008F913F912F910F900FBE0F901F901895AA
:100F30008FB12CB193B130E02095309520743327D8
:100F4000A90123E0559547952A95E1F7292F30E02F
:100F50002095309520713327359527953595279520
:100F6000242B8095807F822B089583B7817F83BF58
:100F700083B7816083BF889583B78E7F83BF0895D1
:100F800060387105D0F440345105B8F4EDE2F2E078
:100F900080E1849FD001A0781124A60F4770E40F50
:100FA000F11D8491A157BB4F222319F06C91862B20
:100FB00003C080956C9186238C9308952F923F9265
:100FC0004F925F926F927F928F929F92AF92BF9259
:100FD000CF92DF92EF92FF920F931F93CF93DF9305
:100FE000CDB7DEB729970FB6F894DEBF0FBECDBFE1
:100FF000FC016A3069F4248D808D918D38E0239F47
:10100000800D911D1124918F808F178A168AAAC096
:101010006D3009F4A7C099878887F48C338C228CB3
:10102000608C718C0689178900381105C4F0A88579
:10103000B9855C962C915C97422F50E056968D9125
:101040009C915797B6E02B9F800D911D1124E88548
:10105000F985978B868B258D21116EC083C0F0E4B6
:101060006F16710424F7C80125E0F29E800D911DD2
:10107000112418161906DCF68F2D90E09C838B83C3
:10108000C301A8E0FA9E800D911D112418161906BF
:1010900074F6B5E06B9FB0011124FB01EB5CFD4FD2
:1010A000FA83E98330E08885998504969E838D8351
:1010B000E981FA81E490353009F4E12C430188E0BC
:1010C000482EE0FC02C0532C01C0522C51100BC022
:1010D000321009C0E6944A948B819C81880E991E37
:1010E0004110EFCF1BC068018C2D801B8F1590F72E
:1010F00054018A2D88198F1568F4252DA501B60194
:101100008D819E813F830E94C0079FEFA91AB90A73
:101110003F81EFCFAFEFCA1ADA0AE6CF3F5FEB812C
:10112000FC810E0F1F1F89819A8101969A83898302
:10113000363009F0BDCF7BCF6AEF64039001659F25
:10114000300D112420583F4F281739075CF4A8852B
:10115000B985ED91FC9111970190F081E02D6AE045
:10116000CD01099581E090E029960FB6F894DEBF95
:101170000FBECDBFDF91CF911F910F91FF90EF90E8
:10118000DF90CF90BF90AF909F908F907F906F90A7
:101190005F904F903F902F900895CF93DF93CDB7FE
:1011A000DEB7C055D1090FB6F894DEBF0FBECDBF74
:1011B00080916C0481110FC10E940E1581E0809313
:1011C0006C04109272041092710481E090E090938C
:1011D0006B0480936A04809168049091690400977D
:1011E00009F04DC080E090E020E030E04AE06DE79B
:1011F00071E0265F3F4F85309105DCF4489FF00198
:10120000499FF00D1124A1E0B0E0AC0FBD1FEA0F23
:10121000FB1F7E96DF01542F1D925A95E9F7E1E0FE
:10122000F0E0EC0FFD1FE20FF31F738F628F01964A
:10123000E0CF83E891E09A83898389E190E09C8301
:101240008B839E838D8388E090E098878F839A8735
:10125000898726E030E03C872B879E878D871A8A16
:10126000198A1C8A1B8A80E5FE013196AFE8B8E036
:1012700001900D928A95E1F781EF91E0A8C081304D
:10128000910509F051C080E090E020E030E04AE0B4
:101290006DE771E0265F3F4F85309105DCF4489F94
:1012A000F001499FF00D1124A1E0B0E0AC0FBD1F8B
:1012B000EA0FFB1F7E96DF01542F1D925A95E9F726
:1012C000E1E0F0E0EC0FFD1FE20FF31F738F628F80
:1012D0000196E0CF89E891E09A8389838EE190E0DE
:1012E0009C838B839E838D8384E190E098878F839A
:1012F00086E090E09A87898782E090E09C878B87E0
:1013000084E090E09E878D871A8A198A1C8A1B8A3E
:1013100080E5FE013196AFE8B8E001900D928A9524
:10132000E1F785EB91E053C0029709F054C080E0EB
:1013300090E020E030E04AE06DE771E0265F3F4F4B
:1013400085309105DCF4489FF001499FF00D112490
:10135000A1E0B0E0AC0FBD1FEA0FFB1F7E96DF01DE
:10136000542F1D925A95E9F7E1E0F0E0EC0FFD1FD4
:10137000E20FF31F738F628F0196E0CF8FE891E049
:101380009A83898388E290E09C838B839E838D83FC
:1013900084E190E098878F838FE090E09A87898737
:1013A00084E090E09C878B8788E090E09E878D8723
:1013B0001A8A198A1C8A1B8A80E5FE013196AFE8D9
:1013C000B8E001900D928A95E1F789E791E090935A
:1013D0009E0880939D08C05BDF4F0FB6F894DEBF78
:1013E0000FBECDBFDF91CF910C94CC0CCF92DF928A
:1013F000EF92FF920F931F93CF93DF93FC01EB01CA
:101400004115510569F5C884D98486819781E4889E
:10141000F5880E891F89EA81FB8163E070E00E94F4
:101420002020E60EF71EC6016BEF7FEF0E94202002
:10143000060F171F0E0D1F1D2130310519F40C1951
:101440001D0904C0232B11F00250110910161106BA
:1014500024F03197FB83EA831AC0E01BF10BFACF2B
:1014600042305105A1F48485958597FD01969595A7
:101470008795288D398D820F931F181619063CF415
:101480002A813B81A901481B590B5B834A83DF9169
:10149000CF911F910F91FF90EF90DF90CF90089523
:1014A0000F931F93CF93DF9381EC80937C0085B1E2
:1014B000806F85B9249884B1866E84B95E9A5F98EE
:1014C0008AB1806D8AB9769A6E9881B3806F81BB3C
:1014D000899880B38D7080BB80E58CBD81E08DBD27
:1014E00085E090E00E9449075F9A85E090E00E94C5
:1014F00049075E985C98CCE6D1E01C2F135FFE0193
:1015000084910E94020721961C13F9CF5C9A81E80E
:101510008093640081E080936500C0E0D4E080E0C7
:101520000E9402072197D9F70E94980787FF1FC0E2
:101530005C9885EA0E9402075C9A2E982F982D9855
:10154000809164008062809364000E94B507FDCFA3
:101550002D980E9498078478843871F00E9498072B
:101560008471843131F188EC90E00E9449070E9437
:10157000980782FDEDCF3AC00E94000788EC90E00A
:101580000E9449072F9882E090E00E94931F8F3FAE
:1015900029F06FEF82E090E00E949B1F84EF91E0C2
:1015A0000E9449072F9A0E94980784788438D9F3BB
:1015B000D5CF0E94000788EC90E00E9449072E9842
:1015C00082E090E00E94931F882329F060E082E08F
:1015D00090E00E949B1F84EF91E00E9449072E9AA1
:1015E0000E94980784718431D9F3BDCF0E9400070F
:1015F00082E090E00E94931F882331F03E9A3F9A48
:1016000081E08093500404C0109250043E983F98AB
:101610002E98CEEEDFEF0E94980786FF04C02E9A28
:101620002F9A2D9A39C0CC3F8FEFD80719F42E9AF4
:101630002F9805C0C831D10511F42F9A2D980E941A
:10164000011500E128E54CEB50E0BE0184E190E09B
:101650000E947D130E9417158BE190E00E944907BC
:10166000C03FEFEFDE0721F48AEF90E00E944907C8
:101670002196C931D10579F68CEB92E00E94490799
:101680000E940007E0913309F09134090190F08144
:10169000E02D83E399E0099582E390E00E944907F9
:1016A0000E9498078111F8CF81E280933A098091D6
:1016B00064008E7F8093640080917A0080648093C0
:1016C0007A0080917A0086FDFCCFC0917800D0919D
:1016D00079000E94DB068E0120E030E0980111279E
:1016E0000027600F711F821F931F6115710581050F
:1016F000910511F00E948A1F80916400816080939F
:10170000640010926E0410926D04DF91CF911F91CE
:101710000F910C940E15FC0180916704811103C098
:101720008FEF9FEF08959FB7F89482E08093E900D0
:101730002091F20030E01216130614F421E030E09C
:101740002115310559F0289884E68093660480912C
:10175000F10080838091F200882319F09FBFC901B6
:1017600008958BE68093E800F9CF2FB7F89483E0D3
:101770008093E9009091E800892F807295FF04C062
:101780009091F20080E4891B2FBF0895CF93DF93DF
:101790001F92CDB7DEB76983DC01ED91FC91028029
:1017A000F381E02D41E050E0BE016F5F7F4F09956E
:1017B0000F90DF91CF91089583E08093E9008091AD
:1017C000F200882319F08AE38093E80008950E94CC
:1017D000B50B90E00895CF93DF931F92CDB7DEB79E
:1017E000FC018485958597FD05C02FEF3FEF358778
:1017F00024870BC0CE0101960E948B0B019719F430
:10180000898190E002C08FEF9FEF0F90DF91CF9121
:1018100008950F931F93CF93DF931F92CDB7DEB739
:101820008C01FC018485958597FF0EC0CE01019641
:101830000E948B0B019719F4298130E002C02FEF31
:101840003FEFF80135872487F801848595850F904F
:10185000DF91CF911F910F910895FC0184859585AB
:1018600097FD0BC09FB7F89482E08093E9008091C8
:10187000F2009FBF90E0019608959FB7F89482E030
:101880008093E9008091F2009FBF90E008958F92CD
:101890009F92AF92BF92CF92DF92EF92FF920F93FF
:1018A0001F93CF93DF935C016B017A018091070155
:1018B000882309F45BC080916704882309F456C02B
:1018C0008091650480FF05C08091E0008260809374
:1018D000E000E70110E00AEF83E0882E9AE3992EFA
:1018E0002097D9F10E94B50B81110AC0015009F46B
:1018F0003DC061E070E080E090E00E940F07F0CF13
:10190000282F30E0C217D3070CF48C2F4FB7F89470
:101910008092E9009091E80095FF1DC0282F30E0EB
:10192000C21BD30BF601982F915020F08191809328
:10193000F100FACFC20ED31E112319F09092E800E5
:1019400009C08091E80085FD06C09092E80011E092
:10195000209709F010E04FBFC3CF1111C3CF5D989E
:1019600084E6809364041E141F0444F081E090E038
:10197000F5019383828380E090E001C0C701DF918D
:10198000CF911F910F91FF90EF90DF90CF90BF907C
:10199000AF909F908F9008950F931F93CF93DF93F5
:1019A0008091E1089091E208181619060CF0B1C177
:1019B0008091910890919208181619060CF082C136
:1019C0000E940E151092460910924509109248097E
:1019D0001092470980918F08909190080E9463139C
:1019E0008AEA93E00E946313809191089091920893
:1019F0000E9465132AE030E041E450E06AE070E0C4
:101A000080E090E00E947C148CE390E09093460983
:101A10008093450984E390E09093480980934709B7
:101A20008091E1089091E2080E94591382E992E0C6
:101A30000E9463138091E3089091E4080E94591377
:101A400080EB93E00E9463132EE330E048E750E020
:101A50006EE370E08AE390E00E947C1440919D0860
:101A600050919E0804E124E160E070E085E590E09B
:101A70000E947D134091ED085091EE0824E169E148
:101A800070E088E090E00E947D1320E330E040E3C6
:101A900050E060E370E082E090E00E947C142AE372
:101AA00030E040E350E06AE370E082E090E00E94C2
:101AB0007C142AE330E042E050E060E370E082E032
:101AC00090E00E947C142AE330E040E350E060E3C1
:101AD00070E080E390E00E947C1485E090E09093B9
:101AE00046098093450982E390E0909348098093EA
:101AF00047098091870490918804009709F072C08B
:101B0000109286048091710490917204039724F0DE
:101B10001092720410927104809171049091720479
:101B200097FF06C082E090E0909372048093710466
:101B300080917104909172048130910541F082305E
:101B4000910541F0892B51F484EB93E005C08BEBB8
:101B500093E002C082EC93E00E9463130E94980716
:101B600083FF1CC080916F0490917004892BB1F4A5
:101B700021E030E03093700420936F048091710471
:101B8000909172048130910509F026C190938504EB
:101B90008093840490938804809387040E94271F75
:101BA00063E070E00E9420208130910559F082307E
:101BB000910589F0892B09F0A5C110928304109238
:101BC00082040DC0909383048093820490938104D7
:101BD0008093800497C1909383048093820481E072
:101BE00090E0F4CF019709F08DC18091800490912D
:101BF0008104019709F086C12091E9083091EA0833
:101C00008091990890919A088217930724F481E0B3
:101C100080937F0402C010927F0490917F04809192
:101C20008604992341F181116DC1C0918204D09144
:101C3000830400918404109185049E01A8016FE83B
:101C400078E08FED98E00E94F6099801AE016FED03
:101C500078E08FE898E00E94F6098091360990912B
:101C600037096CE370E00E940C20892BF1F4CE015F
:101C70000E9459131AC0811145C1C0918404D091AA
:101C8000850400918204109183049E01A8016FEDE8
:101C900078E08FE898E00E94F6099801AE016FE8BD
:101CA00078E08FED98E00E94F60981E090E0909353
:101CB000700480936F0480938604109288041092BD
:101CC000870420C10E940E1588E290E09093460997
:101CD0008093450984E190E09093480980934709F7
:101CE0008AEC93E00E944B1382ED93E00E944B1329
:101CF0008FED93E00E944B138DEE93E00E946313EF
:101D00008091390982FDFEC08091380982FFFAC0B6
:101D100077C00E940E1582E090E090934609809370
:101D2000450984E190E0909348098093470981E058
:101D300094E00E944B138DEE93E00E944B13809130
:101D4000EF089091F008181619064CF081E194E024
:101D50000E944B1387E294E00E944B1304C088E377
:101D600094E00E9463130E94980782FFCBC082E038
:101D700090E090936E0480936D0410926C048091B7
:101D8000E3089091E4089093E2088093E108809141
:101D9000EF089091F0089C01225031093093F0082F
:101DA0002093EF0840916A0450916B044130510533
:101DB00071F410926B0410926A04223031050CF415
:101DC000A1C004979093F0088093EF089BC01092F5
:101DD000F0081092EF0896C08230910549F4909374
:101DE0008504809384043093880420938704D6CE9E
:101DF000892B09F0D3CE1092850410928404F3CF7E
:101E000082E090E090936E0480936D0410926C04D5
:101E10008091EF089091F00802969093F0088093DB
:101E2000EF0880916A0490916B04019709F06AC0F1
:101E3000809168049091690401969093690480935D
:101E400068048091F1089091F20801969093F2084D
:101E50008093F1088091E3089091E40805969093AF
:101E6000E4088093E3089093E2088093E1082091CE
:101E7000E5083091E608E3E0F0E0C901BF010E9407
:101E800020206F5F7F4FC901860F971F9093E60850
:101E90008093E508C091E708D091E808CE01BF0122
:101EA0000E9420209B012F5F3F4FCE01820F931F86
:101EB0009093E8088093E708C091E908D091EA0878
:101EC000CE01BF010E9420209B012F5F3F4FCE011A
:101ED000820F931F9093EA088093E9082091EB0802
:101EE0003091EC08C901BF010E9420206F5F7F4F35
:101EF000620F731F7093EC086093EB0810926B04F1
:101F000010926A04DF91CF911F910F9108958091F3
:101F1000770481110DC082E08093730484E0809384
:101F20007404109276041092750481E08093770413
:101F300083E794E0089540918D0450918E042091A0
:101F40008B0430918C0442175307B4F49091E8004D
:101F50009570E1F39091E80092FD19C08093F10033
:101F600080918D0490918E0401968F739927892B0F
:101F700019F48EEF8093E80080918D0490918E0487
:101F8000019690938E0480938D0481E0089580E003
:101F90000895DF92EF92FF920F931F93CF93DF93F9
:101FA000D82E8A017B01E40EF51EEB01CE15DF056C
:101FB00071F0D7FE03C0FE01849101C088810E94A8
:101FC0009B0F21968111F2CF8FEF9FEF01C0C801C7
:101FD000DF91CF911F910F91FF90EF90DF900895C7
:101FE000615030F02091F100FC0120830196F8CF80
:101FF000289884E68093660408950F931F93CF93E7
:10200000DF931F92CDB7DEB782E0898342E450E0D0
:1020100061E67CE080E80E94C90F0E94870FDC0126
:1020200012960D911C9113970115110569F0D801B5
:10203000ED91FC910280F381E02DBE016F5F7F4F37
:10204000C801099597FF07C089810F90DF91CF9153
:102050001F910F910895F80100851185E5CF1F921A
:102060000F920FB60F9211248F939F938091E100EE
:102070009091E100937F9093E10083FF0FC0109255
:10208000E90091E09093EB001092EC0092E39093C2
:10209000ED001092670498E09093F00082FF20C05A
:1020A00093E09093E9009091F200992319F09AE35C
:1020B0009093E80090916404992339F0909164041E
:1020C000915090936404992389F190916604992327
:1020D00039F090916604915090936604992341F1F0
:1020E00084FF10C08091E2008E7E81608093E200C8
:1020F0008091E1008F7E8093E100809165048E7E67
:10210000806111C080FF16C08091E2008E7E8061E8
:102110008093E2008091E1008E7E8093E1008091C7
:1021200065048E7E81608093650404C05D9ACDCF86
:10213000289AD6CF9F918F910F900FBE0F901F902E
:1021400018951F920F920FB60F921124CF92DF9223
:10215000EF92FF920F931F932F933F934F935F93B1
:102160006F937F938F939F93AF93BF93EF93FF935F
:10217000CF93DF93CDB7DEB76C97DEBFCDBF1092A4
:10218000E9008091E80083FFEDC168E0CE0145964B
:102190000E94F00F82EF8093E8008D8987FF05C0D1
:1021A0009091E80090FFFCCF03C09EEF9093E80071
:1021B000982F907609F0C6C09E892F89188D9111AD
:1021C0000CC0803829F480918A048093F10002C009
:1021D0001092F1001092F10048C1422F50E0512BB3
:1021E000913051F4811141C14130510509F03DC197
:1021F00080918A048D7F0BC0933061F4811135C1C9
:102200004130510509F031C180918A048260809388
:102210008A042BC1953041F48091E80080FFFCCF07
:1022200020682093E30021C1963009F05FC0EB8C59
:10223000FC8C1092E90010928E0410928D041230E2
:1022400091F510928C0410928B040E94FD0F99E07E
:10225000BE016F5F7F4FDB01E92F1D92EA95E9F721
:1022600099831A8391E09E8390EA98879AEF9987E1
:1022700020918D0430918E04275F3F4F3C832B8348
:102280008D831092E90010928E0410928D04F092CA
:102290008C04E0928B0449E050E080E00E94C90F7A
:1022A0000E94FD0FE2C0F0928C04E0928B040E9429
:1022B000870FDC011296ED90FC901397E114F10466
:1022C00009F4C0C0D701ED91FC910480F581E02DA7
:1022D000BE016B5E7F4FC7010995009719F00CF0A6
:1022E000C4C0C7C0F701E084F184E8CF973009F497
:1022F000C0C0983021F481E08093F100B6C09930DD
:1023000009F0B3C0837009F0B4C0E1E5F1E081E009
:1023100021E036E39081992361F08093E9002093D6
:10232000EB0091919093EC003093ED008F5F87303C
:1023300089F78EE78093EA001092EA008F898093F4
:10234000670493C08B8D9C8D1092E90010928E04CF
:1023500010928D0490938C0480938B04898D81114D
:1023600056C08E899D89913A59F4813209F081C015
:1023700047E050E060E071E080E00E94C90F75C066
:10238000913209F076C0833289F4888D90E0982FDD
:1023900088272F89822BA0E0B0E0809308019093DA
:1023A0000901A0930A01B0930B015FC0803269F468
:1023B0008091E80082FFFCCF67E080E091E00E941E
:1023C000F00F8BEF8093E80006C0823209F04DC019
:1023D0008F898093070180918904882319F0EEEF9B
:1023E000FAE002C0E0E0F8E0809100019091010184
:1023F000A0910201B0910301803B9440A105B10579
:1024000009F07BC08091070180FF93C076C00E94D5
:10241000870FDC0112960D911C9113970115110580
:1024200041F1D801ED91FC910190F081E02DBE01C8
:102430006B5E7F4FC8010995811117C0F8010085B7
:102440001185ECCF113009F44EC0133091F48F890F
:10245000882309F445C0823081F440E867E085ECC8
:102460009CE00E94BF1D882321F08EEF8093E8003E
:1024700079C081E28093EB0075C0813029F440E897
:102480006BE089EB9CE0EDCF833099F70E94870FDA
:10249000DC011296ED90FC9013978E010F5F1F4F99
:1024A0006801E114F10479F0D701ED91FC91068007
:1024B000F781E02DB801C7010995080F111DF7013B
:1024C000E084F184EECFD8011C92F6010190002047
:1024D000E9F73197BF016C197D0940E0C601C1CF12
:1024E00063EA7CE002C067EA7CE06115710509F2ED
:1024F000FB01449150E080E840CF0FB6F894A895D6
:1025000080916000886180936000109260000FBE2F
:10251000A895EE3F2AE0F20739F08091FE0A9091EB
:10252000FF0A91838083A1CF1092FF0A1092FE0AC6
:102530009CCFEE3F8AE0F80731F080819181909343
:10254000FF0A8093FE0A87E797E7918380839BE0E9
:1025500088E10FB6F894A895809360000FBE909321
:10256000600083CF6C960FB6F894DEBF0FBECDBF70
:10257000DF91CF91FF91EF91BF91AF919F918F919B
:102580007F916F915F914F913F912F911F910F918B
:10259000FF90EF90DF90CF900F900FBE0F901F90A5
:1025A0001895009769F0FC0101900020E9F7319738
:1025B000AF01481B590BBC018FE299E00C94B006A7
:1025C00080E090E008958F929F92AF92BF920F9318
:1025D0001F93CF93DF93CDB7DEB7A1970FB6F894D3
:1025E000DEBF0FBECDBF19A2423008F44AE08E0113
:1025F0000F5D1F4F842E912CA12CB12CA5019401AD
:102600000E94DB1FE62FB901CA0101501109EA300F
:1026100014F4E05D01C0E95CD801EC93232B242B7A
:10262000252B61F7C8010E94D112A1960FB6F8942C
:10263000DEBF0FBECDBFDF91CF911F910F91BF9035
:10264000AF909F908F900895CF92DF92EF92FF927C
:10265000CF93DF936B017C01E0912F09F09130095A
:102660000190F081E02D6DE28FE299E00995EC0197
:1026700066277727CB016C197D098E099F094AE0EF
:102680000E94E3128C0F9D1FDF91CF91FF90EF907E
:10269000DF90CF900895CF93DF930E94D112EC0189
:1026A0008CE494E00E94D1128C0F9D1FDF91CF919A
:1026B0000895BC01990F880B990B97FD0C94241376
:1026C0004AE00C94E3120C94D112CF93DF93BC0137
:1026D000990F880B990B97FF03C00E94241303C026
:1026E0004AE00E94E312EC018CE494E00E94D112D3
:1026F0008C0F9D1FDF91CF9108952F923F924F92A3
:102700005F926F927F928F929F92AF92BF92CF9281
:10271000DF92EF92FF920F931F93CF93DF93CDB78A
:10272000DEB728970FB6F894DEBF0FBECDBF5A01B3
:10273000822E912C9C01280D391D37FDC4C0803894
:1027400091050CF0C0C09B01200F311D37FDBBC0AF
:10275000603471050CF0B7C0AB0177FF04C04427AB
:102760005527461B570B477055279B0177FF02C023
:10277000295F3F4FE3E035952795EA95E1F777FF2D
:1027800008C02150310968E070E0DB01A41BB50BE3
:10279000AD01602F66956695669570E0077011F043
:1027A0006F5F7F4FDB01A20FB31FBA83A98339018B
:1027B0007694762C662477946794680E791EE12CC3
:1027C000F12C00E010E02301B0E84B0E511C68E052
:1027D00070E0DB01A41BB50BBC83AB8369817A81FC
:1027E0002617370709F46FC02830310509F46BC08C
:1027F0002F3FBFEF3B070CF45BC0B201600F711FAE
:10280000DB01A157BB4FBE83AD83D801A60DB71D19
:10281000A157BB4F6C0160E070E0681579050CF0C2
:1028200047C0E0E8CE16D10409F442C0D7FC34C05A
:102830002F3FFFEF3F0709F442C0FB01EE0DFF1DE4
:10284000EA0DFB1DE491042E01C0EE0F0A94EAF795
:102850003C90E329EC9341155105F1F02730310507
:10286000D9F0FB01EE0DFF1DEA0DFB1DE4912E2EAC
:10287000312CF1010B8002C0F595E7950A94E2F73F
:10288000F887EF83ED81FE813080EF81F885E329C1
:102890001F01ED81FE8120826F5F7F4FED81FE8100
:1028A0003196FE83ED83FFEFCF1ADF0A1196B5CF85
:1028B0002F5F3F4F00581F4FE80CF91C8FCF411579
:1028C000510579F6E9CF28960FB6F894DEBF0FBE12
:1028D000CDBFDF91CF911F910F91FF90EF90DF90CF
:1028E000CF90BF90AF909F908F907F906F905F90B0
:1028F0004F903F902F9008955F926F927F928F92AA
:102900009F92AF92BF92CF92DF92EF92FF920F937E
:102910001F93CF93DF93EC018B017A01A901461B32
:10292000570B57FF03C0519541955109C7018C1BA7
:102930009D0B97FF03C09195819591095524539460
:102940008417950714F0512C0AC09E2D8F2D790104
:10295000292F382F9C2F8D2FE801092F182FEC16C7
:10296000FD0654F4902F812F8901292F382F9C2F99
:102970008D2FE701E92EF82E37016C1A7D0A5901D7
:10298000A01AB10AB7FE03C0B194A194B1086301C3
:1029900077FE03C08FEFC81AD80AD594C7940217E0
:1029A000130714F08FEF01C081E0882E880F99087B
:1029B000EC16FD06B4F021E0552019F0AE01B80187
:1029C00002C0A801BE0183E399E00E94C007CA18B3
:1029D000DB08D7FE04C0080D191DC60CD71C2196B4
:1029E000E7CFDF91CF911F910F91FF90EF90DF9094
:1029F000CF90BF90AF909F908F907F906F905F909F
:102A0000089580E0EFE8F4E081118FEF00248193D6
:102A10008193819381930394D1F708950E940115C6
:102A2000EFE2F9E0118E108E178A168A08958091D0
:102A30008F048EBDE0E9F4E081910DB407FEFDCF77
:102A40008EBD88E0EF38F807B9F70DB407FEFDCF6B
:102A500008950F931F93CF93DF938C0181E090E053
:102A60000E94931F80FF31C08AE090E00E94931F74
:102A70009FEF980F9E3F48F522E330E0D80157962C
:102A80003C932E93569728E330E059963C932E932F
:102A90005897CBE0D0E0D801ED91FC910190F08106
:102AA000E02D682FC8010995CE010E94931F219641
:102AB000C131D10581F70E94171588EE93E0DF91AF
:102AC000CF911F910F910C944907DF91CF911F91E6
:102AD0000F91089504970C942915CF93DF93CDB7E8
:102AE000DEB7C055D1090FB6F894DEBF0FBECDBF1B
:102AF000789484B5826084BD84B5816084BD85B5D9
:102B0000826085BD85B5816085BD80916E008160E4
:102B100080936E001092810080918100826080938A
:102B2000810080918100816080938100809180008C
:102B300081608093800080919100826080939100F9
:102B400080919100816080939100809190008160DC
:102B5000809390008091C10084608093C100809137
:102B6000C10082608093C1008091C1008160809328
:102B7000C1008091C30081608093C3008091C00038
:102B800082608093C0008091C20081608093C20007
:102B900080917A00846080937A0080917A008260CC
:102BA00080937A0080917A00816080937A0080918E
:102BB0007A00806880937A001092670410928A04E9
:102BC000109265048091D70081608093D70080EADD
:102BD0008093D80089B5806189BD89B5826089BD3F
:102BE00009B400FEFDCF61E070E080E090E00E945B
:102BF0000F078091D8008F7C80618093D8008091EE
:102C0000E000807F8093E0008091E1008E7E8093E1
:102C1000E1008DE08093E200559A209AEEEFFFE705
:102C2000859194918B3F9C4D19F481E080938904A8
:102C30000E94500A3CE0A32EB12CEE24E394F12C28
:102C400054E0452E512C62E0862E912C85E0C82E52
:102C5000D12C9BE4292E312C24E1622E712C2FB72C
:102C6000F8948091560490915704A0915804B09123
:102C700059042FBF40913F0950914009609141098B
:102C80007091420920914309222341F020913B0990
:102C9000821B80934409109243098EC584179507BF
:102CA000A607B70738F4481B423008F485C50E94D0
:102CB000B50782C521E02093430980933B09909397
:102CC0003C09A0933D09B0933E0920913A09820F37
:102CD000911DA11DB11D80933F0990934009A093C0
:102CE0004109B093420980913609909137090196C4
:102CF0009093370980933609809138098093390978
:102D00000E949807809338090E94980787FF07C0A0
:102D10008091620490916304892B09F455C50E9447
:102D2000980784FF07C08091600490916104892B0B
:102D300009F458C50E94980787FD04C010926304E7
:102D4000109262040E94980784FD04C010926104EE
:102D5000109260040E94980783FD04C010927004D2
:102D600010926F04E0916D04F0916E04E830F1056B
:102D700008F020C5EA5AFF4F0C94342080E090E020
:102D800020E030E04AE027C00E940E1500E420E871
:102D900041E658E060E070E080E090E00E947D1342
:102DA00089E190E090934609809345091092480983
:102DB0001092470984E991E00E9463130E949807EA
:102DC00082FFF8C4F0926E04E0926D0410927204D7
:102DD00010927104EFC4265F3F4F85309105D4F403
:102DE000489FF001499FF00D112461E070E06C0FE5
:102DF0007D1FE60FF71F7E96DF01542F1D925A9517
:102E0000E9F7FB01E20FF31F6DE771E0738F628F4B
:102E10000196E1CF83EA91E09A8389831C821B8229
:102E20001E821D8218861F821A8619861C861B86A2
:102E30001E861D861A8A198A1C8A1B8A80E5FE0155
:102E40003196AFEDB8E001900D928A95E1F70E94BE
:102E50000E151092460910924509109248091092D9
:102E6000470988EA91E00E9463138DE494E00E9490
:102E700063132AE030E042E850E06AE070E080E06E
:102E800090E00E947C141092460910924509B0927D
:102E90004809A092470980917104909172040397A8
:102EA00024F0109272041092710480917104909138
:102EB000720497FF04C09092720480927104809112
:102EC00071049091720481309105B1F082309105C6
:102ED00021F1892BA1F589EB91E00E944B1304E1CC
:102EE00024E14DEC5CE06EE170E080E090E00E9457
:102EF0007D1381EC91E021C08FEC91E00E944B1397
:102F000004E124E145E258E06EE170E080E090E009
:102F10000E947D1384ED91E010C08AEE91E00E9442
:102F20004B1304E124E149EE57E06EE170E080E0EC
:102F300090E00E947D138FEE91E00E9463130E9447
:102F4000980783FF37C480916F0490917004892B98
:102F500009F456C42FC40E940E151092460910920F
:102F60004509109248091092470981E192E00E94B8
:102F700063132AE030E042E850E06AE070E080E06D
:102F800090E00E947C141092460910924509B0927C
:102F90004809A092470980917104909172040597A5
:102FA00024F0109272041092710480917104909137
:102FB000720497FF04C05092720440927104809191
:102FC0007104909172048230910511F12CF40097F4
:102FD00059F0019761F02CC083309105E1F004971E
:102FE00039F58AE792E022C08BE192E01FC0809120
:102FF000E1089091E208181619061CF481E292E0AB
:1030000015C088E292E00E944B1388E392E00EC064
:1030100089E492E00BC08091680490916904039761
:103020001CF48EE492E002C08FE592E00E946313EC
:103030000E94980783FFBEC380916F049091700433
:10304000892B09F4CEC4B6C380916C048111CBC026
:103050000E940E150E94271F63E070E00E9420204E
:1030600081309105E1F18230910509F477C0892B17
:1030700009F0B2C08EEF91E09093900880938F0892
:103080008AE090E09093920880939108909394083E
:10309000809393089093960880939508D09298080F
:1030A000C0929708D0929A08C092990810929C08F2
:1030B00010929B088DEA97E090939E0880939D085C
:1030C0008AE0EDEAF8E0DF01282F1D922A95E9F762
:1030D000F092AE08E092AD0826E032E073C02FEC2B
:1030E00031E03093900820938F087092920860929C
:1030F00091087092940860929308D0929608C092BA
:1031000095082AE030E030939808209397081092B1
:103110009A0810929908D0929C08C0929B0821E7C7
:1031200037E030939E0820939D082AE0EDEAF8E00E
:10313000DF01322F1D923A95E9F79093B008809302
:10314000AF0886E993E09093B4088093B308A3EAAC
:10315000B8E001900D922A95E1F73EC08CE092E034
:103160009093900880938F088AE090E09093920863
:1031700080939108909394088093930810929608F6
:1031800010929508109298081092970890939A08B8
:103190008093990890939C0880939B0885E397E01F
:1031A00090939E0880939D088AE0EDEAF8E0DF01A5
:1031B000282F1D922A95E9F7F092B208E092B10803
:1031C00024EA33E03093B4082093B308A3EAB8E0CC
:1031D00001900D928A95E1F781E080936C04109242
:1031E0007204109271040E94CC0CE4C20E940E156D
:1031F0001092460910924509109248091092470909
:1032000080E892E00E9463132AE030E042E850E058
:103210006AE070E080E090E00E947C140E949807D1
:1032200082FF04C090926E0480926D0480915C04D1
:1032300090915D04892B09F013C1809171049091E4
:103240007204029724F0109272041092710480911B
:1032500071049091720497FF04C0F0927204E0929E
:1032600071048091710490917204009709F09DC0DF
:103270001092460910924509B0924809A092470958
:103280008091DF089091E0080E944B138091E10843
:103290009091E2080E94591382E992E00E94631320
:1032A0008091E3089091E4080E94591386E992E026
:1032B0000E944B138BE992E00E9463132091E50872
:1032C0003091E6088091F3089091F408820F931FE3
:1032D0000E94651385EA92E00E9463132091E7083B
:1032E0003091E8088091F5089091F608820F931FBD
:1032F0000E9465138EEA92E00E9463138091E908B0
:103300009091EA080E94651385EB92E00E94631396
:103310002091EB083091EC088091F7089091F80823
:10332000820F931F0E94651330924609209245092F
:10333000B0924809A09247098CEB92E00E94631377
:103340008091F1089091F2080E9459133092460939
:103350002092450970924809609247098091F908C6
:103360009091FA080E944B13309246092092450929
:103370008CE190E0909348098093470981EC92E0BA
:103380000E9463138091EF089091F0080E945913F6
:103390004091ED085091EE0804E124E168E270E00C
:1033A00084E690E00E947D134FC0019709F04CC065
:1033B0000E940E1510924609109245091092480974
:1033C0001092470988EC92E00E9463132AE030E0F3
:1033D00042E850E06AE070E080E090E00E947C14F7
:1033E0001092460910924509B0924809A0924709E7
:1033F0000DEF18E0D80116968D919C9117970E94B9
:10340000631389ED92E00E946313F801808191813A
:103410000E9459138DED92E00E946313D801129619
:103420008D919C9113970E94591381EE92E00E9416
:103430006313F801848195810E946513065F1F4F15
:10344000F9E00F321F07B1F60E94980786FF08C007
:10345000F0925D04E0925C04109272041092710488
:1034600080915C0490915D04019709F0A3C10E94D2
:103470000E151092460910924509109248091092B3
:10348000470985EE92E00E9463132AE030E042E8AB
:1034900050E06AE070E080E090E00E947C141092BE
:1034A000460910924509B0924809A09247098DEE4D
:1034B00092E00E944B1380917104909172040597E1
:1034C00024F0109272041092710480917104909112
:1034D000720497FF04C0509272044092710480916C
:1034E0007104909172041AE0189FF001199FF00D79
:1034F0001124E152F74F84A195A10E9463130E9409
:10350000980783FF07C080916F0490917004892B06
:1035100009F4A7C20E94980785FF4CC110925D0470
:1035200010925C0447C10E940E1510924609109239
:103530004509109248091092470983E093E00E94E0
:1035400063132AE030E042E850E06AE070E080E097
:1035500090E00E947C141092460910924509B092A6
:103560004809A09247090E94980782FF08C09092DC
:103570006E0480926D041092720410927104809116
:103580005E0490915F04892B09F04BC08091710417
:1035900090917204029724F01092720410927104B8
:1035A000809171049091720497FF04C0F0927204AC
:1035B000E09271048091710490917204009719F067
:1035C000019721F015C089E093E010C02091E10837
:1035D0003091E2088091E3089091E40828173907B8
:1035E0001CF48CE193E002C089E293E00E94631333
:1035F0000E94980783FF15C080916F04909170041A
:10360000892B79F4F0927004E0926F048091710438
:1036100090917204009709F051C2F0925F04E09219
:103620005E0480915E0490915F04019709F075C07B
:103630008091710490917204069724F010927204A4
:1036400010927104809171049091720497FF04C0EC
:10365000D0927204C09271040E940E158091710480
:10366000909172041AE0189FF001199FF00D112437
:10367000EC5EFE4F868197810E94631384E992E09D
:103680000E9463138091710490917204189FF0015D
:10369000199FF00D1124EC5EFE4F808591850E94EC
:1036A000591388ED93E00E944B138091710490911F
:1036B0007204189FF001199FF00D1124EC5EFE4F6B
:1036C0002091EF083091F0088085918528173907FF
:1036D00024F48BE393E00E9463130E94980783FF16
:1036E0001CC080916F0490917004892BB1F480917B
:1036F0007104909172042AE0289FF001299FF00D37
:103700001124EC5EFE4F4091EF085091F0082085A7
:103710003185421753070CF0F2C180915E049091FD
:103720005F04029709F046C0809171049091720481
:10373000059724F010927204109271048091710424
:103740009091720497FF04C05092720440927104E9
:103750000E940E158EE493E00E944B1387E693E0DF
:103760000E94631380917104909172040E94591316
:1037700084E992E00E946313809171049091720435
:103780001AE0189FF001199FF00D1124E152F74F34
:1037900084A195A10E944B130E94980783FF0AC041
:1037A00080916F0490917004892B09F4B5C102C017
:1037B0000E94CD080E94171580E090E0892B09F443
:1037C0004ECA0E94000042CAF0926304E092620472
:1037D0008091710490917204019690937204809389
:1037E00071049DCAF0926104E092600480917104BA
:1037F00090917204019790937204809371049ACA15
:10380000F0927004E0926F048091710490917204C0
:103810008130910509F048C02FEC31E03093E00889
:103820002093DF087092E2086092E1087092E40849
:103830006092E308D092E608C092E5082AE030E002
:103840003093E8082093E7081092EA081092E908FC
:10385000D092EC08C092EB0821E737E03093EE08F5
:103860002093ED082AE0ADEFB8E0E22F1D92EA9533
:10387000E9F7909300098093FF0886E993E090931D
:10388000040980930309EDEFF8E0A3EFB8E001909D
:103890000D922A95E1F710927204109271049092A1
:1038A0006E0480926D0486CF8230910509F056C077
:1038B0002CE032E03093E0082093DF082AE030E08B
:1038C0003093E2082093E1083093E4082093E30862
:1038D0001092E6081092E5081092E8081092E708A6
:1038E0003093EA082093E9083093EC082093EB0822
:1038F00025E337E03093EE082093ED082AE0ADEFA2
:10390000B8E0E22F1D92EA95E9F7F0920209E09201
:10391000010944EA53E05093040940930309EDEF91
:10392000F8E0A3EFB8E001900D922A95E1F710922C
:103930007204109271040DC0019709F03BCF809181
:10394000E1089091E208181619060CF033CF83E0D5
:1039500090E090936E0480936D042CCF892B09F036
:1039600029CF8EEF91E09093E0088093DF088AE002
:1039700090E09093E2088093E1089093E4088093AC
:10398000E3089093E6088093E508D092E808C09297
:10399000E708D092EA08C092E9081092EC08109269
:1039A000EB088DEA97E09093EE088093ED088AE0AB
:1039B000ADEFB8E0E82F1D92EA95E9F7F092FE0826
:1039C000E092FD0826E032E03093040920930309D9
:1039D000EDEFF8E0A3EFB8E001900D928A95E1F7E2
:1039E0005ACFF0927004E0926F048091710490912C
:1039F00072048230910519F40E94500ADBCE8330A4
:103A0000910544F4009709F097CFD0926E04C092CC
:103A10006D0410C08330910591F0049709F0CACE6F
:103A200086E090E090936E0480936D04109272048F
:103A30001092710410925F0410925E04BBCE8091CC
:103A4000E1089091E208181619060CF0B3CE8091A7
:103A500068049091690403970CF0ACCE87E090E085
:103A600078CF8091710490917204189FF001199F92
:103A7000F00D1124E152F74F468D578D20A131A151
:103A800082A193A164A175A1A3EFB8E01D921A953C
:103A9000E9F75093F4084093F3083093F608209325
:103AA000F5089093F8088093F7087093FA086093EC
:103AB000F90810925D0410925C042CCD019709F076
:103AC000B0CD8091EF089091F008181619060CF00F
:103AD000A8CD2091E3083091E4084091E10850918D
:103AE000E208421753070CF09CCD3093E208209374
:103AF000E10801979093F0088093EF0892CDF0923F
:103B00007004E0926F0490935B0480935A04909247
:103B10005F0480925E0401CE20915A0430915B04D0
:103B20008091710490917204189FD001199FB00D7B
:103B30001124A350B74F129FC001139F900D112461
:103B40008C5E9E4F2AE0FC0101900D922A95E1F7D0
:103B50002091EF083091F008FC0180859185A90142
:103B6000481B590B5093F0084093EF0810925F04E4
:103B700010925E04F0927004E0926F041BCECF921C
:103B8000DF92EF92FF920F931F93CF93DF931F92D9
:103B9000CDB7DEB7182F062FE42E862F880F8E5F45
:103BA00099830E949B0F83E00E949B0FF12EC12EF0
:103BB0009981D92E8C2D8F19801798F4F601E7FE84
:103BC00002C0849101C080810E949B0F182F80E069
:103BD0000E949B0F8123FFEFCF1ADF0A8111EACFEA
:103BE00001C081E00F90DF91CF911F910F91FF9065
:103BF000EF90DF90CF9008951092500910924F09E6
:103C000088EE93E0A0E0B0E08093510990935209D0
:103C1000A0935309B09354098BE591E090934E091A
:103C200080934D098FEF9FEF90935A098093590924
:103C300083EA91E09093E0088093DF081092E40813
:103C40001092E3081092E2081092E1081092E60840
:103C50001092E5081092E8081092E7081092EA081E
:103C60001092E9081092EC081092EB081092F008FC
:103C70001092EF081092F2081092F10880E090E0A4
:103C800020E030E04AE06DE771E0265F3F4F85308D
:103C900091059CF4489FF001499FF00D1124E350D9
:103CA000F74FDF01542F1D925A95E9F7F901E152C0
:103CB000F74F738F628F0196E8CF83EA91E090937C
:103CC000900880938F081092940810929308109295
:103CD00092081092910810929608109295081092EE
:103CE00098081092970810929A08109299081092CA
:103CF0009C0810929B081092A00810929F081092A6
:103D0000A2081092A10880E090E020E030E04AE0B4
:103D10006DE771E0265F3F4F853091059CF4489F29
:103D2000F001499FF00D1124E355F74FDF01542FA7
:103D30001D925A95E9F7F901E157F74F738F628F9A
:103D40000196E8CF10923209109231091092380989
:103D50001092390980E180933A098FEF9FEF909399
:103D600037098093360910923F091092400910924A
:103D7000410910924209109243098DE691E0909317
:103D8000300980932F098BE791E090933409809359
:103D90003309109246091092450910924809109271
:103DA000470981E08093490910924A0980934B09A1
:103DB00010924C0908958F929F92AF92BF92CF922A
:103DC000DF92EF92FF92CF93DF93EC0168817981CC
:103DD0008A819B81611571058105910521F464E259
:103DE00079ED8BE597E02DE133EF41E050E00E9463
:103DF000A91F49015A019B01AC01A7EAB1E40E9445
:103E0000C81F6B017C01ACEEB4EFA50194010E94C8
:103E1000D61FDC01CB018C0D9D1DAE1DBF1DB7FF54
:103E200003C00197A109B04888839983AA83BB8303
:103E30009F77DF91CF91FF90EF90DF90CF90BF9071
:103E4000AF909F908F9008950E94DB1E08958CE0A4
:103E500091E00E94DB1E0895A0E0B0E080930C0189
:103E600090930D01A0930E01B0930F0108958F92CE
:103E70009F92AF92BF92CF92DF92EF92FF92CF9339
:103E8000DF93EC01688179818A819B8161157105DD
:103E90008105910521F464E279ED8BE597E02DE150
:103EA00033EF41E050E00E94A91F49015A019B01F4
:103EB000AC01A7EAB1E40E94C81F6B017C01ACEE23
:103EC000B4EFA50194010E94D61FDC01CB018C0D3B
:103ED0009D1DAE1DBF1DB7FF03C00197A109B048CE
:103EE00088839983AA83BB83BC01CD019F77DF912F
:103EF000CF91FF90EF90DF90CF90BF90AF909F90C9
:103F00008F9008950E94371F089580E191E00E94EC
:103F1000371F08956093100170931101809312016F
:103F2000909313010895F999FECF92BD81BDF89A3F
:103F3000992780B50895262FF999FECF1FBA92BD13
:103F400081BD20BD0FB6F894FA9AF99A0FBE01967A
:103F50000895052E97FB1EF400940E94C01F57FD84
:103F600007D00E94DB1F07FC03D04EF40C94C01F47
:103F700050954095309521953F4F4F4F5F4F089595
:103F800090958095709561957F4F8F4F9F4F0895C5
:103F90000E94FD1FA59F900DB49F900DA49F800DC2
:103FA000911D11240895B7FF0C94C81F0E94C81FCB
:103FB000821B930B0895A1E21A2EAA1BBB1BFD01C5
:103FC0000DC0AA1FBB1FEE1FFF1FA217B307E407F8
:103FD000F50720F0A21BB30BE40BF50B661F771F50
:103FE000881F991F1A9469F7609570958095909530
:103FF0009B01AC01BD01CF010895A29FB001B39F09
:10400000C001A39F700D811D1124911DB29F700DE1
:10401000811D1124911D0895AA1BBB1B51E107C0EE
:10402000AA1FBB1FA617B70710F0A61BB70B881F48
:10403000991F5A95A9F780959095BC01CD010895D7
:1040400097FB072E16F4009407D077FD09D00E9445
:104050000C2007FC05D03EF4909581959F4F089564
:10406000709561957F4F0895EE0FFF1F0590F491B5
:10407000E02D099481E090E0F8940C943F20F894AE
:02408000FFCF70
:1040820000E1000000000000FFFFFFFF0100000050
:104092000100000005000200000070030A00020097
:1040A2000500000078030A000000020005008503F5
:1040B2000A000700050003008A0314000500070038
:1040C2000300910314000300050007009D03140080
:1040D20000C1808100000000000000C60B470CE711
:1040E2000BDC0B2D0CEB0B090C00000000DE07B003
:1040F200060A0709072915FCFF00006A15454D50FD
:10410200545900736C696D650074726F6C6C006F4A
:1041120067726500486974206220746F207374614D
:104122007274006E756C6C005069636B20796F75E8
:104132007220636C6173732E0057617272696F72C1
:10414200005374726F6E672041747461636B005424
:10415200616E6B0048696768204865616C7468200D
:104162002620446566656E7365004D61676500468D
:1041720061737420616E6420667261696C0077619C
:104182007272696F720053776F7264006D61676556
:10419200004D41494E204D454E5500737461747374
:1041A20000626174746C6500596F752061726520DC
:1041B2006661696E74656400596F752063616E6E25
:1041C2006F74206669676874007175697400466966
:1041D200676874204172656E6120426F7373007963
:1041E2006F752061726520746865206172656E6109
:1041F200206368616D70696F6E0073746F72650021
:10420200535441545320762D494E56203E45515029
:104212005400202F20002048502000537472656EF5
:104222006774683A00446566656E73653A00537058
:104232006565643A004D616769633A004C766C3A91
:1042420000436F696E733A00494E56454E544F52C1
:1042520059205E53544154530020613A0020643A7D
:104262000020733A003C5354415453200053656C70
:10427200656374206974656D20746F20657175695A
:1042820070740053746F726500427579206E6577A1
:10429200206571756970746D656E74004845414C96
:1042A2003A203120636F696E00596F75206E656523
:1042B20064206E6F74206865616C00796F75206C84
:1042C20061636B2074686520636F696E7300736548
:1042D2006C65637420736C6F7420696E20696E76EE
:1042E200656E746F727900736C6F7420233A2000CC
:1042F2004B6C65617665720042726F61642053682F
:1043020069656C640057616E64004B6174616E6133
:104312000049726F6E20536865696C64004D616E6E
:10432200677573205374616666002068703A2000D6
:104332002048500061747461636B00646566656E49
:1043420064005370656369616C00566963746F72CF
:10435200790074616B65203220636F696E7300614E
:104362007320796F7572207072697A6500422074C9
:104372006F2072657475726E20746F206D656E7534
:1043820000596F752068617665204661696C6564C5
:1043920000546865204172656E61205069747469C9
:1043A200657320796F75005265737420796F757229
:1043B20020776F756E647300796F75277665206C50
:1043C2006F7374203220636F696E73000D0A0000F0
:00000001FF
