:100000000C94420E0C946A0E0C946A0E0C946A0EB8
:100010000C946A0E0C946A0E0C946A0E0C946A0E80
:100020000C946A0E0C946A0E0C9456150C94C81518
:100030000C946A0E0C946A0E0C946A0E0C946A0E60
:100040000C946A0E0C946A0E0C946A0E0C946A0E50
:100050000C946A0E0C946A0E0C946A0E0C940A0F9F
:100060000C946A0E0C946A0E0C946A0E0C946A0E30
:100070000C946A0E0C946A0E0C946A0E0C946A0E20
:100080000C946A0E0C946A0E0C946A0E0C946A0E10
:100090000C946A0E0C946A0E0C946A0E0C946A0E00
:1000A0000C946A0E0C946A0E0C946A0E6D1F981FC5
:1000B00058204C2172260822D523852570C070C196
:1000C0003204CAF498B4EAB498F4CA24C271C07075
:1000D000000C172DEAF4744D6FACD5ACAF4D7462C3
:1000E000970B05000000000C060B0B080F0D00001D
:1000F0000D0F0F080B0A060C20B8FEF4500067FA2B
:100100006C1C6CF86C0702000000000001181F381E
:1001100030186CBEDD87DDBE663C183870E000002C
:1001200000000000000E030E0103010E070E000088
:1001300001030100736C6F7420233A200053656C37
:1001400065637420696E7620736C6F740059652046
:1001500042726F6B6500636F696E73003A004865A9
:1001600072652773207768617420796520676F74E2
:1001700000596F75206E656564206E6F7420686528
:10018000616C004845414C3A203120636F696E0034
:10019000427579206E6577206571756970746D653B
:1001A0006E740000F20C120202020202824282020B
:1001B000020202020202020202020282020202029F
:1001C000020202020202020262E29A8A8A0A2A2ACF
:1001D0002A9A9ADADADA8A0A8ACACACACACACACA8F
:1001E000CA9A191A99DADADACA8A2A2A6A4A8ACAA1
:1001F0009ADADADACA8A2A2A6A6AAACA8A8A8A8ABF
:10020000AAEAAA3A1A1A1A1A9A0AEA5A1A02020206
:1002100002020202020202020202020202020212AE
:100220000CF20000FF000000000000FEFD0201FED5
:10023000000000000000000000E0FE1F00000000C1
:100240000000000060E5F73D232120A0B11111005E
:100250000F1F1FB9F9F9F004044D6901FFFFFF01F9
:1002600001007EFF7E81A989817EFF7E0000FFFF65
:10027000F6193979F9D68F46484801FFFF39391107
:1002800001414848181111D9380F0C0C000000002A
:10029000E0F0B0B0B8B81818B8B8B0B0F0E00000EE
:1002A00000FF0000FF000000000000FFFF0000FF53
:1002B00000000000000000000302070C74887800B2
:1002C000000000060E0786363E3224242525252010
:1002D00021232333B33130303232322021232128FD
:1002E00029292A2839333333333124A4ACA0A32756
:1002F0002330323031333732382823273333333306
:10030000B337222828392F01030000000000000025
:10031000030F3B766C7FF0F07F6C763B0F030000A1
:1003200000FF0000FF0000000040407FDF40C07F72
:100330004040000000000000002078F46E03000040
:1003400000000000000000010265FACC5AF55ACC0A
:10035000FA650201000000000067FA6C1C6CF86C82
:10036000070200000000FC02EDB53B5A3232523B5E
:10037000B5ED02FC00000000000000FC82121271CA
:100380001171121282FC00000000000000000080C9
:10039000C87070B02840C04000000000000000009D
:1003A00000FF0000FF000000808080908FB58F90DC
:1003B000808080808080808080808FBF8F808080E0
:1003C0008080808080808080808080818282828125
:1003D000808080808080808080808081818180801A
:1003E000808080808080878A949999999999919149
:1003F00091908887808080808080808081838688BB
:100400008E88868381808080808080888C868381AE
:100410008080808186828180808080808000000052
:1004200000FF0000FF00FC030000000000000000CF
:1004300000000000000000000000000000000000BC
:1004400000000000000000000000000000000000AC
:10045000000000000000000000000000000000009C
:10046000000000000000000000000000000000008C
:10047000000000000000000000000000000000007C
:10048000000000000000000000000000000000006C
:100490000000000000000000000000000001827C5D
:1004A00000FF0000F70C0A090A0A0A0A0A0A0A0AE7
:1004B0000A0A0A0A0A0A0A0A0A0A0A0A0A0A0A0A9C
:1004C0000A0A0A0A0A0A0A0A0A0A0A0A0A0A0A0A8C
:1004D0000A0A0A0A0A0A0A0A0A0A0A0A0A0A0A0A7C
:1004E0000A0A0A0A0A0A0A0A0A0A0A0A0A0A0A0A6C
:1004F0000A0A0A0A0A0A0A0A0A0A0A0A0A0A0A0A5C
:100500000A0A0A0A0A0A0A0A0A0A0A0A0A0A0A0A4B
:100510000A0A0A0A0A0A0A0A0A0A0A0A0A09080840
:1005200008F700004F3048404040404040404040C5
:1005300040404040404040404040404040404040BB
:1005400040404040404040404040404040404040AB
:10055000404040404040404040404040404040409B
:10056000404080408040404040404040404040400B
:10057000404040404040404040404040404040407B
:10058000404040404040404040404040404040406B
:100590004040404040404040404040404040404853
:1005A000304F0020733A0020643A0020613A004343
:1005B0006F696E733A004C766C3A004D61676963FF
:1005C0003A0053706565643A00446566656E73650C
:1005D0003A00537472656E6774683A002048502080
:1005E00000494E56454E544F5259205E5354415483
:1005F000530053656C656374206974656D20746F76
:1006000020657175697074003C5354415453200047
:10061000535441545320762D494E56203E45515057
:100620005400F00C8262F1D96975B56565A57569EC
:10063000D9F162820CF007C833889C252B4A5252AC
:1006400052524A2B259C8833C807000304080B0824
:10065000090A0A0A0A0A0A09080B080403003E00EC
:100660003E003E003E003E0053746F726500596FBD
:10067000752061726520746865206172656E612005
:100680006368616D70696F6E0046696768742041C8
:1006900072656E6120426F737300526573657400FA
:1006A000426174746C650053746174730000F20CE1
:1006B000120202020202020202020202020202020A
:1006C000020202020202020202020202020202020A
:1006D00002020202020202020202020202020202FA
:1006E00002020202020202020202020205020502E4
:1006F00002020202020202020202020202020202DA
:1007000002020202020202020202020202020202C9
:1007100002020202020202020202020202020202B9
:10072000020202020202020202120CF20000FF00A8
:1007300000000000000000000000000000000000B9
:1007400000000000000000000000000000000000A9
:100750000000000000000000000000000000000099
:100760000000000000000000000000000000000089
:100770000000000000000000000000000000000079
:100780000000000000000000000000000000000069
:100790000000000000000000000000000000000059
:1007A0000000000000000000000000FF0000FF004B
:1007B0000000000000000000000000000000000039
:1007C0000000000000000000000000000000000029
:1007D0000000000000000000000000000000000019
:1007E0000000000000000000000000000000000009
:1007F00000000000000000000000000000000000F9
:1008000000000000000000000000000000000000E8
:1008100000000000000000000000000000000000D8
:100820000000000000000000000000FF0000FF00CA
:1008300000000000000000000000000000000000B8
:1008400000000000000000000000000000000000A8
:100850000000000000000000000000000000000098
:100860000000000000000000000000000000000088
:100870000000000000000000000000000000000078
:100880000000000000000000000000000000000068
:100890000000000000000000000000000000000058
:1008A0000000000000000000000000FF0000FE014A
:1008B0000000000000000000000000000000000038
:1008C0000000000000000000000000000000000028
:1008D0000000000000000000000000000000000018
:1008E0000000000000000000000000000000000008
:1008F00000000000000000000000000000000000F8
:1009000000000000000000000000000000000000E7
:1009100000000000000000000000000000000000D7
:100920000000000000000000000001FE0000FF00C9
:1009300000000000000000000000000000000000B7
:1009400000000000000000000000000000000000A7
:100950000000000000000000000000000000000097
:100960000000000000000000000000000000000087
:100970000000000000000000000000000000000077
:100980000000000000000000000000000000000067
:100990000000000000000000000000000000000057
:1009A0000000000000000000000000FF0000FF0049
:1009B0000000000000000000000000000000000037
:1009C0000000000000000000000000000000000027
:1009D0000000000000000000000000000000000017
:1009E0000000000000000000000000000000000007
:1009F00000000000000000000000000000000000F7
:100A000000000000000000000000000000000000E6
:100A100000000000000000000000000000000000D6
:100A20000000000000000000000000FF00004F3048
:100A300048404040404040404040404040404040AE
:100A400040404040404040404040404040404040A6
:100A50004040404040404040404040404040404096
:100A6000404040404040404040404040A040A040C6
:100A70004040404040404040404040404040404076
:100A80004040404040404040404040404040404066
:100A90004040404040404040404040404040404056
:100AA00040404040404040404048304F00000080BF
:100AB000000000001050DCFE1910000000000000D3
:100AC000000001FE0978381818F8FBFFF8F0000064
:100AD000000000000000000F00000000000F0F0FDA
:100AE0000F0F0E0C08080000000000066BF4F87CE5
:100AF0007CBC7C7CBC7C7CF8F46B06000078A41485
:100B0000FC14ABFFFEEED6AED6EEFFFB2438F0E0D1
:100B10000000000101010F0B050B0D0F0B050B0F62
:100B200000070F0F0700FC02F9FE000000E0B0B85C
:100B3000F8EC0000000000000004073C1F373418E8
:100B4000B8EDF7BFE7FDB818F0E0000000000000C6
:100B500000000C0F0F03010101030F0C080000003F
:100B6000004661737420616E6420667261696C0076
:100B7000000080000000001050DCFE191000000092
:100B8000000000000001FE0978381818F8FBFFF893
:100B9000F00000000000000000000F000000000056
:100BA0000F0F0F0F0F0E0C08080000004D61676556
:100BB0000048696768204865616C74682026204495
:100BC0006566656E7365000000066BF4F87C7CBC9E
:100BD0007C7CBC7C7CF8F46B06000078A414FC14CC
:100BE000ABFFFEEED6AED6EEFFFB2438F0E0000001
:100BF000000101010F0B050B0D0F0B050B0F00077B
:100C00000F0F0754616E6B005374726F6E67204153
:100C1000747461636B0000FC02F9FE000000E0B038
:100C2000B8F8EC0000000000000004073C1F373457
:100C300018B8EDF7BFE7FDB818F0E00000000000BD
:100C40000000000C0F0F03010101030F0C0800004E
:100C5000000057617272696F72000A005069636B1D
:100C600020796F757220636C6173732E004869740C
:100C7000206220746F2073746172740000000000A1
:100C80000000000000000000000000000000000064
:100C90000000000000000000000000000000000054
:100CA0000000000000000000000000000000000044
:100CB0000000000000000000000000000000000034
:100CC0000000000000000000000000000000000024
:100CD0000000000000000000000000000000000014
:100CE0000000000000000000000000000000000004
:100CF00000000000000000000000000000000000F4
:100D000000000000000000000008183870F0F0E05B
:100D1000E0E0F0F0F0E0E0E0606060607070F0F063
:100D2000F0F0F0F070100000000000000000000083
:100D300000000000000000000000000000000000B3
:100D400000000000000000000000000000000000A3
:100D50000000000000000000000000000000000093
:100D60000000000000000000000000000000000083
:100D70000000000000000000000000001C1C1C1C03
:100D80001C1C1C1C1C1C1C1C1C1C1C0000C1FFFF70
:100D9000FFFFC78301000000000000000000000109
:100DA0000100000080E0F0E0C000000030F0F0F052
:100DB00070787878381818183838383810100000DB
:100DC0000008081CFCF8F000000000000000000013
:100DD00000C0F0F87830000010383838383870F03B
:100DE000F0F0F070787878707070200000000000EB
:100DF0000000000000000000000000001C1C1C1C83
:100E00001C1C1C1C1C1C1C1C00000080FEFFFF3F47
:100E10001F1F0F0F0F0F0E0E0E0E1E1E1E0E0300B5
:100E20000080E0FCFFFF3F0F000000FEFF87010095
:100E30000000000000207070E0E0E0E020200000F2
:100E40000000C0FEFF7F3D1C1C1C1C183878F8FCFD
:100E5000FFFF1F01000000000000000080E0F8FF1D
:100E6000FF7F0700E0E0E7E7E7E7E7E7E7E7E7E737
:100E7000E7E7E7E7E7E7E7E7E7E7E7E70707C7C702
:100E8000C78707070707272030383E3F3F1F070067
:100E9000000070F0F0E0C0800000202020203038FA
:100EA0003E3F3F3F1F03000000000021272F3E3C34
:100EB0003C3C38383838383C1E0F070100202038B9
:100EC0003C1F0F030000000040404070783C3F1F73
:100ED00007000000000040404060783E3F1F0703CD
:100EE000000000383838383838383838383838382A
:100EF000383838383838383838383838000001034E
:100F0000070F0F0E0E0E0E0E0E0E0E0E0E0E0E0E06
:100F10000E0E0ECEEFFFFF7F1F1E1E1E3E3E3E3EFC
:100F20003E3E3E7E7E7E7E7E7E7E7EFEFEFEFEFE21
:100F3000FCFCFCFCFCFCF8F8F8F8F8F8F8F8F8F819
:100F4000F8F0F0F0F0F0F0F0F0F0F0F0F0E0E0E0C9
:100F5000E0E0E0E0E0E0F0F0F0F0F0F0F0F8F8F8D9
:100F6000F8F8F8F8F87C7C7C3C3C3C1C1E1E0E0E0D
:100F7000000000000000000000000000301C1E1EE9
:100F80000F0F0F0F0F1E3E3C3030303038181C1C36
:100F90001C1C3C79F9F1C0C0E0E0E0F07038383852
:100FA000383870F0E0C0C0E0E0E0E0E0604040E0F1
:100FB00040C0C1C1C1C1C181810103030303030357
:100FC00003030303070707078787C7C7C7C7CF8F71
:100FD0008F0F0F0F0F0F0F0F07070703030381C1B9
:100FE000C1C0E0E0E0E0E0C0C080C0E0F8FCFCFE92
:100FF000FEFE7E3E1C1C1810103060E00E0703073A
:101000000F0F0E0C08081818181C3E3E1E1E1E1C42
:101010001818181810232120004040607038381824
:101020001838306061E1E1F1713371F0E0C0C0E087
:10103000F070313171E1C181C3C7CCCCC4860606E2
:10104000060E1E3F8FC7C3C1C1C1810103070F3FF9
:101050001F0F040686C6C6CEDCD89C0C0EC7E3F173
:10106000703070F1E3C7DFE7F37131303060C0E119
:10107000F3703030383C3E3E1E1E0E0CF0F89C8E55
:101080008783878E9CF8F00000FEFF0303030303B1
:10109000070EFCF80000FEFF0303030303070EFC2A
:1010A000F80000FFFF00000000000000FFFF00004C
:1010B000FEFF8383838383C7EE7C380000F8FC0E39
:1010C00007030303070EFCF800003F7FE0C08080A9
:1010D000C0E07F3FFFFF01010101010101FFFF00AF
:1010E00000FFFF0C0C0C0C1C3E77E3C100007FFFDF
:1010F000C0C0C0C0C0E0703F1F00001F3F70E0C014
:10110000C0C0E0703F1F00007FFFC1C1C1C1C1E38B
:10111000773E1C00001F3F70E0C0C0C0E0703F1F62
:10112000000000000001FFFF01000000D5F08D1459
:10113000A1C881CFD9F1AF20004850002F0000F2A4
:101140000C12020202020202020202020202020265
:10115000020202020202020202020202020202026F
:10116000020202020202020202020202020202025F
:10117000020202020202020202020202120DF20D39
:10118000120202020202020202020202020202022F
:101190000202020202020202020202020202FE0233
:1011A000020202020202020202020202020202021F
:1011B00002020202020202020202120CF20000FF0C
:1011C000000000000000000000000000000000001F
:1011D000000000000000000000000000000000000F
:1011E00000000000000000000000000000000000FF
:1011F0000000000000000000000000000000FF00F0
:1012000000000000000000000000000000000000DE
:101210000000000000000000000000000000FF00CF
:1012200000000000000000000000000000000000BE
:10123000000000000000000000000000FF0000FFB0
:10124000000000000000000000000000000000009E
:10125000000000000000000000000000000000008E
:10126000000000000000000000000000000000007E
:101270000000000000000000000000000000FF006F
:10128000000000000000000000000000000000005E
:101290000000000000000000000000000000FF004F
:1012A000000000000000000000000000000000003E
:1012B000000000000000000000000000FF0000FF30
:1012C000000000000000000000000000000000001E
:1012D000000000000000000000000000000000000E
:1012E00000000000000000000000000000000000FE
:1012F0000000000000000000000000000000FF00EF
:1013000000000000000000000000000000000000DD
:1013100000000000000000000000000020C03FC0EE
:10132000200000000000000000000000000000009D
:10133000000000000000000000000000FF0000FFAF
:10134000000000000000000000000000000000009D
:10135000000000000000000000000000000000008D
:10136000000000000000000000000000000000007D
:101370000000000000000000000000000000FF016D
:10138000010101010101010101010101010101014D
:10139000010101010101010101010101010201023B
:1013A000010101010101010101010101010101012D
:1013B000010101010101010101010101FF0000FF23
:1013C000000000000000000000000000000000001D
:1013D000000000000000000000000000000000000D
:1013E00000000000000000000000000000000000FD
:1013F0000000000000000000000000000000FF00EE
:1014000000000000000000000000000000000000DC
:1014100000000000000000000000000000000000CC
:1014200000000000000000000000000000000000BC
:10143000000000000000000000000000FF0000FFAE
:10144000000000000000000000000000000000009C
:10145000000000000000000000000000000000008C
:10146000000000000000000000000000000000007C
:101470000000000000000000000000000000FF006D
:10148000000000000000000000000000000000005C
:10149000000000000000000000000000000000004C
:1014A000000000000000000000000000000000003C
:1014B000000000000000000000000000FF00004FDE
:1014C0003048404040404040404040404040404024
:1014D000404040404040404040404040404040400C
:1014E00040404040404040404040404040404040FC
:1014F00040404040404040404040404048B04FB0F5
:1015000048404040404040404040404040404040D3
:1015100040404040404040404040404040404040CB
:1015200040404040404040404040404040404040BB
:101530004040404040404040404048304F00010261
:1015400004081020408000000000003E5B4F5B3E1E
:101550003E6B4F6B3E1C3E7C3E1C183C7E3C181C78
:10156000577D571C1C5E7F5E1C00183C1800FFE76F
:10157000C3E7FF0018241800FFE7DBE7FF30483A15
:10158000060E2629792926407F050507407F052577
:101590003F5A3CE73C5A7F3E1C1C08081C1C3E7FFF
:1015A00014227F22145F5F005F5F06097F017F00C6
:1015B0006689956A606060606094A2FFA2940804E6
:1015C0007E040810207E201008082A1C08081C2A07
:1015D00008081E101010100C1E0C1E0C30383E385F
:1015E00030060E3E0E06000000000000005F000006
:1015F0000007000700147F147F14242A7F2A122377
:101600001308646236495620500008070300001C86
:101610002241000041221C002A1C7F1C2A08083E8F
:1016200008080080703000080808080800006060A2
:101630000020100804023E5149453E00427F400010
:1016400072494949462141494D331814127F1027E8
:10165000454545393C4A4949314121110907364937
:10166000494936464949291E00001400000040340B
:101670000000000814224114141414140041221410
:101680000802015909063E415D594E7C1211127C37
:101690007F494949363E414141227F4141413E7F98
:1016A000494949417F090909013E414151737F0878
:1016B00008087F00417F41002040413F017F08141E
:1016C00022417F404040407F021C027F7F0408107F
:1016D0007F3E4141413E7F090909063E4151215E5D
:1016E0007F09192946264949493203017F01033FF1
:1016F0004040403F1F2040201F3F4038403F631480
:1017000008146303047804036159494D43007F4181
:1017100041410204081020004141417F04020102BE
:1017200004404040404000030708002054547840E3
:101730007F284444383844444428384444287F3877
:101740005454541800087E090218A4A49C787F08F9
:1017500004047800447D40002040403D007F102874
:10176000440000417F40007C047804787C08040435
:10177000783844444438FC1824241818242418FCCD
:101780007C08040408485454542404043F44243C72
:101790004040207C1C2040201C3C4030403C4428E1
:1017A0001028444C9090907C4464544C440008367B
:1017B00041000000770000004136080002010204E9
:1017C000023C2623263C1EA1A161123A4040207A09
:1017D0003854545559215555794121545478412153
:1017E0005554784020545579400C1E527212395588
:1017F0005555593954545459395554545800004585
:101800007C410002457D420001457C40F0292429AD
:10181000F0F0282528F07C545545002054547C5481
:101820007C0A097F493249494932324848483232B4
:101830004A4848303A4141217A3A42402078009D56
:10184000A0A07D39444444393D4040403D3C24FF04
:101850002424487E4943662B2FFC2F2BFF0929F6B1
:1018600020C0887E090320545479410000447D4102
:101870003048484A32384040227A007A0A0A727D5B
:101880000D19317D2629292F282629292926304876
:101890004D4020380808080808080808382F10C8E4
:1018A000ACBA2F102834FA00007B000008142A1468
:1018B0002222142A14089500220095AA005500AA95
:1018C000AA55AA55AA000000FF00101010FF00142E
:1018D0001414FF001010FF00FF1010F010F014148B
:1018E00014FC001414F700FF0000FF00FF1414F4B0
:1018F00004FC141417101F10101F101F1414141FB1
:1019000000101010F0000000001F101010101F1029
:10191000101010F010000000FF1010101010101028
:101920001010FF10000000FF140000FF00FF000077
:101930001F10170000FC04F414141710171414F4EB
:1019400004F40000FF00F714141414141414F70026
:10195000F7141414171410101F101F141414F41477
:101960001010F010F000001F101F0000001F1400E6
:101970000000FC140000F010F01010FF10FF141411
:1019800014FF141010101F00000000F010FFFFFFE4
:10199000FFFFF0F0F0F0F0FFFFFF0000000000FF9D
:1019A000FF0F0F0F0F0F38444438447C2A2A3E148F
:1019B0007E02020606027E027E02635549416338BA
:1019C00044443C04407E201E2006027E020299A56B
:1019D000E7A5991C2A492A1C4C7201724C304A4DC9
:1019E0004D303048784830BC625A463D3E494949FE
:1019F000007E0101017E2A2A2A2A2A44445F4444A7
:101A000040514A444040444A51400000FF0103E035
:101A100080FF000008086B6B083612362436060F6C
:101A2000090F06000018180000001010003040FFD9
:101A30000101001F01011E00191D1712003C3C3C52
:101A40003C0000000000080B000202020100090433
:101A5000000001020200000524001001052401011C
:101A60000104240206052406000107058103100075
:101A70004009040100020A000000070502024000BC
:101A8000000705830240000004030904120100025C
:101A9000EF0201404123368000010102030141723F
:101AA0006475696E6F204C4C430041726475626FBF
:101AB0007900796F75277665206C6F7374203220FA
:101AC000636F696E73005265737420796F7572204D
:101AD000776F756E647300546865204172656E613E
:101AE000205069747469657320796F7500422074A1
:101AF0006F2072657475726E20746F206D656E75DF
:101B000000596F752068617665204661696C65646F
:101B1000004220746F2072657475726E20746F209D
:101B20006D656E7500617320796F757220707269D2
:101B30007A650074616B65203220636F696E730093
:101B4000566963746F7279006D61676963007573BC
:101B500065642000546865206D6F62006174746173
:101B6000636B656400546865206D6F620044656650
:101B7000656E64656400546865206D6F6200636F14
:101B80006E74696E7565005370656369616C00649D
:101B90006566656E640061747461636B000000804B
:101BA000C0C0E0E0E07070F8787070F07010000075
:101BB0000000000000000000000000000000000025
:101BC0000000001070F07070F070F0F0F0E0E0C015
:101BD000C0808080801EFF0303FFFFFF000000FF26
:101BE000000000FF000000000000000000000000F6
:101BF00000000000000000000000000000FF0000E6
:101C0000FF0000FFFFFF0101FF0303FF07807F408C
:101C1000404F3FAFA050505F50E8E8EFE8E88080C9
:101C200080808080808080808080808080808080B4
:101C30008080E8E8E8CFE8E8EFD0D0DFDFAFA04071
:101C40007F4080FF003EBFFEF4F5B3B3BBB999AB54
:101C5000ABABAFBF7D7571535DDDDDDDD9DBD6F795
:101C60007B77BBB7B7B59D949C9C9C3C7F6F6F5DA9
:101C7000797D7D7D3DB9F7EFEFEDDCBE7D68703A93
:101C80002000642811241FBECFEFDAE0DEBFCDBFF5
:101C900012E0A0E0B1E0E6E5F7E502C005900D92A4
:101CA000AA37B107D9F727E0AAE7B2E001C01D9231
:101CB000AB39B207E1F71EE0C2E4DEE004C02197D1
:101CC000FE010E948A2BC134D107C9F70E94111E60
:101CD0000C94A92B0C940000CF92DF92EF92FF920C
:101CE0000F931F93CF93DF936C017A018B01C0E0B8
:101CF000D0E0CE15DF0589F0D8016D918D01D601B8
:101D0000ED91FC910190F081E02DC6010995892BA0
:101D100011F47E0102C02196ECCFC701DF91CF9173
:101D20001F910F91FF90EF90DF90CF9008953FB7F4
:101D3000F8948091860290918702A0918802B091D8
:101D4000890226B5A89B05C02F3F19F00196A11D59
:101D5000B11D3FBFBA2FA92F982F8827820F911D41
:101D6000A11DB11DBC01CD0142E0660F771F881F88
:101D7000991F4A95D1F708952D9A08958EBD0000B8
:101D80000DB407FEFDCF08950895089580E090E01A
:101D900008950E94A42B8F929F92AF92BF92CF92F0
:101DA000DF92EF92FF926B017C010E94970E4B0134
:101DB0005C01C114D104E104F104F1F00E94970E1A
:101DC000DC01CB0188199909AA09BB09883E934017
:101DD000A105B10570F321E0C21AD108E108F108AC
:101DE00088EE880E83E0981EA11CB11CC114D1049A
:101DF000E104F10419F7DDCFFF90EF90DF90CF9071
:101E0000BF90AF909F908F900895BC0180E090E0CC
:101E10000C94CB0E1F920F920FB60F9211242F939A
:101E20003F938F939F93AF93BF9380917A0290914A
:101E30007B02A0917C02B0917D023091850223E06B
:101E4000230F2D3720F40196A11DB11D05C026E8F2
:101E5000230F0296A11DB11D2093850280937A0263
:101E600090937B02A0937C02B0937D0280918602C6
:101E700090918702A0918802B09189020196A11DDC
:101E8000B11D8093860290938702A0938802B0933D
:101E90008902BF91AF919F918F913F912F910F90A8
:101EA0000FBE0F901F9018958FB12CB193B130E0F9
:101EB0002095309520743327A90123E05595479547
:101EC0002A95E1F7292F30E02095309520713327AE
:101ED0003595279535952795242B8095807F822BE6
:101EE000089583B7817F83BF83B7816083BF88955F
:101EF00083B78E7F83BF089560387105D0F4403476
:101F00005105B8F4EEE3F5E180E1849FD001A078BB
:101F10001124A60F4770E40FF11D8491A954BD4F01
:101F2000222319F06C91862B03C080956C91862337
:101F30008C9308952F923F924F925F926F927F926F
:101F40008F929F92AF92BF92CF92DF92EF92FF92C9
:101F50000F931F93CF93DF93CDB7DEB729970FB6BB
:101F6000F894DEBF0FBECDBFFC016A3069F4248D4A
:101F7000808D918D38E0239F800D911D1124918FCC
:101F8000808F178A168AAAC06D3009F4A7C0998776
:101F90008887F48C338C228C608C718C068917892D
:101FA00000381105C4F0A885B9855C962C915C9722
:101FB000422F50E056968D919C915797B6E02B9FFB
:101FC000800D911D1124E885F985978B868B258DD1
:101FD00021116EC083C0F0E46F16710424F7C801AC
:101FE00025E0F29E800D911D112418161906DCF6CD
:101FF0008F2D90E09C838B83C301A8E0FA9E800D17
:10200000911D11241816190674F6B5E06B9FB001E6
:102010001124FB01EA5BFA4EFA83E98330E08885FC
:10202000998504969E838D83E981FA81E490353009
:1020300009F4E12C430188E0482EE0FC02C0532C57
:1020400001C0522C51100BC0321009C0E6944A94C2
:102050008B819C81880E991E4110EFCF1BC06801B7
:102060008C2D801B8F1590F754018A2D88198F15A0
:1020700068F4252DA501B6018D819E813F830E94C4
:102080007C0F9FEFA91AB90A3F81EFCFAFEFCA1AB1
:10209000DA0AE6CF3F5FEB81FC810E0F1F1F8981BB
:1020A0009A8101969A838983363009F0BDCF7BCF20
:1020B0006AEF64039001659F300D112420583F4F53
:1020C000281739075CF4A885B985ED91FC91119723
:1020D0000190F081E02D6AE0CD01099581E090E06A
:1020E00029960FB6F894DEBF0FBECDBFDF91CF911A
:1020F0001F910F91FF90EF90DF90CF90BF90AF9026
:102100009F908F907F906F905F904F903F902F9017
:102110000895CF93DF93DC0181E090E017969C93C4
:102120008E93169784E690E05D969C938E935C97D1
:1021300080E090E020E030E04AE061E772E0265F76
:102140003F4F85309105A0F4489FF001499FF00D65
:102150001124EA0FFB1FB896EF01542F19925A95DC
:10216000E9F7FD01E20FF31F75A364A30196E7CF22
:102170008AE0FD017E96989601900D928A95E1F78E
:10218000DF91CF9108950F9300E420E84EE351E1F1
:1021900060E070E080E090E00E94801B0F91089565
:1021A00021E030E04BE750E061E070E083E090E058
:1021B0000E94B51C2FE330E04BE750E06FE370E086
:1021C00083E090E00E94B51C2CE330E041E050E059
:1021D00064E070E081E090E00E94B51C2CE330E008
:1021E0004EE750E064E070E08EE790E00E94B51C9E
:1021F00021E030E041E050E064E070E083E090E016
:102200000E94B51C21E030E04EE750E064E070E051
:102210008CE790E00E94B51C2FE330E04EE750E0E1
:102220006CE370E08CE790E00E94B51C2FE330E097
:1022300041E050E06CE370E083E090E00C94B51C6A
:102240000F931F93CF93DF9381EC80937C0085B134
:10225000806F85B9249884B1866E84B95E9A5F9840
:102260008AB1806D8AB9769A6E9881B3806F81BB8E
:10227000899880B38D7080BB80E58CBD81E08DBD79
:1022800085E090E00E94050F5F9A85E090E00E9453
:10229000050F5E985C98CCE2D1E11C2F135FFE0124
:1022A00084910E94BE0E21961C13F9CF5C9A81E89E
:1022B0008093640081E080936500C0E0D4E080E01A
:1022C0000E94BE0E2197D9F70E94540F87FF1FC0AE
:1022D0005C9885EA0E94BE0E5C9A2E982F982D98E5
:1022E000809164008062809364000E94710FFDCF32
:1022F0002D980E94540F8478843871F00E94540FF6
:102300008471843131F188EC90E00E94050F0E94C5
:10231000540F82FDEDCF3AC00E94BC0E88EC90E0D5
:102320000E94050F2F9882E090E00E945F298F3F66
:1023300029F06FEF82E090E00E94672984EF91E03E
:102340000E94050F2F9A0E94540F84788438D9F385
:10235000D5CF0E94BC0E88EC90E00E94050F2E980D
:1023600082E090E00E945F29882329F060E082E00B
:1023700090E00E94672984EF91E00E94050F2E9A59
:102380000E94540F84718431D9F3BDCF0E94BC0EDA
:1023900082E090E00E945F29882331F03E9A3F9AC4
:1023A00081E08093840204C0109284023E983F989A
:1023B0002E98CEEEDFEF0E94540F86FF04C02E9AB7
:1023C0002F9A2D9A39C0CC3F8FEFD80719F42E9A47
:1023D0002F9805C0C831D10511F42F9A2D980E946D
:1023E0007F1C00E128E54CE750E1BE0184E190E06C
:1023F0000E94801B0E943A1D8BE190E00E94050F15
:10240000C03FEFEFDE0721F48AEF90E00E94050F56
:102410002196C931D10579F68CEB92E00E94050F27
:102420000E94BC0EE0913107F09132070190F081DB
:10243000E02D81E397E0099582E390E00E94050F8B
:102440000E94540F8111F8CF81E280933807809168
:1024500064008E7F8093640080917A008064809312
:102460007A0080917A0086FDFCCFC0917800D091EF
:1024700079000E94970E8E0120E030E0980111272C
:102480000027600F711F821F931F61157105810561
:10249000910511F00E94562980916400816080931B
:1024A000640010929A0210929902DF91CF911F91CD
:1024B0000F910C948C1C8F929F92AF92BF92CF92EF
:1024C000DF92EF92FF92CF93DF93EB01FC016681E5
:1024D000778180E090E00E947B2A6B017C01CE0135
:1024E000880F991FBC0180E090E00E947B2A4B017D
:1024F0005C01A7019601C701B6010E94092B20E0EB
:1025000030E040E05FE30E94092B9B01AC01C50174
:10251000B4010E94092B20E030E040E050E40E942A
:10252000D82920E030E040E05FE30E94092B20E062
:1025300030E040E85FE30E94D9290E94452ACB01A0
:10254000DF91CF91FF90EF90DF90CF90BF90AF9051
:102550009F908F9008950F931F93CF93DF93CDE2B9
:10256000D7E083E490E09F8B8E8B84E290E0998F9C
:10257000888F03ED16E0F801828193810E94CC1DC3
:102580008CE391E10E945F1BF80162897389C801A5
:102590000E945B120E94CC1D89E391E10E945F1BA7
:1025A000F8014481558104E124E166E070E084E6AD
:1025B00090E00E94801B1F8A1E8A02E310E0198FA0
:1025C000088F20E330E04AE750E060E370E083E406
:1025D00090E00E94B51C2AE330E04AE750E06AE34D
:1025E00070E083E490E00E94B51C2AE330E043E40D
:1025F00050E060E370E083E490E00E94B51C2AE3C1
:1026000030E04AE750E060E370E08AE790E00E9443
:10261000B51C86E490E09F8B8E8B198F088FDF911D
:10262000CF911F910F910895CF92DF92EF92FF9279
:102630000F931F93CF93DF93CDB7DEB78C016F8DD0
:1026400078A1CE010B960E945B126C01F801E28426
:10265000F3842B893C89E20EF31E66897789C801D1
:102660000E945B12E82F492F2FA138A5E21AF30A26
:10267000C60163E070E00E94762B6E0D7F1D2E2F49
:10268000342F37FF02C02F5F3F4F35952795621BD0
:10269000730BF80182819381161617061CF4861BB2
:1026A000970B02C00197F80193838283DF91CF914A
:1026B0001F910F91FF90EF90DF90CF9008950F93AF
:1026C0001F93CF93DF938C01EB014115510509F066
:1026D0006AC02130310529F56E897F89CE010E94BB
:1026E0005B129F938F934DB75EB74C5151090FB654
:1026F000F8945EBF0FBE4DBFADB7BEB711968CE16B
:10270000F80101900D928A95E1F7CE010E94141311
:102710008DB79EB74E960FB6F8949EBF0FBE8DBF75
:1027200061C0232B01F51F921F92EDB7FEB77C9776
:102730000FB6F894FEBF0FBEEDBFADB7BEB7119692
:102740008CE1F80101900D928A95E1F7CB010E948E
:1027500014134DB75EB7425E5F4F0FB6F8945EBF7D
:102760000FBE4DBF3FC01F9282E08F938DB79EB7C3
:102770004C970FB6F8949EBF0FBE8DBFADB7BEB7D6
:1027800011968CE1F80101900D928A95E1F7CB0149
:102790000E941413EDB7FEB77E960FB6F894FEBFF5
:1027A0000FBEEDBF1FC04130510529F45093A00268
:1027B00040939F0217C042305105A1F4FC01628D85
:1027C000738DCE010E945B122C853D85820F931F75
:1027D000181619063CF42A813B81A901481B590BA4
:1027E0005B834A83DF91CF911F910F910895CF931F
:1027F000DF931F92CDB7DEB76983DC01ED91FC91C9
:102800000280F381E02D41E050E0BE016F5F7F4F19
:1028100009950F90DF91CF91089583E08093E900AF
:102820008091F200882319F08AE38093E8000895EC
:10283000FC018485958597FD0BC09FB7F89482E0D5
:102840008093E9008091F2009FBF90E00196089587
:102850009FB7F89482E08093E9008091F2009FBFD7
:1028600090E008958F929F92AF92BF92CF92DF92A5
:10287000EF92FF920F931F93CF93DF935C016B0155
:102880007A0180910B01882309F45BC08091930247
:10289000882309F456C08091900280FF05C0809182
:1028A000E00082608093E000E70110E00AEF83E03F
:1028B000882E9AE3992E2097D9F10E942F1B81111F
:1028C0000AC0015009F43DC061E070E080E090E092
:1028D0000E94CB0EF0CF282F30E0C217D3070CF4A4
:1028E0008C2F4FB7F8948092E9009091E80095FF03
:1028F0001DC0282F30E0C21BD30BF601982F91503A
:1029000020F081918093F100FACFC20ED31E1123E3
:1029100019F09092E80009C08091E80085FD06C09A
:102920009092E80011E0209709F010E04FBFC3CF6C
:102930001111C3CF5D9884E6809391021E141F0489
:1029400044F081E090E0F5019383828380E090E0A1
:1029500001C0C701DF91CF911F910F91FF90EF90C0
:10296000DF90CF90BF90AF909F908F9008950E947E
:102970002F1B90E00895CF93DF931F92CDB7DEB762
:10298000FC018485958597FD05C02FEF3FEF3587C6
:1029900024870BC0CE0101960E94051B019719F4F4
:1029A000898190E002C08FEF9FEF0F90DF91CF9170
:1029B00008950F931F93CF93DF931F92CDB7DEB788
:1029C0008C01FC018485958597FF0EC0CE01019690
:1029D0000E94051B019719F4298130E002C02FEFF6
:1029E0003FEFF80135872487F801848595850F909E
:1029F000DF91CF911F910F910895DF92EF92FF9297
:102A00000F931F93CF93DF93D82E8A017B01E40E9F
:102A1000F51EEB01CE15DF0571F0D7FE03C0FE01F8
:102A2000849101C088810E94D61D21968111F2CF28
:102A30008FEF9FEF01C0C801DF91CF911F910F91E0
:102A4000FF90EF90DF9008950F931F93CF93DF9344
:102A50001F92CDB7DEB782E0898342E450E066E49E
:102A60007AE180E80E94FD140E94401BDC0112966E
:102A70000D911C9113970115110569F0D801ED9185
:102A8000FC910280F381E02DBE016F5F7F4FC80192
:102A9000099597FF07C089810F90DF91CF911F9112
:102AA0000F910895F80100851185E5CF1F920F92CF
:102AB0000FB60F9211248F939F938091E100909114
:102AC000E100937F9093E10083FF0FC01092E90033
:102AD00091E09093EB001092EC0092E39093ED0064
:102AE0001092930298E09093F00082FF20C093E050
:102AF0009093E9009091F200992319F09AE3909352
:102B0000E80090919102992339F0909191029150AF
:102B100090939102992389F190919202992339F02F
:102B200090919202915090939202992341F184FFE7
:102B300010C08091E2008E7E81608093E2008091DF
:102B4000E1008F7E8093E100809190028E7E806113
:102B500011C080FF16C08091E2008E7E806180935C
:102B6000E2008091E1008E7E8093E10080919002EE
:102B70008E7E81608093900204C05D9ACDCF289AAA
:102B8000D6CF9F918F910F900FBE0F901F901895E9
:102B90001F920F920FB60F921124CF92DF92EF92F5
:102BA000FF920F931F932F933F934F935F936F93D6
:102BB0007F938F939F93AF93BF93EF93FF93CF93A5
:102BC000DF93CDB7DEB76C97DEBFCDBF1092E900C3
:102BD0008091E80083FFEDC168E0CE0145960E9438
:102BE000041E82EF8093E8008D8987FF05C09091D5
:102BF000E80090FFFCCF03C09EEF9093E800982F71
:102C0000907609F0C6C09E892F89188D91110CC04D
:102C1000803829F480918F028093F10002C01092D5
:102C2000F1001092F10048C1422F50E0512B913039
:102C300051F4811141C14130510509F03DC18091EC
:102C40008F028D7F0BC0933061F4811135C141300B
:102C5000510509F031C180918F02826080938F020B
:102C60002BC1953041F48091E80080FFFCCF2068B3
:102C70002093E30021C1963009F05FC0EB8CFC8CFF
:102C80001092E90010928D0210928C02123091F590
:102C900010928B0210928A020E94241599E0BE01C4
:102CA0006F5F7F4FDB01E92F1D92EA95E9F799836A
:102CB0001A8391E09E8390EA98879AEF99872091F2
:102CC0008C0230918D02275F3F4F3C832B838D8395
:102CD0001092E90010928D0210928C02F0928B02F9
:102CE000E0928A0249E050E080E00E94FD140E94D8
:102CF0002415E2C0F0928B02E0928A020E94401BEF
:102D0000DC011296ED90FC901397E114F10409F4A4
:102D1000C0C0D701ED91FC910480F581E02DBE018A
:102D20006B5E7F4FC7010995009719F00CF0C4C086
:102D3000C7C0F701E084F184E8CF973009F4C0C040
:102D4000983021F481E08093F100B6C0993009F009
:102D5000B3C0837009F0B4C0EBEAF1E081E021E098
:102D600036E39081992361F08093E9002093EB0092
:102D700091919093EC003093ED008F5F873089F74D
:102D80008EE78093EA001092EA008F898093930285
:102D900093C08B8D9C8D1092E90010928D02109241
:102DA0008C0290938B0280938A02898D811156C088
:102DB0008E899D89913A59F4813209F081C047E0AA
:102DC00050E064E071E080E00E94FD1475C0913233
:102DD00009F076C0833289F4888D90E0982F882797
:102DE0002F89822BA0E0B0E0809300019093010135
:102DF000A0930201B09303015FC0803269F4809117
:102E0000E80082FFFCCF67E084E091E00E94041EAE
:102E10008BEF8093E80006C0823209F04DC08F89A5
:102E200080930B0180918E02882319F0EEEFFAE077
:102E300002C0E0E0F8E08091040190910501A091CA
:102E40000601B0910701803B9440A105B10509F04E
:102E50007BC080910B0180FF93C076C00E94401B15
:102E6000DC0112960D911C9113970115110541F18A
:102E7000D801ED91FC910190F081E02DBE016B5ED7
:102E80007F4FC8010995811117C0F8010085118590
:102E9000ECCF113009F44EC0133091F48F898823A0
:102EA00009F445C0823081F440E867E08AEA9AE19B
:102EB0000E942728882321F08EEF8093E80079C0B4
:102EC00081E28093EB0075C0813029F440E86BE02B
:102ED0008EE99AE1EDCF833099F70E94401BDC0127
:102EE0001296ED90FC9013978E010F5F1F4F6801B3
:102EF000E114F10479F0D701ED91FC910680F7819E
:102F0000E02DB801C7010995080F111DF701E084F4
:102F1000F184EECFD8011C92F60101900020E9F770
:102F20003197BF016C197D0940E0C601C1CF68E847
:102F30007AE102C06CE87AE16115710509F2FB01E2
:102F4000449150E080E840CF0FB6F894A895809166
:102F50006000886180936000109260000FBEA895A9
:102F6000EE3F2AE0F20739F08091FE0A9091FF0AC5
:102F700091838083A1CF1092FF0A1092FE0A9CCF0A
:102F8000EE3F8AE0F80731F0808191819093FF0A4B
:102F90008093FE0A87E797E7918380839BE088E12F
:102FA0000FB6F894A895809360000FBE90936000D0
:102FB00083CF6C960FB6F894DEBF0FBECDBFDF9106
:102FC000CF91FF91EF91BF91AF919F918F917F91A1
:102FD0006F915F914F913F912F911F910F91FF90B2
:102FE000EF90DF90CF900F900FBE0F901F9018952D
:102FF000CF92DF92EF92FF920F931F93CF93DF93C5
:103000008091D5069091D606181619060CF032C29A
:103010008091B9069091BA06181619060CF0AEC147
:103020000E948C1CC6E0D0E0D0934407C0934307B5
:1030300094E0C92ED12CD0924607C09245078091CA
:10304000B7069091B8060E94951CD0934407C09390
:1030500043072EE0E22EF12CF0924607E09245075E
:103060008DE79CE10E945F1B8091B9069091BA06A2
:103070000E94B41D00E228E34DE95BE16BE170E0E2
:1030800085E090E00E94801B4091BB065091BC06F9
:1030900004E124E16DE170E086E190E00E94801B94
:1030A0000E94C3100E94AB1280919F029091A002D7
:1030B000009709F0E9C08091B5029091B60200979F
:1030C00009F073C01092B40280919D0290919E020B
:1030D000039724F010929E0210929D0280919D020F
:1030E00090919E0297FF06C082E090E090939E022E
:1030F00080939D0280919D0290919E028130910566
:1031000041F08230910541F0892B51F486E99BE131
:1031100005C08FE89BE102C087E89BE10E945F1B2E
:1031200088E00E94541B8823E1F080919B029091DB
:103130009C02892BB1F421E030E030939C02209373
:103140009B0280919D0290919E028130910509F031
:103150001BC29093B3028093B2029093B602809305
:10316000B5020E94F32863E070E00E94762B813064
:10317000910579F048F08230910509F01DC29093D5
:10318000B1028093B0020EC01092B1021092B00250
:1031900009C09093B1028093B0029093AF028093E4
:1031A000AE020AC281E090E0F8CF019709F004C2B4
:1031B0008091AE029091AF02019709F0FDC160913C
:1031C000EB067091EC0683ED96E00E945B12EC0139
:1031D0006091CF067091D00687EB96E00E945B125B
:1031E0008C179D0724F481E08093AD0202C01092F9
:1031F000AD029091AD028091B4029923C9F0811182
:10320000DBC1C091B002D091B1020091B202109125
:10321000B3029E01A80167EB76E083ED96E00E9481
:103220005F139801AE0163ED76E087EB96E018C07E
:103230008111C2C1C091B202D091B3020091B0021B
:103240001091B1029E01A80163ED76E087EB96E054
:103250000E945F139801AE0167EB76E083ED96E084
:103260000E945F1381E090E090939C0280939B0208
:1032700021E02093B4021092B6021092B50290930E
:10328000A00280939F0298C1019709F095C10E9406
:103290008C1C0E94C3100E94AB1286E490E09093B5
:1032A00044078093430782E390E09093460780931E
:1032B00045078EE79BE10E945F1BD0934407C093B4
:1032C0004307D0924607C09245078091B002909183
:1032D000B1028130910579F486E79BE10E94A71C39
:1032E000D0934407C0934307F0924607E092450706
:1032F0008DE69BE12DC0892B79F485E69BE10E9448
:10330000A71CD0934407C0934307F0924607E0926E
:1033100045078CE59BE11CC084E59BE10E94A71C4E
:10332000D0934407C0934307F0924607E0924507C5
:103330008EE49BE10E94A71CD0934407C0934307EF
:1033400088E190E0909346078093450788E49BE1ED
:103350000E94A71C88E00E94541B882309F42CC1FA
:1033600080919B0290919C02892B09F025C181E0FC
:1033700090E090939C0280939B021AC10E948C1C47
:103380000E94D01008E210E0109344070093430716
:1033900084E190E0909346078093450780E49BE1A9
:1033A0000E94A71C83E2E82EF12CF0924407E092E1
:1033B0004307CEE1D0E0D0934607C093450783E3AF
:1033C0009BE10E94A71CF0924407E09243071093F0
:1033D00046070093450785E29BE10E94A71CD09316
:1033E0004407C093430782E390E09093460780939D
:1033F000450781E19BE10E94A71C84E00E94541BC9
:10340000882309F4D5C082E090E090939A028093DB
:103410009902109298028091EF069091F006029620
:103420009093F0068093EF06809196029091970218
:10343000019709F0BDC08091940290919502019688
:1034400090939502809394028091D9069091DA0628
:1034500001969093DA068093D9068091E5069091C3
:10346000E6069093D6068093D506109297021092A6
:1034700096029EC00E948C1C0E94D010C8E2D0E030
:10348000D0934407C093430784E190E090934607AC
:103490008093450781E09BE10E94A71CD0934407DD
:1034A000C09343078EE190E09093460780934507D1
:1034B0008DEE9AE10E94A71C8091EF069091F00694
:1034C00018161906ECF083E290E09093440780937D
:1034D0004307D0934607C093450787ED9AE10E94C2
:1034E000A71CD0934407C093430782E390E09093D6
:1034F00046078093450786EC9AE10E94A71C0EC000
:1035000083E290E09093440780934307D09346076B
:10351000C093450782EB9AE10E945F1B84E00E9402
:10352000541B882309F444C082E090E090939A02EF
:1035300080939902109298026091E5067091E606D8
:1035400083ED96E00E945B129093D6068093D50699
:103550008091960290919702019789F410929702B8
:10356000109296028091EF069091F00682309105BC
:10357000FCF002979093F0068093EF0619C010922A
:10358000F0061092EF0614C08230910549F4909332
:10359000B3028093B2023093B6022093B502E1CD1C
:1035A000892B09F0DECD1092B3021092B202F3CF54
:1035B0001092A00210929F02DF91CF911F910F9164
:1035C000FF90EF90DF90CF900895CF93DF93BC01F1
:1035D00080E090E04AE00E944C1DEC0187E792E019
:1035E0000E94951C8C0F9D1FDF91CF910895CF9362
:1035F000DF930E94951CEC0187E792E00E94951CE6
:103600008C0F9D1FDF91CF910895FC018091930253
:10361000811103C08FEF9FEF08959FB7F89482E068
:103620008093E9002091F20030E01216130614F4A2
:1036300021E030E02115310559F0289884E6809387
:1036400092028091F10080838091F200882319F02A
:103650009FBFC90108958BE68093E800F9CF2FB78B
:10366000F89483E08093E9009091E800892F8072BC
:1036700095FF04C09091F20080E4891B2FBF08954C
:103680008091A50281110DC082E08093A10284E0A7
:103690008093A2021092A4021092A30281E0809370
:1036A000A50281EA92E0089520913707282329F4A2
:1036B00090913607982381E009F480E008950F93F4
:1036C0001F93CF93DF938C01C0E0D0E0F801EC0FA3
:1036D000FD1F6491662371F0E0912D07F0912E0794
:1036E0000190F081E02D8DE297E00995892B11F092
:1036F0002196ECCFCE01DF91CF911F910F910895CC
:103700002F923F924F925F926F927F928F929F92F1
:10371000AF92BF92CF92DF92EF92FF920F931F93DF
:10372000CF93DF93CDB7DEB728970FB6F894DEBFFF
:103730000FBECDBF5A01822E912C9C01280D391D40
:1037400037FDC4C0803891050CF0C0C09B01200F2C
:10375000311D37FDBBC0603471050CF0B7C0AB0143
:1037600077FF04C044275527461B570B4770552742
:103770009B0177FF02C0295F3F4FE3E03595279516
:10378000EA95E1F777FF08C02150310968E070E061
:10379000DB01A41BB50BAD01602F669566956695A0
:1037A00070E0077011F06F5F7F4FDB01A20FB31F56
:1037B000BA83A98339017694762C6624779467942A
:1037C000680E791EE12CF12C00E010E02301B0E836
:1037D0004B0E511C68E070E0DB01A41BB50BBC83F1
:1037E000AB8369817A812617370709F46FC02830C7
:1037F000310509F46BC02F3FBFEF3B070CF45BC0F2
:10380000B201600F711FDB01A954BD4FBE83AD83B0
:10381000D801A60DB71DA954BD4F6C0160E070E042
:10382000681579050CF047C0E0E8CE16D10409F41C
:1038300042C0D7FC34C02F3FFFEF3F0709F442C01E
:10384000FB01EE0DFF1DEA0DFB1DE491042E01C0EE
:10385000EE0F0A94EAF73C90E329EC9341155105E9
:10386000F1F027303105D9F0FB01EE0DFF1DEA0D17
:10387000FB1DE4912E2E312CF1010B8002C0F59539
:10388000E7950A94E2F7F887EF83ED81FE813080B7
:10389000EF81F885E3291F01ED81FE8120826F5FB2
:1038A0007F4FED81FE813196FE83ED83FFEFCF1ACE
:1038B000DF0A1196B5CF2F5F3F4F00581F4FE80C1E
:1038C000F91C8FCF4115510579F6E9CF28960FB62F
:1038D000F894DEBF0FBECDBFDF91CF911F910F9146
:1038E000FF90EF90DF90CF90BF90AF909F908F9020
:1038F0007F906F905F904F903F902F90089580E061
:10390000E7EBF2E081118FEF0024819381938193A3
:1039100081930394D1F708950E947F1CEDE2F7E0B4
:10392000118E108E178A168A0895009769F0FC018F
:1039300001900020E9F73197AF01481B590BBC01FA
:103940008DE297E00C946C0E80E090E00895CF93A8
:10395000DF930E945F1BEC0187E792E00E94951CB9
:103960008C0F9D1FDF91CF9108955F926F927F9290
:103970008F929F92AF92BF92CF92DF92EF92FF927F
:103980000F931F93CF93DF93EC018B017A01A90171
:10399000461B570B57FF03C0519541955109C7016D
:1039A0008C1B9D0B97FF03C0919581959109552420
:1039B00053948417950714F0512C0AC09E2D8F2D17
:1039C0007901292F382F9C2F8D2FE801092F182FCF
:1039D000EC16FD0654F4902F812F8901292F382FE2
:1039E0009C2F8D2FE701E92EF82E37016C1A7D0AE6
:1039F0005901A01AB10AB7FE03C0B194A194B1084D
:103A0000630177FE03C08FEFC81AD80AD594C79414
:103A10000217130714F08FEF01C081E0882E880F82
:103A20009908EC16FD06B4F021E0552019F0AE011E
:103A3000B80102C0A801BE0181E397E00E947C0F9B
:103A4000CA18DB08D7FE04C0080D191DC60CD71C08
:103A50002196E7CFDF91CF911F910F91FF90EF90CB
:103A6000DF90CF90BF90AF909F908F907F906F909E
:103A70005F9008958091B7028EBDE8EBF2E08191EE
:103A80000DB407FEFDCF8EBD86E0E73BF807B9F722
:103A90000DB407FEFDCF08958F929F92AF92BF9213
:103AA0000F931F93CF93DF93CDB7DEB7A1970FB6D8
:103AB000F894DEBF0FBECDBF19A2423008F44AE031
:103AC0008E010F5D1F4F842E912CA12CB12CA501CE
:103AD00094010E94A729E62FB901CA0101501109DA
:103AE000EA3014F4E05D01C0E95CD801EC93232BCB
:103AF000242B252B61F7C8010E94951CA1960FB6B7
:103B0000F894DEBF0FBECDBFDF91CF911F910F9113
:103B1000BF90AF909F908F900895CF92DF92EF92D9
:103B2000FF92CF93DF936B017C01E0912D07F09121
:103B30002E070190F081E02D6DE28DE297E009956E
:103B4000EC0166277727CB016C197D098E099F0947
:103B50004AE00E944C1D8C0F9D1FDF91CF91FF907A
:103B6000EF90DF90CF900895CF93DF93BC01990F32
:103B7000880B990B97FF03C00E948D1D03C04AE07C
:103B80000E944C1DEC0187E792E00E94951C8C0F6F
:103B90009D1FDF91CF910895BC01990F880B990B60
:103BA00097FD0C948D1D4AE00C944C1D40918C02A5
:103BB00050918D0220918A0230918B024217530757
:103BC000B4F49091E8009570E1F39091E80092FDD3
:103BD00019C08093F10080918C0290918D02019622
:103BE0008F739927892B19F48EEF8093E8008091C9
:103BF0008C0290918D02019690938D0280938C029D
:103C000081E0089580E00895615030F02091F10046
:103C1000FC0120830196F8CF289884E680939202D5
:103C20000895CF93DF93CDB7DEB7C858D1090FB64B
:103C3000F894DEBF0FBECDBF789484B5826084BD9A
:103C400084B5816084BD85B5826085BD85B58160A0
:103C500085BD80916E00816080936E00109281001E
:103C600080918100826080938100809181008160D9
:103C7000809381008091800081608093800080919A
:103C80009100826080939100809191008160809387
:103C90009100809190008160809390008091C1009C
:103CA00084608093C1008091C10082608093C100D4
:103CB0008091C10081608093C1008091C3008160C8
:103CC0008093C3008091C00082608093C000809187
:103CD000C20081608093C20080917A0084608093EA
:103CE0007A0080917A00826080937A0080917A00D5
:103CF000816080937A0080917A00806880937A0056
:103D00001092930210928F02109290028091D7002D
:103D100081608093D70080EA8093D80089B5806164
:103D200089BD89B5826089BD09B400FEFDCF61E01F
:103D300070E080E090E00E94CB0E8091D8008F7CF4
:103D400080618093D8008091E000807F8093E000C4
:103D50008091E1008E7E8093E1008DE08093E2000F
:103D6000559A209AEEEFFFE7859194918B3F9C4DF9
:103D700019F481E080938E020E9420113CEB232EE7
:103D800030E0332EA1015527CD57DF4F59834883AB
:103D9000C358D04048EF442E40E0542EC20199272A
:103DA000CB57DF4F99838883C558D04052E2C52E48
:103DB00056E0D52E7601FF2460E7A62E6BE0B62EE6
:103DC000D501BB27C957DF4FB983A883C758D04057
:103DD0002FB7F89480917A0290917B02A0917C0297
:103DE000B0917D022FBF40913D0750913E076091F9
:103DF0003F077091400720914107222341F0209115
:103E00003907821B80934207109241076DC78417C0
:103E10009507A607B70738F4481B423008F464C773
:103E20000E94710F61C721E02093410780933907F9
:103E300090933A07A0933B07B0933C072091380733
:103E4000820F911DA11DB11D80933D0790933E07E8
:103E5000A0933F07B09340078091340790913507B6
:103E600001969093350780933407809136078093AD
:103E700037070E94540F8093360780E80E94541B36
:103E8000882349F080919D0290919E020197909322
:103E90009E0280939D0280E10E94541B882349F07A
:103EA00080919D0290919E02019690939E02809334
:103EB0009D020E94540F83FD04C010929C02109238
:103EC0009B02E0919902F0919A02E830F10508F026
:103ED00009C7EA5AFF4F0C948A2B0E948C1C00E4FD
:103EE00020E84CE75CE060E070E080E090E00E9459
:103EF000801B89E190E090934407809343071092E0
:103F00004607109245078DE69CE00E945F1B84E007
:103F10000E94541B882309F4E5C681E090E0909349
:103F20009A028093990210929E0210929D02DAC624
:103F3000CE0101960E9489108AE5FE013196A3ED1B
:103F4000B6E001900D928A95E1F70E948C1C0E94C8
:103F5000D01004E010E0109344070093430783E07F
:103F600090E090934607809345078CE59CE00E9483
:103F70005F1B8AE59CE00E945F1B2DE030E04FE76D
:103F800050E06DE070E081E090E00E94B51C10937D
:103F90004407009343078FE090E090934607809397
:103FA000450780919D0290919E02039724F0109204
:103FB0009E0210929D0280919D0290919E0297FF19
:103FC00006C082E090E090939E0280939D028091D3
:103FD0009D0290919E028130910519F182309105E8
:103FE000E9F1892B09F058C082E59CE00E94A71CEA
:103FF00004E124E146E15CE068E270E084E090E006
:104000000E94801B84E090E09093440780934307D4
:1040100089E190E0909346078093450788E09CE013
:1040200039C083E09CE00E94A71C04E124E147EC36
:104030005BE068E270E084E090E00E94801B84E036
:1040400090E0909344078093430789E190E0909338
:1040500046078093450781EB9BE01CC08CEA9BE000
:104060000E945F1B04E124E140E75BE068E270E04E
:1040700084E090E00E94801B84E090E090934407ED
:104080008093430789E190E090934607809345072A
:1040900081E69BE00E945F1B0E94540F83FF22C6B3
:1040A00080919B0290919C02892B09F425C61AC627
:1040B0000E948C1C109244071092430710924607EE
:1040C0001092450700E420E84DEA56E060E070E019
:1040D00080E090E00E94801B80919D0290919E0262
:1040E000059724F010929E0210929D0280919D02ED
:1040F00090919E0297FF06C084E090E090939E020C
:1041000080939D0209E010E0109344070093430759
:1041100084E090E0909346078093450787EA96E015
:104120000E945F1B10934407009343078EE090E0CA
:1041300090934607809345078091D5069091D606C7
:104140001816190624F480EA96E00E945F1B09E025
:1041500010E0109344070093430788E190E09093A8
:104160004607809345078AE996E00E945F1B1093FB
:1041700044070093430782E290E0909346078093C0
:1041800045078091940290919502039718F489E86D
:1041900096E002C08EE696E00E945F1B89E090E008
:1041A00090934407809343070CE210E01093460776
:1041B0000093450788E696E00E945F1B80919D0270
:1041C00090919E0282309105B9F1A4F4009729F1F3
:1041D000019709F055C083E090E0909344078093E5
:1041E00043078EE090E0909346078093450784E66E
:1041F00096E044C08330910571F1049709F040C006
:1042000083E090E090934407809343071093460720
:10421000009345078EE596E031C083E090E09093EF
:1042200044078093430784E090E09093460780938F
:10423000450786E696E022C083E090E0909344072D
:104240008093430788E190E0909346078093450769
:1042500082E696E013C020919402309195022330BB
:10426000310570F4909344078093430782E290E015
:10427000909346078093450780E696E00E945F1B77
:104280000E94540F83FF2EC580919B0290919C0247
:10429000892B09F4B9C526C5809198028111B5C052
:1042A0000E948C1C0E94F32863E070E00E94762B31
:1042B00081309105B9F18230910509F465C0892BEF
:1042C00009F097C08AE0E4E1F1E0DE01AB59BF4FAD
:1042D00001900D928A95E1F7A7966EAD7FADA797F5
:1042E00081E090E098878F838FEE91E09A838983B5
:1042F000CE0101960E945B129C838B83FE82ED822D
:104300008CE1FE013196A7EBB6E001900D928A9503
:10431000E1F785EF91E09093B8068093B70686E1C8
:104320009CE02DC02AE0EEE1F1E0DE01A159BF4F93
:1043300001900D922A95E1F7E1966EAD7FADE19780
:1043400098878F838FEE91E09A838983CE010196BF
:104350000E945B129C838B83FE82ED828CE1FE01C6
:104360003196A7EBB6E001900D928A95E1F78FEDBB
:1043700091E09093B8068093B70687EC9BE090930A
:10438000BC068093BB0635C08AE0E8E2F1E0DE01BE
:10439000A758BF4F01900D928A95E1F7EB966EAD4D
:1043A0007FADEB9781E090E098878F830DEF11E070
:1043B0001A830983CE0101960E945B129C838B8332
:1043C000C957DF4F88819981C758D0409E838D831C
:1043D0008CE1FE013196A7EBB6E001900D928A9533
:1043E000E1F71093B8060093B706B092BC06A0920E
:1043F000BB0681E090E09093BE068093BD0680935B
:10440000980210929E0210929D020E94F8176AC4B0
:104410000E948C1C1092440710924307109246078A
:104420001092450780E196E00E945F1B2AE030E091
:1044300042E850E06AE070E080E090E00E94B51C45
:104440000E94540F82FF06C082E090E090939A028F
:10445000809399028091800290918102892B09F0CA
:104460003DC180919D0290919E02029724F010928E
:104470009E0210929D0280919D0290919E0297FF54
:1044800006C081E090E090939E0280939D0280910F
:104490009D0290919E02009709F0BBC010924407C4
:1044A000109243072CE0822E912C90924607809226
:1044B00045078091D3069091D4060E94F71A809107
:1044C000D5069091D6060E94CC1D82E092E00E9413
:1044D000951C6091E5067091E60683ED96E00E94DA
:1044E0005B120E94CC1D8CED95E00E94A71C82ED12
:1044F00095E00E945F1B6091E7067091E80683EDEE
:1045000096E00E945B122091F1063091F206820F34
:10451000931F0E94E51A89EC95E00E945F1B609151
:10452000E9067091EA0683ED96E00E945B12209105
:10453000F3063091F406820F931F0E94E51A82EC75
:1045400095E00E945F1B6091EB067091EC0683ED95
:1045500096E00E945B120E94B41D8BEB95E00E94D6
:104560005F1B6091ED067091EE0683ED96E00E9470
:104570005B122091F5063091F606820F931F0E9480
:10458000E51A0BE410E01093440700934307909260
:1045900046078092450786EB95E00E945F1B60917D
:1045A000D9067091DA0680E090E04AE00E944C1D46
:1045B000109344070093430784E190E090934607EB
:1045C000809345078091F7069091F8060E94F71AAC
:1045D00010934407009343078CE190E090934607C3
:1045E000809345078FEA95E00E945F1B8091EF065C
:1045F0009091F0060E94CC1D4091D7065091D806AC
:1046000004E124E168E270E084E690E00E94801B0F
:1046100057C0019709F054C00E948C1C10924407A7
:1046200010924307109246071092450781EE95E0DD
:104630000E945F1B2AE030E042E850E06AE070E050
:1046400080E090E00E94B51C10924407109243074E
:104650008CE090E090934607809345070BEF16E0BF
:10466000D80116968D919C9117970E94951C8BEA04
:1046700095E00E945F1BF8016081718180E090E00D
:104680004AE00E944C1D87EA95E00E945F1BD8011A
:1046900012966D917C91139780E090E04AE00E9421
:1046A0004C1D83EA95E00E945F1BF801848195818F
:1046B0000E94E51A065F1F4FF7E00D321F0781F6D3
:1046C0000E94540F86FF0AC081E090E0909381021F
:1046D0008093800210929E0210929D02809180022F
:1046E00090918102019709F0FDC20E948C1C1092EA
:1046F000440710924307109246071092450788E03E
:1047000096E00E945F1B2AE030E042E850E06AE059
:1047100070E080E090E00E94B51C10924407109277
:1047200043078CE090E0909346078093450782EF23
:1047300095E00E94A71C80919D0290919E02059792
:1047400024F010929E0210929D0280919D02909101
:104750009E0297FF06C084E090E090939E028093B3
:104760009D0280919D0290919E021AE0189FF00197
:10477000199FF00D1124ED52F94F86A597A50E94BF
:10478000951C0E94540F83FF07C080919B0290915B
:104790009C02892B09F47CC30E94540F85FFA2C29E
:1047A00010928102109280029DC20E948C1C00E433
:1047B00020E843EA51E060E070E080E090E00E9491
:1047C000801B88E090E0909344078093430789E240
:1047D00090E0909346078093450786E092E00E9420
:1047E000951C85E090E0909344078093430786E30F
:1047F00090E090934607809345070E94540F82FFF4
:104800000AC082E090E090939A02809399021092FD
:104810009E0210929D028091820290918302892BC8
:1048200009F053C080919D0290919E02029724F05E
:1048300010929E0210929D0280919D0290919E0284
:1048400097FF06C081E090E090939E0280939D02C6
:1048500080919D0290919E02009719F0019721F09E
:1048600019C080E991E014C00091D5061091D606D8
:104870006091E5067091E60683ED96E00E945B127A
:10488000081719071CF483E891E002C081E791E062
:104890000E945F1B0E94540F83FF17C080919B02F0
:1048A00090919C02892B89F421E030E030939C02A6
:1048B00020939B0280919D0290919E02009709F0A7
:1048C00015C33093830220938202809182029091DB
:1048D0008302019709F0AAC080919D0290919E02E7
:1048E000069724F010929E0210929D0280919D02E4
:1048F00090919E0297FF06C085E090E090939E0203
:1049000080939D020E948C1C88E0682E712C70920E
:1049100044076092430799E2892E912C90924607B2
:10492000809245078EE591E00E94A71C00E420E8F4
:1049300043EA51E060E070E080E090E00E94801B7C
:1049400085E090E0909344078093430786E390E0EE
:10495000909346078093450780919D0290919E0217
:104960001AE0189FF001199FF00D1124E259FE4F33
:10497000868197810E94951C8CE591E00E945F1BC7
:1049800080919D0290919E02189FF001199FF00D59
:104990001124E259FE4F6085718580E090E04AE085
:1049A0000E944C1D86E591E00E94A71C80919D020B
:1049B00090919E02189FF001199FF00D1124E25969
:1049C000FE4F2091EF063091F006808591852817E3
:1049D000390760F47092440760924307909246074B
:1049E000809245078DE491E00E945F1B0E94540F66
:1049F00083FF1CC080919B0290919C02892BB1F493
:104A000080919D0290919E022AE0289FF001299FAB
:104A1000F00D1124E259FE4F4091EF065091F0063F
:104A2000208531854217530708F087C280918202A2
:104A300090918302029709F055C180919D02909157
:104A40009E02059724F010929E0210929D02809182
:104A50009D0290919E0297FF06C084E090E09093A3
:104A60009E0280939D020E948C1C00E420E843EA91
:104A700051E060E070E080E090E00E94801B88E000
:104A800090E0909344078093430789E290E09093ED
:104A90004607809345078DE391E00E94A71C85E0BF
:104AA00090E0909344078093430786E390E09093CF
:104AB00046078093450784E391E00E945F1B809145
:104AC0009D0290919E020E94CC1D84E092E00E9483
:104AD000951C80919D0290919E021AE0189FF00112
:104AE000199FF00D1124ED52F94F86A597A50E944C
:104AF000F71A0E94540F83FFF5C080919B0290919A
:104B00009C02892B09F42AC2EDC080919802811180
:104B10007CCC0E948C1C81E08093980210929E02B3
:104B200010929D0201E010E010939702009396020C
:104B300080919402909195020097A1F58AE0E2E3BA
:104B4000F1E0DE01A55ABF4F01900D928A95E1F781
:104B50006D966EAD7FAD6D9718870F838FEE91E0E8
:104B60009A838983CE0101960E945B129C838B837A
:104B7000FE82ED828CE1FE013196A7EBB6E001905A
:104B80000D928A95E1F787E192E09093B8068093C1
:104B9000B706D092BC06C092BB061093BE06009327
:104BA000BD0633CC8130910561F598878F838DE107
:104BB00092E09A8389836EE170E0CE0101960E94B3
:104BC0005B129C838B83CB57DF4F48815981C5583B
:104BD000D0405E834D838CE1FE013196A7EBB6E0B9
:104BE00001900D928A95E1F75092BC064092BB0667
:104BF00083E292E09093B8068093B70682E090E05B
:104C00002EC0029709F001CC18870F8389E292E049
:104C10009A83898368E270E0CE0101960E945B125C
:104C20009C838B83CD57DF4F88819981C358D040B7
:104C30009E838D838CE1FE013196A7EBB6E0019057
:104C40000D928A95E1F73092BC062092BB068EE267
:104C500092E09093B8068093B70683E090E090933B
:104C6000BE068093BD06D1CB0230110509F095C078
:104C700084EE91E09093D4068093D3068DEA9AE077
:104C80009093D8068093D7068AE0E1EFF6E0DF0143
:104C9000482F1D924A95E9F73093F6062093F506C2
:104CA00029EE31E03093F8062093F706ECE3F1E0CB
:104CB000A5EEB6E001900D928A95E1F76091E506C8
:104CC0007091E60683ED96E00E945B129093D60603
:104CD0008093D50610929E0210929D0210939A0224
:104CE000009399020E943A1D80E090E0892B09F41C
:104CF0006FC80E9400006CC821E030E030939C0235
:104D000020939B0200919D0210919E02013011059B
:104D100009F0AACF8FED91E09093D4068093D3064B
:104D20008AE0E6E4F1E0A1EFB6E001900D928A9509
:104D3000E1F789EE9AE09093D8068093D7068AE04F
:104D4000E0E5F1E0A5EEB6E001900D928A95E1F77D
:104D50006091E5067091E60683ED96E00E945B1295
:104D60009093D6068093D50610929E0210929D02D3
:104D700082E090E00DC0019709F0B4CF8091D50694
:104D80009091D606181619060CF0ACCF83E090E08F
:104D900090939A0280939902A5CF012B09F0A2CF9C
:104DA0008AE0EAE5F1E0A5EEB6E001900D928A9581
:104DB000E1F787ED91E09093D4068093D30660915C
:104DC000E5067091E60683ED96E00E945B129093F3
:104DD000D6068093D50685E29BE09093D806809313
:104DE000D7068AE0E4E6F1E0ABEFB6E001900D9281
:104DF0008A95E1F78AE0EBEFF6E0A1EFB6E00190EB
:104E00000D928A95E1F7B0CF81E090E090939C02FB
:104E100080939B0280919D0290919E028230910529
:104E200019F40E9420115ECF8330910554F400974D
:104E300009F0A1CF85E090E090939A0280939902C7
:104E400010C08330910591F0049709F04BCF86E0B4
:104E500090E090939A028093990210929E02109291
:104E60009D0210928302109282023CCF8091D5065F
:104E70009091D606181619060CF034CF8091940242
:104E800090919502039708F02DCF87E090E080CFB6
:104E900080919D0290919E02189FF001199FF00D44
:104EA0001124ED52F94F40A551A522A533A584A5A3
:104EB00095A566A577A5E1EFF6E0DF011D921A95AD
:104EC000E9F75093F2064093F1063093F4062093ED
:104ED000F3069093F6068093F5067093F8066093B8
:104EE000F706109281021092800256CC019709F0C9
:104EF000ECCC8090EF069090F006181419040CF09A
:104F0000E4CC0091D5061091D6066091E50670912B
:104F1000E60683ED96E00E945B12081719070CF075
:104F2000D4CC9093D6068093D506B1E08B1A910825
:104F30009092F0068092EF06C8CC21E030E03093EA
:104F40009C0220939B0290937F0280937E0282E0DA
:104F500090E0909383028093820268CD20917E023C
:104F600030917F0280919D0290919E02189FD00106
:104F7000199FB00D1124A550B94F129FC001139F66
:104F8000900D112482599E4F2AE0FC0101900D9250
:104F90002A95E1F72091EF063091F006FC0180851B
:104FA0009185A901481B590B5093F0064093EF06D9
:104FB000109283021092820281E090E090939C0212
:104FC00080939B028FCE0F931F93CF93DF938C011F
:104FD00081E090E00E945F2980FF31C08AE090E08C
:104FE0000E945F299FEF980F9E3F48F522E330E033
:104FF000D80157963C932E93569728E330E0599664
:105000003C932E935897CBE0D0E0D801ED91FC91E2
:105010000190F081E02D682FC8010995CE010E9412
:105020005F292196C131D10581F70E943A1D88EE92
:1050300093E0DF91CF911F910F910C94050FDF91B9
:10504000CF911F910F91089504970C94E327CF926D
:10505000DF92EF92FF920F931F93CF93DF931F92F4
:10506000CDB7DEB7182F062FE42E862F880F8E5F60
:1050700099830E94D61D83E00E94D61DF12EC12E79
:105080009981D92E8C2D8F19801798F4F601E7FE9F
:1050900002C0849101C080810E94D61D182F80E03B
:1050A0000E94D61D8123FFEFCF1ADF0A8111EACFBC
:1050B00001C081E00F90DF91CF911F910F91FF9080
:1050C000EF90DF90CF900895CF93DF93EBE4F7E07C
:1050D0001382128288EE93E0A0E0B0E0848395838F
:1050E000A683B78385EB91E091838083CFEFDFEFD9
:1050F000D587C48783ED96E00E94891081E090E017
:105100009093BE068093BD06EDE2F7E01382128213
:105110001186128680E18387D087C783108A118A1F
:10512000128A138A148A87EC91E09183808385ED3B
:1051300091E095838483178A168A118E108E81E000
:10514000828F138E848F158EDF91CF9108958F9269
:105150009F92AF92BF92CF92DF92EF92FF92CF9346
:10516000DF93EC01688179818A819B8161157105EA
:105170008105910521F464E279ED8BE597E02DE15D
:1051800033EF41E050E00E94752949015A019B012B
:10519000AC01A7EAB1E40E9494296B017C01ACEE5A
:1051A000B4EFA50194010E94A229DC01CB018C0D72
:1051B0009D1DAE1DBF1DB7FF03C00197A109B048DB
:1051C00088839983AA83BB839F77DF91CF91FF90D8
:1051D000EF90DF90CF90BF90AF909F908F90089509
:1051E0000E94A72808958CE091E00E94A7280895C6
:1051F000A0E0B0E080930C0190930D01A0930E010C
:10520000B0930F0108958F929F92AF92BF92CF9269
:10521000DF92EF92FF92CF93DF93EC016881798167
:105220008A819B81611571058105910521F464E2F4
:1052300079ED8BE597E02DE133EF41E050E00E94FE
:10524000752949015A019B01AC01A7EAB1E40E940A
:1052500094296B017C01ACEEB4EFA50194010E948E
:10526000A229DC01CB018C0D9D1DAE1DBF1DB7FF1A
:1052700003C00197A109B04888839983AA83BB839F
:10528000BC01CD019F77DF91CF91FF90EF90DF9030
:10529000CF90BF90AF909F908F9008950E94032968
:1052A000089580E191E00E94032908956093100120
:1052B0007093110180931201909313010895F9994D
:1052C000FECF92BD81BDF89A992780B50895262F0B
:1052D000F999FECF1FBA92BD81BD20BD0FB6F894DB
:1052E000FA9AF99A0FBE01960895052E97FB1EF4BF
:1052F00000940E948C2957FD07D00E94A72907FC23
:1053000003D04EF40C948C295095409530952195FE
:105310003F4F4F4F5F4F08959095809570956195E1
:105320007F4F8F4F9F4F08950E94C929A59F900DD1
:10533000B49F900DA49F800D911D11240895B7FF77
:105340000C9494290E949429821B930B0895A1E246
:105350001A2EAA1BBB1BFD010DC0AA1FBB1FEE1FEF
:10536000FF1FA217B307E407F50720F0A21BB30B3A
:10537000E40BF50B661F771F881F991F1A9469F7B6
:1053800060957095809590959B01AC01BD01CF0112
:105390000895A29FB001B39FC001A39F700D811D0E
:1053A0001124911DB29F700D811D1124911D08952E
:1053B0005058BB27AA270E94F0290C94CF2A0E949C
:1053C000C12A38F00E94C82A20F039F49F3F19F40E
:1053D00026F40C94BE2A0EF4E095E7FB0C94B82A50
:1053E000E92F0E94E02A58F3BA176207730784076F
:1053F000950720F079F4A6F50C94022B0EF4E095B5
:105400000B2EBA2FA02D0B01B90190010C01CA017E
:10541000A0011124FF27591B99F0593F50F4503E29
:1054200068F11A16F040A22F232F342F4427585F1B
:10543000F3CF469537952795A795F0405395C9F733
:105440007EF41F16BA0B620B730B840BBAF09150EB
:10545000A1F0FF0FBB1F661F771F881FC2F70EC08A
:10546000BA0F621F731F841F48F48795779567955D
:10547000B795F7959E3F08F0B0CF9395880F08F049
:105480009927EE0F9795879508950E944C2A689466
:10549000B1110C94032B08950E94E82A88F09F57BD
:1054A00098F0B92F9927B751B0F0E1F0660F771F48
:1054B000881F991F1AF0BA95C9F714C0B13091F03E
:1054C0000E94022BB1E008950C94022B672F782FD5
:1054D0008827B85F39F0B93FCCF386957795679503
:1054E000B395D9F73EF490958095709561957F4F6F
:1054F0008F4F9F4F0895E89409C097FB3EF4909515
:105500008095709561957F4F8F4F9F4F9923A9F09C
:10551000F92F96E9BB279395F6958795779567952B
:10552000B795F111F8CFFAF4BB0F11F460FF1BC06F
:105530006F5F7F4F8F4F9F4F16C0882311F096E902
:1055400011C0772321F09EE8872F762F05C06623B0
:1055500071F096E8862F70E060E02AF09A95660F69
:10556000771F881FDAF7880F9695879597F9089522
:1055700097F99F6780E870E060E008959FEF80EC06
:10558000089500240A9416161706180609060895A9
:1055900000240A9412161306140605060895092E0F
:1055A0000394000C11F4882352F0BB0F40F4BF2B7E
:1055B00011F460FF04C06F5F7F4F8F4F9F4F0895BE
:1055C00057FD9058440F551F59F05F3F71F04795B4
:1055D000880F97FB991F61F09F3F79F08795089599
:1055E000121613061406551FF2CF4695F1DF08C0B8
:1055F000161617061806991FF1CF869571056105D5
:1056000008940895E894BB2766277727CB0197F97C
:1056100008950E941C2B0C94CF2A0E94C12A38F0B6
:105620000E94C82A20F0952311F00C94B82A0C94FB
:10563000BE2A11240C94032B0E94E02A70F3959F3C
:10564000C1F3950F50E0551F629FF001729FBB2779
:10565000F00DB11D639FAA27F00DB11DAA1F649F15
:105660006627B00DA11D661F829F2227B00DA11DC8
:10567000621F739FB00DA11D621F839FA00D611D4E
:10568000221F749F3327A00D611D231F849F600D6F
:10569000211D822F762F6A2F11249F5750409AF098
:1056A000F1F088234AF0EE0FFF1FBB1F661F771F24
:1056B000881F91505040A9F79E3F510580F00C94EF
:1056C000B82A0C94032B5F3FE4F3983ED4F38695FD
:1056D00077956795B795F795E7959F5FC1F7FE2B8F
:1056E000880F911D9695879597F9089597FB072E3A
:1056F00016F4009407D077FD09D00E94902B07FC88
:1057000005D03EF4909581959F4F089570956195D1
:105710007F4F0895EE0FFF1F0590F491E02D09943F
:10572000AA1BBB1B51E107C0AA1FBB1FA617B707C7
:1057300010F0A61BB70B881F991F5A95A9F78095E3
:105740009095BC01CD01089581E090E0F8940C940F
:06575000A92BF894FFCF25
:10575600FFFFFFFF00E10000000000000100000065
:10576600010000000A0008000500040000000F0008
:1057760004000700020002000800010001000A0000
:105786000A00190008000800060008000A000100C7
:1057960001000A000A000000010000005F0200008C
:1057A6001400050005000A0001000A000A000500B1
:1057B60005000100010000000000330200000500A2
:1057C6000200000039020A00020005000000410242
:1057D6000A000000020005004E020A00070005004C
:1057E6000300530214000500070003005A021400C8
:1057F6000300050007006602140000C18081000056
:105806000000000000F7133214B7140D141814BB6F
:1058160014D914000000009A0F6C0EC60EC50EE3D4
:1058260027FCFF0000242877617272696F720054AA
:10583600616E6B006D616765005374616666007327
:105846006C696D650057617272696F72004D6167B0
:105856006500202F200057686174276C6C206861F2
:1058660076652079653F00536C696D650074726FCB
:105876006C6C0054726F6C6C006F677265004F67DA
:1058860072650053776F7264004B6C656176657262
:105896000042726F616420536869656C64005761E9
:1058A6006E64004B6174616E610049726F6E2053C5
:1058B6006865696C64004D616E67757320526F642C
:0A58C60000454D505459000D0A0032
:00000001FF
