:100000000C942C040C9454040C9454040C94540438
:100010000C9454040C9454040C9454040C94540400
:100020000C9454040C9454040C946B090C94DD0946
:100030000C9454040C9454040C9454040C945404E0
:100040000C9454040C9454040C9454040C945404D0
:100050000C9454040C9454040C9454040C94F40420
:100060000C9454040C9454040C9454040C945404B0
:100070000C9454040C9454040C9454040C945404A0
:100080000C9454040C9454040C9454040C94540490
:100090000C9454040C9454040C9454040C94540480
:1000A0000C9454040C9454040C945404596F75200B
:1000B00068617665204661696C656400FFFF7FFFBB
:1000C000FFFFFFEFAF2301E6EFFFFFFFFFFFFFFFA3
:1000D000FFFE01F687C7E7E7070400070FFFFFFFF2
:1000E000FFFFFFFF0F0F000F0F0F0F0F00000000AB
:1000F00000010307070F0F0FFFFFF9940B0783831E
:10010000438383438383070B94F9FFFF875BEB03F0
:10011000EB54000111295129110004DBC70F1FFF07
:100120000F0F0E0E0E00040A040200040A04000F52
:1001300008000008FF03FD0601FFFFFF1F4F4707F0
:1001400013FFFFFFFFFFFFFFFBF8C3E0C8CBE7474C
:10015000120840180247E70F1FFFFFFF0F0F0F0F96
:100160000F0300000C0E0E0E0C0003070F0F0F0FF5
:10017000FFFF7FFFFFFFFFEFAF2301E6EFFFFFFF72
:10018000FFFFFFFFFFFE01F687C7E7E70704000751
:100190000FFFFFFFFFFFFFFF0F0F000F0F0F0F0FEE
:1001A0000000000000010307070F0F0FFFFFF99485
:1001B0000B078383438383438383070B94F9FFFFF8
:1001C000875BEB03EB54000111295129110004DB7B
:1001D000C70F1FFF0F0F0E0E0E00040A04020004CB
:1001E0000A04000F08000008FF03FD0601FFFFFFDF
:1001F0001F4F470713FFFFFFFFFFFFFFFBF8C3E0A1
:10020000C8CBE747120840180247E70F1FFFFFFF60
:100210000F0F0F0F0F0300000C0E0E0E0C00030744
:100220000F0F0F0FF0F89C8E8783878E9CF8F000DD
:1002300000FEFF0303030303070EFCF80000FEFFAC
:100240000303030303070EFCF80000FFFF00000098
:1002500000000000FFFF0000FEFF8383838383C74D
:10026000EE7C380000F8FC0E07030303070EFCF8D1
:1002700000003F7FE0C08080C0E07F3FFFFF0101C2
:100280000101010101FFFF0000FFFF0C0C0C0C1C21
:100290003E77E3C100007FFFC0C0C0C0C0E0703F38
:1002A0001F00001F3F70E0C0C0C0E0703F1F000093
:1002B0007FFFC1C1C1C1C1E3773E1C00001F3F7079
:1002C000E0C0C0C0E0703F1F000000000001FFFF61
:1002D00001000000D5F08D14A1C881CFD9F1AF2065
:1002E00000010204081020408000000000003E5B76
:1002F0004F5B3E3E6B4F6B3E1C3E7C3E1C183C7E73
:100300003C181C577D571C1C5E7F5E1C00183C1857
:1003100000FFE7C3E7FF0018241800FFE7DBE7FF53
:1003200030483A060E2629792926407F05050740E0
:100330007F05253F5A3CE73C5A7F3E1C1C08081CA1
:100340001C3E7F14227F22145F5F005F5F06097FDF
:10035000017F006689956A606060606094A2FFA278
:100360009408047E040810207E201008082A1C0827
:10037000081C2A08081E101010100C1E0C1E0C3031
:10038000383E3830060E3E0E060000000000000029
:100390005F00000007000700147F147F14242A7FE9
:1003A0002A122313086462364956205000080703B6
:1003B00000001C2241000041221C002A1C7F1C2A34
:1003C00008083E0808008070300008080808080087
:1003D0000060600020100804023E5149453E004282
:1003E0007F400072494949462141494D3318141252
:1003F0007F1027454545393C4A494931412111097A
:10040000073649494936464949291E00001400006B
:100410000040340000000814224114141414140085
:100420004122140802015909063E415D594E7C12D1
:1004300011127C7F494949363E414141227F414169
:10044000413E7F494949417F090909013E414151E6
:10045000737F0808087F00417F41002040413F0131
:100460007F081422417F404040407F021C027F7F72
:100470000408107F3E4141413E7F090909063E4183
:1004800051215E7F09192946264949493203017FD6
:1004900001033F4040403F1F2040201F3F40384065
:1004A0003F631408146303047804036159494D43FE
:1004B000007F4141410204081020004141417F0476
:1004C000020102044040404040000307080020545D
:1004D0005478407F284444383844444428384444BD
:1004E000287F385454541800087E090218A4A49C8C
:1004F000787F0804047800447D40002040403D009F
:100500007F1028440000417F40007C047804787C00
:10051000080404783844444438FC18242418182467
:100520002418FC7C08040408485454542404043F50
:1005300044243C4040207C1C2040201C3C40304057
:100540003C44281028444C9090907C4464544C4483
:100550000008364100000077000000413608000224
:10056000010204023C2623263C1EA1A161123A404E
:1005700040207A38545455592155557941215454C5
:100580007841215554784020545579400C1E5272C0
:10059000123955555559395454545939555454589C
:1005A0000000457C410002457D420001457C40F051
:1005B000292429F0F0282528F07C545545002054A2
:1005C000547C547C0A097F493249494932324848AF
:1005D0004832324A4848303A4141217A3A42402032
:1005E00078009DA0A07D39444444393D4040403DC1
:1005F0003C24FF2424487E4943662B2FFC2F2BFFED
:100600000929F620C0887E0903205454794100004E
:10061000447D413048484A32384040227A007A0AC4
:100620000A727D0D19317D2629292F28262929298D
:100630002630484D402038080808080808080838BF
:100640002F10C8ACBA2F102834FA00007B00000825
:10065000142A142222142A14089500220095AA00B4
:100660005500AAAA55AA55AA000000FF00101010B4
:10067000FF00141414FF001010FF00FF1010F01002
:10068000F0141414FC001414F700FF0000FF00FF26
:100690001414F404FC141417101F10101F101F144E
:1006A00014141F00101010F0000000001F10101094
:1006B000101F10101010F010000000FF101010108C
:1006C0001010101010FF10000000FF140000FF00B9
:1006D000FF00001F10170000FC04F414141710177B
:1006E0001414F404F40000FF00F714141414141488
:1006F00014F700F7141414171410101F101F1414FB
:1007000014F4141010F010F000001F101F0000006F
:100710001F14000000FC140000F010F01010FF1077
:10072000FF141414FF141010101F00000000F0102C
:10073000FFFFFFFFFFF0F0F0F0F0FFFFFF00000011
:100740000000FFFF0F0F0F0F0F38444438447C2A7E
:100750002A3E147E02020606027E027E026355498C
:1007600041633844443C04407E201E2006027E0241
:100770000299A5E7A5991C2A492A1C4C7201724CC2
:10078000304A4D4D303048784830BC625A463D3E84
:10079000494949007E0101017E2A2A2A2A2A444425
:1007A0005F444440514A444040444A51400000FFA5
:1007B0000103E080FF000008086B6B083612362446
:1007C00036060F090F060000181800000010100070
:1007D0003040FF0101001F01011E00191D1712000A
:1007E0003C3C3C3C0000000000080B0002020201FF
:1007F00000090400000102020000052400100105A8
:1008000024010101042402060524060001070581D4
:100810000310004009040100020A0000000705025D
:10082000024000000705830240000004030904128F
:10083000010002EF02014041233680000101020362
:100840000141726475696E6F204C4C4300417264C3
:1008500075626F790000761A11241FBECFEFDAE0BF
:10086000DEBFCDBF13E0A0E0B1E0EAE6F9E302C0ED
:1008700005900D92AE3AB107D9F728E0AEEAB3E0A1
:1008800001C01D92AB3DB207E1F714E0CCE2D4E029
:1008900004C02197FE010E94A81CCB32D107C9F7E2
:1008A0000E94EF0E0C94B31C0C940000CF92DF92C8
:1008B000EF92FF920F931F93CF93DF936C017A0116
:1008C0008B01C0E0D0E0CE15DF0589F0D8016D9135
:1008D0008D01D601ED91FC910190F081E02DC601D2
:1008E0000995892B11F47E0102C02196ECCFC70136
:1008F000DF91CF911F910F91FF90EF90DF90CF90FC
:1009000008953FB7F8948091CF039091D003A091C0
:10091000D103B091D20326B5A89B05C02F3F19F093
:100920000196A11DB11D3FBFBA2FA92F982F88276F
:10093000820F911DA11DB11DBC01CD0142E0660FCA
:10094000771F881F991F4A95D1F708952D9A08950A
:100950008EBD00000DB407FEFDCF089508950895E3
:1009600080E090E008950E94AE1C8F929F92AF921B
:10097000BF92CF92DF92EF92FF926B017C010E94B7
:1009800081044B015C01C114D104E104F104F1F0D4
:100990000E948104DC01CB0188199909AA09BB09CD
:1009A000883E9340A105B10570F321E0C21AD10839
:1009B000E108F10888EE880E83E0981EA11CB11CA6
:1009C000C114D104E104F10419F7DDCFFF90EF90D9
:1009D000DF90CF90BF90AF909F908F900895BC0113
:1009E00080E090E00C94B5041F920F920FB60F9226
:1009F00011242F933F938F939F93AF93BF93809135
:100A0000AE039091AF03A091B003B091B1033091C8
:100A1000CE0323E0230F2D3720F40196A11DB11D35
:100A200005C026E8230F0296A11DB11D2093CE0319
:100A30008093AE039093AF03A093B003B093B10340
:100A40008091CF039091D003A091D103B091D203B4
:100A50000196A11DB11D8093CF039093D003A09365
:100A6000D103B093D203BF91AF919F918F913F91EA
:100A70002F910F900FBE0F901F9018958FB12CB132
:100A800093B130E02095309520743327A90123E0FD
:100A9000559547952A95E1F7292F30E02095309517
:100AA000207133273595279535952795242B8095EB
:100AB000807F822B089583B7817F83BF83B7816056
:100AC00083BF889583B78E7F83BF08956038710593
:100AD000D0F440345105B8F4E1EEF2E080E1849FB7
:100AE000D001A0781124A60F4770E40FF11D849166
:100AF000A352BC4F222319F06C91862B03C0809522
:100B00006C9186238C9308952F923F924F925F921F
:100B10006F927F928F929F92AF92BF92CF92DF920D
:100B2000EF92FF920F931F93CF93DF93CDB7DEB772
:100B300029970FB6F894DEBF0FBECDBFFC016A3017
:100B400069F4248D808D918D38E0239F800D911D57
:100B50001124918F808F178A168AAAC06D3009F4EC
:100B6000A7C099878887F48C338C228C608C718C19
:100B70000689178900381105C4F0A885B9855C96E7
:100B80002C915C97422F50E056968D919C915797EF
:100B9000B6E02B9F800D911D1124E885F985978B78
:100BA000868B258D21116EC083C0F0E46F16710411
:100BB00024F7C80125E0F29E800D911D112418161E
:100BC0001906DCF68F2D90E09C838B83C301A8E08F
:100BD000FA9E800D911D11241816190674F6B5E0C1
:100BE0006B9FB0011124FB01E751FD4FFA83E983AC
:100BF00030E08885998504969E838D83E981FA810A
:100C0000E490353009F4E12C430188E0482EE0FC03
:100C100002C0532C01C0522C51100BC0321009C01D
:100C2000E6944A948B819C81880E991E4110EFCFE7
:100C30001BC068018C2D801B8F1590F754018A2DE5
:100C400088198F1568F4252DA501B6018D819E8127
:100C50003F830E9466059FEFA91AB90A3F81EFCF33
:100C6000AFEFCA1ADA0AE6CF3F5FEB81FC810E0FC5
:100C70001F1F89819A8101969A838983363009F0F2
:100C8000BDCF7BCF6AEF64039001659F300D1124C7
:100C900020583F4F281739075CF4A885B985ED9196
:100CA000FC9111970190F081E02D6AE0CD0109954A
:100CB00081E090E029960FB6F894DEBF0FBECDBF5D
:100CC000DF91CF911F910F91FF90EF90DF90CF9028
:100CD000BF90AF909F908F907F906F905F904F905C
:100CE0003F902F900895CF93DF93DC01FB01452BBC
:100CF00009F054C021153105E9F416966D917C91E7
:100D0000179777FF02C06F5F7F4F75956795529673
:100D10002D913C915397260F371F808591856BEF5E
:100D20007FEF0E94941C84899589680F791F620F58
:100D3000731F29C02130310589F5C085D1851696EC
:100D40006D917C91179777FF02C06F5F7F4F75950C
:100D5000679552962D913C915397260F371FCE01E0
:100D60006BEF7FEF0E94941C44895589640F751FB7
:100D7000260F371FCE0165E070E00E94941CC90168
:100D8000861B970BBC01828193811616170614F0FF
:100D9000019702C0861B970B93838283DF91CF91CB
:100DA00008950F931F93CF93DF9381EC80937C0082
:100DB00085B1806F85B9249884B1866E84B95E9AB6
:100DC0005F988AB1806D8AB9769A6E9881B3806F88
:100DD00081BB899880B38D7080BB80E58CBD81E03C
:100DE0008DBD85E090E00E94EF045F9A85E090E081
:100DF0000E94EF045E985C98C4EDD2E01C2F135F54
:100E0000FE0184910E94A80421961C13F9CF5C9ADC
:100E100081E88093640081E080936500C0E0D4E0C5
:100E200080E00E94A8042197D9F70E943E0587FF21
:100E30001FC05C9885EA0E94A8045C9A2E982F989F
:100E40002D98809164008062809364000E945B050D
:100E5000FDCF2D980E943E058478843871F00E9461
:100E60003E058471843131F188EC90E00E94EF04FA
:100E70000E943E0582FDEDCF3AC00E94A60488EC98
:100E800090E00E94EF042F9882E090E00E94071CFF
:100E90008F3F29F06FEF82E090E00E940F1C84EFFB
:100EA00091E00E94EF042F9A0E943E0584788438D6
:100EB000D9F3D5CF0E94A60488EC90E00E94EF04FD
:100EC0002E9882E090E00E94071C882329F060E0C1
:100ED00082E090E00E940F1C84EF91E00E94EF04FA
:100EE0002E9A0E943E0584718431D9F3BDCF0E94B1
:100EF000A60482E090E00E94071C882331F03E9A0D
:100F00003F9A81E08093CD0304C01092CD033E98B8
:100F10003F982E98CEEEDFEF0E943E0586FF04C07C
:100F20002E9A2F9A2D9A39C0CC3F8FEFD80719F4FB
:100F30002E9A2F9805C0C831D10511F42F9A2D98FB
:100F40000E941C0D00E128E544E252E0BE0184E16C
:100F500090E00E94320D0E94530E8BE190E00E94BF
:100F6000EF04C03FEFEFDE0721F48AEF90E00E942C
:100F7000EF042196C931D10579F68CEB92E00E94FD
:100F8000EF040E94A604E0916508F09166080190C4
:100F9000F081E02D85E698E0099582E390E00E94DB
:100FA000EF040E943E058111F8CF81E280936C0826
:100FB000809164008E7F8093640080917A008064C9
:100FC00080937A0080917A0086FDFCCFC0917800F2
:100FD000D09179000E9481048E0120E030E09801D8
:100FE00011270027600F711F821F931F6115710564
:100FF0008105910511F00E94FE1B809164008160C3
:10100000809364001092B3031092B203DF91CF91EA
:101010001F910F910C94290DCF93DF931F92CDB7A1
:10102000DEB76983DC01ED91FC910280F381E02D54
:1010300041E050E0BE016F5F7F4F09950F90DF9157
:10104000CF91089583E08093E9008091F200882396
:1010500019F08AE38093E8000895FC018485958562
:1010600097FD0BC09FB7F89482E08093E9008091D0
:10107000F2009FBF90E0019608959FB7F89482E038
:101080008093E9008091F2009FBF90E008958F92D5
:101090009F92AF92BF92CF92DF92EF92FF920F9307
:1010A0001F93CF93DF935C016B017A0180910B0159
:1010B000882309F45BC08091DC03882309F456C0BF
:1010C0008091D90380FF05C08091E0008260809309
:1010D000E000E70110E00AEF83E0882E9AE3992E02
:1010E0002097D9F10E948F0E81110AC0015009F496
:1010F0003DC061E070E080E090E00E94B504F0CF78
:10110000282F30E0C217D3070CF48C2F4FB7F89478
:101110008092E9009091E80095FF1DC0282F30E0F3
:10112000C21BD30BF601982F915020F08191809330
:10113000F100FACFC20ED31E112319F09092E800ED
:1011400009C08091E80085FD06C09092E80011E09A
:10115000209709F010E04FBFC3CF1111C3CF5D98A6
:1011600084E68093DA031E141F0444F081E090E0CB
:10117000F5019383828380E090E001C0C701DF9195
:10118000CF911F910F91FF90EF90DF90CF90BF9084
:10119000AF909F908F9008950E948F0E90E00895D9
:1011A000CF93DF931F92CDB7DEB7FC018485958581
:1011B00097FD05C02FEF3FEF358724870BC0CE0189
:1011C00001960E94650E019719F4898190E002C092
:1011D0008FEF9FEF0F90DF91CF9108950F931F93A3
:1011E000CF93DF931F92CDB7DEB78C01FC018485CE
:1011F000958597FF0EC0CE0101960E94650E01975E
:1012000019F4298130E002C02FEF3FEFF801358754
:101210002487F801848595850F90DF91CF911F91E8
:101220000F910895DF92EF92FF920F931F93CF9348
:10123000DF93D82E8A017B01E40EF51EEB01CE155B
:10124000DF0571F0D7FE03C0FE01849101C08881E3
:101250000E94B40E21968111F2CF8FEF9FEF01C053
:10126000C801DF91CF911F910F91FF90EF90DF9018
:1012700008950F931F93CF93DF931F92CDB7DEB7DF
:1012800082E0898342E450E069EE77E080E80E94E2
:1012900012090E94A00EDC0112960D911C91139769
:1012A0000115110569F0D801ED91FC910280F381DF
:1012B000E02DBE016F5F7F4FC801099597FF07C002
:1012C00089810F90DF91CF911F910F910895F801BF
:1012D00000851185E5CF1F920F920FB60F92112452
:1012E0008F939F938091E1009091E100937F909381
:1012F000E10083FF0FC01092E90091E09093EB00B2
:101300001092EC0092E39093ED001092DC0398E0D1
:101310009093F00082FF20C093E09093E9009091B9
:10132000F200992319F09AE39093E8009091DA0380
:10133000992339F09091DA0391509093DA0399232D
:1013400089F19091DB03992339F09091DB0391505F
:101350009093DB03992341F184FF10C08091E20058
:101360008E7E81608093E2008091E1008F7E809389
:10137000E1008091D9038E7E806111C080FF16C08C
:101380008091E2008E7E80618093E2008091E10096
:101390008E7E8093E1008091D9038E7E8160809360
:1013A000D90304C05D9ACDCF289AD6CF9F918F9153
:1013B0000F900FBE0F901F9018951F920F920FB6AF
:1013C0000F921124CF92DF92EF92FF920F931F930F
:1013D0002F933F934F935F936F937F938F939F933D
:1013E000AF93BF93EF93FF93CF93DF93CDB7DEB768
:1013F0006C97DEBFCDBF1092E9008091E80083FFBB
:10140000EDC168E0CE0145960E94E20E82EF809326
:10141000E8008D8987FF05C09091E80090FFFCCF20
:1014200003C09EEF9093E800982F907609F0C6C015
:101430009E892F89188D91110CC0803829F48091D4
:10144000D8038093F10002C01092F1001092F100D5
:1014500048C1422F50E0512B913051F4811141C1CC
:101460004130510509F03DC18091D8038D7F0BC0FB
:10147000933061F4811135C14130510509F031C11A
:101480008091D80382608093D8032BC1953041F4BA
:101490008091E80080FFFCCF20682093E30021C109
:1014A000963009F05FC0EB8CFC8C1092E900109232
:1014B000D6031092D503123091F51092D4031092F6
:1014C000D3030E94390999E0BE016F5F7F4FDB01B2
:1014D000E92F1D92EA95E9F799831A8391E09E839B
:1014E00090EA98879AEF99872091D5033091D60397
:1014F000275F3F4F3C832B838D831092E90010922E
:10150000D6031092D503F092D403E092D30349E0BE
:1015100050E080E00E9412090E943909E2C0F09276
:10152000D403E092D3030E94A00EDC011296ED904A
:10153000FC901397E114F10409F4C0C0D701ED91B8
:10154000FC910480F581E02DBE016B5E7F4FC701E9
:101550000995009719F00CF0C4C0C7C0F701E084EA
:10156000F184E8CF973009F4C0C0983021F481E0CD
:101570008093F100B6C0993009F0B3C0837009F0D0
:10158000B4C0EDE2F1E081E021E036E390819923FF
:1015900061F08093E9002093EB0091919093EC002F
:1015A0003093ED008F5F873089F78EE78093EA00F4
:1015B0001092EA008F898093DC0393C08B8D9C8D01
:1015C0001092E9001092D6031092D5039093D403A1
:1015D0008093D303898D811156C08E899D89913A5C
:1015E00059F4813209F081C047E050E064E071E0D5
:1015F00080E00E94120975C0913209F076C08332F2
:1016000089F4888D90E0982F88272F89822BA0E07D
:10161000B0E08093000190930101A0930201B09388
:1016200003015FC0803269F48091E80082FFFCCF43
:1016300067E084E091E00E94E20E8BEF8093E80087
:1016400006C0823209F04DC08F8980930B018091D2
:10165000D703882319F0EEEFFAE002C0E0E0F8E0EB
:101660008091040190910501A0910601B0910701BC
:10167000803B9440A105B10509F07BC080910B012E
:1016800080FF93C076C00E94A00EDC0112960D91DF
:101690001C9113970115110541F1D801ED91FC91B1
:1016A0000190F081E02DBE016B5E7F4FC80109956E
:1016B000811117C0F80100851185ECCF113009F4B4
:1016C0004EC0133091F48F89882309F445C08230CD
:1016D00081F440E867E08DE498E00E94391A88239D
:1016E00021F08EEF8093E80079C081E28093EB00D7
:1016F00075C0813029F440E86BE081E498E0EDCFDB
:10170000833099F70E94A00EDC011296ED90FC90B8
:1017100013978E010F5F1F4F6801E114F10479F0F8
:10172000D701ED91FC910680F781E02DB801C7014A
:101730000995080F111DF701E084F184EECFD8015F
:101740001C92F60101900020E9F73197BF016C1956
:101750007D0940E0C601C1CF6BE278E002C06FE2D4
:1017600078E06115710509F2FB01449150E080E8D1
:1017700040CF0FB6F894A89580916000886180935F
:101780006000109260000FBEA895EE3F2AE0F207BD
:1017900039F08091FE0A9091FF0A91838083A1CF56
:1017A0001092FF0A1092FE0A9CCFEE3F8AE0F807E3
:1017B00031F0808191819093FF0A8093FE0A87E740
:1017C00097E7918380839BE088E10FB6F894A89512
:1017D000809360000FBE9093600083CF6C960FB62D
:1017E000F894DEBF0FBECDBFDF91CF91FF91EF9197
:1017F000BF91AF919F918F917F916F915F914F9129
:101800003F912F911F910F91FF90EF90DF90CF901C
:101810000F900FBE0F901F901895009769F0FC0174
:1018200001900020E9F73197AF01481B590BBC012B
:1018300081E698E00C94560480E090E008958F9241
:101840009F92AF92BF920F931F93CF93DF93CDB729
:10185000DEB7A1970FB6F894DEBF0FBECDBF19A2B9
:10186000423008F44AE08E010F5D1F4F842E912C08
:10187000A12CB12CA50194010E944F1CE62FB901A7
:10188000CA0101501109EA3014F4E05D01C0E95CBD
:10189000D801EC93232B242B252B61F7C8010E9440
:1018A0000D0CA1960FB6F894DEBF0FBECDBFDF9131
:1018B000CF911F910F91BF90AF909F908F900895FF
:1018C000CF92DF92EF92FF92CF93DF936B017C0177
:1018D000E0916108F09162080190F081E02D6DE2E5
:1018E00081E698E00995EC0166277727CB016C1912
:1018F0007D098E099F094AE00E941F0C8C0F9D1FD5
:10190000DF91CF91FF90EF90DF90CF900895CF932C
:10191000DF930E940D0CEC018FE792E00E940D0C0A
:101920008C0F9D1FDF91CF9108955F926F927F92F0
:101930008F929F92AF92BF92CF92DF92EF92FF92DF
:101940000F931F93CF93DF93EC018B017A01A901D1
:10195000461B570B57FF03C0519541955109C701CD
:101960008C1B9D0B97FF03C0919581959109552480
:1019700053948417950714F0512C0AC09E2D8F2D77
:101980007901292F382F9C2F8D2FE801092F182F2F
:10199000EC16FD0654F4902F812F8901292F382F42
:1019A0009C2F8D2FE701E92EF82E37016C1A7D0A46
:1019B0005901A01AB10AB7FE03C0B194A194B108AD
:1019C000630177FE03C08FEFC81AD80AD594C79475
:1019D0000217130714F08FEF01C081E0882E880FE3
:1019E0009908EC16FD06B4F021E0552019F0AE017F
:1019F000B80102C0A801BE0185E698E00E94660514
:101A0000CA18DB08D7FE04C0080D191DC60CD71C68
:101A10002196E7CFDF91CF911F910F91FF90EF902B
:101A2000DF90CF90BF90AF909F908F907F906F90FE
:101A30005F9008950C940D0C80E0EDEDF3E08111C2
:101A40008FEF002481938193819381930394D1F745
:101A500008950E941C0DE1E6F8E0118E108E178AA1
:101A6000168A08952F923F924F925F926F927F92C3
:101A70008F929F92AF92BF92CF92DF92EF92FF929E
:101A80000F931F93CF93DF93CDB7DEB728970FB691
:101A9000F894DEBF0FBECDBF5A01822E912C9C015F
:101AA000280D391D37FDC4C0803891050CF0C0C029
:101AB0009B01200F311D37FDBBC0603471050CF058
:101AC000B7C0AB0177FF04C044275527461B570B0F
:101AD000477055279B0177FF02C0295F3F4FE3E026
:101AE00035952795EA95E1F777FF08C02150310930
:101AF00068E070E0DB01A41BB50BAD01602F6695BB
:101B00006695669570E0077011F06F5F7F4FDB019F
:101B1000A20FB31FBA83A98339017694762C662469
:101B200077946794680E791EE12CF12C00E010E0A8
:101B30002301B0E84B0E511C68E070E0DB01A41BF0
:101B4000B50BBC83AB8369817A812617370709F40B
:101B50006FC02830310509F46BC02F3FBFEF3B0742
:101B60000CF45BC0B201600F711FDB01A352BC4FCC
:101B7000BE83AD83D801A60DB71DA352BC4F6C0127
:101B800060E070E0681579050CF047C0E0E8CE161B
:101B9000D10409F442C0D7FC34C02F3FFFEF3F0708
:101BA00009F442C0FB01EE0DFF1DEA0DFB1DE4919F
:101BB000042E01C0EE0F0A94EAF73C90E329EC935F
:101BC00041155105F1F027303105D9F0FB01EE0D3B
:101BD000FF1DEA0DFB1DE4912E2E312CF1010B802F
:101BE00002C0F595E7950A94E2F7F887EF83ED8157
:101BF000FE813080EF81F885E3291F01ED81FE81B0
:101C000020826F5F7F4FED81FE813196FE83ED83F1
:101C1000FFEFCF1ADF0A1196B5CF2F5F3F4F005865
:101C20001F4FE80CF91C8FCF4115510579F6E9CF0C
:101C300028960FB6F894DEBF0FBECDBFDF91CF91CF
:101C40001F910F91FF90EF90DF90CF90BF90AF90DA
:101C50009F908F907F906F905F904F903F902F90CC
:101C60000895BC01990F880B990B97FD0C94600C9B
:101C70004AE00C941F0CCF93DF93BC01990F880BA3
:101C8000990B97FF03C00E94600C03C04AE00E94BA
:101C90001F0CEC018FE792E00E940D0C8C0F9D1F32
:101CA000DF91CF9108958091DD038EBDEEEDF3E0DD
:101CB00081910DB407FEFDCF8EBD87E0ED3DF807A5
:101CC000B9F70DB407FEFDCF0895FC018091DC0348
:101CD000811103C08FEF9FEF08959FB7F89482E0C2
:101CE0008093E9002091F20030E01216130614F4FC
:101CF00021E030E02115310559F0289884E68093E1
:101D0000DB038091F10080838091F200882319F039
:101D10009FBFC90108958BE68093E800F9CF2FB7E4
:101D2000F89483E08093E9009091E800892F807215
:101D300095FF04C09091F20080E4891B2FBF0895A5
:101D40008091830881110DC082E080937F0884E038
:101D500080938008109282081092810881E080931D
:101D600083088FE798E008954091D5035091D603FA
:101D70002091D3033091D40342175307B4F49091C8
:101D8000E8009570E1F39091E80092FD19C080930E
:101D9000F1008091D5039091D60301968F73992716
:101DA000892B19F48EEF8093E8008091D5039091F0
:101DB000D60301969093D6038093D50381E00895CE
:101DC00080E00895615030F02091F100FC01208303
:101DD0000196F8CF289884E68093DB030895CF938B
:101DE000DF93CDB7DEB7C254D1090FB6F894DEBF8A
:101DF0000FBECDBF789484B5826084BD84B5816008
:101E000084BD85B5826085BD85B5816085BD8091C5
:101E10006E00816080936E0010928100809181003D
:101E20008260809381008091810081608093810035
:101E30008091800081608093800080919100826019
:101E400080939100809191008160809391008091B6
:101E500090008160809390008091C10084608093A5
:101E6000C1008091C10082608093C1008091C10057
:101E700081608093C1008091C30081608093C30022
:101E80008091C00082608093C0008091C200816018
:101E90008093C20080917A00846080937A00809160
:101EA0007A00826080937A0080917A0081608093CA
:101EB0007A0080917A00806880937A001092DC0327
:101EC0001092D8031092D9038091D700816080933B
:101ED000D70080EA8093D80089B5806189BD89B533
:101EE000826089BD09B400FEFDCF61E070E080E052
:101EF00090E00E94B5048091D8008F7C806180932F
:101F0000D8008091E000807F8093E0008091E10024
:101F10008E7E8093E1008DE08093E200559A209AB6
:101F2000EEEFFFE7859194918B3F9C4D19F481E092
:101F30008093D7030E94D106FCE0AF2EB12CEE2493
:101F4000E394F12CB5E0CB2ED12C63E0262E312C7E
:101F500074E0472E512CEBE46E2E712C2FB7F894C1
:101F60008091AE039091AF03A091B003B091B10303
:101F70002FBF409171085091720860917308709161
:101F8000740820917508222349F020916D08821B66
:101F900080937608109275080C9452188417950750
:101FA000A607B70748F4481B423010F40C945218A7
:101FB0000E945B050C94521821E0209375088093D1
:101FC0006D0890936E08A0936F08B09370082091ED
:101FD0006C08820F911DA11DB11D80937108909313
:101FE0007208A0937308B093740880916808909168
:101FF00069080196909369088093680880916A083F
:1020000080936B080E943E0580936A080091B2039A
:102010001091B3030230110509F47BC174F401156A
:102020001105C9F00130110511F00C94501880E031
:1020300090E020E030E048E02EC00530110509F4C2
:10204000F2C40630110509F49AC60330110511F0E7
:102050000C9450180CC20E94290D89E190E09093D5
:1020600078088093770810927A081092790889E5A9
:1020700091E00E941A0D0E943E0582FD02C00C9460
:102080005018F092B303E092B2031092CC03109276
:10209000CB030C945018285F3F4F85309105DCF43A
:1020A000FC0153E0EE0FFF1F5A95E1F761E070E08D
:1020B0006C0F7D1FE60FF71F7A96DF01542F1D92DC
:1020C0005A95E9F7FB01E20FF31F68E671E0778BA1
:1020D000668B0196E0CF8EE691E09A8389831C821D
:1020E0001B821E821D8218861F821A8619861C86F4
:1020F0001B861E861D861A8A198A82E4FE01319685
:10210000AFE1B8E001900D928A95E1F70E94290DA8
:10211000109278081092770810927A081092790835
:1021200083E791E00E941A0D80E892E00E941A0D68
:102130002AE030E042E850E06AE070E080E090E0C1
:102140000E94950C1092780810927708B0927A0845
:10215000A09279080E943E0587FF07C08091C903BD
:102160009091CA03892B09F4A7C70E943E0584FFFA
:1021700007C08091C7039091C803892B09F4AAC7AF
:102180008091CB039091CC03039724F01092CC0361
:102190001092CB038091CB039091CC0397FF06C0A4
:1021A00082E090E09093CC038093CB038091CB03AB
:1021B0009091CC0381309105B1F08230910521F1ED
:1021C000892BA1F584E891E00E94870C04E124E1C9
:1021D00048EE51E06EE170E080E090E00E94320D48
:1021E0008CE891E021C08AE991E00E94870C04E12B
:1021F00024E14CEA51E06EE170E080E090E00E9462
:10220000320D8FE991E010C085EB91E00E94870CC0
:1022100004E124E140E751E06EE170E080E090E00D
:102220000E94320D8AEB91E00E941A0D0E943E0539
:10223000482F487083FF54C08091C5039091C60316
:10224000892B09F455C74CC0892B09F047C089EC8C
:1022500091E09093200880931F088AE090E090938B
:102260002208809321089093240880932308909358
:10227000260880932508D0922808C0922708D0927B
:102280002A08C092290810922C0810922B0884E387
:1022900091E090932E0880932D08E9E3F8E0DF01A8
:1022A0001D924A95E9F7F0923A08E092390881EDDB
:1022B00091E090933E0880933D0888E0A1E3B8E068
:1022C00001900D928A95E1F71092CC031092CB0306
:1022D00082E090E09093B3038093B2030E943E05A6
:1022E0000E943E0583FD04C01092C6031092C503F0
:1022F0000E943E0587FD04C01092CA031092C903D4
:102300000E943E0584FDCCC61092C8031092C703FC
:10231000C7C60E94290D1092780810927708109273
:102320007A081092790889EE91E00E941A0D2AE04D
:1023300030E042E850E06AE070E080E090E00E9427
:10234000950C1092780810927708B0927A08A092B3
:1023500079080E943E0587FF07C08091C9039091CC
:10236000CA03892B09F44AC70E943E0584FF07C0AF
:102370008091C7039091C803892B09F44DC78091C0
:10238000CB039091CC03049724F01092CC031092CD
:10239000CB038091CB039091CC0397FF04C0309284
:1023A000CC032092CB038091CB039091CC0381305E
:1023B000910571F02CF4892B01F583EF91E01BC09E
:1023C00082309105B1F00397C1F486E292E013C028
:1023D0008091210890912208181619061CF489EFA3
:1023E00091E009C080E092E00E94870C80E192E0D9
:1023F00002C081E292E00E941A0D0E943E0583FF16
:102400001DC08091C5039091C603892BB9F4F09249
:10241000C603E092C5038091CB039091CC03813039
:10242000910509F007C7809121089091220818169C
:10243000190624F43092B3032092B2030E943E05A1
:1024400087FD04C01092CA031092C9030E943E0582
:1024500084FD04C01092C8031092C7030E943E0579
:1024600083FD1EC61092C6031092C50319C6809143
:10247000C2038111CCC00E94290D0E949B1BB80190
:102480000E94941C81309105E1F18230910509F49C
:1024900079C0892B09F0B4C089EC91E09093DE07F4
:1024A0008093DD078AE090E09093E0078093DF0758
:1024B0009093E2078093E1079093E4078093E3070A
:1024C000D092E607C092E507D092E807C092E707EE
:1024D0001092EA071092E90784E391E09093EC07E9
:1024E0008093EB0788E0E7EFF7E0DF01282F1D92EC
:1024F0002A95E9F7F092F807E092F70721ED31E02D
:1025000075C02AE931E03093DE072093DD0724E12E
:1025100030E03093E0072093DF073093E207209309
:10252000E107D092E407C092E3072AE030E030935D
:10253000E6072093E5071092E8071092E707D0928C
:10254000EA07C092E90728EF30E03093EC072093C8
:10255000EB0728E0E7EFF7E0DF01322F1D923A9515
:10256000E9F79093FA078093F90787ED91E090934C
:10257000FC078093FB07AFEEB7E001900D922A9520
:10258000E1F73EC08EED91E09093DE078093DD078A
:102590008AE090E09093E0078093DF079093E20752
:1025A0008093E1071092E4071092E3071092E60788
:1025B0001092E5079093E8078093E7079093EA0766
:1025C0008093E9078CEB90E09093EC078093EB0706
:1025D00088E0E7EFF7E0DF01282F1D922A95E9F761
:1025E000F092F807E092F70723EE31E03093FC0712
:1025F0002093FB07AFEEB7E001900D928A95E1F7CB
:1026000081E08093C2031092CC031092CB0380919F
:10261000210890912208181619060CF0ABC1809180
:10262000DF079091E007181619060CF073C10E949D
:10263000290D109278081092770810927A0810925B
:1026400079088091DD079091DE070E941A0D8CE2D7
:1026500092E00E941A0D8091DF079091E0070E949E
:102660003B0E2AE030E041E450E06AE070E080E0B8
:1026700090E00E94950C8CE390E090937808809312
:10268000770884E390E090937A08809379088091AA
:102690002108909122080E94310E82E392E00E946C
:1026A0001A0D80912308909124080E94310E86E330
:1026B00092E00E941A0D2EE330E048E750E06EE30E
:1026C00070E08AE390E00E94950C4091EB075091F6
:1026D000EC0704E124E160E070E085E590E00E9411
:1026E000320D40912D0850912E0824E16DE170E0EB
:1026F00088E090E00E94320D1092780810927708DE
:1027000082E390E090937A08809379088091C003E7
:102710009091C103009709F08EC01092BF030E94F0
:102720003E0587FF07C08091C9039091CA03892B9A
:1027300009F4A3C50E943E0584FF07C08091C7032A
:102740009091C803892B09F4A6C58091CB03909181
:10275000CC03029724F01092CC031092CB0380910B
:10276000CB039091CC0397FF04C0F092CC03E0928E
:10277000CB038091CB039091CC03009729F0019774
:1027800039F481E492E002C08AE392E00E941A0DDB
:102790000E943E0583FF19C08091C5039091C60336
:1027A000892B99F4F092C603E092C5038091CB0384
:1027B0009091CC03009709F07CC51092BE03109253
:1027C000BD03F092C103E092C0030E943E0583FD69
:1027D00004C01092C6031092C5030E943E0587FDF7
:1027E00004C01092CA031092C9030E943E0584FDE2
:1027F00004C01092C8031092C7030E949B1B62E0A2
:1028000070E00E94941C009769F08130910509F0F6
:1028100047C49093BC038093BB039093BA03809307
:10282000B9033EC41092BC031092BB03F092BA03EA
:10283000E092B90335C4019709F032C48091B9031D
:102840009091BA03019709F02BC420912908309187
:102850002A088091E7079091E8078217930724F4EC
:1028600081E08093B80302C01092B8039091B8033E
:102870008091BF03992341F1811112C40091BB03E0
:102880001091BC038090BD039090BE039801A401F9
:102890006DED77E08FE198E00E9473069401A80146
:1028A0006FE178E08DED97E00E94730680916808F3
:1028B000909169086CE370E00E94801C892BF1F410
:1028C000C8010E94310E1AC08111EAC30091BD03F4
:1028D0001091BE038090BB039090BC039801A401AB
:1028E0006FE178E08DED97E00E9473069401A801F6
:1028F0006DED77E08FE198E00E947306F092C603D9
:10290000E092C50381E08093BF031092C10310924F
:10291000C003C6C30E94290D88E290E09093780816
:102920008093770884E190E090937A088093790807
:1029300088E492E00E94870C80E592E00E94870C78
:102940008DE592E00E94870C8BE692E00E941A0DC2
:102950000E943E0582FFA4C382E090E09093B303FF
:102960008093B2031092C20380912F089091300897
:10297000029654C00E94290D82E090E0909378085E
:102980008093770884E190E090937A0880937908A7
:102990000CEA10E0F8016491611118C08FE792E031
:1029A0000E940D0C8BE692E00E94870C80912F080C
:1029B0009091300818161906C4F082E892E00E943F
:1029C000870C88E992E00E94870C0FC0E0916108B3
:1029D000F09162080190F081E02D81E698E0099580
:1029E0000F5F1F4F892BB1F6D9CF0E943E0582FFA2
:1029F00057C382E090E09093B3038093B2031092A8
:102A0000C203109222081092210880912F08909101
:102A10003008181619060CF443C301969093300839
:102A200080932F083DC30E94290D109278081092C0
:102A3000770810927A08109279088CEA92E00E9446
:102A40001A0D2AE030E042E850E06AE070E080E0F1
:102A500090E00E94950C0E943E0582FF06C082E035
:102A600090E09093B3038093B2038091B60390916A
:102A7000B703892B09F008C18091C3039091C40367
:102A8000009709F0B3C01092780810927708B092BE
:102A90007A08A092790880911F08909120080E94DE
:102AA000870C80912108909122080E94310E82E3C8
:102AB00092E00E941A0D80912308909124080E94B0
:102AC000310E8EEB92E00E94870C83EC92E00E9424
:102AD0001A0D80912508909126080E943B0E8DECDE
:102AE00092E00E941A0D80912708909128080E9478
:102AF0003B0E86ED92E00E941A0D8091290890917C
:102B00002A080E943B0E8DED92E00E941A0D8091E2
:102B10002B0890912C080E943B0E709278086092CE
:102B20007708B0927A08A092790880913508909140
:102B300036080E94870C709278086092770884E1CA
:102B400090E090937A088093790884EE92E00E9456
:102B50001A0D80913108909132080E94310E7092C6
:102B60007808609277088EE190E090937A088093DD
:102B7000790889EE92E00E941A0D809133089091B5
:102B800034080E94310E82E390E09093780880939D
:102B9000770884E390E090937A08809379088EEE2A
:102BA00092E00E941A0D80912F08909130080E94A7
:102BB000310E40912D0850912E0804E124E168E285
:102BC00070E084E690E00E94320D0E943E0584FF92
:102BD00004C0F092C403E092C3030E943E0584FD4A
:102BE00047C01092C8031092C70342C0019709F072
:102BF0003FC00E94290D1092780810927708109219
:102C00007A081092790885EF92E00E941A0D2AE066
:102C100030E042E850E06AE070E080E090E00E943E
:102C2000950C1092780810927708B0927A08A092CA
:102C300079080FE118E0D8015E968D919C915F971D
:102C40000E94870C085F1F4FB8E007341B0799F7F5
:102C50000E943E0587FF04C01092C4031092C30374
:102C60000E943E0587FD04C01092CA031092C9035A
:102C70000E943E0586FF08C0F092B703E092B603BB
:102C80001092CC031092CB030091B6031091B703BE
:102C90000130110509F004C20E94290D1092780834
:102CA0001092770810927A081092790886E093E0E3
:102CB0000E941A0D2AE030E042E850E06AE070E03D
:102CC00080E090E00E94950C1092780810927708AE
:102CD000B0927A08A09279088EE093E00E94870C67
:102CE0000E943E0587FF07C08091C9039091CA03E7
:102CF000892B09F4EBC20E943E0584FF07C0809136
:102D0000C7039091C803892B09F4EEC28091CB03CD
:102D10009091CC03059724F01092CC031092CB0332
:102D20008091CB039091CC0397FF04C05092CC03C9
:102D30004092CB03E091CB03F091CC0303E0EE0F84
:102D4000FF1F0A95E1F7E15EF74F868D978D0E9490
:102D50001A0D0E943E05482F487083FF07C08091DE
:102D6000C5039091C603892B09F4CCC20E943E058D
:102D700085FF64CB1092B7031092B6035FCB0E941D
:102D8000290D109278081092770810927A08109204
:102D9000790884E293E00E941A0D2AE030E042E8CC
:102DA00050E06AE070E080E090E00E94950C1092A4
:102DB000780810927708B0927A08A09279080E9459
:102DC0003E0587FF07C08091C9039091CA03892BF4
:102DD00009F4BFC20E943E0584FF07C08091C7036B
:102DE0009091C803892B09F4C2C20E943E0582FF5C
:102DF0000AC082E090E09093B3038093B2031092F4
:102E0000CC031092CB038091C3039091C403892B10
:102E100009F04BC08091CB039091CC03029724F032
:102E20001092CC031092CB038091CB039091CC03F2
:102E300097FF04C0F092CC03E092CB038091CB03C8
:102E40009091CC03009719F0019721F015C08AE208
:102E500093E010C02091210830912208809123082E
:102E600090912408281739071CF48DE393E002C0E1
:102E70008AE493E00E941A0D0E943E0583FF15C06C
:102E80008091C5039091C603892B79F4F092C60313
:102E9000E092C5038091CB039091CC03009709F099
:102EA00074C2F092C403E092C3038091C303909173
:102EB000C403019709F076C08091CB039091CC03B5
:102EC000039724F01092CC031092CB038091CB0394
:102ED0009091CC0397FF06C082E090E09093CC03E2
:102EE0008093CB030E94290DE091CB03F091CC039A
:102EF000A3E0EE0FFF1FAA95E1F7EC5EFE4F848181
:102F000095810E941A0D84E392E00E941A0DE091CF
:102F1000CB03F091CC03B3E0EE0FFF1FBA95E1F7BE
:102F2000EC5EFE4F868197810E94310E86E592E02D
:102F30000E94870CE091CB03F091CC0313E0EE0FDD
:102F4000FF1F1A95E1F7EC5EFE4F20912F0830919C
:102F50003008868197812817390724F48CE593E09F
:102F60000E941A0D0E943E0583FF1CC08091C5037C
:102F70009091C603892BB1F48091CB039091CC033F
:102F8000FC0173E0EE0FFF1F7A95E1F7EC5EFE4F58
:102F900040912F08509130082681378142175307FE
:102FA0000CF014C28091C3039091C403029709F0FE
:102FB00045CA8091CB039091CC03059724F01092E1
:102FC000CC031092CB038091CB039091CC0397FF5D
:102FD00004C05092CC034092CB030E94290D8FE68F
:102FE00093E00E94870C88E893E00E941A0D80917C
:102FF000CB039091CC030E94310E84E392E00E94B7
:103000001A0DE091CB03F091CC0363E0EE0FFF1FAC
:103010006A95E1F7E15EF74F868D978D0E94870CE8
:103020000E943E0583FF0ACA8091C5039091C603A2
:10303000892B09F003CA8091B4039091B503A09144
:10304000CB03B091CC0323E0AA0FBB1F2A95E1F775
:10305000A75CB74F33E0880F991F3A95E1F78C5E74
:103060009E4F28E0FC0101900D922A95E1F72091F6
:103070002F0830913008DC0116968D919C9117979E
:10308000F901E81BF90BF0933008E0932F08109238
:10309000C4031092C303F092C603E092C503CEC9E5
:1030A0000E94530E80E090E0892B11F40C94AE0F37
:1030B0000E9400000C94A50FF092CA03E092C9038D
:1030C0008091CB039091CC0301969093CC03809395
:1030D000CB034BC8F092C803E092C7038091CB03A7
:1030E0009091CC0301979093CC038093CB0348C875
:1030F000F092C603E092C5038091CB039091CC037C
:1031000081309105A9F52AE931E030932008209318
:103110001F0824E130E030932208209321083093E7
:10312000240820932308D0922608C09225082AE07C
:1031300030E0309328082093270810922A08109234
:103140002908D0922C08C0922B0828EF30E0309349
:103150002E0820932D08E9E3F8E0DF011D924A953F
:10316000E9F790933C0880933B0887ED91E0A1C874
:103170008230910509F068C82EED31E030932008C7
:1031800020931F082AE030E0309322082093210882
:1031900030932408209323081092260810922508C3
:1031A000109228081092270830932A0820932908A3
:1031B00030932C0820932B082CEB30E030932E0812
:1031C00020932D08E9E3F8E0DF011D924A95E9F725
:1031D000F0923A08E092390823EE31E030933E084D
:1031E00020933D0828E0A1E3B8E001900D922A95D4
:1031F000E1F71092CC031092CB036CC8F092CA0393
:10320000E092C9038091CB039091CC0301969093F7
:10321000CC038093CB03A8C8F092C803E092C70305
:103220008091CB039091CC0301979093CC03809332
:10323000CB03A5C882309105D4F4892B09F0FEC8D0
:10324000D092B303C092B2030DC0039709F0F6C841
:10325000E6E0F0E0F093B303E093B2031092CC0306
:103260001092CB031092C4031092C303E7C88230BC
:10327000910559F70E94D106E1C8F092CA03E09285
:10328000C9038091CB039091CC0301969093CC031A
:103290008093CB034FCAF092C803E092C70380919A
:1032A000CB039091CC0301979093CC038093CB03F5
:1032B0004CCA8130910509F088CA9093BE0380936F
:1032C000BD039093C1038093C0037FCA1093CA03C8
:1032D0000093C9038091CB039091CC030196909306
:1032E000CC038093CB0307CDF092C803E092C703D1
:1032F0008091CB039091CC0301979093CC03809362
:10330000CB0304CDE091CB03F091CC0353E0EE0F5F
:10331000FF1F5A95E1F7E15EF74F628D738D248DA3
:10332000358D868D978DE1E3F8E011924A95E9F7A6
:103330007093320860933108309334082093330837
:1033400090933608809335081092B7031092B60315
:103350000DCDF092CA03E092C9038091CB03909106
:10336000CC0301969093CC038093CB0333CDF092A2
:10337000C803E092C7038091CB039091CC030197DF
:103380009093CC038093CB0330CD019709F08DCD82
:1033900080912F0890913008181619060CF085CDF1
:1033A000209123083091240840912108509122084F
:1033B000421753070CF079CD30932208209321084F
:1033C00001979093300880932F086FCDF092C60339
:1033D000E092C5039093B5038093B40382E090E03C
:1033E0009093C4038093C303DDCD0F931F93CF93BA
:1033F000DF938C0181E090E00E94071C80FF31C0C8
:103400008AE090E00E94071C9FEF980F9E3F48F5CE
:1034100022E330E0D80157963C932E93569728E349
:1034200030E059963C932E935897CBE0D0E0D801EA
:10343000ED91FC910190F081E02D682FC801099574
:10344000CE010E94071C2196C131D10581F70E944F
:10345000530E88EE93E0DF91CF911F910F910C9462
:10346000EF04DF91CF911F910F91089504970C9471
:10347000F519CF92DF92EF92FF920F931F93CF93A4
:10348000DF931F92CDB7DEB7182F062FE42E862FBD
:10349000880F8E5F99830E94B40E83E00E94B40E61
:1034A000F12EC12E9981D92E8C2D8F19801798F469
:1034B000F601E7FE02C0849101C080810E94B40E33
:1034C000182F80E00E94B40E8123FFEFCF1ADF0A8D
:1034D0008111EACF01C081E00F90DF91CF911F9160
:1034E0000F91FF90EF90DF90CF90089510928E088B
:1034F00010928D0888EE93E0A0E0B0E080938F08F2
:1035000090939008A0939108B093920887E391E07C
:1035100090938C0880938B088FEF9FEF909398087F
:10352000809397088EE691E09093200880931F087F
:103530001092240810922308109222081092210859
:103540001092260810922508109228081092270839
:1035500010922A081092290810922C0810922B0819
:103560001092300810922F0880E090E020E030E0C8
:1035700048E068E671E0285F3F4F85309105A4F48C
:10358000FC01A3E0EE0FFF1FAA95E1F7E75CF74F00
:10359000DF01542F1D925A95E9F7F901E15EF74FCB
:1035A000778B668B0196E7CF8EE691E09093DE07EE
:1035B0008093DD071092E2071092E1071092E00776
:1035C0001092DF071092E4071092E3071092E607CB
:1035D0001092E5071092E8071092E7071092EA07A9
:1035E0001092E9071092EE071092ED0780E090E04C
:1035F00020E030E048E068E671E0285F3F4F85302A
:103600009105A4F4FC0153E0EE0FFF1F5A95E1F77A
:10361000E950F84FDF01542F1D925A95E9F7F9014F
:10362000E352F84F778B668B0196E7CF10926408D0
:103630001092630810926A0810926B0880E18093E0
:103640006C088FEF9FEF9093690880936808109241
:1036500071081092720810927308109274081092F8
:10366000750889E491E0909362088093610887E58A
:1036700091E0909366088093650810927808109204
:10368000770810927A081092790881E080937B087D
:1036900010927C0880937D0810927E0808958F9286
:1036A0009F92AF92BF92CF92DF92EF92FF92CF9311
:1036B000DF93EC01688179818A819B8161157105B5
:1036C0008105910521F464E279ED8BE597E02DE128
:1036D00033EF41E050E00E941D1C49015A019B015B
:1036E000AC01A7EAB1E40E943C1C6B017C01ACEE8A
:1036F000B4EFA50194010E944A1CDC01CB018C0DA2
:103700009D1DAE1DBF1DB7FF03C00197A109B048A5
:1037100088839983AA83BB839F77DF91CF91FF90A2
:10372000EF90DF90CF90BF90AF909F908F900895D3
:103730000E944F1B08958CE091E00E944F1B08955A
:10374000A0E0B0E080930C0190930D01A0930E01D6
:10375000B0930F0108958F929F92AF92BF92CF9234
:10376000DF92EF92FF92CF93DF93EC016881798132
:103770008A819B81611571058105910521F464E2BF
:1037800079ED8BE597E02DE133EF41E050E00E94C9
:103790001D1C49015A019B01AC01A7EAB1E40E943A
:1037A0003C1C6B017C01ACEEB4EFA50194010E94BE
:1037B0004A1CDC01CB018C0D9D1DAE1DBF1DB7FF4A
:1037C00003C00197A109B04888839983AA83BB836A
:1037D000BC01CD019F77DF91CF91FF90EF90DF90FB
:1037E000CF90BF90AF909F908F9008950E94AB1B99
:1037F000089580E191E00E94AB1B08956093100151
:103800007093110180931201909313010895F99917
:10381000FECF92BD81BDF89A992780B50895262FD5
:10382000F999FECF1FBA92BD81BD20BD0FB6F894A5
:10383000FA9AF99A0FBE01960895052E97FB1EF489
:1038400000940E94341C57FD07D00E944F1C07FCB7
:1038500003D04EF40C94341C50954095309521952E
:103860003F4F4F4F5F4F08959095809570956195AC
:103870007F4F8F4F9F4F08950E94711CA59F900D01
:10388000B49F900DA49F800D911D11240895B7FF42
:103890000C943C1C0E943C1C821B930B0895A1E2DB
:1038A0001A2EAA1BBB1BFD010DC0AA1FBB1FEE1FBA
:1038B000FF1FA217B307E407F50720F0A21BB30B05
:1038C000E40BF50B661F771F881F991F1A9469F781
:1038D00060957095809590959B01AC01BD01CF01DD
:1038E0000895A29FB001B39FC001A39F700D811DD9
:1038F0001124911DB29F700D811D1124911D0895F9
:10390000AA1BBB1B51E107C0AA1FBB1FA617B70705
:1039100010F0A61BB70B881F991F5A95A9F7809521
:103920009095BC01CD01089597FB072E16F40094E5
:1039300007D077FD09D00E94801C07FC05D03EF41B
:10394000909581959F4F0895709561957F4F08954B
:10395000EE0FFF1F0590F491E02D099481E090E0B7
:0A396000F8940C94B31CF894FFCF08
:10396A00FFFFFFFF00E1000000000000010000006F
:10397A00010000000200000091030A00000002009A
:10398A0099030A000A000200A603140000C18081FC
:10399A00000000000000000C084708CC0822082D8F
:1039AA0008D008EE080000000084055604B004AFF1
:1039BA0004F519FCFF0000361A4869742062207465
:1039CA006F20737461727400454D505459006E75BE
:1039DA006C6C005069636B20796F757220636C613F
:1039EA0073732E0057617272696F72005374726F2B
:1039FA006E672041747461636B0054616E6B00489A
:103A0A00696768204865616C746820262044656689
:103A1A00656E7365004D6167650046617374206168
:103A2A006E6420667261696C0077617272696F7286
:103A3A000073776F726400536865696C64006D6126
:103A4A006765005374616666004D41494E204D45D5
:103A5A004E5500737461747300626174746C65000E
:103A6A00596F7520617265206661696E74656400BC
:103A7A00596F752063616E6E6F742066696768742A
:103A8A0000717569740073746F7265002068703A0A
:103A9A002000202F20002048500061747461636B5D
:103AAA0000646566656E6400566963746F727900B6
:103ABA0074616B65203220636F696E7300617320D5
:103ACA00796F7572207072697A65004220746F206E
:103ADA0072657475726E20746F206D656E75000D57
:103AEA000A00546865204172656E612050697474D9
:103AFA0069657320796F750054616B652061206375
:103B0A006F696E20746F206865616C00535441546C
:103B1A005320762D494E56203E4551505400204898
:103B2A00502000537472656E6774683A0044656683
:103B3A00656E73653A0053706565643A004D616756
:103B4A0069633A007374723A006465663A00436FB7
:103B5A00696E733A00494E56454E544F5259205E8B
:103B6A005354415453003C53544154532000536519
:103B7A006C656374206974656D20746F2065717556
:103B8A006970740053746F726500427579206E65AE
:103B9A0077206571756970746D656E74004845416A
:103BAA004C3A203120636F696E00596F75206E653B
:103BBA006564206E6F74206865616C00796F75208A
:103BCA006C61636B2074686520636F696E73007340
:103BDA00656C65637420736C6F7420696E20696EFE
:103BEA0076656E746F727900736C6F7420233A2055
:103BFA00004B6C65617665720042726F6164205396
:0E3C0A006869656C64004B6174616E61000056
:00000001FF
