:100000000C9486060C94AE060C94AE060C94AE06C8
:100010000C94AE060C94AE060C94AE060C94AE0690
:100020000C94AE060C94AE060C94830F0C94F50F52
:100030000C94AE060C94AE060C94AE060C94AE0670
:100040000C94AE060C94AE060C94AE060C94AE0660
:100050000C94AE060C94AE060C94AE060C944E07AF
:100060000C94AE060C94AE060C94AE060C94AE0640
:100070000C94AE060C94AE060C94AE060C94AE0630
:100080000C94AE060C94AE060C94AE060C94AE0620
:100090000C94AE060C94AE060C94AE060C94AE0610
:1000A0000C94AE060C94AE060C94AE06A5169F16E4
:1000B0006118C719381D991A1919361DF0F89C8E48
:1000C0008783878E9CF8F00000FEFF030303030381
:1000D000070EFCF80000FEFF0303030303070EFCFA
:1000E000F80000FFFF00000000000000FFFF00001C
:1000F000FEFF8383838383C7EE7C380000F8FC0E09
:1001000007030303070EFCF800003F7FE0C0808078
:10011000C0E07F3FFFFF01010101010101FFFF007E
:1001200000FFFF0C0C0C0C1C3E77E3C100007FFFAE
:10013000C0C0C0C0C0E0703F1F00001F3F70E0C0E3
:10014000C0C0E0703F1F00007FFFC1C1C1C1C1E35B
:10015000773E1C00001F3F70E0C0C0C0E0703F1F32
:10016000000000000001FFFF01000000D5F08D1429
:10017000A1C881CFD9F1AF200070C070C13204CACC
:10018000F498B4EAB498F4CA24C271C070000C1791
:100190002DEAF4744D6FACD5ACAF4D7462970B057E
:1001A000000000000C060B0B080F0D00000D0F0FD8
:1001B000080B0A060C20B8FEF4500067FA6C1C6CA1
:1001C000F86C0702000000000001181F3830186C9E
:1001D000BEDD87DDBE663C183870E0000000000020
:1001E00000000E030E0103010E070E0000010301C3
:1001F00000F00C8262F1D96975B56565A57569D99C
:10020000F162820CF007C833889C252B4A52525267
:10021000524A2B259C8833C807000304080B0809A1
:100220000A0A0A0A0A0A09080B0804030001020460
:10023000081020408000000000003E5B4F5B3E3E07
:100240006B4F6B3E1C3E7C3E1C183C7E3C181C5782
:100250007D571C1C5E7F5E1C00183C1800FFE7C326
:10026000E7FF0018241800FFE7DBE7FF30483A06F5
:100270000E2629792926407F050507407F05253F61
:100280005A3CE73C5A7F3E1C1C08081C1C3E7F144D
:10029000227F22145F5F005F5F06097F017F006697
:1002A00089956A606060606094A2FFA29408047EF1
:1002B000040810207E201008082A1C08081C2A08A0
:1002C000081E101010100C1E0C1E0C30383E38305A
:1002D000060E3E0E06000000000000005F00000059
:1002E00007000700147F147F14242A7F2A12231387
:1002F00008646236495620500008070300001C229B
:1003000041000041221C002A1C7F1C2A08083E08CC
:1003100008008070300008080808080000606000CD
:1003200020100804023E5149453E00427F400072C1
:10033000494949462141494D331814127F10274538
:100340004545393C4A494931412111090736494956
:100350004936464949291E00001400000040340077
:10036000000008142241141414141400412214082B
:1003700002015909063E415D594E7C1211127C7FE3
:10038000494949363E414141227F4141413E7F49F1
:100390004949417F090909013E414151737F0808DC
:1003A000087F00417F41002040413F017F08142227
:1003B000417F404040407F021C027F7F0408107F45
:1003C0003E4141413E7F090909063E4151215E7F80
:1003D00009192946264949493203017F01033F4053
:1003E00040403F1F2040201F3F4038403F631408DB
:1003F000146303047804036159494D43007F41416C
:10040000410204081020004141417F04020102041E
:100410004040404040000307080020545478407F8B
:10042000284444383844444428384444287F3854C5
:1004300054541800087E090218A4A49C787F08046C
:10044000047800447D40002040403D007F10284457
:100450000000417F40007C047804787C0804047824
:100460003844444438FC1824241818242418FC7CEC
:1004700008040408485454542404043F44243C40D1
:1004800040207C1C2040201C3C4030403C44281034
:1004900028444C9090907C4464544C44000836416D
:1004A000000000770000004136080002010204024B
:1004B0003C2623263C1EA1A161123A4040207A38F6
:1004C0005454555921555579412154547841215559
:1004D00054784020545579400C1E527212395555AB
:1004E0005559395454545939555454580000457C81
:1004F000410002457D420001457C40F0292429F05D
:10050000F0282528F07C545545002054547C547C18
:100510000A097F4932494949323248484832324A09
:100520004848303A4141217A3A42402078009DA023
:10053000A07D39444444393D4040403D3C24FF24A3
:1005400024487E4943662B2FFC2F2BFF0929F620D8
:10055000C0887E090320545479410000447D413015
:1005600048484A32384040227A007A0A0A727D0DA1
:1005700019317D2629292F28262929292630484D59
:100580004020380808080808080808382F10C8ACA8
:10059000BA2F102834FA00007B000008142A142215
:1005A00022142A14089500220095AA005500AAAA30
:1005B00055AA55AA000000FF00101010FF001414E7
:1005C00014FF001010FF00FF1010F010F0141414AE
:1005D000FC001414F700FF0000FF00FF1414F404E3
:1005E000FC141417101F10101F101F1414141F00D8
:1005F000101010F0000000001F101010101F10103D
:100600001010F010000000FF10101010101010104B
:1006100010FF10000000FF140000FF00FF00001F8B
:1006200010170000FC04F414141710171414F40429
:10063000F40000FF00F714141414141414F700F756
:10064000141414171410101F101F141414F4141081
:1006500010F010F000001F101F0000001F14000019
:1006600000FC140000F010F01010FF10FF14141420
:10067000FF141010101F00000000F010FFFFFFFF1C
:10068000FFF0F0F0F0F0FFFFFF0000000000FFFFC0
:100690000F0F0F0F0F38444438447C2A2A3E147E33
:1006A00002020606027E027E026355494163384417
:1006B000443C04407E201E2006027E020299A5E7EB
:1006C000A5991C2A492A1C4C7201724C304A4D4D86
:1006D000303048784830BC625A463D3E494949006E
:1006E0007E0101017E2A2A2A2A2A44445F4444408A
:1006F000514A444040444A51400000FF0103E08019
:10070000FF000008086B6B083612362436060F0906
:100710000F06000018180000001010003040FF0104
:1007200001001F01011E00191D1712003C3C3C3C3A
:100730000000000000000080000000001050DCFEFF
:100740001910000000000000000001FE09783818B0
:1007500018F8FBFFF8F00000000000000000000F98
:1007600000000000000F0F0F0F0F0E0C0808000014
:10077000000000066BF4F87C7CBC7C7CBC7C7CF8C4
:10078000F46B06000078A414FC14ABFFFEEED6AEAA
:10079000D6EEFFFB2438F0E00000000101010F0B52
:1007A000050B0D0F0B050B0F00070F0F0700FC02C9
:1007B000F9FE000000E0B0B8F8EC00000000000016
:1007C0000004073C1F373418B8EDF7BFE7FDB81831
:1007D000F0E000000000000000000C0F0F0301011A
:1007E00001030F0C08000000000000800000000062
:1007F0001050DCFE1910000000000000000001FE97
:100800000978381818F8FBFFF8F000000000000025
:100810000000000F00000000000F0F0F0F0F0E0C64
:1008200008080000000000066BF4F87C7CBC7C7CAF
:10083000BC7C7CF8F46B06000078A414FC14ABFFBD
:10084000FEEED6AED6EEFFFB2438F0E0000000014D
:1008500001010F0B050B0D0F0B050B0F00070F0F01
:100860000700000000000000000000000000000081
:100870000000000000000000000000000000000078
:100880000000000000000000000000000000000068
:100890000000000000000000000000000000000058
:1008A0000000000000000000000000000000000048
:1008B0000000000000000000000000000000000038
:1008C0000000000000000000000000000000000028
:1008D0000000000000000000000000000000000018
:1008E00000000000000000000000000000000818E8
:1008F0003870F0F0E0E0E0F0F0F0E0E0E060606040
:10090000607070F0F0F0F0F0F07010000000000087
:1009100000000000000000000000000000000000D7
:1009200000000000000000000000000000000000C7
:1009300000000000000000000000000000000000B7
:1009400000000000000000000000000000000000A7
:100950000000000000000000000000000000000097
:10096000001C1C1C1C1C1C1C1C1C1C1C1C1C1C1CE3
:100970000000C1FFFFFFFFC783010000000000006F
:1009800000000000010100000080E0F0E0C0000075
:100990000030F0F0F0707878783818181838383857
:1009A00038101000000008081CFCF8F000000000DF
:1009B000000000000000C0F0F87830000010383867
:1009C00038383870F0F0F0F0707878787070702007
:1009D0000000000000000000000000000000000017
:1009E000001C1C1C1C1C1C1C1C1C1C1C1C000000B7
:1009F00080FEFFFF3F1F1F0F0F0F0F0E0E0E0E1E6C
:100A00001E1E0E03000080E0FCFFFF3F0F000000F1
:100A1000FEFF8701000000000000207070E0E0E0B1
:100A2000E0202000000000C0FEFF7F3D1C1C1C1CBD
:100A3000183878F8FCFFFF1F0100000000000000DC
:100A40000080E0F8FFFF7F0700E0E0E7E7E7E7E787
:100A5000E7E7E7E7E7E7E7E7E7E7E7E7E7E7E7E726
:100A6000E70707C7C7C78707070707272030383EAC
:100A70003F3F1F0700000070F0F0E0C08000002042
:100A800020202030383E3F3F3F1F03000000000081
:100A900021272F3E3C3C3C38383838383C1E0F0765
:100AA00001002020383C1F0F0300000000404040A0
:100AB00070783C3F1F070000000000404040607815
:100AC0003E3F1F07030000003838383838383838C0
:100AD0003838383838383838383838383838383896
:100AE0003800000103070F0F0E0E0E0E0E0E0E0E35
:100AF0000E0E0E0E0E0E0E0ECEEFFFFF7F1F1E1EF1
:100B00001E3E3E3E3E3E3E3E7E7E7E7E7E7E7E7E25
:100B1000FEFEFEFEFEFCFCFCFCFCFCF8F8F8F8F81F
:100B2000F8F8F8F8F8F8F0F0F0F0F0F0F0F0F0F095
:100B3000F0F0E0E0E0E0E0E0E0E0E0F0F0F0F0F045
:100B4000F0F0F8F8F8F8F8F8F8F87C7C7C3C3C3CDD
:100B50001C1E1E0E0E000000000000000000000021
:100B600000301C1E1E0F0F0F0F0F1E3E3C3030308A
:100B70003038181C1C1C1C3C79F9F1C0C0E0E0E0C6
:100B8000F070383838383870F0E0C0C0E0E0E0E0AD
:100B9000E0604040E040C0C1C1C1C1C181810103EA
:100BA000030303030303030303070707078787C739
:100BB000C7C7C7CF8F8F0F0F0F0F0F0F0F07070775
:100BC00003030381C1C1C0E0E0E0E0E0C0C080C039
:100BD000E0F8FCFCFEFEFE7E3E1C1C18101030608F
:100BE000E00E0703070F0F0E0C08081818181C3E1C
:100BF0003E1E1E1E1C1818181810232120004040ED
:100C000060703838181838306061E1E1F171337183
:100C1000F0E0C0C0E0F070313171E1C181C3C7CCF8
:100C2000CCC4860606060E1E3F8FC7C3C1C1C18154
:100C30000103070F3F1F0F040686C6C6CEDCD89CF3
:100C40000C0EC7E3F1703070F1E3C7DFE7F37131E9
:100C5000303060C0E1F3703030383C3E3E1E1E0E36
:100C60000C0403090412010002EF02014041233683
:100C70008000010102030141726475696E6F204CAE
:100C80004C430041726475626F790000FC02F9FE0A
:100C9000000000E0B0B8F8EC000000000000000424
:100CA000073C1F373418B8EDF7BFE7FDB818F0E080
:100CB00000000000000000000C0F0F030101010301
:100CC0000F0C0800000000080B00020202010009DE
:100CD00004000001020200000524001001052401A7
:100CE0000101042402060524060001070581031002
:100CF000004009040100020A00000007050202404A
:100D0000000007058302400000004F1D11241FBE94
:100D1000CFEFDAE0DEBFCDBF14E0A0E0B1E0E2EA61
:100D2000FFE302C005900D92A035B107D9F729E085
:100D3000A0E5B4E001C01D92A939B207E1F716E0C1
:100D4000C6E8D6E004C02197FE010E94C41FC53842
:100D5000D107C9F70E9460150C94CF1F0C940000B6
:100D6000CF92DF92EF92FF920F931F93CF93DF9377
:100D70006C017A018B01C0E0D0E0CE15DF0589F06F
:100D8000D8016D918D01D601ED91FC910190F0811A
:100D9000E02DC6010995892B11F47E0102C0219630
:100DA000ECCFC701DF91CF911F910F91FF90EF9092
:100DB000DF90CF9008953FB7F894809152049091BE
:100DC0005304A0915404B091550426B5A89B05C0C6
:100DD0002F3F19F00196A11DB11D3FBFBA2FA92FBA
:100DE000982F8827820F911DA11DB11DBC01CD0137
:100DF00042E0660F771F881F991F4A95D1F7089523
:100E00002D9A08958EBD00000DB407FEFDCF089504
:100E10000895089580E090E008950E94CA1F8F927F
:100E20009F92AF92BF92CF92DF92EF92FF926B01AF
:100E30007C010E94DB064B015C01C114D104E1047A
:100E4000F104F1F00E94DB06DC01CB01881999095D
:100E5000AA09BB09883E9340A105B10570F321E0C2
:100E6000C21AD108E108F10888EE880E83E0981EC6
:100E7000A11CB11CC114D104E104F10419F7DDCFA8
:100E8000FF90EF90DF90CF90BF90AF909F908F90AA
:100E90000895BC0180E090E00C940F071F920F9220
:100EA0000FB60F9211242F933F938F939F93AF937D
:100EB000BF938091560490915704A0915804B0912B
:100EC00059043091510423E0230F2D3720F401966B
:100ED000A11DB11D05C026E8230F0296A11DB11D5D
:100EE000209351048093560490935704A093580480
:100EF000B09359048091520490915304A0915404EA
:100F0000B09155040196A11DB11D80935204909398
:100F10005304A0935404B0935504BF91AF919F9193
:100F20008F913F912F910F900FBE0F901F901895AA
:100F30008FB12CB193B130E02095309520743327D8
:100F4000A90123E0559547952A95E1F7292F30E02F
:100F50002095309520713327359527953595279520
:100F6000242B8095807F822B089583B7817F83BF58
:100F700083B7816083BF889583B78E7F83BF0895D1
:100F800060387105D0F440345105B8F4EDE2F2E078
:100F900080E1849FD001A0781124A60F4770E40F50
:100FA000F11D8491A557BB4F222319F06C91862B1C
:100FB00003C080956C9186238C9308952F923F9265
:100FC0004F925F926F927F928F929F92AF92BF9259
:100FD000CF92DF92EF92FF920F931F93CF93DF9305
:100FE000CDB7DEB729970FB6F894DEBF0FBECDBFE1
:100FF000FC016A3069F4248D808D918D38E0239F47
:10100000800D911D1124918F808F178A168AAAC096
:101010006D3009F4A7C099878887F48C338C228CB3
:10102000608C718C0689178900381105C4F0A88579
:10103000B9855C962C915C97422F50E056968D9125
:101040009C915797B6E02B9F800D911D1124E88548
:10105000F985978B868B258D21116EC083C0F0E4B6
:101060006F16710424F7C80125E0F29E800D911DD2
:10107000112418161906DCF68F2D90E09C838B83C3
:10108000C301A8E0FA9E800D911D112418161906BF
:1010900074F6B5E06B9FB0011124FB01EB5CFD4FD2
:1010A000FA83E98330E08885998504969E838D8351
:1010B000E981FA81E490353009F4E12C430188E0BC
:1010C000482EE0FC02C0532C01C0522C51100BC022
:1010D000321009C0E6944A948B819C81880E991E37
:1010E0004110EFCF1BC068018C2D801B8F1590F72E
:1010F00054018A2D88198F1568F4252DA501B60194
:101100008D819E813F830E94C0079FEFA91AB90A73
:101110003F81EFCFAFEFCA1ADA0AE6CF3F5FEB812C
:10112000FC810E0F1F1F89819A8101969A83898302
:10113000363009F0BDCF7BCF6AEF64039001659F25
:10114000300D112420583F4F281739075CF4A8852B
:10115000B985ED91FC9111970190F081E02D6AE045
:10116000CD01099581E090E029960FB6F894DEBF95
:101170000FBECDBFDF91CF911F910F91FF90EF90E8
:10118000DF90CF90BF90AF909F908F907F906F90A7
:101190005F904F903F902F900895CF93DF93CDB7FE
:1011A000DEB7C055D1090FB6F894DEBF0FBECDBF74
:1011B00080916F0481110FC10E94621481E08093BD
:1011C0006F04109273041092720481E090E0909387
:1011D0006E0480936D0480916B0490916C04009771
:1011E00009F04DC080E090E020E030E04AE06DE79B
:1011F00071E0265F3F4F85309105DCF4489FF00198
:10120000499FF00D1124A1E0B0E0AC0FBD1FEA0F23
:10121000FB1F7E96DF01542F1D925A95E9F7E1E0FE
:10122000F0E0EC0FFD1FE20FF31F738F628F01964A
:10123000E0CF83E891E09A83898389E190E09C8301
:101240008B839E838D8388E090E098878F839A8735
:10125000898726E030E03C872B879E878D871A8A16
:10126000198A1C8A1B8A80E5FE013196ABE8B8E03A
:1012700001900D928A95E1F781EF91E0A8C081304D
:10128000910509F051C080E090E020E030E04AE0B4
:101290006DE771E0265F3F4F85309105DCF4489F94
:1012A000F001499FF00D1124A1E0B0E0AC0FBD1F8B
:1012B000EA0FFB1F7E96DF01542F1D925A95E9F726
:1012C000E1E0F0E0EC0FFD1FE20FF31F738F628F80
:1012D0000196E0CF89E891E09A8389838EE190E0DE
:1012E0009C838B839E838D8384E190E098878F839A
:1012F00086E090E09A87898782E090E09C878B87E0
:1013000084E090E09E878D871A8A198A1C8A1B8A3E
:1013100080E5FE013196ABE8B8E001900D928A9528
:10132000E1F785EB91E053C0029709F054C080E0EB
:1013300090E020E030E04AE06DE771E0265F3F4F4B
:1013400085309105DCF4489FF001499FF00D112490
:10135000A1E0B0E0AC0FBD1FEA0FFB1F7E96DF01DE
:10136000542F1D925A95E9F7E1E0F0E0EC0FFD1FD4
:10137000E20FF31F738F628F0196E0CF8FE891E049
:101380009A83898388E290E09C838B839E838D83FC
:1013900084E190E098878F838FE090E09A87898737
:1013A00084E090E09C878B8788E090E09E878D8723
:1013B0001A8A198A1C8A1B8A80E5FE013196ABE8DD
:1013C000B8E001900D928A95E1F789E791E090935A
:1013D0009A0880939908C05BDF4F0FB6F894DEBF80
:1013E0000FBECDBFDF91CF910C94CC0CCF92DF928A
:1013F000EF92FF920F931F93CF93DF93FC01EB01CA
:101400004115510569F5C884D98486819781E4889E
:10141000F5880E891F89EA81FB8163E070E00E94F4
:10142000B01FE60EF71EC6016BEF7FEF0E94B01FE4
:10143000060F171F0E0D1F1D2130310519F40C1951
:101440001D0904C0232B11F00250110910161106BA
:1014500024F03197FB83EA831AC0E01BF10BFACF2B
:1014600042305105A1F48485958597FD01969595A7
:101470008795288D398D820F931F181619063CF415
:101480002A813B81A901481B590B5B834A83DF9169
:10149000CF911F910F91FF90EF90DF90CF90089523
:1014A0000F931F93CF93DF9381EC80937C0085B1E2
:1014B000806F85B9249884B1866E84B95E9A5F98EE
:1014C0008AB1806D8AB9769A6E9881B3806F81BB3C
:1014D000899880B38D7080BB80E58CBD81E08DBD27
:1014E00085E090E00E9449075F9A85E090E00E94C5
:1014F00049075E985C98CCE6D1E01C2F135FFE0193
:1015000084910E94020721961C13F9CF5C9A81E80E
:101510008093640081E080936500C0E0D4E080E0C7
:101520000E9402072197D9F70E94980787FF1FC0E2
:101530005C9885EA0E9402075C9A2E982F982D9855
:10154000809164008062809364000E94B507FDCFA3
:101550002D980E9498078478843871F00E9498072B
:101560008471843131F188EC90E00E9449070E9437
:10157000980782FDEDCF3AC00E94000788EC90E00A
:101580000E9449072F9882E090E00E94231F8F3F1E
:1015900029F06FEF82E090E00E942B1F84EF91E032
:1015A0000E9449072F9A0E94980784788438D9F3BB
:1015B000D5CF0E94000788EC90E00E9449072E9842
:1015C00082E090E00E94231F882329F060E082E0FF
:1015D00090E00E942B1F84EF91E00E9449072E9A11
:1015E0000E94980784718431D9F3BDCF0E9400070F
:1015F00082E090E00E94231F882331F03E9A3F9AB8
:1016000081E08093500404C0109250043E983F98AB
:101610002E98CEEEDFEF0E94980786FF04C02E9A28
:101620002F9A2D9A39C0CC3F8FEFD80719F42E9AF4
:101630002F9805C0C831D10511F42F9A2D980E941A
:10164000551400E128E54CEB50E0BE0184E190E048
:101650000E94D1120E9476148BE190E00E9449070B
:10166000C03FEFEFDE0721F48AEF90E00E944907C8
:101670002196C931D10579F68CEB92E00E94490799
:101680000E940007E0912F09F09130090190F0814C
:10169000E02D8FE299E0099582E390E00E944907EE
:1016A0000E9498078111F8CF81E2809336098091DA
:1016B00064008E7F8093640080917A0080648093C0
:1016C0007A0080917A0086FDFCCFC0917800D0919D
:1016D00079000E94DB068E0120E030E0980111279E
:1016E0000027600F711F821F931F6115710581050F
:1016F000910511F00E941A1F80916400816080930F
:1017000064001092710410927004DF91CF911F91C8
:101710000F910C946214FC0180916A04811103C042
:101720008FEF9FEF08959FB7F89482E08093E900D0
:101730002091F20030E01216130614F421E030E09C
:101740002115310559F0289884E680936904809129
:10175000F10080838091F200882319F09FBFC901B6
:1017600008958BE68093E800F9CF2FB7F89483E0D3
:101770008093E9009091E800892F807295FF04C062
:101780009091F20080E4891B2FBF0895CF93DF93DF
:101790001F92CDB7DEB76983DC01ED91FC91028029
:1017A000F381E02D41E050E0BE016F5F7F4F09956E
:1017B0000F90DF91CF91089583E08093E9008091AD
:1017C000F200882319F08AE38093E80008950E94CC
:1017D000B50B90E00895CF93DF931F92CDB7DEB79E
:1017E000FC018485958597FD05C02FEF3FEF358778
:1017F00024870BC0CE0101960E948B0B019719F430
:10180000898190E002C08FEF9FEF0F90DF91CF9121
:1018100008950F931F93CF93DF931F92CDB7DEB739
:101820008C01FC018485958597FF0EC0CE01019641
:101830000E948B0B019719F4298130E002C02FEF31
:101840003FEFF80135872487F801848595850F904F
:10185000DF91CF911F910F910895FC0184859585AB
:1018600097FD0BC09FB7F89482E08093E9008091C8
:10187000F2009FBF90E0019608959FB7F89482E030
:101880008093E9008091F2009FBF90E008958F92CD
:101890009F92AF92BF92CF92DF92EF92FF920F93FF
:1018A0001F93CF93DF935C016B017A0180910B0151
:1018B000882309F45BC080916A04882309F456C028
:1018C0008091680480FF05C08091E0008260809371
:1018D000E000E70110E00AEF83E0882E9AE3992EFA
:1018E0002097D9F10E94B50B81110AC0015009F46B
:1018F0003DC061E070E080E090E00E940F07F0CF13
:10190000282F30E0C217D3070CF48C2F4FB7F89470
:101910008092E9009091E80095FF1DC0282F30E0EB
:10192000C21BD30BF601982F915020F08191809328
:10193000F100FACFC20ED31E112319F09092E800E5
:1019400009C08091E80085FD06C09092E80011E092
:10195000209709F010E04FBFC3CF1111C3CF5D989E
:1019600084E6809374041E141F0444F081E090E028
:10197000F5019383828380E090E001C0C701DF918D
:10198000CF911F910F91FF90EF90DF90CF90BF907C
:10199000AF909F908F9008950F931F93CF93DF93F5
:1019A0008091DD089091DE08181619060CF031C2FE
:1019B00080918D0890918E08181619060CF082C13E
:1019C0000E94621410924209109241091092440937
:1019D0001092430980918B0890918C080E94B71255
:1019E0008AEA93E00E94B71280918D0890918E0848
:1019F0000E94B9122AE030E041E450E06AE070E071
:101A000080E090E00E94D0138CE390E09093420934
:101A10008093410984E390E09093440980934309C3
:101A20008091DD089091DE080E94AD1282E992E07B
:101A30000E94B7128091DF089091E0080E94AD12D9
:101A400080EB93E00E94B7122EE330E048E750E0CD
:101A50006EE370E08AE390E00E94D0134091990811
:101A600050919A0804E124E160E070E085E590E09F
:101A70000E94D1124091E9085091EA0824E169E1FD
:101A800070E088E090E00E94D11220E330E040E373
:101A900050E060E370E082E090E00E94D0132AE31F
:101AA00030E040E350E06AE370E082E090E00E94C2
:101AB000D0132AE330E042E050E060E370E082E0DF
:101AC00090E00E94D0132AE330E040E350E060E36E
:101AD00070E080E390E00E94D01385E090E0909366
:101AE00042098093410982E390E0909344098093F6
:101AF00043098091890490918A04009709F077C086
:101B0000109288048091720490917304039724F0DA
:101B10001092730410927204809172049091730475
:101B200097FF06C082E090E0909373048093720464
:101B300080917204909173048130910541F082305C
:101B4000910541F0892B51F484EB93E005C08BEBB8
:101B500093E002C082EC93E00E94B71288E00E94FA
:101B60006B14882301F18091720490917304813089
:101B7000910551F08230910561F0892BA1F410920A
:101B800087041092860409C090938704809386048A
:101B900006C0909387048093860481E090E0909340
:101BA0008A04809389040E94B71E63E070E00E945B
:101BB000B01F8130910559F08230910589F0892B51
:101BC00009F088C110928504109284040DC090938E
:101BD00085048093840490938304809382047AC163
:101BE000909385048093840481E090E0F4CF019782
:101BF00009F070C18091820490918304019709F0EB
:101C000069C12091E5083091E6088091950890918E
:101C100096088217930724F481E08093810402C020
:101C2000109281049091810480918804992341F15C
:101C3000811150C1C0918404D09185040091860423
:101C4000109187049E01A8016BE878E08BED98E085
:101C50000E94F6099801AE016BED78E08BE898E000
:101C60000E94F60980913209909133096CE370E08B
:101C70000E949C1F892BF1F4CE010E94AD121AC064
:101C8000811128C1C0918604D091870400918404F9
:101C9000109185049E01A8016BED78E08BE898E037
:101CA0000E94F6099801AE016BE878E08BED98E0B0
:101CB0000E94F60981E08093880410928A041092B1
:101CC000890408C10E94621488E290E0909342095E
:101CD0008093410984E190E0909344098093430903
:101CE0008AEC93E00E949F1282ED93E00E949F1283
:101CF0008FED93E00E949F128DEE93E00E94B71249
:101D000084E00E946B14882309F4E4C082E090E030
:101D1000909371048093700410926F048091EB088B
:101D20009091EC0802969093EC088093EB088091D8
:101D30006D0490916E04019709F0CCC080916B0402
:101D400090916C04019690936C0480936B04809145
:101D5000ED089091EE0801969093EE088093ED08BF
:101D60008091DF089091E00805969093E0088093B9
:101D7000DF089093DE088093DD082091E108309120
:101D8000E208E3E0F0E0C901BF010E94B01F6F5F0D
:101D90007F4FC901860F971F9093E2088093E10857
:101DA000C091E308D091E408CE01BF010E94B01FAA
:101DB0009B012F5F3F4FCE01820F931F9093E4084A
:101DC0008093E308C091E508D091E608CE01BF01F9
:101DD0000E94B01F9B012F5F3F4FCE01820F931FC8
:101DE0009093E6088093E5082091E7083091E80891
:101DF000C901BF010E94B01F6F5F7F4F620F731F49
:101E00007093E8086093E70810926E0410926D04D6
:101E100061C00E94621482E090E090934209809336
:101E2000410984E190E0909344098093430981E063
:101E300094E00E949F128DEE93E00E949F12809189
:101E4000EB089091EC08181619064CF081E194E02B
:101E50000E949F1287E294E00E949F1204C088E3D0
:101E600094E00E94B7120E94980782FF33C082E07C
:101E700090E0909371048093700410926F048091AD
:101E8000DF089091E0089093DE088093DD08809150
:101E9000EB089091EC089C01225031093093EC083A
:101EA0002093EB0840916D0450916E044130510530
:101EB00069F410926E0410926D042230310554F0D2
:101EC00004979093EC088093EB0804C01092EC0800
:101ED0001092EB08DF91CF911F910F91089580919F
:101EE000790481110DC082E08093750484E08093B1
:101EF0007604109278041092770481E0809379043C
:101F000085E794E008951F920F920FB60F92112467
:101F10008F939F938091E1009091E100937F909344
:101F2000E10083FF0FC01092E90091E09093EB0075
:101F30001092EC0092E39093ED0010926A0498E006
:101F40009093F00082FF20C093E09093E90090917D
:101F5000F200992319F09AE39093E80090917404A9
:101F6000992339F0909174049150909374049923BB
:101F700089F190916904992339F090916904915005
:101F800090936904992341F184FF10C08091E2008D
:101F90008E7E81608093E2008091E1008F7E80934D
:101FA000E100809168048E7E806111C080FF16C0C0
:101FB0008091E2008E7E80618093E2008091E1005A
:101FC0008E7E8093E100809168048E7E8160809394
:101FD000680404C05D9ACDCF289AD6CF9F918F9187
:101FE0000F900FBE0F901F9018951F920F920FB673
:101FF0000F921124CF92DF92EF92FF920F931F93D3
:102000002F933F934F935F936F937F938F939F9300
:10201000AF93BF93EF93FF93CF93DF93CDB7DEB72B
:102020006C97DEBFCDBF1092E9008091E80083FF7E
:10203000EDC168E0CE0145960E940F1582EF8093B6
:10204000E8008D8987FF05C09091E80090FFFCCFE4
:1020500003C09EEF9093E800982F907609F0C6C0D9
:102060009E892F89188D91110CC0803829F4809198
:1020700067048093F10002C01092F1001092F10009
:1020800048C1422F50E0512B913051F4811141C190
:102090004130510509F03DC1809167048D7F0BC02F
:1020A000933061F4811135C14130510509F031C1DE
:1020B000809167048260809367042BC1953041F45E
:1020C0008091E80080FFFCCF20682093E30021C1CD
:1020D000963009F05FC0EB8CFC8C1092E9001092F6
:1020E000650410926404123091F51092630410920A
:1020F00062040E94DD1499E0BE016F5F7F4FDB0137
:10210000E92F1D92EA95E9F799831A8391E09E835E
:1021100090EA98879AEF998720916404309165043A
:10212000275F3F4F3C832B838D831092E9001092F1
:10213000650410926404F0926304E092620449E042
:1021400050E080E00E94B6140E94DD14E2C0F092DC
:102150006304E09262040E946F0FDC011296ED901E
:10216000FC901397E114F10409F4C0C0D701ED917C
:10217000FC910480F581E02DBE016B5E7F4FC701AD
:102180000995009719F00CF0C4C0C7C0F701E084AE
:10219000F184E8CF973009F4C0C0983021F481E091
:1021A0008093F100B6C0993009F0B3C0837009F094
:1021B000B4C0E1E5F1E081E021E036E390819923CC
:1021C00061F08093E9002093EB0091919093EC00F3
:1021D0003093ED008F5F873089F78EE78093EA00B8
:1021E0001092EA008F8980936A0493C08B8D9C8D36
:1021F0001092E900109265041092640490936304B5
:1022000080936204898D811156C08E899D89913A8F
:1022100059F4813209F081C047E050E064E071E098
:1022200080E00E94B61475C0913209F076C0833206
:1022300089F4888D90E0982F88272F89822BA0E041
:10224000B0E08093000190930101A0930201B0934C
:1022500003015FC0803269F48091E80082FFFCCF07
:1022600067E084E091E00E940F158BEF8093E80017
:1022700006C0823209F04DC08F8980930B01809196
:102280006604882319F0EEEFFAE002C0E0E0F8E01F
:102290008091040190910501A0910601B091070180
:1022A000803B9440A105B10509F07BC080910B01F2
:1022B00080FF93C076C00E946F0FDC0112960D91D3
:1022C0001C9113970115110541F1D801ED91FC9175
:1022D0000190F081E02DBE016B5E7F4FC801099532
:1022E000811117C0F80100851185ECCF113009F478
:1022F0004EC0133091F48F89882309F445C0823091
:1023000081F440E867E083E89CE00E942E1E882369
:1023100021F08EEF8093E80079C081E28093EB009A
:1023200075C0813029F440E86BE087E79CE0EDCF91
:10233000833099F70E946F0FDC011296ED90FC90AC
:1023400013978E010F5F1F4F6801E114F10479F0BC
:10235000D701ED91FC910680F781E02DB801C7010E
:102360000995080F111DF701E084F184EECFD80123
:102370001C92F60101900020E9F73197BF016C191A
:102380007D0940E0C601C1CF61E67CE002C065E6A0
:102390007CE06115710509F2FB01449150E080E891
:1023A00040CF0FB6F894A895809160008861809323
:1023B0006000109260000FBEA895EE3F2AE0F20781
:1023C00039F08091FE0A9091FF0A91838083A1CF1A
:1023D0001092FF0A1092FE0A9CCFEE3F8AE0F807A7
:1023E00031F0808191819093FF0A8093FE0A87E704
:1023F00097E7918380839BE088E10FB6F894A895D6
:10240000809360000FBE9093600083CF6C960FB6F0
:10241000F894DEBF0FBECDBFDF91CF91FF91EF915A
:10242000BF91AF919F918F917F916F915F914F91EC
:102430003F912F911F910F91FF90EF90DF90CF90E0
:102440000F900FBE0F901F901895009769F0FC0138
:1024500001900020E9F73197AF01481B590BBC01EF
:102460008BE299E00C94B00680E090E008958F92A2
:102470009F92AF92BF920F931F93CF93DF93CDB7ED
:10248000DEB7A1970FB6F894DEBF0FBECDBF19A27D
:10249000423008F44AE08E010F5D1F4F842E912CCC
:1024A000A12CB12CA50194010E946B1FE62FB9014C
:1024B000CA0101501109EA3014F4E05D01C0E95C81
:1024C000D801EC93232B242B252B61F7C8010E9404
:1024D0002512A1960FB6F894DEBF0FBECDBFDF91D7
:1024E000CF911F910F91BF90AF909F908F900895C3
:1024F000CF92DF92EF92FF92CF93DF936B017C013B
:10250000E0912B09F0912C090190F081E02D6DE212
:102510008BE299E00995EC0166277727CB016C19CE
:102520007D098E099F094AE00E9437128C0F9D1F7A
:10253000DF91CF91FF90EF90DF90CF900895CF93F0
:10254000DF930E942512EC018CE494E00E94251296
:102550008C0F9D1FDF91CF910895BC01990F880BBF
:10256000990B97FD0C9478124AE00C9437120C9456
:102570002512CF93DF93BC01990F880B990B97FF1E
:1025800003C00E94781203C04AE00E943712EC0197
:102590008CE494E00E9425128C0F9D1FDF91CF9157
:1025A00008952F923F924F925F926F927F928F92F7
:1025B0009F92AF92BF92CF92DF92EF92FF920F93D2
:1025C0001F93CF93DF93CDB7DEB728970FB6F8945C
:1025D000DEBF0FBECDBF5A01822E912C9C01280D6B
:1025E000391D37FDC4C0803891050CF0C0C09B0177
:1025F000200F311D37FDBBC0603471050CF0B7C032
:10260000AB0177FF04C044275527461B570B477083
:1026100055279B0177FF02C0295F3F4FE3E03595C7
:102620002795EA95E1F777FF08C02150310968E066
:1026300070E0DB01A41BB50BAD01602F66956695BC
:10264000669570E0077011F06F5F7F4FDB01A20F9E
:10265000B31FBA83A98339017694762C66247794C4
:102660006794680E791EE12CF12C00E010E0230144
:10267000B0E84B0E511C68E070E0DB01A41BB50B09
:10268000BC83AB8369817A812617370709F46FC051
:102690002830310509F46BC02F3FBFEF3B070CF426
:1026A0005BC0B201600F711FDB01A557BB4FBE833A
:1026B000AD83D801A60DB71DA557BB4F6C0160E0D7
:1026C00070E0681579050CF047C0E0E8CE16D1043B
:1026D00009F442C0D7FC34C02F3FFFEF3F0709F495
:1026E00042C0FB01EE0DFF1DEA0DFB1DE491042E1F
:1026F00001C0EE0F0A94EAF73C90E329EC934115F0
:102700005105F1F027303105D9F0FB01EE0DFF1D29
:10271000EA0DFB1DE4912E2E312CF1010B8002C03D
:10272000F595E7950A94E2F7F887EF83ED81FE814E
:102730003080EF81F885E3291F01ED81FE81208241
:102740006F5F7F4FED81FE813196FE83ED83FFEF5A
:10275000CF1ADF0A1196B5CF2F5F3F4F00581F4F9A
:10276000E80CF91C8FCF4115510579F6E9CF289671
:102770000FB6F894DEBF0FBECDBFDF91CF911F9192
:102780000F91FF90EF90DF90CF90BF90AF909F9010
:102790008F907F906F905F904F903F902F90089513
:1027A0005F926F927F928F929F92AF92BF92CF92E1
:1027B000DF92EF92FF920F931F93CF93DF93EC0181
:1027C0008B017A01A901461B570B57FF03C0519596
:1027D00041955109C7018C1B9D0B97FF03C0919533
:1027E00081959109552453948417950714F0512C21
:1027F0000AC09E2D8F2D7901292F382F9C2F8D2FC8
:10280000E801092F182FEC16FD0654F4902F812FA4
:102810008901292F382F9C2F8D2FE701E92EF82EC3
:1028200037016C1A7D0A5901A01AB10AB7FE03C01C
:10283000B194A194B108630177FE03C08FEFC81A69
:10284000D80AD594C7940217130714F08FEF01C06C
:1028500081E0882E880F9908EC16FD06B4F021E07F
:10286000552019F0AE01B80102C0A801BE018FE2E7
:1028700099E00E94C007CA18DB08D7FE04C0080D03
:10288000191DC60CD71C2196E7CFDF91CF911F9160
:102890000F91FF90EF90DF90CF90BF90AF909F90FF
:1028A0008F907F906F905F90089580E0EBE8F4E068
:1028B00081118FEF002481938193819381930394FD
:1028C000D1F708950E945514EBE2F9E0118E108EB5
:1028D000178A168A089520913509282329F49091A2
:1028E0003409982381E009F480E0089580918B04F5
:1028F0008EBDECE8F4E081910DB407FEFDCF8EBDF6
:1029000088E0EB38F807B9F70DB407FEFDCF08955E
:1029100040916404509165042091620430916304F5
:1029200042175307B4F49091E8009570E1F3909149
:10293000E80092FD19C08093F100809164049091A9
:10294000650401968F739927892B19F48EEF809374
:10295000E800809164049091650401969093650469
:102960008093640481E0089580E00895DF92EF92FF
:10297000FF920F931F93CF93DF93D82E8A017B0191
:10298000E40EF51EEB01CE15DF0571F0D7FE03C096
:10299000FE01849101C088810E94881421968111D2
:1029A000F2CF8FEF9FEF01C0C801DF91CF911F9150
:1029B0000F91FF90EF90DF9008950F931F93CF93A7
:1029C000DF931F92CDB7DEB782E0898342E450E007
:1029D00067EC7CE080E80E94B6140E946F0FDC0177
:1029E00012960D911C9113970115110569F0D801EC
:1029F000ED91FC910280F381E02DBE016F5F7F4F6E
:102A0000C801099597FF07C089810F90DF91CF9189
:102A10001F910F910895F80100851185E5CF615050
:102A200030F02091F100FC0120830196F8CF289826
:102A300084E68093690408950F931F93CF93DF93E7
:102A40008C0181E090E00E94231F80FF31C08AE06A
:102A500090E00E94231F9FEF980F9E3F48F522E3CE
:102A600030E0D80157963C932E93569728E330E0F8
:102A700059963C932E935897CBE0D0E0D801ED9136
:102A8000FC910190F081E02D682FC8010995CE01DD
:102A90000E94231F2196C131D10581F70E9476142F
:102AA00088EE93E0DF91CF911F910F910C9449072D
:102AB000DF91CF911F910F91089504970C941C15ED
:102AC000CF93DF93CDB7DEB7C055D1090FB6F894D9
:102AD000DEBF0FBECDBF789484B5826084BD84B55F
:102AE000816084BD85B5826085BD85B5816085BD09
:102AF00080916E00816080936E00109281008091C1
:102B00008100826080938100809181008160809348
:102B1000810080918000816080938000809191008D
:102B200082608093910080919100816080939100F8
:102B3000809190008160809390008091C1008460BA
:102B40008093C1008091C10082608093C100809118
:102B5000C10081608093C1008091C3008160809337
:102B6000C3008091C00082608093C0008091C20049
:102B700081608093C20080917A00846080937A00A3
:102B800080917A00826080937A0080917A008160DF
:102B900080937A0080917A00806880937A00109206
:102BA0006A0410926704109268048091D7008160D3
:102BB0008093D70080EA8093D80089B5806189BD71
:102BC00089B5826089BD09B400FEFDCF61E070E087
:102BD00080E090E00E940F078091D8008F7C806198
:102BE0008093D8008091E000807F8093E000809106
:102BF000E1008E7E8093E1008DE08093E200559AA3
:102C0000209AEEEFFFE7859194918B3F9C4D19F44C
:102C100081E0809366040E94500A3CE0A32EB12C10
:102C200044E0442E512CEE24E394F12C62E0862EF5
:102C3000912C85E0C82ED12C9BE4292E312C24E147
:102C4000622E712C2FB7F8948091560490915704FE
:102C5000A0915804B09159042FBF40913B09509165
:102C60003C0960913D0970913E0920913F09222362
:102C700041F020913709821B8093400910923F094F
:102C8000F9C684179507A607B70738F4481B4230E2
:102C900008F4F0C60E94B507EDC621E020933F0975
:102CA0008093370990933809A0933909B0933A0972
:102CB00020913609820F911DA11DB11D80933B0902
:102CC00090933C09A0933D09B0933E09809132094D
:102CD0009091330901969093330980933209809142
:102CE0003409809335090E9498078093340980E85D
:102CF0000E946B14882349F08091720490917304B0
:102D00000196909373048093720480E10E946B1487
:102D1000882349F0809172049091730401979093F5
:102D2000730480937204E0917004F0917104E830B0
:102D3000F10508F09DC6EA5AFF4F0C94C41F80E0CD
:102D400090E020E030E04AE027C00E94621400E4F6
:102D500020E841E658E060E070E080E090E00E940A
:102D6000D11289E190E09093420980934109109239
:102D700044091092430984E991E00E94B7120E942D
:102D8000980782FF75C6F0927104E0927004109269
:102D90007304109272046CC6265F3F4F8530910514
:102DA000D4F4489FF001499FF00D112461E070E0D8
:102DB0006C0F7D1FE60FF71F7E96DF01542F1D92CB
:102DC0005A95E9F7FB01E20FF31F6DE771E0738F8E
:102DD000628F0196E1CF83EA91E09A8389831C8216
:102DE0001B821E821D8218861F821A8619861C86E7
:102DF0001B861E861D861A8A198A1C8A1B8A80E5F4
:102E0000FE013196ABEDB8E001900D928A95E1F7A5
:102E10000E946214109242091092410910924409D2
:102E20001092430988EA91E00E94B7128DE494E081
:102E30000E94B7122AE030E042E850E06AE070E019
:102E400080E090E00E94D013109242091092410954
:102E5000B0924409A0924309809172049091730446
:102E6000039724F0109273041092720480917204FC
:102E70009091730497FF04C090927304809272043F
:102E8000809172049091730481309105B1F0823089
:102E9000910521F1892BA1F589EB91E00E949F1208
:102EA00004E124E14BE85CE06EE170E080E090E05A
:102EB0000E94D11281EC91E021C08FEC91E00E9440
:102EC0009F1204E124E145E258E06EE170E080E009
:102ED00090E00E94D11284ED91E010C08AEE91E062
:102EE0000E949F1204E124E149EE57E06EE170E098
:102EF00080E090E00E94D1128FEE91E00E94B71224
:102F000088E00E946B14882309F4B2C58091720492
:102F1000909173048130910509F447C08230910586
:102F200009F48BC0892B09F0A3C58EEF91E0909333
:102F3000DC088093DB088AE090E09093DE088093C1
:102F4000DD089093E0088093DF089093E208809377
:102F5000E108D092E408C092E308D092E608C0925B
:102F6000E5081092E8081092E7088DEA97E0909340
:102F7000EA088093E9088AE0A9EFB8E0E82F1D92FB
:102F8000EA95E9F7F092FA08E092F90826E032E0D3
:102F9000309300092093FF08E9EFF8E0AFEEB8E0C6
:102FA00001900D928A95E1F73FC02FEC31E030930C
:102FB000DC082093DB087092DE086092DD087092D6
:102FC000E0086092DF08D092E208C092E1082AE0AF
:102FD00030E03093E4082093E3081092E608109262
:102FE000E508D092E808C092E70821E737E030937F
:102FF000EA082093E9082AE0A9EFB8E0E22F1D9241
:10300000EA95E9F79093FC088093FB0886E993E042
:10301000909300098093FF08E9EFF8E0AFEEB8E085
:1030200001900D922A95E1F71092730410927204A8
:1030300090927104809270041BC52CE032E03093B2
:10304000DC082093DB082AE030E03093DE08209390
:10305000DD083093E0082093DF081092E208109218
:10306000E1081092E4081092E3083093E6082093F8
:10307000E5083093E8082093E70825E337E030932C
:10308000EA082093E9082AE0A9EFB8E0E22F1D92B0
:10309000EA95E9F7F092FE08E092FD0844EA53E071
:1030A000509300094093FF08E9EFF8E0AFEEB8E075
:1030B00001900D922A95E1F7109273041092720418
:1030C000B3C00E94621410924209109241091092FA
:1030D00044091092430981E192E00E94B7122AE06C
:1030E00030E042E850E06AE070E080E090E00E946A
:1030F000D0131092420910924109B0924409A09253
:1031000043098091720490917304059724F0109202
:10311000730410927204809172049091730497FF6B
:1031200004C0509273044092720480917204909192
:1031300073048230910511F12CF4009759F0019736
:1031400061F02CC083309105E1F0049739F58AE7EE
:1031500092E022C08BE192E01FC08091DD08909147
:10316000DE08181619061CF481E292E015C088E208
:1031700092E00E949F1288E392E00EC089E492E000
:103180000BC080916B0490916C0403971CF48EE447
:1031900092E002C08FE592E00E94B7120E94980769
:1031A00083FF66C48091720490917304823091050C
:1031B00039F12CF40097A1F00197B9F059C483308C
:1031C000910509F1049709F053C486E090E09093CB
:1031D0007104809370041092730410927204D2C030
:1031E000D0927104C0927004CDC08091DD0890919E
:1031F000DE08181619060CF03BC483E090E014C0FA
:103200000E94500A35C48091DD089091DE0818169E
:1032100019060CF02DC480916B0490916C040397F7
:103220000CF026C487E090E09093710480937004C2
:103230001FC40E9462141092420910924109109218
:1032400044091092430983E093E00E94B7122AE0F8
:1032500030E042E850E06AE070E080E090E00E94F8
:10326000D0131092420910924109B0924409A092E1
:1032700043090E94980782FF08C0909271048092CF
:103280007004109273041092720480916004909103
:103290006104892B09F410C380916004909161044A
:1032A000019709F46DC380916004909161040297C5
:1032B00009F0DEC38091720490917304059724F0A5
:1032C00010927304109272048091720490917304AE
:1032D00097FF04C050927304409272040E946214DB
:1032E0008EE493E00E949F1287E693E00E94B7125B
:1032F00080917204909173040E94AD1284E992E06F
:103300000E94B71280917204909173041AE0189F82
:10331000F001199FF00D1124E552F74F84A195A1FA
:103320000E949F1288E00E946B14882309F4A0C3B6
:1033300020915A0430915B0480917204909173043F
:10334000189FD001199FB00D1124A750B74F129F9D
:10335000C001139F900D11248C5E9E4F2AE0FC014A
:1033600001900D922A95E1F72091EB083091EC083D
:10337000FC0180859185A901481B590B5093EC08ED
:103380004093EB08109261041092600471C3809125
:103390006F048111CBC00E9462140E94B71E63E0CB
:1033A00070E00E94B01F81309105E1F182309105FB
:1033B00009F477C0892B09F0B2C08EEF91E09093A9
:1033C0008C0880938B088AE090E090938E0880931D
:1033D0008D089093900880938F0890939208809323
:1033E0009108D0929408C0929308D0929608C09207
:1033F000950810929808109297088DEA97E090939C
:103400009A08809399088AE0E9EAF8E0DF01282F1A
:103410001D922A95E9F7F092AA08E092A90826E001
:1034200032E073C02FEC31E030938C0820938B088E
:1034300070928E0860928D087092900860928F084A
:10344000D0929208C09291082AE030E0309394081C
:10345000209393081092960810929508D09298089D
:10346000C092970821E737E030939A082093990893
:103470002AE0E9EAF8E0DF01322F1D923A95E9F7F8
:103480009093AC088093AB0886E993E09093B008E2
:103490008093AF08AFE9B8E001900D922A95E1F76B
:1034A0003EC08CE092E090938C0880938B088AE079
:1034B00090E090938E0880938D089093900880936D
:1034C0008F0810929208109291081092940810920E
:1034D000930890939608809395089093980880930A
:1034E000970885E397E090939A08809399088AE07B
:1034F000E9EAF8E0DF01282F1D922A95E9F7F0921A
:10350000AE08E092AD0824EA33E03093B00820938F
:10351000AF08AFE9B8E001900D928A95E1F781E03C
:1035200080936F0410927304109272040E94CC0C6A
:103530009FC20E9462141092420910924109109297
:1035400044091092430980E892E00E94B7122AE0F1
:1035500030E042E850E06AE070E080E090E00E94F5
:10356000D0130E94980782FF04C090927104809249
:10357000700480915E0490915F04892B09F013C15F
:103580008091720490917304029724F01092730456
:1035900010927204809172049091730497FF04C09A
:1035A000F0927304E092720480917204909173041B
:1035B000009709F09DC01092420910924109B09203
:1035C0004409A09243098091DB089091DC080E9495
:1035D0009F128091DD089091DE080E94AD1282E971
:1035E00092E00E94B7128091DF089091E0080E945B
:1035F000AD1286E992E00E949F128BE992E00E9450
:10360000B7122091E1083091E2088091EF08909183
:10361000F008820F931F0E94B91285EA92E00E947F
:10362000B7122091E3083091E4088091F10890915D
:10363000F208820F931F0E94B9128EEA92E00E9454
:10364000B7128091E5089091E6080E94B91285EBC7
:1036500092E00E94B7122091E7083091E80880912B
:10366000F3089091F408820F931F0E94B9123092D0
:10367000420920924109B0924409A09243098CEB7F
:1036800092E00E94B7128091ED089091EE080E949E
:10369000AD12309242092092410970924409609221
:1036A00043098091F5089091F6080E949F1230928C
:1036B0004209209241098CE190E090934409809363
:1036C000430981EC92E00E94B7128091EB0890913F
:1036D000EC080E94AD124091E9085091EA0804E11B
:1036E00024E168E270E084E690E00E94D1124FC0CD
:1036F000019709F04CC00E94621410924209109286
:103700004109109244091092430988EC92E00E940A
:10371000B7122AE030E042E850E06AE070E080E072
:1037200090E00E94D0131092420910924109B09289
:103730004409A092430909EF18E0D80116968D912B
:103740009C9117970E94B71289ED92E00E94B712E0
:10375000F801808191810E94AD128DED92E00E946E
:10376000B712D80112968D919C9113970E94AD12B9
:1037700081EE92E00E94B712F801848195810E9447
:10378000B912065F1F4FF9E00B321F07B1F60E9416
:10379000980786FF08C0F0925F04E0925E041092E2
:1037A00073041092720480915E0490915F040197FB
:1037B00009F05EC10E946214109242091092410900
:1037C000109244091092430985EE92E00E94B712CC
:1037D0002AE030E042E850E06AE070E080E090E00B
:1037E0000E94D0131092420910924109B0924409EC
:1037F000A09243098DEE92E00E949F128091720484
:1038000090917304059724F010927304109272043F
:10381000809172049091730497FF04C050927304D6
:103820004092720480917204909173041AE0189F80
:10383000F001199FF00D1124E552F74F84A195A1D5
:103840000E94B71288E00E946B14882361F1809176
:10385000720490917304189FF001199FF00D1124C8
:10386000E552F74F468D578D20A131A182A193A13A
:1038700064A175A1AFEEB8E01D921A95E9F75093D7
:10388000F0084093EF083093F2082093F1089093EA
:10389000F4088093F3087093F6086093F50810928B
:1038A0005F0410925E040E94980785FFE1C01092A9
:1038B0005F0410925E04DCC08091720490917304E6
:1038C000029724F010927304109272048091720493
:1038D0009091730497FF04C0F0927304E092720415
:1038E0008091720490917304009719F0019721F070
:1038F00015C089E093E010C02091DD083091DE080A
:103900008091DF089091E008281739071CF48CE1BA
:1039100093E002C089E293E00E94B71288E00E941F
:103920006B14882309F4B8CC8091720490917304CD
:10393000009719F0019731F0AFCCF0926104E0925A
:103940006004AACC8091EB089091EC081816190637
:103950000CF0A2CC2091DF083091E0084091DD0806
:103960005091DE08421753070CF096CC3093DE08D6
:103970002093DD0801979093EC088093EB088CCCA2
:103980008091720490917304069724F0109273044E
:1039900010927204809172049091730497FF04C096
:1039A000D0927304C09272040E94621480917204D7
:1039B000909173041AE0189FF001199FF00D1124E3
:1039C000EC5EFE4F868197810E94B71284E992E0F7
:1039D0000E94B7128091720490917304189FF001B5
:1039E000199FF00D1124EC5EFE4F808591850E9499
:1039F000AD1288ED93E00E949F1280917204909125
:103A00007304189FF001199FF00D1124EC5EFE4F16
:103A10002091EB083091EC088085918528173907B3
:103A200024F48BE393E00E94B7120E94980783FF6F
:103A30003ACC80915C0490915D04892B09F033CCE1
:103A400080917204909173042AE0289FF001299FCD
:103A5000F00D1124EC5EFE4F4091EB085091EC0804
:103A600020853185421753076CF41DCC0E94CD0888
:103A70000E94761480E090E0892B09F4E3C80E944C
:103A80000000D7C8F0925D04E0925C0490935B0460
:103A900080935A04909261048092600404CC109246
:103AA0004C0910924B0988EE93E0A0E0B0E08093BF
:103AB0004D0990934E09A0934F09B09350098BE59F
:103AC00091E090934A09809349098FEF9FEF90937B
:103AD00056098093550983EA91E09093DC0880931E
:103AE000DB081092E0081092DF081092DE081092B6
:103AF000DD081092E2081092E1081092E40810929A
:103B0000E3081092E6081092E5081092E808109277
:103B1000E7081092EC081092EB081092EE08109251
:103B2000ED0880E090E020E030E04AE06DE771E0F1
:103B3000265F3F4F853091059CF4489FF001499FD7
:103B4000F00D1124E750F74FDF01542F1D925A95C5
:103B5000E9F7F901E552F74F738F628F0196E8CFCD
:103B600083EA91E090938C0880938B0810929008E0
:103B700010928F0810928E0810928D081092920861
:103B8000109291081092940810929308109296083F
:103B900010929508109298081092970810929C081D
:103BA00010929B0810929E0810929D0880E090E071
:103BB00020E030E04AE06DE771E0265F3F4F85305E
:103BC00091059CF4489FF001499FF00D1124E755A1
:103BD000F74FDF01542F1D925A95E9F7F901E55788
:103BE000F74F738F628F0196E8CF10922E091092D3
:103BF0002D09109234091092350980E1809336091D
:103C00008FEF9FEF909333098093320910923B0915
:103C100010923C0910923D0910923E0910923F0902
:103C20008DE691E090932C0980932B098BE791E02E
:103C30009093300980932F09109242091092410904
:103C4000109244091092430981E080934509109233
:103C5000460980934709109248090895CF92DF9250
:103C6000EF92FF920F931F93CF93DF931F92CDB7E5
:103C7000DEB7182F062FE42E862F880F8E5F9983CC
:103C80000E94881483E00E948814F12EC12E99812D
:103C9000D92E8C2D8F19801798F4F601E7FE02C0FB
:103CA000849101C080810E948814182F80E00E94B6
:103CB00088148123FFEFCF1ADF0A8111EACF01C0F8
:103CC00081E00F90DF91CF911F910F91FF90EF90C6
:103CD000DF90CF9008958F929F92AF92BF92CF9234
:103CE000DF92EF92FF92CF93DF93EC0168817981AD
:103CF0008A819B81611571058105910521F464E23A
:103D000079ED8BE597E02DE133EF41E050E00E9443
:103D1000391F49015A019B01AC01A7EAB1E40E9495
:103D2000581F6B017C01ACEEB4EFA50194010E9419
:103D3000661FDC01CB018C0D9D1DAE1DBF1DB7FFA5
:103D400003C00197A109B04888839983AA83BB83E4
:103D50009F77DF91CF91FF90EF90DF90CF90BF9052
:103D6000AF909F908F9008950E946B1E08958CE0F5
:103D700091E00E946B1E0895A0E0B0E080930C01DA
:103D800090930D01A0930E01B0930F0108958F92AF
:103D90009F92AF92BF92CF92DF92EF92FF92CF931A
:103DA000DF93EC01688179818A819B8161157105BE
:103DB0008105910521F464E279ED8BE597E02DE131
:103DC00033EF41E050E00E94391F49015A019B0145
:103DD000AC01A7EAB1E40E94581F6B017C01ACEE74
:103DE000B4EFA50194010E94661FDC01CB018C0D8C
:103DF0009D1DAE1DBF1DB7FF03C00197A109B048AF
:103E000088839983AA83BB83BC01CD019F77DF910F
:103E1000CF91FF90EF90DF90CF90BF90AF909F90A9
:103E20008F9008950E94C71E089580E191E00E943E
:103E3000C71E0895609310017093110180931201C1
:103E4000909313010895F999FECF92BD81BDF89A20
:103E5000992780B50895262FF999FECF1FBA92BDF4
:103E600081BD20BD0FB6F894FA9AF99A0FBE01965B
:103E70000895052E97FB1EF400940E94501F57FDD5
:103E800007D00E946B1F07FC03D04EF40C94501F08
:103E900050954095309521953F4F4F4F5F4F089576
:103EA00090958095709561957F4F8F4F9F4F0895A6
:103EB0000E948D1FA59F900DB49F900DA49F800D13
:103EC000911D11240895B7FF0C94581F0E94581F8C
:103ED000821B930B0895A1E21A2EAA1BBB1BFD01A6
:103EE0000DC0AA1FBB1FEE1FFF1FA217B307E407D9
:103EF000F50720F0A21BB30BE40BF50B661F771F31
:103F0000881F991F1A9469F7609570958095909510
:103F10009B01AC01BD01CF010895A29FB001B39FE9
:103F2000C001A39F700D811D1124911DB29F700DC2
:103F3000811D1124911D0895AA1BBB1B51E107C0CF
:103F4000AA1FBB1FA617B70710F0A61BB70B881F29
:103F5000991F5A95A9F780959095BC01CD010895B8
:103F600097FB072E16F4009407D077FD09D00E9426
:103F70009C1F07FC05D03EF4909581959F4F0895B6
:103F8000709561957F4F0895EE0FFF1F0590F49196
:103F9000E02D099481E090E0F8940C94CF1FF89400
:023FA000FFCF51
:103FA200FFFFFFFF00E10000000000000100000031
:103FB2000100000005000200000070030A00020078
:103FC2000500000078030A000000020005008503D6
:103FD2000A000700050003008A0314000500070019
:103FE2000300910314000300050007009D03140061
:103FF20000C1808100000000000000C60B470CE7F2
:104002000BDC0B2D0CEB0B090C00000000DE07B0E3
:10401200060A0709071C15FCFF00005D15454D50F7
:10402200545900736C696D650074726F6C6C006F2B
:1040320067726500486974206220746F207374612E
:104042007274006E756C6C005069636B20796F75C9
:104052007220636C6173732E0057617272696F72A2
:10406200005374726F6E672041747461636B005405
:10407200616E6B0048696768204865616C746820EE
:104082002620446566656E7365004D61676500466E
:1040920061737420616E6420667261696C0077617D
:1040A2007272696F720053776F7264006D61676537
:1040B200004D41494E204D454E5500737461747355
:1040C20000626174746C6500596F752061726520BD
:1040D2006661696E74656400596F752063616E6E06
:1040E2006F74206669676874007175697400466947
:1040F200676874204172656E6120426F7373007944
:104102006F752061726520746865206172656E61E9
:10411200206368616D70696F6E0073746F72650001
:10412200535441545320762D494E56203E4551500A
:104132005400202F20002048502000537472656ED6
:104142006774683A00446566656E73653A00537039
:104152006565643A004D616769633A004C766C3A72
:1041620000436F696E733A00494E56454E544F52A2
:1041720059205E53544154530020613A0020643A5E
:104182000020733A003C5354415453200053656C51
:10419200656374206974656D20746F20657175693B
:1041A20070740053746F726500427579206E657782
:1041B200206571756970746D656E74004845414C77
:1041C2003A203120636F696E00596F75206E656504
:1041D20064206E6F74206865616C00796F75206C65
:1041E20061636B2074686520636F696E7300736529
:1041F2006C65637420736C6F7420696E20696E76CF
:10420200656E746F727900736C6F7420233A2000AC
:104212004B6C65617665720042726F61642053680F
:1042220069656C640057616E64004B6174616E6114
:104232000049726F6E20536865696C64004D616E4F
:10424200677573205374616666002068703A2000B7
:104252002048500061747461636B00646566656E2A
:1042620064005370656369616C00566963746F72B0
:10427200790074616B65203220636F696E7300612F
:104282007320796F7572207072697A6500422074AA
:104292006F2072657475726E20746F206D656E7515
:1042A20000596F752068617665204661696C6564A6
:1042B20000546865204172656E61205069747469AA
:1042C200657320796F75005265737420796F75720A
:1042D20020776F756E647300796F75277665206C31
:1042E2006F7374203220636F696E73000D0A0000D1
:00000001FF
