:100000000C9474100C949C100C949C100C949C10E8
:100010000C949C100C949C100C949C100C949C10B0
:100020000C949C100C949C100C94961E0C94081F1D
:100030000C949C100C949C100C949C100C949C1090
:100040000C949C100C949C100C949C100C949C1080
:100050000C949C100C949C100C949C100C949B1170
:100060000C949C100C949C100C949C100C949C1060
:100070000C949C100C949C100C949C100C949C1050
:100080000C949C100C949C100C949C100C949C1040
:100090000C949C100C949C100C949C100C949C1030
:1000A0000C949C100C949C100C949C109F22D022B9
:1000B000862377245329B624522703294D61676E7E
:1000C000757320526F640049726F6E536865696C76
:1000D00064004B6174616E610057616E640042722E
:1000E0006F616420536865696C64004B6C65617670
:1000F000657200537461666600536865696C6400DC
:1001000053776F726400456D707479004261736853
:1001100000537769706500437572650057617465B7
:10012000720046697265004D61676E757320526F8B
:10013000640049726F6E536865696C64004B61744A
:10014000616E610057616E640042726F616420539A
:100150006865696C64004B6C656176657200537408
:1001600061666600536865696C640053776F7264FA
:1001700000456D707479000080B0D8F898B863C6F7
:10018000BA7CEECCCFCCEE7CBA46C300F1FF0FF1C7
:100190000F0102073FFEACB591B5ACFE3F87FF00F3
:1001A0000103060D0600000E0F0302000C000203FF
:1001B0000F0F014D61737465720070C070C132041D
:1001C000CAF498B4EAB498F4CA24C271C070000C9E
:1001D000172DEAF4744D6FACD5ACAF4D7462970B2C
:1001E00005000000000C060B0B080F0D00000D0FA2
:1001F0000F080B0A060C4F6772650020B8FEF4501A
:100200000067FA6C1C6CF86C07020000000000012B
:10021000181F3830186CBEDD87DDBE663C1838709C
:10022000E0000000000000000E030E0103010E07B5
:100230000E00000103010054726F6C6C00536C6976
:100240006D6500000000E00E943874ECC0EC74386A
:10025000940EE0000000009CE638A3C695AA6F2B20
:10026000292B6FAA95C6A338E69C000F0F0F030138
:1002700004040406000604040401030F0F0F004FDA
:100280007263000F30434C90F8BCA6663E3E66A6F3
:10029000BCF8904C43300F7804F21A0A05BB5E9A02
:1002A0007F7F9A5EBB050A1AF204780001000006FF
:1002B0000F0A0903010103090A0F06000001005398
:1002C0007069646572005761726C6F636B00546192
:1002D0006E6B004B6E6967687400736C6F742023DB
:1002E0003A200053656C65637420696E7620736CE8
:1002F0006F740059652042726F6B6500636F696EA1
:1003000073003A004865726527732077686174202E
:10031000796520676F7400596520706F74696F6E1E
:10032000206261672069732066756C0079652073AF
:10033000686F7274206F6E20636F696E004275790A
:10034000206120506F74696F6E3F203320436F69C6
:100350006E00596F75206E656564206E6F7420683D
:1003600065616C004845414C3A203120636F696EED
:1003700000427579206E6577206571756970746DBE
:10038000656E740000F20C120202020202824282C6
:1003900002020202020202020202020282020202BD
:1003A00002020202020202020262E29A8A8A0A2A15
:1003B0002A2A9A9ADADADA8A0A8ACACACACACACA4D
:1003C000CACA9A191A99DADADACA8A2A2A6A4A8ABF
:1003D000CA9ADADADACA8A2A2A6A6AAACA8A8A8A9D
:1003E0008AAAEAAA3A1A1A1A1A9A0AEA5A1A02029D
:1003F00002020202020202020202020202020202DD
:10040000120CF20000FF000000000000FEFD0201DF
:10041000FE000000000000000000E0FE1F000000E1
:10042000000000000060E5F73D232120A0B111117C
:10043000000F1F1FB9F9F9F004044D6901FFFFFF18
:100440000101007EFF7E81A989817EFF7E0000FF81
:10045000FFF6193979F9D68F46484801FFFF393937
:100460001101414848181111D9380F0C0C00000037
:1004700000E0F0B0B0B8B81818B8B8B0B0F0E0000C
:100480000000FF0000FF000000000000FFFF000070
:10049000FF00000000000000000302070C748878D1
:1004A00000000000060E0786363E3224242525254E
:1004B0002021232333B33130303232322021232123
:1004C0002829292A2839333333333124A4ACA0A373
:1004D0002723303230313337323828232733333330
:1004E00033B337222828392F010300000000000011
:1004F00000030F3B766C7FF0F07F6C763B0F0300C0
:100500000000FF0000FF0000000040407FDF40C00F
:100510007F4040000000000000002078F46E0300DF
:100520000000000000000000010265FACC5AF55AF4
:10053000CCFA650201000000000067FA6C1C6CF840
:100540006C070200000000FC02EDB53B5A3232524B
:100550003BB5ED02FC00000000000000FC8212121E
:10056000711171121282FC000000000000000000F6
:1005700080C87070B02840C040000000000000003B
:100580000000FF0000FF000000808080908FB58F8A
:1005900090808080808080808080808FBF8F8080EE
:1005A0008080808080808080808080808182828244
:1005B0008180808080808080808080808181818037
:1005C00080808080808080878A9499999999999178
:1005D00091919088878080808080808080818386D0
:1005E000888E88868381808080808080888C8683C6
:1005F00081808080818682818080808080800000F0
:100600000000FF0000FF00FC0300000000000000ED
:1006100000000000000000000000000000000000DA
:1006200000000000000000000000000000000000CA
:1006300000000000000000000000000000000000BA
:1006400000000000000000000000000000000000AA
:10065000000000000000000000000000000000009A
:10066000000000000000000000000000000000008A
:1006700000000000000000000000000000000182F7
:100680007C00FF0000F70C0A090A0A0A0A0A0A0A93
:100690000A0A0A0A0A0A0A0A0A0A0A0A0A0A0A0ABA
:1006A0000A0A0A0A0A0A0A0A0A0A0A0A0A0A0A0AAA
:1006B0000A0A0A0A0A0A0A0A0A0A0A0A0A0A0A0A9A
:1006C0000A0A0A0A0A0A0A0A0A0A0A0A0A0A0A0A8A
:1006D0000A0A0A0A0A0A0A0A0A0A0A0A0A0A0A0A7A
:1006E0000A0A0A0A0A0A0A0A0A0A0A0A0A0A0A0A6A
:1006F0000A0A0A0A0A0A0A0A0A0A0A0A0A0A09085D
:100700000808F700004F304840404040404040401B
:1007100040404040404040404040404040404040D9
:1007200040404040404040404040404040404040C9
:1007300040404040404040404040404040404040B9
:100740004040408040804040404040404040404029
:100750004040404040404040404040404040404099
:100760004040404040404040404040404040404089
:100770004040404040404040404040404040404079
:1007800048304F0020733A0020643A0020613A005C
:100790003048B5CB83854830436F696E733A00208B
:1007A000004C766C3A004D616769633A005370659E
:1007B00065643A00446566656E73653A0000000042
:1007C0000000000601000001000000000000010020
:1007D00000000001000000F900000000000000011E
:1007E00000F3000000050002000000EB000A000218
:1007F0000005000000DE001400000002000500D922
:10080000001E00070005000300D2002800050007B5
:10081000000300C7003200030005000700BC003CD5
:1008200000537472656E6774683A00204850200067
:10083000494E56454E544F5259205E5354415453DD
:100840000022010503011C01050302170105050033
:1008500011010A00000C010500000000000000006A
:10086000710100000100000000006B0100000000A9
:1008700001000000640100000000000001005E01B2
:10088000000005000200000056010A0002000500F9
:1008900000004901140000000200050044011E0090
:1008A0000700050003003D012800050007000300C4
:1008B0003201320003000500070027013C005365A8
:1008C0006C656374206974656D20746F2065717543
:1008D000697074003C5354415453200053544154A4
:1008E0005320762D494E56203E4551505400D30298
:1008F0000800080005000400000001BA1D00000007
:10090000000300000000000100CE020A00040007FE
:10091000000200020002791D000000000300000038
:1009200000000100C60208000100020008000800E3
:1009300003381D000100000300000002000100BF99
:100940000205000700040008000100008302000007
:10095000000003000000000001007F020700080003
:100960000600010003000A4302000000000400002A
:1009700000000001003D021C0008000A00060008FB
:100980000000EC1F00000000030000000000010058
:10099000370214000F000A00070008000AFB0100DC
:1009A0000000000400000001000100F60114001422
:1009B000000F000500000000BA0100000000040064
:1009C000000001000100B30114000F000F000A0035
:1009D0000A0000770102000000030000000100018E
:1009E000003E003E003E003E003E0053746F7265C4
:1009F000004669676874204172656E6120426F73BA
:100A00007300526573657400426174746C650053C1
:100A1000746174730000F20C1202020202020202FC
:100A200002020202020202020202020202020202A6
:100A30000202020202020202020202020202020296
:100A4000020202FA0602020202020202020202028A
:100A50000202020205020502020202020202020270
:100A60000202020202020202020202020202020266
:100A70000202020202020202020202020202020256
:100A80000202020202020202020202020202020246
:100A900002120CF20000FF00000000000000000045
:100AA0000000000000000000000000000000000046
:100AB0000000000000000000000000000000000036
:100AC0000000000F102020202020202020202020A7
:100AD0002020202020202020202020202020202016
:100AE0002020202020202020202020202020202006
:100AF00020202020202020202020202020202020F6
:100B000020202020202020202020202020202020E5
:100B1000202010FF0000FF00000000000000000087
:100B200000000000000000000000000000000000C5
:100B300000000000000000000000000000000000B5
:100B400000000000000000000000000000000000A5
:100B50000000000000000000000000000000000095
:100B60000000000000000000000000000000000085
:100B70000000000000000000000000000000000075
:100B80000000000000000000000000000000000065
:100B9000000000FF0000FF00000000000000000057
:100BA0000000000000000000000000000000000045
:100BB0000000000000000000000000000000000035
:100BC0000000000000000000000000000000000025
:100BD0000000000000000000000000000000000015
:100BE0000000000000000000000000000000000005
:100BF00000000000000000000000000000000000F5
:100C000000000000000000000000000000000000E4
:100C1000000000FF0000FE010000000000000000D6
:100C200000000000000000000000000000000000C4
:100C300000000000000000000000000000000000B4
:100C400000000000000000000000000000000000A4
:100C50000000000000000000000000000000000094
:100C60000000000000000000000000000000000084
:100C70000000000000000000000000000000000074
:100C80000000000000000000000000000000000064
:100C9000000001FE0000FF00000000000000000056
:100CA0000000000000000000000000000000000044
:100CB0000000000000000000000000000000000034
:100CC0000000000000000000000000000000000024
:100CD0000000000000000000000000000000000014
:100CE0000000000000000000000000000000000004
:100CF00000000000000000000000000000000000F4
:100D000000000000000000000000000000000000E3
:100D1000000000FF0000FF000000000000000000D5
:100D200000000000000000000000000000000000C3
:100D300000000000000000000000000000000000B3
:100D400000000000000000000000000000000000A3
:100D50000000000000000000000000000000000093
:100D60000000000000000000000000000000000083
:100D70000000000000000000000000000000000073
:100D80000000000000000000000000000000000063
:100D9000000000FF00004F304840404040404040CD
:100DA0004040404040404040404040404040404043
:100DB0004040404040404040404040404040404033
:100DC0004040404040404040404040404040404023
:100DD00040404040A040A040404040404040404053
:100DE0004040404040404040404040404040404003
:100DF00040404040404040404040404040404040F3
:100E000040404040404040404040404040404040E2
:100E10004048304F004172656E61204D61737465CA
:100E200072004A6F75726E65796D616E0041726510
:100E30006E6120526F6F6B6965004661737420614B
:100E40006E6420667261696C004D61676500486977
:100E50006768204865616C74682026204465666573
:100E60006E73650054616E6B005374726F6E672011
:100E700041747461636B0057617272696F72000A2A
:100E8000005069636B20796F757220636C617373B6
:100E90002E00000000000000000000000000000024
:100EA0000000000000000000000000000000000042
:100EB0000000000000000000000000000000000032
:100EC0000000000000000000000000000000000022
:100ED0000000000000000000000000000000000012
:100EE0000000000000000000000000000000000002
:100EF00000000000000000000000000000000000F2
:100F000000000000000000000000000000000000E1
:100F100000000000000000000000000000000008C9
:100F2000183870F0F0E0E0E0F0F0F0E0E0E0606051
:100F300060607070F0F0F0F0F0F0701000000000F1
:100F400000000000000000000000000000000000A1
:100F50000000000000000000000000000000000091
:100F60000000000000000000000000000000000081
:100F70000000000000000000000000000000000071
:100F80000000000000000000000000000000000061
:100F900000001C1C1C1C1C1C1C1C1C1C1C1C1C1CC9
:100FA0001C0000C1FFFFFFFFC7830100000000001D
:100FB0000000000000010100000080E0F0E0C0003F
:100FC000000030F0F0F07078787838181818383859
:100FD0003838101000000008081CFCF8F000000071
:100FE00000000000000000C0F0F878300000103869
:100FF0003838383870F0F0F0F070787878707070B9
:1010000020000000000000000000000000000000C0
:1010100000001C1C1C1C1C1C1C1C1C1C1C1C000080
:101020000080FEFFFF3F1F1F0F0F0F0F0E0E0E0E53
:101030001E1E1E0E03000080E0FCFFFF3F0F00009D
:1010400000FEFF8701000000000000207070E0E05B
:10105000E0E0202000000000C0FEFF7F3D1C1C1CC3
:101060001C183878F8FCFFFF1F010000000000008A
:10107000000080E0F8FFFF7F0700E0E0E7E7E7E738
:10108000E7E7E7E7E7E7E7E7E7E7E7E7E7E7E7E7F0
:10109000E7E70707C7C7C7870707070727203038CD
:1010A0003E3F3F1F0700000070F0F0E0C0800000EE
:1010B0002020202030383E3F3F3F1F03000000002B
:1010C0000021272F3E3C3C3C38383838383C1E0F36
:1010D0000701002020383C1F0F03000000004040A3
:1010E0004070783C3F1F0700000000004040406017
:1010F000783E3F1F0703000000383838383838384A
:10110000383838383838383838383838383838385F
:10111000383800000103070F0F0E0E0E0E0E0E0ED4
:101120000E0E0E0E0E0E0E0E0ECEEFFFFF7F1F1ECA
:101130001E1E3E3E3E3E3E3E3E7E7E7E7E7E7E7E4F
:101140007EFEFEFEFEFEFCFCFCFCFCFCF8F8F8F863
:10115000F8F8F8F8F8F8F8F0F0F0F0F0F0F0F0F057
:10116000F0F0F0E0E0E0E0E0E0E0E0E0F0F0F0F00F
:10117000F0F0F0F8F8F8F8F8F8F8F87C7C7C3C3CF3
:101180003C1C1E1E0E0E00000000000000000000AF
:101190000000301C1E1E0F0F0F0F0F1E3E3C303084
:1011A000303038181C1C1C1C3C79F9F1C0C0E0E040
:1011B000E0F070383838383870F0E0C0C0E0E0E077
:1011C000E0E0604040E040C0C1C1C1C1C1818101D7
:1011D00003030303030303030303070707078787C7
:1011E000C7C7C7C7CF8F8F0F0F0F0F0F0F0F07077F
:1011F0000703030381C1C1C0E0E0E0E0E0C0C080BC
:10120000C0E0F8FCFCFEFEFE7E3E1C1C18101030F8
:1012100060E00E0703070F0F0E0C08081818181CC3
:101220003E3E1E1E1E1C18181818102321200040B8
:101230004060703838181838306061E1E1F171337E
:1012400071F0E0C0C0E0F070313171E1C181C3C71D
:10125000CCCCC4860606060E1E3F8FC7C3C1C1C1D3
:10126000810103070F3F1F0F040686C6C6CEDCD8D8
:101270009C0C0EC7E3F1703070F1E3C7DFE7F37148
:1012800031303060C0E1F3703030383C3E3E1E1EDD
:101290000E0C4D61676E757320526F640049726F5A
:1012A0006E536865696C64004B6174616E610057D0
:1012B000616E640042726F616420536865696C649A
:1012C000004B6C656176657200537461666600530D
:1012D0006865696C640053776F726400456D707463
:1012E0007900000000000000DC1200000100000096
:1012F0000000D6120000000001000000CF12000024
:10130000000000000100C9120000050002000000FA
:10131000C1120A00020005000000B412140000000F
:1013200002000500AF121E00070005000300A8120E
:1013300028000500070003009D123200030005008D
:10134000070092123C00F0F89C8E8783878E9CF8F1
:10135000F00000FEFF0303030303070EFCF8000088
:10136000FEFF0303030303070EFCF80000FFFF006A
:10137000000000000000FFFF0000FEFF8383838366
:1013800083C7EE7C380000F8FC0E07030303070E4A
:10139000FCF800003F7FE0C08080C0E07F3FFFFF9F
:1013A00001010101010101FFFF0000FFFF0C0C0C16
:1013B0000C1C3E77E3C100007FFFC0C0C0C0C0E08E
:1013C000703F1F00001F3F70E0C0C0C0E0703F1FB3
:1013D00000007FFFC1C1C1C1C1E3773E1C00001FF7
:1013E0003F70E0C0C0C0E0703F1F0000000000017F
:1013F000FFFF01000000D5F08D14A1C881CFD9F105
:10140000AF20003048B5CB838548306C766C3A000D
:101410004850002F0000F20C1202020202020202E7
:10142000020202020202020202020202020202029C
:10143000020202020202020202020202020202028C
:10144000020202020202020202020202020202027C
:10145000020202120DF20D12020202020202020246
:10146000020202020202020202020202020202025C
:101470000202020202FE0202020202020202020250
:10148000020202020202020202020202020202023C
:1014900002120CF20000FF0000000000000000003B
:1014A000000000000000000000000000000000003C
:1014B000000000000000000000000000000000002C
:1014C000000000000000000000000000000000001C
:1014D0000000000000FF000000000000000000000D
:1014E00000000000000000000000000000000000FC
:1014F0000000000000FF00000000000000000000ED
:1015000000000000000000000000000000000000DB
:10151000000000FF0000FF000000000000000000CD
:1015200000000000000000000000000000000000BB
:1015300000000000000000000000000000000000AB
:10154000000000000000000000000000000000009B
:101550000000000000FF000000000000000000008C
:10156000000000000000000000000000000000007B
:101570000000000000FF000000000000000000006C
:10158000000000000000000000000000000000005B
:10159000000000FF0000FF0000000000000000004D
:1015A000000000000000000000000000000000003B
:1015B000000000000000000000000000000000002B
:1015C000000000000000000000000000000000001B
:1015D0000000000000FF000000000000000000000C
:1015E00000000000000000000000000000000000FB
:1015F00000000020C03FC0200000000000000000EC
:1016000000000000000000000000000000000000DA
:10161000000000FF0000FF000000000000000000CC
:1016200000000000000000000000000000000000BA
:1016300000000000000000000000000000000000AA
:10164000000000000000000000000000000000009A
:101650000000000000FF0101010101010101010181
:10166000010101010101010101010101010101016A
:101670000101010102010201010101010101010158
:10168000010101010101010101010101010101014A
:10169000010101FF0000FF00000000000000000049
:1016A000000000000000000000000000000000003A
:1016B000000000000000000000000000000000002A
:1016C000000000000000000000000000000000001A
:1016D0000000000000FF000000000000000000000B
:1016E00000000000000000000000000000000000FA
:1016F00000000000000000000000000000000000EA
:1017000000000000000000000000000000000000D9
:10171000000000FF0000FF000000000000000000CB
:1017200000000000000000000000000000000000B9
:1017300000000000000000000000000000000000A9
:101740000000000000000000000000000000000099
:101750000000000000FF000000000000000000008A
:101760000000000000000000000000000000000079
:101770000000000000000000000000000000000069
:101780000000000000000000000000000000000059
:10179000000000FF00004F304840404040404040C3
:1017A0004040404040404040404040404040404039
:1017B0004040404040404040404040404040404029
:1017C0004040404040404040404040404040404019
:1017D00040404048B04FB04840404040404040400A
:1017E00040404040404040404040404040404040F9
:1017F00040404040404040404040404040404040E9
:1018000040404040404040404040404040404040D8
:101810004048304F000102040810204080000000C2
:1018200000003E5B4F5B3E3E6B4F6B3E1C3E7C3E82
:101830001C183C7E3C181C577D571C1C5E7F5E1C90
:1018400000183C1800FFE7C3E7FF0018241800FF4A
:10185000E7DBE7FF30483A060E2629792926407F44
:10186000050507407F05253F5A3CE73C5A7F3E1C53
:101870001C08081C1C3E7F14227F22145F5F005F3F
:101880005F06097F017F006689956A60606060601D
:1018900094A2FFA29408047E040810207E20100861
:1018A000082A1C08081C2A08081E101010100C1EFC
:1018B0000C1E0C30383E3830060E3E0E060000007E
:1018C000000000005F00000007000700147F147F85
:1018D00014242A7F2A1223130864623649562050A2
:1018E0000008070300001C2241000041221C002ABE
:1018F0001C7F1C2A08083E08080080703000080879
:10190000080808000060600020100804023E5149E9
:10191000453E00427F400072494949462141494DB8
:10192000331814127F1027454545393C4A4949313F
:1019300041211109073649494936464949291E00BE
:101940000014000000403400000008142241141468
:10195000141414004122140802015909063E415D85
:10196000594E7C1211127C7F494949363E41414112
:10197000227F4141413E7F494949417F090909018F
:101980003E414151737F0808087F00417F4100209C
:1019900040413F017F081422417F404040407F0288
:1019A0001C027F7F0408107F3E4141413E7F0909B0
:1019B00009063E4151215E7F0919294626494949B8
:1019C0003203017F01033F4040403F1F2040201F62
:1019D0003F4038403F6314081463030478040361F4
:1019E00059494D43007F4141410204081020004104
:1019F00041417F040201020440404040400003078F
:101A0000080020545478407F2844443838444444E3
:101A100028384444287F385454541800087E09025A
:101A200018A4A49C787F0804047800447D4000201A
:101A300040403D007F1028440000417F40007C046E
:101A40007804787C080404783844444438FC18242A
:101A5000241818242418FC7C0804040848545454FE
:101A60002404043F44243C4040207C1C2040201C93
:101A70003C4030403C44281028444C9090907C449A
:101A800064544C44000836410000007700000041D7
:101A900036080002010204023C2623263C1EA1A1B6
:101AA00061123A4040207A3854545559215555799D
:101AB000412154547841215554784020545579405F
:101AC0000C1E5272123955555559395454545939BE
:101AD000555454580000457C410002457D420001A8
:101AE000457C40F0292429F0F0282528F07C545525
:101AF00045002054547C547C0A097F4932494949A5
:101B0000323248484832324A4848303A4141217AD4
:101B10003A42402078009DA0A07D39444444393D9C
:101B20004040403D3C24FF2424487E4943662B2FFF
:101B3000FC2F2BFF0929F620C0887E09032054546E
:101B400079410000447D413048484A3238404022C3
:101B50007A007A0A0A727D0D19317D2629292F28EB
:101B6000262929292630484D402038080808080829
:101B7000080808382F10C8ACBA2F102834FA000013
:101B80007B000008142A142222142A14089500222B
:101B90000095AA005500AAAA55AA55AA000000FF60
:101BA00000101010FF00141414FF001010FF00FFAD
:101BB0001010F010F0141414FC001414F700FF00BF
:101BC00000FF00FF1414F404FC141417101F10106D
:101BD0001F101F1414141F00101010F0000000003C
:101BE0001F101010101F10101010F010000000FF38
:101BF000101010101010101010FF10000000FF1433
:101C00000000FF00FF00001F10170000FC04F41488
:101C1000141710171414F404F40000FF00F7141440
:101C20001414141414F700F7141414171410101FBC
:101C3000101F141414F4141010F010F000001F10F2
:101C40001F0000001F14000000FC140000F010F042
:101C50001010FF10FF141414FF141010101F0000B8
:101C60000000F010FFFFFFFFFFF0F0F0F0F0FFFFCB
:101C7000FF0000000000FFFF0F0F0F0F0F3844445C
:101C800038447C2A2A3E147E02020606027E027E28
:101C90000263554941633844443C04407E201E2081
:101CA00006027E020299A5E7A5991C2A492A1C4C26
:101CB0007201724C304A4D4D303048784830BC6229
:101CC0005A463D3E494949007E0101017E2A2A2AA1
:101CD0002A2A44445F444440514A444040444A51C3
:101CE000400000FF0103E080FF000008086B6B0864
:101CF0003612362436060F090F06000018180000A9
:101D0000001010003040FF0101001F01011E0019EA
:101D10001D1712003C3C3C3C000000000042617377
:101D20006800537769706500437572650057617488
:101D300065720046697265000000800000000010B6
:101D400050DCFE1910000000000000000001FE0938
:101D500078381818F8FBFFF8F000000000000000C9
:101D600000000F00000000000F0F0F0F0F0E0C08F7
:101D7000080000004D616765000000066BF4F87C08
:101D80007CBC7C7CBC7C7CF8F46B06000078A414E2
:101D9000FC14ABFFFEEED6AED6EEFFFB2438F0E02F
:101DA0000000000101010F0B050B0D0F0B050B0FC0
:101DB00000070F0F0754616E6B0000FC02F9FE0074
:101DC0000000E0B0B8F8EC000000000000000407DC
:101DD0003C1F373418B8EDF7BFE7FDB818F0E00046
:101DE000000000000000000C0F0F03010101030FB1
:101DF0000C080000000057617272696F7200796F01
:101E000075277665206C6F7374203220636F696E5E
:101E100073005265737420796F757220776F756ED9
:101E2000647300546865204172656E612050697466
:101E30007469657320796F75004220746F20726534
:101E40007475726E20746F206D656E7500596F75B4
:101E50002068617665204661696C65640042207483
:101E60006F2072657475726E20746F206D656E756B
:101E700000617320796F7572207072697A650074E1
:101E8000616B65203220636F696E730056696374FD
:101E90006F727900506F74696F6E004D616769638E
:101EA00000446566656E640041747461636B004D47
:101EB0006167696300757365642000546865206D0F
:101EC0006F620041747461636B65640054686520DF
:101ED0006D6F6200446566656E6465640054686594
:101EE000206D6F6200636F6E74696E756500331DDF
:101EF0000503012D1D050302281D050500221D0AED
:101F000000001D1D050000000080C0C0E0E0E07082
:101F100070F8787070F07010000000000000000091
:101F2000000000000000000000000000001070F041
:101F30007070F070F0F0F0E0E0C0C0808080801E33
:101F4000FF0303FFFFFF000000FF000000FF000091
:101F50000000000000000000000000000000000081
:101F600000000000000000FF0000FF0000FFFFFF76
:101F70000101FF0303FF07807F40404F3FAFA050A8
:101F8000505F50E8E8EFE8E88080808080808080C3
:101F9000808080808080808080808080E8E8E8CFBA
:101FA000E8E8EFD0D0DFDFAFA0407F4080FF003E09
:101FB000BFFEF4F5B3B3BBB999ABABABAFBF7D75A7
:101FC00071535DDDDDDDD9DBD6F77B77BBB7B7B508
:101FD0009D949C9C9C3C7F6F6F5D797D7D7D3DB920
:101FE000F7EFEFEDDCBE7D68703A2000F00C826206
:101FF000F1D96975B56565A57569D9F162820CF08D
:1020000007C833889C252B4A525252524A2B259C92
:102010008833C807000304080B08090A0A0A0A0AD9
:102020000A09080B08040300F61D0D000D00060048
:102030000600020001BA1D000000000300000000BD
:10204000000100B51D140005000A00020003000293
:10205000791D000000000400000000000100741D54
:1020600008000500030002000C0003381D000102F7
:10207000000000000003000000080B000202020143
:1020800000090400000102020000052400100105FF
:10209000240101010424020605240600010705812C
:1020A0000310004009040100020A000000070502B5
:1020B00002400000070583024000000403090412E7
:1020C000010002EF020140412336800001010203BA
:1020D0000141726475696E6F204C4C43004172641B
:1020E00075626F7900008B2A11241FBECFEFDAE0F2
:1020F000DEBFCDBF11E0A0E0B1E0E2E8FCE502C048
:1021000005900D92A436B107D9F726E0A4E6B1E018
:1021100001C01D92AD31B207E1F710E1C4E7D0E193
:1021200004C02197FE010E94202EC337D107C9F7B2
:102130000E9473210C943F2E0C940000CF92DF92EA
:10214000EF92FF920F931F93CF93DF936C017A016D
:102150008B01C0E0D0E0CE15DF0589F0D8016D918C
:102160008D01D601ED91FC910190F081E02DC60129
:102170000995892B11F47E0102C02196ECCFC7018D
:10218000DF91CF911F910F91FF90EF90DF90CF9053
:1021900008953FB7F89480916B0190916C01A091E4
:1021A0006D01B0916E0126B5A89B05C02F3F19F0B7
:1021B0000196A11DB11D3FBFBA2FA92F982F8827C7
:1021C000820F911DA11DB11DBC01CD0142E0660F22
:1021D000771F881F991F4A95D1F708952D9A089562
:1021E0000895089580E090E008951F93CF93DF93C2
:1021F000DC011696ED91FC9117973696C591D49116
:1022000014968C91149790E01596EC9115971AE01E
:10221000E19FF0011124EC51FD4E25913491C89FAE
:10222000F001C99FF00D1124F595E795F595E79517
:102230008E0F9F1F96958795681B790B621B730BFA
:10224000641B750B8D919C911197161617061CF443
:10225000861B970B01C001978D939C93DF91CF91C3
:102260001F910895DC011696ED91FC911797349615
:102270006591749114962C91149730E01596EC9119
:102280008AE0E89FF0011124EE51FD4E8591949172
:10229000629FA001639F500D112455954795559558
:1022A0004795240F351F36952795820F931F089564
:1022B0000E943A2E0C94F52B8F929F92AF92BF9270
:1022C000CF92DF92EF92FF926B017C010E94C910C6
:1022D0004B015C01C114D104E104F104F1F00E944E
:1022E000C910DC01CB0188199909AA09BB09883EEC
:1022F0009340A105B10570F321E0C21AD108E108AD
:10230000F10888EE880E83E0981EA11CB11CC11450
:10231000D104E104F10419F7DDCFFF90EF90DF90D5
:10232000CF90BF90AF909F908F900895BC0180E0B8
:1023300090E00C945C111F920F920FB60F92112433
:102340002F933F938F939F93AF93BF93809164019B
:1023500090916501A0916601B091670130916A0189
:1023600023E0230F2D3720F40196A11DB11D05C0D8
:1023700026E8230F0296A11DB11D20936A018093C8
:10238000640190936501A0936601B0936701809109
:102390006B0190916C01A0916D01B0916E0101965D
:1023A000A11DB11D80936B0190936C01A0936D01F1
:1023B000B0936E01BF91AF919F918F913F912F91FB
:1023C0000F900FBE0F901F9018958FB18095807F52
:1023D000669B88601C9B8460089560387105D0F40A
:1023E00040345105B8F4E5E1F8E180E1849FD00183
:1023F000A0781124A60F4770E40FF11D8491A8580E
:10240000BE4F222319F06C91862B03C080956C91EE
:1024100086238C9308952F923F924F925F926F92F2
:102420007F928F929F92AF92BF92CF92DF92EF9264
:10243000FF920F931F93CF93DF93CDB7DEB729970A
:102440000FB6F894DEBF0FBECDBFFC016A3069F451
:1024500025898189928938E0239F800D911D11245F
:10246000928B818B108A1786AAC06D3009F4A7C0A1
:1024700099878887F58834882388618872880785DA
:10248000108900381105C4F0A885B98555962C919E
:102490005597422F50E01F968D919C915097B6E032
:1024A0002B9F800D911D1124E885F985908B8787DE
:1024B000268921116EC083C0F0E46F16710424F7E1
:1024C000C80125E0F29E800D911D112418161906F1
:1024D000DCF68F2D90E09C838B83C301A8E0FA9EED
:1024E000800D911D11241816190674F6B5E06B9F26
:1024F000B0011124FB01E35EF74EFA83E98330E07B
:102500008885998504969E838D83E981FA81E4907C
:10251000353009F4E12C430188E0482EE0FC02C08C
:10252000532C01C0522C51100BC0321009C0E6943C
:102530004A948B819C81880E991E4110EFCF1BC05D
:1025400068018C2D801B8F1590F754018A2D8819F6
:102550008F1568F4252DA501B6018D819E813F83DD
:102560000E94ED119FEFA91AB90A3F81EFCFAFEF9B
:10257000CA1ADA0AE6CF3F5FEB81FC810E0F1F1FFC
:1025800089819A8101969A838983363009F0BDCF7B
:102590007BCF6AEF64039001659F300D11242058B2
:1025A0003F4F281739075CF4A885B985ED91FC9158
:1025B00011970190F081E02D6AE0CD01099581E04D
:1025C00090E029960FB6F894DEBF0FBECDBFDF9125
:1025D000CF911F910F91FF90EF90DF90CF90BF9020
:1025E000AF909F908F907F906F905F904F903F90B3
:1025F0002F900895DC0181E014968C93149784E663
:1026000090E019969C938E93189753961C9253972B
:1026100051961C921E92509717967C936E93169724
:10262000FB0132968591949199279595879595957B
:102630008795019611969C938E93645F7F4FFB0163
:10264000259134911A962C931A9795958795139600
:102650009C938E9312971C961C921C971D961C920D
:102660001D971E961C921E971F961C921F97FB018A
:10267000859194911B968C9308950F9300E420E824
:1026800045E154E160E070E080E090E00E94641673
:102690000F9108950F93CF93DF9383E490E090938D
:1026A000A4058093A30584E290E09093A60580930F
:1026B000A50580918005909181050E94B31883E162
:1026C00094E10E94F017E0918605F091870532961B
:1026D000259134918091840590E0289FB001299F35
:1026E000700D11247595679575956795680F791F1D
:1026F00080E090E04AE00E94751780E194E10E943A
:10270000F017E0918605F09187053D96459154912B
:1027100004E124E166E070E084E690E00E94641643
:102720001092A4051092A305C2E3D0E0D093A605B1
:10273000C093A50520E330E04AE750E060E370E095
:1027400083E490E00E941F182AE330E04AE750E05B
:102750006AE370E083E490E00E941F182AE330E00F
:1027600043E450E060E370E083E490E00E941F18CF
:102770002AE330E04AE750E060E370E08AE790E067
:102780000E941F1882E490E09093A4058093A30513
:1027900086E090E09093A6058093A5058BE094E1F8
:1027A0000E94F01788E590E09093A4058093A3051C
:1027B0008DE090E09093A6058093A50560917C053F
:1027C00070E080E090E04AE00E94751786E490E0B7
:1027D0009093A4058093A305D093A605C093A50567
:1027E00080919305813049F408E028E043E054E10A
:1027F00067E170E086E490E013C0823099F408E06D
:1028000028E043E054E167E170E086E490E00E9454
:10281000641628E043E054E167E170E080E590E071
:102820000E946416DF91CF910F91089521E030E06E
:102830004BE750E061E070E083E090E00E941F18F9
:102840002EE330E04BE750E06EE370E083E090E091
:102850000E941F182CE330E041E050E064E070E09B
:1028600081E090E00E941F182CE330E04EE750E03A
:1028700064E070E08EE790E00E941F1821E030E0F5
:1028800041E050E064E070E083E090E00E941F18B7
:1028900021E030E04EE750E064E070E08CE790E04B
:1028A0000E941F182EE330E04EE750E06CE370E02A
:1028B0008CE790E00E941F182EE330E041E050E0EA
:1028C0006CE370E083E090E00C941F18EF92FF92AD
:1028D0000F931F93CF93DF93DB014115510551F502
:1028E0008B0121303105C1F41696ED91FC911797BB
:1028F0003696E590F4901496CC91D0E00E94321177
:10290000EC9EA001ED9E500D1124559547955595CF
:1029100047954C0F5D1F04C00E94321140E050E00B
:10292000BC01C801DF91CF911F910F91FF90EF90F3
:102930000C94F5104330510509F03BC0EC01EE81D9
:10294000FF813A9685919491FC014591549114969A
:102950002C91149730E01696ED91FC9117973A96CA
:1029600065917491429FC001439F900D11249595EC
:10297000879595958795820F931F96958795629F6A
:10298000A001639F500D1124559547955595479586
:10299000240F351F36952795821B930B18161906A1
:1029A00044F42D913C911197F901E81BF90BED933B
:1029B000FC93DF91CF911F910F91FF90EF900895BD
:1029C0000F931F93CF93DF9381EC80937C0085B1AD
:1029D000806F85B984B1877E84B984B1876E84B9EC
:1029E0005E9A5F988AB1806D8AB9769A6E9881B343
:1029F000806F81BB899880B38D7080BB80E58CBD72
:102A000081E08DBD85E090E00E9496115F9A85E09F
:102A100090E00E9496115E985C98E6EFF3E18DE0FD
:102A20008E0F94919EBD00000DB407FEFDCF319630
:102A30008E13F7CF5C9A81E88093640080916500E3
:102A400081608093650080E00E94A4180E94E511D7
:102A500087FF24C05C9885EA8EBD00000DB407FE98
:102A6000FDCF5C9A2E982F982D98809164008062FB
:102A70008093640081E083BF889513BEFCCF2D98BE
:102A80000E94E5118478843871F00E94E511847108
:102A9000843131F188EC90E00E9496110E94E5119A
:102AA00082FDEDCF3AC00E94EE1088EC90E00E94CB
:102AB00096112F9882E090E00E94F52B8F3F29F02D
:102AC0006FEF82E090E00E94FD2B84EF91E00E9486
:102AD00096112F9A0E94E51184788438D9F3D5CFC6
:102AE0000E94EE1088EC90E00E9496112E9882E0F1
:102AF00090E00E94F52B882329F060E082E090E0CE
:102B00000E94FD2B84EF91E00E9496112E9A0E9464
:102B1000E51184718431D9F3BDCF0E94EE1082E0BB
:102B200090E00E94F52B882331F03E9A3F9A81E095
:102B30008093690104C0109269013E983F9881E03A
:102B400090E00E945A1181FF41C082FB112710F9C9
:102B500082FD2E98C0EFDFEF0E94E51186FF04C0D2
:102B60002E9A2F9A2D9A32C0112329F0C430D10504
:102B700011F42E9A2F9881E00E94A41800E128E514
:102B800046E453E1BE0184E190E00E94641680E0D7
:102B90000E94A4188FE090E00E9496112196C931FE
:102BA000D105D1F6112311F02F9A2D9880E991E0EB
:102BB0000E9496110E94EE10E0919805F0919905FF
:102BC0000190F081E02D88E995E0099582E390E09D
:102BD0000E9496110E94E5118111F8CF81E2809345
:102BE0009F05809164008E7F8093640080917A00BD
:102BF000806480937A0080917A0086FDFCCFC0913A
:102C00007800D09179000E94C9108E0120E030E058
:102C1000980111270027600F711F821F931F6115F4
:102C200071058105910511F00E94EC2B80916400E3
:102C30008160809364001092730110927201DF91A1
:102C4000CF911F910F910C94DD17CF93DF93DC018F
:102C500014966C93149717965C934E931697EA010B
:102C6000EA81FB8185919491262F30E0829FB0010B
:102C7000839F700D11247595679575956795620F03
:102C8000731F11967C936E93445F5F4FFA01859199
:102C9000949115968C93159777FF02C06F5F7F4FC5
:102CA0007595679513967C936E931297DF91CF91EC
:102CB000089520919E05282329F490919D0598233D
:102CC00081E009F480E008952F923F924F925F9245
:102CD0006F927F928F929F92AF92BF92CF92DF922C
:102CE000EF92FF920F931F93CF93DF93CDB7DEB791
:102CF00028970FB6F894DEBF0FBECDBF5A01822EC3
:102D0000912C9C01280D391D37FDC4C080389105D8
:102D10000CF0C0C09B01200F311D37FDBBC06034DB
:102D200071050CF0B7C0AB0177FF04C044275527ED
:102D3000461B570B477055279B0177FF02C0295F41
:102D40003F4FE3E035952795EA95E1F777FF08C017
:102D50002150310968E070E0DB01A41BB50BAD0127
:102D6000602F66956695669570E0077011F06F5F4D
:102D70007F4FDB01A20FB31FBA83A9833901769479
:102D8000762C662477946794680E791EE12CF12CDA
:102D900000E010E02301B0E84B0E511C68E070E049
:102DA000DB01A41BB50BBC83AB8369817A81261739
:102DB000370709F46FC02830310509F46BC02F3F85
:102DC000BFEF3B070CF45BC0B201600F711FDB016A
:102DD000A858BE4FBE83AD83D801A60DB71DA85815
:102DE000BE4F6C0160E070E0681579050CF047C0DB
:102DF000E0E8CE16D10409F442C0D7FC34C02F3F1E
:102E0000FFEF3F0709F442C0FB01EE0DFF1DEA0D85
:102E1000FB1DE491042E01C0EE0F0A94EAF73C90EA
:102E2000E329EC9341155105F1F027303105D9F034
:102E3000FB01EE0DFF1DEA0DFB1DE4912E2E312C42
:102E4000F1010B8002C0F595E7950A94E2F7F88747
:102E5000EF83ED81FE813080EF81F885E3291F014A
:102E6000ED81FE8120826F5F7F4FED81FE81319683
:102E7000FE83ED83FFEFCF1ADF0A1196B5CF2F5FE8
:102E80003F4F00581F4FE80CF91C8FCF41155105DB
:102E900079F6E9CF28960FB6F894DEBF0FBECDBF06
:102EA000DF91CF911F910F91FF90EF90DF90CF9026
:102EB000BF90AF909F908F907F906F905F904F905A
:102EC0003F902F900895009769F0FC010190002039
:102ED000E9F73197AF01481B590BBC0184E995E034
:102EE0000C949E1080E090E008958F929F92AF9294
:102EF000BF920F931F93CF93DF93CDB7DEB7A19708
:102F00000FB6F894DEBF0FBECDBF19A2423008F451
:102F10004AE08E010F5D1F4F842E912CA12CB12C05
:102F2000A50194010E943D2CE62FB901CA01015070
:102F30001109EA3014F4E05D01C0E95CD801EC93BA
:102F4000232B242B252B61F7C8010E946317A19620
:102F50000FB6F894DEBF0FBECDBFDF91CF911F91AA
:102F60000F91BF90AF909F908F900895CF92DF9276
:102F7000EF92FF92CF93DF936B017C01E091940578
:102F8000F09195050190F081E02D6DE284E995E0E6
:102F90000995EC0166277727CB016C197D098E090D
:102FA0009F094AE00E9475178C0F9D1FDF91CF91FA
:102FB000FF90EF90DF90CF90089580E0E8E7F1E098
:102FC00081118FEF002481938193819381930394E6
:102FD000D1F7E4E9F5E0128A118A108A178608957C
:102FE0000F931F93CF93DF938C01C0E0D0E0F801E3
:102FF000EC0FFD1F6491662371F0E0919405F09150
:1030000095050190F081E02D84E995E00995892BE3
:1030100011F02196ECCFCE01DF91CF911F910F914E
:103020000895CF93DF930E94F017EC0181E691E0C1
:103030000E9463178C0F9D1FDF91CF9108955F92BF
:103040006F927F928F929F92AF92BF92CF92DF92B8
:10305000EF92FF920F931F93CF93DF93EC018B01BD
:103060007A01A901461B570B57FF03C051954195A3
:103070005109C7018C1B9D0B97FF03C0919581954A
:103080009109552453948417950714F0512C0AC0C4
:103090009E2D8F2D7901292F382F9C2F8D2FE80100
:1030A000092F182FEC16FD0654F4902F812F89015B
:1030B000292F382F9C2F8D2FE701E92EF82E37016D
:1030C0006C1A7D0A5901A01AB10AB7FE03C0B19467
:1030D000A194B108630177FE03C08FEFC81AD80A24
:1030E000D594C7940217130714F08FEF01C081E045
:1030F000882E880F9908EC16FD06B4F021E05520C3
:1031000019F0AE01B80102C0A801BE0188E995E03E
:103110000E94ED11CA18DB08D7FE04C0080D191D66
:10312000C60CD71C2196E7CFDF91CF911F910F914D
:10313000FF90EF90DF90CF90BF90AF909F908F90D7
:103140007F906F905F900895E8E7F1E0A0E0B8E02D
:1031500000800EBC8111012C1197A0FDFDCF0192C2
:10316000B9F70DB40895BC01990F880B990B97FD21
:103170000C94B6174AE00C947517CF92DF92EF9239
:10318000FF920F931F93CF93DF93809180059091CF
:103190008105181619060CF027C3809178059091C7
:1031A0007905181619060CF08BC20E94DD17C6E0CF
:1031B000D0E0D093A405C093A30584E090E0909361
:1031C000A6058093A505E0917E05F0917F05859188
:1031D00094910E94F017D093A405C093A3058EE0AC
:1031E00090E09093A6058093A50587EE9FE10E944D
:1031F000F0176091780570917905072E000C880B07
:10320000990B97FF03C00E94B61703C04AE00E94C3
:10321000751781E691E00E94631700E228E347E01A
:103220005FE16BE170E085E090E00E946416E09160
:103230007E05F0917F053D964591549104E124E18E
:103240006DE170E086E190E00E9464160E943D13FB
:103250000E944A138091B6058111B4C18091B405D2
:103260009091B505009709F00DC18091760181110B
:1032700040C01092B005809174019091750104973F
:1032800024F0109275011092740180917401909154
:10329000750197FF06C083E090E0909375018093DD
:1032A000740180917401909175018130910571F0E4
:1032B0002CF4892B91F488EA9EE10DC082309105AF
:1032C00041F0039751F484E99EE105C081EA9EE153
:1032D00002C08BE99EE10E94F01788E00E94591617
:1032E000882309F4ABC080917701882309F40AC3CD
:1032F000A5C0813009F048C0A0918605B09187052E
:1033000059968D919C915A97FC0125913491409149
:103310007401509175012417350720F4109275013E
:1033200010927401209174013091750137FF07C02C
:10333000FC01859194919093750180937401809123
:10334000740190917501FD01E80FF91FE38985E093
:10335000E89FF0011124E251F14E859194910E9471
:10336000111888E00E945916882329F0809177016E
:10337000882309F4F4C284E00E945916882309F4D2
:103380005DC0109276015AC0823009F057C0A091FA
:103390008605B091870557968D919C915897FC01B1
:1033A000259134914091740150917501241735078E
:1033B00020F41092750110927401209174013091E3
:1033C000750137FF07C0FC018591949190937501B9
:1033D000809374018091740190917501FD01E80F53
:1033E000F91FE78585E0E89FF0011124E251F14ED5
:1033F000859194910E94111888E00E9459168823A3
:1034000009F4B9CF809177018111B5CF81E0809324
:10341000770181E090E09093B5058093B405109218
:103420007601A9CF823091050CF08CC2892B31F442
:103430001092AC051092AB05209376010E94892B67
:1034400063E070E00E940C2E8130910579F048F025
:103450008230910509F0A1C29093AE058093AD052D
:103460000EC01092AE051092AD0509C09093AE0546
:103470008093AD059093B3058093B2058EC281E031
:1034800090E0F8CF019709F088C28091B205909141
:10349000B305019709F081C2E0918605F091870597
:1034A0003896A591B4912091840530E0E0917E0595
:1034B000F0917F0538966591749180917C0590E03C
:1034C000A29FA001A39F500D112455954795559596
:1034D0004795240F351F689FA001699F500D112447
:1034E0005595479555954795840F951F82179307D6
:1034F00020F481E08093B10502C01092B105909153
:10350000B1058091B005992341F1811146C2E09146
:10351000AF0585E0E89FF0011124EF01C051D14EC5
:10352000FE0105911491E090AD05F090AE05C090BC
:10353000AB05D090AC059701A60168E775E080E87F
:1035400095E00E946614FE01059114919601A70171
:1035500060E875E088E795E027C081111EC2E09120
:10356000AF0585E0E89FF0011124EF01C051D14E75
:10357000FE0105911491E090AB05F090AC05C09070
:10358000AD05D090AE059701A60160E875E088E72B
:1035900095E00E946614FE01059114919601A70121
:1035A00068E775E080E895E00E94661481E080930A
:1035B00077018093B0051092B5051092B405809301
:1035C000B605EBC1813009F0E8C10E94DD170E9409
:1035D0003D130E944A1386E490E09093A4058093E3
:1035E000A30582E390E09093A6058093A50585EE60
:1035F0009EE10E94F017C6E0D0E0D093A405C093EE
:10360000A30584E090E09093A6058093A5058091A2
:10361000AD059091AE058130910589F48DED9EE167
:103620000E941118D093A405C093A3058EE090E0EA
:103630009093A6058093A50584ED9EE131C0892B6A
:1036400089F48CEC9EE10E941118D093A405C093DC
:10365000A3058EE090E09093A6058093A50583ECEA
:103660009EE11EC08BEB9EE10E941118D093A40531
:10367000C093A3058EE090E09093A6058093A505E6
:1036800085EB9EE10E941118D093A405C093A30579
:1036900088E190E09093A6058093A5058FEA9EE1CE
:1036A0000E94111888E00E945916882309F475C1F8
:1036B00080917701811171C181E0809377016BC1A5
:1036C0000E94DD170E94161484E190E09093A405F7
:1036D0008093A3059093A6058093A5058CE89EE1B1
:1036E0000E941118CFE0D0E0D093A405C093A305A9
:1036F0008EE190E09093A6058093A5058FE79EE16B
:103700000E941118D093A405C093A30588E290E00D
:103710009093A6058093A50581E79EE10E9411186C
:103720008AE090E09093A4058093A30582E390E063
:103730009093A6058093A5058DE59EE10E94111842
:1037400084E00E945916882309F425C182E090E0A4
:10375000909373018093720110927101809188059A
:1037600090918905029690938905809388058091B0
:103770007C052091900590919105C22FD92FC80FFB
:10378000D11DC80FD11DD0939105C0939005109104
:103790008405612F70E080E090E00E94112D9B0174
:1037A000AC010E949F2D20E030E040E450E40E94F4
:1037B0009F2D20E030E040E850E40E946F2C0E94F2
:1037C000DB2C6C177D0718F41F5F10938405809124
:1037D0007001813009F0DFC080916F018F5F8093AD
:1037E0006F0110927001D7C00E94DD170E9416145D
:1037F000CAE0D0E0D093A405C093A30584E190E093
:103800009093A6058093A5058DE49EE10E94111872
:10381000D093A405C093A3058EE190E09093A605F4
:103820008093A50589E39EE10E9411188091880587
:1038300090918905D093A405C093A305892BC9F461
:1038400088E290E09093A6058093A50583E29EE12F
:103850000E941118D093A405C093A30582E390E0C1
:103860009093A6058093A50582E19EE10E94111820
:103870000AC088E290E09093A6058093A5058EEF9C
:103880009DE10E94F01784E00E945916882309F4F4
:1038900082C082E090E09093730180937201109255
:1038A0007101E0918605F09187053296459154911A
:1038B0008091840590E0489F9001499F300D11242C
:1038C0003595279535952795820F931F9093810500
:1038D0008093800580917001813011F41092700105
:1038E00080918805909189058230910530F002978A
:1038F00090938905809388054EC010928905109297
:10390000880549C021E0209377018091740190914E
:1039100075018130910509F085CD9093AC058093B8
:10392000AB050BC0039709F089CD84E090E090933C
:10393000AC058093AB0581E090E09093B505809352
:10394000B4057CCD8230910569F783E090E09093D7
:10395000AC058093AB0582E0809376016FCD81E06A
:103960008093770181E090E09093B5058093B40552
:1039700010927601E0918605F0918705809174019F
:1039800090917501E80FF91FE389F0E0859194911A
:103990008093AF05F0CC1092B605DF91CF911F91C7
:1039A0000F91FF90EF90DF90CF900895FC018091F0
:1039B0000F06811103C08FEF9FEF08959FB7F89412
:1039C00082E08093E9002091F20030E012161306A5
:1039D00014F421E030E02115310559F0289884E6EF
:1039E00080930E068091F10080838091F2008823FD
:1039F00019F09FBFC90108958BE68093E800F9CFC5
:103A00002FB7F89483E08093E9009091E800892F24
:103A1000807295FF04C09091F20080E4891B2FBF53
:103A200008958091150681110DC082E080931106E2
:103A300084E080931206109214061092130681E01F
:103A40008093150681E196E00895CF93DF931F924E
:103A5000CDB7DEB76983DC01ED91FC910280F38183
:103A6000E02D41E050E0BE016F5F7F4F09950F9060
:103A7000DF91CF91089583E08093E9008091F20077
:103A8000882319F08AE38093E80008950E94001DBE
:103A900090E00895CF93DF931F92CDB7DEB7FC017E
:103AA0008485958597FD05C02FEF3FEF35872487E7
:103AB0000BC0CE0101960E94D61C019719F4898192
:103AC00090E002C08FEF9FEF0F90DF91CF910895AC
:103AD0000F931F93CF93DF931F92CDB7DEB78C0167
:103AE000FC018485958597FF0EC0CE0101960E944A
:103AF000D61C019719F4298130E002C02FEF3FEF67
:103B0000F80135872487F801848595850F90DF912A
:103B1000CF911F910F910895FC018485958597FDA4
:103B20000BC09FB7F89482E08093E9008091F20087
:103B30009FBF90E0019608959FB7F89482E080932C
:103B4000E9008091F2009FBF90E008958F929F92CC
:103B5000AF92BF92CF92DF92EF92FF920F931F939B
:103B6000CF93DF935C016B017A0180910B01882375
:103B700009F45BC080910F06882309F456C0809138
:103B80000D0680FF05C08091E00082608093E00018
:103B9000E70110E00AEF83E0882E9AE3992E209740
:103BA000D9F10E94001D81110AC0015009F43DC0E5
:103BB00061E070E080E090E00E945C11F0CF282F7F
:103BC00030E0C217D3070CF48C2F4FB7F8948092D3
:103BD000E9009091E80095FF1DC0282F30E0C21B3E
:103BE000D30BF601982F915020F081918093F10032
:103BF000FACFC20ED31E112319F09092E80009C02B
:103C00008091E80085FD06C09092E80011E02097C1
:103C100009F010E04FBFC3CF1111C3CF5D9884E608
:103C2000809310061E141F0444F081E090E0F5011B
:103C30009383828380E090E001C0C701DF91CF9140
:103C40001F910F91FF90EF90DF90CF90BF90AF90BA
:103C50009F908F900895DF92EF92FF920F931F93A2
:103C6000CF93DF93D82E8A017B01E40EF51EEB0182
:103C7000CE15DF0571F0D7FE03C0FE01849101C0AF
:103C800088810E94382121968111F2CF8FEF9FEF1A
:103C900001C0C801DF91CF911F910F91FF90EF906C
:103CA000DF9008950F931F93CF93DF931F92CDB7AB
:103CB000DEB782E0898342E450E069E770E280E8A1
:103CC0000E942B1E0E94111DDC0112960D911C9169
:103CD00013970115110569F0D801ED91FC9102804F
:103CE000F381E02DBE016F5F7F4FC801099597FFFB
:103CF00007C089810F90DF91CF911F910F91089597
:103D0000F80100851185E5CFCF93DF93BC0180E0FA
:103D100090E04AE00E947517EC0181E691E00E9474
:103D200063178C0F9D1FDF91CF9108951F920F9203
:103D30000FB60F9211248F939F938091E100909181
:103D4000E100937F9093E10083FF0FC01092E900A0
:103D500091E09093EB001092EC0092E39093ED00D1
:103D600010920F0698E09093F00082FF20C093E03D
:103D70009093E9009091F200992319F09AE39093BF
:103D8000E80090911006992339F090911006915017
:103D900090931006992389F190910E06992339F09A
:103DA00090910E06915090930E06992341F184FF55
:103DB00010C08091E2008E7E81608093E20080914D
:103DC000E1008F7E8093E10080910D068E7E806100
:103DD00011C080FF16C08091E2008E7E80618093CA
:103DE000E2008091E1008E7E8093E10080910D06DB
:103DF0008E7E816080930D0604C05D9ACDCF289A97
:103E0000D6CF9F918F910F900FBE0F901F90189556
:103E10001F920F920FB60F921124CF92DF92EF9262
:103E2000FF920F931F932F933F934F935F936F9343
:103E30007F938F939F93AF93BF93EF93FF93CF9312
:103E4000DF93CDB7DEB76C97DEBFCDBF1092E90030
:103E50008091E80083FFEDC168E0CE0145960E94A5
:103E6000662182EF8093E8008D8987FF05C09091DD
:103E7000E80090FFFCCF03C09EEF9093E800982FDE
:103E8000907609F0C6C09E892F89188D91110CC0BB
:103E9000803829F480910C068093F10002C01092C2
:103EA000F1001092F10048C1422F50E0512B9130A7
:103EB00051F4811141C14130510509F03DC180915A
:103EC0000C068D7F0BC0933061F4811135C14130F8
:103ED000510509F031C180910C06826080930C0677
:103EE0002BC1953041F48091E80080FFFCCF206821
:103EF0002093E30021C1963009F05FC0EB8CFC8C6D
:103F00001092E90010920A0610920906123091F5FB
:103F100010920806109207060E94521E99E0BE01F8
:103F20006F5F7F4FDB01E92F1D92EA95E9F79983D7
:103F30001A8391E09E8390EA98879AEF998720915F
:103F4000090630910A06275F3F4F3C832B838D8300
:103F50001092E90010920A0610920906F0920806E3
:103F6000E092070649E050E080E00E942B1E0E948C
:103F7000521EE2C0F0920806E09207060E94111D50
:103F8000DC011296ED90FC901397E114F10409F412
:103F9000C0C0D701ED91FC910480F581E02DBE01F8
:103FA0006B5E7F4FC7010995009719F00CF0C4C0F4
:103FB000C7C0F701E084F184E8CF973009F4C0C0AE
:103FC000983021F481E08093F100B6C0993009F077
:103FD000B3C0837009F0B4C0E1E4F1E081E021E016
:103FE00036E39081992361F08093E9002093EB0000
:103FF00091919093EC003093ED008F5F873089F7BB
:104000008EE78093EA001092EA008F8980930F0672
:1040100093C08B8D9C8D1092E90010920A0610922D
:1040200009069093080680930706898D811156C072
:104030008E899D89913A59F4813209F081C047E017
:1040400050E064E071E080E00E942B1E75C0913268
:1040500009F076C0833289F4888D90E0982F882704
:104060002F89822BA0E0B0E08093000190930101A2
:10407000A0930201B09303015FC0803269F4809184
:10408000E80082FFFCCF67E084E091E00E946621B7
:104090008BEF8093E80006C0823209F04DC08F8913
:1040A00080930B0180910B06882319F0EEEFFAE064
:1040B00002C0E0E0F8E08091040190910501A09138
:1040C0000601B0910701803B9440A105B10509F0BC
:1040D0007BC080910B0180FF93C076C00E94111DB0
:1040E000DC0112960D911C9113970115110541F1F8
:1040F000D801ED91FC910190F081E02DBE016B5E45
:104100007F4FC8010995811117C0F80100851185FD
:10411000ECCF113009F44EC0133091F48F8988230D
:1041200009F445C0823081F440E867E08DED90E20B
:104130000E94002B882321F08EEF8093E80079C045
:1041400081E28093EB0075C0813029F440E86BE098
:1041500081ED90E2EDCF833099F70E94111DDC01D3
:104160001296ED90FC9013978E010F5F1F4F680120
:10417000E114F10479F0D701ED91FC910680F7810B
:10418000E02DB801C7010995080F111DF701E08462
:10419000F184EECFD8011C92F60101900020E9F7DE
:1041A0003197BF016C197D0940E0C601C1CF6BEBAF
:1041B00070E202C06FEB70E26115710509F2FB015C
:1041C000449150E080E840CF0FB6F894A8958091D4
:1041D0006000886180936000109260000FBEA89517
:1041E000EE3F2AE0F20739F08091FE0A9091FF0A33
:1041F00091838083A1CF1092FF0A1092FE0A9CCF78
:10420000EE3F8AE0F80731F0808191819093FF0AB8
:104210008093FE0A87E797E7918380839BE088E19C
:104220000FB6F894A895809360000FBE909360003D
:1042300083CF6C960FB6F894DEBF0FBECDBFDF9173
:10424000CF91FF91EF91BF91AF919F918F917F910E
:104250006F915F914F913F912F911F910F91FF901F
:10426000EF90DF90CF900F900FBE0F901F9018959A
:104270004091090650910A062091070630910806E0
:1042800042175307B4F49091E8009570E1F39091D0
:10429000E80092FD19C08093F10080910906909189
:1042A0000A0601968F739927892B19F48EEF809354
:1042B000E8008091090690910A06019690930A06FB
:1042C0008093090681E0089580E00895615030F000
:1042D0002091F100FC0120830196F8CF289884E614
:1042E00080930E060895CF93DF93CDB7DEB769971D
:1042F0000FB6F894DEBF0FBECDBF789484B5826050
:1043000084BD84B5816084BD85B5826085BD85B579
:10431000816085BD80916E00816080936E001092F7
:104320008100809181008260809381008091810072
:104330008160809381008091800081608093800003
:1043400080919100826080939100809191008160C2
:104350008093910080919000816080939000809183
:10436000C10084608093C1008091C100826080930D
:10437000C1008091C10081608093C1008091C30021
:1043800081608093C3008091C00082608093C000F0
:104390008091C20081608093C20080917A00846025
:1043A00080937A0080917A00826080937A00809175
:1043B0007A00816080937A0080917A00806880938F
:1043C0007A0010920F0610920C0610920D06809142
:1043D000D70081608093D70080EA8093D80089B5A8
:1043E000806189BD89B5826089BD09B400FEFDCFB9
:1043F00061E070E080E090E00E945C118091D80064
:104400008F7C80618093D8008091E000807F8093D2
:10441000E0008091E1008E7E8093E1008DE080934A
:10442000E200559A209AEEEFFFE7859194918B3F39
:104430009C4D19F481E080930B060E94E0148BE8F8
:1044400095E0A5E0A80FAF8B48E0442E512C59E22F
:10445000252E312C65E0862E912C94E0E92EF12C4E
:1044600022E0C22ED12C3CE0A32EB12C8FB7F894C1
:1044700040916401509165016091660170916701FE
:104480008FBF8091A005B42FB81B8B2F9091A105F1
:10449000992329F0B093A2051092A10507C7909126
:1044A0009F05B91748F48F5F891708F0FFC681E0B0
:1044B00083BF889513BEFAC681E08093A10540931F
:1044C000A00580919B0590919C05019690939C0579
:1044D00080939B0580919D0580939E050E94E51128
:1044E00080939D0580E80E945916882349F08091A9
:1044F00074019091750101979093750180937401F7
:1045000080E10E945916882349F0809174019091AE
:104510007501019690937501809374010E94E511D5
:1045200083FF10927701E0917201F0917301E830FE
:10453000F10508F0B8C6EA5AFF4F0C94202E0E94ED
:10454000DD17E0918605F0918705E389F0E065913C
:10455000749170E080E090E04AE00E94751700E4FA
:1045600020E842E95EE060E070E080E090E00E94D8
:10457000641689E190E09093A4058093A3051092BE
:10458000A6051092A50584E00E945916882309F417
:104590008AC681E090E090937301809372012DC4EC
:1045A00068E270E2CE0101960E94FA1284E1FE01F7
:1045B0003196A0E8B5E001900D928A95E1F70E944E
:1045C000DD170E941614F092A405E092A30583E083
:1045D00090E09093A6058093A50581E89EE00E9457
:1045E000F0178FE79EE00E94F0172DE030E04FE7D4
:1045F00050E06DE070E081E090E00E941F18F092C2
:10460000A405E092A3058FE090E09093A605809327
:10461000A5058091740190917501039724F0109283
:10462000750110927401809174019091750197FF4A
:1046300004C0D0927501C092740180917401909170
:1046400075018130910509F182309105C9F1892BFD
:1046500009F052C087E79EE00E94111804E124E1AE
:104660004AEB5DE168E270E084E090E00E9464164D
:10467000F092A405E092A30589E190E09093A6054D
:104680008093A50589E69EE035C084E69EE00E9401
:10469000111804E124E149E75DE168E270E084E09B
:1046A00090E00E946416F092A405E092A30589E1CF
:1046B00090E09093A6058093A5058EE49EE01AC035
:1046C00089E49EE00E94F01704E124E148E35DE103
:1046D00068E270E084E090E00E946416F092A40525
:1046E000E092A30589E190E09093A6058093A5054B
:1046F0008AE39EE00E94F0170E94E51183FFD3C574
:1047000080917701882309F4D9C5CDC50E94DD17B2
:1047100080E390E09093A4058093A305F092A60512
:10472000E092A50580916F01813049F028F0823038
:1047300051F485E19EE005C08DE29EE002C082E278
:104740009EE00E94F01700E420E845E15AE060E0B6
:1047500070E080E090E00E94641680917401909176
:104760007501059724F010927501109274018091E3
:1047700074019091750197FF04C0F0927501E09269
:10478000740109E010E01093A4050093A305F092D2
:10479000A605E092A5058FE09AE00E94F01710931D
:1047A000A4050093A3058EE090E09093A605809366
:1047B000A50580918005909181051816190624F4AD
:1047C00088E09AE00E94F01709E010E01093A40539
:1047D0000093A30528E130E03093A6052093A505BA
:1047E00082E09AE0288F398F0E94F0171093A40579
:1047F0000093A30582E2682E712C7092A605609248
:10480000A50581EF99E00E94F0171093A40500938D
:10481000A3050CE210E01093A6050093A5058BEE0E
:1048200099E00E94F0178091740190917501288D94
:10483000398D82309105A1F1A4F4009721F10197FF
:1048400009F04BC083E090E09093A4058093A3050A
:104850008EE090E09093A6058093A50587EE99E001
:104860003AC08330910549F10497B9F583E090E0AF
:104870009093A4058093A3051093A6050093A50526
:1048800081EE99E028C083E090E09093A4058093A6
:10489000A305F092A605E092A50589EE99E01BC05C
:1048A00083E090E09093A4058093A3053093A60540
:1048B0002093A50585EE99E00EC020916F0124306C
:1048C00060F49093A4058093A3057092A60560926E
:1048D000A50583EE99E00E94F0170E94E51183FF81
:1048E000E2C480917701882309F410C5DCC480916B
:1048F0007101811138C00E94DD170E94892B65E08B
:1049000070E00E940C2E3C010091840510E00150E3
:1049100011090E94892B63E070E00E940C2EB801FF
:10492000680F791F1616170614F061E070E08BE12E
:10493000869DA001879D500D11244251574FCE01F5
:1049400001960E94251688E0FE013196A8E7B5E0A1
:1049500001900D928A95E1F781E0809371011092A8
:104960007501109274010E94BD189DC40E94DD174C
:104970001092A4051092A3051092A6051092A50509
:104980008CED98E00E94F0172AE030E042E850E019
:104990006AE070E080E090E00E941F180E94E5113C
:1049A00082FF04C0D0927301C092720180916801AD
:1049B0008111C3C18091740190917501029724F017
:1049C000109275011092740180917401909175019B
:1049D00097FF06C081E090E0909375018093740189
:1049E0008091740190917501009709F02AC110928D
:1049F000A4051092A305B092A605A092A505E0918A
:104A00008605F0918705859194910E9411188091F7
:104A10008005909181050E94B31887E491E00E947F
:104A20006317E0918605F0918705329625913491C0
:104A30008091840590E0289FB001299F700D11247A
:104A40007595679575956795680F791F80E090E07B
:104A50004AE00E9475178BE298E00E94111881E2EB
:104A600098E00E94F017E0918605F0918705349652
:104A7000659174912091840530E0E0918A051AE0F7
:104A80001E9FF0011124E354F84F45915491629F09
:104A9000C001639F900D11249595879595958795F5
:104AA000820F931F840F951F0E94841E84EB97E052
:104AB0000E94F017E0918605F09187053696659182
:104AC00074912091840530E0E0918A051E9FF001E9
:104AD0001124E154F84F45915491629FC001639FA6
:104AE000900D11249595879595958795820F931F25
:104AF000840F951F0E94841E8DEA97E00E94F01794
:104B0000E0918605F0918705389645915491209162
:104B1000840530E0429FC001439F900D112495957C
:104B2000879595958795820F931F0E94841E86EA2C
:104B300097E00E94F017E0918A051E9FF001112472
:104B4000EF53F84F859194910E94841E8BE490E07E
:104B50009093A4058093A305B092A605A092A50505
:104B600081EA97E00E94F0176091840570E080E090
:104B700090E04AE00E9475178FE997E00E94F017D5
:104B8000ABE4B0E0B093A405A093A30584E190E06A
:104B90009093A6058093A505E0918A051E9FF001DC
:104BA0001124ED53F84F859194910E9411188BE4D4
:104BB00090E09093A4058093A3058CE190E09093FE
:104BC000A6058093A50588E997E00E94F0176091FB
:104BD00088057091890580E090E04AE00E94751791
:104BE000E0918605F09187053D964591549104E149
:104BF00024E168E270E084E690E00E94641680910F
:104C00009305813039F408E028E040E957E068E294
:104C100070E012C0823009F080C008E028E040E96E
:104C200057E068E270E080E590E00E94641628E0BA
:104C300040E957E062E370E080E590E00E9464168E
:104C40006CC0019709F069C00E94DD171092A4059D
:104C50001092A3051092A6051092A50580E398E096
:104C60000E94F0172AE030E042E850E06AE070E08D
:104C700080E090E00E941F181092A4051092A305F6
:104C8000B092A605A092A5050BE815E0EAE07E2EFD
:104C90001E8B0D8BD801EC917E9EF0011124ED53FB
:104CA000F84F859194910E94F0178CE897E00E944C
:104CB000F017D801EC917E9EF0011124E354F84FD7
:104CC0006591749180E090E04AE00E94751788E851
:104CD00097E00E94F017D801ED918D017E9EF001C2
:104CE0001124E154F84F6591749180E090E04AE01E
:104CF0000E94751784E897E00E94F017AD89BE897D
:104D0000EC917E9EF0011124EF53F84F8591949120
:104D10000E94841EBF89B013BBCF80E40E94591645
:104D2000882319F081E08093680180E20E9459167F
:104D3000882319F082E080936801809168018130B6
:104D400009F060C00E94DD171092A4051092A3051F
:104D50001092A6051092A50584ED98E00E94F01728
:104D60002AE030E042E850E06AE070E080E090E065
:104D70000E941F181092A4051092A305B092A605D8
:104D8000A092A5058EEB98E00E9411188091740105
:104D900090917501059724F010927501109274019D
:104DA000809174019091750197FF04C0F092750194
:104DB000E0927401E0917401F0917501E058FA4FAE
:104DC000E3852AE0E29FF0011124E05AF74F859134
:104DD00094910E94F01788E00E945916882329F0C8
:104DE00080917701882309F4DDC280E20E94591680
:104DF000882309F458C2109268011092750110922C
:104E0000740151C2823009F04EC21092A405109272
:104E1000A305B092A605A092A50510E005E080913B
:104E2000860590918705FC01799625913491412F53
:104E300050E04217530778F4FC01E40FF51FE389B3
:104E40000E9FF0011124EF5BF74F859194910E9422
:104E500011181F5FE4CF10E005E080918605909166
:104E60008705FC01779625913491412F50E0421738
:104E7000530778F4FC01E40FF51FE7850E9FF0015E
:104E80001124EF5BF74F859194910E9411181F5FD9
:104E9000E4CF80E40E945916882309F404C21092DA
:104EA000680101C20E94DD1700E420E844E853E0F5
:104EB00060E070E080E090E00E9464165092A405EB
:104EC0004092A3053092A6052092A5058BE491E0BF
:104ED0000E9463179092A4058092A30586E390E058
:104EE0009093A6058093A5050E94E51182FF08C056
:104EF000D0927301C09272011092750110927401E8
:104F000080917601811175C0809174019091750135
:104F1000039724F01092750110927401809174012E
:104F20009091750197FF04C0D0927501C0927401F1
:104F300080917401909175018130910541F082302A
:104F4000910529F1892BD1F581E793E035C0809156
:104F5000840590E0E0918605F09187054281489FA5
:104F60009001499F300D112435952795359527954A
:104F7000820F931F209180053091810528173907F2
:104F800018F484E693E018C082E593E015C0209100
:104F900093058091880590918905223030F4833003
:104FA000910518F08DE393E007C0039718F48CE2A5
:104FB00093E002C087E193E00E94F0170E94E511A0
:104FC00083FF17C080917701811113C021E02093E6
:104FD000770180917401909175018130910509F4F8
:104FE000EDC18230910509F418C2892B11F4209388
:104FF000760180917601813009F0A1C08091740121
:1050000090917501059724F010927501109274012A
:10501000809174019091750197FF04C0F092750121
:10502000E09274010E94DD175092A4054092A305FE
:105030003092A6052092A50584E093E00E94111805
:1050400000E420E844E853E060E070E080E090E0B5
:105050000E9464169092A4058092A305A6E3B0E096
:10506000B093A605A093A505E0917401F091750198
:10507000EC5EFE4FE0811AE01E9FF0011124E05A21
:10508000F74F859194910E94F01782E093E00E947F
:10509000F017E0917401F0917501EC5EFE4FE08134
:1050A0001E9FF0011124EE59F74F6591749180E035
:1050B00090E04AE00E9475178CEF92E00E94111870
:1050C0008091740190917501189FF001199FF00D66
:1050D0001124E65AF74F2091880530918905808583
:1050E00091852817390760F45092A4054092A305D2
:1050F0003092A6052092A50583EF92E00E94F0175A
:105100000E94E51183FF1BC080917701811117C0B8
:10511000E0917401F0917501EC5EFE4FE081BAE020
:10512000EB9FF0011124EE59F74F85919491209156
:105130008805309189052817390708F084C18091C6
:105140007601823009F0AFC08091740190917501B1
:10515000059724F0109275011092740180917401EA
:105160009091750197FF04C0F0927501E09274016F
:105170000E94DD1700E420E844E853E060E070E0BE
:1051800080E090E00E9464165092A4054092A3052E
:105190003092A6052092A50583EE92E00E94111898
:1051A0009092A4058092A30586E390E09093A605D3
:1051B0008093A5058AED92E00E94F017809174011A
:1051C000909175010E94B31889E491E00E946317E1
:1051D000E0917401F0917501E058FA4FE3859AE08F
:1051E000E99FF0011124E05AF74F859194910E94B4
:1051F00011180E94E51183FF56C080917701882322
:1052000009F428C150C0809171018111ACCB0E947A
:10521000DD1781E080937101109275011092740185
:105220008093700180916F01811104C045E759E0BE
:1052300063E012C0813021F440E959E064E00CC021
:10524000823021F44BEA59E065E006C0833009F072
:105250008ACB46EC59E066E0CE0101960E94251605
:1052600088E0FE013196A8E7B5E001900D928A959D
:10527000E1F779CB012BB9F468E270E2CE01019637
:105280000E94FA1284E1FE013196A0E8B5E0019097
:105290000D928A95E1F71092750110927401D092E7
:1052A0007301C092720180E00E94A41880E090E037
:1052B000892B09F4DBC80E940000CFC881E08093ED
:1052C000770100917401109175010130110519F4F5
:1052D00063E470E2D3CF0230110561F66EE570E24F
:1052E000CE0101960E94FA1284E1FE013196A0E8F7
:1052F000B5E001900D928A95E1F710927501109238
:1053000074011093730100937201CDCF81E08093FB
:10531000770180917401909175018230910519F4A3
:105320000E94E014C0CF833091053CF40097C1F493
:10533000909273018092720110C083309105F1F058
:10534000049709F0B0CF86E090E0909373018093CA
:105350007201109275011092740110927601A3CF20
:10536000019709F0A0CF80918005909181051816D2
:1053700019060CF098CF83E090E00FC08091800573
:1053800090918105181619060CF08DCF80916F0150
:10539000843008F088CF87E090E090937301809389
:1053A000720181CFE0917401F0917501E058FA4FDC
:1053B000838580938A051092680117CD40918805F6
:1053C000509189054115510509F413CE809184054A
:1053D000282F30E0E0918605F09187056281629F79
:1053E000C001639F900D112495958795959587959C
:1053F000820F931F2091800530918105281739076E
:1054000008F0F7CD909381058093800541505109B4
:105410005093890540938805ECCD20919305233066
:1054200008F0E7CD8091880590918905833091053A
:1054300008F4DFCD2F5F20939305039790938905A0
:1054400080938805D6CD81E08093770182E08093B8
:10545000760175CEE0917401F0917501E058FA4F34
:1054600084E08387EAE8F8E025913491809188050B
:1054700090918905821B930B9093890580938805F1
:105480001092760181E0809377010DCF0F931F93E7
:10549000CF93DF938C0181E090E00E945A1180FF4E
:1054A00032C08AE090E00E945A119FEF980F9E3F11
:1054B00050F522E330E0D80150963C932E931F978D
:1054C00028E330E052963C932E935197CBE0D0E006
:1054D000D801ED91FC910190F081E02D682FC80179
:1054E0000995CE010E945A112196C131D10581F74B
:1054F00080E00E94A41888EE93E0DF91CF911F9185
:105500000F910C949611DF91CF911F910F910895F7
:1055100004970C94462A1F93CF93DF93CDB7DEB741
:105520006B970FB6F894DEBF0FBECDBFE7EBF5E08B
:105530001382128288EE93E0A0E0B0E0848395832A
:10554000A683B7838EE191E0918380838FEF9FEFF5
:105550009587848768E270E280E895E00E94FA12FD
:10556000AE014F5F5F4F8BE1FA0111928A95E9F727
:105570008CE591E09A83898388E090E09C838B831B
:105580009E838D8385E090E098878F8384E090E010
:105590009A87898711E01D878CEE9FE19F878E8710
:1055A00083E08C8B81E090E09B8F8A8F61E088E7BD
:1055B00095E00E942516E4E9F5E013821282118637
:1055C000128680E1838710861782158680E391E03A
:1055D000918380838EE391E095838483108A17867C
:1055E000128A118A138B148A158B168A6B960FB642
:1055F000F894DEBF0FBECDBFDF91CF911F9108950C
:10560000CF92DF92EF92FF920F931F93CF93DF938E
:105610001F92CDB7DEB7182F062FE42E862F880FE6
:105620008E5F99830E94382183E00E943821F12EF9
:10563000C12E9981D92E8C2D8F19801798F4F601DF
:10564000E7FE02C0849101C080810E943821182F9A
:1056500080E00E9438218123FFEFCF1ADF0A8111F9
:10566000EACF01C081E00F90DF91CF911F910F91A0
:10567000FF90EF90DF90CF9008958F929F92AF921E
:10568000BF92CF92DF92EF92FF92CF93DF93EC0124
:10569000688179818A819B816115710581059105F8
:1056A00021F464E279ED8BE597E02DE133EF41E001
:1056B00050E00E940B2C49015A019B01AC01A7EA62
:1056C000B1E40E942A2C6B017C01ACEEB4EFA50181
:1056D00094010E94382CDC01CB018C0D9D1DAE1D68
:1056E000BF1DB7FF03C00197A109B0488883998304
:1056F000AA83BB839F77DF91CF91FF90EF90DF90DC
:10570000CF90BF90AF909F908F9008950E943D2BB7
:1057100008958CE091E00E943D2B0895A0E0B0E058
:1057200080930C0190930D01A0930E01B0930F0193
:1057300008958F929F92AF92BF92CF92DF92EF9295
:10574000FF92CF93DF93EC01688179818A819B81FD
:10575000611571058105910521F464E279ED8BE510
:1057600097E02DE133EF41E050E00E940B2C49011E
:105770005A019B01AC01A7EAB1E40E942A2C6B01FB
:105780007C01ACEEB4EFA50194010E94382CDC0141
:10579000CB018C0D9D1DAE1DBF1DB7FF03C0019732
:1057A000A109B04888839983AA83BB83BC01CD013A
:1057B0009F77DF91CF91FF90EF90DF90CF90BF90D8
:1057C000AF909F908F9008950E94992B089580E14B
:1057D00091E00E94992B089560931001709311013C
:1057E00080931201909313010895F999FECF92BD11
:1057F00081BDF89A992780B50895262FF999FECF93
:105800001FBA92BD81BD20BD0FB6F894FA9AF99ADD
:105810000FBE01960895052E97FB1EF400940E947A
:10582000222C57FD07D00E943D2C07FC03D04EF4DC
:105830000C94222C50954095309521953F4F4F4F19
:105840005F4F089590958095709561957F4F8F4F2C
:105850009F4F08950E945F2CA59F900DB49F900DBF
:10586000A49F800D911D11240895B7FF0C942A2C3C
:105870000E942A2C821B930B0895A1E21A2EAA1BC8
:10588000BB1BFD010DC0AA1FBB1FEE1FFF1FA217F0
:10589000B307E407F50720F0A21BB30BE40BF50BED
:1058A000661F771F881F991F1A9469F76095709576
:1058B000809590959B01AC01BD01CF010895A29FF9
:1058C000B001B39FC001A39F700D811D1124911DD4
:1058D000B29F700D811D1124911D08955058BB2752
:1058E000AA270E94862C0C94652D0E94572D38F013
:1058F0000E945E2D20F039F49F3F19F426F40C9499
:10590000542D0EF4E095E7FB0C944E2DE92F0E94E8
:10591000762D58F3BA17620773078407950720F0AE
:1059200079F4A6F50C94982D0EF4E0950B2EBA2F71
:10593000A02D0B01B90190010C01CA01A001112495
:10594000FF27591B99F0593F50F4503E68F11A1641
:10595000F040A22F232F342F4427585FF3CF4695D2
:1059600037952795A795F0405395C9F77EF41F16F4
:10597000BA0B620B730B840BBAF09150A1F0FF0FBE
:10598000BB1F661F771F881FC2F70EC0BA0F621FAA
:10599000731F841F48F4879577956795B795F7959A
:1059A0009E3F08F0B0CF9395880F08F09927EE0F2F
:1059B0009795879508950E94E22C6894B1110C94F4
:1059C000992D08950E947E2D88F09F5798F0B92F49
:1059D0009927B751B0F0E1F0660F771F881F991F24
:1059E0001AF0BA95C9F714C0B13091F00E94982D01
:1059F000B1E008950C94982D672F782F8827B85F11
:105A000039F0B93FCCF3869577956795B395D9F77B
:105A10003EF490958095709561957F4F8F4F9F4F85
:105A20000895E89409C097FB3EF490958095709591
:105A300061957F4F8F4F9F4F9923A9F0F92F96E9DA
:105A4000BB279395F695879577956795B795F1114F
:105A5000F8CFFAF4BB0F11F460FF1BC06F5F7F4FEC
:105A60008F4F9F4F16C0882311F096E911C07723FE
:105A700021F09EE8872F762F05C0662371F096E807
:105A8000862F70E060E02AF09A95660F771F881FD6
:105A9000DAF7880F9695879597F9089597F99F6794
:105AA00080E870E060E008959FEF80EC08950024A6
:105AB0000A941616170618060906089500240A9473
:105AC00012161306140605060895092E0394000CF9
:105AD00011F4882352F0BB0F40F4BF2B11F460FF88
